{"abi":[{"anonymous":false,"inputs":[{"indexed":true,"internalType":"bool","name":"success","type":"bool"}],"name":"TaskCompleted","type":"event"},{"inputs":[{"internalType":"uint256","name":"taskId","type":"uint256"}],"name":"completing","outputs":[{"internalType":"bool","name":"success","type":"bool"}],"stateMutability":"nonpayable","type":"function"},{"inputs":[{"internalType":"uint256","name":"_id","type":"uint256"},{"internalType":"string","name":"_activity","type":"string"},{"internalType":"address","name":"_taskresource","type":"address"},{"internalType":"enum DecisionEntities.GatewayType","name":"_pmg","type":"uint8"},{"internalType":"uint256[]","name":"_requirements","type":"uint256[]"},{"internalType":"uint256[]","name":"_competitors","type":"uint256[]"}],"name":"createTask","outputs":[],"stateMutability":"nonpayable","type":"function"},{"inputs":[{"internalType":"uint256","name":"_id","type":"uint256"},{"internalType":"string","name":"_activity","type":"string"},{"internalType":"address","name":"_taskresource","type":"address"},{"internalType":"enum DecisionEntities.GatewayType","name":"_pmg","type":"uint8"},{"internalType":"uint256[]","name":"_requirements","type":"uint256[]"},{"internalType":"uint256[]","name":"_competitors","type":"uint256[]"},{"components":[{"internalType":"uint256","name":"endBoss","type":"uint256"},{"internalType":"enum DecisionEntities.GatewayType","name":"gatewaytype","type":"uint8"},{"internalType":"enum DecisionEntities.DecisionType","name":"type_","type":"uint8"},{"internalType":"bool","name":"completed","type":"bool"},{"internalType":"bool","name":"exists","type":"bool"},{"internalType":"enum DecisionEntities.Operator","name":"operator","type":"uint8"},{"internalType":"string","name":"processVariable","type":"string"},{"internalType":"string","name":"s_value","type":"string"},{"internalType":"int256[]","name":"i_value","type":"int256[]"}],"internalType":"struct DecisionEntities.Decision","name":"_decision","type":"tuple"}],"name":"createTaskWithDecision","outputs":[],"stateMutability":"nonpayable","type":"function"},{"inputs":[{"internalType":"uint256","name":"","type":"uint256"}],"name":"debugStringeventLog","outputs":[{"internalType":"string","name":"","type":"string"}],"stateMutability":"view","type":"function"},{"inputs":[],"name":"getDebugStringeventLog","outputs":[{"internalType":"string[]","name":"theevents","type":"string[]"}],"stateMutability":"view","type":"function"},{"inputs":[],"name":"getLog","outputs":[{"internalType":"uint256[]","name":"theevents","type":"uint256[]"}],"stateMutability":"view","type":"function"},{"inputs":[],"name":"getStoredTasks","outputs":[{"components":[{"internalType":"uint256","name":"id","type":"uint256"},{"internalType":"string","name":"activity","type":"string"}],"internalType":"struct TaskEntities.DbTask[]","name":"storedTasks","type":"tuple[]"}],"stateMutability":"view","type":"function"},{"inputs":[{"internalType":"uint256","name":"_id","type":"uint256"}],"name":"getTaskById","outputs":[{"internalType":"bool","name":"status","type":"bool"},{"internalType":"string","name":"description","type":"string"},{"internalType":"address","name":"taskresource","type":"address"},{"internalType":"enum DecisionEntities.GatewayType","name":"gateway","type":"uint8"},{"internalType":"uint256[]","name":"requirements","type":"uint256[]"},{"internalType":"uint256[]","name":"competitors","type":"uint256[]"}],"stateMutability":"view","type":"function"},{"inputs":[{"internalType":"uint256","name":"","type":"uint256"}],"name":"taskList","outputs":[{"internalType":"uint256","name":"id","type":"uint256"},{"internalType":"string","name":"activity","type":"string"}],"stateMutability":"view","type":"function"},{"inputs":[{"internalType":"uint256","name":"","type":"uint256"}],"name":"theRealEventLog","outputs":[{"internalType":"uint256","name":"","type":"uint256"}],"stateMutability":"view","type":"function"},{"inputs":[{"internalType":"string","name":"variableName","type":"string"},{"internalType":"int256","name":"newValue","type":"int256"}],"name":"updateIntProcessVariable","outputs":[],"stateMutability":"nonpayable","type":"function"},{"inputs":[{"internalType":"string","name":"variableName","type":"string"},{"internalType":"string","name":"newValue","type":"string"}],"name":"updateStringProcessVariable","outputs":[],"stateMutability":"nonpayable","type":"function"}],"devdoc":{"kind":"dev","methods":{},"version":1},"evm":{"assembly":"    /* \"BasicEnzian.sol\":205:4778  contract BasicEnzian {\r... */\n  mstore(0x40, 0x80)\n  callvalue\n  dup1\n  iszero\n  tag_1\n  jumpi\n  0x00\n  dup1\n  revert\ntag_1:\n  pop\n  dataSize(sub_0)\n  dup1\n  dataOffset(sub_0)\n  0x00\n  codecopy\n  0x00\n  return\nstop\n\nsub_0: assembly {\n        /* \"BasicEnzian.sol\":205:4778  contract BasicEnzian {\r... */\n      mstore(0x40, 0x80)\n      callvalue\n      dup1\n      iszero\n      tag_1\n      jumpi\n      0x00\n      dup1\n      revert\n    tag_1:\n      pop\n      jumpi(tag_2, lt(calldatasize, 0x04))\n      shr(0xe0, calldataload(0x00))\n      dup1\n      0x909e4ab6\n      gt\n      tag_15\n      jumpi\n      dup1\n      0x909e4ab6\n      eq\n      tag_9\n      jumpi\n      dup1\n      0x95794157\n      eq\n      tag_10\n      jumpi\n      dup1\n      0x976217cd\n      eq\n      tag_11\n      jumpi\n      dup1\n      0x993c0410\n      eq\n      tag_12\n      jumpi\n      dup1\n      0xc7b1ee06\n      eq\n      tag_13\n      jumpi\n      dup1\n      0xfe9620c9\n      eq\n      tag_14\n      jumpi\n      jump(tag_2)\n    tag_15:\n      dup1\n      0x2a1c52a5\n      eq\n      tag_3\n      jumpi\n      dup1\n      0x307ed4be\n      eq\n      tag_4\n      jumpi\n      dup1\n      0x38b7b6f0\n      eq\n      tag_5\n      jumpi\n      dup1\n      0x4d60f651\n      eq\n      tag_6\n      jumpi\n      dup1\n      0x61ea18df\n      eq\n      tag_7\n      jumpi\n      dup1\n      0x896a3435\n      eq\n      tag_8\n      jumpi\n    tag_2:\n      0x00\n      dup1\n      revert\n        /* \"BasicEnzian.sol\":274:311  TaskEntities.DbTask[] public taskList */\n    tag_3:\n      tag_16\n      0x04\n      dup1\n      calldatasize\n      sub\n      dup2\n      add\n      swap1\n      tag_17\n      swap2\n      swap1\n      tag_18\n      jump\t// in\n    tag_17:\n      tag_19\n      jump\t// in\n    tag_16:\n      mload(0x40)\n      tag_20\n      swap3\n      swap2\n      swap1\n      tag_21\n      jump\t// in\n    tag_20:\n      mload(0x40)\n      dup1\n      swap2\n      sub\n      swap1\n      return\n        /* \"BasicEnzian.sol\":1108:1611  function createTask(\r... */\n    tag_4:\n      tag_22\n      0x04\n      dup1\n      calldatasize\n      sub\n      dup2\n      add\n      swap1\n      tag_23\n      swap2\n      swap1\n      tag_24\n      jump\t// in\n    tag_23:\n      tag_25\n      jump\t// in\n    tag_22:\n      stop\n        /* \"BasicEnzian.sol\":4415:4581  function updateIntProcessVariable(string calldata variableName, int newValue) public {\r... */\n    tag_5:\n      tag_26\n      0x04\n      dup1\n      calldatasize\n      sub\n      dup2\n      add\n      swap1\n      tag_27\n      swap2\n      swap1\n      tag_28\n      jump\t// in\n    tag_27:\n      tag_29\n      jump\t// in\n    tag_26:\n      stop\n        /* \"BasicEnzian.sol\":829:955  function getDebugStringeventLog() public view returns(string[] memory theevents) {\r... */\n    tag_6:\n      tag_30\n      tag_31\n      jump\t// in\n    tag_30:\n      mload(0x40)\n      tag_32\n      swap2\n      swap1\n      tag_33\n      jump\t// in\n    tag_32:\n      mload(0x40)\n      dup1\n      swap2\n      sub\n      swap1\n      return\n        /* \"BasicEnzian.sol\":787:822  string[] public debugStringeventLog */\n    tag_7:\n      tag_34\n      0x04\n      dup1\n      calldatasize\n      sub\n      dup2\n      add\n      swap1\n      tag_35\n      swap2\n      swap1\n      tag_18\n      jump\t// in\n    tag_35:\n      tag_36\n      jump\t// in\n    tag_34:\n      mload(0x40)\n      tag_37\n      swap2\n      swap1\n      tag_38\n      jump\t// in\n    tag_37:\n      mload(0x40)\n      dup1\n      swap2\n      sub\n      swap1\n      return\n        /* \"BasicEnzian.sol\":4192:4314  function getStoredTasks() public view returns (TaskEntities.DbTask[] memory storedTasks){\r... */\n    tag_8:\n      tag_39\n      tag_40\n      jump\t// in\n    tag_39:\n      mload(0x40)\n      tag_41\n      swap2\n      swap1\n      tag_42\n      jump\t// in\n    tag_41:\n      mload(0x40)\n      dup1\n      swap2\n      sub\n      swap1\n      return\n        /* \"BasicEnzian.sol\":583:687  function getLog() public view returns(uint[] memory theevents) {\r... */\n    tag_9:\n      tag_43\n      tag_44\n      jump\t// in\n    tag_43:\n      mload(0x40)\n      tag_45\n      swap2\n      swap1\n      tag_46\n      jump\t// in\n    tag_45:\n      mload(0x40)\n      dup1\n      swap2\n      sub\n      swap1\n      return\n        /* \"BasicEnzian.sol\":547:576  uint[] public theRealEventLog */\n    tag_10:\n      tag_47\n      0x04\n      dup1\n      calldatasize\n      sub\n      dup2\n      add\n      swap1\n      tag_48\n      swap2\n      swap1\n      tag_18\n      jump\t// in\n    tag_48:\n      tag_49\n      jump\t// in\n    tag_47:\n      mload(0x40)\n      tag_50\n      swap2\n      swap1\n      tag_51\n      jump\t// in\n    tag_50:\n      mload(0x40)\n      dup1\n      swap2\n      sub\n      swap1\n      return\n        /* \"BasicEnzian.sol\":3688:4180  function getTaskById(uint _id) public view returns (bool status,\r... */\n    tag_11:\n      tag_52\n      0x04\n      dup1\n      calldatasize\n      sub\n      dup2\n      add\n      swap1\n      tag_53\n      swap2\n      swap1\n      tag_18\n      jump\t// in\n    tag_53:\n      tag_54\n      jump\t// in\n    tag_52:\n      mload(0x40)\n      tag_55\n      swap7\n      swap6\n      swap5\n      swap4\n      swap3\n      swap2\n      swap1\n      tag_56\n      jump\t// in\n    tag_55:\n      mload(0x40)\n      dup1\n      swap2\n      sub\n      swap1\n      return\n        /* \"BasicEnzian.sol\":2573:3490  function completing(uint taskId) public returns (bool success){\r... */\n    tag_12:\n      tag_57\n      0x04\n      dup1\n      calldatasize\n      sub\n      dup2\n      add\n      swap1\n      tag_58\n      swap2\n      swap1\n      tag_18\n      jump\t// in\n    tag_58:\n      tag_59\n      jump\t// in\n    tag_57:\n      mload(0x40)\n      tag_60\n      swap2\n      swap1\n      tag_61\n      jump\t// in\n    tag_60:\n      mload(0x40)\n      dup1\n      swap2\n      sub\n      swap1\n      return\n        /* \"BasicEnzian.sol\":1623:2473  function createTaskWithDecision(\r... */\n    tag_13:\n      tag_62\n      0x04\n      dup1\n      calldatasize\n      sub\n      dup2\n      add\n      swap1\n      tag_63\n      swap2\n      swap1\n      tag_64\n      jump\t// in\n    tag_63:\n      tag_65\n      jump\t// in\n    tag_62:\n      stop\n        /* \"BasicEnzian.sol\":4593:4773  function updateStringProcessVariable(string calldata variableName, string calldata newValue) public {\r... */\n    tag_14:\n      tag_66\n      0x04\n      dup1\n      calldatasize\n      sub\n      dup2\n      add\n      swap1\n      tag_67\n      swap2\n      swap1\n      tag_68\n      jump\t// in\n    tag_67:\n      tag_69\n      jump\t// in\n    tag_66:\n      stop\n        /* \"BasicEnzian.sol\":274:311  TaskEntities.DbTask[] public taskList */\n    tag_19:\n      0x04\n      dup2\n      dup2\n      sload\n      dup2\n      lt\n      tag_70\n      jumpi\n      0x00\n      dup1\n      revert\n    tag_70:\n      swap1\n      0x00\n      mstore\n      keccak256(0x00, 0x20)\n      swap1\n      0x02\n      mul\n      add\n      0x00\n      swap2\n      pop\n      swap1\n      pop\n      dup1\n      0x00\n      add\n      sload\n      swap1\n      dup1\n      0x01\n      add\n      dup1\n      sload\n      tag_72\n      swap1\n      tag_73\n      jump\t// in\n    tag_72:\n      dup1\n      0x1f\n      add\n      0x20\n      dup1\n      swap2\n      div\n      mul\n      0x20\n      add\n      mload(0x40)\n      swap1\n      dup2\n      add\n      0x40\n      mstore\n      dup1\n      swap3\n      swap2\n      swap1\n      dup2\n      dup2\n      mstore\n      0x20\n      add\n      dup3\n      dup1\n      sload\n      tag_74\n      swap1\n      tag_73\n      jump\t// in\n    tag_74:\n      dup1\n      iszero\n      tag_75\n      jumpi\n      dup1\n      0x1f\n      lt\n      tag_76\n      jumpi\n      0x0100\n      dup1\n      dup4\n      sload\n      div\n      mul\n      dup4\n      mstore\n      swap2\n      0x20\n      add\n      swap2\n      jump(tag_75)\n    tag_76:\n      dup3\n      add\n      swap2\n      swap1\n      0x00\n      mstore\n      keccak256(0x00, 0x20)\n      swap1\n    tag_77:\n      dup2\n      sload\n      dup2\n      mstore\n      swap1\n      0x01\n      add\n      swap1\n      0x20\n      add\n      dup1\n      dup4\n      gt\n      tag_77\n      jumpi\n      dup3\n      swap1\n      sub\n      0x1f\n      and\n      dup3\n      add\n      swap2\n    tag_75:\n      pop\n      pop\n      pop\n      pop\n      pop\n      swap1\n      pop\n      dup3\n      jump\t// out\n        /* \"BasicEnzian.sol\":1108:1611  function createTask(\r... */\n    tag_25:\n        /* \"BasicEnzian.sol\":1371:1401  TaskEntities.Task memory _task */\n      0x00\n        /* \"BasicEnzian.sol\":1404:1415  TaskLibrary */\n      linkerSymbol(\"d1970310b2288d1f22c83455a39f94189a4a2879af0960ed80dc27cd808cee7c\")\n        /* \"BasicEnzian.sol\":1404:1426  TaskLibrary.createTask */\n      0x72e6436b\n        /* \"BasicEnzian.sol\":1427:1436  _activity */\n      dup8\n        /* \"BasicEnzian.sol\":1438:1451  _taskresource */\n      dup8\n        /* \"BasicEnzian.sol\":1453:1457  _pmg */\n      dup8\n        /* \"BasicEnzian.sol\":1459:1472  _requirements */\n      dup8\n        /* \"BasicEnzian.sol\":1474:1486  _competitors */\n      dup8\n        /* \"BasicEnzian.sol\":1404:1487  TaskLibrary.createTask(_activity, _taskresource, _pmg, _requirements, _competitors) */\n      mload(0x40)\n      dup7\n      0xffffffff\n      and\n      0xe0\n      shl\n      dup2\n      mstore\n      0x04\n      add\n      tag_79\n      swap6\n      swap5\n      swap4\n      swap3\n      swap2\n      swap1\n      tag_80\n      jump\t// in\n    tag_79:\n      0x00\n      mload(0x40)\n      dup1\n      dup4\n      sub\n      dup2\n      dup7\n      dup1\n      extcodesize\n      iszero\n      dup1\n      iszero\n      tag_81\n      jumpi\n      0x00\n      dup1\n      revert\n    tag_81:\n      pop\n      gas\n      delegatecall\n      iszero\n      dup1\n      iszero\n      tag_83\n      jumpi\n      returndatasize\n      0x00\n      dup1\n      returndatacopy\n      revert(0x00, returndatasize)\n    tag_83:\n      pop\n      pop\n      pop\n      pop\n      mload(0x40)\n      returndatasize\n      0x00\n      dup3\n      returndatacopy\n      returndatasize\n      not(0x1f)\n      0x1f\n      dup3\n      add\n      and\n      dup3\n      add\n      dup1\n      0x40\n      mstore\n      pop\n      dup2\n      add\n      swap1\n      tag_84\n      swap2\n      swap1\n      tag_85\n      jump\t// in\n    tag_84:\n        /* \"BasicEnzian.sol\":1371:1487  TaskEntities.Task memory _task = TaskLibrary.createTask(_activity, _taskresource, _pmg, _requirements, _competitors) */\n      swap1\n      pop\n        /* \"BasicEnzian.sol\":1525:1530  _task */\n      dup1\n        /* \"BasicEnzian.sol\":1498:1510  processState */\n      0x00\n        /* \"BasicEnzian.sol\":1498:1516  processState.tasks */\n      dup1\n      add\n        /* \"BasicEnzian.sol\":1498:1521  processState.tasks[_id] */\n      0x00\n        /* \"BasicEnzian.sol\":1517:1520  _id */\n      dup10\n        /* \"BasicEnzian.sol\":1498:1521  processState.tasks[_id] */\n      dup2\n      mstore\n      0x20\n      add\n      swap1\n      dup2\n      mstore\n      0x20\n      add\n      0x00\n      keccak256\n        /* \"BasicEnzian.sol\":1498:1531  processState.tasks[_id] = (_task) */\n      0x00\n      dup3\n      add\n      mload\n      dup2\n      0x00\n      add\n      swap1\n      dup1\n      mload\n      swap1\n      0x20\n      add\n      swap1\n      tag_86\n      swap3\n      swap2\n      swap1\n      tag_87\n      jump\t// in\n    tag_86:\n      pop\n      0x20\n      dup3\n      add\n      mload\n      dup2\n      0x01\n      add\n      exp(0x0100, 0x00)\n      dup2\n      sload\n      dup2\n      0xffffffffffffffffffffffffffffffffffffffff\n      mul\n      not\n      and\n      swap1\n      dup4\n      0xffffffffffffffffffffffffffffffffffffffff\n      and\n      mul\n      or\n      swap1\n      sstore\n      pop\n      0x40\n      dup3\n      add\n      mload\n      dup2\n      0x01\n      add\n      exp(0x0100, 0x14)\n      dup2\n      sload\n      dup2\n      0xff\n      mul\n      not\n      and\n      swap1\n      dup4\n      iszero\n      iszero\n      mul\n      or\n      swap1\n      sstore\n      pop\n      0x60\n      dup3\n      add\n      mload\n      dup2\n      0x01\n      add\n      exp(0x0100, 0x15)\n      dup2\n      sload\n      dup2\n      0xff\n      mul\n      not\n      and\n      swap1\n      dup4\n      0x03\n      dup2\n      gt\n      iszero\n      tag_88\n      jumpi\n      mstore(0x00, 0x4e487b7100000000000000000000000000000000000000000000000000000000)\n      mstore(0x04, 0x21)\n      revert(0x00, 0x24)\n    tag_88:\n      mul\n      or\n      swap1\n      sstore\n      pop\n      0x80\n      dup3\n      add\n      mload\n      dup2\n      0x02\n      add\n      swap1\n      dup1\n      mload\n      swap1\n      0x20\n      add\n      swap1\n      tag_89\n      swap3\n      swap2\n      swap1\n      tag_90\n      jump\t// in\n    tag_89:\n      pop\n      0xa0\n      dup3\n      add\n      mload\n      dup2\n      0x03\n      add\n      swap1\n      dup1\n      mload\n      swap1\n      0x20\n      add\n      swap1\n      tag_91\n      swap3\n      swap2\n      swap1\n      tag_90\n      jump\t// in\n    tag_91:\n      pop\n      0xc0\n      dup3\n      add\n      mload\n      dup2\n      0x04\n      add\n      0x00\n      dup3\n      add\n      mload\n      dup2\n      0x00\n      add\n      sstore\n      0x20\n      dup3\n      add\n      mload\n      dup2\n      0x01\n      add\n      exp(0x0100, 0x00)\n      dup2\n      sload\n      dup2\n      0xff\n      mul\n      not\n      and\n      swap1\n      dup4\n      0x03\n      dup2\n      gt\n      iszero\n      tag_92\n      jumpi\n      mstore(0x00, 0x4e487b7100000000000000000000000000000000000000000000000000000000)\n      mstore(0x04, 0x21)\n      revert(0x00, 0x24)\n    tag_92:\n      mul\n      or\n      swap1\n      sstore\n      pop\n      0x40\n      dup3\n      add\n      mload\n      dup2\n      0x01\n      add\n      exp(0x0100, 0x01)\n      dup2\n      sload\n      dup2\n      0xff\n      mul\n      not\n      and\n      swap1\n      dup4\n      0x02\n      dup2\n      gt\n      iszero\n      tag_93\n      jumpi\n      mstore(0x00, 0x4e487b7100000000000000000000000000000000000000000000000000000000)\n      mstore(0x04, 0x21)\n      revert(0x00, 0x24)\n    tag_93:\n      mul\n      or\n      swap1\n      sstore\n      pop\n      0x60\n      dup3\n      add\n      mload\n      dup2\n      0x01\n      add\n      exp(0x0100, 0x02)\n      dup2\n      sload\n      dup2\n      0xff\n      mul\n      not\n      and\n      swap1\n      dup4\n      iszero\n      iszero\n      mul\n      or\n      swap1\n      sstore\n      pop\n      0x80\n      dup3\n      add\n      mload\n      dup2\n      0x01\n      add\n      exp(0x0100, 0x03)\n      dup2\n      sload\n      dup2\n      0xff\n      mul\n      not\n      and\n      swap1\n      dup4\n      iszero\n      iszero\n      mul\n      or\n      swap1\n      sstore\n      pop\n      0xa0\n      dup3\n      add\n      mload\n      dup2\n      0x01\n      add\n      exp(0x0100, 0x04)\n      dup2\n      sload\n      dup2\n      0xff\n      mul\n      not\n      and\n      swap1\n      dup4\n      0x06\n      dup2\n      gt\n      iszero\n      tag_94\n      jumpi\n      mstore(0x00, 0x4e487b7100000000000000000000000000000000000000000000000000000000)\n      mstore(0x04, 0x21)\n      revert(0x00, 0x24)\n    tag_94:\n      mul\n      or\n      swap1\n      sstore\n      pop\n      0xc0\n      dup3\n      add\n      mload\n      dup2\n      0x02\n      add\n      swap1\n      dup1\n      mload\n      swap1\n      0x20\n      add\n      swap1\n      tag_95\n      swap3\n      swap2\n      swap1\n      tag_87\n      jump\t// in\n    tag_95:\n      pop\n      0xe0\n      dup3\n      add\n      mload\n      dup2\n      0x03\n      add\n      swap1\n      dup1\n      mload\n      swap1\n      0x20\n      add\n      swap1\n      tag_96\n      swap3\n      swap2\n      swap1\n      tag_87\n      jump\t// in\n    tag_96:\n      pop\n      0x0100\n      dup3\n      add\n      mload\n      dup2\n      0x04\n      add\n      swap1\n      dup1\n      mload\n      swap1\n      0x20\n      add\n      swap1\n      tag_97\n      swap3\n      swap2\n      swap1\n      tag_98\n      jump\t// in\n    tag_97:\n      pop\n      pop\n      pop\n      swap1\n      pop\n      pop\n        /* \"BasicEnzian.sol\":1552:1560  taskList */\n      0x04\n        /* \"BasicEnzian.sol\":1566:1577  TaskLibrary */\n      linkerSymbol(\"d1970310b2288d1f22c83455a39f94189a4a2879af0960ed80dc27cd808cee7c\")\n        /* \"BasicEnzian.sol\":1566:1590  TaskLibrary.createDbTask */\n      0xa0bb48ab\n        /* \"BasicEnzian.sol\":1591:1594  _id */\n      dup10\n        /* \"BasicEnzian.sol\":1596:1601  _task */\n      dup5\n        /* \"BasicEnzian.sol\":1566:1602  TaskLibrary.createDbTask(_id, _task) */\n      mload(0x40)\n      dup4\n      0xffffffff\n      and\n      0xe0\n      shl\n      dup2\n      mstore\n      0x04\n      add\n      tag_99\n      swap3\n      swap2\n      swap1\n      tag_100\n      jump\t// in\n    tag_99:\n      0x00\n      mload(0x40)\n      dup1\n      dup4\n      sub\n      dup2\n      dup7\n      dup1\n      extcodesize\n      iszero\n      dup1\n      iszero\n      tag_101\n      jumpi\n      0x00\n      dup1\n      revert\n    tag_101:\n      pop\n      gas\n      delegatecall\n      iszero\n      dup1\n      iszero\n      tag_103\n      jumpi\n      returndatasize\n      0x00\n      dup1\n      returndatacopy\n      revert(0x00, returndatasize)\n    tag_103:\n      pop\n      pop\n      pop\n      pop\n      mload(0x40)\n      returndatasize\n      0x00\n      dup3\n      returndatacopy\n      returndatasize\n      not(0x1f)\n      0x1f\n      dup3\n      add\n      and\n      dup3\n      add\n      dup1\n      0x40\n      mstore\n      pop\n      dup2\n      add\n      swap1\n      tag_104\n      swap2\n      swap1\n      tag_105\n      jump\t// in\n    tag_104:\n        /* \"BasicEnzian.sol\":1552:1603  taskList.push(TaskLibrary.createDbTask(_id, _task)) */\n      swap1\n      dup1\n      0x01\n      dup2\n      sload\n      add\n      dup1\n      dup3\n      sstore\n      dup1\n      swap2\n      pop\n      pop\n      0x01\n      swap1\n      sub\n      swap1\n      0x00\n      mstore\n      keccak256(0x00, 0x20)\n      swap1\n      0x02\n      mul\n      add\n      0x00\n      swap1\n      swap2\n      swap1\n      swap2\n      swap1\n      swap2\n      pop\n      0x00\n      dup3\n      add\n      mload\n      dup2\n      0x00\n      add\n      sstore\n      0x20\n      dup3\n      add\n      mload\n      dup2\n      0x01\n      add\n      swap1\n      dup1\n      mload\n      swap1\n      0x20\n      add\n      swap1\n      tag_107\n      swap3\n      swap2\n      swap1\n      tag_87\n      jump\t// in\n    tag_107:\n      pop\n      pop\n      pop\n        /* \"BasicEnzian.sol\":1108:1611  function createTask(\r... */\n      pop\n      pop\n      pop\n      pop\n      pop\n      pop\n      pop\n      jump\t// out\n        /* \"BasicEnzian.sol\":4415:4581  function updateIntProcessVariable(string calldata variableName, int newValue) public {\r... */\n    tag_29:\n        /* \"BasicEnzian.sol\":4565:4573  newValue */\n      dup1\n        /* \"BasicEnzian.sol\":4511:4523  processState */\n      0x00\n        /* \"BasicEnzian.sol\":4511:4548  processState.integer_processVariables */\n      0x01\n      add\n        /* \"BasicEnzian.sol\":4549:4561  variableName */\n      dup5\n      dup5\n        /* \"BasicEnzian.sol\":4511:4562  processState.integer_processVariables[variableName] */\n      mload(0x40)\n      tag_109\n      swap3\n      swap2\n      swap1\n      tag_110\n      jump\t// in\n    tag_109:\n      swap1\n      dup2\n      mstore\n      0x20\n      add\n      mload(0x40)\n      dup1\n      swap2\n      sub\n      swap1\n      keccak256\n        /* \"BasicEnzian.sol\":4511:4573  processState.integer_processVariables[variableName] = newValue */\n      dup2\n      swap1\n      sstore\n      pop\n        /* \"BasicEnzian.sol\":4415:4581  function updateIntProcessVariable(string calldata variableName, int newValue) public {\r... */\n      pop\n      pop\n      pop\n      jump\t// out\n        /* \"BasicEnzian.sol\":829:955  function getDebugStringeventLog() public view returns(string[] memory theevents) {\r... */\n    tag_31:\n        /* \"BasicEnzian.sol\":883:908  string[] memory theevents */\n      0x60\n        /* \"BasicEnzian.sol\":928:947  debugStringeventLog */\n      0x06\n        /* \"BasicEnzian.sol\":921:947  return debugStringeventLog */\n      dup1\n      sload\n      dup1\n      0x20\n      mul\n      0x20\n      add\n      mload(0x40)\n      swap1\n      dup2\n      add\n      0x40\n      mstore\n      dup1\n      swap3\n      swap2\n      swap1\n      dup2\n      dup2\n      mstore\n      0x20\n      add\n      0x00\n      swap1\n    tag_112:\n      dup3\n      dup3\n      lt\n      iszero\n      tag_113\n      jumpi\n      dup4\n      dup3\n      swap1\n      0x00\n      mstore\n      keccak256(0x00, 0x20)\n      add\n      dup1\n      sload\n      tag_115\n      swap1\n      tag_73\n      jump\t// in\n    tag_115:\n      dup1\n      0x1f\n      add\n      0x20\n      dup1\n      swap2\n      div\n      mul\n      0x20\n      add\n      mload(0x40)\n      swap1\n      dup2\n      add\n      0x40\n      mstore\n      dup1\n      swap3\n      swap2\n      swap1\n      dup2\n      dup2\n      mstore\n      0x20\n      add\n      dup3\n      dup1\n      sload\n      tag_116\n      swap1\n      tag_73\n      jump\t// in\n    tag_116:\n      dup1\n      iszero\n      tag_117\n      jumpi\n      dup1\n      0x1f\n      lt\n      tag_118\n      jumpi\n      0x0100\n      dup1\n      dup4\n      sload\n      div\n      mul\n      dup4\n      mstore\n      swap2\n      0x20\n      add\n      swap2\n      jump(tag_117)\n    tag_118:\n      dup3\n      add\n      swap2\n      swap1\n      0x00\n      mstore\n      keccak256(0x00, 0x20)\n      swap1\n    tag_119:\n      dup2\n      sload\n      dup2\n      mstore\n      swap1\n      0x01\n      add\n      swap1\n      0x20\n      add\n      dup1\n      dup4\n      gt\n      tag_119\n      jumpi\n      dup3\n      swap1\n      sub\n      0x1f\n      and\n      dup3\n      add\n      swap2\n    tag_117:\n      pop\n      pop\n      pop\n      pop\n      pop\n      dup2\n      mstore\n      0x20\n      add\n      swap1\n      0x01\n      add\n      swap1\n      jump(tag_112)\n    tag_113:\n      pop\n      pop\n      pop\n      pop\n      swap1\n      pop\n        /* \"BasicEnzian.sol\":829:955  function getDebugStringeventLog() public view returns(string[] memory theevents) {\r... */\n      swap1\n      jump\t// out\n        /* \"BasicEnzian.sol\":787:822  string[] public debugStringeventLog */\n    tag_36:\n      0x06\n      dup2\n      dup2\n      sload\n      dup2\n      lt\n      tag_120\n      jumpi\n      0x00\n      dup1\n      revert\n    tag_120:\n      swap1\n      0x00\n      mstore\n      keccak256(0x00, 0x20)\n      add\n      0x00\n      swap2\n      pop\n      swap1\n      pop\n      dup1\n      sload\n      tag_122\n      swap1\n      tag_73\n      jump\t// in\n    tag_122:\n      dup1\n      0x1f\n      add\n      0x20\n      dup1\n      swap2\n      div\n      mul\n      0x20\n      add\n      mload(0x40)\n      swap1\n      dup2\n      add\n      0x40\n      mstore\n      dup1\n      swap3\n      swap2\n      swap1\n      dup2\n      dup2\n      mstore\n      0x20\n      add\n      dup3\n      dup1\n      sload\n      tag_123\n      swap1\n      tag_73\n      jump\t// in\n    tag_123:\n      dup1\n      iszero\n      tag_124\n      jumpi\n      dup1\n      0x1f\n      lt\n      tag_125\n      jumpi\n      0x0100\n      dup1\n      dup4\n      sload\n      div\n      mul\n      dup4\n      mstore\n      swap2\n      0x20\n      add\n      swap2\n      jump(tag_124)\n    tag_125:\n      dup3\n      add\n      swap2\n      swap1\n      0x00\n      mstore\n      keccak256(0x00, 0x20)\n      swap1\n    tag_126:\n      dup2\n      sload\n      dup2\n      mstore\n      swap1\n      0x01\n      add\n      swap1\n      0x20\n      add\n      dup1\n      dup4\n      gt\n      tag_126\n      jumpi\n      dup3\n      swap1\n      sub\n      0x1f\n      and\n      dup3\n      add\n      swap2\n    tag_124:\n      pop\n      pop\n      pop\n      pop\n      pop\n      dup2\n      jump\t// out\n        /* \"BasicEnzian.sol\":4192:4314  function getStoredTasks() public view returns (TaskEntities.DbTask[] memory storedTasks){\r... */\n    tag_40:\n        /* \"BasicEnzian.sol\":4239:4279  TaskEntities.DbTask[] memory storedTasks */\n      0x60\n        /* \"BasicEnzian.sol\":4298:4306  taskList */\n      0x04\n        /* \"BasicEnzian.sol\":4291:4306  return taskList */\n      dup1\n      sload\n      dup1\n      0x20\n      mul\n      0x20\n      add\n      mload(0x40)\n      swap1\n      dup2\n      add\n      0x40\n      mstore\n      dup1\n      swap3\n      swap2\n      swap1\n      dup2\n      dup2\n      mstore\n      0x20\n      add\n      0x00\n      swap1\n    tag_128:\n      dup3\n      dup3\n      lt\n      iszero\n      tag_129\n      jumpi\n      dup4\n      dup3\n      swap1\n      0x00\n      mstore\n      keccak256(0x00, 0x20)\n      swap1\n      0x02\n      mul\n      add\n      mload(0x40)\n      dup1\n      0x40\n      add\n      0x40\n      mstore\n      swap1\n      dup2\n      0x00\n      dup3\n      add\n      sload\n      dup2\n      mstore\n      0x20\n      add\n      0x01\n      dup3\n      add\n      dup1\n      sload\n      tag_131\n      swap1\n      tag_73\n      jump\t// in\n    tag_131:\n      dup1\n      0x1f\n      add\n      0x20\n      dup1\n      swap2\n      div\n      mul\n      0x20\n      add\n      mload(0x40)\n      swap1\n      dup2\n      add\n      0x40\n      mstore\n      dup1\n      swap3\n      swap2\n      swap1\n      dup2\n      dup2\n      mstore\n      0x20\n      add\n      dup3\n      dup1\n      sload\n      tag_132\n      swap1\n      tag_73\n      jump\t// in\n    tag_132:\n      dup1\n      iszero\n      tag_133\n      jumpi\n      dup1\n      0x1f\n      lt\n      tag_134\n      jumpi\n      0x0100\n      dup1\n      dup4\n      sload\n      div\n      mul\n      dup4\n      mstore\n      swap2\n      0x20\n      add\n      swap2\n      jump(tag_133)\n    tag_134:\n      dup3\n      add\n      swap2\n      swap1\n      0x00\n      mstore\n      keccak256(0x00, 0x20)\n      swap1\n    tag_135:\n      dup2\n      sload\n      dup2\n      mstore\n      swap1\n      0x01\n      add\n      swap1\n      0x20\n      add\n      dup1\n      dup4\n      gt\n      tag_135\n      jumpi\n      dup3\n      swap1\n      sub\n      0x1f\n      and\n      dup3\n      add\n      swap2\n    tag_133:\n      pop\n      pop\n      pop\n      pop\n      pop\n      dup2\n      mstore\n      pop\n      pop\n      dup2\n      mstore\n      0x20\n      add\n      swap1\n      0x01\n      add\n      swap1\n      jump(tag_128)\n    tag_129:\n      pop\n      pop\n      pop\n      pop\n      swap1\n      pop\n        /* \"BasicEnzian.sol\":4192:4314  function getStoredTasks() public view returns (TaskEntities.DbTask[] memory storedTasks){\r... */\n      swap1\n      jump\t// out\n        /* \"BasicEnzian.sol\":583:687  function getLog() public view returns(uint[] memory theevents) {\r... */\n    tag_44:\n        /* \"BasicEnzian.sol\":621:644  uint[] memory theevents */\n      0x60\n        /* \"BasicEnzian.sol\":664:679  theRealEventLog */\n      0x05\n        /* \"BasicEnzian.sol\":657:679  return theRealEventLog */\n      dup1\n      sload\n      dup1\n      0x20\n      mul\n      0x20\n      add\n      mload(0x40)\n      swap1\n      dup2\n      add\n      0x40\n      mstore\n      dup1\n      swap3\n      swap2\n      swap1\n      dup2\n      dup2\n      mstore\n      0x20\n      add\n      dup3\n      dup1\n      sload\n      dup1\n      iszero\n      tag_137\n      jumpi\n      0x20\n      mul\n      dup3\n      add\n      swap2\n      swap1\n      0x00\n      mstore\n      keccak256(0x00, 0x20)\n      swap1\n    tag_138:\n      dup2\n      sload\n      dup2\n      mstore\n      0x20\n      add\n      swap1\n      0x01\n      add\n      swap1\n      dup1\n      dup4\n      gt\n      tag_138\n      jumpi\n    tag_137:\n      pop\n      pop\n      pop\n      pop\n      pop\n      swap1\n      pop\n        /* \"BasicEnzian.sol\":583:687  function getLog() public view returns(uint[] memory theevents) {\r... */\n      swap1\n      jump\t// out\n        /* \"BasicEnzian.sol\":547:576  uint[] public theRealEventLog */\n    tag_49:\n      0x05\n      dup2\n      dup2\n      sload\n      dup2\n      lt\n      tag_139\n      jumpi\n      0x00\n      dup1\n      revert\n    tag_139:\n      swap1\n      0x00\n      mstore\n      keccak256(0x00, 0x20)\n      add\n      0x00\n      swap2\n      pop\n      swap1\n      pop\n      sload\n      dup2\n      jump\t// out\n        /* \"BasicEnzian.sol\":3688:4180  function getTaskById(uint _id) public view returns (bool status,\r... */\n    tag_54:\n        /* \"BasicEnzian.sol\":3740:3751  bool status */\n      0x00\n        /* \"BasicEnzian.sol\":3762:3787  string memory description */\n      0x60\n        /* \"BasicEnzian.sol\":3789:3809  address taskresource */\n      0x00\n        /* \"BasicEnzian.sol\":3811:3847  DecisionEntities.GatewayType gateway */\n      dup1\n        /* \"BasicEnzian.sol\":3858:3884  uint[] memory requirements */\n      0x60\n        /* \"BasicEnzian.sol\":3886:3911  uint[] memory competitors */\n      dup1\n        /* \"BasicEnzian.sol\":3931:3943  processState */\n      0x00\n        /* \"BasicEnzian.sol\":3931:3949  processState.tasks */\n      dup1\n      add\n        /* \"BasicEnzian.sol\":3931:3954  processState.tasks[_id] */\n      0x00\n        /* \"BasicEnzian.sol\":3950:3953  _id */\n      dup9\n        /* \"BasicEnzian.sol\":3931:3954  processState.tasks[_id] */\n      dup2\n      mstore\n      0x20\n      add\n      swap1\n      dup2\n      mstore\n      0x20\n      add\n      0x00\n      keccak256\n        /* \"BasicEnzian.sol\":3931:3964  processState.tasks[_id].completed */\n      0x01\n      add\n      0x14\n      swap1\n      sload\n      swap1\n      0x0100\n      exp\n      swap1\n      div\n      0xff\n      and\n        /* \"BasicEnzian.sol\":3966:3978  processState */\n      0x00\n        /* \"BasicEnzian.sol\":3966:3984  processState.tasks */\n      dup1\n      add\n        /* \"BasicEnzian.sol\":3966:3989  processState.tasks[_id] */\n      0x00\n        /* \"BasicEnzian.sol\":3985:3988  _id */\n      dup10\n        /* \"BasicEnzian.sol\":3966:3989  processState.tasks[_id] */\n      dup2\n      mstore\n      0x20\n      add\n      swap1\n      dup2\n      mstore\n      0x20\n      add\n      0x00\n      keccak256\n        /* \"BasicEnzian.sol\":3966:3998  processState.tasks[_id].activity */\n      0x00\n      add\n        /* \"BasicEnzian.sol\":4000:4012  processState */\n      0x00\n        /* \"BasicEnzian.sol\":4000:4018  processState.tasks */\n      dup1\n      add\n        /* \"BasicEnzian.sol\":4000:4023  processState.tasks[_id] */\n      0x00\n        /* \"BasicEnzian.sol\":4019:4022  _id */\n      dup11\n        /* \"BasicEnzian.sol\":4000:4023  processState.tasks[_id] */\n      dup2\n      mstore\n      0x20\n      add\n      swap1\n      dup2\n      mstore\n      0x20\n      add\n      0x00\n      keccak256\n        /* \"BasicEnzian.sol\":4000:4036  processState.tasks[_id].taskresource */\n      0x01\n      add\n      0x00\n      swap1\n      sload\n      swap1\n      0x0100\n      exp\n      swap1\n      div\n      0xffffffffffffffffffffffffffffffffffffffff\n      and\n        /* \"BasicEnzian.sol\":4048:4060  processState */\n      0x00\n        /* \"BasicEnzian.sol\":4048:4066  processState.tasks */\n      dup1\n      add\n        /* \"BasicEnzian.sol\":4048:4071  processState.tasks[_id] */\n      0x00\n        /* \"BasicEnzian.sol\":4067:4070  _id */\n      dup12\n        /* \"BasicEnzian.sol\":4048:4071  processState.tasks[_id] */\n      dup2\n      mstore\n      0x20\n      add\n      swap1\n      dup2\n      mstore\n      0x20\n      add\n      0x00\n      keccak256\n        /* \"BasicEnzian.sol\":4048:4096  processState.tasks[_id].preceedingMergingGateway */\n      0x01\n      add\n      0x15\n      swap1\n      sload\n      swap1\n      0x0100\n      exp\n      swap1\n      div\n      0xff\n      and\n        /* \"BasicEnzian.sol\":4098:4110  processState */\n      0x00\n        /* \"BasicEnzian.sol\":4098:4116  processState.tasks */\n      dup1\n      add\n        /* \"BasicEnzian.sol\":4098:4121  processState.tasks[_id] */\n      0x00\n        /* \"BasicEnzian.sol\":4117:4120  _id */\n      dup13\n        /* \"BasicEnzian.sol\":4098:4121  processState.tasks[_id] */\n      dup2\n      mstore\n      0x20\n      add\n      swap1\n      dup2\n      mstore\n      0x20\n      add\n      0x00\n      keccak256\n        /* \"BasicEnzian.sol\":4098:4134  processState.tasks[_id].requirements */\n      0x02\n      add\n        /* \"BasicEnzian.sol\":4136:4148  processState */\n      0x00\n        /* \"BasicEnzian.sol\":4136:4154  processState.tasks */\n      dup1\n      add\n        /* \"BasicEnzian.sol\":4136:4159  processState.tasks[_id] */\n      0x00\n        /* \"BasicEnzian.sol\":4155:4158  _id */\n      dup14\n        /* \"BasicEnzian.sol\":4136:4159  processState.tasks[_id] */\n      dup2\n      mstore\n      0x20\n      add\n      swap1\n      dup2\n      mstore\n      0x20\n      add\n      0x00\n      keccak256\n        /* \"BasicEnzian.sol\":4136:4171  processState.tasks[_id].competitors */\n      0x03\n      add\n        /* \"BasicEnzian.sol\":3923:4172  return (processState.tasks[_id].completed, processState.tasks[_id].activity, processState.tasks[_id].taskresource,\r... */\n      dup5\n      dup1\n      sload\n      tag_142\n      swap1\n      tag_73\n      jump\t// in\n    tag_142:\n      dup1\n      0x1f\n      add\n      0x20\n      dup1\n      swap2\n      div\n      mul\n      0x20\n      add\n      mload(0x40)\n      swap1\n      dup2\n      add\n      0x40\n      mstore\n      dup1\n      swap3\n      swap2\n      swap1\n      dup2\n      dup2\n      mstore\n      0x20\n      add\n      dup3\n      dup1\n      sload\n      tag_143\n      swap1\n      tag_73\n      jump\t// in\n    tag_143:\n      dup1\n      iszero\n      tag_144\n      jumpi\n      dup1\n      0x1f\n      lt\n      tag_145\n      jumpi\n      0x0100\n      dup1\n      dup4\n      sload\n      div\n      mul\n      dup4\n      mstore\n      swap2\n      0x20\n      add\n      swap2\n      jump(tag_144)\n    tag_145:\n      dup3\n      add\n      swap2\n      swap1\n      0x00\n      mstore\n      keccak256(0x00, 0x20)\n      swap1\n    tag_146:\n      dup2\n      sload\n      dup2\n      mstore\n      swap1\n      0x01\n      add\n      swap1\n      0x20\n      add\n      dup1\n      dup4\n      gt\n      tag_146\n      jumpi\n      dup3\n      swap1\n      sub\n      0x1f\n      and\n      dup3\n      add\n      swap2\n    tag_144:\n      pop\n      pop\n      pop\n      pop\n      pop\n      swap5\n      pop\n      dup2\n      dup1\n      sload\n      dup1\n      0x20\n      mul\n      0x20\n      add\n      mload(0x40)\n      swap1\n      dup2\n      add\n      0x40\n      mstore\n      dup1\n      swap3\n      swap2\n      swap1\n      dup2\n      dup2\n      mstore\n      0x20\n      add\n      dup3\n      dup1\n      sload\n      dup1\n      iszero\n      tag_147\n      jumpi\n      0x20\n      mul\n      dup3\n      add\n      swap2\n      swap1\n      0x00\n      mstore\n      keccak256(0x00, 0x20)\n      swap1\n    tag_148:\n      dup2\n      sload\n      dup2\n      mstore\n      0x20\n      add\n      swap1\n      0x01\n      add\n      swap1\n      dup1\n      dup4\n      gt\n      tag_148\n      jumpi\n    tag_147:\n      pop\n      pop\n      pop\n      pop\n      pop\n      swap2\n      pop\n      dup1\n      dup1\n      sload\n      dup1\n      0x20\n      mul\n      0x20\n      add\n      mload(0x40)\n      swap1\n      dup2\n      add\n      0x40\n      mstore\n      dup1\n      swap3\n      swap2\n      swap1\n      dup2\n      dup2\n      mstore\n      0x20\n      add\n      dup3\n      dup1\n      sload\n      dup1\n      iszero\n      tag_149\n      jumpi\n      0x20\n      mul\n      dup3\n      add\n      swap2\n      swap1\n      0x00\n      mstore\n      keccak256(0x00, 0x20)\n      swap1\n    tag_150:\n      dup2\n      sload\n      dup2\n      mstore\n      0x20\n      add\n      swap1\n      0x01\n      add\n      swap1\n      dup1\n      dup4\n      gt\n      tag_150\n      jumpi\n    tag_149:\n      pop\n      pop\n      pop\n      pop\n      pop\n      swap1\n      pop\n      swap6\n      pop\n      swap6\n      pop\n      swap6\n      pop\n      swap6\n      pop\n      swap6\n      pop\n      swap6\n      pop\n        /* \"BasicEnzian.sol\":3688:4180  function getTaskById(uint _id) public view returns (bool status,\r... */\n      swap2\n      swap4\n      swap6\n      pop\n      swap2\n      swap4\n      swap6\n      jump\t// out\n        /* \"BasicEnzian.sol\":2573:3490  function completing(uint taskId) public returns (bool success){\r... */\n    tag_59:\n        /* \"BasicEnzian.sol\":2622:2634  bool success */\n      0x00\n        /* \"BasicEnzian.sol\":2655:2667  processState */\n      dup1\n        /* \"BasicEnzian.sol\":2655:2673  processState.tasks */\n      0x00\n      add\n        /* \"BasicEnzian.sol\":2655:2681  processState.tasks[taskId] */\n      0x00\n        /* \"BasicEnzian.sol\":2674:2680  taskId */\n      dup4\n        /* \"BasicEnzian.sol\":2655:2681  processState.tasks[taskId] */\n      dup2\n      mstore\n      0x20\n      add\n      swap1\n      dup2\n      mstore\n      0x20\n      add\n      0x00\n      keccak256\n        /* \"BasicEnzian.sol\":2655:2691  processState.tasks[taskId].completed */\n      0x01\n      add\n      0x14\n      swap1\n      sload\n      swap1\n      0x0100\n      exp\n      swap1\n      div\n      0xff\n      and\n        /* \"BasicEnzian.sol\":2654:2691  !processState.tasks[taskId].completed */\n      iszero\n        /* \"BasicEnzian.sol\":2646:2718  require(!processState.tasks[taskId].completed, \"DO NOT REPEAT TASKS!!!\") */\n      tag_152\n      jumpi\n      mload(0x40)\n      0x08c379a000000000000000000000000000000000000000000000000000000000\n      dup2\n      mstore\n      0x04\n      add\n      tag_153\n      swap1\n      tag_154\n      jump\t// in\n    tag_153:\n      mload(0x40)\n      dup1\n      swap2\n      sub\n      swap1\n      revert\n    tag_152:\n        /* \"BasicEnzian.sol\":2729:2761  TaskEntities.Task memory thetask */\n      0x00\n        /* \"BasicEnzian.sol\":2764:2776  processState */\n      dup1\n        /* \"BasicEnzian.sol\":2764:2782  processState.tasks */\n      0x00\n      add\n        /* \"BasicEnzian.sol\":2764:2790  processState.tasks[taskId] */\n      0x00\n        /* \"BasicEnzian.sol\":2783:2789  taskId */\n      dup5\n        /* \"BasicEnzian.sol\":2764:2790  processState.tasks[taskId] */\n      dup2\n      mstore\n      0x20\n      add\n      swap1\n      dup2\n      mstore\n      0x20\n      add\n      0x00\n      keccak256\n        /* \"BasicEnzian.sol\":2729:2790  TaskEntities.Task memory thetask = processState.tasks[taskId] */\n      mload(0x40)\n      dup1\n      0xe0\n      add\n      0x40\n      mstore\n      swap1\n      dup2\n      0x00\n      dup3\n      add\n      dup1\n      sload\n      tag_155\n      swap1\n      tag_73\n      jump\t// in\n    tag_155:\n      dup1\n      0x1f\n      add\n      0x20\n      dup1\n      swap2\n      div\n      mul\n      0x20\n      add\n      mload(0x40)\n      swap1\n      dup2\n      add\n      0x40\n      mstore\n      dup1\n      swap3\n      swap2\n      swap1\n      dup2\n      dup2\n      mstore\n      0x20\n      add\n      dup3\n      dup1\n      sload\n      tag_156\n      swap1\n      tag_73\n      jump\t// in\n    tag_156:\n      dup1\n      iszero\n      tag_157\n      jumpi\n      dup1\n      0x1f\n      lt\n      tag_158\n      jumpi\n      0x0100\n      dup1\n      dup4\n      sload\n      div\n      mul\n      dup4\n      mstore\n      swap2\n      0x20\n      add\n      swap2\n      jump(tag_157)\n    tag_158:\n      dup3\n      add\n      swap2\n      swap1\n      0x00\n      mstore\n      keccak256(0x00, 0x20)\n      swap1\n    tag_159:\n      dup2\n      sload\n      dup2\n      mstore\n      swap1\n      0x01\n      add\n      swap1\n      0x20\n      add\n      dup1\n      dup4\n      gt\n      tag_159\n      jumpi\n      dup3\n      swap1\n      sub\n      0x1f\n      and\n      dup3\n      add\n      swap2\n    tag_157:\n      pop\n      pop\n      pop\n      pop\n      pop\n      dup2\n      mstore\n      0x20\n      add\n      0x01\n      dup3\n      add\n      0x00\n      swap1\n      sload\n      swap1\n      0x0100\n      exp\n      swap1\n      div\n      0xffffffffffffffffffffffffffffffffffffffff\n      and\n      0xffffffffffffffffffffffffffffffffffffffff\n      and\n      0xffffffffffffffffffffffffffffffffffffffff\n      and\n      dup2\n      mstore\n      0x20\n      add\n      0x01\n      dup3\n      add\n      0x14\n      swap1\n      sload\n      swap1\n      0x0100\n      exp\n      swap1\n      div\n      0xff\n      and\n      iszero\n      iszero\n      iszero\n      iszero\n      dup2\n      mstore\n      0x20\n      add\n      0x01\n      dup3\n      add\n      0x15\n      swap1\n      sload\n      swap1\n      0x0100\n      exp\n      swap1\n      div\n      0xff\n      and\n      0x03\n      dup2\n      gt\n      iszero\n      tag_160\n      jumpi\n      mstore(0x00, 0x4e487b7100000000000000000000000000000000000000000000000000000000)\n      mstore(0x04, 0x21)\n      revert(0x00, 0x24)\n    tag_160:\n      0x03\n      dup2\n      gt\n      iszero\n      tag_161\n      jumpi\n      mstore(0x00, 0x4e487b7100000000000000000000000000000000000000000000000000000000)\n      mstore(0x04, 0x21)\n      revert(0x00, 0x24)\n    tag_161:\n      dup2\n      mstore\n      0x20\n      add\n      0x02\n      dup3\n      add\n      dup1\n      sload\n      dup1\n      0x20\n      mul\n      0x20\n      add\n      mload(0x40)\n      swap1\n      dup2\n      add\n      0x40\n      mstore\n      dup1\n      swap3\n      swap2\n      swap1\n      dup2\n      dup2\n      mstore\n      0x20\n      add\n      dup3\n      dup1\n      sload\n      dup1\n      iszero\n      tag_162\n      jumpi\n      0x20\n      mul\n      dup3\n      add\n      swap2\n      swap1\n      0x00\n      mstore\n      keccak256(0x00, 0x20)\n      swap1\n    tag_163:\n      dup2\n      sload\n      dup2\n      mstore\n      0x20\n      add\n      swap1\n      0x01\n      add\n      swap1\n      dup1\n      dup4\n      gt\n      tag_163\n      jumpi\n    tag_162:\n      pop\n      pop\n      pop\n      pop\n      pop\n      dup2\n      mstore\n      0x20\n      add\n      0x03\n      dup3\n      add\n      dup1\n      sload\n      dup1\n      0x20\n      mul\n      0x20\n      add\n      mload(0x40)\n      swap1\n      dup2\n      add\n      0x40\n      mstore\n      dup1\n      swap3\n      swap2\n      swap1\n      dup2\n      dup2\n      mstore\n      0x20\n      add\n      dup3\n      dup1\n      sload\n      dup1\n      iszero\n      tag_164\n      jumpi\n      0x20\n      mul\n      dup3\n      add\n      swap2\n      swap1\n      0x00\n      mstore\n      keccak256(0x00, 0x20)\n      swap1\n    tag_165:\n      dup2\n      sload\n      dup2\n      mstore\n      0x20\n      add\n      swap1\n      0x01\n      add\n      swap1\n      dup1\n      dup4\n      gt\n      tag_165\n      jumpi\n    tag_164:\n      pop\n      pop\n      pop\n      pop\n      pop\n      dup2\n      mstore\n      0x20\n      add\n      0x04\n      dup3\n      add\n      mload(0x40)\n      dup1\n      0x0120\n      add\n      0x40\n      mstore\n      swap1\n      dup2\n      0x00\n      dup3\n      add\n      sload\n      dup2\n      mstore\n      0x20\n      add\n      0x01\n      dup3\n      add\n      0x00\n      swap1\n      sload\n      swap1\n      0x0100\n      exp\n      swap1\n      div\n      0xff\n      and\n      0x03\n      dup2\n      gt\n      iszero\n      tag_166\n      jumpi\n      mstore(0x00, 0x4e487b7100000000000000000000000000000000000000000000000000000000)\n      mstore(0x04, 0x21)\n      revert(0x00, 0x24)\n    tag_166:\n      0x03\n      dup2\n      gt\n      iszero\n      tag_167\n      jumpi\n      mstore(0x00, 0x4e487b7100000000000000000000000000000000000000000000000000000000)\n      mstore(0x04, 0x21)\n      revert(0x00, 0x24)\n    tag_167:\n      dup2\n      mstore\n      0x20\n      add\n      0x01\n      dup3\n      add\n      0x01\n      swap1\n      sload\n      swap1\n      0x0100\n      exp\n      swap1\n      div\n      0xff\n      and\n      0x02\n      dup2\n      gt\n      iszero\n      tag_168\n      jumpi\n      mstore(0x00, 0x4e487b7100000000000000000000000000000000000000000000000000000000)\n      mstore(0x04, 0x21)\n      revert(0x00, 0x24)\n    tag_168:\n      0x02\n      dup2\n      gt\n      iszero\n      tag_169\n      jumpi\n      mstore(0x00, 0x4e487b7100000000000000000000000000000000000000000000000000000000)\n      mstore(0x04, 0x21)\n      revert(0x00, 0x24)\n    tag_169:\n      dup2\n      mstore\n      0x20\n      add\n      0x01\n      dup3\n      add\n      0x02\n      swap1\n      sload\n      swap1\n      0x0100\n      exp\n      swap1\n      div\n      0xff\n      and\n      iszero\n      iszero\n      iszero\n      iszero\n      dup2\n      mstore\n      0x20\n      add\n      0x01\n      dup3\n      add\n      0x03\n      swap1\n      sload\n      swap1\n      0x0100\n      exp\n      swap1\n      div\n      0xff\n      and\n      iszero\n      iszero\n      iszero\n      iszero\n      dup2\n      mstore\n      0x20\n      add\n      0x01\n      dup3\n      add\n      0x04\n      swap1\n      sload\n      swap1\n      0x0100\n      exp\n      swap1\n      div\n      0xff\n      and\n      0x06\n      dup2\n      gt\n      iszero\n      tag_170\n      jumpi\n      mstore(0x00, 0x4e487b7100000000000000000000000000000000000000000000000000000000)\n      mstore(0x04, 0x21)\n      revert(0x00, 0x24)\n    tag_170:\n      0x06\n      dup2\n      gt\n      iszero\n      tag_171\n      jumpi\n      mstore(0x00, 0x4e487b7100000000000000000000000000000000000000000000000000000000)\n      mstore(0x04, 0x21)\n      revert(0x00, 0x24)\n    tag_171:\n      dup2\n      mstore\n      0x20\n      add\n      0x02\n      dup3\n      add\n      dup1\n      sload\n      tag_172\n      swap1\n      tag_73\n      jump\t// in\n    tag_172:\n      dup1\n      0x1f\n      add\n      0x20\n      dup1\n      swap2\n      div\n      mul\n      0x20\n      add\n      mload(0x40)\n      swap1\n      dup2\n      add\n      0x40\n      mstore\n      dup1\n      swap3\n      swap2\n      swap1\n      dup2\n      dup2\n      mstore\n      0x20\n      add\n      dup3\n      dup1\n      sload\n      tag_173\n      swap1\n      tag_73\n      jump\t// in\n    tag_173:\n      dup1\n      iszero\n      tag_174\n      jumpi\n      dup1\n      0x1f\n      lt\n      tag_175\n      jumpi\n      0x0100\n      dup1\n      dup4\n      sload\n      div\n      mul\n      dup4\n      mstore\n      swap2\n      0x20\n      add\n      swap2\n      jump(tag_174)\n    tag_175:\n      dup3\n      add\n      swap2\n      swap1\n      0x00\n      mstore\n      keccak256(0x00, 0x20)\n      swap1\n    tag_176:\n      dup2\n      sload\n      dup2\n      mstore\n      swap1\n      0x01\n      add\n      swap1\n      0x20\n      add\n      dup1\n      dup4\n      gt\n      tag_176\n      jumpi\n      dup3\n      swap1\n      sub\n      0x1f\n      and\n      dup3\n      add\n      swap2\n    tag_174:\n      pop\n      pop\n      pop\n      pop\n      pop\n      dup2\n      mstore\n      0x20\n      add\n      0x03\n      dup3\n      add\n      dup1\n      sload\n      tag_177\n      swap1\n      tag_73\n      jump\t// in\n    tag_177:\n      dup1\n      0x1f\n      add\n      0x20\n      dup1\n      swap2\n      div\n      mul\n      0x20\n      add\n      mload(0x40)\n      swap1\n      dup2\n      add\n      0x40\n      mstore\n      dup1\n      swap3\n      swap2\n      swap1\n      dup2\n      dup2\n      mstore\n      0x20\n      add\n      dup3\n      dup1\n      sload\n      tag_178\n      swap1\n      tag_73\n      jump\t// in\n    tag_178:\n      dup1\n      iszero\n      tag_179\n      jumpi\n      dup1\n      0x1f\n      lt\n      tag_180\n      jumpi\n      0x0100\n      dup1\n      dup4\n      sload\n      div\n      mul\n      dup4\n      mstore\n      swap2\n      0x20\n      add\n      swap2\n      jump(tag_179)\n    tag_180:\n      dup3\n      add\n      swap2\n      swap1\n      0x00\n      mstore\n      keccak256(0x00, 0x20)\n      swap1\n    tag_181:\n      dup2\n      sload\n      dup2\n      mstore\n      swap1\n      0x01\n      add\n      swap1\n      0x20\n      add\n      dup1\n      dup4\n      gt\n      tag_181\n      jumpi\n      dup3\n      swap1\n      sub\n      0x1f\n      and\n      dup3\n      add\n      swap2\n    tag_179:\n      pop\n      pop\n      pop\n      pop\n      pop\n      dup2\n      mstore\n      0x20\n      add\n      0x04\n      dup3\n      add\n      dup1\n      sload\n      dup1\n      0x20\n      mul\n      0x20\n      add\n      mload(0x40)\n      swap1\n      dup2\n      add\n      0x40\n      mstore\n      dup1\n      swap3\n      swap2\n      swap1\n      dup2\n      dup2\n      mstore\n      0x20\n      add\n      dup3\n      dup1\n      sload\n      dup1\n      iszero\n      tag_182\n      jumpi\n      0x20\n      mul\n      dup3\n      add\n      swap2\n      swap1\n      0x00\n      mstore\n      keccak256(0x00, 0x20)\n      swap1\n    tag_183:\n      dup2\n      sload\n      dup2\n      mstore\n      0x20\n      add\n      swap1\n      0x01\n      add\n      swap1\n      dup1\n      dup4\n      gt\n      tag_183\n      jumpi\n    tag_182:\n      pop\n      pop\n      pop\n      pop\n      pop\n      dup2\n      mstore\n      pop\n      pop\n      dup2\n      mstore\n      pop\n      pop\n      swap1\n      pop\n        /* \"BasicEnzian.sol\":2801:2813  uint endBoss */\n      0x00\n        /* \"BasicEnzian.sol\":2845:2856  TaskLibrary */\n      linkerSymbol(\"d1970310b2288d1f22c83455a39f94189a4a2879af0960ed80dc27cd808cee7c\")\n        /* \"BasicEnzian.sol\":2845:2869  TaskLibrary.completeTask */\n      0xe00e0eea\n        /* \"BasicEnzian.sol\":2870:2877  thetask */\n      dup4\n        /* \"BasicEnzian.sol\":2879:2891  processState */\n      0x00\n        /* \"BasicEnzian.sol\":2845:2892  TaskLibrary.completeTask(thetask, processState) */\n      mload(0x40)\n      dup4\n      0xffffffff\n      and\n      0xe0\n      shl\n      dup2\n      mstore\n      0x04\n      add\n      tag_184\n      swap3\n      swap2\n      swap1\n      tag_185\n      jump\t// in\n    tag_184:\n      0x40\n      dup1\n      mload\n      dup1\n      dup4\n      sub\n      dup2\n      dup7\n      dup1\n      extcodesize\n      iszero\n      dup1\n      iszero\n      tag_186\n      jumpi\n      0x00\n      dup1\n      revert\n    tag_186:\n      pop\n      gas\n      delegatecall\n      iszero\n      dup1\n      iszero\n      tag_188\n      jumpi\n      returndatasize\n      0x00\n      dup1\n      returndatacopy\n      revert(0x00, returndatasize)\n    tag_188:\n      pop\n      pop\n      pop\n      pop\n      mload(0x40)\n      returndatasize\n      not(0x1f)\n      0x1f\n      dup3\n      add\n      and\n      dup3\n      add\n      dup1\n      0x40\n      mstore\n      pop\n      dup2\n      add\n      swap1\n      tag_189\n      swap2\n      swap1\n      tag_190\n      jump\t// in\n    tag_189:\n        /* \"BasicEnzian.sol\":2824:2892  (success, endBoss) = TaskLibrary.completeTask(thetask, processState) */\n      dup1\n      swap3\n      pop\n      dup2\n      swap5\n      pop\n      pop\n      pop\n        /* \"BasicEnzian.sol\":2916:2923  thetask */\n      dup2\n        /* \"BasicEnzian.sol\":2916:2932  thetask.decision */\n      0xc0\n      add\n      mload\n        /* \"BasicEnzian.sol\":2916:2939  thetask.decision.exists */\n      0x80\n      add\n      mload\n        /* \"BasicEnzian.sol\":2913:3208  if(thetask.decision.exists) {\r... */\n      iszero\n      tag_191\n      jumpi\n        /* \"BasicEnzian.sol\":2988:2995  success */\n      dup3\n        /* \"BasicEnzian.sol\":2956:2968  processState */\n      0x00\n        /* \"BasicEnzian.sol\":2956:2976  processState.enabled */\n      0x03\n      add\n        /* \"BasicEnzian.sol\":2956:2985  processState.enabled[endBoss] */\n      0x00\n        /* \"BasicEnzian.sol\":2977:2984  endBoss */\n      dup4\n        /* \"BasicEnzian.sol\":2956:2985  processState.enabled[endBoss] */\n      dup2\n      mstore\n      0x20\n      add\n      swap1\n      dup2\n      mstore\n      0x20\n      add\n      0x00\n      keccak256\n      0x00\n        /* \"BasicEnzian.sol\":2956:2995  processState.enabled[endBoss] = success */\n      0x0100\n      exp\n      dup2\n      sload\n      dup2\n      0xff\n      mul\n      not\n      and\n      swap1\n      dup4\n      iszero\n      iszero\n      mul\n      or\n      swap1\n      sstore\n      pop\n        /* \"BasicEnzian.sol\":3040:3046  uint i */\n      0x00\n        /* \"BasicEnzian.sol\":3035:3188  for (uint i = 0; i < thetask.competitors.length; i++) {\r... */\n    tag_192:\n        /* \"BasicEnzian.sol\":3056:3063  thetask */\n      dup3\n        /* \"BasicEnzian.sol\":3056:3075  thetask.competitors */\n      0xa0\n      add\n      mload\n        /* \"BasicEnzian.sol\":3056:3082  thetask.competitors.length */\n      mload\n        /* \"BasicEnzian.sol\":3052:3053  i */\n      dup2\n        /* \"BasicEnzian.sol\":3052:3082  i < thetask.competitors.length */\n      lt\n        /* \"BasicEnzian.sol\":3035:3188  for (uint i = 0; i < thetask.competitors.length; i++) {\r... */\n      iszero\n      tag_193\n      jumpi\n        /* \"BasicEnzian.sol\":3165:3172  success */\n      dup4\n        /* \"BasicEnzian.sol\":3108:3120  processState */\n      0x00\n        /* \"BasicEnzian.sol\":3108:3126  processState.tasks */\n      dup1\n      add\n        /* \"BasicEnzian.sol\":3108:3152  processState.tasks[(thetask.competitors[i])] */\n      0x00\n        /* \"BasicEnzian.sol\":3128:3135  thetask */\n      dup6\n        /* \"BasicEnzian.sol\":3128:3147  thetask.competitors */\n      0xa0\n      add\n      mload\n        /* \"BasicEnzian.sol\":3148:3149  i */\n      dup5\n        /* \"BasicEnzian.sol\":3128:3150  thetask.competitors[i] */\n      dup2\n      mload\n      dup2\n      lt\n      tag_195\n      jumpi\n      mstore(0x00, 0x4e487b7100000000000000000000000000000000000000000000000000000000)\n      mstore(0x04, 0x32)\n      revert(0x00, 0x24)\n    tag_195:\n      0x20\n      mul\n      0x20\n      add\n      add\n      mload\n        /* \"BasicEnzian.sol\":3108:3152  processState.tasks[(thetask.competitors[i])] */\n      dup2\n      mstore\n      0x20\n      add\n      swap1\n      dup2\n      mstore\n      0x20\n      add\n      0x00\n      keccak256\n        /* \"BasicEnzian.sol\":3108:3162  processState.tasks[(thetask.competitors[i])].completed */\n      0x01\n      add\n      0x14\n        /* \"BasicEnzian.sol\":3108:3172  processState.tasks[(thetask.competitors[i])].completed = success */\n      0x0100\n      exp\n      dup2\n      sload\n      dup2\n      0xff\n      mul\n      not\n      and\n      swap1\n      dup4\n      iszero\n      iszero\n      mul\n      or\n      swap1\n      sstore\n      pop\n        /* \"BasicEnzian.sol\":3084:3087  i++ */\n      dup1\n      dup1\n      tag_196\n      swap1\n      tag_197\n      jump\t// in\n    tag_196:\n      swap2\n      pop\n      pop\n        /* \"BasicEnzian.sol\":3035:3188  for (uint i = 0; i < thetask.competitors.length; i++) {\r... */\n      jump(tag_192)\n    tag_193:\n      pop\n        /* \"BasicEnzian.sol\":2913:3208  if(thetask.decision.exists) {\r... */\n    tag_191:\n        /* \"BasicEnzian.sol\":3257:3264  success */\n      dup3\n        /* \"BasicEnzian.sol\":3218:3230  processState */\n      0x00\n        /* \"BasicEnzian.sol\":3218:3236  processState.tasks */\n      dup1\n      add\n        /* \"BasicEnzian.sol\":3218:3244  processState.tasks[taskId] */\n      0x00\n        /* \"BasicEnzian.sol\":3237:3243  taskId */\n      dup7\n        /* \"BasicEnzian.sol\":3218:3244  processState.tasks[taskId] */\n      dup2\n      mstore\n      0x20\n      add\n      swap1\n      dup2\n      mstore\n      0x20\n      add\n      0x00\n      keccak256\n        /* \"BasicEnzian.sol\":3218:3254  processState.tasks[taskId].completed */\n      0x01\n      add\n      0x14\n        /* \"BasicEnzian.sol\":3218:3264  processState.tasks[taskId].completed = success */\n      0x0100\n      exp\n      dup2\n      sload\n      dup2\n      0xff\n      mul\n      not\n      and\n      swap1\n      dup4\n      iszero\n      iszero\n      mul\n      or\n      swap1\n      sstore\n      pop\n        /* \"BasicEnzian.sol\":3294:3301  success */\n      dup3\n        /* \"BasicEnzian.sol\":3280:3302  TaskCompleted(success) */\n      iszero\n      iszero\n      0xacd30b4f9fd5868793e13ffb506f03374a23d9feba1249ac2cc7b0fe024ff4ba\n      mload(0x40)\n      mload(0x40)\n      dup1\n      swap2\n      sub\n      swap1\n      log2\n        /* \"BasicEnzian.sol\":3327:3334  success */\n      dup3\n        /* \"BasicEnzian.sol\":3323:3448  if (success) {\r... */\n      iszero\n      tag_198\n      jumpi\n        /* \"BasicEnzian.sol\":3351:3370  debugStringeventLog */\n      0x06\n        /* \"BasicEnzian.sol\":3376:3383  thetask */\n      dup3\n        /* \"BasicEnzian.sol\":3376:3392  thetask.activity */\n      0x00\n      add\n      mload\n        /* \"BasicEnzian.sol\":3351:3393  debugStringeventLog.push(thetask.activity) */\n      swap1\n      dup1\n      0x01\n      dup2\n      sload\n      add\n      dup1\n      dup3\n      sstore\n      dup1\n      swap2\n      pop\n      pop\n      0x01\n      swap1\n      sub\n      swap1\n      0x00\n      mstore\n      keccak256(0x00, 0x20)\n      add\n      0x00\n      swap1\n      swap2\n      swap1\n      swap2\n      swap1\n      swap2\n      pop\n      swap1\n      dup1\n      mload\n      swap1\n      0x20\n      add\n      swap1\n      tag_200\n      swap3\n      swap2\n      swap1\n      tag_87\n      jump\t// in\n    tag_200:\n      pop\n        /* \"BasicEnzian.sol\":3408:3423  theRealEventLog */\n      0x05\n        /* \"BasicEnzian.sol\":3429:3435  taskId */\n      dup5\n        /* \"BasicEnzian.sol\":3408:3436  theRealEventLog.push(taskId) */\n      swap1\n      dup1\n      0x01\n      dup2\n      sload\n      add\n      dup1\n      dup3\n      sstore\n      dup1\n      swap2\n      pop\n      pop\n      0x01\n      swap1\n      sub\n      swap1\n      0x00\n      mstore\n      keccak256(0x00, 0x20)\n      add\n      0x00\n      swap1\n      swap2\n      swap1\n      swap2\n      swap1\n      swap2\n      pop\n      sstore\n        /* \"BasicEnzian.sol\":3323:3448  if (success) {\r... */\n    tag_198:\n        /* \"BasicEnzian.sol\":3468:3482  return success */\n      pop\n      pop\n        /* \"BasicEnzian.sol\":2573:3490  function completing(uint taskId) public returns (bool success){\r... */\n      swap2\n      swap1\n      pop\n      jump\t// out\n        /* \"BasicEnzian.sol\":1623:2473  function createTaskWithDecision(\r... */\n    tag_65:\n        /* \"BasicEnzian.sol\":1981:2021  DecisionEntities.DecisionType.STRINGDESC */\n      0x00\n        /* \"BasicEnzian.sol\":1962:2021  _decision.type_ == DecisionEntities.DecisionType.STRINGDESC */\n      0x02\n      dup2\n      gt\n      iszero\n      tag_203\n      jumpi\n      mstore(0x00, 0x4e487b7100000000000000000000000000000000000000000000000000000000)\n      mstore(0x04, 0x21)\n      revert(0x00, 0x24)\n    tag_203:\n        /* \"BasicEnzian.sol\":1962:1971  _decision */\n      dup2\n        /* \"BasicEnzian.sol\":1962:1977  _decision.type_ */\n      0x40\n      add\n      mload\n        /* \"BasicEnzian.sol\":1962:2021  _decision.type_ == DecisionEntities.DecisionType.STRINGDESC */\n      0x02\n      dup2\n      gt\n      iszero\n      tag_204\n      jumpi\n      mstore(0x00, 0x4e487b7100000000000000000000000000000000000000000000000000000000)\n      mstore(0x04, 0x21)\n      revert(0x00, 0x24)\n    tag_204:\n      eq\n        /* \"BasicEnzian.sol\":1959:2296  if(_decision.type_ == DecisionEntities.DecisionType.STRINGDESC) {\r... */\n      iszero\n      tag_205\n      jumpi\n        /* \"BasicEnzian.sol\":2042:2110  processState.string_processVariables[_decision.processVariable] = \"\" */\n      mload(0x40)\n      dup1\n      0x20\n      add\n      0x40\n      mstore\n      dup1\n      0x00\n      dup2\n      mstore\n      pop\n        /* \"BasicEnzian.sol\":2042:2054  processState */\n      0x00\n        /* \"BasicEnzian.sol\":2042:2078  processState.string_processVariables */\n      0x02\n      add\n        /* \"BasicEnzian.sol\":2079:2088  _decision */\n      dup3\n        /* \"BasicEnzian.sol\":2079:2104  _decision.processVariable */\n      0xc0\n      add\n      mload\n        /* \"BasicEnzian.sol\":2042:2105  processState.string_processVariables[_decision.processVariable] */\n      mload(0x40)\n      tag_206\n      swap2\n      swap1\n      tag_207\n      jump\t// in\n    tag_206:\n      swap1\n      dup2\n      mstore\n      0x20\n      add\n      mload(0x40)\n      dup1\n      swap2\n      sub\n      swap1\n      keccak256\n        /* \"BasicEnzian.sol\":2042:2110  processState.string_processVariables[_decision.processVariable] = \"\" */\n      swap1\n      dup1\n      mload\n      swap1\n      0x20\n      add\n      swap1\n      tag_208\n      swap3\n      swap2\n      swap1\n      tag_87\n      jump\t// in\n    tag_208:\n      pop\n        /* \"BasicEnzian.sol\":1959:2296  if(_decision.type_ == DecisionEntities.DecisionType.STRINGDESC) {\r... */\n      jump(tag_209)\n    tag_205:\n        /* \"BasicEnzian.sol\":2154:2191  DecisionEntities.DecisionType.INTDESC */\n      0x01\n        /* \"BasicEnzian.sol\":2135:2191  _decision.type_ == DecisionEntities.DecisionType.INTDESC */\n      0x02\n      dup2\n      gt\n      iszero\n      tag_210\n      jumpi\n      mstore(0x00, 0x4e487b7100000000000000000000000000000000000000000000000000000000)\n      mstore(0x04, 0x21)\n      revert(0x00, 0x24)\n    tag_210:\n        /* \"BasicEnzian.sol\":2135:2144  _decision */\n      dup2\n        /* \"BasicEnzian.sol\":2135:2150  _decision.type_ */\n      0x40\n      add\n      mload\n        /* \"BasicEnzian.sol\":2135:2191  _decision.type_ == DecisionEntities.DecisionType.INTDESC */\n      0x02\n      dup2\n      gt\n      iszero\n      tag_211\n      jumpi\n      mstore(0x00, 0x4e487b7100000000000000000000000000000000000000000000000000000000)\n      mstore(0x04, 0x21)\n      revert(0x00, 0x24)\n    tag_211:\n      eq\n        /* \"BasicEnzian.sol\":2132:2296  if(_decision.type_ == DecisionEntities.DecisionType.INTDESC) {\r... */\n      iszero\n      tag_212\n      jumpi\n        /* \"BasicEnzian.sol\":2279:2280  0 */\n      0x00\n        /* \"BasicEnzian.sol\":2212:2224  processState */\n      dup1\n        /* \"BasicEnzian.sol\":2212:2249  processState.integer_processVariables */\n      0x01\n      add\n        /* \"BasicEnzian.sol\":2250:2259  _decision */\n      dup3\n        /* \"BasicEnzian.sol\":2250:2275  _decision.processVariable */\n      0xc0\n      add\n      mload\n        /* \"BasicEnzian.sol\":2212:2276  processState.integer_processVariables[_decision.processVariable] */\n      mload(0x40)\n      tag_213\n      swap2\n      swap1\n      tag_207\n      jump\t// in\n    tag_213:\n      swap1\n      dup2\n      mstore\n      0x20\n      add\n      mload(0x40)\n      dup1\n      swap2\n      sub\n      swap1\n      keccak256\n        /* \"BasicEnzian.sol\":2212:2280  processState.integer_processVariables[_decision.processVariable] = 0 */\n      dup2\n      swap1\n      sstore\n      pop\n        /* \"BasicEnzian.sol\":2132:2296  if(_decision.type_ == DecisionEntities.DecisionType.INTDESC) {\r... */\n    tag_212:\n        /* \"BasicEnzian.sol\":1959:2296  if(_decision.type_ == DecisionEntities.DecisionType.STRINGDESC) {\r... */\n    tag_209:\n        /* \"BasicEnzian.sol\":2324:2400  createTask(_id, _activity, _taskresource, _pmg, _requirements, _competitors) */\n      tag_214\n        /* \"BasicEnzian.sol\":2335:2338  _id */\n      dup8\n        /* \"BasicEnzian.sol\":2340:2349  _activity */\n      dup8\n        /* \"BasicEnzian.sol\":2351:2364  _taskresource */\n      dup8\n        /* \"BasicEnzian.sol\":2366:2370  _pmg */\n      dup8\n        /* \"BasicEnzian.sol\":2372:2385  _requirements */\n      dup8\n        /* \"BasicEnzian.sol\":2387:2399  _competitors */\n      dup8\n        /* \"BasicEnzian.sol\":2324:2334  createTask */\n      tag_25\n        /* \"BasicEnzian.sol\":2324:2400  createTask(_id, _activity, _taskresource, _pmg, _requirements, _competitors) */\n      jump\t// in\n    tag_214:\n        /* \"BasicEnzian.sol\":2451:2460  _decision */\n      dup1\n        /* \"BasicEnzian.sol\":2415:2427  processState */\n      0x00\n        /* \"BasicEnzian.sol\":2415:2433  processState.tasks */\n      dup1\n      add\n        /* \"BasicEnzian.sol\":2415:2438  processState.tasks[_id] */\n      0x00\n        /* \"BasicEnzian.sol\":2434:2437  _id */\n      dup10\n        /* \"BasicEnzian.sol\":2415:2438  processState.tasks[_id] */\n      dup2\n      mstore\n      0x20\n      add\n      swap1\n      dup2\n      mstore\n      0x20\n      add\n      0x00\n      keccak256\n        /* \"BasicEnzian.sol\":2415:2447  processState.tasks[_id].decision */\n      0x04\n      add\n        /* \"BasicEnzian.sol\":2415:2461  processState.tasks[_id].decision = (_decision) */\n      0x00\n      dup3\n      add\n      mload\n      dup2\n      0x00\n      add\n      sstore\n      0x20\n      dup3\n      add\n      mload\n      dup2\n      0x01\n      add\n      exp(0x0100, 0x00)\n      dup2\n      sload\n      dup2\n      0xff\n      mul\n      not\n      and\n      swap1\n      dup4\n      0x03\n      dup2\n      gt\n      iszero\n      tag_215\n      jumpi\n      mstore(0x00, 0x4e487b7100000000000000000000000000000000000000000000000000000000)\n      mstore(0x04, 0x21)\n      revert(0x00, 0x24)\n    tag_215:\n      mul\n      or\n      swap1\n      sstore\n      pop\n      0x40\n      dup3\n      add\n      mload\n      dup2\n      0x01\n      add\n      exp(0x0100, 0x01)\n      dup2\n      sload\n      dup2\n      0xff\n      mul\n      not\n      and\n      swap1\n      dup4\n      0x02\n      dup2\n      gt\n      iszero\n      tag_216\n      jumpi\n      mstore(0x00, 0x4e487b7100000000000000000000000000000000000000000000000000000000)\n      mstore(0x04, 0x21)\n      revert(0x00, 0x24)\n    tag_216:\n      mul\n      or\n      swap1\n      sstore\n      pop\n      0x60\n      dup3\n      add\n      mload\n      dup2\n      0x01\n      add\n      exp(0x0100, 0x02)\n      dup2\n      sload\n      dup2\n      0xff\n      mul\n      not\n      and\n      swap1\n      dup4\n      iszero\n      iszero\n      mul\n      or\n      swap1\n      sstore\n      pop\n      0x80\n      dup3\n      add\n      mload\n      dup2\n      0x01\n      add\n      exp(0x0100, 0x03)\n      dup2\n      sload\n      dup2\n      0xff\n      mul\n      not\n      and\n      swap1\n      dup4\n      iszero\n      iszero\n      mul\n      or\n      swap1\n      sstore\n      pop\n      0xa0\n      dup3\n      add\n      mload\n      dup2\n      0x01\n      add\n      exp(0x0100, 0x04)\n      dup2\n      sload\n      dup2\n      0xff\n      mul\n      not\n      and\n      swap1\n      dup4\n      0x06\n      dup2\n      gt\n      iszero\n      tag_217\n      jumpi\n      mstore(0x00, 0x4e487b7100000000000000000000000000000000000000000000000000000000)\n      mstore(0x04, 0x21)\n      revert(0x00, 0x24)\n    tag_217:\n      mul\n      or\n      swap1\n      sstore\n      pop\n      0xc0\n      dup3\n      add\n      mload\n      dup2\n      0x02\n      add\n      swap1\n      dup1\n      mload\n      swap1\n      0x20\n      add\n      swap1\n      tag_218\n      swap3\n      swap2\n      swap1\n      tag_87\n      jump\t// in\n    tag_218:\n      pop\n      0xe0\n      dup3\n      add\n      mload\n      dup2\n      0x03\n      add\n      swap1\n      dup1\n      mload\n      swap1\n      0x20\n      add\n      swap1\n      tag_219\n      swap3\n      swap2\n      swap1\n      tag_87\n      jump\t// in\n    tag_219:\n      pop\n      0x0100\n      dup3\n      add\n      mload\n      dup2\n      0x04\n      add\n      swap1\n      dup1\n      mload\n      swap1\n      0x20\n      add\n      swap1\n      tag_220\n      swap3\n      swap2\n      swap1\n      tag_98\n      jump\t// in\n    tag_220:\n      pop\n      swap1\n      pop\n      pop\n        /* \"BasicEnzian.sol\":1623:2473  function createTaskWithDecision(\r... */\n      pop\n      pop\n      pop\n      pop\n      pop\n      pop\n      pop\n      jump\t// out\n        /* \"BasicEnzian.sol\":4593:4773  function updateStringProcessVariable(string calldata variableName, string calldata newValue) public {\r... */\n    tag_69:\n        /* \"BasicEnzian.sol\":4757:4765  newValue */\n      dup2\n      dup2\n        /* \"BasicEnzian.sol\":4704:4716  processState */\n      0x00\n        /* \"BasicEnzian.sol\":4704:4740  processState.string_processVariables */\n      0x02\n      add\n        /* \"BasicEnzian.sol\":4741:4753  variableName */\n      dup7\n      dup7\n        /* \"BasicEnzian.sol\":4704:4754  processState.string_processVariables[variableName] */\n      mload(0x40)\n      tag_222\n      swap3\n      swap2\n      swap1\n      tag_110\n      jump\t// in\n    tag_222:\n      swap1\n      dup2\n      mstore\n      0x20\n      add\n      mload(0x40)\n      dup1\n      swap2\n      sub\n      swap1\n      keccak256\n        /* \"BasicEnzian.sol\":4704:4765  processState.string_processVariables[variableName] = newValue */\n      swap2\n      swap1\n      tag_223\n      swap3\n      swap2\n      swap1\n      tag_224\n      jump\t// in\n    tag_223:\n      pop\n        /* \"BasicEnzian.sol\":4593:4773  function updateStringProcessVariable(string calldata variableName, string calldata newValue) public {\r... */\n      pop\n      pop\n      pop\n      pop\n      jump\t// out\n    tag_87:\n      dup3\n      dup1\n      sload\n      tag_225\n      swap1\n      tag_73\n      jump\t// in\n    tag_225:\n      swap1\n      0x00\n      mstore\n      keccak256(0x00, 0x20)\n      swap1\n      0x1f\n      add\n      0x20\n      swap1\n      div\n      dup2\n      add\n      swap3\n      dup3\n      tag_227\n      jumpi\n      0x00\n      dup6\n      sstore\n      jump(tag_226)\n    tag_227:\n      dup3\n      0x1f\n      lt\n      tag_228\n      jumpi\n      dup1\n      mload\n      not(0xff)\n      and\n      dup4\n      dup1\n      add\n      or\n      dup6\n      sstore\n      jump(tag_226)\n    tag_228:\n      dup3\n      dup1\n      add\n      0x01\n      add\n      dup6\n      sstore\n      dup3\n      iszero\n      tag_226\n      jumpi\n      swap2\n      dup3\n      add\n    tag_229:\n      dup3\n      dup2\n      gt\n      iszero\n      tag_230\n      jumpi\n      dup3\n      mload\n      dup3\n      sstore\n      swap2\n      0x20\n      add\n      swap2\n      swap1\n      0x01\n      add\n      swap1\n      jump(tag_229)\n    tag_230:\n    tag_226:\n      pop\n      swap1\n      pop\n      tag_231\n      swap2\n      swap1\n      tag_232\n      jump\t// in\n    tag_231:\n      pop\n      swap1\n      jump\t// out\n    tag_90:\n      dup3\n      dup1\n      sload\n      dup3\n      dup3\n      sstore\n      swap1\n      0x00\n      mstore\n      keccak256(0x00, 0x20)\n      swap1\n      dup2\n      add\n      swap3\n      dup3\n      iszero\n      tag_233\n      jumpi\n      swap2\n      0x20\n      mul\n      dup3\n      add\n    tag_234:\n      dup3\n      dup2\n      gt\n      iszero\n      tag_235\n      jumpi\n      dup3\n      mload\n      dup3\n      sstore\n      swap2\n      0x20\n      add\n      swap2\n      swap1\n      0x01\n      add\n      swap1\n      jump(tag_234)\n    tag_235:\n    tag_233:\n      pop\n      swap1\n      pop\n      tag_236\n      swap2\n      swap1\n      tag_232\n      jump\t// in\n    tag_236:\n      pop\n      swap1\n      jump\t// out\n    tag_98:\n      dup3\n      dup1\n      sload\n      dup3\n      dup3\n      sstore\n      swap1\n      0x00\n      mstore\n      keccak256(0x00, 0x20)\n      swap1\n      dup2\n      add\n      swap3\n      dup3\n      iszero\n      tag_237\n      jumpi\n      swap2\n      0x20\n      mul\n      dup3\n      add\n    tag_238:\n      dup3\n      dup2\n      gt\n      iszero\n      tag_239\n      jumpi\n      dup3\n      mload\n      dup3\n      sstore\n      swap2\n      0x20\n      add\n      swap2\n      swap1\n      0x01\n      add\n      swap1\n      jump(tag_238)\n    tag_239:\n    tag_237:\n      pop\n      swap1\n      pop\n      tag_240\n      swap2\n      swap1\n      tag_241\n      jump\t// in\n    tag_240:\n      pop\n      swap1\n      jump\t// out\n    tag_224:\n      dup3\n      dup1\n      sload\n      tag_242\n      swap1\n      tag_73\n      jump\t// in\n    tag_242:\n      swap1\n      0x00\n      mstore\n      keccak256(0x00, 0x20)\n      swap1\n      0x1f\n      add\n      0x20\n      swap1\n      div\n      dup2\n      add\n      swap3\n      dup3\n      tag_244\n      jumpi\n      0x00\n      dup6\n      sstore\n      jump(tag_243)\n    tag_244:\n      dup3\n      0x1f\n      lt\n      tag_245\n      jumpi\n      dup1\n      calldataload\n      not(0xff)\n      and\n      dup4\n      dup1\n      add\n      or\n      dup6\n      sstore\n      jump(tag_243)\n    tag_245:\n      dup3\n      dup1\n      add\n      0x01\n      add\n      dup6\n      sstore\n      dup3\n      iszero\n      tag_243\n      jumpi\n      swap2\n      dup3\n      add\n    tag_246:\n      dup3\n      dup2\n      gt\n      iszero\n      tag_247\n      jumpi\n      dup3\n      calldataload\n      dup3\n      sstore\n      swap2\n      0x20\n      add\n      swap2\n      swap1\n      0x01\n      add\n      swap1\n      jump(tag_246)\n    tag_247:\n    tag_243:\n      pop\n      swap1\n      pop\n      tag_248\n      swap2\n      swap1\n      tag_232\n      jump\t// in\n    tag_248:\n      pop\n      swap1\n      jump\t// out\n    tag_232:\n    tag_249:\n      dup1\n      dup3\n      gt\n      iszero\n      tag_250\n      jumpi\n      0x00\n      dup2\n      0x00\n      swap1\n      sstore\n      pop\n      0x01\n      add\n      jump(tag_249)\n    tag_250:\n      pop\n      swap1\n      jump\t// out\n    tag_241:\n    tag_251:\n      dup1\n      dup3\n      gt\n      iszero\n      tag_252\n      jumpi\n      0x00\n      dup2\n      0x00\n      swap1\n      sstore\n      pop\n      0x01\n      add\n      jump(tag_251)\n    tag_252:\n      pop\n      swap1\n      jump\t// out\n        /* \"#utility.yul\":23:642   */\n    tag_254:\n      0x00\n        /* \"#utility.yul\":143:222   */\n      tag_256\n        /* \"#utility.yul\":158:221   */\n      tag_257\n        /* \"#utility.yul\":214:220   */\n      dup5\n        /* \"#utility.yul\":158:221   */\n      tag_258\n      jump\t// in\n    tag_257:\n        /* \"#utility.yul\":143:222   */\n      tag_259\n      jump\t// in\n    tag_256:\n        /* \"#utility.yul\":134:222   */\n      swap1\n      pop\n        /* \"#utility.yul\":242:247   */\n      dup1\n        /* \"#utility.yul\":270:276   */\n      dup4\n        /* \"#utility.yul\":263:268   */\n      dup3\n        /* \"#utility.yul\":256:277   */\n      mstore\n        /* \"#utility.yul\":296:300   */\n      0x20\n        /* \"#utility.yul\":289:294   */\n      dup3\n        /* \"#utility.yul\":285:301   */\n      add\n        /* \"#utility.yul\":278:301   */\n      swap1\n      pop\n        /* \"#utility.yul\":321:327   */\n      dup3\n        /* \"#utility.yul\":371:374   */\n      dup6\n        /* \"#utility.yul\":363:367   */\n      0x20\n        /* \"#utility.yul\":355:361   */\n      dup7\n        /* \"#utility.yul\":351:368   */\n      mul\n        /* \"#utility.yul\":346:349   */\n      dup3\n        /* \"#utility.yul\":342:369   */\n      add\n        /* \"#utility.yul\":339:375   */\n      gt\n        /* \"#utility.yul\":336:338   */\n      iszero\n      tag_260\n      jumpi\n        /* \"#utility.yul\":388:389   */\n      0x00\n        /* \"#utility.yul\":385:386   */\n      dup1\n        /* \"#utility.yul\":378:390   */\n      revert\n        /* \"#utility.yul\":336:338   */\n    tag_260:\n        /* \"#utility.yul\":416:417   */\n      0x00\n        /* \"#utility.yul\":401:636   */\n    tag_261:\n        /* \"#utility.yul\":426:432   */\n      dup6\n        /* \"#utility.yul\":423:424   */\n      dup2\n        /* \"#utility.yul\":420:433   */\n      lt\n        /* \"#utility.yul\":401:636   */\n      iszero\n      tag_263\n      jumpi\n        /* \"#utility.yul\":493:496   */\n      dup2\n        /* \"#utility.yul\":521:557   */\n      tag_264\n        /* \"#utility.yul\":553:556   */\n      dup9\n        /* \"#utility.yul\":541:551   */\n      dup3\n        /* \"#utility.yul\":521:557   */\n      tag_265\n      jump\t// in\n    tag_264:\n        /* \"#utility.yul\":516:519   */\n      dup5\n        /* \"#utility.yul\":509:558   */\n      mstore\n        /* \"#utility.yul\":587:591   */\n      0x20\n        /* \"#utility.yul\":582:585   */\n      dup5\n        /* \"#utility.yul\":578:592   */\n      add\n        /* \"#utility.yul\":571:592   */\n      swap4\n      pop\n        /* \"#utility.yul\":621:625   */\n      0x20\n        /* \"#utility.yul\":616:619   */\n      dup4\n        /* \"#utility.yul\":612:626   */\n      add\n        /* \"#utility.yul\":605:626   */\n      swap3\n      pop\n        /* \"#utility.yul\":461:636   */\n      pop\n        /* \"#utility.yul\":448:449   */\n      0x01\n        /* \"#utility.yul\":445:446   */\n      dup2\n        /* \"#utility.yul\":441:450   */\n      add\n        /* \"#utility.yul\":436:450   */\n      swap1\n      pop\n        /* \"#utility.yul\":401:636   */\n      jump(tag_261)\n    tag_263:\n        /* \"#utility.yul\":405:419   */\n      pop\n        /* \"#utility.yul\":124:642   */\n      pop\n      pop\n      swap4\n      swap3\n      pop\n      pop\n      pop\n      jump\t// out\n        /* \"#utility.yul\":664:1305   */\n    tag_266:\n      0x00\n        /* \"#utility.yul\":795:874   */\n      tag_268\n        /* \"#utility.yul\":810:873   */\n      tag_269\n        /* \"#utility.yul\":866:872   */\n      dup5\n        /* \"#utility.yul\":810:873   */\n      tag_258\n      jump\t// in\n    tag_269:\n        /* \"#utility.yul\":795:874   */\n      tag_259\n      jump\t// in\n    tag_268:\n        /* \"#utility.yul\":786:874   */\n      swap1\n      pop\n        /* \"#utility.yul\":894:899   */\n      dup1\n        /* \"#utility.yul\":922:928   */\n      dup4\n        /* \"#utility.yul\":915:920   */\n      dup3\n        /* \"#utility.yul\":908:929   */\n      mstore\n        /* \"#utility.yul\":948:952   */\n      0x20\n        /* \"#utility.yul\":941:946   */\n      dup3\n        /* \"#utility.yul\":937:953   */\n      add\n        /* \"#utility.yul\":930:953   */\n      swap1\n      pop\n        /* \"#utility.yul\":973:979   */\n      dup3\n        /* \"#utility.yul\":1023:1026   */\n      dup6\n        /* \"#utility.yul\":1015:1019   */\n      0x20\n        /* \"#utility.yul\":1007:1013   */\n      dup7\n        /* \"#utility.yul\":1003:1020   */\n      mul\n        /* \"#utility.yul\":998:1001   */\n      dup3\n        /* \"#utility.yul\":994:1021   */\n      add\n        /* \"#utility.yul\":991:1027   */\n      gt\n        /* \"#utility.yul\":988:990   */\n      iszero\n      tag_270\n      jumpi\n        /* \"#utility.yul\":1040:1041   */\n      0x00\n        /* \"#utility.yul\":1037:1038   */\n      dup1\n        /* \"#utility.yul\":1030:1042   */\n      revert\n        /* \"#utility.yul\":988:990   */\n    tag_270:\n        /* \"#utility.yul\":1068:1069   */\n      0x00\n        /* \"#utility.yul\":1053:1299   */\n    tag_271:\n        /* \"#utility.yul\":1078:1084   */\n      dup6\n        /* \"#utility.yul\":1075:1076   */\n      dup2\n        /* \"#utility.yul\":1072:1085   */\n      lt\n        /* \"#utility.yul\":1053:1299   */\n      iszero\n      tag_273\n      jumpi\n        /* \"#utility.yul\":1145:1148   */\n      dup2\n        /* \"#utility.yul\":1173:1220   */\n      tag_274\n        /* \"#utility.yul\":1216:1219   */\n      dup9\n        /* \"#utility.yul\":1204:1214   */\n      dup3\n        /* \"#utility.yul\":1173:1220   */\n      tag_275\n      jump\t// in\n    tag_274:\n        /* \"#utility.yul\":1168:1171   */\n      dup5\n        /* \"#utility.yul\":1161:1221   */\n      mstore\n        /* \"#utility.yul\":1250:1254   */\n      0x20\n        /* \"#utility.yul\":1245:1248   */\n      dup5\n        /* \"#utility.yul\":1241:1255   */\n      add\n        /* \"#utility.yul\":1234:1255   */\n      swap4\n      pop\n        /* \"#utility.yul\":1284:1288   */\n      0x20\n        /* \"#utility.yul\":1279:1282   */\n      dup4\n        /* \"#utility.yul\":1275:1289   */\n      add\n        /* \"#utility.yul\":1268:1289   */\n      swap3\n      pop\n        /* \"#utility.yul\":1113:1299   */\n      pop\n        /* \"#utility.yul\":1100:1101   */\n      0x01\n        /* \"#utility.yul\":1097:1098   */\n      dup2\n        /* \"#utility.yul\":1093:1102   */\n      add\n        /* \"#utility.yul\":1088:1102   */\n      swap1\n      pop\n        /* \"#utility.yul\":1053:1299   */\n      jump(tag_271)\n    tag_273:\n        /* \"#utility.yul\":1057:1071   */\n      pop\n        /* \"#utility.yul\":776:1305   */\n      pop\n      pop\n      swap4\n      swap3\n      pop\n      pop\n      pop\n      jump\t// out\n        /* \"#utility.yul\":1328:1950   */\n    tag_276:\n      0x00\n        /* \"#utility.yul\":1449:1529   */\n      tag_278\n        /* \"#utility.yul\":1464:1528   */\n      tag_279\n        /* \"#utility.yul\":1521:1527   */\n      dup5\n        /* \"#utility.yul\":1464:1528   */\n      tag_280\n      jump\t// in\n    tag_279:\n        /* \"#utility.yul\":1449:1529   */\n      tag_259\n      jump\t// in\n    tag_278:\n        /* \"#utility.yul\":1440:1529   */\n      swap1\n      pop\n        /* \"#utility.yul\":1549:1554   */\n      dup1\n        /* \"#utility.yul\":1577:1583   */\n      dup4\n        /* \"#utility.yul\":1570:1575   */\n      dup3\n        /* \"#utility.yul\":1563:1584   */\n      mstore\n        /* \"#utility.yul\":1603:1607   */\n      0x20\n        /* \"#utility.yul\":1596:1601   */\n      dup3\n        /* \"#utility.yul\":1592:1608   */\n      add\n        /* \"#utility.yul\":1585:1608   */\n      swap1\n      pop\n        /* \"#utility.yul\":1628:1634   */\n      dup3\n        /* \"#utility.yul\":1678:1681   */\n      dup6\n        /* \"#utility.yul\":1670:1674   */\n      0x20\n        /* \"#utility.yul\":1662:1668   */\n      dup7\n        /* \"#utility.yul\":1658:1675   */\n      mul\n        /* \"#utility.yul\":1653:1656   */\n      dup3\n        /* \"#utility.yul\":1649:1676   */\n      add\n        /* \"#utility.yul\":1646:1682   */\n      gt\n        /* \"#utility.yul\":1643:1645   */\n      iszero\n      tag_281\n      jumpi\n        /* \"#utility.yul\":1695:1696   */\n      0x00\n        /* \"#utility.yul\":1692:1693   */\n      dup1\n        /* \"#utility.yul\":1685:1697   */\n      revert\n        /* \"#utility.yul\":1643:1645   */\n    tag_281:\n        /* \"#utility.yul\":1723:1724   */\n      0x00\n        /* \"#utility.yul\":1708:1944   */\n    tag_282:\n        /* \"#utility.yul\":1733:1739   */\n      dup6\n        /* \"#utility.yul\":1730:1731   */\n      dup2\n        /* \"#utility.yul\":1727:1740   */\n      lt\n        /* \"#utility.yul\":1708:1944   */\n      iszero\n      tag_284\n      jumpi\n        /* \"#utility.yul\":1800:1803   */\n      dup2\n        /* \"#utility.yul\":1828:1865   */\n      tag_285\n        /* \"#utility.yul\":1861:1864   */\n      dup9\n        /* \"#utility.yul\":1849:1859   */\n      dup3\n        /* \"#utility.yul\":1828:1865   */\n      tag_286\n      jump\t// in\n    tag_285:\n        /* \"#utility.yul\":1823:1826   */\n      dup5\n        /* \"#utility.yul\":1816:1866   */\n      mstore\n        /* \"#utility.yul\":1895:1899   */\n      0x20\n        /* \"#utility.yul\":1890:1893   */\n      dup5\n        /* \"#utility.yul\":1886:1900   */\n      add\n        /* \"#utility.yul\":1879:1900   */\n      swap4\n      pop\n        /* \"#utility.yul\":1929:1933   */\n      0x20\n        /* \"#utility.yul\":1924:1927   */\n      dup4\n        /* \"#utility.yul\":1920:1934   */\n      add\n        /* \"#utility.yul\":1913:1934   */\n      swap3\n      pop\n        /* \"#utility.yul\":1768:1944   */\n      pop\n        /* \"#utility.yul\":1755:1756   */\n      0x01\n        /* \"#utility.yul\":1752:1753   */\n      dup2\n        /* \"#utility.yul\":1748:1757   */\n      add\n        /* \"#utility.yul\":1743:1757   */\n      swap1\n      pop\n        /* \"#utility.yul\":1708:1944   */\n      jump(tag_282)\n    tag_284:\n        /* \"#utility.yul\":1712:1726   */\n      pop\n        /* \"#utility.yul\":1430:1950   */\n      pop\n      pop\n      swap4\n      swap3\n      pop\n      pop\n      pop\n      jump\t// out\n        /* \"#utility.yul\":1973:2617   */\n    tag_287:\n      0x00\n        /* \"#utility.yul\":2105:2185   */\n      tag_289\n        /* \"#utility.yul\":2120:2184   */\n      tag_290\n        /* \"#utility.yul\":2177:2183   */\n      dup5\n        /* \"#utility.yul\":2120:2184   */\n      tag_280\n      jump\t// in\n    tag_290:\n        /* \"#utility.yul\":2105:2185   */\n      tag_259\n      jump\t// in\n    tag_289:\n        /* \"#utility.yul\":2096:2185   */\n      swap1\n      pop\n        /* \"#utility.yul\":2205:2210   */\n      dup1\n        /* \"#utility.yul\":2233:2239   */\n      dup4\n        /* \"#utility.yul\":2226:2231   */\n      dup3\n        /* \"#utility.yul\":2219:2240   */\n      mstore\n        /* \"#utility.yul\":2259:2263   */\n      0x20\n        /* \"#utility.yul\":2252:2257   */\n      dup3\n        /* \"#utility.yul\":2248:2264   */\n      add\n        /* \"#utility.yul\":2241:2264   */\n      swap1\n      pop\n        /* \"#utility.yul\":2284:2290   */\n      dup3\n        /* \"#utility.yul\":2334:2337   */\n      dup6\n        /* \"#utility.yul\":2326:2330   */\n      0x20\n        /* \"#utility.yul\":2318:2324   */\n      dup7\n        /* \"#utility.yul\":2314:2331   */\n      mul\n        /* \"#utility.yul\":2309:2312   */\n      dup3\n        /* \"#utility.yul\":2305:2332   */\n      add\n        /* \"#utility.yul\":2302:2338   */\n      gt\n        /* \"#utility.yul\":2299:2301   */\n      iszero\n      tag_291\n      jumpi\n        /* \"#utility.yul\":2351:2352   */\n      0x00\n        /* \"#utility.yul\":2348:2349   */\n      dup1\n        /* \"#utility.yul\":2341:2353   */\n      revert\n        /* \"#utility.yul\":2299:2301   */\n    tag_291:\n        /* \"#utility.yul\":2379:2380   */\n      0x00\n        /* \"#utility.yul\":2364:2611   */\n    tag_292:\n        /* \"#utility.yul\":2389:2395   */\n      dup6\n        /* \"#utility.yul\":2386:2387   */\n      dup2\n        /* \"#utility.yul\":2383:2396   */\n      lt\n        /* \"#utility.yul\":2364:2611   */\n      iszero\n      tag_294\n      jumpi\n        /* \"#utility.yul\":2456:2459   */\n      dup2\n        /* \"#utility.yul\":2484:2532   */\n      tag_295\n        /* \"#utility.yul\":2528:2531   */\n      dup9\n        /* \"#utility.yul\":2516:2526   */\n      dup3\n        /* \"#utility.yul\":2484:2532   */\n      tag_296\n      jump\t// in\n    tag_295:\n        /* \"#utility.yul\":2479:2482   */\n      dup5\n        /* \"#utility.yul\":2472:2533   */\n      mstore\n        /* \"#utility.yul\":2562:2566   */\n      0x20\n        /* \"#utility.yul\":2557:2560   */\n      dup5\n        /* \"#utility.yul\":2553:2567   */\n      add\n        /* \"#utility.yul\":2546:2567   */\n      swap4\n      pop\n        /* \"#utility.yul\":2596:2600   */\n      0x20\n        /* \"#utility.yul\":2591:2594   */\n      dup4\n        /* \"#utility.yul\":2587:2601   */\n      add\n        /* \"#utility.yul\":2580:2601   */\n      swap3\n      pop\n        /* \"#utility.yul\":2424:2611   */\n      pop\n        /* \"#utility.yul\":2411:2412   */\n      0x01\n        /* \"#utility.yul\":2408:2409   */\n      dup2\n        /* \"#utility.yul\":2404:2413   */\n      add\n        /* \"#utility.yul\":2399:2413   */\n      swap1\n      pop\n        /* \"#utility.yul\":2364:2611   */\n      jump(tag_292)\n    tag_294:\n        /* \"#utility.yul\":2368:2382   */\n      pop\n        /* \"#utility.yul\":2086:2617   */\n      pop\n      pop\n      swap4\n      swap3\n      pop\n      pop\n      pop\n      jump\t// out\n        /* \"#utility.yul\":2623:2967   */\n    tag_297:\n      0x00\n        /* \"#utility.yul\":2726:2791   */\n      tag_299\n        /* \"#utility.yul\":2741:2790   */\n      tag_300\n        /* \"#utility.yul\":2783:2789   */\n      dup5\n        /* \"#utility.yul\":2741:2790   */\n      tag_301\n      jump\t// in\n    tag_300:\n        /* \"#utility.yul\":2726:2791   */\n      tag_259\n      jump\t// in\n    tag_299:\n        /* \"#utility.yul\":2717:2791   */\n      swap1\n      pop\n        /* \"#utility.yul\":2814:2820   */\n      dup3\n        /* \"#utility.yul\":2807:2812   */\n      dup2\n        /* \"#utility.yul\":2800:2821   */\n      mstore\n        /* \"#utility.yul\":2852:2856   */\n      0x20\n        /* \"#utility.yul\":2845:2850   */\n      dup2\n        /* \"#utility.yul\":2841:2857   */\n      add\n        /* \"#utility.yul\":2890:2893   */\n      dup5\n        /* \"#utility.yul\":2881:2887   */\n      dup5\n        /* \"#utility.yul\":2876:2879   */\n      dup5\n        /* \"#utility.yul\":2872:2888   */\n      add\n        /* \"#utility.yul\":2869:2894   */\n      gt\n        /* \"#utility.yul\":2866:2868   */\n      iszero\n      tag_302\n      jumpi\n        /* \"#utility.yul\":2907:2908   */\n      0x00\n        /* \"#utility.yul\":2904:2905   */\n      dup1\n        /* \"#utility.yul\":2897:2909   */\n      revert\n        /* \"#utility.yul\":2866:2868   */\n    tag_302:\n        /* \"#utility.yul\":2920:2961   */\n      tag_303\n        /* \"#utility.yul\":2954:2960   */\n      dup5\n        /* \"#utility.yul\":2949:2952   */\n      dup3\n        /* \"#utility.yul\":2944:2947   */\n      dup6\n        /* \"#utility.yul\":2920:2961   */\n      tag_304\n      jump\t// in\n    tag_303:\n        /* \"#utility.yul\":2707:2967   */\n      pop\n      swap4\n      swap3\n      pop\n      pop\n      pop\n      jump\t// out\n        /* \"#utility.yul\":2973:3326   */\n    tag_305:\n      0x00\n        /* \"#utility.yul\":3087:3152   */\n      tag_307\n        /* \"#utility.yul\":3102:3151   */\n      tag_308\n        /* \"#utility.yul\":3144:3150   */\n      dup5\n        /* \"#utility.yul\":3102:3151   */\n      tag_301\n      jump\t// in\n    tag_308:\n        /* \"#utility.yul\":3087:3152   */\n      tag_259\n      jump\t// in\n    tag_307:\n        /* \"#utility.yul\":3078:3152   */\n      swap1\n      pop\n        /* \"#utility.yul\":3175:3181   */\n      dup3\n        /* \"#utility.yul\":3168:3173   */\n      dup2\n        /* \"#utility.yul\":3161:3182   */\n      mstore\n        /* \"#utility.yul\":3213:3217   */\n      0x20\n        /* \"#utility.yul\":3206:3211   */\n      dup2\n        /* \"#utility.yul\":3202:3218   */\n      add\n        /* \"#utility.yul\":3251:3254   */\n      dup5\n        /* \"#utility.yul\":3242:3248   */\n      dup5\n        /* \"#utility.yul\":3237:3240   */\n      dup5\n        /* \"#utility.yul\":3233:3249   */\n      add\n        /* \"#utility.yul\":3230:3255   */\n      gt\n        /* \"#utility.yul\":3227:3229   */\n      iszero\n      tag_309\n      jumpi\n        /* \"#utility.yul\":3268:3269   */\n      0x00\n        /* \"#utility.yul\":3265:3266   */\n      dup1\n        /* \"#utility.yul\":3258:3270   */\n      revert\n        /* \"#utility.yul\":3227:3229   */\n    tag_309:\n        /* \"#utility.yul\":3281:3320   */\n      tag_310\n        /* \"#utility.yul\":3313:3319   */\n      dup5\n        /* \"#utility.yul\":3308:3311   */\n      dup3\n        /* \"#utility.yul\":3303:3306   */\n      dup6\n        /* \"#utility.yul\":3281:3320   */\n      tag_311\n      jump\t// in\n    tag_310:\n        /* \"#utility.yul\":3068:3326   */\n      pop\n      swap4\n      swap3\n      pop\n      pop\n      pop\n      jump\t// out\n        /* \"#utility.yul\":3332:3471   */\n    tag_312:\n      0x00\n        /* \"#utility.yul\":3416:3422   */\n      dup2\n        /* \"#utility.yul\":3403:3423   */\n      calldataload\n        /* \"#utility.yul\":3394:3423   */\n      swap1\n      pop\n        /* \"#utility.yul\":3432:3465   */\n      tag_314\n        /* \"#utility.yul\":3459:3464   */\n      dup2\n        /* \"#utility.yul\":3432:3465   */\n      tag_315\n      jump\t// in\n    tag_314:\n        /* \"#utility.yul\":3384:3471   */\n      swap3\n      swap2\n      pop\n      pop\n      jump\t// out\n        /* \"#utility.yul\":3477:3620   */\n    tag_316:\n      0x00\n        /* \"#utility.yul\":3565:3571   */\n      dup2\n        /* \"#utility.yul\":3559:3572   */\n      mload\n        /* \"#utility.yul\":3550:3572   */\n      swap1\n      pop\n        /* \"#utility.yul\":3581:3614   */\n      tag_318\n        /* \"#utility.yul\":3608:3613   */\n      dup2\n        /* \"#utility.yul\":3581:3614   */\n      tag_315\n      jump\t// in\n    tag_318:\n        /* \"#utility.yul\":3540:3620   */\n      swap3\n      swap2\n      pop\n      pop\n      jump\t// out\n        /* \"#utility.yul\":3642:3943   */\n    tag_319:\n      0x00\n        /* \"#utility.yul\":3761:3764   */\n      dup3\n        /* \"#utility.yul\":3754:3758   */\n      0x1f\n        /* \"#utility.yul\":3746:3752   */\n      dup4\n        /* \"#utility.yul\":3742:3759   */\n      add\n        /* \"#utility.yul\":3738:3765   */\n      slt\n        /* \"#utility.yul\":3728:3730   */\n      tag_321\n      jumpi\n        /* \"#utility.yul\":3779:3780   */\n      0x00\n        /* \"#utility.yul\":3776:3777   */\n      dup1\n        /* \"#utility.yul\":3769:3781   */\n      revert\n        /* \"#utility.yul\":3728:3730   */\n    tag_321:\n        /* \"#utility.yul\":3819:3825   */\n      dup2\n        /* \"#utility.yul\":3806:3826   */\n      calldataload\n        /* \"#utility.yul\":3844:3937   */\n      tag_322\n        /* \"#utility.yul\":3933:3936   */\n      dup5\n        /* \"#utility.yul\":3925:3931   */\n      dup3\n        /* \"#utility.yul\":3918:3922   */\n      0x20\n        /* \"#utility.yul\":3910:3916   */\n      dup7\n        /* \"#utility.yul\":3906:3923   */\n      add\n        /* \"#utility.yul\":3844:3937   */\n      tag_254\n      jump\t// in\n    tag_322:\n        /* \"#utility.yul\":3835:3937   */\n      swap2\n      pop\n        /* \"#utility.yul\":3718:3943   */\n      pop\n      swap3\n      swap2\n      pop\n      pop\n      jump\t// out\n        /* \"#utility.yul\":3965:4281   */\n    tag_323:\n      0x00\n        /* \"#utility.yul\":4095:4098   */\n      dup3\n        /* \"#utility.yul\":4088:4092   */\n      0x1f\n        /* \"#utility.yul\":4080:4086   */\n      dup4\n        /* \"#utility.yul\":4076:4093   */\n      add\n        /* \"#utility.yul\":4072:4099   */\n      slt\n        /* \"#utility.yul\":4062:4064   */\n      tag_325\n      jumpi\n        /* \"#utility.yul\":4113:4114   */\n      0x00\n        /* \"#utility.yul\":4110:4111   */\n      dup1\n        /* \"#utility.yul\":4103:4115   */\n      revert\n        /* \"#utility.yul\":4062:4064   */\n    tag_325:\n        /* \"#utility.yul\":4146:4152   */\n      dup2\n        /* \"#utility.yul\":4140:4153   */\n      mload\n        /* \"#utility.yul\":4171:4275   */\n      tag_326\n        /* \"#utility.yul\":4271:4274   */\n      dup5\n        /* \"#utility.yul\":4263:4269   */\n      dup3\n        /* \"#utility.yul\":4256:4260   */\n      0x20\n        /* \"#utility.yul\":4248:4254   */\n      dup7\n        /* \"#utility.yul\":4244:4261   */\n      add\n        /* \"#utility.yul\":4171:4275   */\n      tag_266\n      jump\t// in\n    tag_326:\n        /* \"#utility.yul\":4162:4275   */\n      swap2\n      pop\n        /* \"#utility.yul\":4052:4281   */\n      pop\n      swap3\n      swap2\n      pop\n      pop\n      jump\t// out\n        /* \"#utility.yul\":4304:4607   */\n    tag_327:\n      0x00\n        /* \"#utility.yul\":4424:4427   */\n      dup3\n        /* \"#utility.yul\":4417:4421   */\n      0x1f\n        /* \"#utility.yul\":4409:4415   */\n      dup4\n        /* \"#utility.yul\":4405:4422   */\n      add\n        /* \"#utility.yul\":4401:4428   */\n      slt\n        /* \"#utility.yul\":4391:4393   */\n      tag_329\n      jumpi\n        /* \"#utility.yul\":4442:4443   */\n      0x00\n        /* \"#utility.yul\":4439:4440   */\n      dup1\n        /* \"#utility.yul\":4432:4444   */\n      revert\n        /* \"#utility.yul\":4391:4393   */\n    tag_329:\n        /* \"#utility.yul\":4482:4488   */\n      dup2\n        /* \"#utility.yul\":4469:4489   */\n      calldataload\n        /* \"#utility.yul\":4507:4601   */\n      tag_330\n        /* \"#utility.yul\":4597:4600   */\n      dup5\n        /* \"#utility.yul\":4589:4595   */\n      dup3\n        /* \"#utility.yul\":4582:4586   */\n      0x20\n        /* \"#utility.yul\":4574:4580   */\n      dup7\n        /* \"#utility.yul\":4570:4587   */\n      add\n        /* \"#utility.yul\":4507:4601   */\n      tag_276\n      jump\t// in\n    tag_330:\n        /* \"#utility.yul\":4498:4601   */\n      swap2\n      pop\n        /* \"#utility.yul\":4381:4607   */\n      pop\n      swap3\n      swap2\n      pop\n      pop\n      jump\t// out\n        /* \"#utility.yul\":4630:4948   */\n    tag_331:\n      0x00\n        /* \"#utility.yul\":4761:4764   */\n      dup3\n        /* \"#utility.yul\":4754:4758   */\n      0x1f\n        /* \"#utility.yul\":4746:4752   */\n      dup4\n        /* \"#utility.yul\":4742:4759   */\n      add\n        /* \"#utility.yul\":4738:4765   */\n      slt\n        /* \"#utility.yul\":4728:4730   */\n      tag_333\n      jumpi\n        /* \"#utility.yul\":4779:4780   */\n      0x00\n        /* \"#utility.yul\":4776:4777   */\n      dup1\n        /* \"#utility.yul\":4769:4781   */\n      revert\n        /* \"#utility.yul\":4728:4730   */\n    tag_333:\n        /* \"#utility.yul\":4812:4818   */\n      dup2\n        /* \"#utility.yul\":4806:4819   */\n      mload\n        /* \"#utility.yul\":4837:4942   */\n      tag_334\n        /* \"#utility.yul\":4938:4941   */\n      dup5\n        /* \"#utility.yul\":4930:4936   */\n      dup3\n        /* \"#utility.yul\":4923:4927   */\n      0x20\n        /* \"#utility.yul\":4915:4921   */\n      dup7\n        /* \"#utility.yul\":4911:4928   */\n      add\n        /* \"#utility.yul\":4837:4942   */\n      tag_287\n      jump\t// in\n    tag_334:\n        /* \"#utility.yul\":4828:4942   */\n      swap2\n      pop\n        /* \"#utility.yul\":4718:4948   */\n      pop\n      swap3\n      swap2\n      pop\n      pop\n      jump\t// out\n        /* \"#utility.yul\":4954:5087   */\n    tag_335:\n      0x00\n        /* \"#utility.yul\":5035:5041   */\n      dup2\n        /* \"#utility.yul\":5022:5042   */\n      calldataload\n        /* \"#utility.yul\":5013:5042   */\n      swap1\n      pop\n        /* \"#utility.yul\":5051:5081   */\n      tag_337\n        /* \"#utility.yul\":5075:5080   */\n      dup2\n        /* \"#utility.yul\":5051:5081   */\n      tag_338\n      jump\t// in\n    tag_337:\n        /* \"#utility.yul\":5003:5087   */\n      swap3\n      swap2\n      pop\n      pop\n      jump\t// out\n        /* \"#utility.yul\":5093:5230   */\n    tag_339:\n      0x00\n        /* \"#utility.yul\":5178:5184   */\n      dup2\n        /* \"#utility.yul\":5172:5185   */\n      mload\n        /* \"#utility.yul\":5163:5185   */\n      swap1\n      pop\n        /* \"#utility.yul\":5194:5224   */\n      tag_341\n        /* \"#utility.yul\":5218:5223   */\n      dup2\n        /* \"#utility.yul\":5194:5224   */\n      tag_338\n      jump\t// in\n    tag_341:\n        /* \"#utility.yul\":5153:5230   */\n      swap3\n      swap2\n      pop\n      pop\n      jump\t// out\n        /* \"#utility.yul\":5236:5407   */\n    tag_342:\n      0x00\n        /* \"#utility.yul\":5336:5342   */\n      dup2\n        /* \"#utility.yul\":5323:5343   */\n      calldataload\n        /* \"#utility.yul\":5314:5343   */\n      swap1\n      pop\n        /* \"#utility.yul\":5352:5401   */\n      tag_344\n        /* \"#utility.yul\":5395:5400   */\n      dup2\n        /* \"#utility.yul\":5352:5401   */\n      tag_345\n      jump\t// in\n    tag_344:\n        /* \"#utility.yul\":5304:5407   */\n      swap3\n      swap2\n      pop\n      pop\n      jump\t// out\n        /* \"#utility.yul\":5413:5588   */\n    tag_346:\n      0x00\n        /* \"#utility.yul\":5517:5523   */\n      dup2\n        /* \"#utility.yul\":5511:5524   */\n      mload\n        /* \"#utility.yul\":5502:5524   */\n      swap1\n      pop\n        /* \"#utility.yul\":5533:5582   */\n      tag_348\n        /* \"#utility.yul\":5576:5581   */\n      dup2\n        /* \"#utility.yul\":5533:5582   */\n      tag_345\n      jump\t// in\n    tag_348:\n        /* \"#utility.yul\":5492:5588   */\n      swap3\n      swap2\n      pop\n      pop\n      jump\t// out\n        /* \"#utility.yul\":5594:5763   */\n    tag_349:\n      0x00\n        /* \"#utility.yul\":5693:5699   */\n      dup2\n        /* \"#utility.yul\":5680:5700   */\n      calldataload\n        /* \"#utility.yul\":5671:5700   */\n      swap1\n      pop\n        /* \"#utility.yul\":5709:5757   */\n      tag_351\n        /* \"#utility.yul\":5751:5756   */\n      dup2\n        /* \"#utility.yul\":5709:5757   */\n      tag_352\n      jump\t// in\n    tag_351:\n        /* \"#utility.yul\":5661:5763   */\n      swap3\n      swap2\n      pop\n      pop\n      jump\t// out\n        /* \"#utility.yul\":5769:5942   */\n    tag_353:\n      0x00\n        /* \"#utility.yul\":5872:5878   */\n      dup2\n        /* \"#utility.yul\":5866:5879   */\n      mload\n        /* \"#utility.yul\":5857:5879   */\n      swap1\n      pop\n        /* \"#utility.yul\":5888:5936   */\n      tag_355\n        /* \"#utility.yul\":5930:5935   */\n      dup2\n        /* \"#utility.yul\":5888:5936   */\n      tag_352\n      jump\t// in\n    tag_355:\n        /* \"#utility.yul\":5847:5942   */\n      swap3\n      swap2\n      pop\n      pop\n      jump\t// out\n        /* \"#utility.yul\":5948:6111   */\n    tag_356:\n      0x00\n        /* \"#utility.yul\":6044:6050   */\n      dup2\n        /* \"#utility.yul\":6031:6051   */\n      calldataload\n        /* \"#utility.yul\":6022:6051   */\n      swap1\n      pop\n        /* \"#utility.yul\":6060:6105   */\n      tag_358\n        /* \"#utility.yul\":6099:6104   */\n      dup2\n        /* \"#utility.yul\":6060:6105   */\n      tag_359\n      jump\t// in\n    tag_358:\n        /* \"#utility.yul\":6012:6111   */\n      swap3\n      swap2\n      pop\n      pop\n      jump\t// out\n        /* \"#utility.yul\":6117:6284   */\n    tag_360:\n      0x00\n        /* \"#utility.yul\":6217:6223   */\n      dup2\n        /* \"#utility.yul\":6211:6224   */\n      mload\n        /* \"#utility.yul\":6202:6224   */\n      swap1\n      pop\n        /* \"#utility.yul\":6233:6278   */\n      tag_362\n        /* \"#utility.yul\":6272:6277   */\n      dup2\n        /* \"#utility.yul\":6233:6278   */\n      tag_359\n      jump\t// in\n    tag_362:\n        /* \"#utility.yul\":6192:6284   */\n      swap3\n      swap2\n      pop\n      pop\n      jump\t// out\n        /* \"#utility.yul\":6290:6427   */\n    tag_265:\n      0x00\n        /* \"#utility.yul\":6373:6379   */\n      dup2\n        /* \"#utility.yul\":6360:6380   */\n      calldataload\n        /* \"#utility.yul\":6351:6380   */\n      swap1\n      pop\n        /* \"#utility.yul\":6389:6421   */\n      tag_364\n        /* \"#utility.yul\":6415:6420   */\n      dup2\n        /* \"#utility.yul\":6389:6421   */\n      tag_365\n      jump\t// in\n    tag_364:\n        /* \"#utility.yul\":6341:6427   */\n      swap3\n      swap2\n      pop\n      pop\n      jump\t// out\n        /* \"#utility.yul\":6433:6574   */\n    tag_275:\n      0x00\n        /* \"#utility.yul\":6520:6526   */\n      dup2\n        /* \"#utility.yul\":6514:6527   */\n      mload\n        /* \"#utility.yul\":6505:6527   */\n      swap1\n      pop\n        /* \"#utility.yul\":6536:6568   */\n      tag_367\n        /* \"#utility.yul\":6562:6567   */\n      dup2\n        /* \"#utility.yul\":6536:6568   */\n      tag_365\n      jump\t// in\n    tag_367:\n        /* \"#utility.yul\":6495:6574   */\n      swap3\n      swap2\n      pop\n      pop\n      jump\t// out\n        /* \"#utility.yul\":6594:6946   */\n    tag_368:\n      0x00\n      dup1\n        /* \"#utility.yul\":6712:6715   */\n      dup4\n        /* \"#utility.yul\":6705:6709   */\n      0x1f\n        /* \"#utility.yul\":6697:6703   */\n      dup5\n        /* \"#utility.yul\":6693:6710   */\n      add\n        /* \"#utility.yul\":6689:6716   */\n      slt\n        /* \"#utility.yul\":6679:6681   */\n      tag_370\n      jumpi\n        /* \"#utility.yul\":6730:6731   */\n      0x00\n        /* \"#utility.yul\":6727:6728   */\n      dup1\n        /* \"#utility.yul\":6720:6732   */\n      revert\n        /* \"#utility.yul\":6679:6681   */\n    tag_370:\n        /* \"#utility.yul\":6766:6772   */\n      dup3\n        /* \"#utility.yul\":6753:6773   */\n      calldataload\n        /* \"#utility.yul\":6743:6773   */\n      swap1\n      pop\n        /* \"#utility.yul\":6796:6814   */\n      0xffffffffffffffff\n        /* \"#utility.yul\":6788:6794   */\n      dup2\n        /* \"#utility.yul\":6785:6815   */\n      gt\n        /* \"#utility.yul\":6782:6784   */\n      iszero\n      tag_371\n      jumpi\n        /* \"#utility.yul\":6828:6829   */\n      0x00\n        /* \"#utility.yul\":6825:6826   */\n      dup1\n        /* \"#utility.yul\":6818:6830   */\n      revert\n        /* \"#utility.yul\":6782:6784   */\n    tag_371:\n        /* \"#utility.yul\":6865:6869   */\n      0x20\n        /* \"#utility.yul\":6857:6863   */\n      dup4\n        /* \"#utility.yul\":6853:6870   */\n      add\n        /* \"#utility.yul\":6841:6870   */\n      swap2\n      pop\n        /* \"#utility.yul\":6919:6922   */\n      dup4\n        /* \"#utility.yul\":6911:6915   */\n      0x01\n        /* \"#utility.yul\":6903:6909   */\n      dup3\n        /* \"#utility.yul\":6899:6916   */\n      mul\n        /* \"#utility.yul\":6889:6897   */\n      dup4\n        /* \"#utility.yul\":6885:6917   */\n      add\n        /* \"#utility.yul\":6882:6923   */\n      gt\n        /* \"#utility.yul\":6879:6881   */\n      iszero\n      tag_372\n      jumpi\n        /* \"#utility.yul\":6936:6937   */\n      0x00\n        /* \"#utility.yul\":6933:6934   */\n      dup1\n        /* \"#utility.yul\":6926:6938   */\n      revert\n        /* \"#utility.yul\":6879:6881   */\n    tag_372:\n        /* \"#utility.yul\":6669:6946   */\n      swap3\n      pop\n      swap3\n      swap1\n      pop\n      jump\t// out\n        /* \"#utility.yul\":6966:7239   */\n    tag_373:\n      0x00\n        /* \"#utility.yul\":7071:7074   */\n      dup3\n        /* \"#utility.yul\":7064:7068   */\n      0x1f\n        /* \"#utility.yul\":7056:7062   */\n      dup4\n        /* \"#utility.yul\":7052:7069   */\n      add\n        /* \"#utility.yul\":7048:7075   */\n      slt\n        /* \"#utility.yul\":7038:7040   */\n      tag_375\n      jumpi\n        /* \"#utility.yul\":7089:7090   */\n      0x00\n        /* \"#utility.yul\":7086:7087   */\n      dup1\n        /* \"#utility.yul\":7079:7091   */\n      revert\n        /* \"#utility.yul\":7038:7040   */\n    tag_375:\n        /* \"#utility.yul\":7129:7135   */\n      dup2\n        /* \"#utility.yul\":7116:7136   */\n      calldataload\n        /* \"#utility.yul\":7154:7233   */\n      tag_376\n        /* \"#utility.yul\":7229:7232   */\n      dup5\n        /* \"#utility.yul\":7221:7227   */\n      dup3\n        /* \"#utility.yul\":7214:7218   */\n      0x20\n        /* \"#utility.yul\":7206:7212   */\n      dup7\n        /* \"#utility.yul\":7202:7219   */\n      add\n        /* \"#utility.yul\":7154:7233   */\n      tag_297\n      jump\t// in\n    tag_376:\n        /* \"#utility.yul\":7145:7233   */\n      swap2\n      pop\n        /* \"#utility.yul\":7028:7239   */\n      pop\n      swap3\n      swap2\n      pop\n      pop\n      jump\t// out\n        /* \"#utility.yul\":7259:7547   */\n    tag_377:\n      0x00\n        /* \"#utility.yul\":7375:7378   */\n      dup3\n        /* \"#utility.yul\":7368:7372   */\n      0x1f\n        /* \"#utility.yul\":7360:7366   */\n      dup4\n        /* \"#utility.yul\":7356:7373   */\n      add\n        /* \"#utility.yul\":7352:7379   */\n      slt\n        /* \"#utility.yul\":7342:7344   */\n      tag_379\n      jumpi\n        /* \"#utility.yul\":7393:7394   */\n      0x00\n        /* \"#utility.yul\":7390:7391   */\n      dup1\n        /* \"#utility.yul\":7383:7395   */\n      revert\n        /* \"#utility.yul\":7342:7344   */\n    tag_379:\n        /* \"#utility.yul\":7426:7432   */\n      dup2\n        /* \"#utility.yul\":7420:7433   */\n      mload\n        /* \"#utility.yul\":7451:7541   */\n      tag_380\n        /* \"#utility.yul\":7537:7540   */\n      dup5\n        /* \"#utility.yul\":7529:7535   */\n      dup3\n        /* \"#utility.yul\":7522:7526   */\n      0x20\n        /* \"#utility.yul\":7514:7520   */\n      dup7\n        /* \"#utility.yul\":7510:7527   */\n      add\n        /* \"#utility.yul\":7451:7541   */\n      tag_305\n      jump\t// in\n    tag_380:\n        /* \"#utility.yul\":7442:7541   */\n      swap2\n      pop\n        /* \"#utility.yul\":7332:7547   */\n      pop\n      swap3\n      swap2\n      pop\n      pop\n      jump\t// out\n        /* \"#utility.yul\":7587:8222   */\n    tag_381:\n      0x00\n        /* \"#utility.yul\":7714:7718   */\n      0x40\n        /* \"#utility.yul\":7702:7711   */\n      dup3\n        /* \"#utility.yul\":7697:7700   */\n      dup5\n        /* \"#utility.yul\":7693:7712   */\n      sub\n        /* \"#utility.yul\":7689:7719   */\n      slt\n        /* \"#utility.yul\":7686:7688   */\n      iszero\n      tag_383\n      jumpi\n        /* \"#utility.yul\":7732:7733   */\n      0x00\n        /* \"#utility.yul\":7729:7730   */\n      dup1\n        /* \"#utility.yul\":7722:7734   */\n      revert\n        /* \"#utility.yul\":7686:7688   */\n    tag_383:\n        /* \"#utility.yul\":7754:7774   */\n      tag_384\n        /* \"#utility.yul\":7769:7773   */\n      0x40\n        /* \"#utility.yul\":7754:7774   */\n      tag_259\n      jump\t// in\n    tag_384:\n        /* \"#utility.yul\":7745:7774   */\n      swap1\n      pop\n        /* \"#utility.yul\":7831:7832   */\n      0x00\n        /* \"#utility.yul\":7871:7931   */\n      tag_385\n        /* \"#utility.yul\":7927:7930   */\n      dup5\n        /* \"#utility.yul\":7918:7924   */\n      dup3\n        /* \"#utility.yul\":7907:7916   */\n      dup6\n        /* \"#utility.yul\":7903:7925   */\n      add\n        /* \"#utility.yul\":7871:7931   */\n      tag_296\n      jump\t// in\n    tag_385:\n        /* \"#utility.yul\":7864:7868   */\n      0x00\n        /* \"#utility.yul\":7857:7862   */\n      dup4\n        /* \"#utility.yul\":7853:7869   */\n      add\n        /* \"#utility.yul\":7846:7932   */\n      mstore\n        /* \"#utility.yul\":7784:7943   */\n      pop\n        /* \"#utility.yul\":8027:8029   */\n      0x20\n        /* \"#utility.yul\":8016:8025   */\n      dup3\n        /* \"#utility.yul\":8012:8030   */\n      add\n        /* \"#utility.yul\":8006:8031   */\n      mload\n        /* \"#utility.yul\":8058:8076   */\n      0xffffffffffffffff\n        /* \"#utility.yul\":8050:8056   */\n      dup2\n        /* \"#utility.yul\":8047:8077   */\n      gt\n        /* \"#utility.yul\":8044:8046   */\n      iszero\n      tag_386\n      jumpi\n        /* \"#utility.yul\":8090:8091   */\n      0x00\n        /* \"#utility.yul\":8087:8088   */\n      dup1\n        /* \"#utility.yul\":8080:8092   */\n      revert\n        /* \"#utility.yul\":8044:8046   */\n    tag_386:\n        /* \"#utility.yul\":8133:8203   */\n      tag_387\n        /* \"#utility.yul\":8199:8202   */\n      dup5\n        /* \"#utility.yul\":8190:8196   */\n      dup3\n        /* \"#utility.yul\":8179:8188   */\n      dup6\n        /* \"#utility.yul\":8175:8197   */\n      add\n        /* \"#utility.yul\":8133:8203   */\n      tag_377\n      jump\t// in\n    tag_387:\n        /* \"#utility.yul\":8126:8130   */\n      0x20\n        /* \"#utility.yul\":8119:8124   */\n      dup4\n        /* \"#utility.yul\":8115:8131   */\n      add\n        /* \"#utility.yul\":8108:8204   */\n      mstore\n        /* \"#utility.yul\":7953:8215   */\n      pop\n        /* \"#utility.yul\":7676:8222   */\n      swap3\n      swap2\n      pop\n      pop\n      jump\t// out\n        /* \"#utility.yul\":8268:10311   */\n    tag_388:\n      0x00\n        /* \"#utility.yul\":8386:8392   */\n      0x0120\n        /* \"#utility.yul\":8374:8383   */\n      dup3\n        /* \"#utility.yul\":8369:8372   */\n      dup5\n        /* \"#utility.yul\":8365:8384   */\n      sub\n        /* \"#utility.yul\":8361:8393   */\n      slt\n        /* \"#utility.yul\":8358:8360   */\n      iszero\n      tag_390\n      jumpi\n        /* \"#utility.yul\":8406:8407   */\n      0x00\n        /* \"#utility.yul\":8403:8404   */\n      dup1\n        /* \"#utility.yul\":8396:8408   */\n      revert\n        /* \"#utility.yul\":8358:8360   */\n    tag_390:\n        /* \"#utility.yul\":8428:8450   */\n      tag_391\n        /* \"#utility.yul\":8443:8449   */\n      0x0120\n        /* \"#utility.yul\":8428:8450   */\n      tag_259\n      jump\t// in\n    tag_391:\n        /* \"#utility.yul\":8419:8450   */\n      swap1\n      pop\n        /* \"#utility.yul\":8512:8513   */\n      0x00\n        /* \"#utility.yul\":8552:8601   */\n      tag_392\n        /* \"#utility.yul\":8597:8600   */\n      dup5\n        /* \"#utility.yul\":8588:8594   */\n      dup3\n        /* \"#utility.yul\":8577:8586   */\n      dup6\n        /* \"#utility.yul\":8573:8595   */\n      add\n        /* \"#utility.yul\":8552:8601   */\n      tag_286\n      jump\t// in\n    tag_392:\n        /* \"#utility.yul\":8545:8549   */\n      0x00\n        /* \"#utility.yul\":8538:8543   */\n      dup4\n        /* \"#utility.yul\":8534:8550   */\n      add\n        /* \"#utility.yul\":8527:8602   */\n      mstore\n        /* \"#utility.yul\":8460:8613   */\n      pop\n        /* \"#utility.yul\":8679:8681   */\n      0x20\n        /* \"#utility.yul\":8720:8784   */\n      tag_393\n        /* \"#utility.yul\":8780:8783   */\n      dup5\n        /* \"#utility.yul\":8771:8777   */\n      dup3\n        /* \"#utility.yul\":8760:8769   */\n      dup6\n        /* \"#utility.yul\":8756:8778   */\n      add\n        /* \"#utility.yul\":8720:8784   */\n      tag_349\n      jump\t// in\n    tag_393:\n        /* \"#utility.yul\":8713:8717   */\n      0x20\n        /* \"#utility.yul\":8706:8711   */\n      dup4\n        /* \"#utility.yul\":8702:8718   */\n      add\n        /* \"#utility.yul\":8695:8785   */\n      mstore\n        /* \"#utility.yul\":8623:8796   */\n      pop\n        /* \"#utility.yul\":8856:8858   */\n      0x40\n        /* \"#utility.yul\":8897:8962   */\n      tag_394\n        /* \"#utility.yul\":8958:8961   */\n      dup5\n        /* \"#utility.yul\":8949:8955   */\n      dup3\n        /* \"#utility.yul\":8938:8947   */\n      dup6\n        /* \"#utility.yul\":8934:8956   */\n      add\n        /* \"#utility.yul\":8897:8962   */\n      tag_342\n      jump\t// in\n    tag_394:\n        /* \"#utility.yul\":8890:8894   */\n      0x40\n        /* \"#utility.yul\":8883:8888   */\n      dup4\n        /* \"#utility.yul\":8879:8895   */\n      add\n        /* \"#utility.yul\":8872:8963   */\n      mstore\n        /* \"#utility.yul\":8806:8974   */\n      pop\n        /* \"#utility.yul\":9038:9040   */\n      0x60\n        /* \"#utility.yul\":9079:9125   */\n      tag_395\n        /* \"#utility.yul\":9121:9124   */\n      dup5\n        /* \"#utility.yul\":9112:9118   */\n      dup3\n        /* \"#utility.yul\":9101:9110   */\n      dup6\n        /* \"#utility.yul\":9097:9119   */\n      add\n        /* \"#utility.yul\":9079:9125   */\n      tag_335\n      jump\t// in\n    tag_395:\n        /* \"#utility.yul\":9072:9076   */\n      0x60\n        /* \"#utility.yul\":9065:9070   */\n      dup4\n        /* \"#utility.yul\":9061:9077   */\n      add\n        /* \"#utility.yul\":9054:9126   */\n      mstore\n        /* \"#utility.yul\":8984:9137   */\n      pop\n        /* \"#utility.yul\":9198:9201   */\n      0x80\n        /* \"#utility.yul\":9240:9286   */\n      tag_396\n        /* \"#utility.yul\":9282:9285   */\n      dup5\n        /* \"#utility.yul\":9273:9279   */\n      dup3\n        /* \"#utility.yul\":9262:9271   */\n      dup6\n        /* \"#utility.yul\":9258:9280   */\n      add\n        /* \"#utility.yul\":9240:9286   */\n      tag_335\n      jump\t// in\n    tag_396:\n        /* \"#utility.yul\":9233:9237   */\n      0x80\n        /* \"#utility.yul\":9226:9231   */\n      dup4\n        /* \"#utility.yul\":9222:9238   */\n      add\n        /* \"#utility.yul\":9215:9287   */\n      mstore\n        /* \"#utility.yul\":9147:9298   */\n      pop\n        /* \"#utility.yul\":9361:9364   */\n      0xa0\n        /* \"#utility.yul\":9403:9464   */\n      tag_397\n        /* \"#utility.yul\":9460:9463   */\n      dup5\n        /* \"#utility.yul\":9451:9457   */\n      dup3\n        /* \"#utility.yul\":9440:9449   */\n      dup6\n        /* \"#utility.yul\":9436:9458   */\n      add\n        /* \"#utility.yul\":9403:9464   */\n      tag_356\n      jump\t// in\n    tag_397:\n        /* \"#utility.yul\":9396:9400   */\n      0xa0\n        /* \"#utility.yul\":9389:9394   */\n      dup4\n        /* \"#utility.yul\":9385:9401   */\n      add\n        /* \"#utility.yul\":9378:9465   */\n      mstore\n        /* \"#utility.yul\":9308:9476   */\n      pop\n        /* \"#utility.yul\":9574:9577   */\n      0xc0\n        /* \"#utility.yul\":9563:9572   */\n      dup3\n        /* \"#utility.yul\":9559:9578   */\n      add\n        /* \"#utility.yul\":9546:9579   */\n      calldataload\n        /* \"#utility.yul\":9606:9624   */\n      0xffffffffffffffff\n        /* \"#utility.yul\":9598:9604   */\n      dup2\n        /* \"#utility.yul\":9595:9625   */\n      gt\n        /* \"#utility.yul\":9592:9594   */\n      iszero\n      tag_398\n      jumpi\n        /* \"#utility.yul\":9638:9639   */\n      0x00\n        /* \"#utility.yul\":9635:9636   */\n      dup1\n        /* \"#utility.yul\":9628:9640   */\n      revert\n        /* \"#utility.yul\":9592:9594   */\n    tag_398:\n        /* \"#utility.yul\":9681:9740   */\n      tag_399\n        /* \"#utility.yul\":9736:9739   */\n      dup5\n        /* \"#utility.yul\":9727:9733   */\n      dup3\n        /* \"#utility.yul\":9716:9725   */\n      dup6\n        /* \"#utility.yul\":9712:9734   */\n      add\n        /* \"#utility.yul\":9681:9740   */\n      tag_373\n      jump\t// in\n    tag_399:\n        /* \"#utility.yul\":9674:9678   */\n      0xc0\n        /* \"#utility.yul\":9667:9672   */\n      dup4\n        /* \"#utility.yul\":9663:9679   */\n      add\n        /* \"#utility.yul\":9656:9741   */\n      mstore\n        /* \"#utility.yul\":9486:9752   */\n      pop\n        /* \"#utility.yul\":9842:9845   */\n      0xe0\n        /* \"#utility.yul\":9831:9840   */\n      dup3\n        /* \"#utility.yul\":9827:9846   */\n      add\n        /* \"#utility.yul\":9814:9847   */\n      calldataload\n        /* \"#utility.yul\":9874:9892   */\n      0xffffffffffffffff\n        /* \"#utility.yul\":9866:9872   */\n      dup2\n        /* \"#utility.yul\":9863:9893   */\n      gt\n        /* \"#utility.yul\":9860:9862   */\n      iszero\n      tag_400\n      jumpi\n        /* \"#utility.yul\":9906:9907   */\n      0x00\n        /* \"#utility.yul\":9903:9904   */\n      dup1\n        /* \"#utility.yul\":9896:9908   */\n      revert\n        /* \"#utility.yul\":9860:9862   */\n    tag_400:\n        /* \"#utility.yul\":9949:10008   */\n      tag_401\n        /* \"#utility.yul\":10004:10007   */\n      dup5\n        /* \"#utility.yul\":9995:10001   */\n      dup3\n        /* \"#utility.yul\":9984:9993   */\n      dup6\n        /* \"#utility.yul\":9980:10002   */\n      add\n        /* \"#utility.yul\":9949:10008   */\n      tag_373\n      jump\t// in\n    tag_401:\n        /* \"#utility.yul\":9942:9946   */\n      0xe0\n        /* \"#utility.yul\":9935:9940   */\n      dup4\n        /* \"#utility.yul\":9931:9947   */\n      add\n        /* \"#utility.yul\":9924:10009   */\n      mstore\n        /* \"#utility.yul\":9762:10020   */\n      pop\n        /* \"#utility.yul\":10110:10113   */\n      0x0100\n        /* \"#utility.yul\":10099:10108   */\n      dup3\n        /* \"#utility.yul\":10095:10114   */\n      add\n        /* \"#utility.yul\":10082:10115   */\n      calldataload\n        /* \"#utility.yul\":10142:10160   */\n      0xffffffffffffffff\n        /* \"#utility.yul\":10134:10140   */\n      dup2\n        /* \"#utility.yul\":10131:10161   */\n      gt\n        /* \"#utility.yul\":10128:10130   */\n      iszero\n      tag_402\n      jumpi\n        /* \"#utility.yul\":10174:10175   */\n      0x00\n        /* \"#utility.yul\":10171:10172   */\n      dup1\n        /* \"#utility.yul\":10164:10176   */\n      revert\n        /* \"#utility.yul\":10128:10130   */\n    tag_402:\n        /* \"#utility.yul\":10219:10292   */\n      tag_403\n        /* \"#utility.yul\":10288:10291   */\n      dup5\n        /* \"#utility.yul\":10279:10285   */\n      dup3\n        /* \"#utility.yul\":10268:10277   */\n      dup6\n        /* \"#utility.yul\":10264:10286   */\n      add\n        /* \"#utility.yul\":10219:10292   */\n      tag_319\n      jump\t// in\n    tag_403:\n        /* \"#utility.yul\":10210:10216   */\n      0x0100\n        /* \"#utility.yul\":10203:10208   */\n      dup4\n        /* \"#utility.yul\":10199:10217   */\n      add\n        /* \"#utility.yul\":10192:10293   */\n      mstore\n        /* \"#utility.yul\":10030:10304   */\n      pop\n        /* \"#utility.yul\":8348:10311   */\n      swap3\n      swap2\n      pop\n      pop\n      jump\t// out\n        /* \"#utility.yul\":10357:12489   */\n    tag_404:\n      0x00\n        /* \"#utility.yul\":10486:10492   */\n      0x0120\n        /* \"#utility.yul\":10474:10483   */\n      dup3\n        /* \"#utility.yul\":10469:10472   */\n      dup5\n        /* \"#utility.yul\":10465:10484   */\n      sub\n        /* \"#utility.yul\":10461:10493   */\n      slt\n        /* \"#utility.yul\":10458:10460   */\n      iszero\n      tag_406\n      jumpi\n        /* \"#utility.yul\":10506:10507   */\n      0x00\n        /* \"#utility.yul\":10503:10504   */\n      dup1\n        /* \"#utility.yul\":10496:10508   */\n      revert\n        /* \"#utility.yul\":10458:10460   */\n    tag_406:\n        /* \"#utility.yul\":10528:10550   */\n      tag_407\n        /* \"#utility.yul\":10543:10549   */\n      0x0120\n        /* \"#utility.yul\":10528:10550   */\n      tag_259\n      jump\t// in\n    tag_407:\n        /* \"#utility.yul\":10519:10550   */\n      swap1\n      pop\n        /* \"#utility.yul\":10612:10613   */\n      0x00\n        /* \"#utility.yul\":10652:10712   */\n      tag_408\n        /* \"#utility.yul\":10708:10711   */\n      dup5\n        /* \"#utility.yul\":10699:10705   */\n      dup3\n        /* \"#utility.yul\":10688:10697   */\n      dup6\n        /* \"#utility.yul\":10684:10706   */\n      add\n        /* \"#utility.yul\":10652:10712   */\n      tag_296\n      jump\t// in\n    tag_408:\n        /* \"#utility.yul\":10645:10649   */\n      0x00\n        /* \"#utility.yul\":10638:10643   */\n      dup4\n        /* \"#utility.yul\":10634:10650   */\n      add\n        /* \"#utility.yul\":10627:10713   */\n      mstore\n        /* \"#utility.yul\":10560:10724   */\n      pop\n        /* \"#utility.yul\":10790:10792   */\n      0x20\n        /* \"#utility.yul\":10831:10906   */\n      tag_409\n        /* \"#utility.yul\":10902:10905   */\n      dup5\n        /* \"#utility.yul\":10893:10899   */\n      dup3\n        /* \"#utility.yul\":10882:10891   */\n      dup6\n        /* \"#utility.yul\":10878:10900   */\n      add\n        /* \"#utility.yul\":10831:10906   */\n      tag_353\n      jump\t// in\n    tag_409:\n        /* \"#utility.yul\":10824:10828   */\n      0x20\n        /* \"#utility.yul\":10817:10822   */\n      dup4\n        /* \"#utility.yul\":10813:10829   */\n      add\n        /* \"#utility.yul\":10806:10907   */\n      mstore\n        /* \"#utility.yul\":10734:10918   */\n      pop\n        /* \"#utility.yul\":10978:10980   */\n      0x40\n        /* \"#utility.yul\":11019:11095   */\n      tag_410\n        /* \"#utility.yul\":11091:11094   */\n      dup5\n        /* \"#utility.yul\":11082:11088   */\n      dup3\n        /* \"#utility.yul\":11071:11080   */\n      dup6\n        /* \"#utility.yul\":11067:11089   */\n      add\n        /* \"#utility.yul\":11019:11095   */\n      tag_346\n      jump\t// in\n    tag_410:\n        /* \"#utility.yul\":11012:11016   */\n      0x40\n        /* \"#utility.yul\":11005:11010   */\n      dup4\n        /* \"#utility.yul\":11001:11017   */\n      add\n        /* \"#utility.yul\":10994:11096   */\n      mstore\n        /* \"#utility.yul\":10928:11107   */\n      pop\n        /* \"#utility.yul\":11171:11173   */\n      0x60\n        /* \"#utility.yul\":11212:11269   */\n      tag_411\n        /* \"#utility.yul\":11265:11268   */\n      dup5\n        /* \"#utility.yul\":11256:11262   */\n      dup3\n        /* \"#utility.yul\":11245:11254   */\n      dup6\n        /* \"#utility.yul\":11241:11263   */\n      add\n        /* \"#utility.yul\":11212:11269   */\n      tag_339\n      jump\t// in\n    tag_411:\n        /* \"#utility.yul\":11205:11209   */\n      0x60\n        /* \"#utility.yul\":11198:11203   */\n      dup4\n        /* \"#utility.yul\":11194:11210   */\n      add\n        /* \"#utility.yul\":11187:11270   */\n      mstore\n        /* \"#utility.yul\":11117:11281   */\n      pop\n        /* \"#utility.yul\":11342:11345   */\n      0x80\n        /* \"#utility.yul\":11384:11441   */\n      tag_412\n        /* \"#utility.yul\":11437:11440   */\n      dup5\n        /* \"#utility.yul\":11428:11434   */\n      dup3\n        /* \"#utility.yul\":11417:11426   */\n      dup6\n        /* \"#utility.yul\":11413:11435   */\n      add\n        /* \"#utility.yul\":11384:11441   */\n      tag_339\n      jump\t// in\n    tag_412:\n        /* \"#utility.yul\":11377:11381   */\n      0x80\n        /* \"#utility.yul\":11370:11375   */\n      dup4\n        /* \"#utility.yul\":11366:11382   */\n      add\n        /* \"#utility.yul\":11359:11442   */\n      mstore\n        /* \"#utility.yul\":11291:11453   */\n      pop\n        /* \"#utility.yul\":11516:11519   */\n      0xa0\n        /* \"#utility.yul\":11558:11630   */\n      tag_413\n        /* \"#utility.yul\":11626:11629   */\n      dup5\n        /* \"#utility.yul\":11617:11623   */\n      dup3\n        /* \"#utility.yul\":11606:11615   */\n      dup6\n        /* \"#utility.yul\":11602:11624   */\n      add\n        /* \"#utility.yul\":11558:11630   */\n      tag_360\n      jump\t// in\n    tag_413:\n        /* \"#utility.yul\":11551:11555   */\n      0xa0\n        /* \"#utility.yul\":11544:11549   */\n      dup4\n        /* \"#utility.yul\":11540:11556   */\n      add\n        /* \"#utility.yul\":11533:11631   */\n      mstore\n        /* \"#utility.yul\":11463:11642   */\n      pop\n        /* \"#utility.yul\":11733:11736   */\n      0xc0\n        /* \"#utility.yul\":11722:11731   */\n      dup3\n        /* \"#utility.yul\":11718:11737   */\n      add\n        /* \"#utility.yul\":11712:11738   */\n      mload\n        /* \"#utility.yul\":11765:11783   */\n      0xffffffffffffffff\n        /* \"#utility.yul\":11757:11763   */\n      dup2\n        /* \"#utility.yul\":11754:11784   */\n      gt\n        /* \"#utility.yul\":11751:11753   */\n      iszero\n      tag_414\n      jumpi\n        /* \"#utility.yul\":11797:11798   */\n      0x00\n        /* \"#utility.yul\":11794:11795   */\n      dup1\n        /* \"#utility.yul\":11787:11799   */\n      revert\n        /* \"#utility.yul\":11751:11753   */\n    tag_414:\n        /* \"#utility.yul\":11840:11910   */\n      tag_415\n        /* \"#utility.yul\":11906:11909   */\n      dup5\n        /* \"#utility.yul\":11897:11903   */\n      dup3\n        /* \"#utility.yul\":11886:11895   */\n      dup6\n        /* \"#utility.yul\":11882:11904   */\n      add\n        /* \"#utility.yul\":11840:11910   */\n      tag_377\n      jump\t// in\n    tag_415:\n        /* \"#utility.yul\":11833:11837   */\n      0xc0\n        /* \"#utility.yul\":11826:11831   */\n      dup4\n        /* \"#utility.yul\":11822:11838   */\n      add\n        /* \"#utility.yul\":11815:11911   */\n      mstore\n        /* \"#utility.yul\":11652:11922   */\n      pop\n        /* \"#utility.yul\":12005:12008   */\n      0xe0\n        /* \"#utility.yul\":11994:12003   */\n      dup3\n        /* \"#utility.yul\":11990:12009   */\n      add\n        /* \"#utility.yul\":11984:12010   */\n      mload\n        /* \"#utility.yul\":12037:12055   */\n      0xffffffffffffffff\n        /* \"#utility.yul\":12029:12035   */\n      dup2\n        /* \"#utility.yul\":12026:12056   */\n      gt\n        /* \"#utility.yul\":12023:12025   */\n      iszero\n      tag_416\n      jumpi\n        /* \"#utility.yul\":12069:12070   */\n      0x00\n        /* \"#utility.yul\":12066:12067   */\n      dup1\n        /* \"#utility.yul\":12059:12071   */\n      revert\n        /* \"#utility.yul\":12023:12025   */\n    tag_416:\n        /* \"#utility.yul\":12112:12182   */\n      tag_417\n        /* \"#utility.yul\":12178:12181   */\n      dup5\n        /* \"#utility.yul\":12169:12175   */\n      dup3\n        /* \"#utility.yul\":12158:12167   */\n      dup6\n        /* \"#utility.yul\":12154:12176   */\n      add\n        /* \"#utility.yul\":12112:12182   */\n      tag_377\n      jump\t// in\n    tag_417:\n        /* \"#utility.yul\":12105:12109   */\n      0xe0\n        /* \"#utility.yul\":12098:12103   */\n      dup4\n        /* \"#utility.yul\":12094:12110   */\n      add\n        /* \"#utility.yul\":12087:12183   */\n      mstore\n        /* \"#utility.yul\":11932:12194   */\n      pop\n        /* \"#utility.yul\":12277:12280   */\n      0x0100\n        /* \"#utility.yul\":12266:12275   */\n      dup3\n        /* \"#utility.yul\":12262:12281   */\n      add\n        /* \"#utility.yul\":12256:12282   */\n      mload\n        /* \"#utility.yul\":12309:12327   */\n      0xffffffffffffffff\n        /* \"#utility.yul\":12301:12307   */\n      dup2\n        /* \"#utility.yul\":12298:12328   */\n      gt\n        /* \"#utility.yul\":12295:12297   */\n      iszero\n      tag_418\n      jumpi\n        /* \"#utility.yul\":12341:12342   */\n      0x00\n        /* \"#utility.yul\":12338:12339   */\n      dup1\n        /* \"#utility.yul\":12331:12343   */\n      revert\n        /* \"#utility.yul\":12295:12297   */\n    tag_418:\n        /* \"#utility.yul\":12386:12470   */\n      tag_419\n        /* \"#utility.yul\":12466:12469   */\n      dup5\n        /* \"#utility.yul\":12457:12463   */\n      dup3\n        /* \"#utility.yul\":12446:12455   */\n      dup6\n        /* \"#utility.yul\":12442:12464   */\n      add\n        /* \"#utility.yul\":12386:12470   */\n      tag_323\n      jump\t// in\n    tag_419:\n        /* \"#utility.yul\":12377:12383   */\n      0x0100\n        /* \"#utility.yul\":12370:12375   */\n      dup4\n        /* \"#utility.yul\":12366:12384   */\n      add\n        /* \"#utility.yul\":12359:12471   */\n      mstore\n        /* \"#utility.yul\":12204:12482   */\n      pop\n        /* \"#utility.yul\":10448:12489   */\n      swap3\n      swap2\n      pop\n      pop\n      jump\t// out\n        /* \"#utility.yul\":12527:14422   */\n    tag_420:\n      0x00\n        /* \"#utility.yul\":12652:12656   */\n      0xe0\n        /* \"#utility.yul\":12640:12649   */\n      dup3\n        /* \"#utility.yul\":12635:12638   */\n      dup5\n        /* \"#utility.yul\":12631:12650   */\n      sub\n        /* \"#utility.yul\":12627:12657   */\n      slt\n        /* \"#utility.yul\":12624:12626   */\n      iszero\n      tag_422\n      jumpi\n        /* \"#utility.yul\":12670:12671   */\n      0x00\n        /* \"#utility.yul\":12667:12668   */\n      dup1\n        /* \"#utility.yul\":12660:12672   */\n      revert\n        /* \"#utility.yul\":12624:12626   */\n    tag_422:\n        /* \"#utility.yul\":12692:12712   */\n      tag_423\n        /* \"#utility.yul\":12707:12711   */\n      0xe0\n        /* \"#utility.yul\":12692:12712   */\n      tag_259\n      jump\t// in\n    tag_423:\n        /* \"#utility.yul\":12683:12712   */\n      swap1\n      pop\n        /* \"#utility.yul\":12796:12797   */\n      0x00\n        /* \"#utility.yul\":12785:12794   */\n      dup3\n        /* \"#utility.yul\":12781:12798   */\n      add\n        /* \"#utility.yul\":12775:12799   */\n      mload\n        /* \"#utility.yul\":12826:12844   */\n      0xffffffffffffffff\n        /* \"#utility.yul\":12818:12824   */\n      dup2\n        /* \"#utility.yul\":12815:12845   */\n      gt\n        /* \"#utility.yul\":12812:12814   */\n      iszero\n      tag_424\n      jumpi\n        /* \"#utility.yul\":12858:12859   */\n      0x00\n        /* \"#utility.yul\":12855:12856   */\n      dup1\n        /* \"#utility.yul\":12848:12860   */\n      revert\n        /* \"#utility.yul\":12812:12814   */\n    tag_424:\n        /* \"#utility.yul\":12901:12971   */\n      tag_425\n        /* \"#utility.yul\":12967:12970   */\n      dup5\n        /* \"#utility.yul\":12958:12964   */\n      dup3\n        /* \"#utility.yul\":12947:12956   */\n      dup6\n        /* \"#utility.yul\":12943:12965   */\n      add\n        /* \"#utility.yul\":12901:12971   */\n      tag_377\n      jump\t// in\n    tag_425:\n        /* \"#utility.yul\":12894:12898   */\n      0x00\n        /* \"#utility.yul\":12887:12892   */\n      dup4\n        /* \"#utility.yul\":12883:12899   */\n      add\n        /* \"#utility.yul\":12876:12972   */\n      mstore\n        /* \"#utility.yul\":12722:12983   */\n      pop\n        /* \"#utility.yul\":13050:13052   */\n      0x20\n        /* \"#utility.yul\":13091:13151   */\n      tag_426\n        /* \"#utility.yul\":13147:13150   */\n      dup5\n        /* \"#utility.yul\":13138:13144   */\n      dup3\n        /* \"#utility.yul\":13127:13136   */\n      dup6\n        /* \"#utility.yul\":13123:13145   */\n      add\n        /* \"#utility.yul\":13091:13151   */\n      tag_316\n      jump\t// in\n    tag_426:\n        /* \"#utility.yul\":13084:13088   */\n      0x20\n        /* \"#utility.yul\":13077:13082   */\n      dup4\n        /* \"#utility.yul\":13073:13089   */\n      add\n        /* \"#utility.yul\":13066:13152   */\n      mstore\n        /* \"#utility.yul\":12993:13163   */\n      pop\n        /* \"#utility.yul\":13227:13229   */\n      0x40\n        /* \"#utility.yul\":13268:13325   */\n      tag_427\n        /* \"#utility.yul\":13321:13324   */\n      dup5\n        /* \"#utility.yul\":13312:13318   */\n      dup3\n        /* \"#utility.yul\":13301:13310   */\n      dup6\n        /* \"#utility.yul\":13297:13319   */\n      add\n        /* \"#utility.yul\":13268:13325   */\n      tag_339\n      jump\t// in\n    tag_427:\n        /* \"#utility.yul\":13261:13265   */\n      0x40\n        /* \"#utility.yul\":13254:13259   */\n      dup4\n        /* \"#utility.yul\":13250:13266   */\n      add\n        /* \"#utility.yul\":13243:13326   */\n      mstore\n        /* \"#utility.yul\":13173:13337   */\n      pop\n        /* \"#utility.yul\":13416:13418   */\n      0x60\n        /* \"#utility.yul\":13457:13532   */\n      tag_428\n        /* \"#utility.yul\":13528:13531   */\n      dup5\n        /* \"#utility.yul\":13519:13525   */\n      dup3\n        /* \"#utility.yul\":13508:13517   */\n      dup6\n        /* \"#utility.yul\":13504:13526   */\n      add\n        /* \"#utility.yul\":13457:13532   */\n      tag_353\n      jump\t// in\n    tag_428:\n        /* \"#utility.yul\":13450:13454   */\n      0x60\n        /* \"#utility.yul\":13443:13448   */\n      dup4\n        /* \"#utility.yul\":13439:13455   */\n      add\n        /* \"#utility.yul\":13432:13533   */\n      mstore\n        /* \"#utility.yul\":13347:13544   */\n      pop\n        /* \"#utility.yul\":13632:13635   */\n      0x80\n        /* \"#utility.yul\":13621:13630   */\n      dup3\n        /* \"#utility.yul\":13617:13636   */\n      add\n        /* \"#utility.yul\":13611:13637   */\n      mload\n        /* \"#utility.yul\":13664:13682   */\n      0xffffffffffffffff\n        /* \"#utility.yul\":13656:13662   */\n      dup2\n        /* \"#utility.yul\":13653:13683   */\n      gt\n        /* \"#utility.yul\":13650:13652   */\n      iszero\n      tag_429\n      jumpi\n        /* \"#utility.yul\":13696:13697   */\n      0x00\n        /* \"#utility.yul\":13693:13694   */\n      dup1\n        /* \"#utility.yul\":13686:13698   */\n      revert\n        /* \"#utility.yul\":13650:13652   */\n    tag_429:\n        /* \"#utility.yul\":13739:13824   */\n      tag_430\n        /* \"#utility.yul\":13820:13823   */\n      dup5\n        /* \"#utility.yul\":13811:13817   */\n      dup3\n        /* \"#utility.yul\":13800:13809   */\n      dup6\n        /* \"#utility.yul\":13796:13818   */\n      add\n        /* \"#utility.yul\":13739:13824   */\n      tag_331\n      jump\t// in\n    tag_430:\n        /* \"#utility.yul\":13732:13736   */\n      0x80\n        /* \"#utility.yul\":13725:13730   */\n      dup4\n        /* \"#utility.yul\":13721:13737   */\n      add\n        /* \"#utility.yul\":13714:13825   */\n      mstore\n        /* \"#utility.yul\":13554:13836   */\n      pop\n        /* \"#utility.yul\":13923:13926   */\n      0xa0\n        /* \"#utility.yul\":13912:13921   */\n      dup3\n        /* \"#utility.yul\":13908:13927   */\n      add\n        /* \"#utility.yul\":13902:13928   */\n      mload\n        /* \"#utility.yul\":13955:13973   */\n      0xffffffffffffffff\n        /* \"#utility.yul\":13947:13953   */\n      dup2\n        /* \"#utility.yul\":13944:13974   */\n      gt\n        /* \"#utility.yul\":13941:13943   */\n      iszero\n      tag_431\n      jumpi\n        /* \"#utility.yul\":13987:13988   */\n      0x00\n        /* \"#utility.yul\":13984:13985   */\n      dup1\n        /* \"#utility.yul\":13977:13989   */\n      revert\n        /* \"#utility.yul\":13941:13943   */\n    tag_431:\n        /* \"#utility.yul\":14030:14115   */\n      tag_432\n        /* \"#utility.yul\":14111:14114   */\n      dup5\n        /* \"#utility.yul\":14102:14108   */\n      dup3\n        /* \"#utility.yul\":14091:14100   */\n      dup6\n        /* \"#utility.yul\":14087:14109   */\n      add\n        /* \"#utility.yul\":14030:14115   */\n      tag_331\n      jump\t// in\n    tag_432:\n        /* \"#utility.yul\":14023:14027   */\n      0xa0\n        /* \"#utility.yul\":14016:14021   */\n      dup4\n        /* \"#utility.yul\":14012:14028   */\n      add\n        /* \"#utility.yul\":14005:14116   */\n      mstore\n        /* \"#utility.yul\":13846:14127   */\n      pop\n        /* \"#utility.yul\":14211:14214   */\n      0xc0\n        /* \"#utility.yul\":14200:14209   */\n      dup3\n        /* \"#utility.yul\":14196:14215   */\n      add\n        /* \"#utility.yul\":14190:14216   */\n      mload\n        /* \"#utility.yul\":14243:14261   */\n      0xffffffffffffffff\n        /* \"#utility.yul\":14235:14241   */\n      dup2\n        /* \"#utility.yul\":14232:14262   */\n      gt\n        /* \"#utility.yul\":14229:14231   */\n      iszero\n      tag_433\n      jumpi\n        /* \"#utility.yul\":14275:14276   */\n      0x00\n        /* \"#utility.yul\":14272:14273   */\n      dup1\n        /* \"#utility.yul\":14265:14277   */\n      revert\n        /* \"#utility.yul\":14229:14231   */\n    tag_433:\n        /* \"#utility.yul\":14318:14403   */\n      tag_434\n        /* \"#utility.yul\":14399:14402   */\n      dup5\n        /* \"#utility.yul\":14390:14396   */\n      dup3\n        /* \"#utility.yul\":14379:14388   */\n      dup6\n        /* \"#utility.yul\":14375:14397   */\n      add\n        /* \"#utility.yul\":14318:14403   */\n      tag_404\n      jump\t// in\n    tag_434:\n        /* \"#utility.yul\":14311:14315   */\n      0xc0\n        /* \"#utility.yul\":14304:14309   */\n      dup4\n        /* \"#utility.yul\":14300:14316   */\n      add\n        /* \"#utility.yul\":14293:14404   */\n      mstore\n        /* \"#utility.yul\":14137:14415   */\n      pop\n        /* \"#utility.yul\":12614:14422   */\n      swap3\n      swap2\n      pop\n      pop\n      jump\t// out\n        /* \"#utility.yul\":14428:14567   */\n    tag_286:\n      0x00\n        /* \"#utility.yul\":14512:14518   */\n      dup2\n        /* \"#utility.yul\":14499:14519   */\n      calldataload\n        /* \"#utility.yul\":14490:14519   */\n      swap1\n      pop\n        /* \"#utility.yul\":14528:14561   */\n      tag_436\n        /* \"#utility.yul\":14555:14560   */\n      dup2\n        /* \"#utility.yul\":14528:14561   */\n      tag_437\n      jump\t// in\n    tag_436:\n        /* \"#utility.yul\":14480:14567   */\n      swap3\n      swap2\n      pop\n      pop\n      jump\t// out\n        /* \"#utility.yul\":14573:14716   */\n    tag_296:\n      0x00\n        /* \"#utility.yul\":14661:14667   */\n      dup2\n        /* \"#utility.yul\":14655:14668   */\n      mload\n        /* \"#utility.yul\":14646:14668   */\n      swap1\n      pop\n        /* \"#utility.yul\":14677:14710   */\n      tag_439\n        /* \"#utility.yul\":14704:14709   */\n      dup2\n        /* \"#utility.yul\":14677:14710   */\n      tag_437\n      jump\t// in\n    tag_439:\n        /* \"#utility.yul\":14636:14716   */\n      swap3\n      swap2\n      pop\n      pop\n      jump\t// out\n        /* \"#utility.yul\":14722:15156   */\n    tag_190:\n      0x00\n      dup1\n        /* \"#utility.yul\":14855:14857   */\n      0x40\n        /* \"#utility.yul\":14843:14852   */\n      dup4\n        /* \"#utility.yul\":14834:14841   */\n      dup6\n        /* \"#utility.yul\":14830:14853   */\n      sub\n        /* \"#utility.yul\":14826:14858   */\n      slt\n        /* \"#utility.yul\":14823:14825   */\n      iszero\n      tag_441\n      jumpi\n        /* \"#utility.yul\":14871:14872   */\n      0x00\n        /* \"#utility.yul\":14868:14869   */\n      dup1\n        /* \"#utility.yul\":14861:14873   */\n      revert\n        /* \"#utility.yul\":14823:14825   */\n    tag_441:\n        /* \"#utility.yul\":14914:14915   */\n      0x00\n        /* \"#utility.yul\":14939:15000   */\n      tag_442\n        /* \"#utility.yul\":14992:14999   */\n      dup6\n        /* \"#utility.yul\":14983:14989   */\n      dup3\n        /* \"#utility.yul\":14972:14981   */\n      dup7\n        /* \"#utility.yul\":14968:14990   */\n      add\n        /* \"#utility.yul\":14939:15000   */\n      tag_339\n      jump\t// in\n    tag_442:\n        /* \"#utility.yul\":14929:15000   */\n      swap3\n      pop\n        /* \"#utility.yul\":14885:15010   */\n      pop\n        /* \"#utility.yul\":15049:15051   */\n      0x20\n        /* \"#utility.yul\":15075:15139   */\n      tag_443\n        /* \"#utility.yul\":15131:15138   */\n      dup6\n        /* \"#utility.yul\":15122:15128   */\n      dup3\n        /* \"#utility.yul\":15111:15120   */\n      dup7\n        /* \"#utility.yul\":15107:15129   */\n      add\n        /* \"#utility.yul\":15075:15139   */\n      tag_296\n      jump\t// in\n    tag_443:\n        /* \"#utility.yul\":15065:15139   */\n      swap2\n      pop\n        /* \"#utility.yul\":15020:15149   */\n      pop\n        /* \"#utility.yul\":14813:15156   */\n      swap3\n      pop\n      swap3\n      swap1\n      pop\n      jump\t// out\n        /* \"#utility.yul\":15162:15700   */\n    tag_28:\n      0x00\n      dup1\n      0x00\n        /* \"#utility.yul\":15306:15308   */\n      0x40\n        /* \"#utility.yul\":15294:15303   */\n      dup5\n        /* \"#utility.yul\":15285:15292   */\n      dup7\n        /* \"#utility.yul\":15281:15304   */\n      sub\n        /* \"#utility.yul\":15277:15309   */\n      slt\n        /* \"#utility.yul\":15274:15276   */\n      iszero\n      tag_445\n      jumpi\n        /* \"#utility.yul\":15322:15323   */\n      0x00\n        /* \"#utility.yul\":15319:15320   */\n      dup1\n        /* \"#utility.yul\":15312:15324   */\n      revert\n        /* \"#utility.yul\":15274:15276   */\n    tag_445:\n        /* \"#utility.yul\":15393:15394   */\n      0x00\n        /* \"#utility.yul\":15382:15391   */\n      dup5\n        /* \"#utility.yul\":15378:15395   */\n      add\n        /* \"#utility.yul\":15365:15396   */\n      calldataload\n        /* \"#utility.yul\":15423:15441   */\n      0xffffffffffffffff\n        /* \"#utility.yul\":15415:15421   */\n      dup2\n        /* \"#utility.yul\":15412:15442   */\n      gt\n        /* \"#utility.yul\":15409:15411   */\n      iszero\n      tag_446\n      jumpi\n        /* \"#utility.yul\":15455:15456   */\n      0x00\n        /* \"#utility.yul\":15452:15453   */\n      dup1\n        /* \"#utility.yul\":15445:15457   */\n      revert\n        /* \"#utility.yul\":15409:15411   */\n    tag_446:\n        /* \"#utility.yul\":15491:15556   */\n      tag_447\n        /* \"#utility.yul\":15548:15555   */\n      dup7\n        /* \"#utility.yul\":15539:15545   */\n      dup3\n        /* \"#utility.yul\":15528:15537   */\n      dup8\n        /* \"#utility.yul\":15524:15546   */\n      add\n        /* \"#utility.yul\":15491:15556   */\n      tag_368\n      jump\t// in\n    tag_447:\n        /* \"#utility.yul\":15473:15556   */\n      swap4\n      pop\n      swap4\n      pop\n        /* \"#utility.yul\":15336:15566   */\n      pop\n        /* \"#utility.yul\":15605:15607   */\n      0x20\n        /* \"#utility.yul\":15631:15683   */\n      tag_448\n        /* \"#utility.yul\":15675:15682   */\n      dup7\n        /* \"#utility.yul\":15666:15672   */\n      dup3\n        /* \"#utility.yul\":15655:15664   */\n      dup8\n        /* \"#utility.yul\":15651:15673   */\n      add\n        /* \"#utility.yul\":15631:15683   */\n      tag_265\n      jump\t// in\n    tag_448:\n        /* \"#utility.yul\":15621:15683   */\n      swap2\n      pop\n        /* \"#utility.yul\":15576:15693   */\n      pop\n        /* \"#utility.yul\":15264:15700   */\n      swap3\n      pop\n      swap3\n      pop\n      swap3\n      jump\t// out\n        /* \"#utility.yul\":15706:16379   */\n    tag_68:\n      0x00\n      dup1\n      0x00\n      dup1\n        /* \"#utility.yul\":15871:15873   */\n      0x40\n        /* \"#utility.yul\":15859:15868   */\n      dup6\n        /* \"#utility.yul\":15850:15857   */\n      dup8\n        /* \"#utility.yul\":15846:15869   */\n      sub\n        /* \"#utility.yul\":15842:15874   */\n      slt\n        /* \"#utility.yul\":15839:15841   */\n      iszero\n      tag_450\n      jumpi\n        /* \"#utility.yul\":15887:15888   */\n      0x00\n        /* \"#utility.yul\":15884:15885   */\n      dup1\n        /* \"#utility.yul\":15877:15889   */\n      revert\n        /* \"#utility.yul\":15839:15841   */\n    tag_450:\n        /* \"#utility.yul\":15958:15959   */\n      0x00\n        /* \"#utility.yul\":15947:15956   */\n      dup6\n        /* \"#utility.yul\":15943:15960   */\n      add\n        /* \"#utility.yul\":15930:15961   */\n      calldataload\n        /* \"#utility.yul\":15988:16006   */\n      0xffffffffffffffff\n        /* \"#utility.yul\":15980:15986   */\n      dup2\n        /* \"#utility.yul\":15977:16007   */\n      gt\n        /* \"#utility.yul\":15974:15976   */\n      iszero\n      tag_451\n      jumpi\n        /* \"#utility.yul\":16020:16021   */\n      0x00\n        /* \"#utility.yul\":16017:16018   */\n      dup1\n        /* \"#utility.yul\":16010:16022   */\n      revert\n        /* \"#utility.yul\":15974:15976   */\n    tag_451:\n        /* \"#utility.yul\":16056:16121   */\n      tag_452\n        /* \"#utility.yul\":16113:16120   */\n      dup8\n        /* \"#utility.yul\":16104:16110   */\n      dup3\n        /* \"#utility.yul\":16093:16102   */\n      dup9\n        /* \"#utility.yul\":16089:16111   */\n      add\n        /* \"#utility.yul\":16056:16121   */\n      tag_368\n      jump\t// in\n    tag_452:\n        /* \"#utility.yul\":16038:16121   */\n      swap5\n      pop\n      swap5\n      pop\n        /* \"#utility.yul\":15901:16131   */\n      pop\n        /* \"#utility.yul\":16198:16200   */\n      0x20\n        /* \"#utility.yul\":16187:16196   */\n      dup6\n        /* \"#utility.yul\":16183:16201   */\n      add\n        /* \"#utility.yul\":16170:16202   */\n      calldataload\n        /* \"#utility.yul\":16229:16247   */\n      0xffffffffffffffff\n        /* \"#utility.yul\":16221:16227   */\n      dup2\n        /* \"#utility.yul\":16218:16248   */\n      gt\n        /* \"#utility.yul\":16215:16217   */\n      iszero\n      tag_453\n      jumpi\n        /* \"#utility.yul\":16261:16262   */\n      0x00\n        /* \"#utility.yul\":16258:16259   */\n      dup1\n        /* \"#utility.yul\":16251:16263   */\n      revert\n        /* \"#utility.yul\":16215:16217   */\n    tag_453:\n        /* \"#utility.yul\":16297:16362   */\n      tag_454\n        /* \"#utility.yul\":16354:16361   */\n      dup8\n        /* \"#utility.yul\":16345:16351   */\n      dup3\n        /* \"#utility.yul\":16334:16343   */\n      dup9\n        /* \"#utility.yul\":16330:16352   */\n      add\n        /* \"#utility.yul\":16297:16362   */\n      tag_368\n      jump\t// in\n    tag_454:\n        /* \"#utility.yul\":16279:16362   */\n      swap3\n      pop\n      swap3\n      pop\n        /* \"#utility.yul\":16141:16372   */\n      pop\n        /* \"#utility.yul\":15829:16379   */\n      swap3\n      swap6\n      swap2\n      swap5\n      pop\n      swap3\n      pop\n      jump\t// out\n        /* \"#utility.yul\":16385:16801   */\n    tag_105:\n      0x00\n        /* \"#utility.yul\":16527:16529   */\n      0x20\n        /* \"#utility.yul\":16515:16524   */\n      dup3\n        /* \"#utility.yul\":16506:16513   */\n      dup5\n        /* \"#utility.yul\":16502:16525   */\n      sub\n        /* \"#utility.yul\":16498:16530   */\n      slt\n        /* \"#utility.yul\":16495:16497   */\n      iszero\n      tag_456\n      jumpi\n        /* \"#utility.yul\":16543:16544   */\n      0x00\n        /* \"#utility.yul\":16540:16541   */\n      dup1\n        /* \"#utility.yul\":16533:16545   */\n      revert\n        /* \"#utility.yul\":16495:16497   */\n    tag_456:\n        /* \"#utility.yul\":16607:16608   */\n      0x00\n        /* \"#utility.yul\":16596:16605   */\n      dup3\n        /* \"#utility.yul\":16592:16609   */\n      add\n        /* \"#utility.yul\":16586:16610   */\n      mload\n        /* \"#utility.yul\":16637:16655   */\n      0xffffffffffffffff\n        /* \"#utility.yul\":16629:16635   */\n      dup2\n        /* \"#utility.yul\":16626:16656   */\n      gt\n        /* \"#utility.yul\":16623:16625   */\n      iszero\n      tag_457\n      jumpi\n        /* \"#utility.yul\":16669:16670   */\n      0x00\n        /* \"#utility.yul\":16666:16667   */\n      dup1\n        /* \"#utility.yul\":16659:16671   */\n      revert\n        /* \"#utility.yul\":16623:16625   */\n    tag_457:\n        /* \"#utility.yul\":16697:16784   */\n      tag_458\n        /* \"#utility.yul\":16776:16783   */\n      dup5\n        /* \"#utility.yul\":16767:16773   */\n      dup3\n        /* \"#utility.yul\":16756:16765   */\n      dup6\n        /* \"#utility.yul\":16752:16774   */\n      add\n        /* \"#utility.yul\":16697:16784   */\n      tag_381\n      jump\t// in\n    tag_458:\n        /* \"#utility.yul\":16687:16784   */\n      swap2\n      pop\n        /* \"#utility.yul\":16557:16794   */\n      pop\n        /* \"#utility.yul\":16485:16801   */\n      swap3\n      swap2\n      pop\n      pop\n      jump\t// out\n        /* \"#utility.yul\":16807:17219   */\n    tag_85:\n      0x00\n        /* \"#utility.yul\":16947:16949   */\n      0x20\n        /* \"#utility.yul\":16935:16944   */\n      dup3\n        /* \"#utility.yul\":16926:16933   */\n      dup5\n        /* \"#utility.yul\":16922:16945   */\n      sub\n        /* \"#utility.yul\":16918:16950   */\n      slt\n        /* \"#utility.yul\":16915:16917   */\n      iszero\n      tag_460\n      jumpi\n        /* \"#utility.yul\":16963:16964   */\n      0x00\n        /* \"#utility.yul\":16960:16961   */\n      dup1\n        /* \"#utility.yul\":16953:16965   */\n      revert\n        /* \"#utility.yul\":16915:16917   */\n    tag_460:\n        /* \"#utility.yul\":17027:17028   */\n      0x00\n        /* \"#utility.yul\":17016:17025   */\n      dup3\n        /* \"#utility.yul\":17012:17029   */\n      add\n        /* \"#utility.yul\":17006:17030   */\n      mload\n        /* \"#utility.yul\":17057:17075   */\n      0xffffffffffffffff\n        /* \"#utility.yul\":17049:17055   */\n      dup2\n        /* \"#utility.yul\":17046:17076   */\n      gt\n        /* \"#utility.yul\":17043:17045   */\n      iszero\n      tag_461\n      jumpi\n        /* \"#utility.yul\":17089:17090   */\n      0x00\n        /* \"#utility.yul\":17086:17087   */\n      dup1\n        /* \"#utility.yul\":17079:17091   */\n      revert\n        /* \"#utility.yul\":17043:17045   */\n    tag_461:\n        /* \"#utility.yul\":17117:17202   */\n      tag_462\n        /* \"#utility.yul\":17194:17201   */\n      dup5\n        /* \"#utility.yul\":17185:17191   */\n      dup3\n        /* \"#utility.yul\":17174:17183   */\n      dup6\n        /* \"#utility.yul\":17170:17192   */\n      add\n        /* \"#utility.yul\":17117:17202   */\n      tag_420\n      jump\t// in\n    tag_462:\n        /* \"#utility.yul\":17107:17202   */\n      swap2\n      pop\n        /* \"#utility.yul\":16977:17212   */\n      pop\n        /* \"#utility.yul\":16905:17219   */\n      swap3\n      swap2\n      pop\n      pop\n      jump\t// out\n        /* \"#utility.yul\":17225:17487   */\n    tag_18:\n      0x00\n        /* \"#utility.yul\":17333:17335   */\n      0x20\n        /* \"#utility.yul\":17321:17330   */\n      dup3\n        /* \"#utility.yul\":17312:17319   */\n      dup5\n        /* \"#utility.yul\":17308:17331   */\n      sub\n        /* \"#utility.yul\":17304:17336   */\n      slt\n        /* \"#utility.yul\":17301:17303   */\n      iszero\n      tag_464\n      jumpi\n        /* \"#utility.yul\":17349:17350   */\n      0x00\n        /* \"#utility.yul\":17346:17347   */\n      dup1\n        /* \"#utility.yul\":17339:17351   */\n      revert\n        /* \"#utility.yul\":17301:17303   */\n    tag_464:\n        /* \"#utility.yul\":17392:17393   */\n      0x00\n        /* \"#utility.yul\":17417:17470   */\n      tag_465\n        /* \"#utility.yul\":17462:17469   */\n      dup5\n        /* \"#utility.yul\":17453:17459   */\n      dup3\n        /* \"#utility.yul\":17442:17451   */\n      dup6\n        /* \"#utility.yul\":17438:17460   */\n      add\n        /* \"#utility.yul\":17417:17470   */\n      tag_286\n      jump\t// in\n    tag_465:\n        /* \"#utility.yul\":17407:17470   */\n      swap2\n      pop\n        /* \"#utility.yul\":17363:17480   */\n      pop\n        /* \"#utility.yul\":17291:17487   */\n      swap3\n      swap2\n      pop\n      pop\n      jump\t// out\n        /* \"#utility.yul\":17493:18912   */\n    tag_24:\n      0x00\n      dup1\n      0x00\n      dup1\n      0x00\n      dup1\n        /* \"#utility.yul\":17761:17764   */\n      0xc0\n        /* \"#utility.yul\":17749:17758   */\n      dup8\n        /* \"#utility.yul\":17740:17747   */\n      dup10\n        /* \"#utility.yul\":17736:17759   */\n      sub\n        /* \"#utility.yul\":17732:17765   */\n      slt\n        /* \"#utility.yul\":17729:17731   */\n      iszero\n      tag_467\n      jumpi\n        /* \"#utility.yul\":17778:17779   */\n      0x00\n        /* \"#utility.yul\":17775:17776   */\n      dup1\n        /* \"#utility.yul\":17768:17780   */\n      revert\n        /* \"#utility.yul\":17729:17731   */\n    tag_467:\n        /* \"#utility.yul\":17821:17822   */\n      0x00\n        /* \"#utility.yul\":17846:17899   */\n      tag_468\n        /* \"#utility.yul\":17891:17898   */\n      dup10\n        /* \"#utility.yul\":17882:17888   */\n      dup3\n        /* \"#utility.yul\":17871:17880   */\n      dup11\n        /* \"#utility.yul\":17867:17889   */\n      add\n        /* \"#utility.yul\":17846:17899   */\n      tag_286\n      jump\t// in\n    tag_468:\n        /* \"#utility.yul\":17836:17899   */\n      swap7\n      pop\n        /* \"#utility.yul\":17792:17909   */\n      pop\n        /* \"#utility.yul\":17976:17978   */\n      0x20\n        /* \"#utility.yul\":17965:17974   */\n      dup8\n        /* \"#utility.yul\":17961:17979   */\n      add\n        /* \"#utility.yul\":17948:17980   */\n      calldataload\n        /* \"#utility.yul\":18007:18025   */\n      0xffffffffffffffff\n        /* \"#utility.yul\":17999:18005   */\n      dup2\n        /* \"#utility.yul\":17996:18026   */\n      gt\n        /* \"#utility.yul\":17993:17995   */\n      iszero\n      tag_469\n      jumpi\n        /* \"#utility.yul\":18039:18040   */\n      0x00\n        /* \"#utility.yul\":18036:18037   */\n      dup1\n        /* \"#utility.yul\":18029:18041   */\n      revert\n        /* \"#utility.yul\":17993:17995   */\n    tag_469:\n        /* \"#utility.yul\":18067:18130   */\n      tag_470\n        /* \"#utility.yul\":18122:18129   */\n      dup10\n        /* \"#utility.yul\":18113:18119   */\n      dup3\n        /* \"#utility.yul\":18102:18111   */\n      dup11\n        /* \"#utility.yul\":18098:18120   */\n      add\n        /* \"#utility.yul\":18067:18130   */\n      tag_373\n      jump\t// in\n    tag_470:\n        /* \"#utility.yul\":18057:18130   */\n      swap6\n      pop\n        /* \"#utility.yul\":17919:18140   */\n      pop\n        /* \"#utility.yul\":18179:18181   */\n      0x40\n        /* \"#utility.yul\":18205:18258   */\n      tag_471\n        /* \"#utility.yul\":18250:18257   */\n      dup10\n        /* \"#utility.yul\":18241:18247   */\n      dup3\n        /* \"#utility.yul\":18230:18239   */\n      dup11\n        /* \"#utility.yul\":18226:18248   */\n      add\n        /* \"#utility.yul\":18205:18258   */\n      tag_312\n      jump\t// in\n    tag_471:\n        /* \"#utility.yul\":18195:18258   */\n      swap5\n      pop\n        /* \"#utility.yul\":18150:18268   */\n      pop\n        /* \"#utility.yul\":18307:18309   */\n      0x60\n        /* \"#utility.yul\":18333:18401   */\n      tag_472\n        /* \"#utility.yul\":18393:18400   */\n      dup10\n        /* \"#utility.yul\":18384:18390   */\n      dup3\n        /* \"#utility.yul\":18373:18382   */\n      dup11\n        /* \"#utility.yul\":18369:18391   */\n      add\n        /* \"#utility.yul\":18333:18401   */\n      tag_349\n      jump\t// in\n    tag_472:\n        /* \"#utility.yul\":18323:18401   */\n      swap4\n      pop\n        /* \"#utility.yul\":18278:18411   */\n      pop\n        /* \"#utility.yul\":18478:18481   */\n      0x80\n        /* \"#utility.yul\":18467:18476   */\n      dup8\n        /* \"#utility.yul\":18463:18482   */\n      add\n        /* \"#utility.yul\":18450:18483   */\n      calldataload\n        /* \"#utility.yul\":18510:18528   */\n      0xffffffffffffffff\n        /* \"#utility.yul\":18502:18508   */\n      dup2\n        /* \"#utility.yul\":18499:18529   */\n      gt\n        /* \"#utility.yul\":18496:18498   */\n      iszero\n      tag_473\n      jumpi\n        /* \"#utility.yul\":18542:18543   */\n      0x00\n        /* \"#utility.yul\":18539:18540   */\n      dup1\n        /* \"#utility.yul\":18532:18544   */\n      revert\n        /* \"#utility.yul\":18496:18498   */\n    tag_473:\n        /* \"#utility.yul\":18570:18648   */\n      tag_474\n        /* \"#utility.yul\":18640:18647   */\n      dup10\n        /* \"#utility.yul\":18631:18637   */\n      dup3\n        /* \"#utility.yul\":18620:18629   */\n      dup11\n        /* \"#utility.yul\":18616:18638   */\n      add\n        /* \"#utility.yul\":18570:18648   */\n      tag_327\n      jump\t// in\n    tag_474:\n        /* \"#utility.yul\":18560:18648   */\n      swap3\n      pop\n        /* \"#utility.yul\":18421:18658   */\n      pop\n        /* \"#utility.yul\":18725:18728   */\n      0xa0\n        /* \"#utility.yul\":18714:18723   */\n      dup8\n        /* \"#utility.yul\":18710:18729   */\n      add\n        /* \"#utility.yul\":18697:18730   */\n      calldataload\n        /* \"#utility.yul\":18757:18775   */\n      0xffffffffffffffff\n        /* \"#utility.yul\":18749:18755   */\n      dup2\n        /* \"#utility.yul\":18746:18776   */\n      gt\n        /* \"#utility.yul\":18743:18745   */\n      iszero\n      tag_475\n      jumpi\n        /* \"#utility.yul\":18789:18790   */\n      0x00\n        /* \"#utility.yul\":18786:18787   */\n      dup1\n        /* \"#utility.yul\":18779:18791   */\n      revert\n        /* \"#utility.yul\":18743:18745   */\n    tag_475:\n        /* \"#utility.yul\":18817:18895   */\n      tag_476\n        /* \"#utility.yul\":18887:18894   */\n      dup10\n        /* \"#utility.yul\":18878:18884   */\n      dup3\n        /* \"#utility.yul\":18867:18876   */\n      dup11\n        /* \"#utility.yul\":18863:18885   */\n      add\n        /* \"#utility.yul\":18817:18895   */\n      tag_327\n      jump\t// in\n    tag_476:\n        /* \"#utility.yul\":18807:18895   */\n      swap2\n      pop\n        /* \"#utility.yul\":18668:18905   */\n      pop\n        /* \"#utility.yul\":17719:18912   */\n      swap3\n      swap6\n      pop\n      swap3\n      swap6\n      pop\n      swap3\n      swap6\n      jump\t// out\n        /* \"#utility.yul\":18918:20626   */\n    tag_64:\n      0x00\n      dup1\n      0x00\n      dup1\n      0x00\n      dup1\n      0x00\n        /* \"#utility.yul\":19228:19231   */\n      0xe0\n        /* \"#utility.yul\":19216:19225   */\n      dup9\n        /* \"#utility.yul\":19207:19214   */\n      dup11\n        /* \"#utility.yul\":19203:19226   */\n      sub\n        /* \"#utility.yul\":19199:19232   */\n      slt\n        /* \"#utility.yul\":19196:19198   */\n      iszero\n      tag_478\n      jumpi\n        /* \"#utility.yul\":19245:19246   */\n      0x00\n        /* \"#utility.yul\":19242:19243   */\n      dup1\n        /* \"#utility.yul\":19235:19247   */\n      revert\n        /* \"#utility.yul\":19196:19198   */\n    tag_478:\n        /* \"#utility.yul\":19288:19289   */\n      0x00\n        /* \"#utility.yul\":19313:19366   */\n      tag_479\n        /* \"#utility.yul\":19358:19365   */\n      dup11\n        /* \"#utility.yul\":19349:19355   */\n      dup3\n        /* \"#utility.yul\":19338:19347   */\n      dup12\n        /* \"#utility.yul\":19334:19356   */\n      add\n        /* \"#utility.yul\":19313:19366   */\n      tag_286\n      jump\t// in\n    tag_479:\n        /* \"#utility.yul\":19303:19366   */\n      swap8\n      pop\n        /* \"#utility.yul\":19259:19376   */\n      pop\n        /* \"#utility.yul\":19443:19445   */\n      0x20\n        /* \"#utility.yul\":19432:19441   */\n      dup9\n        /* \"#utility.yul\":19428:19446   */\n      add\n        /* \"#utility.yul\":19415:19447   */\n      calldataload\n        /* \"#utility.yul\":19474:19492   */\n      0xffffffffffffffff\n        /* \"#utility.yul\":19466:19472   */\n      dup2\n        /* \"#utility.yul\":19463:19493   */\n      gt\n        /* \"#utility.yul\":19460:19462   */\n      iszero\n      tag_480\n      jumpi\n        /* \"#utility.yul\":19506:19507   */\n      0x00\n        /* \"#utility.yul\":19503:19504   */\n      dup1\n        /* \"#utility.yul\":19496:19508   */\n      revert\n        /* \"#utility.yul\":19460:19462   */\n    tag_480:\n        /* \"#utility.yul\":19534:19597   */\n      tag_481\n        /* \"#utility.yul\":19589:19596   */\n      dup11\n        /* \"#utility.yul\":19580:19586   */\n      dup3\n        /* \"#utility.yul\":19569:19578   */\n      dup12\n        /* \"#utility.yul\":19565:19587   */\n      add\n        /* \"#utility.yul\":19534:19597   */\n      tag_373\n      jump\t// in\n    tag_481:\n        /* \"#utility.yul\":19524:19597   */\n      swap7\n      pop\n        /* \"#utility.yul\":19386:19607   */\n      pop\n        /* \"#utility.yul\":19646:19648   */\n      0x40\n        /* \"#utility.yul\":19672:19725   */\n      tag_482\n        /* \"#utility.yul\":19717:19724   */\n      dup11\n        /* \"#utility.yul\":19708:19714   */\n      dup3\n        /* \"#utility.yul\":19697:19706   */\n      dup12\n        /* \"#utility.yul\":19693:19715   */\n      add\n        /* \"#utility.yul\":19672:19725   */\n      tag_312\n      jump\t// in\n    tag_482:\n        /* \"#utility.yul\":19662:19725   */\n      swap6\n      pop\n        /* \"#utility.yul\":19617:19735   */\n      pop\n        /* \"#utility.yul\":19774:19776   */\n      0x60\n        /* \"#utility.yul\":19800:19868   */\n      tag_483\n        /* \"#utility.yul\":19860:19867   */\n      dup11\n        /* \"#utility.yul\":19851:19857   */\n      dup3\n        /* \"#utility.yul\":19840:19849   */\n      dup12\n        /* \"#utility.yul\":19836:19858   */\n      add\n        /* \"#utility.yul\":19800:19868   */\n      tag_349\n      jump\t// in\n    tag_483:\n        /* \"#utility.yul\":19790:19868   */\n      swap5\n      pop\n        /* \"#utility.yul\":19745:19878   */\n      pop\n        /* \"#utility.yul\":19945:19948   */\n      0x80\n        /* \"#utility.yul\":19934:19943   */\n      dup9\n        /* \"#utility.yul\":19930:19949   */\n      add\n        /* \"#utility.yul\":19917:19950   */\n      calldataload\n        /* \"#utility.yul\":19977:19995   */\n      0xffffffffffffffff\n        /* \"#utility.yul\":19969:19975   */\n      dup2\n        /* \"#utility.yul\":19966:19996   */\n      gt\n        /* \"#utility.yul\":19963:19965   */\n      iszero\n      tag_484\n      jumpi\n        /* \"#utility.yul\":20009:20010   */\n      0x00\n        /* \"#utility.yul\":20006:20007   */\n      dup1\n        /* \"#utility.yul\":19999:20011   */\n      revert\n        /* \"#utility.yul\":19963:19965   */\n    tag_484:\n        /* \"#utility.yul\":20037:20115   */\n      tag_485\n        /* \"#utility.yul\":20107:20114   */\n      dup11\n        /* \"#utility.yul\":20098:20104   */\n      dup3\n        /* \"#utility.yul\":20087:20096   */\n      dup12\n        /* \"#utility.yul\":20083:20105   */\n      add\n        /* \"#utility.yul\":20037:20115   */\n      tag_327\n      jump\t// in\n    tag_485:\n        /* \"#utility.yul\":20027:20115   */\n      swap4\n      pop\n        /* \"#utility.yul\":19888:20125   */\n      pop\n        /* \"#utility.yul\":20192:20195   */\n      0xa0\n        /* \"#utility.yul\":20181:20190   */\n      dup9\n        /* \"#utility.yul\":20177:20196   */\n      add\n        /* \"#utility.yul\":20164:20197   */\n      calldataload\n        /* \"#utility.yul\":20224:20242   */\n      0xffffffffffffffff\n        /* \"#utility.yul\":20216:20222   */\n      dup2\n        /* \"#utility.yul\":20213:20243   */\n      gt\n        /* \"#utility.yul\":20210:20212   */\n      iszero\n      tag_486\n      jumpi\n        /* \"#utility.yul\":20256:20257   */\n      0x00\n        /* \"#utility.yul\":20253:20254   */\n      dup1\n        /* \"#utility.yul\":20246:20258   */\n      revert\n        /* \"#utility.yul\":20210:20212   */\n    tag_486:\n        /* \"#utility.yul\":20284:20362   */\n      tag_487\n        /* \"#utility.yul\":20354:20361   */\n      dup11\n        /* \"#utility.yul\":20345:20351   */\n      dup3\n        /* \"#utility.yul\":20334:20343   */\n      dup12\n        /* \"#utility.yul\":20330:20352   */\n      add\n        /* \"#utility.yul\":20284:20362   */\n      tag_327\n      jump\t// in\n    tag_487:\n        /* \"#utility.yul\":20274:20362   */\n      swap3\n      pop\n        /* \"#utility.yul\":20135:20372   */\n      pop\n        /* \"#utility.yul\":20439:20442   */\n      0xc0\n        /* \"#utility.yul\":20428:20437   */\n      dup9\n        /* \"#utility.yul\":20424:20443   */\n      add\n        /* \"#utility.yul\":20411:20444   */\n      calldataload\n        /* \"#utility.yul\":20471:20489   */\n      0xffffffffffffffff\n        /* \"#utility.yul\":20463:20469   */\n      dup2\n        /* \"#utility.yul\":20460:20490   */\n      gt\n        /* \"#utility.yul\":20457:20459   */\n      iszero\n      tag_488\n      jumpi\n        /* \"#utility.yul\":20503:20504   */\n      0x00\n        /* \"#utility.yul\":20500:20501   */\n      dup1\n        /* \"#utility.yul\":20493:20505   */\n      revert\n        /* \"#utility.yul\":20457:20459   */\n    tag_488:\n        /* \"#utility.yul\":20531:20609   */\n      tag_489\n        /* \"#utility.yul\":20601:20608   */\n      dup11\n        /* \"#utility.yul\":20592:20598   */\n      dup3\n        /* \"#utility.yul\":20581:20590   */\n      dup12\n        /* \"#utility.yul\":20577:20599   */\n      add\n        /* \"#utility.yul\":20531:20609   */\n      tag_388\n      jump\t// in\n    tag_489:\n        /* \"#utility.yul\":20521:20609   */\n      swap2\n      pop\n        /* \"#utility.yul\":20382:20619   */\n      pop\n        /* \"#utility.yul\":19186:20626   */\n      swap3\n      swap6\n      swap9\n      swap2\n      swap5\n      swap8\n      pop\n      swap3\n      swap6\n      pop\n      jump\t// out\n        /* \"#utility.yul\":20632:20823   */\n    tag_490:\n      0x00\n        /* \"#utility.yul\":20728:20780   */\n      tag_492\n        /* \"#utility.yul\":20776:20779   */\n      dup4\n        /* \"#utility.yul\":20768:20774   */\n      dup4\n        /* \"#utility.yul\":20728:20780   */\n      tag_493\n      jump\t// in\n    tag_492:\n        /* \"#utility.yul\":20812:20816   */\n      0x20\n        /* \"#utility.yul\":20807:20810   */\n      dup4\n        /* \"#utility.yul\":20803:20817   */\n      add\n        /* \"#utility.yul\":20789:20817   */\n      swap1\n      pop\n        /* \"#utility.yul\":20718:20823   */\n      swap3\n      swap2\n      pop\n      pop\n      jump\t// out\n        /* \"#utility.yul\":20829:21025   */\n    tag_494:\n      0x00\n        /* \"#utility.yul\":20953:21019   */\n      tag_496\n        /* \"#utility.yul\":21015:21018   */\n      dup4\n        /* \"#utility.yul\":21007:21013   */\n      dup4\n        /* \"#utility.yul\":20953:21019   */\n      tag_497\n      jump\t// in\n    tag_496:\n        /* \"#utility.yul\":20939:21019   */\n      swap1\n      pop\n        /* \"#utility.yul\":20929:21025   */\n      swap3\n      swap2\n      pop\n      pop\n      jump\t// out\n        /* \"#utility.yul\":21031:21279   */\n    tag_498:\n      0x00\n        /* \"#utility.yul\":21181:21273   */\n      tag_500\n        /* \"#utility.yul\":21269:21272   */\n      dup4\n        /* \"#utility.yul\":21261:21267   */\n      dup4\n        /* \"#utility.yul\":21181:21273   */\n      tag_501\n      jump\t// in\n    tag_500:\n        /* \"#utility.yul\":21167:21273   */\n      swap1\n      pop\n        /* \"#utility.yul\":21157:21279   */\n      swap3\n      swap2\n      pop\n      pop\n      jump\t// out\n        /* \"#utility.yul\":21285:21464   */\n    tag_502:\n      0x00\n        /* \"#utility.yul\":21375:21421   */\n      tag_504\n        /* \"#utility.yul\":21417:21420   */\n      dup4\n        /* \"#utility.yul\":21409:21415   */\n      dup4\n        /* \"#utility.yul\":21375:21421   */\n      tag_505\n      jump\t// in\n    tag_504:\n        /* \"#utility.yul\":21453:21457   */\n      0x20\n        /* \"#utility.yul\":21448:21451   */\n      dup4\n        /* \"#utility.yul\":21444:21458   */\n      add\n        /* \"#utility.yul\":21430:21458   */\n      swap1\n      pop\n        /* \"#utility.yul\":21365:21464   */\n      swap3\n      swap2\n      pop\n      pop\n      jump\t// out\n        /* \"#utility.yul\":21470:21665   */\n    tag_506:\n      0x00\n        /* \"#utility.yul\":21568:21622   */\n      tag_508\n        /* \"#utility.yul\":21618:21621   */\n      dup4\n        /* \"#utility.yul\":21610:21616   */\n      dup4\n        /* \"#utility.yul\":21568:21622   */\n      tag_509\n      jump\t// in\n    tag_508:\n        /* \"#utility.yul\":21654:21658   */\n      0x20\n        /* \"#utility.yul\":21649:21652   */\n      dup4\n        /* \"#utility.yul\":21645:21659   */\n      add\n        /* \"#utility.yul\":21631:21659   */\n      swap1\n      pop\n        /* \"#utility.yul\":21558:21665   */\n      swap3\n      swap2\n      pop\n      pop\n      jump\t// out\n        /* \"#utility.yul\":21671:21789   */\n    tag_510:\n        /* \"#utility.yul\":21758:21782   */\n      tag_512\n        /* \"#utility.yul\":21776:21781   */\n      dup2\n        /* \"#utility.yul\":21758:21782   */\n      tag_513\n      jump\t// in\n    tag_512:\n        /* \"#utility.yul\":21753:21756   */\n      dup3\n        /* \"#utility.yul\":21746:21783   */\n      mstore\n        /* \"#utility.yul\":21736:21789   */\n      pop\n      pop\n      jump\t// out\n        /* \"#utility.yul\":21795:21921   */\n    tag_514:\n        /* \"#utility.yul\":21890:21914   */\n      tag_516\n        /* \"#utility.yul\":21908:21913   */\n      dup2\n        /* \"#utility.yul\":21890:21914   */\n      tag_513\n      jump\t// in\n    tag_516:\n        /* \"#utility.yul\":21885:21888   */\n      dup3\n        /* \"#utility.yul\":21878:21915   */\n      mstore\n        /* \"#utility.yul\":21868:21921   */\n      pop\n      pop\n      jump\t// out\n        /* \"#utility.yul\":21927:22043   */\n    tag_517:\n        /* \"#utility.yul\":22012:22036   */\n      tag_519\n        /* \"#utility.yul\":22030:22035   */\n      dup2\n        /* \"#utility.yul\":22012:22036   */\n      tag_513\n      jump\t// in\n    tag_519:\n        /* \"#utility.yul\":22007:22010   */\n      dup3\n        /* \"#utility.yul\":22000:22037   */\n      mstore\n        /* \"#utility.yul\":21990:22043   */\n      pop\n      pop\n      jump\t// out\n        /* \"#utility.yul\":22077:22805   */\n    tag_520:\n      0x00\n        /* \"#utility.yul\":22221:22274   */\n      tag_522\n        /* \"#utility.yul\":22268:22273   */\n      dup3\n        /* \"#utility.yul\":22221:22274   */\n      tag_523\n      jump\t// in\n    tag_522:\n        /* \"#utility.yul\":22290:22373   */\n      tag_524\n        /* \"#utility.yul\":22366:22372   */\n      dup2\n        /* \"#utility.yul\":22361:22364   */\n      dup6\n        /* \"#utility.yul\":22290:22373   */\n      tag_525\n      jump\t// in\n    tag_524:\n        /* \"#utility.yul\":22283:22373   */\n      swap4\n      pop\n        /* \"#utility.yul\":22397:22452   */\n      tag_526\n        /* \"#utility.yul\":22446:22451   */\n      dup4\n        /* \"#utility.yul\":22397:22452   */\n      tag_527\n      jump\t// in\n    tag_526:\n        /* \"#utility.yul\":22475:22482   */\n      dup1\n        /* \"#utility.yul\":22506:22507   */\n      0x00\n        /* \"#utility.yul\":22491:22780   */\n    tag_528:\n        /* \"#utility.yul\":22516:22522   */\n      dup4\n        /* \"#utility.yul\":22513:22514   */\n      dup2\n        /* \"#utility.yul\":22510:22523   */\n      lt\n        /* \"#utility.yul\":22491:22780   */\n      iszero\n      tag_530\n      jumpi\n        /* \"#utility.yul\":22592:22598   */\n      dup2\n        /* \"#utility.yul\":22586:22599   */\n      mload\n        /* \"#utility.yul\":22619:22688   */\n      tag_531\n        /* \"#utility.yul\":22684:22687   */\n      dup9\n        /* \"#utility.yul\":22669:22682   */\n      dup3\n        /* \"#utility.yul\":22619:22688   */\n      tag_490\n      jump\t// in\n    tag_531:\n        /* \"#utility.yul\":22612:22688   */\n      swap8\n      pop\n        /* \"#utility.yul\":22711:22770   */\n      tag_532\n        /* \"#utility.yul\":22763:22769   */\n      dup4\n        /* \"#utility.yul\":22711:22770   */\n      tag_533\n      jump\t// in\n    tag_532:\n        /* \"#utility.yul\":22701:22770   */\n      swap3\n      pop\n        /* \"#utility.yul\":22551:22780   */\n      pop\n        /* \"#utility.yul\":22538:22539   */\n      0x01\n        /* \"#utility.yul\":22535:22536   */\n      dup2\n        /* \"#utility.yul\":22531:22540   */\n      add\n        /* \"#utility.yul\":22526:22540   */\n      swap1\n      pop\n        /* \"#utility.yul\":22491:22780   */\n      jump(tag_528)\n    tag_530:\n        /* \"#utility.yul\":22495:22509   */\n      pop\n        /* \"#utility.yul\":22796:22799   */\n      dup6\n        /* \"#utility.yul\":22789:22799   */\n      swap4\n      pop\n        /* \"#utility.yul\":22197:22805   */\n      pop\n      pop\n      pop\n      swap3\n      swap2\n      pop\n      pop\n      jump\t// out\n        /* \"#utility.yul\":22839:23830   */\n    tag_534:\n      0x00\n        /* \"#utility.yul\":23007:23071   */\n      tag_536\n        /* \"#utility.yul\":23065:23070   */\n      dup3\n        /* \"#utility.yul\":23007:23071   */\n      tag_537\n      jump\t// in\n    tag_536:\n        /* \"#utility.yul\":23087:23183   */\n      tag_538\n        /* \"#utility.yul\":23176:23182   */\n      dup2\n        /* \"#utility.yul\":23171:23174   */\n      dup6\n        /* \"#utility.yul\":23087:23183   */\n      tag_539\n      jump\t// in\n    tag_538:\n        /* \"#utility.yul\":23080:23183   */\n      swap4\n      pop\n        /* \"#utility.yul\":23209:23212   */\n      dup4\n        /* \"#utility.yul\":23254:23258   */\n      0x20\n        /* \"#utility.yul\":23246:23252   */\n      dup3\n        /* \"#utility.yul\":23242:23259   */\n      mul\n        /* \"#utility.yul\":23237:23240   */\n      dup6\n        /* \"#utility.yul\":23233:23260   */\n      add\n        /* \"#utility.yul\":23284:23350   */\n      tag_540\n        /* \"#utility.yul\":23344:23349   */\n      dup6\n        /* \"#utility.yul\":23284:23350   */\n      tag_541\n      jump\t// in\n    tag_540:\n        /* \"#utility.yul\":23373:23380   */\n      dup1\n        /* \"#utility.yul\":23404:23405   */\n      0x00\n        /* \"#utility.yul\":23389:23785   */\n    tag_542:\n        /* \"#utility.yul\":23414:23420   */\n      dup6\n        /* \"#utility.yul\":23411:23412   */\n      dup2\n        /* \"#utility.yul\":23408:23421   */\n      lt\n        /* \"#utility.yul\":23389:23785   */\n      iszero\n      tag_544\n      jumpi\n        /* \"#utility.yul\":23485:23494   */\n      dup5\n        /* \"#utility.yul\":23479:23483   */\n      dup5\n        /* \"#utility.yul\":23475:23495   */\n      sub\n        /* \"#utility.yul\":23470:23473   */\n      dup10\n        /* \"#utility.yul\":23463:23496   */\n      mstore\n        /* \"#utility.yul\":23536:23542   */\n      dup2\n        /* \"#utility.yul\":23530:23543   */\n      mload\n        /* \"#utility.yul\":23564:23648   */\n      tag_545\n        /* \"#utility.yul\":23643:23647   */\n      dup6\n        /* \"#utility.yul\":23628:23641   */\n      dup3\n        /* \"#utility.yul\":23564:23648   */\n      tag_494\n      jump\t// in\n    tag_545:\n        /* \"#utility.yul\":23556:23648   */\n      swap5\n      pop\n        /* \"#utility.yul\":23671:23741   */\n      tag_546\n        /* \"#utility.yul\":23734:23740   */\n      dup4\n        /* \"#utility.yul\":23671:23741   */\n      tag_547\n      jump\t// in\n    tag_546:\n        /* \"#utility.yul\":23661:23741   */\n      swap3\n      pop\n        /* \"#utility.yul\":23770:23774   */\n      0x20\n        /* \"#utility.yul\":23765:23768   */\n      dup11\n        /* \"#utility.yul\":23761:23775   */\n      add\n        /* \"#utility.yul\":23754:23775   */\n      swap10\n      pop\n        /* \"#utility.yul\":23449:23785   */\n      pop\n        /* \"#utility.yul\":23436:23437   */\n      0x01\n        /* \"#utility.yul\":23433:23434   */\n      dup2\n        /* \"#utility.yul\":23429:23438   */\n      add\n        /* \"#utility.yul\":23424:23438   */\n      swap1\n      pop\n        /* \"#utility.yul\":23389:23785   */\n      jump(tag_542)\n    tag_544:\n        /* \"#utility.yul\":23393:23407   */\n      pop\n        /* \"#utility.yul\":23801:23805   */\n      dup3\n        /* \"#utility.yul\":23794:23805   */\n      swap8\n      pop\n        /* \"#utility.yul\":23821:23824   */\n      dup8\n        /* \"#utility.yul\":23814:23824   */\n      swap6\n      pop\n        /* \"#utility.yul\":22983:23830   */\n      pop\n      pop\n      pop\n      pop\n      pop\n      swap3\n      swap2\n      pop\n      pop\n      jump\t// out\n        /* \"#utility.yul\":23904:24999   */\n    tag_548:\n      0x00\n        /* \"#utility.yul\":24098:24175   */\n      tag_550\n        /* \"#utility.yul\":24169:24174   */\n      dup3\n        /* \"#utility.yul\":24098:24175   */\n      tag_551\n      jump\t// in\n    tag_550:\n        /* \"#utility.yul\":24191:24300   */\n      tag_552\n        /* \"#utility.yul\":24293:24299   */\n      dup2\n        /* \"#utility.yul\":24288:24291   */\n      dup6\n        /* \"#utility.yul\":24191:24300   */\n      tag_553\n      jump\t// in\n    tag_552:\n        /* \"#utility.yul\":24184:24300   */\n      swap4\n      pop\n        /* \"#utility.yul\":24326:24329   */\n      dup4\n        /* \"#utility.yul\":24371:24375   */\n      0x20\n        /* \"#utility.yul\":24363:24369   */\n      dup3\n        /* \"#utility.yul\":24359:24376   */\n      mul\n        /* \"#utility.yul\":24354:24357   */\n      dup6\n        /* \"#utility.yul\":24350:24377   */\n      add\n        /* \"#utility.yul\":24401:24480   */\n      tag_554\n        /* \"#utility.yul\":24474:24479   */\n      dup6\n        /* \"#utility.yul\":24401:24480   */\n      tag_555\n      jump\t// in\n    tag_554:\n        /* \"#utility.yul\":24503:24510   */\n      dup1\n        /* \"#utility.yul\":24534:24535   */\n      0x00\n        /* \"#utility.yul\":24519:24954   */\n    tag_556:\n        /* \"#utility.yul\":24544:24550   */\n      dup6\n        /* \"#utility.yul\":24541:24542   */\n      dup2\n        /* \"#utility.yul\":24538:24551   */\n      lt\n        /* \"#utility.yul\":24519:24954   */\n      iszero\n      tag_558\n      jumpi\n        /* \"#utility.yul\":24615:24624   */\n      dup5\n        /* \"#utility.yul\":24609:24613   */\n      dup5\n        /* \"#utility.yul\":24605:24625   */\n      sub\n        /* \"#utility.yul\":24600:24603   */\n      dup10\n        /* \"#utility.yul\":24593:24626   */\n      mstore\n        /* \"#utility.yul\":24666:24672   */\n      dup2\n        /* \"#utility.yul\":24660:24673   */\n      mload\n        /* \"#utility.yul\":24694:24804   */\n      tag_559\n        /* \"#utility.yul\":24799:24803   */\n      dup6\n        /* \"#utility.yul\":24784:24797   */\n      dup3\n        /* \"#utility.yul\":24694:24804   */\n      tag_498\n      jump\t// in\n    tag_559:\n        /* \"#utility.yul\":24686:24804   */\n      swap5\n      pop\n        /* \"#utility.yul\":24827:24910   */\n      tag_560\n        /* \"#utility.yul\":24903:24909   */\n      dup4\n        /* \"#utility.yul\":24827:24910   */\n      tag_561\n      jump\t// in\n    tag_560:\n        /* \"#utility.yul\":24817:24910   */\n      swap3\n      pop\n        /* \"#utility.yul\":24939:24943   */\n      0x20\n        /* \"#utility.yul\":24934:24937   */\n      dup11\n        /* \"#utility.yul\":24930:24944   */\n      add\n        /* \"#utility.yul\":24923:24944   */\n      swap10\n      pop\n        /* \"#utility.yul\":24579:24954   */\n      pop\n        /* \"#utility.yul\":24566:24567   */\n      0x01\n        /* \"#utility.yul\":24563:24564   */\n      dup2\n        /* \"#utility.yul\":24559:24568   */\n      add\n        /* \"#utility.yul\":24554:24568   */\n      swap1\n      pop\n        /* \"#utility.yul\":24519:24954   */\n      jump(tag_556)\n    tag_558:\n        /* \"#utility.yul\":24523:24537   */\n      pop\n        /* \"#utility.yul\":24970:24974   */\n      dup3\n        /* \"#utility.yul\":24963:24974   */\n      swap8\n      pop\n        /* \"#utility.yul\":24990:24993   */\n      dup8\n        /* \"#utility.yul\":24983:24993   */\n      swap6\n      pop\n        /* \"#utility.yul\":24074:24999   */\n      pop\n      pop\n      pop\n      pop\n      pop\n      swap3\n      swap2\n      pop\n      pop\n      jump\t// out\n        /* \"#utility.yul\":25035:25767   */\n    tag_562:\n      0x00\n        /* \"#utility.yul\":25183:25237   */\n      tag_564\n        /* \"#utility.yul\":25231:25236   */\n      dup3\n        /* \"#utility.yul\":25183:25237   */\n      tag_565\n      jump\t// in\n    tag_564:\n        /* \"#utility.yul\":25253:25339   */\n      tag_566\n        /* \"#utility.yul\":25332:25338   */\n      dup2\n        /* \"#utility.yul\":25327:25330   */\n      dup6\n        /* \"#utility.yul\":25253:25339   */\n      tag_567\n      jump\t// in\n    tag_566:\n        /* \"#utility.yul\":25246:25339   */\n      swap4\n      pop\n        /* \"#utility.yul\":25363:25419   */\n      tag_568\n        /* \"#utility.yul\":25413:25418   */\n      dup4\n        /* \"#utility.yul\":25363:25419   */\n      tag_569\n      jump\t// in\n    tag_568:\n        /* \"#utility.yul\":25442:25449   */\n      dup1\n        /* \"#utility.yul\":25473:25474   */\n      0x00\n        /* \"#utility.yul\":25458:25742   */\n    tag_570:\n        /* \"#utility.yul\":25483:25489   */\n      dup4\n        /* \"#utility.yul\":25480:25481   */\n      dup2\n        /* \"#utility.yul\":25477:25490   */\n      lt\n        /* \"#utility.yul\":25458:25742   */\n      iszero\n      tag_572\n      jumpi\n        /* \"#utility.yul\":25559:25565   */\n      dup2\n        /* \"#utility.yul\":25553:25566   */\n      mload\n        /* \"#utility.yul\":25586:25649   */\n      tag_573\n        /* \"#utility.yul\":25645:25648   */\n      dup9\n        /* \"#utility.yul\":25630:25643   */\n      dup3\n        /* \"#utility.yul\":25586:25649   */\n      tag_502\n      jump\t// in\n    tag_573:\n        /* \"#utility.yul\":25579:25649   */\n      swap8\n      pop\n        /* \"#utility.yul\":25672:25732   */\n      tag_574\n        /* \"#utility.yul\":25725:25731   */\n      dup4\n        /* \"#utility.yul\":25672:25732   */\n      tag_575\n      jump\t// in\n    tag_574:\n        /* \"#utility.yul\":25662:25732   */\n      swap3\n      pop\n        /* \"#utility.yul\":25518:25742   */\n      pop\n        /* \"#utility.yul\":25505:25506   */\n      0x01\n        /* \"#utility.yul\":25502:25503   */\n      dup2\n        /* \"#utility.yul\":25498:25507   */\n      add\n        /* \"#utility.yul\":25493:25507   */\n      swap1\n      pop\n        /* \"#utility.yul\":25458:25742   */\n      jump(tag_570)\n    tag_572:\n        /* \"#utility.yul\":25462:25476   */\n      pop\n        /* \"#utility.yul\":25758:25761   */\n      dup6\n        /* \"#utility.yul\":25751:25761   */\n      swap4\n      pop\n        /* \"#utility.yul\":25159:25767   */\n      pop\n      pop\n      pop\n      swap3\n      swap2\n      pop\n      pop\n      jump\t// out\n        /* \"#utility.yul\":25803:26559   */\n    tag_576:\n      0x00\n        /* \"#utility.yul\":25959:26013   */\n      tag_578\n        /* \"#utility.yul\":26007:26012   */\n      dup3\n        /* \"#utility.yul\":25959:26013   */\n      tag_565\n      jump\t// in\n    tag_578:\n        /* \"#utility.yul\":26029:26123   */\n      tag_579\n        /* \"#utility.yul\":26116:26122   */\n      dup2\n        /* \"#utility.yul\":26111:26114   */\n      dup6\n        /* \"#utility.yul\":26029:26123   */\n      tag_580\n      jump\t// in\n    tag_579:\n        /* \"#utility.yul\":26022:26123   */\n      swap4\n      pop\n        /* \"#utility.yul\":26147:26203   */\n      tag_581\n        /* \"#utility.yul\":26197:26202   */\n      dup4\n        /* \"#utility.yul\":26147:26203   */\n      tag_569\n      jump\t// in\n    tag_581:\n        /* \"#utility.yul\":26226:26233   */\n      dup1\n        /* \"#utility.yul\":26257:26258   */\n      0x00\n        /* \"#utility.yul\":26242:26534   */\n    tag_582:\n        /* \"#utility.yul\":26267:26273   */\n      dup4\n        /* \"#utility.yul\":26264:26265   */\n      dup2\n        /* \"#utility.yul\":26261:26274   */\n      lt\n        /* \"#utility.yul\":26242:26534   */\n      iszero\n      tag_584\n      jumpi\n        /* \"#utility.yul\":26343:26349   */\n      dup2\n        /* \"#utility.yul\":26337:26350   */\n      mload\n        /* \"#utility.yul\":26370:26441   */\n      tag_585\n        /* \"#utility.yul\":26437:26440   */\n      dup9\n        /* \"#utility.yul\":26422:26435   */\n      dup3\n        /* \"#utility.yul\":26370:26441   */\n      tag_506\n      jump\t// in\n    tag_585:\n        /* \"#utility.yul\":26363:26441   */\n      swap8\n      pop\n        /* \"#utility.yul\":26464:26524   */\n      tag_586\n        /* \"#utility.yul\":26517:26523   */\n      dup4\n        /* \"#utility.yul\":26464:26524   */\n      tag_575\n      jump\t// in\n    tag_586:\n        /* \"#utility.yul\":26454:26524   */\n      swap3\n      pop\n        /* \"#utility.yul\":26302:26534   */\n      pop\n        /* \"#utility.yul\":26289:26290   */\n      0x01\n        /* \"#utility.yul\":26286:26287   */\n      dup2\n        /* \"#utility.yul\":26282:26291   */\n      add\n        /* \"#utility.yul\":26277:26291   */\n      swap1\n      pop\n        /* \"#utility.yul\":26242:26534   */\n      jump(tag_582)\n    tag_584:\n        /* \"#utility.yul\":26246:26260   */\n      pop\n        /* \"#utility.yul\":26550:26553   */\n      dup6\n        /* \"#utility.yul\":26543:26553   */\n      swap4\n      pop\n        /* \"#utility.yul\":25935:26559   */\n      pop\n      pop\n      pop\n      swap3\n      swap2\n      pop\n      pop\n      jump\t// out\n        /* \"#utility.yul\":26595:27331   */\n    tag_587:\n      0x00\n        /* \"#utility.yul\":26741:26795   */\n      tag_589\n        /* \"#utility.yul\":26789:26794   */\n      dup3\n        /* \"#utility.yul\":26741:26795   */\n      tag_565\n      jump\t// in\n    tag_589:\n        /* \"#utility.yul\":26811:26895   */\n      tag_590\n        /* \"#utility.yul\":26888:26894   */\n      dup2\n        /* \"#utility.yul\":26883:26886   */\n      dup6\n        /* \"#utility.yul\":26811:26895   */\n      tag_591\n      jump\t// in\n    tag_590:\n        /* \"#utility.yul\":26804:26895   */\n      swap4\n      pop\n        /* \"#utility.yul\":26919:26975   */\n      tag_592\n        /* \"#utility.yul\":26969:26974   */\n      dup4\n        /* \"#utility.yul\":26919:26975   */\n      tag_569\n      jump\t// in\n    tag_592:\n        /* \"#utility.yul\":26998:27005   */\n      dup1\n        /* \"#utility.yul\":27029:27030   */\n      0x00\n        /* \"#utility.yul\":27014:27306   */\n    tag_593:\n        /* \"#utility.yul\":27039:27045   */\n      dup4\n        /* \"#utility.yul\":27036:27037   */\n      dup2\n        /* \"#utility.yul\":27033:27046   */\n      lt\n        /* \"#utility.yul\":27014:27306   */\n      iszero\n      tag_595\n      jumpi\n        /* \"#utility.yul\":27115:27121   */\n      dup2\n        /* \"#utility.yul\":27109:27122   */\n      mload\n        /* \"#utility.yul\":27142:27213   */\n      tag_596\n        /* \"#utility.yul\":27209:27212   */\n      dup9\n        /* \"#utility.yul\":27194:27207   */\n      dup3\n        /* \"#utility.yul\":27142:27213   */\n      tag_506\n      jump\t// in\n    tag_596:\n        /* \"#utility.yul\":27135:27213   */\n      swap8\n      pop\n        /* \"#utility.yul\":27236:27296   */\n      tag_597\n        /* \"#utility.yul\":27289:27295   */\n      dup4\n        /* \"#utility.yul\":27236:27296   */\n      tag_575\n      jump\t// in\n    tag_597:\n        /* \"#utility.yul\":27226:27296   */\n      swap3\n      pop\n        /* \"#utility.yul\":27074:27306   */\n      pop\n        /* \"#utility.yul\":27061:27062   */\n      0x01\n        /* \"#utility.yul\":27058:27059   */\n      dup2\n        /* \"#utility.yul\":27054:27063   */\n      add\n        /* \"#utility.yul\":27049:27063   */\n      swap1\n      pop\n        /* \"#utility.yul\":27014:27306   */\n      jump(tag_593)\n    tag_595:\n        /* \"#utility.yul\":27018:27032   */\n      pop\n        /* \"#utility.yul\":27322:27325   */\n      dup6\n        /* \"#utility.yul\":27315:27325   */\n      swap4\n      pop\n        /* \"#utility.yul\":26717:27331   */\n      pop\n      pop\n      pop\n      swap3\n      swap2\n      pop\n      pop\n      jump\t// out\n        /* \"#utility.yul\":27337:27446   */\n    tag_598:\n        /* \"#utility.yul\":27418:27439   */\n      tag_600\n        /* \"#utility.yul\":27433:27438   */\n      dup2\n        /* \"#utility.yul\":27418:27439   */\n      tag_601\n      jump\t// in\n    tag_600:\n        /* \"#utility.yul\":27413:27416   */\n      dup3\n        /* \"#utility.yul\":27406:27440   */\n      mstore\n        /* \"#utility.yul\":27396:27446   */\n      pop\n      pop\n      jump\t// out\n        /* \"#utility.yul\":27452:27559   */\n    tag_602:\n        /* \"#utility.yul\":27531:27552   */\n      tag_604\n        /* \"#utility.yul\":27546:27551   */\n      dup2\n        /* \"#utility.yul\":27531:27552   */\n      tag_601\n      jump\t// in\n    tag_604:\n        /* \"#utility.yul\":27526:27529   */\n      dup3\n        /* \"#utility.yul\":27519:27553   */\n      mstore\n        /* \"#utility.yul\":27509:27559   */\n      pop\n      pop\n      jump\t// out\n        /* \"#utility.yul\":27565:27722   */\n    tag_605:\n        /* \"#utility.yul\":27664:27715   */\n      tag_607\n        /* \"#utility.yul\":27709:27714   */\n      dup2\n        /* \"#utility.yul\":27664:27715   */\n      tag_608\n      jump\t// in\n    tag_607:\n        /* \"#utility.yul\":27659:27662   */\n      dup3\n        /* \"#utility.yul\":27652:27716   */\n      mstore\n        /* \"#utility.yul\":27642:27722   */\n      pop\n      pop\n      jump\t// out\n        /* \"#utility.yul\":27728:27885   */\n    tag_609:\n        /* \"#utility.yul\":27828:27878   */\n      tag_611\n        /* \"#utility.yul\":27872:27877   */\n      dup2\n        /* \"#utility.yul\":27828:27878   */\n      tag_612\n      jump\t// in\n    tag_611:\n        /* \"#utility.yul\":27823:27826   */\n      dup3\n        /* \"#utility.yul\":27816:27879   */\n      mstore\n        /* \"#utility.yul\":27806:27885   */\n      pop\n      pop\n      jump\t// out\n        /* \"#utility.yul\":27891:28056   */\n    tag_613:\n        /* \"#utility.yul\":27999:28049   */\n      tag_615\n        /* \"#utility.yul\":28043:28048   */\n      dup2\n        /* \"#utility.yul\":27999:28049   */\n      tag_612\n      jump\t// in\n    tag_615:\n        /* \"#utility.yul\":27994:27997   */\n      dup3\n        /* \"#utility.yul\":27987:28050   */\n      mstore\n        /* \"#utility.yul\":27977:28056   */\n      pop\n      pop\n      jump\t// out\n        /* \"#utility.yul\":28062:28217   */\n    tag_616:\n        /* \"#utility.yul\":28160:28210   */\n      tag_618\n        /* \"#utility.yul\":28204:28209   */\n      dup2\n        /* \"#utility.yul\":28160:28210   */\n      tag_612\n      jump\t// in\n    tag_618:\n        /* \"#utility.yul\":28155:28158   */\n      dup3\n        /* \"#utility.yul\":28148:28211   */\n      mstore\n        /* \"#utility.yul\":28138:28217   */\n      pop\n      pop\n      jump\t// out\n        /* \"#utility.yul\":28223:28372   */\n    tag_619:\n        /* \"#utility.yul\":28318:28365   */\n      tag_621\n        /* \"#utility.yul\":28359:28364   */\n      dup2\n        /* \"#utility.yul\":28318:28365   */\n      tag_622\n      jump\t// in\n    tag_621:\n        /* \"#utility.yul\":28313:28316   */\n      dup3\n        /* \"#utility.yul\":28306:28366   */\n      mstore\n        /* \"#utility.yul\":28296:28372   */\n      pop\n      pop\n      jump\t// out\n        /* \"#utility.yul\":28378:28491   */\n    tag_493:\n        /* \"#utility.yul\":28461:28484   */\n      tag_624\n        /* \"#utility.yul\":28478:28483   */\n      dup2\n        /* \"#utility.yul\":28461:28484   */\n      tag_625\n      jump\t// in\n    tag_624:\n        /* \"#utility.yul\":28456:28459   */\n      dup3\n        /* \"#utility.yul\":28449:28485   */\n      mstore\n        /* \"#utility.yul\":28439:28491   */\n      pop\n      pop\n      jump\t// out\n        /* \"#utility.yul\":28521:28838   */\n    tag_626:\n      0x00\n        /* \"#utility.yul\":28658:28747   */\n      tag_628\n        /* \"#utility.yul\":28740:28746   */\n      dup4\n        /* \"#utility.yul\":28735:28738   */\n      dup6\n        /* \"#utility.yul\":28658:28747   */\n      tag_629\n      jump\t// in\n    tag_628:\n        /* \"#utility.yul\":28651:28747   */\n      swap4\n      pop\n        /* \"#utility.yul\":28757:28800   */\n      tag_630\n        /* \"#utility.yul\":28793:28799   */\n      dup4\n        /* \"#utility.yul\":28788:28791   */\n      dup6\n        /* \"#utility.yul\":28781:28786   */\n      dup5\n        /* \"#utility.yul\":28757:28800   */\n      tag_304\n      jump\t// in\n    tag_630:\n        /* \"#utility.yul\":28825:28831   */\n      dup3\n        /* \"#utility.yul\":28820:28823   */\n      dup5\n        /* \"#utility.yul\":28816:28832   */\n      add\n        /* \"#utility.yul\":28809:28832   */\n      swap1\n      pop\n        /* \"#utility.yul\":28641:28838   */\n      swap4\n      swap3\n      pop\n      pop\n      pop\n      jump\t// out\n        /* \"#utility.yul\":28844:29188   */\n    tag_497:\n      0x00\n        /* \"#utility.yul\":28950:28989   */\n      tag_632\n        /* \"#utility.yul\":28983:28988   */\n      dup3\n        /* \"#utility.yul\":28950:28989   */\n      tag_633\n      jump\t// in\n    tag_632:\n        /* \"#utility.yul\":29005:29066   */\n      tag_634\n        /* \"#utility.yul\":29059:29065   */\n      dup2\n        /* \"#utility.yul\":29054:29057   */\n      dup6\n        /* \"#utility.yul\":29005:29066   */\n      tag_635\n      jump\t// in\n    tag_634:\n        /* \"#utility.yul\":28998:29066   */\n      swap4\n      pop\n        /* \"#utility.yul\":29075:29127   */\n      tag_636\n        /* \"#utility.yul\":29120:29126   */\n      dup2\n        /* \"#utility.yul\":29115:29118   */\n      dup6\n        /* \"#utility.yul\":29108:29112   */\n      0x20\n        /* \"#utility.yul\":29101:29106   */\n      dup7\n        /* \"#utility.yul\":29097:29113   */\n      add\n        /* \"#utility.yul\":29075:29127   */\n      tag_311\n      jump\t// in\n    tag_636:\n        /* \"#utility.yul\":29152:29181   */\n      tag_637\n        /* \"#utility.yul\":29174:29180   */\n      dup2\n        /* \"#utility.yul\":29152:29181   */\n      tag_638\n      jump\t// in\n    tag_637:\n        /* \"#utility.yul\":29147:29150   */\n      dup5\n        /* \"#utility.yul\":29143:29182   */\n      add\n        /* \"#utility.yul\":29136:29182   */\n      swap2\n      pop\n        /* \"#utility.yul\":28926:29188   */\n      pop\n      swap3\n      swap2\n      pop\n      pop\n      jump\t// out\n        /* \"#utility.yul\":29194:29558   */\n    tag_639:\n      0x00\n        /* \"#utility.yul\":29310:29349   */\n      tag_641\n        /* \"#utility.yul\":29343:29348   */\n      dup3\n        /* \"#utility.yul\":29310:29349   */\n      tag_633\n      jump\t// in\n    tag_641:\n        /* \"#utility.yul\":29365:29436   */\n      tag_642\n        /* \"#utility.yul\":29429:29435   */\n      dup2\n        /* \"#utility.yul\":29424:29427   */\n      dup6\n        /* \"#utility.yul\":29365:29436   */\n      tag_643\n      jump\t// in\n    tag_642:\n        /* \"#utility.yul\":29358:29436   */\n      swap4\n      pop\n        /* \"#utility.yul\":29445:29497   */\n      tag_644\n        /* \"#utility.yul\":29490:29496   */\n      dup2\n        /* \"#utility.yul\":29485:29488   */\n      dup6\n        /* \"#utility.yul\":29478:29482   */\n      0x20\n        /* \"#utility.yul\":29471:29476   */\n      dup7\n        /* \"#utility.yul\":29467:29483   */\n      add\n        /* \"#utility.yul\":29445:29497   */\n      tag_311\n      jump\t// in\n    tag_644:\n        /* \"#utility.yul\":29522:29551   */\n      tag_645\n        /* \"#utility.yul\":29544:29550   */\n      dup2\n        /* \"#utility.yul\":29522:29551   */\n      tag_638\n      jump\t// in\n    tag_645:\n        /* \"#utility.yul\":29517:29520   */\n      dup5\n        /* \"#utility.yul\":29513:29552   */\n      add\n        /* \"#utility.yul\":29506:29552   */\n      swap2\n      pop\n        /* \"#utility.yul\":29286:29558   */\n      pop\n      swap3\n      swap2\n      pop\n      pop\n      jump\t// out\n        /* \"#utility.yul\":29564:29944   */\n    tag_646:\n      0x00\n        /* \"#utility.yul\":29688:29727   */\n      tag_648\n        /* \"#utility.yul\":29721:29726   */\n      dup3\n        /* \"#utility.yul\":29688:29727   */\n      tag_633\n      jump\t// in\n    tag_648:\n        /* \"#utility.yul\":29743:29822   */\n      tag_649\n        /* \"#utility.yul\":29815:29821   */\n      dup2\n        /* \"#utility.yul\":29810:29813   */\n      dup6\n        /* \"#utility.yul\":29743:29822   */\n      tag_650\n      jump\t// in\n    tag_649:\n        /* \"#utility.yul\":29736:29822   */\n      swap4\n      pop\n        /* \"#utility.yul\":29831:29883   */\n      tag_651\n        /* \"#utility.yul\":29876:29882   */\n      dup2\n        /* \"#utility.yul\":29871:29874   */\n      dup6\n        /* \"#utility.yul\":29864:29868   */\n      0x20\n        /* \"#utility.yul\":29857:29862   */\n      dup7\n        /* \"#utility.yul\":29853:29869   */\n      add\n        /* \"#utility.yul\":29831:29883   */\n      tag_311\n      jump\t// in\n    tag_651:\n        /* \"#utility.yul\":29908:29937   */\n      tag_652\n        /* \"#utility.yul\":29930:29936   */\n      dup2\n        /* \"#utility.yul\":29908:29937   */\n      tag_638\n      jump\t// in\n    tag_652:\n        /* \"#utility.yul\":29903:29906   */\n      dup5\n        /* \"#utility.yul\":29899:29938   */\n      add\n        /* \"#utility.yul\":29892:29938   */\n      swap2\n      pop\n        /* \"#utility.yul\":29664:29944   */\n      pop\n      swap3\n      swap2\n      pop\n      pop\n      jump\t// out\n        /* \"#utility.yul\":29950:30310   */\n    tag_653:\n      0x00\n        /* \"#utility.yul\":30064:30103   */\n      tag_655\n        /* \"#utility.yul\":30097:30102   */\n      dup3\n        /* \"#utility.yul\":30064:30103   */\n      tag_633\n      jump\t// in\n    tag_655:\n        /* \"#utility.yul\":30119:30188   */\n      tag_656\n        /* \"#utility.yul\":30181:30187   */\n      dup2\n        /* \"#utility.yul\":30176:30179   */\n      dup6\n        /* \"#utility.yul\":30119:30188   */\n      tag_657\n      jump\t// in\n    tag_656:\n        /* \"#utility.yul\":30112:30188   */\n      swap4\n      pop\n        /* \"#utility.yul\":30197:30249   */\n      tag_658\n        /* \"#utility.yul\":30242:30248   */\n      dup2\n        /* \"#utility.yul\":30237:30240   */\n      dup6\n        /* \"#utility.yul\":30230:30234   */\n      0x20\n        /* \"#utility.yul\":30223:30228   */\n      dup7\n        /* \"#utility.yul\":30219:30235   */\n      add\n        /* \"#utility.yul\":30197:30249   */\n      tag_311\n      jump\t// in\n    tag_658:\n        /* \"#utility.yul\":30274:30303   */\n      tag_659\n        /* \"#utility.yul\":30296:30302   */\n      dup2\n        /* \"#utility.yul\":30274:30303   */\n      tag_638\n      jump\t// in\n    tag_659:\n        /* \"#utility.yul\":30269:30272   */\n      dup5\n        /* \"#utility.yul\":30265:30304   */\n      add\n        /* \"#utility.yul\":30258:30304   */\n      swap2\n      pop\n        /* \"#utility.yul\":30040:30310   */\n      pop\n      swap3\n      swap2\n      pop\n      pop\n      jump\t// out\n        /* \"#utility.yul\":30316:30693   */\n    tag_660:\n      0x00\n        /* \"#utility.yul\":30450:30489   */\n      tag_662\n        /* \"#utility.yul\":30483:30488   */\n      dup3\n        /* \"#utility.yul\":30450:30489   */\n      tag_633\n      jump\t// in\n    tag_662:\n        /* \"#utility.yul\":30505:30594   */\n      tag_663\n        /* \"#utility.yul\":30587:30593   */\n      dup2\n        /* \"#utility.yul\":30582:30585   */\n      dup6\n        /* \"#utility.yul\":30505:30594   */\n      tag_629\n      jump\t// in\n    tag_663:\n        /* \"#utility.yul\":30498:30594   */\n      swap4\n      pop\n        /* \"#utility.yul\":30603:30655   */\n      tag_664\n        /* \"#utility.yul\":30648:30654   */\n      dup2\n        /* \"#utility.yul\":30643:30646   */\n      dup6\n        /* \"#utility.yul\":30636:30640   */\n      0x20\n        /* \"#utility.yul\":30629:30634   */\n      dup7\n        /* \"#utility.yul\":30625:30641   */\n      add\n        /* \"#utility.yul\":30603:30655   */\n      tag_311\n      jump\t// in\n    tag_664:\n        /* \"#utility.yul\":30680:30686   */\n      dup1\n        /* \"#utility.yul\":30675:30678   */\n      dup5\n        /* \"#utility.yul\":30671:30687   */\n      add\n        /* \"#utility.yul\":30664:30687   */\n      swap2\n      pop\n        /* \"#utility.yul\":30426:30693   */\n      pop\n      swap3\n      swap2\n      pop\n      pop\n      jump\t// out\n        /* \"#utility.yul\":30699:31019   */\n    tag_665:\n      0x00\n        /* \"#utility.yul\":30862:30929   */\n      tag_667\n        /* \"#utility.yul\":30926:30928   */\n      0x16\n        /* \"#utility.yul\":30921:30924   */\n      dup4\n        /* \"#utility.yul\":30862:30929   */\n      tag_643\n      jump\t// in\n    tag_667:\n        /* \"#utility.yul\":30855:30929   */\n      swap2\n      pop\n        /* \"#utility.yul\":30959:30983   */\n      0x444f204e4f5420524550454154205441534b5321212100000000000000000000\n        /* \"#utility.yul\":30955:30956   */\n      0x00\n        /* \"#utility.yul\":30950:30953   */\n      dup4\n        /* \"#utility.yul\":30946:30957   */\n      add\n        /* \"#utility.yul\":30939:30984   */\n      mstore\n        /* \"#utility.yul\":31010:31012   */\n      0x20\n        /* \"#utility.yul\":31005:31008   */\n      dup3\n        /* \"#utility.yul\":31001:31013   */\n      add\n        /* \"#utility.yul\":30994:31013   */\n      swap1\n      pop\n        /* \"#utility.yul\":30845:31019   */\n      swap2\n      swap1\n      pop\n      jump\t// out\n        /* \"#utility.yul\":31089:31683   */\n    tag_501:\n      0x00\n        /* \"#utility.yul\":31230:31234   */\n      0x40\n        /* \"#utility.yul\":31225:31228   */\n      dup4\n        /* \"#utility.yul\":31221:31235   */\n      add\n        /* \"#utility.yul\":31315:31319   */\n      0x00\n        /* \"#utility.yul\":31308:31313   */\n      dup4\n        /* \"#utility.yul\":31304:31320   */\n      add\n        /* \"#utility.yul\":31298:31321   */\n      mload\n        /* \"#utility.yul\":31334:31397   */\n      tag_669\n        /* \"#utility.yul\":31391:31395   */\n      0x00\n        /* \"#utility.yul\":31386:31389   */\n      dup7\n        /* \"#utility.yul\":31382:31396   */\n      add\n        /* \"#utility.yul\":31368:31380   */\n      dup3\n        /* \"#utility.yul\":31334:31397   */\n      tag_505\n      jump\t// in\n    tag_669:\n        /* \"#utility.yul\":31245:31407   */\n      pop\n        /* \"#utility.yul\":31493:31497   */\n      0x20\n        /* \"#utility.yul\":31486:31491   */\n      dup4\n        /* \"#utility.yul\":31482:31498   */\n      add\n        /* \"#utility.yul\":31476:31499   */\n      mload\n        /* \"#utility.yul\":31546:31549   */\n      dup5\n        /* \"#utility.yul\":31540:31544   */\n      dup3\n        /* \"#utility.yul\":31536:31550   */\n      sub\n        /* \"#utility.yul\":31529:31533   */\n      0x20\n        /* \"#utility.yul\":31524:31527   */\n      dup7\n        /* \"#utility.yul\":31520:31534   */\n      add\n        /* \"#utility.yul\":31513:31551   */\n      mstore\n        /* \"#utility.yul\":31572:31645   */\n      tag_670\n        /* \"#utility.yul\":31640:31644   */\n      dup3\n        /* \"#utility.yul\":31626:31638   */\n      dup3\n        /* \"#utility.yul\":31572:31645   */\n      tag_497\n      jump\t// in\n    tag_670:\n        /* \"#utility.yul\":31564:31645   */\n      swap2\n      pop\n        /* \"#utility.yul\":31417:31656   */\n      pop\n        /* \"#utility.yul\":31673:31677   */\n      dup1\n        /* \"#utility.yul\":31666:31677   */\n      swap2\n      pop\n        /* \"#utility.yul\":31199:31683   */\n      pop\n      swap3\n      swap2\n      pop\n      pop\n      jump\t// out\n        /* \"#utility.yul\":31765:33899   */\n    tag_671:\n      0x00\n        /* \"#utility.yul\":31918:31924   */\n      0x0120\n        /* \"#utility.yul\":31913:31916   */\n      dup4\n        /* \"#utility.yul\":31909:31925   */\n      add\n        /* \"#utility.yul\":32010:32014   */\n      0x00\n        /* \"#utility.yul\":32003:32008   */\n      dup4\n        /* \"#utility.yul\":31999:32015   */\n      add\n        /* \"#utility.yul\":31993:32016   */\n      mload\n        /* \"#utility.yul\":32029:32100   */\n      tag_673\n        /* \"#utility.yul\":32094:32098   */\n      0x00\n        /* \"#utility.yul\":32089:32092   */\n      dup7\n        /* \"#utility.yul\":32085:32099   */\n      add\n        /* \"#utility.yul\":32071:32083   */\n      dup3\n        /* \"#utility.yul\":32029:32100   */\n      tag_509\n      jump\t// in\n    tag_673:\n        /* \"#utility.yul\":31935:32110   */\n      pop\n        /* \"#utility.yul\":32199:32203   */\n      0x20\n        /* \"#utility.yul\":32192:32197   */\n      dup4\n        /* \"#utility.yul\":32188:32204   */\n      add\n        /* \"#utility.yul\":32182:32205   */\n      mload\n        /* \"#utility.yul\":32218:32302   */\n      tag_674\n        /* \"#utility.yul\":32296:32300   */\n      0x20\n        /* \"#utility.yul\":32291:32294   */\n      dup7\n        /* \"#utility.yul\":32287:32301   */\n      add\n        /* \"#utility.yul\":32273:32285   */\n      dup3\n        /* \"#utility.yul\":32218:32302   */\n      tag_616\n      jump\t// in\n    tag_674:\n        /* \"#utility.yul\":32120:32312   */\n      pop\n        /* \"#utility.yul\":32395:32399   */\n      0x40\n        /* \"#utility.yul\":32388:32393   */\n      dup4\n        /* \"#utility.yul\":32384:32400   */\n      add\n        /* \"#utility.yul\":32378:32401   */\n      mload\n        /* \"#utility.yul\":32414:32499   */\n      tag_675\n        /* \"#utility.yul\":32493:32497   */\n      0x40\n        /* \"#utility.yul\":32488:32491   */\n      dup7\n        /* \"#utility.yul\":32484:32498   */\n      add\n        /* \"#utility.yul\":32470:32482   */\n      dup3\n        /* \"#utility.yul\":32414:32499   */\n      tag_605\n      jump\t// in\n    tag_675:\n        /* \"#utility.yul\":32322:32509   */\n      pop\n        /* \"#utility.yul\":32596:32600   */\n      0x60\n        /* \"#utility.yul\":32589:32594   */\n      dup4\n        /* \"#utility.yul\":32585:32601   */\n      add\n        /* \"#utility.yul\":32579:32602   */\n      mload\n        /* \"#utility.yul\":32615:32680   */\n      tag_676\n        /* \"#utility.yul\":32674:32678   */\n      0x60\n        /* \"#utility.yul\":32669:32672   */\n      dup7\n        /* \"#utility.yul\":32665:32679   */\n      add\n        /* \"#utility.yul\":32651:32663   */\n      dup3\n        /* \"#utility.yul\":32615:32680   */\n      tag_602\n      jump\t// in\n    tag_676:\n        /* \"#utility.yul\":32519:32690   */\n      pop\n        /* \"#utility.yul\":32774:32778   */\n      0x80\n        /* \"#utility.yul\":32767:32772   */\n      dup4\n        /* \"#utility.yul\":32763:32779   */\n      add\n        /* \"#utility.yul\":32757:32780   */\n      mload\n        /* \"#utility.yul\":32793:32858   */\n      tag_677\n        /* \"#utility.yul\":32852:32856   */\n      0x80\n        /* \"#utility.yul\":32847:32850   */\n      dup7\n        /* \"#utility.yul\":32843:32857   */\n      add\n        /* \"#utility.yul\":32829:32841   */\n      dup3\n        /* \"#utility.yul\":32793:32858   */\n      tag_602\n      jump\t// in\n    tag_677:\n        /* \"#utility.yul\":32700:32868   */\n      pop\n        /* \"#utility.yul\":32954:32958   */\n      0xa0\n        /* \"#utility.yul\":32947:32952   */\n      dup4\n        /* \"#utility.yul\":32943:32959   */\n      add\n        /* \"#utility.yul\":32937:32960   */\n      mload\n        /* \"#utility.yul\":32973:33054   */\n      tag_678\n        /* \"#utility.yul\":33048:33052   */\n      0xa0\n        /* \"#utility.yul\":33043:33046   */\n      dup7\n        /* \"#utility.yul\":33039:33053   */\n      add\n        /* \"#utility.yul\":33025:33037   */\n      dup3\n        /* \"#utility.yul\":32973:33054   */\n      tag_619\n      jump\t// in\n    tag_678:\n        /* \"#utility.yul\":32878:33064   */\n      pop\n        /* \"#utility.yul\":33157:33161   */\n      0xc0\n        /* \"#utility.yul\":33150:33155   */\n      dup4\n        /* \"#utility.yul\":33146:33162   */\n      add\n        /* \"#utility.yul\":33140:33163   */\n      mload\n        /* \"#utility.yul\":33210:33213   */\n      dup5\n        /* \"#utility.yul\":33204:33208   */\n      dup3\n        /* \"#utility.yul\":33200:33214   */\n      sub\n        /* \"#utility.yul\":33193:33197   */\n      0xc0\n        /* \"#utility.yul\":33188:33191   */\n      dup7\n        /* \"#utility.yul\":33184:33198   */\n      add\n        /* \"#utility.yul\":33177:33215   */\n      mstore\n        /* \"#utility.yul\":33236:33317   */\n      tag_679\n        /* \"#utility.yul\":33312:33316   */\n      dup3\n        /* \"#utility.yul\":33298:33310   */\n      dup3\n        /* \"#utility.yul\":33236:33317   */\n      tag_653\n      jump\t// in\n    tag_679:\n        /* \"#utility.yul\":33228:33317   */\n      swap2\n      pop\n        /* \"#utility.yul\":33074:33328   */\n      pop\n        /* \"#utility.yul\":33413:33417   */\n      0xe0\n        /* \"#utility.yul\":33406:33411   */\n      dup4\n        /* \"#utility.yul\":33402:33418   */\n      add\n        /* \"#utility.yul\":33396:33419   */\n      mload\n        /* \"#utility.yul\":33466:33469   */\n      dup5\n        /* \"#utility.yul\":33460:33464   */\n      dup3\n        /* \"#utility.yul\":33456:33470   */\n      sub\n        /* \"#utility.yul\":33449:33453   */\n      0xe0\n        /* \"#utility.yul\":33444:33447   */\n      dup7\n        /* \"#utility.yul\":33440:33454   */\n      add\n        /* \"#utility.yul\":33433:33471   */\n      mstore\n        /* \"#utility.yul\":33492:33573   */\n      tag_680\n        /* \"#utility.yul\":33568:33572   */\n      dup3\n        /* \"#utility.yul\":33554:33566   */\n      dup3\n        /* \"#utility.yul\":33492:33573   */\n      tag_653\n      jump\t// in\n    tag_680:\n        /* \"#utility.yul\":33484:33573   */\n      swap2\n      pop\n        /* \"#utility.yul\":33338:33584   */\n      pop\n        /* \"#utility.yul\":33669:33675   */\n      0x0100\n        /* \"#utility.yul\":33662:33667   */\n      dup4\n        /* \"#utility.yul\":33658:33676   */\n      add\n        /* \"#utility.yul\":33652:33677   */\n      mload\n        /* \"#utility.yul\":33726:33729   */\n      dup5\n        /* \"#utility.yul\":33720:33724   */\n      dup3\n        /* \"#utility.yul\":33716:33730   */\n      sub\n        /* \"#utility.yul\":33707:33713   */\n      0x0100\n        /* \"#utility.yul\":33702:33705   */\n      dup7\n        /* \"#utility.yul\":33698:33714   */\n      add\n        /* \"#utility.yul\":33691:33731   */\n      mstore\n        /* \"#utility.yul\":33752:33861   */\n      tag_681\n        /* \"#utility.yul\":33856:33860   */\n      dup3\n        /* \"#utility.yul\":33842:33854   */\n      dup3\n        /* \"#utility.yul\":33752:33861   */\n      tag_520\n      jump\t// in\n    tag_681:\n        /* \"#utility.yul\":33744:33861   */\n      swap2\n      pop\n        /* \"#utility.yul\":33594:33872   */\n      pop\n        /* \"#utility.yul\":33889:33893   */\n      dup1\n        /* \"#utility.yul\":33882:33893   */\n      swap2\n      pop\n        /* \"#utility.yul\":31887:33899   */\n      pop\n      swap3\n      swap2\n      pop\n      pop\n      jump\t// out\n        /* \"#utility.yul\":33905:34031   */\n    tag_682:\n        /* \"#utility.yul\":34019:34024   */\n      dup1\n        /* \"#utility.yul\":34014:34017   */\n      dup3\n        /* \"#utility.yul\":34007:34025   */\n      mstore\n        /* \"#utility.yul\":33997:34031   */\n      pop\n      pop\n      jump\t// out\n        /* \"#utility.yul\":34097:35995   */\n    tag_684:\n      0x00\n        /* \"#utility.yul\":34252:34256   */\n      0xe0\n        /* \"#utility.yul\":34247:34250   */\n      dup4\n        /* \"#utility.yul\":34243:34257   */\n      add\n        /* \"#utility.yul\":34343:34347   */\n      0x00\n        /* \"#utility.yul\":34336:34341   */\n      dup4\n        /* \"#utility.yul\":34332:34348   */\n      add\n        /* \"#utility.yul\":34326:34349   */\n      mload\n        /* \"#utility.yul\":34396:34399   */\n      dup5\n        /* \"#utility.yul\":34390:34394   */\n      dup3\n        /* \"#utility.yul\":34386:34400   */\n      sub\n        /* \"#utility.yul\":34379:34383   */\n      0x00\n        /* \"#utility.yul\":34374:34377   */\n      dup7\n        /* \"#utility.yul\":34370:34384   */\n      add\n        /* \"#utility.yul\":34363:34401   */\n      mstore\n        /* \"#utility.yul\":34422:34503   */\n      tag_686\n        /* \"#utility.yul\":34498:34502   */\n      dup3\n        /* \"#utility.yul\":34484:34496   */\n      dup3\n        /* \"#utility.yul\":34422:34503   */\n      tag_653\n      jump\t// in\n    tag_686:\n        /* \"#utility.yul\":34414:34503   */\n      swap2\n      pop\n        /* \"#utility.yul\":34267:34514   */\n      pop\n        /* \"#utility.yul\":34604:34608   */\n      0x20\n        /* \"#utility.yul\":34597:34602   */\n      dup4\n        /* \"#utility.yul\":34593:34609   */\n      add\n        /* \"#utility.yul\":34587:34610   */\n      mload\n        /* \"#utility.yul\":34623:34694   */\n      tag_687\n        /* \"#utility.yul\":34688:34692   */\n      0x20\n        /* \"#utility.yul\":34683:34686   */\n      dup7\n        /* \"#utility.yul\":34679:34693   */\n      add\n        /* \"#utility.yul\":34665:34677   */\n      dup3\n        /* \"#utility.yul\":34623:34694   */\n      tag_517\n      jump\t// in\n    tag_687:\n        /* \"#utility.yul\":34524:34704   */\n      pop\n        /* \"#utility.yul\":34791:34795   */\n      0x40\n        /* \"#utility.yul\":34784:34789   */\n      dup4\n        /* \"#utility.yul\":34780:34796   */\n      add\n        /* \"#utility.yul\":34774:34797   */\n      mload\n        /* \"#utility.yul\":34810:34875   */\n      tag_688\n        /* \"#utility.yul\":34869:34873   */\n      0x40\n        /* \"#utility.yul\":34864:34867   */\n      dup7\n        /* \"#utility.yul\":34860:34874   */\n      add\n        /* \"#utility.yul\":34846:34858   */\n      dup3\n        /* \"#utility.yul\":34810:34875   */\n      tag_602\n      jump\t// in\n    tag_688:\n        /* \"#utility.yul\":34714:34885   */\n      pop\n        /* \"#utility.yul\":34987:34991   */\n      0x60\n        /* \"#utility.yul\":34980:34985   */\n      dup4\n        /* \"#utility.yul\":34976:34992   */\n      add\n        /* \"#utility.yul\":34970:34993   */\n      mload\n        /* \"#utility.yul\":35006:35090   */\n      tag_689\n        /* \"#utility.yul\":35084:35088   */\n      0x60\n        /* \"#utility.yul\":35079:35082   */\n      dup7\n        /* \"#utility.yul\":35075:35089   */\n      add\n        /* \"#utility.yul\":35061:35073   */\n      dup3\n        /* \"#utility.yul\":35006:35090   */\n      tag_616\n      jump\t// in\n    tag_689:\n        /* \"#utility.yul\":34895:35100   */\n      pop\n        /* \"#utility.yul\":35190:35194   */\n      0x80\n        /* \"#utility.yul\":35183:35188   */\n      dup4\n        /* \"#utility.yul\":35179:35195   */\n      add\n        /* \"#utility.yul\":35173:35196   */\n      mload\n        /* \"#utility.yul\":35243:35246   */\n      dup5\n        /* \"#utility.yul\":35237:35241   */\n      dup3\n        /* \"#utility.yul\":35233:35247   */\n      sub\n        /* \"#utility.yul\":35226:35230   */\n      0x80\n        /* \"#utility.yul\":35221:35224   */\n      dup7\n        /* \"#utility.yul\":35217:35231   */\n      add\n        /* \"#utility.yul\":35210:35248   */\n      mstore\n        /* \"#utility.yul\":35269:35380   */\n      tag_690\n        /* \"#utility.yul\":35375:35379   */\n      dup3\n        /* \"#utility.yul\":35361:35373   */\n      dup3\n        /* \"#utility.yul\":35269:35380   */\n      tag_587\n      jump\t// in\n    tag_690:\n        /* \"#utility.yul\":35261:35380   */\n      swap2\n      pop\n        /* \"#utility.yul\":35110:35391   */\n      pop\n        /* \"#utility.yul\":35480:35484   */\n      0xa0\n        /* \"#utility.yul\":35473:35478   */\n      dup4\n        /* \"#utility.yul\":35469:35485   */\n      add\n        /* \"#utility.yul\":35463:35486   */\n      mload\n        /* \"#utility.yul\":35533:35536   */\n      dup5\n        /* \"#utility.yul\":35527:35531   */\n      dup3\n        /* \"#utility.yul\":35523:35537   */\n      sub\n        /* \"#utility.yul\":35516:35520   */\n      0xa0\n        /* \"#utility.yul\":35511:35514   */\n      dup7\n        /* \"#utility.yul\":35507:35521   */\n      add\n        /* \"#utility.yul\":35500:35538   */\n      mstore\n        /* \"#utility.yul\":35559:35670   */\n      tag_691\n        /* \"#utility.yul\":35665:35669   */\n      dup3\n        /* \"#utility.yul\":35651:35663   */\n      dup3\n        /* \"#utility.yul\":35559:35670   */\n      tag_587\n      jump\t// in\n    tag_691:\n        /* \"#utility.yul\":35551:35670   */\n      swap2\n      pop\n        /* \"#utility.yul\":35401:35681   */\n      pop\n        /* \"#utility.yul\":35767:35771   */\n      0xc0\n        /* \"#utility.yul\":35760:35765   */\n      dup4\n        /* \"#utility.yul\":35756:35772   */\n      add\n        /* \"#utility.yul\":35750:35773   */\n      mload\n        /* \"#utility.yul\":35820:35823   */\n      dup5\n        /* \"#utility.yul\":35814:35818   */\n      dup3\n        /* \"#utility.yul\":35810:35824   */\n      sub\n        /* \"#utility.yul\":35803:35807   */\n      0xc0\n        /* \"#utility.yul\":35798:35801   */\n      dup7\n        /* \"#utility.yul\":35794:35808   */\n      add\n        /* \"#utility.yul\":35787:35825   */\n      mstore\n        /* \"#utility.yul\":35846:35957   */\n      tag_692\n        /* \"#utility.yul\":35952:35956   */\n      dup3\n        /* \"#utility.yul\":35938:35950   */\n      dup3\n        /* \"#utility.yul\":35846:35957   */\n      tag_671\n      jump\t// in\n    tag_692:\n        /* \"#utility.yul\":35838:35957   */\n      swap2\n      pop\n        /* \"#utility.yul\":35691:35968   */\n      pop\n        /* \"#utility.yul\":35985:35989   */\n      dup1\n        /* \"#utility.yul\":35978:35989   */\n      swap2\n      pop\n        /* \"#utility.yul\":34221:35995   */\n      pop\n      swap3\n      swap2\n      pop\n      pop\n      jump\t// out\n        /* \"#utility.yul\":36001:36109   */\n    tag_505:\n        /* \"#utility.yul\":36078:36102   */\n      tag_694\n        /* \"#utility.yul\":36096:36101   */\n      dup2\n        /* \"#utility.yul\":36078:36102   */\n      tag_695\n      jump\t// in\n    tag_694:\n        /* \"#utility.yul\":36073:36076   */\n      dup3\n        /* \"#utility.yul\":36066:36103   */\n      mstore\n        /* \"#utility.yul\":36056:36109   */\n      pop\n      pop\n      jump\t// out\n        /* \"#utility.yul\":36115:36233   */\n    tag_696:\n        /* \"#utility.yul\":36202:36226   */\n      tag_698\n        /* \"#utility.yul\":36220:36225   */\n      dup2\n        /* \"#utility.yul\":36202:36226   */\n      tag_695\n      jump\t// in\n    tag_698:\n        /* \"#utility.yul\":36197:36200   */\n      dup3\n        /* \"#utility.yul\":36190:36227   */\n      mstore\n        /* \"#utility.yul\":36180:36233   */\n      pop\n      pop\n      jump\t// out\n        /* \"#utility.yul\":36239:36365   */\n    tag_699:\n        /* \"#utility.yul\":36334:36358   */\n      tag_701\n        /* \"#utility.yul\":36352:36357   */\n      dup2\n        /* \"#utility.yul\":36334:36358   */\n      tag_695\n      jump\t// in\n    tag_701:\n        /* \"#utility.yul\":36329:36332   */\n      dup3\n        /* \"#utility.yul\":36322:36359   */\n      mstore\n        /* \"#utility.yul\":36312:36365   */\n      pop\n      pop\n      jump\t// out\n        /* \"#utility.yul\":36371:36487   */\n    tag_509:\n        /* \"#utility.yul\":36456:36480   */\n      tag_703\n        /* \"#utility.yul\":36474:36479   */\n      dup2\n        /* \"#utility.yul\":36456:36480   */\n      tag_695\n      jump\t// in\n    tag_703:\n        /* \"#utility.yul\":36451:36454   */\n      dup3\n        /* \"#utility.yul\":36444:36481   */\n      mstore\n        /* \"#utility.yul\":36434:36487   */\n      pop\n      pop\n      jump\t// out\n        /* \"#utility.yul\":36493:36788   */\n    tag_110:\n      0x00\n        /* \"#utility.yul\":36657:36762   */\n      tag_705\n        /* \"#utility.yul\":36758:36761   */\n      dup3\n        /* \"#utility.yul\":36749:36755   */\n      dup5\n        /* \"#utility.yul\":36741:36747   */\n      dup7\n        /* \"#utility.yul\":36657:36762   */\n      tag_626\n      jump\t// in\n    tag_705:\n        /* \"#utility.yul\":36650:36762   */\n      swap2\n      pop\n        /* \"#utility.yul\":36779:36782   */\n      dup2\n        /* \"#utility.yul\":36772:36782   */\n      swap1\n      pop\n        /* \"#utility.yul\":36639:36788   */\n      swap4\n      swap3\n      pop\n      pop\n      pop\n      jump\t// out\n        /* \"#utility.yul\":36794:37069   */\n    tag_207:\n      0x00\n        /* \"#utility.yul\":36948:37043   */\n      tag_707\n        /* \"#utility.yul\":37039:37042   */\n      dup3\n        /* \"#utility.yul\":37030:37036   */\n      dup5\n        /* \"#utility.yul\":36948:37043   */\n      tag_660\n      jump\t// in\n    tag_707:\n        /* \"#utility.yul\":36941:37043   */\n      swap2\n      pop\n        /* \"#utility.yul\":37060:37063   */\n      dup2\n        /* \"#utility.yul\":37053:37063   */\n      swap1\n      pop\n        /* \"#utility.yul\":36930:37069   */\n      swap3\n      swap2\n      pop\n      pop\n      jump\t// out\n        /* \"#utility.yul\":37075:37488   */\n    tag_33:\n      0x00\n        /* \"#utility.yul\":37276:37278   */\n      0x20\n        /* \"#utility.yul\":37265:37274   */\n      dup3\n        /* \"#utility.yul\":37261:37279   */\n      add\n        /* \"#utility.yul\":37253:37279   */\n      swap1\n      pop\n        /* \"#utility.yul\":37325:37334   */\n      dup2\n        /* \"#utility.yul\":37319:37323   */\n      dup2\n        /* \"#utility.yul\":37315:37335   */\n      sub\n        /* \"#utility.yul\":37311:37312   */\n      0x00\n        /* \"#utility.yul\":37300:37309   */\n      dup4\n        /* \"#utility.yul\":37296:37313   */\n      add\n        /* \"#utility.yul\":37289:37336   */\n      mstore\n        /* \"#utility.yul\":37353:37481   */\n      tag_709\n        /* \"#utility.yul\":37476:37480   */\n      dup2\n        /* \"#utility.yul\":37467:37473   */\n      dup5\n        /* \"#utility.yul\":37353:37481   */\n      tag_534\n      jump\t// in\n    tag_709:\n        /* \"#utility.yul\":37345:37481   */\n      swap1\n      pop\n        /* \"#utility.yul\":37243:37488   */\n      swap3\n      swap2\n      pop\n      pop\n      jump\t// out\n        /* \"#utility.yul\":37494:37959   */\n    tag_42:\n      0x00\n        /* \"#utility.yul\":37721:37723   */\n      0x20\n        /* \"#utility.yul\":37710:37719   */\n      dup3\n        /* \"#utility.yul\":37706:37724   */\n      add\n        /* \"#utility.yul\":37698:37724   */\n      swap1\n      pop\n        /* \"#utility.yul\":37770:37779   */\n      dup2\n        /* \"#utility.yul\":37764:37768   */\n      dup2\n        /* \"#utility.yul\":37760:37780   */\n      sub\n        /* \"#utility.yul\":37756:37757   */\n      0x00\n        /* \"#utility.yul\":37745:37754   */\n      dup4\n        /* \"#utility.yul\":37741:37758   */\n      add\n        /* \"#utility.yul\":37734:37781   */\n      mstore\n        /* \"#utility.yul\":37798:37952   */\n      tag_711\n        /* \"#utility.yul\":37947:37951   */\n      dup2\n        /* \"#utility.yul\":37938:37944   */\n      dup5\n        /* \"#utility.yul\":37798:37952   */\n      tag_548\n      jump\t// in\n    tag_711:\n        /* \"#utility.yul\":37790:37952   */\n      swap1\n      pop\n        /* \"#utility.yul\":37688:37959   */\n      swap3\n      swap2\n      pop\n      pop\n      jump\t// out\n        /* \"#utility.yul\":37965:38338   */\n    tag_46:\n      0x00\n        /* \"#utility.yul\":38146:38148   */\n      0x20\n        /* \"#utility.yul\":38135:38144   */\n      dup3\n        /* \"#utility.yul\":38131:38149   */\n      add\n        /* \"#utility.yul\":38123:38149   */\n      swap1\n      pop\n        /* \"#utility.yul\":38195:38204   */\n      dup2\n        /* \"#utility.yul\":38189:38193   */\n      dup2\n        /* \"#utility.yul\":38185:38205   */\n      sub\n        /* \"#utility.yul\":38181:38182   */\n      0x00\n        /* \"#utility.yul\":38170:38179   */\n      dup4\n        /* \"#utility.yul\":38166:38183   */\n      add\n        /* \"#utility.yul\":38159:38206   */\n      mstore\n        /* \"#utility.yul\":38223:38331   */\n      tag_713\n        /* \"#utility.yul\":38326:38330   */\n      dup2\n        /* \"#utility.yul\":38317:38323   */\n      dup5\n        /* \"#utility.yul\":38223:38331   */\n      tag_562\n      jump\t// in\n    tag_713:\n        /* \"#utility.yul\":38215:38331   */\n      swap1\n      pop\n        /* \"#utility.yul\":38113:38338   */\n      swap3\n      swap2\n      pop\n      pop\n      jump\t// out\n        /* \"#utility.yul\":38344:38554   */\n    tag_61:\n      0x00\n        /* \"#utility.yul\":38469:38471   */\n      0x20\n        /* \"#utility.yul\":38458:38467   */\n      dup3\n        /* \"#utility.yul\":38454:38472   */\n      add\n        /* \"#utility.yul\":38446:38472   */\n      swap1\n      pop\n        /* \"#utility.yul\":38482:38547   */\n      tag_715\n        /* \"#utility.yul\":38544:38545   */\n      0x00\n        /* \"#utility.yul\":38533:38542   */\n      dup4\n        /* \"#utility.yul\":38529:38546   */\n      add\n        /* \"#utility.yul\":38520:38526   */\n      dup5\n        /* \"#utility.yul\":38482:38547   */\n      tag_598\n      jump\t// in\n    tag_715:\n        /* \"#utility.yul\":38436:38554   */\n      swap3\n      swap2\n      pop\n      pop\n      jump\t// out\n        /* \"#utility.yul\":38560:39742   */\n    tag_56:\n      0x00\n        /* \"#utility.yul\":38958:38961   */\n      0xc0\n        /* \"#utility.yul\":38947:38956   */\n      dup3\n        /* \"#utility.yul\":38943:38962   */\n      add\n        /* \"#utility.yul\":38935:38962   */\n      swap1\n      pop\n        /* \"#utility.yul\":38972:39037   */\n      tag_717\n        /* \"#utility.yul\":39034:39035   */\n      0x00\n        /* \"#utility.yul\":39023:39032   */\n      dup4\n        /* \"#utility.yul\":39019:39036   */\n      add\n        /* \"#utility.yul\":39010:39016   */\n      dup10\n        /* \"#utility.yul\":38972:39037   */\n      tag_598\n      jump\t// in\n    tag_717:\n        /* \"#utility.yul\":39084:39093   */\n      dup2\n        /* \"#utility.yul\":39078:39082   */\n      dup2\n        /* \"#utility.yul\":39074:39094   */\n      sub\n        /* \"#utility.yul\":39069:39071   */\n      0x20\n        /* \"#utility.yul\":39058:39067   */\n      dup4\n        /* \"#utility.yul\":39054:39072   */\n      add\n        /* \"#utility.yul\":39047:39095   */\n      mstore\n        /* \"#utility.yul\":39112:39190   */\n      tag_718\n        /* \"#utility.yul\":39185:39189   */\n      dup2\n        /* \"#utility.yul\":39176:39182   */\n      dup9\n        /* \"#utility.yul\":39112:39190   */\n      tag_639\n      jump\t// in\n    tag_718:\n        /* \"#utility.yul\":39104:39190   */\n      swap1\n      pop\n        /* \"#utility.yul\":39200:39272   */\n      tag_719\n        /* \"#utility.yul\":39268:39270   */\n      0x40\n        /* \"#utility.yul\":39257:39266   */\n      dup4\n        /* \"#utility.yul\":39253:39271   */\n      add\n        /* \"#utility.yul\":39244:39250   */\n      dup8\n        /* \"#utility.yul\":39200:39272   */\n      tag_510\n      jump\t// in\n    tag_719:\n        /* \"#utility.yul\":39282:39367   */\n      tag_720\n        /* \"#utility.yul\":39363:39365   */\n      0x60\n        /* \"#utility.yul\":39352:39361   */\n      dup4\n        /* \"#utility.yul\":39348:39366   */\n      add\n        /* \"#utility.yul\":39339:39345   */\n      dup7\n        /* \"#utility.yul\":39282:39367   */\n      tag_609\n      jump\t// in\n    tag_720:\n        /* \"#utility.yul\":39415:39424   */\n      dup2\n        /* \"#utility.yul\":39409:39413   */\n      dup2\n        /* \"#utility.yul\":39405:39425   */\n      sub\n        /* \"#utility.yul\":39399:39402   */\n      0x80\n        /* \"#utility.yul\":39388:39397   */\n      dup4\n        /* \"#utility.yul\":39384:39403   */\n      add\n        /* \"#utility.yul\":39377:39426   */\n      mstore\n        /* \"#utility.yul\":39443:39551   */\n      tag_721\n        /* \"#utility.yul\":39546:39550   */\n      dup2\n        /* \"#utility.yul\":39537:39543   */\n      dup6\n        /* \"#utility.yul\":39443:39551   */\n      tag_562\n      jump\t// in\n    tag_721:\n        /* \"#utility.yul\":39435:39551   */\n      swap1\n      pop\n        /* \"#utility.yul\":39599:39608   */\n      dup2\n        /* \"#utility.yul\":39593:39597   */\n      dup2\n        /* \"#utility.yul\":39589:39609   */\n      sub\n        /* \"#utility.yul\":39583:39586   */\n      0xa0\n        /* \"#utility.yul\":39572:39581   */\n      dup4\n        /* \"#utility.yul\":39568:39587   */\n      add\n        /* \"#utility.yul\":39561:39610   */\n      mstore\n        /* \"#utility.yul\":39627:39735   */\n      tag_722\n        /* \"#utility.yul\":39730:39734   */\n      dup2\n        /* \"#utility.yul\":39721:39727   */\n      dup5\n        /* \"#utility.yul\":39627:39735   */\n      tag_562\n      jump\t// in\n    tag_722:\n        /* \"#utility.yul\":39619:39735   */\n      swap1\n      pop\n        /* \"#utility.yul\":38925:39742   */\n      swap8\n      swap7\n      pop\n      pop\n      pop\n      pop\n      pop\n      pop\n      pop\n      jump\t// out\n        /* \"#utility.yul\":39748:40061   */\n    tag_38:\n      0x00\n        /* \"#utility.yul\":39899:39901   */\n      0x20\n        /* \"#utility.yul\":39888:39897   */\n      dup3\n        /* \"#utility.yul\":39884:39902   */\n      add\n        /* \"#utility.yul\":39876:39902   */\n      swap1\n      pop\n        /* \"#utility.yul\":39948:39957   */\n      dup2\n        /* \"#utility.yul\":39942:39946   */\n      dup2\n        /* \"#utility.yul\":39938:39958   */\n      sub\n        /* \"#utility.yul\":39934:39935   */\n      0x00\n        /* \"#utility.yul\":39923:39932   */\n      dup4\n        /* \"#utility.yul\":39919:39936   */\n      add\n        /* \"#utility.yul\":39912:39959   */\n      mstore\n        /* \"#utility.yul\":39976:40054   */\n      tag_724\n        /* \"#utility.yul\":40049:40053   */\n      dup2\n        /* \"#utility.yul\":40040:40046   */\n      dup5\n        /* \"#utility.yul\":39976:40054   */\n      tag_639\n      jump\t// in\n    tag_724:\n        /* \"#utility.yul\":39968:40054   */\n      swap1\n      pop\n        /* \"#utility.yul\":39866:40061   */\n      swap3\n      swap2\n      pop\n      pop\n      jump\t// out\n        /* \"#utility.yul\":40067:41198   */\n    tag_80:\n      0x00\n        /* \"#utility.yul\":40451:40454   */\n      0xa0\n        /* \"#utility.yul\":40440:40449   */\n      dup3\n        /* \"#utility.yul\":40436:40455   */\n      add\n        /* \"#utility.yul\":40428:40455   */\n      swap1\n      pop\n        /* \"#utility.yul\":40501:40510   */\n      dup2\n        /* \"#utility.yul\":40495:40499   */\n      dup2\n        /* \"#utility.yul\":40491:40511   */\n      sub\n        /* \"#utility.yul\":40487:40488   */\n      0x00\n        /* \"#utility.yul\":40476:40485   */\n      dup4\n        /* \"#utility.yul\":40472:40489   */\n      add\n        /* \"#utility.yul\":40465:40512   */\n      mstore\n        /* \"#utility.yul\":40529:40615   */\n      tag_726\n        /* \"#utility.yul\":40610:40614   */\n      dup2\n        /* \"#utility.yul\":40601:40607   */\n      dup9\n        /* \"#utility.yul\":40529:40615   */\n      tag_646\n      jump\t// in\n    tag_726:\n        /* \"#utility.yul\":40521:40615   */\n      swap1\n      pop\n        /* \"#utility.yul\":40625:40705   */\n      tag_727\n        /* \"#utility.yul\":40701:40703   */\n      0x20\n        /* \"#utility.yul\":40690:40699   */\n      dup4\n        /* \"#utility.yul\":40686:40704   */\n      add\n        /* \"#utility.yul\":40677:40683   */\n      dup8\n        /* \"#utility.yul\":40625:40705   */\n      tag_514\n      jump\t// in\n    tag_727:\n        /* \"#utility.yul\":40715:40808   */\n      tag_728\n        /* \"#utility.yul\":40804:40806   */\n      0x40\n        /* \"#utility.yul\":40793:40802   */\n      dup4\n        /* \"#utility.yul\":40789:40807   */\n      add\n        /* \"#utility.yul\":40780:40786   */\n      dup7\n        /* \"#utility.yul\":40715:40808   */\n      tag_613\n      jump\t// in\n    tag_728:\n        /* \"#utility.yul\":40855:40864   */\n      dup2\n        /* \"#utility.yul\":40849:40853   */\n      dup2\n        /* \"#utility.yul\":40845:40865   */\n      sub\n        /* \"#utility.yul\":40840:40842   */\n      0x60\n        /* \"#utility.yul\":40829:40838   */\n      dup4\n        /* \"#utility.yul\":40825:40843   */\n      add\n        /* \"#utility.yul\":40818:40866   */\n      mstore\n        /* \"#utility.yul\":40883:40999   */\n      tag_729\n        /* \"#utility.yul\":40994:40998   */\n      dup2\n        /* \"#utility.yul\":40985:40991   */\n      dup6\n        /* \"#utility.yul\":40883:40999   */\n      tag_576\n      jump\t// in\n    tag_729:\n        /* \"#utility.yul\":40875:40999   */\n      swap1\n      pop\n        /* \"#utility.yul\":41047:41056   */\n      dup2\n        /* \"#utility.yul\":41041:41045   */\n      dup2\n        /* \"#utility.yul\":41037:41057   */\n      sub\n        /* \"#utility.yul\":41031:41034   */\n      0x80\n        /* \"#utility.yul\":41020:41029   */\n      dup4\n        /* \"#utility.yul\":41016:41035   */\n      add\n        /* \"#utility.yul\":41009:41058   */\n      mstore\n        /* \"#utility.yul\":41075:41191   */\n      tag_730\n        /* \"#utility.yul\":41186:41190   */\n      dup2\n        /* \"#utility.yul\":41177:41183   */\n      dup5\n        /* \"#utility.yul\":41075:41191   */\n      tag_576\n      jump\t// in\n    tag_730:\n        /* \"#utility.yul\":41067:41191   */\n      swap1\n      pop\n        /* \"#utility.yul\":40418:41198   */\n      swap7\n      swap6\n      pop\n      pop\n      pop\n      pop\n      pop\n      pop\n      jump\t// out\n        /* \"#utility.yul\":41204:41623   */\n    tag_154:\n      0x00\n        /* \"#utility.yul\":41408:41410   */\n      0x20\n        /* \"#utility.yul\":41397:41406   */\n      dup3\n        /* \"#utility.yul\":41393:41411   */\n      add\n        /* \"#utility.yul\":41385:41411   */\n      swap1\n      pop\n        /* \"#utility.yul\":41457:41466   */\n      dup2\n        /* \"#utility.yul\":41451:41455   */\n      dup2\n        /* \"#utility.yul\":41447:41467   */\n      sub\n        /* \"#utility.yul\":41443:41444   */\n      0x00\n        /* \"#utility.yul\":41432:41441   */\n      dup4\n        /* \"#utility.yul\":41428:41445   */\n      add\n        /* \"#utility.yul\":41421:41468   */\n      mstore\n        /* \"#utility.yul\":41485:41616   */\n      tag_732\n        /* \"#utility.yul\":41611:41615   */\n      dup2\n        /* \"#utility.yul\":41485:41616   */\n      tag_665\n      jump\t// in\n    tag_732:\n        /* \"#utility.yul\":41477:41616   */\n      swap1\n      pop\n        /* \"#utility.yul\":41375:41623   */\n      swap2\n      swap1\n      pop\n      jump\t// out\n        /* \"#utility.yul\":41629:42158   */\n    tag_185:\n      0x00\n        /* \"#utility.yul\":41857:41859   */\n      0x40\n        /* \"#utility.yul\":41846:41855   */\n      dup3\n        /* \"#utility.yul\":41842:41860   */\n      add\n        /* \"#utility.yul\":41834:41860   */\n      swap1\n      pop\n        /* \"#utility.yul\":41906:41915   */\n      dup2\n        /* \"#utility.yul\":41900:41904   */\n      dup2\n        /* \"#utility.yul\":41896:41916   */\n      sub\n        /* \"#utility.yul\":41892:41893   */\n      0x00\n        /* \"#utility.yul\":41881:41890   */\n      dup4\n        /* \"#utility.yul\":41877:41894   */\n      add\n        /* \"#utility.yul\":41870:41917   */\n      mstore\n        /* \"#utility.yul\":41934:42042   */\n      tag_734\n        /* \"#utility.yul\":42037:42041   */\n      dup2\n        /* \"#utility.yul\":42028:42034   */\n      dup6\n        /* \"#utility.yul\":41934:42042   */\n      tag_684\n      jump\t// in\n    tag_734:\n        /* \"#utility.yul\":41926:42042   */\n      swap1\n      pop\n        /* \"#utility.yul\":42052:42151   */\n      tag_735\n        /* \"#utility.yul\":42147:42149   */\n      0x20\n        /* \"#utility.yul\":42136:42145   */\n      dup4\n        /* \"#utility.yul\":42132:42150   */\n      add\n        /* \"#utility.yul\":42123:42129   */\n      dup5\n        /* \"#utility.yul\":42052:42151   */\n      tag_682\n      jump\t// in\n    tag_735:\n        /* \"#utility.yul\":41824:42158   */\n      swap4\n      swap3\n      pop\n      pop\n      pop\n      jump\t// out\n        /* \"#utility.yul\":42164:42386   */\n    tag_51:\n      0x00\n        /* \"#utility.yul\":42295:42297   */\n      0x20\n        /* \"#utility.yul\":42284:42293   */\n      dup3\n        /* \"#utility.yul\":42280:42298   */\n      add\n        /* \"#utility.yul\":42272:42298   */\n      swap1\n      pop\n        /* \"#utility.yul\":42308:42379   */\n      tag_737\n        /* \"#utility.yul\":42376:42377   */\n      0x00\n        /* \"#utility.yul\":42365:42374   */\n      dup4\n        /* \"#utility.yul\":42361:42378   */\n      add\n        /* \"#utility.yul\":42352:42358   */\n      dup5\n        /* \"#utility.yul\":42308:42379   */\n      tag_696\n      jump\t// in\n    tag_737:\n        /* \"#utility.yul\":42262:42386   */\n      swap3\n      swap2\n      pop\n      pop\n      jump\t// out\n        /* \"#utility.yul\":42392:42815   */\n    tag_21:\n      0x00\n        /* \"#utility.yul\":42571:42573   */\n      0x40\n        /* \"#utility.yul\":42560:42569   */\n      dup3\n        /* \"#utility.yul\":42556:42574   */\n      add\n        /* \"#utility.yul\":42548:42574   */\n      swap1\n      pop\n        /* \"#utility.yul\":42584:42655   */\n      tag_739\n        /* \"#utility.yul\":42652:42653   */\n      0x00\n        /* \"#utility.yul\":42641:42650   */\n      dup4\n        /* \"#utility.yul\":42637:42654   */\n      add\n        /* \"#utility.yul\":42628:42634   */\n      dup6\n        /* \"#utility.yul\":42584:42655   */\n      tag_696\n      jump\t// in\n    tag_739:\n        /* \"#utility.yul\":42702:42711   */\n      dup2\n        /* \"#utility.yul\":42696:42700   */\n      dup2\n        /* \"#utility.yul\":42692:42712   */\n      sub\n        /* \"#utility.yul\":42687:42689   */\n      0x20\n        /* \"#utility.yul\":42676:42685   */\n      dup4\n        /* \"#utility.yul\":42672:42690   */\n      add\n        /* \"#utility.yul\":42665:42713   */\n      mstore\n        /* \"#utility.yul\":42730:42808   */\n      tag_740\n        /* \"#utility.yul\":42803:42807   */\n      dup2\n        /* \"#utility.yul\":42794:42800   */\n      dup5\n        /* \"#utility.yul\":42730:42808   */\n      tag_639\n      jump\t// in\n    tag_740:\n        /* \"#utility.yul\":42722:42808   */\n      swap1\n      pop\n        /* \"#utility.yul\":42538:42815   */\n      swap4\n      swap3\n      pop\n      pop\n      pop\n      jump\t// out\n        /* \"#utility.yul\":42821:43312   */\n    tag_100:\n      0x00\n        /* \"#utility.yul\":43030:43032   */\n      0x40\n        /* \"#utility.yul\":43019:43028   */\n      dup3\n        /* \"#utility.yul\":43015:43033   */\n      add\n        /* \"#utility.yul\":43007:43033   */\n      swap1\n      pop\n        /* \"#utility.yul\":43043:43122   */\n      tag_742\n        /* \"#utility.yul\":43119:43120   */\n      0x00\n        /* \"#utility.yul\":43108:43117   */\n      dup4\n        /* \"#utility.yul\":43104:43121   */\n      add\n        /* \"#utility.yul\":43095:43101   */\n      dup6\n        /* \"#utility.yul\":43043:43122   */\n      tag_699\n      jump\t// in\n    tag_742:\n        /* \"#utility.yul\":43169:43178   */\n      dup2\n        /* \"#utility.yul\":43163:43167   */\n      dup2\n        /* \"#utility.yul\":43159:43179   */\n      sub\n        /* \"#utility.yul\":43154:43156   */\n      0x20\n        /* \"#utility.yul\":43143:43152   */\n      dup4\n        /* \"#utility.yul\":43139:43157   */\n      add\n        /* \"#utility.yul\":43132:43180   */\n      mstore\n        /* \"#utility.yul\":43197:43305   */\n      tag_743\n        /* \"#utility.yul\":43300:43304   */\n      dup2\n        /* \"#utility.yul\":43291:43297   */\n      dup5\n        /* \"#utility.yul\":43197:43305   */\n      tag_684\n      jump\t// in\n    tag_743:\n        /* \"#utility.yul\":43189:43305   */\n      swap1\n      pop\n        /* \"#utility.yul\":42997:43312   */\n      swap4\n      swap3\n      pop\n      pop\n      pop\n      jump\t// out\n        /* \"#utility.yul\":43318:43601   */\n    tag_259:\n      0x00\n        /* \"#utility.yul\":43384:43386   */\n      0x40\n        /* \"#utility.yul\":43378:43387   */\n      mload\n        /* \"#utility.yul\":43368:43387   */\n      swap1\n      pop\n        /* \"#utility.yul\":43426:43430   */\n      dup2\n        /* \"#utility.yul\":43418:43424   */\n      dup2\n        /* \"#utility.yul\":43414:43431   */\n      add\n        /* \"#utility.yul\":43533:43539   */\n      dup2\n        /* \"#utility.yul\":43521:43531   */\n      dup2\n        /* \"#utility.yul\":43518:43540   */\n      lt\n        /* \"#utility.yul\":43497:43515   */\n      0xffffffffffffffff\n        /* \"#utility.yul\":43485:43495   */\n      dup3\n        /* \"#utility.yul\":43482:43516   */\n      gt\n        /* \"#utility.yul\":43479:43541   */\n      or\n        /* \"#utility.yul\":43476:43478   */\n      iszero\n      tag_745\n      jumpi\n        /* \"#utility.yul\":43544:43562   */\n      tag_746\n      tag_747\n      jump\t// in\n    tag_746:\n        /* \"#utility.yul\":43476:43478   */\n    tag_745:\n        /* \"#utility.yul\":43584:43594   */\n      dup1\n        /* \"#utility.yul\":43580:43582   */\n      0x40\n        /* \"#utility.yul\":43573:43595   */\n      mstore\n        /* \"#utility.yul\":43358:43601   */\n      pop\n      swap2\n      swap1\n      pop\n      jump\t// out\n        /* \"#utility.yul\":43607:43917   */\n    tag_258:\n      0x00\n        /* \"#utility.yul\":43773:43791   */\n      0xffffffffffffffff\n        /* \"#utility.yul\":43765:43771   */\n      dup3\n        /* \"#utility.yul\":43762:43792   */\n      gt\n        /* \"#utility.yul\":43759:43761   */\n      iszero\n      tag_749\n      jumpi\n        /* \"#utility.yul\":43795:43813   */\n      tag_750\n      tag_747\n      jump\t// in\n    tag_750:\n        /* \"#utility.yul\":43759:43761   */\n    tag_749:\n        /* \"#utility.yul\":43845:43849   */\n      0x20\n        /* \"#utility.yul\":43837:43843   */\n      dup3\n        /* \"#utility.yul\":43833:43850   */\n      mul\n        /* \"#utility.yul\":43825:43850   */\n      swap1\n      pop\n        /* \"#utility.yul\":43905:43909   */\n      0x20\n        /* \"#utility.yul\":43899:43903   */\n      dup2\n        /* \"#utility.yul\":43895:43910   */\n      add\n        /* \"#utility.yul\":43887:43910   */\n      swap1\n      pop\n        /* \"#utility.yul\":43688:43917   */\n      swap2\n      swap1\n      pop\n      jump\t// out\n        /* \"#utility.yul\":43923:44234   */\n    tag_280:\n      0x00\n        /* \"#utility.yul\":44090:44108   */\n      0xffffffffffffffff\n        /* \"#utility.yul\":44082:44088   */\n      dup3\n        /* \"#utility.yul\":44079:44109   */\n      gt\n        /* \"#utility.yul\":44076:44078   */\n      iszero\n      tag_752\n      jumpi\n        /* \"#utility.yul\":44112:44130   */\n      tag_753\n      tag_747\n      jump\t// in\n    tag_753:\n        /* \"#utility.yul\":44076:44078   */\n    tag_752:\n        /* \"#utility.yul\":44162:44166   */\n      0x20\n        /* \"#utility.yul\":44154:44160   */\n      dup3\n        /* \"#utility.yul\":44150:44167   */\n      mul\n        /* \"#utility.yul\":44142:44167   */\n      swap1\n      pop\n        /* \"#utility.yul\":44222:44226   */\n      0x20\n        /* \"#utility.yul\":44216:44220   */\n      dup2\n        /* \"#utility.yul\":44212:44227   */\n      add\n        /* \"#utility.yul\":44204:44227   */\n      swap1\n      pop\n        /* \"#utility.yul\":44005:44234   */\n      swap2\n      swap1\n      pop\n      jump\t// out\n        /* \"#utility.yul\":44240:44572   */\n    tag_301:\n      0x00\n        /* \"#utility.yul\":44392:44410   */\n      0xffffffffffffffff\n        /* \"#utility.yul\":44384:44390   */\n      dup3\n        /* \"#utility.yul\":44381:44411   */\n      gt\n        /* \"#utility.yul\":44378:44380   */\n      iszero\n      tag_755\n      jumpi\n        /* \"#utility.yul\":44414:44432   */\n      tag_756\n      tag_747\n      jump\t// in\n    tag_756:\n        /* \"#utility.yul\":44378:44380   */\n    tag_755:\n        /* \"#utility.yul\":44499:44503   */\n      0x1f\n        /* \"#utility.yul\":44495:44504   */\n      not\n        /* \"#utility.yul\":44488:44492   */\n      0x1f\n        /* \"#utility.yul\":44480:44486   */\n      dup4\n        /* \"#utility.yul\":44476:44493   */\n      add\n        /* \"#utility.yul\":44472:44505   */\n      and\n        /* \"#utility.yul\":44464:44505   */\n      swap1\n      pop\n        /* \"#utility.yul\":44560:44564   */\n      0x20\n        /* \"#utility.yul\":44554:44558   */\n      dup2\n        /* \"#utility.yul\":44550:44565   */\n      add\n        /* \"#utility.yul\":44542:44565   */\n      swap1\n      pop\n        /* \"#utility.yul\":44307:44572   */\n      swap2\n      swap1\n      pop\n      jump\t// out\n        /* \"#utility.yul\":44578:44709   */\n    tag_527:\n      0x00\n        /* \"#utility.yul\":44667:44670   */\n      dup2\n        /* \"#utility.yul\":44659:44670   */\n      swap1\n      pop\n        /* \"#utility.yul\":44697:44701   */\n      0x20\n        /* \"#utility.yul\":44692:44695   */\n      dup3\n        /* \"#utility.yul\":44688:44702   */\n      add\n        /* \"#utility.yul\":44680:44702   */\n      swap1\n      pop\n        /* \"#utility.yul\":44649:44709   */\n      swap2\n      swap1\n      pop\n      jump\t// out\n        /* \"#utility.yul\":44715:44857   */\n    tag_541:\n      0x00\n        /* \"#utility.yul\":44815:44818   */\n      dup2\n        /* \"#utility.yul\":44807:44818   */\n      swap1\n      pop\n        /* \"#utility.yul\":44845:44849   */\n      0x20\n        /* \"#utility.yul\":44840:44843   */\n      dup3\n        /* \"#utility.yul\":44836:44850   */\n      add\n        /* \"#utility.yul\":44828:44850   */\n      swap1\n      pop\n        /* \"#utility.yul\":44797:44857   */\n      swap2\n      swap1\n      pop\n      jump\t// out\n        /* \"#utility.yul\":44863:45018   */\n    tag_555:\n      0x00\n        /* \"#utility.yul\":44976:44979   */\n      dup2\n        /* \"#utility.yul\":44968:44979   */\n      swap1\n      pop\n        /* \"#utility.yul\":45006:45010   */\n      0x20\n        /* \"#utility.yul\":45001:45004   */\n      dup3\n        /* \"#utility.yul\":44997:45011   */\n      add\n        /* \"#utility.yul\":44989:45011   */\n      swap1\n      pop\n        /* \"#utility.yul\":44958:45018   */\n      swap2\n      swap1\n      pop\n      jump\t// out\n        /* \"#utility.yul\":45024:45156   */\n    tag_569:\n      0x00\n        /* \"#utility.yul\":45114:45117   */\n      dup2\n        /* \"#utility.yul\":45106:45117   */\n      swap1\n      pop\n        /* \"#utility.yul\":45144:45148   */\n      0x20\n        /* \"#utility.yul\":45139:45142   */\n      dup3\n        /* \"#utility.yul\":45135:45149   */\n      add\n        /* \"#utility.yul\":45127:45149   */\n      swap1\n      pop\n        /* \"#utility.yul\":45096:45156   */\n      swap2\n      swap1\n      pop\n      jump\t// out\n        /* \"#utility.yul\":45162:45275   */\n    tag_523:\n      0x00\n        /* \"#utility.yul\":45262:45267   */\n      dup2\n        /* \"#utility.yul\":45256:45268   */\n      mload\n        /* \"#utility.yul\":45246:45268   */\n      swap1\n      pop\n        /* \"#utility.yul\":45235:45275   */\n      swap2\n      swap1\n      pop\n      jump\t// out\n        /* \"#utility.yul\":45281:45405   */\n    tag_537:\n      0x00\n        /* \"#utility.yul\":45392:45397   */\n      dup2\n        /* \"#utility.yul\":45386:45398   */\n      mload\n        /* \"#utility.yul\":45376:45398   */\n      swap1\n      pop\n        /* \"#utility.yul\":45365:45405   */\n      swap2\n      swap1\n      pop\n      jump\t// out\n        /* \"#utility.yul\":45411:45548   */\n    tag_551:\n      0x00\n        /* \"#utility.yul\":45535:45540   */\n      dup2\n        /* \"#utility.yul\":45529:45541   */\n      mload\n        /* \"#utility.yul\":45519:45541   */\n      swap1\n      pop\n        /* \"#utility.yul\":45508:45548   */\n      swap2\n      swap1\n      pop\n      jump\t// out\n        /* \"#utility.yul\":45554:45668   */\n    tag_565:\n      0x00\n        /* \"#utility.yul\":45655:45660   */\n      dup2\n        /* \"#utility.yul\":45649:45661   */\n      mload\n        /* \"#utility.yul\":45639:45661   */\n      swap1\n      pop\n        /* \"#utility.yul\":45628:45668   */\n      swap2\n      swap1\n      pop\n      jump\t// out\n        /* \"#utility.yul\":45674:45773   */\n    tag_633:\n      0x00\n        /* \"#utility.yul\":45760:45765   */\n      dup2\n        /* \"#utility.yul\":45754:45766   */\n      mload\n        /* \"#utility.yul\":45744:45766   */\n      swap1\n      pop\n        /* \"#utility.yul\":45733:45773   */\n      swap2\n      swap1\n      pop\n      jump\t// out\n        /* \"#utility.yul\":45779:45891   */\n    tag_533:\n      0x00\n        /* \"#utility.yul\":45880:45884   */\n      0x20\n        /* \"#utility.yul\":45875:45878   */\n      dup3\n        /* \"#utility.yul\":45871:45885   */\n      add\n        /* \"#utility.yul\":45863:45885   */\n      swap1\n      pop\n        /* \"#utility.yul\":45853:45891   */\n      swap2\n      swap1\n      pop\n      jump\t// out\n        /* \"#utility.yul\":45897:46020   */\n    tag_547:\n      0x00\n        /* \"#utility.yul\":46009:46013   */\n      0x20\n        /* \"#utility.yul\":46004:46007   */\n      dup3\n        /* \"#utility.yul\":46000:46014   */\n      add\n        /* \"#utility.yul\":45992:46014   */\n      swap1\n      pop\n        /* \"#utility.yul\":45982:46020   */\n      swap2\n      swap1\n      pop\n      jump\t// out\n        /* \"#utility.yul\":46026:46162   */\n    tag_561:\n      0x00\n        /* \"#utility.yul\":46151:46155   */\n      0x20\n        /* \"#utility.yul\":46146:46149   */\n      dup3\n        /* \"#utility.yul\":46142:46156   */\n      add\n        /* \"#utility.yul\":46134:46156   */\n      swap1\n      pop\n        /* \"#utility.yul\":46124:46162   */\n      swap2\n      swap1\n      pop\n      jump\t// out\n        /* \"#utility.yul\":46168:46281   */\n    tag_575:\n      0x00\n        /* \"#utility.yul\":46270:46274   */\n      0x20\n        /* \"#utility.yul\":46265:46268   */\n      dup3\n        /* \"#utility.yul\":46261:46275   */\n      add\n        /* \"#utility.yul\":46253:46275   */\n      swap1\n      pop\n        /* \"#utility.yul\":46243:46281   */\n      swap2\n      swap1\n      pop\n      jump\t// out\n        /* \"#utility.yul\":46287:46468   */\n    tag_525:\n      0x00\n        /* \"#utility.yul\":46417:46423   */\n      dup3\n        /* \"#utility.yul\":46412:46415   */\n      dup3\n        /* \"#utility.yul\":46405:46424   */\n      mstore\n        /* \"#utility.yul\":46457:46461   */\n      0x20\n        /* \"#utility.yul\":46452:46455   */\n      dup3\n        /* \"#utility.yul\":46448:46462   */\n      add\n        /* \"#utility.yul\":46433:46462   */\n      swap1\n      pop\n        /* \"#utility.yul\":46395:46468   */\n      swap3\n      swap2\n      pop\n      pop\n      jump\t// out\n        /* \"#utility.yul\":46474:46668   */\n    tag_539:\n      0x00\n        /* \"#utility.yul\":46617:46623   */\n      dup3\n        /* \"#utility.yul\":46612:46615   */\n      dup3\n        /* \"#utility.yul\":46605:46624   */\n      mstore\n        /* \"#utility.yul\":46657:46661   */\n      0x20\n        /* \"#utility.yul\":46652:46655   */\n      dup3\n        /* \"#utility.yul\":46648:46662   */\n      add\n        /* \"#utility.yul\":46633:46662   */\n      swap1\n      pop\n        /* \"#utility.yul\":46595:46668   */\n      swap3\n      swap2\n      pop\n      pop\n      jump\t// out\n        /* \"#utility.yul\":46674:46881   */\n    tag_553:\n      0x00\n        /* \"#utility.yul\":46830:46836   */\n      dup3\n        /* \"#utility.yul\":46825:46828   */\n      dup3\n        /* \"#utility.yul\":46818:46837   */\n      mstore\n        /* \"#utility.yul\":46870:46874   */\n      0x20\n        /* \"#utility.yul\":46865:46868   */\n      dup3\n        /* \"#utility.yul\":46861:46875   */\n      add\n        /* \"#utility.yul\":46846:46875   */\n      swap1\n      pop\n        /* \"#utility.yul\":46808:46881   */\n      swap3\n      swap2\n      pop\n      pop\n      jump\t// out\n        /* \"#utility.yul\":46887:47071   */\n    tag_567:\n      0x00\n        /* \"#utility.yul\":47020:47026   */\n      dup3\n        /* \"#utility.yul\":47015:47018   */\n      dup3\n        /* \"#utility.yul\":47008:47027   */\n      mstore\n        /* \"#utility.yul\":47060:47064   */\n      0x20\n        /* \"#utility.yul\":47055:47058   */\n      dup3\n        /* \"#utility.yul\":47051:47065   */\n      add\n        /* \"#utility.yul\":47036:47065   */\n      swap1\n      pop\n        /* \"#utility.yul\":46998:47071   */\n      swap3\n      swap2\n      pop\n      pop\n      jump\t// out\n        /* \"#utility.yul\":47077:47269   */\n    tag_580:\n      0x00\n        /* \"#utility.yul\":47218:47224   */\n      dup3\n        /* \"#utility.yul\":47213:47216   */\n      dup3\n        /* \"#utility.yul\":47206:47225   */\n      mstore\n        /* \"#utility.yul\":47258:47262   */\n      0x20\n        /* \"#utility.yul\":47253:47256   */\n      dup3\n        /* \"#utility.yul\":47249:47263   */\n      add\n        /* \"#utility.yul\":47234:47263   */\n      swap1\n      pop\n        /* \"#utility.yul\":47196:47269   */\n      swap3\n      swap2\n      pop\n      pop\n      jump\t// out\n        /* \"#utility.yul\":47275:47457   */\n    tag_591:\n      0x00\n        /* \"#utility.yul\":47406:47412   */\n      dup3\n        /* \"#utility.yul\":47401:47404   */\n      dup3\n        /* \"#utility.yul\":47394:47413   */\n      mstore\n        /* \"#utility.yul\":47446:47450   */\n      0x20\n        /* \"#utility.yul\":47441:47444   */\n      dup3\n        /* \"#utility.yul\":47437:47451   */\n      add\n        /* \"#utility.yul\":47422:47451   */\n      swap1\n      pop\n        /* \"#utility.yul\":47384:47457   */\n      swap3\n      swap2\n      pop\n      pop\n      jump\t// out\n        /* \"#utility.yul\":47463:47622   */\n    tag_635:\n      0x00\n        /* \"#utility.yul\":47571:47577   */\n      dup3\n        /* \"#utility.yul\":47566:47569   */\n      dup3\n        /* \"#utility.yul\":47559:47578   */\n      mstore\n        /* \"#utility.yul\":47611:47615   */\n      0x20\n        /* \"#utility.yul\":47606:47609   */\n      dup3\n        /* \"#utility.yul\":47602:47616   */\n      add\n        /* \"#utility.yul\":47587:47616   */\n      swap1\n      pop\n        /* \"#utility.yul\":47549:47622   */\n      swap3\n      swap2\n      pop\n      pop\n      jump\t// out\n        /* \"#utility.yul\":47628:47797   */\n    tag_643:\n      0x00\n        /* \"#utility.yul\":47746:47752   */\n      dup3\n        /* \"#utility.yul\":47741:47744   */\n      dup3\n        /* \"#utility.yul\":47734:47753   */\n      mstore\n        /* \"#utility.yul\":47786:47790   */\n      0x20\n        /* \"#utility.yul\":47781:47784   */\n      dup3\n        /* \"#utility.yul\":47777:47791   */\n      add\n        /* \"#utility.yul\":47762:47791   */\n      swap1\n      pop\n        /* \"#utility.yul\":47724:47797   */\n      swap3\n      swap2\n      pop\n      pop\n      jump\t// out\n        /* \"#utility.yul\":47803:47980   */\n    tag_650:\n      0x00\n        /* \"#utility.yul\":47929:47935   */\n      dup3\n        /* \"#utility.yul\":47924:47927   */\n      dup3\n        /* \"#utility.yul\":47917:47936   */\n      mstore\n        /* \"#utility.yul\":47969:47973   */\n      0x20\n        /* \"#utility.yul\":47964:47967   */\n      dup3\n        /* \"#utility.yul\":47960:47974   */\n      add\n        /* \"#utility.yul\":47945:47974   */\n      swap1\n      pop\n        /* \"#utility.yul\":47907:47980   */\n      swap3\n      swap2\n      pop\n      pop\n      jump\t// out\n        /* \"#utility.yul\":47986:48153   */\n    tag_657:\n      0x00\n        /* \"#utility.yul\":48102:48108   */\n      dup3\n        /* \"#utility.yul\":48097:48100   */\n      dup3\n        /* \"#utility.yul\":48090:48109   */\n      mstore\n        /* \"#utility.yul\":48142:48146   */\n      0x20\n        /* \"#utility.yul\":48137:48140   */\n      dup3\n        /* \"#utility.yul\":48133:48147   */\n      add\n        /* \"#utility.yul\":48118:48147   */\n      swap1\n      pop\n        /* \"#utility.yul\":48080:48153   */\n      swap3\n      swap2\n      pop\n      pop\n      jump\t// out\n        /* \"#utility.yul\":48159:48307   */\n    tag_629:\n      0x00\n        /* \"#utility.yul\":48298:48301   */\n      dup2\n        /* \"#utility.yul\":48283:48301   */\n      swap1\n      pop\n        /* \"#utility.yul\":48273:48307   */\n      swap3\n      swap2\n      pop\n      pop\n      jump\t// out\n        /* \"#utility.yul\":48313:48409   */\n    tag_513:\n      0x00\n        /* \"#utility.yul\":48379:48403   */\n      tag_782\n        /* \"#utility.yul\":48397:48402   */\n      dup3\n        /* \"#utility.yul\":48379:48403   */\n      tag_783\n      jump\t// in\n    tag_782:\n        /* \"#utility.yul\":48368:48403   */\n      swap1\n      pop\n        /* \"#utility.yul\":48358:48409   */\n      swap2\n      swap1\n      pop\n      jump\t// out\n        /* \"#utility.yul\":48415:48505   */\n    tag_601:\n      0x00\n        /* \"#utility.yul\":48492:48497   */\n      dup2\n        /* \"#utility.yul\":48485:48498   */\n      iszero\n        /* \"#utility.yul\":48478:48499   */\n      iszero\n        /* \"#utility.yul\":48467:48499   */\n      swap1\n      pop\n        /* \"#utility.yul\":48457:48505   */\n      swap2\n      swap1\n      pop\n      jump\t// out\n        /* \"#utility.yul\":48511:48654   */\n    tag_785:\n      0x00\n        /* \"#utility.yul\":48593:48598   */\n      dup2\n        /* \"#utility.yul\":48582:48598   */\n      swap1\n      pop\n        /* \"#utility.yul\":48599:48648   */\n      tag_787\n        /* \"#utility.yul\":48642:48647   */\n      dup3\n        /* \"#utility.yul\":48599:48648   */\n      tag_788\n      jump\t// in\n    tag_787:\n        /* \"#utility.yul\":48572:48654   */\n      swap2\n      swap1\n      pop\n      jump\t// out\n        /* \"#utility.yul\":48660:48801   */\n    tag_789:\n      0x00\n        /* \"#utility.yul\":48741:48746   */\n      dup2\n        /* \"#utility.yul\":48730:48746   */\n      swap1\n      pop\n        /* \"#utility.yul\":48747:48795   */\n      tag_791\n        /* \"#utility.yul\":48789:48794   */\n      dup3\n        /* \"#utility.yul\":48747:48795   */\n      tag_792\n      jump\t// in\n    tag_791:\n        /* \"#utility.yul\":48720:48801   */\n      swap2\n      swap1\n      pop\n      jump\t// out\n        /* \"#utility.yul\":48807:48942   */\n    tag_793:\n      0x00\n        /* \"#utility.yul\":48885:48890   */\n      dup2\n        /* \"#utility.yul\":48874:48890   */\n      swap1\n      pop\n        /* \"#utility.yul\":48891:48936   */\n      tag_795\n        /* \"#utility.yul\":48930:48935   */\n      dup3\n        /* \"#utility.yul\":48891:48936   */\n      tag_796\n      jump\t// in\n    tag_795:\n        /* \"#utility.yul\":48864:48942   */\n      swap2\n      swap1\n      pop\n      jump\t// out\n        /* \"#utility.yul\":48948:49024   */\n    tag_625:\n      0x00\n        /* \"#utility.yul\":49013:49018   */\n      dup2\n        /* \"#utility.yul\":49002:49018   */\n      swap1\n      pop\n        /* \"#utility.yul\":48992:49024   */\n      swap2\n      swap1\n      pop\n      jump\t// out\n        /* \"#utility.yul\":49030:49156   */\n    tag_783:\n      0x00\n        /* \"#utility.yul\":49107:49149   */\n      0xffffffffffffffffffffffffffffffffffffffff\n        /* \"#utility.yul\":49100:49105   */\n      dup3\n        /* \"#utility.yul\":49096:49150   */\n      and\n        /* \"#utility.yul\":49085:49150   */\n      swap1\n      pop\n        /* \"#utility.yul\":49075:49156   */\n      swap2\n      swap1\n      pop\n      jump\t// out\n        /* \"#utility.yul\":49162:49239   */\n    tag_695:\n      0x00\n        /* \"#utility.yul\":49228:49233   */\n      dup2\n        /* \"#utility.yul\":49217:49233   */\n      swap1\n      pop\n        /* \"#utility.yul\":49207:49239   */\n      swap2\n      swap1\n      pop\n      jump\t// out\n        /* \"#utility.yul\":49245:49388   */\n    tag_608:\n      0x00\n        /* \"#utility.yul\":49342:49382   */\n      tag_801\n        /* \"#utility.yul\":49376:49381   */\n      dup3\n        /* \"#utility.yul\":49342:49382   */\n      tag_785\n      jump\t// in\n    tag_801:\n        /* \"#utility.yul\":49329:49382   */\n      swap1\n      pop\n        /* \"#utility.yul\":49319:49388   */\n      swap2\n      swap1\n      pop\n      jump\t// out\n        /* \"#utility.yul\":49394:49535   */\n    tag_612:\n      0x00\n        /* \"#utility.yul\":49490:49529   */\n      tag_803\n        /* \"#utility.yul\":49523:49528   */\n      dup3\n        /* \"#utility.yul\":49490:49529   */\n      tag_789\n      jump\t// in\n    tag_803:\n        /* \"#utility.yul\":49477:49529   */\n      swap1\n      pop\n        /* \"#utility.yul\":49467:49535   */\n      swap2\n      swap1\n      pop\n      jump\t// out\n        /* \"#utility.yul\":49541:49676   */\n    tag_622:\n      0x00\n        /* \"#utility.yul\":49634:49670   */\n      tag_805\n        /* \"#utility.yul\":49664:49669   */\n      dup3\n        /* \"#utility.yul\":49634:49670   */\n      tag_793\n      jump\t// in\n    tag_805:\n        /* \"#utility.yul\":49621:49670   */\n      swap1\n      pop\n        /* \"#utility.yul\":49611:49676   */\n      swap2\n      swap1\n      pop\n      jump\t// out\n        /* \"#utility.yul\":49682:49836   */\n    tag_304:\n        /* \"#utility.yul\":49766:49772   */\n      dup3\n        /* \"#utility.yul\":49761:49764   */\n      dup2\n        /* \"#utility.yul\":49756:49759   */\n      dup4\n        /* \"#utility.yul\":49743:49773   */\n      calldatacopy\n        /* \"#utility.yul\":49828:49829   */\n      0x00\n        /* \"#utility.yul\":49819:49825   */\n      dup4\n        /* \"#utility.yul\":49814:49817   */\n      dup4\n        /* \"#utility.yul\":49810:49826   */\n      add\n        /* \"#utility.yul\":49803:49830   */\n      mstore\n        /* \"#utility.yul\":49733:49836   */\n      pop\n      pop\n      pop\n      jump\t// out\n        /* \"#utility.yul\":49842:50149   */\n    tag_311:\n        /* \"#utility.yul\":49910:49911   */\n      0x00\n        /* \"#utility.yul\":49920:50033   */\n    tag_808:\n        /* \"#utility.yul\":49934:49940   */\n      dup4\n        /* \"#utility.yul\":49931:49932   */\n      dup2\n        /* \"#utility.yul\":49928:49941   */\n      lt\n        /* \"#utility.yul\":49920:50033   */\n      iszero\n      tag_810\n      jumpi\n        /* \"#utility.yul\":50019:50020   */\n      dup1\n        /* \"#utility.yul\":50014:50017   */\n      dup3\n        /* \"#utility.yul\":50010:50021   */\n      add\n        /* \"#utility.yul\":50004:50022   */\n      mload\n        /* \"#utility.yul\":50000:50001   */\n      dup2\n        /* \"#utility.yul\":49995:49998   */\n      dup5\n        /* \"#utility.yul\":49991:50002   */\n      add\n        /* \"#utility.yul\":49984:50023   */\n      mstore\n        /* \"#utility.yul\":49956:49958   */\n      0x20\n        /* \"#utility.yul\":49953:49954   */\n      dup2\n        /* \"#utility.yul\":49949:49959   */\n      add\n        /* \"#utility.yul\":49944:49959   */\n      swap1\n      pop\n        /* \"#utility.yul\":49920:50033   */\n      jump(tag_808)\n    tag_810:\n        /* \"#utility.yul\":50051:50057   */\n      dup4\n        /* \"#utility.yul\":50048:50049   */\n      dup2\n        /* \"#utility.yul\":50045:50058   */\n      gt\n        /* \"#utility.yul\":50042:50044   */\n      iszero\n      tag_811\n      jumpi\n        /* \"#utility.yul\":50131:50132   */\n      0x00\n        /* \"#utility.yul\":50122:50128   */\n      dup5\n        /* \"#utility.yul\":50117:50120   */\n      dup5\n        /* \"#utility.yul\":50113:50129   */\n      add\n        /* \"#utility.yul\":50106:50133   */\n      mstore\n        /* \"#utility.yul\":50042:50044   */\n    tag_811:\n        /* \"#utility.yul\":49891:50149   */\n      pop\n      pop\n      pop\n      pop\n      jump\t// out\n        /* \"#utility.yul\":50155:50475   */\n    tag_73:\n      0x00\n        /* \"#utility.yul\":50236:50237   */\n      0x02\n        /* \"#utility.yul\":50230:50234   */\n      dup3\n        /* \"#utility.yul\":50226:50238   */\n      div\n        /* \"#utility.yul\":50216:50238   */\n      swap1\n      pop\n        /* \"#utility.yul\":50283:50284   */\n      0x01\n        /* \"#utility.yul\":50277:50281   */\n      dup3\n        /* \"#utility.yul\":50273:50285   */\n      and\n        /* \"#utility.yul\":50304:50322   */\n      dup1\n        /* \"#utility.yul\":50294:50296   */\n      tag_813\n      jumpi\n        /* \"#utility.yul\":50360:50364   */\n      0x7f\n        /* \"#utility.yul\":50352:50358   */\n      dup3\n        /* \"#utility.yul\":50348:50365   */\n      and\n        /* \"#utility.yul\":50338:50365   */\n      swap2\n      pop\n        /* \"#utility.yul\":50294:50296   */\n    tag_813:\n        /* \"#utility.yul\":50422:50424   */\n      0x20\n        /* \"#utility.yul\":50414:50420   */\n      dup3\n        /* \"#utility.yul\":50411:50425   */\n      lt\n        /* \"#utility.yul\":50391:50409   */\n      dup2\n        /* \"#utility.yul\":50388:50426   */\n      eq\n        /* \"#utility.yul\":50385:50387   */\n      iszero\n      tag_814\n      jumpi\n        /* \"#utility.yul\":50441:50459   */\n      tag_815\n      tag_816\n      jump\t// in\n    tag_815:\n        /* \"#utility.yul\":50385:50387   */\n    tag_814:\n        /* \"#utility.yul\":50206:50475   */\n      pop\n      swap2\n      swap1\n      pop\n      jump\t// out\n        /* \"#utility.yul\":50481:50714   */\n    tag_197:\n      0x00\n        /* \"#utility.yul\":50543:50567   */\n      tag_818\n        /* \"#utility.yul\":50561:50566   */\n      dup3\n        /* \"#utility.yul\":50543:50567   */\n      tag_695\n      jump\t// in\n    tag_818:\n        /* \"#utility.yul\":50534:50567   */\n      swap2\n      pop\n        /* \"#utility.yul\":50589:50655   */\n      0xffffffffffffffffffffffffffffffffffffffffffffffffffffffffffffffff\n        /* \"#utility.yul\":50582:50587   */\n      dup3\n        /* \"#utility.yul\":50579:50656   */\n      eq\n        /* \"#utility.yul\":50576:50578   */\n      iszero\n      tag_819\n      jumpi\n        /* \"#utility.yul\":50659:50677   */\n      tag_820\n      tag_821\n      jump\t// in\n    tag_820:\n        /* \"#utility.yul\":50576:50578   */\n    tag_819:\n        /* \"#utility.yul\":50706:50707   */\n      0x01\n        /* \"#utility.yul\":50699:50704   */\n      dup3\n        /* \"#utility.yul\":50695:50708   */\n      add\n        /* \"#utility.yul\":50688:50708   */\n      swap1\n      pop\n        /* \"#utility.yul\":50524:50714   */\n      swap2\n      swap1\n      pop\n      jump\t// out\n        /* \"#utility.yul\":50720:50900   */\n    tag_821:\n        /* \"#utility.yul\":50768:50845   */\n      0x4e487b7100000000000000000000000000000000000000000000000000000000\n        /* \"#utility.yul\":50765:50766   */\n      0x00\n        /* \"#utility.yul\":50758:50846   */\n      mstore\n        /* \"#utility.yul\":50865:50869   */\n      0x11\n        /* \"#utility.yul\":50862:50863   */\n      0x04\n        /* \"#utility.yul\":50855:50870   */\n      mstore\n        /* \"#utility.yul\":50889:50893   */\n      0x24\n        /* \"#utility.yul\":50886:50887   */\n      0x00\n        /* \"#utility.yul\":50879:50894   */\n      revert\n        /* \"#utility.yul\":50906:51086   */\n    tag_823:\n        /* \"#utility.yul\":50954:51031   */\n      0x4e487b7100000000000000000000000000000000000000000000000000000000\n        /* \"#utility.yul\":50951:50952   */\n      0x00\n        /* \"#utility.yul\":50944:51032   */\n      mstore\n        /* \"#utility.yul\":51051:51055   */\n      0x21\n        /* \"#utility.yul\":51048:51049   */\n      0x04\n        /* \"#utility.yul\":51041:51056   */\n      mstore\n        /* \"#utility.yul\":51075:51079   */\n      0x24\n        /* \"#utility.yul\":51072:51073   */\n      0x00\n        /* \"#utility.yul\":51065:51080   */\n      revert\n        /* \"#utility.yul\":51092:51272   */\n    tag_816:\n        /* \"#utility.yul\":51140:51217   */\n      0x4e487b7100000000000000000000000000000000000000000000000000000000\n        /* \"#utility.yul\":51137:51138   */\n      0x00\n        /* \"#utility.yul\":51130:51218   */\n      mstore\n        /* \"#utility.yul\":51237:51241   */\n      0x22\n        /* \"#utility.yul\":51234:51235   */\n      0x04\n        /* \"#utility.yul\":51227:51242   */\n      mstore\n        /* \"#utility.yul\":51261:51265   */\n      0x24\n        /* \"#utility.yul\":51258:51259   */\n      0x00\n        /* \"#utility.yul\":51251:51266   */\n      revert\n        /* \"#utility.yul\":51278:51458   */\n    tag_747:\n        /* \"#utility.yul\":51326:51403   */\n      0x4e487b7100000000000000000000000000000000000000000000000000000000\n        /* \"#utility.yul\":51323:51324   */\n      0x00\n        /* \"#utility.yul\":51316:51404   */\n      mstore\n        /* \"#utility.yul\":51423:51427   */\n      0x41\n        /* \"#utility.yul\":51420:51421   */\n      0x04\n        /* \"#utility.yul\":51413:51428   */\n      mstore\n        /* \"#utility.yul\":51447:51451   */\n      0x24\n        /* \"#utility.yul\":51444:51445   */\n      0x00\n        /* \"#utility.yul\":51437:51452   */\n      revert\n        /* \"#utility.yul\":51464:51566   */\n    tag_638:\n      0x00\n        /* \"#utility.yul\":51556:51558   */\n      0x1f\n        /* \"#utility.yul\":51552:51559   */\n      not\n        /* \"#utility.yul\":51547:51549   */\n      0x1f\n        /* \"#utility.yul\":51540:51545   */\n      dup4\n        /* \"#utility.yul\":51536:51550   */\n      add\n        /* \"#utility.yul\":51532:51560   */\n      and\n        /* \"#utility.yul\":51522:51560   */\n      swap1\n      pop\n        /* \"#utility.yul\":51512:51566   */\n      swap2\n      swap1\n      pop\n      jump\t// out\n        /* \"#utility.yul\":51572:51693   */\n    tag_788:\n        /* \"#utility.yul\":51661:51662   */\n      0x03\n        /* \"#utility.yul\":51654:51659   */\n      dup2\n        /* \"#utility.yul\":51651:51663   */\n      lt\n        /* \"#utility.yul\":51641:51643   */\n      tag_829\n      jumpi\n        /* \"#utility.yul\":51667:51685   */\n      tag_830\n      tag_823\n      jump\t// in\n    tag_830:\n        /* \"#utility.yul\":51641:51643   */\n    tag_829:\n        /* \"#utility.yul\":51631:51693   */\n      pop\n      jump\t// out\n        /* \"#utility.yul\":51699:51819   */\n    tag_792:\n        /* \"#utility.yul\":51787:51788   */\n      0x04\n        /* \"#utility.yul\":51780:51785   */\n      dup2\n        /* \"#utility.yul\":51777:51789   */\n      lt\n        /* \"#utility.yul\":51767:51769   */\n      tag_832\n      jumpi\n        /* \"#utility.yul\":51793:51811   */\n      tag_833\n      tag_823\n      jump\t// in\n    tag_833:\n        /* \"#utility.yul\":51767:51769   */\n    tag_832:\n        /* \"#utility.yul\":51757:51819   */\n      pop\n      jump\t// out\n        /* \"#utility.yul\":51825:51942   */\n    tag_796:\n        /* \"#utility.yul\":51910:51911   */\n      0x07\n        /* \"#utility.yul\":51903:51908   */\n      dup2\n        /* \"#utility.yul\":51900:51912   */\n      lt\n        /* \"#utility.yul\":51890:51892   */\n      tag_835\n      jumpi\n        /* \"#utility.yul\":51916:51934   */\n      tag_836\n      tag_823\n      jump\t// in\n    tag_836:\n        /* \"#utility.yul\":51890:51892   */\n    tag_835:\n        /* \"#utility.yul\":51880:51942   */\n      pop\n      jump\t// out\n        /* \"#utility.yul\":51948:52070   */\n    tag_315:\n        /* \"#utility.yul\":52021:52045   */\n      tag_838\n        /* \"#utility.yul\":52039:52044   */\n      dup2\n        /* \"#utility.yul\":52021:52045   */\n      tag_513\n      jump\t// in\n    tag_838:\n        /* \"#utility.yul\":52014:52019   */\n      dup2\n        /* \"#utility.yul\":52011:52046   */\n      eq\n        /* \"#utility.yul\":52001:52003   */\n      tag_839\n      jumpi\n        /* \"#utility.yul\":52060:52061   */\n      0x00\n        /* \"#utility.yul\":52057:52058   */\n      dup1\n        /* \"#utility.yul\":52050:52062   */\n      revert\n        /* \"#utility.yul\":52001:52003   */\n    tag_839:\n        /* \"#utility.yul\":51991:52070   */\n      pop\n      jump\t// out\n        /* \"#utility.yul\":52076:52192   */\n    tag_338:\n        /* \"#utility.yul\":52146:52167   */\n      tag_841\n        /* \"#utility.yul\":52161:52166   */\n      dup2\n        /* \"#utility.yul\":52146:52167   */\n      tag_601\n      jump\t// in\n    tag_841:\n        /* \"#utility.yul\":52139:52144   */\n      dup2\n        /* \"#utility.yul\":52136:52168   */\n      eq\n        /* \"#utility.yul\":52126:52128   */\n      tag_842\n      jumpi\n        /* \"#utility.yul\":52182:52183   */\n      0x00\n        /* \"#utility.yul\":52179:52180   */\n      dup1\n        /* \"#utility.yul\":52172:52184   */\n      revert\n        /* \"#utility.yul\":52126:52128   */\n    tag_842:\n        /* \"#utility.yul\":52116:52192   */\n      pop\n      jump\t// out\n        /* \"#utility.yul\":52198:52313   */\n    tag_345:\n        /* \"#utility.yul\":52287:52288   */\n      0x03\n        /* \"#utility.yul\":52280:52285   */\n      dup2\n        /* \"#utility.yul\":52277:52289   */\n      lt\n        /* \"#utility.yul\":52267:52269   */\n      tag_844\n      jumpi\n        /* \"#utility.yul\":52303:52304   */\n      0x00\n        /* \"#utility.yul\":52300:52301   */\n      dup1\n        /* \"#utility.yul\":52293:52305   */\n      revert\n        /* \"#utility.yul\":52267:52269   */\n    tag_844:\n        /* \"#utility.yul\":52257:52313   */\n      pop\n      jump\t// out\n        /* \"#utility.yul\":52319:52433   */\n    tag_352:\n        /* \"#utility.yul\":52407:52408   */\n      0x04\n        /* \"#utility.yul\":52400:52405   */\n      dup2\n        /* \"#utility.yul\":52397:52409   */\n      lt\n        /* \"#utility.yul\":52387:52389   */\n      tag_846\n      jumpi\n        /* \"#utility.yul\":52423:52424   */\n      0x00\n        /* \"#utility.yul\":52420:52421   */\n      dup1\n        /* \"#utility.yul\":52413:52425   */\n      revert\n        /* \"#utility.yul\":52387:52389   */\n    tag_846:\n        /* \"#utility.yul\":52377:52433   */\n      pop\n      jump\t// out\n        /* \"#utility.yul\":52439:52550   */\n    tag_359:\n        /* \"#utility.yul\":52524:52525   */\n      0x07\n        /* \"#utility.yul\":52517:52522   */\n      dup2\n        /* \"#utility.yul\":52514:52526   */\n      lt\n        /* \"#utility.yul\":52504:52506   */\n      tag_848\n      jumpi\n        /* \"#utility.yul\":52540:52541   */\n      0x00\n        /* \"#utility.yul\":52537:52538   */\n      dup1\n        /* \"#utility.yul\":52530:52542   */\n      revert\n        /* \"#utility.yul\":52504:52506   */\n    tag_848:\n        /* \"#utility.yul\":52494:52550   */\n      pop\n      jump\t// out\n        /* \"#utility.yul\":52556:52676   */\n    tag_365:\n        /* \"#utility.yul\":52628:52651   */\n      tag_850\n        /* \"#utility.yul\":52645:52650   */\n      dup2\n        /* \"#utility.yul\":52628:52651   */\n      tag_625\n      jump\t// in\n    tag_850:\n        /* \"#utility.yul\":52621:52626   */\n      dup2\n        /* \"#utility.yul\":52618:52652   */\n      eq\n        /* \"#utility.yul\":52608:52610   */\n      tag_851\n      jumpi\n        /* \"#utility.yul\":52666:52667   */\n      0x00\n        /* \"#utility.yul\":52663:52664   */\n      dup1\n        /* \"#utility.yul\":52656:52668   */\n      revert\n        /* \"#utility.yul\":52608:52610   */\n    tag_851:\n        /* \"#utility.yul\":52598:52676   */\n      pop\n      jump\t// out\n        /* \"#utility.yul\":52682:52804   */\n    tag_437:\n        /* \"#utility.yul\":52755:52779   */\n      tag_853\n        /* \"#utility.yul\":52773:52778   */\n      dup2\n        /* \"#utility.yul\":52755:52779   */\n      tag_695\n      jump\t// in\n    tag_853:\n        /* \"#utility.yul\":52748:52753   */\n      dup2\n        /* \"#utility.yul\":52745:52780   */\n      eq\n        /* \"#utility.yul\":52735:52737   */\n      tag_854\n      jumpi\n        /* \"#utility.yul\":52794:52795   */\n      0x00\n        /* \"#utility.yul\":52791:52792   */\n      dup1\n        /* \"#utility.yul\":52784:52796   */\n      revert\n        /* \"#utility.yul\":52735:52737   */\n    tag_854:\n        /* \"#utility.yul\":52725:52804   */\n      pop\n      jump\t// out\n\n    auxdata: 0xa26469706673582212206c6b2a53a8c09f9f43e40cc158bb2883eb17b300cb66679ef97dd2290861a5b164736f6c63430008000033\n}\n","bytecode":{"linkReferences":{"middleware/TaskLibrary.sol":{"TaskLibrary":[{"length":20,"start":857},{"length":20,"start":1741},{"length":20,"start":4905}]}},"object":"608060405234801561001057600080fd5b50613551806100206000396000f3fe608060405234801561001057600080fd5b50600436106100b45760003560e01c8063909e4ab611610071578063909e4ab61461018e57806395794157146101ac578063976217cd146101dc578063993c041014610211578063c7b1ee0614610241578063fe9620c91461025d576100b4565b80632a1c52a5146100b9578063307ed4be146100ea57806338b7b6f0146101065780634d60f6511461012257806361ea18df14610140578063896a343514610170575b600080fd5b6100d360048036038101906100ce9190612486565b610279565b6040516100e1929190612f8f565b60405180910390f35b61010460048036038101906100ff91906124af565b610335565b005b610120600480360381019061011b9190612337565b610794565b005b61012a6107c1565b6040516101379190612da3565b60405180910390f35b61015a60048036038101906101559190612486565b61089a565b6040516101679190612e9a565b60405180910390f35b610178610946565b6040516101859190612dc5565b60405180910390f35b610196610a41565b6040516101a39190612de7565b60405180910390f35b6101c660048036038101906101c19190612486565b610a99565b6040516101d39190612f74565b60405180910390f35b6101f660048036038101906101f19190612486565b610abd565b60405161020896959493929190612e24565b60405180910390f35b61022b60048036038101906102269190612486565b610cd9565b6040516102389190612e09565b60405180910390f35b61025b60048036038101906102569190612580565b611543565b005b6102776004803603810190610272919061238f565b61188e565b005b6004818154811061028957600080fd5b90600052602060002090600202016000915090508060000154908060010180546102b29061330b565b80601f01602080910402602001604051908101604052809291908181526020018280546102de9061330b565b801561032b5780601f106103005761010080835404028352916020019161032b565b820191906000526020600020905b81548152906001019060200180831161030e57829003601f168201915b5050505050905082565b600073__$d1970310b2288d1f22c83455a39f94189a$__6372e6436b87878787876040518663ffffffff1660e01b8152600401610376959493929190612ebc565b60006040518083038186803b15801561038e57600080fd5b505af41580156103a2573d6000803e3d6000fd5b505050506040513d6000823e3d601f19601f820116820180604052508101906103cb9190612445565b90508060008001600089815260200190815260200160002060008201518160000190805190602001906103ff9291906118c7565b5060208201518160010160006101000a81548173ffffffffffffffffffffffffffffffffffffffff021916908373ffffffffffffffffffffffffffffffffffffffff16021790555060408201518160010160146101000a81548160ff02191690831515021790555060608201518160010160156101000a81548160ff021916908360038111156104b8577f4e487b7100000000000000000000000000000000000000000000000000000000600052602160045260246000fd5b021790555060808201518160020190805190602001906104d992919061194d565b5060a08201518160030190805190602001906104f692919061194d565b5060c0820151816004016000820151816000015560208201518160010160006101000a81548160ff0219169083600381111561055b577f4e487b7100000000000000000000000000000000000000000000000000000000600052602160045260246000fd5b021790555060408201518160010160016101000a81548160ff021916908360028111156105b1577f4e487b7100000000000000000000000000000000000000000000000000000000600052602160045260246000fd5b021790555060608201518160010160026101000a81548160ff02191690831515021790555060808201518160010160036101000a81548160ff02191690831515021790555060a08201518160010160046101000a81548160ff02191690836006811115610647577f4e487b7100000000000000000000000000000000000000000000000000000000600052602160045260246000fd5b021790555060c08201518160020190805190602001906106689291906118c7565b5060e08201518160030190805190602001906106859291906118c7565b506101008201518160040190805190602001906106a392919061199a565b505050905050600473__$d1970310b2288d1f22c83455a39f94189a$__63a0bb48ab89846040518363ffffffff1660e01b81526004016106e4929190612fbf565b60006040518083038186803b1580156106fc57600080fd5b505af4158015610710573d6000803e3d6000fd5b505050506040513d6000823e3d601f19601f820116820180604052508101906107399190612404565b90806001815401808255809150506001900390600052602060002090600202016000909190919091506000820151816000015560208201518160010190805190602001906107889291906118c7565b50505050505050505050565b80600060010184846040516107aa929190612d73565b908152602001604051809103902081905550505050565b60606006805480602002602001604051908101604052809291908181526020016000905b828210156108915783829060005260206000200180546108049061330b565b80601f01602080910402602001604051908101604052809291908181526020018280546108309061330b565b801561087d5780601f106108525761010080835404028352916020019161087d565b820191906000526020600020905b81548152906001019060200180831161086057829003601f168201915b5050505050815260200190600101906107e5565b50505050905090565b600681815481106108aa57600080fd5b9060005260206000200160009150905080546108c59061330b565b80601f01602080910402602001604051908101604052809291908181526020018280546108f19061330b565b801561093e5780601f106109135761010080835404028352916020019161093e565b820191906000526020600020905b81548152906001019060200180831161092157829003601f168201915b505050505081565b60606004805480602002602001604051908101604052809291908181526020016000905b82821015610a385783829060005260206000209060020201604051806040016040529081600082015481526020016001820180546109a79061330b565b80601f01602080910402602001604051908101604052809291908181526020018280546109d39061330b565b8015610a205780601f106109f557610100808354040283529160200191610a20565b820191906000526020600020905b815481529060010190602001808311610a0357829003601f168201915b5050505050815250508152602001906001019061096a565b50505050905090565b60606005805480602002602001604051908101604052809291908181526020018280548015610a8f57602002820191906000526020600020905b815481526020019060010190808311610a7b575b5050505050905090565b60058181548110610aa957600080fd5b906000526020600020016000915090505481565b6000606060008060608060008001600088815260200190815260200160002060010160149054906101000a900460ff166000800160008981526020019081526020016000206000016000800160008a815260200190815260200160002060010160009054906101000a900473ffffffffffffffffffffffffffffffffffffffff166000800160008b815260200190815260200160002060010160159054906101000a900460ff166000800160008c81526020019081526020016000206002016000800160008d8152602001908152602001600020600301848054610ba09061330b565b80601f0160208091040260200160405190810160405280929190818152602001828054610bcc9061330b565b8015610c195780601f10610bee57610100808354040283529160200191610c19565b820191906000526020600020905b815481529060010190602001808311610bfc57829003601f168201915b5050505050945081805480602002602001604051908101604052809291908181526020018280548015610c6b57602002820191906000526020600020905b815481526020019060010190808311610c57575b5050505050915080805480602002602001604051908101604052809291908181526020018280548015610cbd57602002820191906000526020600020905b815481526020019060010190808311610ca9575b5050505050905095509550955095509550955091939550919395565b600080600001600083815260200190815260200160002060010160149054906101000a900460ff1615610d41576040517f08c379a0000000000000000000000000000000000000000000000000000000008152600401610d3890612f24565b60405180910390fd5b60008060000160008481526020019081526020016000206040518060e0016040529081600082018054610d739061330b565b80601f0160208091040260200160405190810160405280929190818152602001828054610d9f9061330b565b8015610dec5780601f10610dc157610100808354040283529160200191610dec565b820191906000526020600020905b815481529060010190602001808311610dcf57829003601f168201915b505050505081526020016001820160009054906101000a900473ffffffffffffffffffffffffffffffffffffffff1673ffffffffffffffffffffffffffffffffffffffff1673ffffffffffffffffffffffffffffffffffffffff1681526020016001820160149054906101000a900460ff161515151581526020016001820160159054906101000a900460ff166003811115610eb1577f4e487b7100000000000000000000000000000000000000000000000000000000600052602160045260246000fd5b6003811115610ee9577f4e487b7100000000000000000000000000000000000000000000000000000000600052602160045260246000fd5b815260200160028201805480602002602001604051908101604052809291908181526020018280548015610f3c57602002820191906000526020600020905b815481526020019060010190808311610f28575b5050505050815260200160038201805480602002602001604051908101604052809291908181526020018280548015610f9457602002820191906000526020600020905b815481526020019060010190808311610f80575b505050505081526020016004820160405180610120016040529081600082015481526020016001820160009054906101000a900460ff166003811115611003577f4e487b7100000000000000000000000000000000000000000000000000000000600052602160045260246000fd5b600381111561103b577f4e487b7100000000000000000000000000000000000000000000000000000000600052602160045260246000fd5b81526020016001820160019054906101000a900460ff16600281111561108a577f4e487b7100000000000000000000000000000000000000000000000000000000600052602160045260246000fd5b60028111156110c2577f4e487b7100000000000000000000000000000000000000000000000000000000600052602160045260246000fd5b81526020016001820160029054906101000a900460ff161515151581526020016001820160039054906101000a900460ff161515151581526020016001820160049054906101000a900460ff166006811115611147577f4e487b7100000000000000000000000000000000000000000000000000000000600052602160045260246000fd5b600681111561117f577f4e487b7100000000000000000000000000000000000000000000000000000000600052602160045260246000fd5b81526020016002820180546111939061330b565b80601f01602080910402602001604051908101604052809291908181526020018280546111bf9061330b565b801561120c5780601f106111e15761010080835404028352916020019161120c565b820191906000526020600020905b8154815290600101906020018083116111ef57829003601f168201915b505050505081526020016003820180546112259061330b565b80601f01602080910402602001604051908101604052809291908181526020018280546112519061330b565b801561129e5780601f106112735761010080835404028352916020019161129e565b820191906000526020600020905b81548152906001019060200180831161128157829003601f168201915b50505050508152602001600482018054806020026020016040519081016040528092919081815260200182805480156112f657602002820191906000526020600020905b8154815260200190600101908083116112e2575b505050505081525050815250509050600073__$d1970310b2288d1f22c83455a39f94189a$__63e00e0eea8360006040518363ffffffff1660e01b8152600401611341929190612f44565b604080518083038186803b15801561135857600080fd5b505af415801561136c573d6000803e3d6000fd5b505050506040513d601f19601f8201168201806040525081019061139091906122fb565b80925081945050508160c00151608001511561146d57826000600301600083815260200190815260200160002060006101000a81548160ff02191690831515021790555060005b8260a001515181101561146b57836000800160008560a001518481518110611428577f4e487b7100000000000000000000000000000000000000000000000000000000600052603260045260246000fd5b6020026020010151815260200190815260200160002060010160146101000a81548160ff02191690831515021790555080806114639061333d565b9150506113d7565b505b8260008001600086815260200190815260200160002060010160146101000a81548160ff0219169083151502179055508215157facd30b4f9fd5868793e13ffb506f03374a23d9feba1249ac2cc7b0fe024ff4ba60405160405180910390a2821561153c57600682600001519080600181540180825580915050600190039060005260206000200160009091909190915090805190602001906115119291906118c7565b5060058490806001815401808255809150506001900390600052602060002001600090919091909150555b5050919050565b6000600281111561157d577f4e487b7100000000000000000000000000000000000000000000000000000000600052602160045260246000fd5b816040015160028111156115ba577f4e487b7100000000000000000000000000000000000000000000000000000000600052602160045260246000fd5b141561160e576040518060200160405280600081525060006002018260c001516040516115e79190612d8c565b908152602001604051809103902090805190602001906116089291906118c7565b506116b7565b60016002811115611648577f4e487b7100000000000000000000000000000000000000000000000000000000600052602160045260246000fd5b81604001516002811115611685577f4e487b7100000000000000000000000000000000000000000000000000000000600052602160045260246000fd5b14156116b6576000806001018260c001516040516116a39190612d8c565b9081526020016040518091039020819055505b5b6116c5878787878787610335565b806000800160008981526020019081526020016000206004016000820151816000015560208201518160010160006101000a81548160ff02191690836003811115611739577f4e487b7100000000000000000000000000000000000000000000000000000000600052602160045260246000fd5b021790555060408201518160010160016101000a81548160ff0219169083600281111561178f577f4e487b7100000000000000000000000000000000000000000000000000000000600052602160045260246000fd5b021790555060608201518160010160026101000a81548160ff02191690831515021790555060808201518160010160036101000a81548160ff02191690831515021790555060a08201518160010160046101000a81548160ff02191690836006811115611825577f4e487b7100000000000000000000000000000000000000000000000000000000600052602160045260246000fd5b021790555060c08201518160020190805190602001906118469291906118c7565b5060e08201518160030190805190602001906118639291906118c7565b5061010082015181600401908051906020019061188192919061199a565b5090505050505050505050565b8181600060020186866040516118a5929190612d73565b908152602001604051809103902091906118c09291906119e7565b5050505050565b8280546118d39061330b565b90600052602060002090601f0160209004810192826118f5576000855561193c565b82601f1061190e57805160ff191683800117855561193c565b8280016001018555821561193c579182015b8281111561193b578251825591602001919060010190611920565b5b5090506119499190611a6d565b5090565b828054828255906000526020600020908101928215611989579160200282015b8281111561198857825182559160200191906001019061196d565b5b5090506119969190611a6d565b5090565b8280548282559060005260206000209081019282156119d6579160200282015b828111156119d55782518255916020019190600101906119ba565b5b5090506119e39190611a8a565b5090565b8280546119f39061330b565b90600052602060002090601f016020900481019282611a155760008555611a5c565b82601f10611a2e57803560ff1916838001178555611a5c565b82800160010185558215611a5c579182015b82811115611a5b578235825591602001919060010190611a40565b5b509050611a699190611a6d565b5090565b5b80821115611a86576000816000905550600101611a6e565b5090565b5b80821115611aa3576000816000905550600101611a8b565b5090565b6000611aba611ab584613020565b612fef565b90508083825260208201905082856020860282011115611ad957600080fd5b60005b85811015611b095781611aef8882611e4d565b845260208401935060208301925050600181019050611adc565b5050509392505050565b6000611b26611b2184613020565b612fef565b90508083825260208201905082856020860282011115611b4557600080fd5b60005b85811015611b755781611b5b8882611e62565b845260208401935060208301925050600181019050611b48565b5050509392505050565b6000611b92611b8d8461304c565b612fef565b90508083825260208201905082856020860282011115611bb157600080fd5b60005b85811015611be15781611bc788826122d1565b845260208401935060208301925050600181019050611bb4565b5050509392505050565b6000611bfe611bf98461304c565b612fef565b90508083825260208201905082856020860282011115611c1d57600080fd5b60005b85811015611c4d5781611c3388826122e6565b845260208401935060208301925050600181019050611c20565b5050509392505050565b6000611c6a611c6584613078565b612fef565b905082815260208101848484011115611c8257600080fd5b611c8d8482856132c9565b509392505050565b6000611ca8611ca384613078565b612fef565b905082815260208101848484011115611cc057600080fd5b611ccb8482856132d8565b509392505050565b600081359050611ce28161348f565b92915050565b600081519050611cf78161348f565b92915050565b600082601f830112611d0e57600080fd5b8135611d1e848260208601611aa7565b91505092915050565b600082601f830112611d3857600080fd5b8151611d48848260208601611b13565b91505092915050565b600082601f830112611d6257600080fd5b8135611d72848260208601611b7f565b91505092915050565b600082601f830112611d8c57600080fd5b8151611d9c848260208601611beb565b91505092915050565b600081359050611db4816134a6565b92915050565b600081519050611dc9816134a6565b92915050565b600081359050611dde816134bd565b92915050565b600081519050611df3816134bd565b92915050565b600081359050611e08816134cd565b92915050565b600081519050611e1d816134cd565b92915050565b600081359050611e32816134dd565b92915050565b600081519050611e47816134dd565b92915050565b600081359050611e5c816134ed565b92915050565b600081519050611e71816134ed565b92915050565b60008083601f840112611e8957600080fd5b8235905067ffffffffffffffff811115611ea257600080fd5b602083019150836001820283011115611eba57600080fd5b9250929050565b600082601f830112611ed257600080fd5b8135611ee2848260208601611c57565b91505092915050565b600082601f830112611efc57600080fd5b8151611f0c848260208601611c95565b91505092915050565b600060408284031215611f2757600080fd5b611f316040612fef565b90506000611f41848285016122e6565b600083015250602082015167ffffffffffffffff811115611f6157600080fd5b611f6d84828501611eeb565b60208301525092915050565b60006101208284031215611f8c57600080fd5b611f97610120612fef565b90506000611fa7848285016122d1565b6000830152506020611fbb84828501611df9565b6020830152506040611fcf84828501611dcf565b6040830152506060611fe384828501611da5565b6060830152506080611ff784828501611da5565b60808301525060a061200b84828501611e23565b60a08301525060c082013567ffffffffffffffff81111561202b57600080fd5b61203784828501611ec1565b60c08301525060e082013567ffffffffffffffff81111561205757600080fd5b61206384828501611ec1565b60e08301525061010082013567ffffffffffffffff81111561208457600080fd5b61209084828501611cfd565b6101008301525092915050565b600061012082840312156120b057600080fd5b6120bb610120612fef565b905060006120cb848285016122e6565b60008301525060206120df84828501611e0e565b60208301525060406120f384828501611de4565b604083015250606061210784828501611dba565b606083015250608061211b84828501611dba565b60808301525060a061212f84828501611e38565b60a08301525060c082015167ffffffffffffffff81111561214f57600080fd5b61215b84828501611eeb565b60c08301525060e082015167ffffffffffffffff81111561217b57600080fd5b61218784828501611eeb565b60e08301525061010082015167ffffffffffffffff8111156121a857600080fd5b6121b484828501611d27565b6101008301525092915050565b600060e082840312156121d357600080fd5b6121dd60e0612fef565b9050600082015167ffffffffffffffff8111156121f957600080fd5b61220584828501611eeb565b600083015250602061221984828501611ce8565b602083015250604061222d84828501611dba565b604083015250606061224184828501611e0e565b606083015250608082015167ffffffffffffffff81111561226157600080fd5b61226d84828501611d7b565b60808301525060a082015167ffffffffffffffff81111561228d57600080fd5b61229984828501611d7b565b60a08301525060c082015167ffffffffffffffff8111156122b957600080fd5b6122c58482850161209d565b60c08301525092915050565b6000813590506122e081613504565b92915050565b6000815190506122f581613504565b92915050565b6000806040838503121561230e57600080fd5b600061231c85828601611dba565b925050602061232d858286016122e6565b9150509250929050565b60008060006040848603121561234c57600080fd5b600084013567ffffffffffffffff81111561236657600080fd5b61237286828701611e77565b9350935050602061238586828701611e4d565b9150509250925092565b600080600080604085870312156123a557600080fd5b600085013567ffffffffffffffff8111156123bf57600080fd5b6123cb87828801611e77565b9450945050602085013567ffffffffffffffff8111156123ea57600080fd5b6123f687828801611e77565b925092505092959194509250565b60006020828403121561241657600080fd5b600082015167ffffffffffffffff81111561243057600080fd5b61243c84828501611f15565b91505092915050565b60006020828403121561245757600080fd5b600082015167ffffffffffffffff81111561247157600080fd5b61247d848285016121c1565b91505092915050565b60006020828403121561249857600080fd5b60006124a6848285016122d1565b91505092915050565b60008060008060008060c087890312156124c857600080fd5b60006124d689828a016122d1565b965050602087013567ffffffffffffffff8111156124f357600080fd5b6124ff89828a01611ec1565b955050604061251089828a01611cd3565b945050606061252189828a01611df9565b935050608087013567ffffffffffffffff81111561253e57600080fd5b61254a89828a01611d51565b92505060a087013567ffffffffffffffff81111561256757600080fd5b61257389828a01611d51565b9150509295509295509295565b600080600080600080600060e0888a03121561259b57600080fd5b60006125a98a828b016122d1565b975050602088013567ffffffffffffffff8111156125c657600080fd5b6125d28a828b01611ec1565b96505060406125e38a828b01611cd3565b95505060606125f48a828b01611df9565b945050608088013567ffffffffffffffff81111561261157600080fd5b61261d8a828b01611d51565b93505060a088013567ffffffffffffffff81111561263a57600080fd5b6126468a828b01611d51565b92505060c088013567ffffffffffffffff81111561266357600080fd5b61266f8a828b01611f79565b91505092959891949750929550565b600061268a83836129e6565b60208301905092915050565b60006126a28383612a1a565b905092915050565b60006126b68383612b6f565b905092915050565b60006126ca8383612d37565b60208301905092915050565b60006126e28383612d64565b60208301905092915050565b6126f781613208565b82525050565b61270681613208565b82525050565b61271581613208565b82525050565b6000612726826130e8565b6127308185613153565b935061273b836130a8565b8060005b8381101561276c578151612753888261267e565b975061275e8361311f565b92505060018101905061273f565b5085935050505092915050565b6000612784826130f3565b61278e8185613164565b9350836020820285016127a0856130b8565b8060005b858110156127dc57848403895281516127bd8582612696565b94506127c88361312c565b925060208a019950506001810190506127a4565b50829750879550505050505092915050565b60006127f9826130fe565b6128038185613175565b935083602082028501612815856130c8565b8060005b85811015612851578484038952815161283285826126aa565b945061283d83613139565b925060208a01995050600181019050612819565b50829750879550505050505092915050565b600061286e82613109565b6128788185613186565b9350612883836130d8565b8060005b838110156128b457815161289b88826126be565b97506128a683613146565b925050600181019050612887565b5085935050505092915050565b60006128cc82613109565b6128d68185613197565b93506128e1836130d8565b8060005b838110156129125781516128f988826126d6565b975061290483613146565b9250506001810190506128e5565b5085935050505092915050565b600061292a82613109565b61293481856131a8565b935061293f836130d8565b8060005b8381101561297057815161295788826126d6565b975061296283613146565b925050600181019050612943565b5085935050505092915050565b6129868161321a565b82525050565b6129958161321a565b82525050565b6129a481613293565b82525050565b6129b3816132a5565b82525050565b6129c2816132a5565b82525050565b6129d1816132a5565b82525050565b6129e0816132b7565b82525050565b6129ef8161325f565b82525050565b6000612a0183856131fd565b9350612a0e8385846132c9565b82840190509392505050565b6000612a2582613114565b612a2f81856131b9565b9350612a3f8185602086016132d8565b612a4881613442565b840191505092915050565b6000612a5e82613114565b612a6881856131ca565b9350612a788185602086016132d8565b612a8181613442565b840191505092915050565b6000612a9782613114565b612aa181856131db565b9350612ab18185602086016132d8565b612aba81613442565b840191505092915050565b6000612ad082613114565b612ada81856131ec565b9350612aea8185602086016132d8565b612af381613442565b840191505092915050565b6000612b0982613114565b612b1381856131fd565b9350612b238185602086016132d8565b80840191505092915050565b6000612b3c6016836131ca565b91507f444f204e4f5420524550454154205441534b53212121000000000000000000006000830152602082019050919050565b6000604083016000830151612b876000860182612d37565b5060208301518482036020860152612b9f8282612a1a565b9150508091505092915050565b600061012083016000830151612bc56000860182612d64565b506020830151612bd860208601826129c8565b506040830151612beb604086018261299b565b506060830151612bfe606086018261298c565b506080830151612c11608086018261298c565b5060a0830151612c2460a08601826129d7565b5060c083015184820360c0860152612c3c8282612ac5565b91505060e083015184820360e0860152612c568282612ac5565b915050610100830151848203610100860152612c72828261271b565b9150508091505092915050565b8082525050565b600060e0830160008301518482036000860152612ca38282612ac5565b9150506020830151612cb8602086018261270c565b506040830151612ccb604086018261298c565b506060830151612cde60608601826129c8565b5060808301518482036080860152612cf6828261291f565b91505060a083015184820360a0860152612d10828261291f565b91505060c083015184820360c0860152612d2a8282612bac565b9150508091505092915050565b612d4081613289565b82525050565b612d4f81613289565b82525050565b612d5e81613289565b82525050565b612d6d81613289565b82525050565b6000612d808284866129f5565b91508190509392505050565b6000612d988284612afe565b915081905092915050565b60006020820190508181036000830152612dbd8184612779565b905092915050565b60006020820190508181036000830152612ddf81846127ee565b905092915050565b60006020820190508181036000830152612e018184612863565b905092915050565b6000602082019050612e1e600083018461297d565b92915050565b600060c082019050612e39600083018961297d565b8181036020830152612e4b8188612a53565b9050612e5a60408301876126ee565b612e6760608301866129aa565b8181036080830152612e798185612863565b905081810360a0830152612e8d8184612863565b9050979650505050505050565b60006020820190508181036000830152612eb48184612a53565b905092915050565b600060a0820190508181036000830152612ed68188612a8c565b9050612ee560208301876126fd565b612ef260408301866129b9565b8181036060830152612f0481856128c1565b90508181036080830152612f1881846128c1565b90509695505050505050565b60006020820190508181036000830152612f3d81612b2f565b9050919050565b60006040820190508181036000830152612f5e8185612c86565b9050612f6d6020830184612c7f565b9392505050565b6000602082019050612f896000830184612d46565b92915050565b6000604082019050612fa46000830185612d46565b8181036020830152612fb68184612a53565b90509392505050565b6000604082019050612fd46000830185612d55565b8181036020830152612fe68184612c86565b90509392505050565b6000604051905081810181811067ffffffffffffffff8211171561301657613015613413565b5b8060405250919050565b600067ffffffffffffffff82111561303b5761303a613413565b5b602082029050602081019050919050565b600067ffffffffffffffff82111561306757613066613413565b5b602082029050602081019050919050565b600067ffffffffffffffff82111561309357613092613413565b5b601f19601f8301169050602081019050919050565b6000819050602082019050919050565b6000819050602082019050919050565b6000819050602082019050919050565b6000819050602082019050919050565b600081519050919050565b600081519050919050565b600081519050919050565b600081519050919050565b600081519050919050565b6000602082019050919050565b6000602082019050919050565b6000602082019050919050565b6000602082019050919050565b600082825260208201905092915050565b600082825260208201905092915050565b600082825260208201905092915050565b600082825260208201905092915050565b600082825260208201905092915050565b600082825260208201905092915050565b600082825260208201905092915050565b600082825260208201905092915050565b600082825260208201905092915050565b600082825260208201905092915050565b600081905092915050565b600061321382613269565b9050919050565b60008115159050919050565b600081905061323482613453565b919050565b600081905061324782613467565b919050565b600081905061325a8261347b565b919050565b6000819050919050565b600073ffffffffffffffffffffffffffffffffffffffff82169050919050565b6000819050919050565b600061329e82613226565b9050919050565b60006132b082613239565b9050919050565b60006132c28261324c565b9050919050565b82818337600083830152505050565b60005b838110156132f65780820151818401526020810190506132db565b83811115613305576000848401525b50505050565b6000600282049050600182168061332357607f821691505b60208210811415613337576133366133e4565b5b50919050565b600061334882613289565b91507fffffffffffffffffffffffffffffffffffffffffffffffffffffffffffffffff82141561337b5761337a613386565b5b600182019050919050565b7f4e487b7100000000000000000000000000000000000000000000000000000000600052601160045260246000fd5b7f4e487b7100000000000000000000000000000000000000000000000000000000600052602160045260246000fd5b7f4e487b7100000000000000000000000000000000000000000000000000000000600052602260045260246000fd5b7f4e487b7100000000000000000000000000000000000000000000000000000000600052604160045260246000fd5b6000601f19601f8301169050919050565b60038110613464576134636133b5565b5b50565b60048110613478576134776133b5565b5b50565b6007811061348c5761348b6133b5565b5b50565b61349881613208565b81146134a357600080fd5b50565b6134af8161321a565b81146134ba57600080fd5b50565b600381106134ca57600080fd5b50565b600481106134da57600080fd5b50565b600781106134ea57600080fd5b50565b6134f68161325f565b811461350157600080fd5b50565b61350d81613289565b811461351857600080fd5b5056fea26469706673582212206c6b2a53a8c09f9f43e40cc158bb2883eb17b300cb66679ef97dd2290861a5b164736f6c63430008000033","opcodes":"PUSH1 0x80 PUSH1 0x40 MSTORE CALLVALUE DUP1 ISZERO PUSH2 0x10 JUMPI PUSH1 0x0 DUP1 REVERT JUMPDEST POP PUSH2 0x3551 DUP1 PUSH2 0x20 PUSH1 0x0 CODECOPY PUSH1 0x0 RETURN INVALID PUSH1 0x80 PUSH1 0x40 MSTORE CALLVALUE DUP1 ISZERO PUSH2 0x10 JUMPI PUSH1 0x0 DUP1 REVERT JUMPDEST POP PUSH1 0x4 CALLDATASIZE LT PUSH2 0xB4 JUMPI PUSH1 0x0 CALLDATALOAD PUSH1 0xE0 SHR DUP1 PUSH4 0x909E4AB6 GT PUSH2 0x71 JUMPI DUP1 PUSH4 0x909E4AB6 EQ PUSH2 0x18E JUMPI DUP1 PUSH4 0x95794157 EQ PUSH2 0x1AC JUMPI DUP1 PUSH4 0x976217CD EQ PUSH2 0x1DC JUMPI DUP1 PUSH4 0x993C0410 EQ PUSH2 0x211 JUMPI DUP1 PUSH4 0xC7B1EE06 EQ PUSH2 0x241 JUMPI DUP1 PUSH4 0xFE9620C9 EQ PUSH2 0x25D JUMPI PUSH2 0xB4 JUMP JUMPDEST DUP1 PUSH4 0x2A1C52A5 EQ PUSH2 0xB9 JUMPI DUP1 PUSH4 0x307ED4BE EQ PUSH2 0xEA JUMPI DUP1 PUSH4 0x38B7B6F0 EQ PUSH2 0x106 JUMPI DUP1 PUSH4 0x4D60F651 EQ PUSH2 0x122 JUMPI DUP1 PUSH4 0x61EA18DF EQ PUSH2 0x140 JUMPI DUP1 PUSH4 0x896A3435 EQ PUSH2 0x170 JUMPI JUMPDEST PUSH1 0x0 DUP1 REVERT JUMPDEST PUSH2 0xD3 PUSH1 0x4 DUP1 CALLDATASIZE SUB DUP2 ADD SWAP1 PUSH2 0xCE SWAP2 SWAP1 PUSH2 0x2486 JUMP JUMPDEST PUSH2 0x279 JUMP JUMPDEST PUSH1 0x40 MLOAD PUSH2 0xE1 SWAP3 SWAP2 SWAP1 PUSH2 0x2F8F JUMP JUMPDEST PUSH1 0x40 MLOAD DUP1 SWAP2 SUB SWAP1 RETURN JUMPDEST PUSH2 0x104 PUSH1 0x4 DUP1 CALLDATASIZE SUB DUP2 ADD SWAP1 PUSH2 0xFF SWAP2 SWAP1 PUSH2 0x24AF JUMP JUMPDEST PUSH2 0x335 JUMP JUMPDEST STOP JUMPDEST PUSH2 0x120 PUSH1 0x4 DUP1 CALLDATASIZE SUB DUP2 ADD SWAP1 PUSH2 0x11B SWAP2 SWAP1 PUSH2 0x2337 JUMP JUMPDEST PUSH2 0x794 JUMP JUMPDEST STOP JUMPDEST PUSH2 0x12A PUSH2 0x7C1 JUMP JUMPDEST PUSH1 0x40 MLOAD PUSH2 0x137 SWAP2 SWAP1 PUSH2 0x2DA3 JUMP JUMPDEST PUSH1 0x40 MLOAD DUP1 SWAP2 SUB SWAP1 RETURN JUMPDEST PUSH2 0x15A PUSH1 0x4 DUP1 CALLDATASIZE SUB DUP2 ADD SWAP1 PUSH2 0x155 SWAP2 SWAP1 PUSH2 0x2486 JUMP JUMPDEST PUSH2 0x89A JUMP JUMPDEST PUSH1 0x40 MLOAD PUSH2 0x167 SWAP2 SWAP1 PUSH2 0x2E9A JUMP JUMPDEST PUSH1 0x40 MLOAD DUP1 SWAP2 SUB SWAP1 RETURN JUMPDEST PUSH2 0x178 PUSH2 0x946 JUMP JUMPDEST PUSH1 0x40 MLOAD PUSH2 0x185 SWAP2 SWAP1 PUSH2 0x2DC5 JUMP JUMPDEST PUSH1 0x40 MLOAD DUP1 SWAP2 SUB SWAP1 RETURN JUMPDEST PUSH2 0x196 PUSH2 0xA41 JUMP JUMPDEST PUSH1 0x40 MLOAD PUSH2 0x1A3 SWAP2 SWAP1 PUSH2 0x2DE7 JUMP JUMPDEST PUSH1 0x40 MLOAD DUP1 SWAP2 SUB SWAP1 RETURN JUMPDEST PUSH2 0x1C6 PUSH1 0x4 DUP1 CALLDATASIZE SUB DUP2 ADD SWAP1 PUSH2 0x1C1 SWAP2 SWAP1 PUSH2 0x2486 JUMP JUMPDEST PUSH2 0xA99 JUMP JUMPDEST PUSH1 0x40 MLOAD PUSH2 0x1D3 SWAP2 SWAP1 PUSH2 0x2F74 JUMP JUMPDEST PUSH1 0x40 MLOAD DUP1 SWAP2 SUB SWAP1 RETURN JUMPDEST PUSH2 0x1F6 PUSH1 0x4 DUP1 CALLDATASIZE SUB DUP2 ADD SWAP1 PUSH2 0x1F1 SWAP2 SWAP1 PUSH2 0x2486 JUMP JUMPDEST PUSH2 0xABD JUMP JUMPDEST PUSH1 0x40 MLOAD PUSH2 0x208 SWAP7 SWAP6 SWAP5 SWAP4 SWAP3 SWAP2 SWAP1 PUSH2 0x2E24 JUMP JUMPDEST PUSH1 0x40 MLOAD DUP1 SWAP2 SUB SWAP1 RETURN JUMPDEST PUSH2 0x22B PUSH1 0x4 DUP1 CALLDATASIZE SUB DUP2 ADD SWAP1 PUSH2 0x226 SWAP2 SWAP1 PUSH2 0x2486 JUMP JUMPDEST PUSH2 0xCD9 JUMP JUMPDEST PUSH1 0x40 MLOAD PUSH2 0x238 SWAP2 SWAP1 PUSH2 0x2E09 JUMP JUMPDEST PUSH1 0x40 MLOAD DUP1 SWAP2 SUB SWAP1 RETURN JUMPDEST PUSH2 0x25B PUSH1 0x4 DUP1 CALLDATASIZE SUB DUP2 ADD SWAP1 PUSH2 0x256 SWAP2 SWAP1 PUSH2 0x2580 JUMP JUMPDEST PUSH2 0x1543 JUMP JUMPDEST STOP JUMPDEST PUSH2 0x277 PUSH1 0x4 DUP1 CALLDATASIZE SUB DUP2 ADD SWAP1 PUSH2 0x272 SWAP2 SWAP1 PUSH2 0x238F JUMP JUMPDEST PUSH2 0x188E JUMP JUMPDEST STOP JUMPDEST PUSH1 0x4 DUP2 DUP2 SLOAD DUP2 LT PUSH2 0x289 JUMPI PUSH1 0x0 DUP1 REVERT JUMPDEST SWAP1 PUSH1 0x0 MSTORE PUSH1 0x20 PUSH1 0x0 KECCAK256 SWAP1 PUSH1 0x2 MUL ADD PUSH1 0x0 SWAP2 POP SWAP1 POP DUP1 PUSH1 0x0 ADD SLOAD SWAP1 DUP1 PUSH1 0x1 ADD DUP1 SLOAD PUSH2 0x2B2 SWAP1 PUSH2 0x330B JUMP JUMPDEST DUP1 PUSH1 0x1F ADD PUSH1 0x20 DUP1 SWAP2 DIV MUL PUSH1 0x20 ADD PUSH1 0x40 MLOAD SWAP1 DUP2 ADD PUSH1 0x40 MSTORE DUP1 SWAP3 SWAP2 SWAP1 DUP2 DUP2 MSTORE PUSH1 0x20 ADD DUP3 DUP1 SLOAD PUSH2 0x2DE SWAP1 PUSH2 0x330B JUMP JUMPDEST DUP1 ISZERO PUSH2 0x32B JUMPI DUP1 PUSH1 0x1F LT PUSH2 0x300 JUMPI PUSH2 0x100 DUP1 DUP4 SLOAD DIV MUL DUP4 MSTORE SWAP2 PUSH1 0x20 ADD SWAP2 PUSH2 0x32B JUMP JUMPDEST DUP3 ADD SWAP2 SWAP1 PUSH1 0x0 MSTORE PUSH1 0x20 PUSH1 0x0 KECCAK256 SWAP1 JUMPDEST DUP2 SLOAD DUP2 MSTORE SWAP1 PUSH1 0x1 ADD SWAP1 PUSH1 0x20 ADD DUP1 DUP4 GT PUSH2 0x30E JUMPI DUP3 SWAP1 SUB PUSH1 0x1F AND DUP3 ADD SWAP2 JUMPDEST POP POP POP POP POP SWAP1 POP DUP3 JUMP JUMPDEST PUSH1 0x0 PUSH20 0x0 PUSH4 0x72E6436B DUP8 DUP8 DUP8 DUP8 DUP8 PUSH1 0x40 MLOAD DUP7 PUSH4 0xFFFFFFFF AND PUSH1 0xE0 SHL DUP2 MSTORE PUSH1 0x4 ADD PUSH2 0x376 SWAP6 SWAP5 SWAP4 SWAP3 SWAP2 SWAP1 PUSH2 0x2EBC JUMP JUMPDEST PUSH1 0x0 PUSH1 0x40 MLOAD DUP1 DUP4 SUB DUP2 DUP7 DUP1 EXTCODESIZE ISZERO DUP1 ISZERO PUSH2 0x38E JUMPI PUSH1 0x0 DUP1 REVERT JUMPDEST POP GAS DELEGATECALL ISZERO DUP1 ISZERO PUSH2 0x3A2 JUMPI RETURNDATASIZE PUSH1 0x0 DUP1 RETURNDATACOPY RETURNDATASIZE PUSH1 0x0 REVERT JUMPDEST POP POP POP POP PUSH1 0x40 MLOAD RETURNDATASIZE PUSH1 0x0 DUP3 RETURNDATACOPY RETURNDATASIZE PUSH1 0x1F NOT PUSH1 0x1F DUP3 ADD AND DUP3 ADD DUP1 PUSH1 0x40 MSTORE POP DUP2 ADD SWAP1 PUSH2 0x3CB SWAP2 SWAP1 PUSH2 0x2445 JUMP JUMPDEST SWAP1 POP DUP1 PUSH1 0x0 DUP1 ADD PUSH1 0x0 DUP10 DUP2 MSTORE PUSH1 0x20 ADD SWAP1 DUP2 MSTORE PUSH1 0x20 ADD PUSH1 0x0 KECCAK256 PUSH1 0x0 DUP3 ADD MLOAD DUP2 PUSH1 0x0 ADD SWAP1 DUP1 MLOAD SWAP1 PUSH1 0x20 ADD SWAP1 PUSH2 0x3FF SWAP3 SWAP2 SWAP1 PUSH2 0x18C7 JUMP JUMPDEST POP PUSH1 0x20 DUP3 ADD MLOAD DUP2 PUSH1 0x1 ADD PUSH1 0x0 PUSH2 0x100 EXP DUP2 SLOAD DUP2 PUSH20 0xFFFFFFFFFFFFFFFFFFFFFFFFFFFFFFFFFFFFFFFF MUL NOT AND SWAP1 DUP4 PUSH20 0xFFFFFFFFFFFFFFFFFFFFFFFFFFFFFFFFFFFFFFFF AND MUL OR SWAP1 SSTORE POP PUSH1 0x40 DUP3 ADD MLOAD DUP2 PUSH1 0x1 ADD PUSH1 0x14 PUSH2 0x100 EXP DUP2 SLOAD DUP2 PUSH1 0xFF MUL NOT AND SWAP1 DUP4 ISZERO ISZERO MUL OR SWAP1 SSTORE POP PUSH1 0x60 DUP3 ADD MLOAD DUP2 PUSH1 0x1 ADD PUSH1 0x15 PUSH2 0x100 EXP DUP2 SLOAD DUP2 PUSH1 0xFF MUL NOT AND SWAP1 DUP4 PUSH1 0x3 DUP2 GT ISZERO PUSH2 0x4B8 JUMPI PUSH32 0x4E487B7100000000000000000000000000000000000000000000000000000000 PUSH1 0x0 MSTORE PUSH1 0x21 PUSH1 0x4 MSTORE PUSH1 0x24 PUSH1 0x0 REVERT JUMPDEST MUL OR SWAP1 SSTORE POP PUSH1 0x80 DUP3 ADD MLOAD DUP2 PUSH1 0x2 ADD SWAP1 DUP1 MLOAD SWAP1 PUSH1 0x20 ADD SWAP1 PUSH2 0x4D9 SWAP3 SWAP2 SWAP1 PUSH2 0x194D JUMP JUMPDEST POP PUSH1 0xA0 DUP3 ADD MLOAD DUP2 PUSH1 0x3 ADD SWAP1 DUP1 MLOAD SWAP1 PUSH1 0x20 ADD SWAP1 PUSH2 0x4F6 SWAP3 SWAP2 SWAP1 PUSH2 0x194D JUMP JUMPDEST POP PUSH1 0xC0 DUP3 ADD MLOAD DUP2 PUSH1 0x4 ADD PUSH1 0x0 DUP3 ADD MLOAD DUP2 PUSH1 0x0 ADD SSTORE PUSH1 0x20 DUP3 ADD MLOAD DUP2 PUSH1 0x1 ADD PUSH1 0x0 PUSH2 0x100 EXP DUP2 SLOAD DUP2 PUSH1 0xFF MUL NOT AND SWAP1 DUP4 PUSH1 0x3 DUP2 GT ISZERO PUSH2 0x55B JUMPI PUSH32 0x4E487B7100000000000000000000000000000000000000000000000000000000 PUSH1 0x0 MSTORE PUSH1 0x21 PUSH1 0x4 MSTORE PUSH1 0x24 PUSH1 0x0 REVERT JUMPDEST MUL OR SWAP1 SSTORE POP PUSH1 0x40 DUP3 ADD MLOAD DUP2 PUSH1 0x1 ADD PUSH1 0x1 PUSH2 0x100 EXP DUP2 SLOAD DUP2 PUSH1 0xFF MUL NOT AND SWAP1 DUP4 PUSH1 0x2 DUP2 GT ISZERO PUSH2 0x5B1 JUMPI PUSH32 0x4E487B7100000000000000000000000000000000000000000000000000000000 PUSH1 0x0 MSTORE PUSH1 0x21 PUSH1 0x4 MSTORE PUSH1 0x24 PUSH1 0x0 REVERT JUMPDEST MUL OR SWAP1 SSTORE POP PUSH1 0x60 DUP3 ADD MLOAD DUP2 PUSH1 0x1 ADD PUSH1 0x2 PUSH2 0x100 EXP DUP2 SLOAD DUP2 PUSH1 0xFF MUL NOT AND SWAP1 DUP4 ISZERO ISZERO MUL OR SWAP1 SSTORE POP PUSH1 0x80 DUP3 ADD MLOAD DUP2 PUSH1 0x1 ADD PUSH1 0x3 PUSH2 0x100 EXP DUP2 SLOAD DUP2 PUSH1 0xFF MUL NOT AND SWAP1 DUP4 ISZERO ISZERO MUL OR SWAP1 SSTORE POP PUSH1 0xA0 DUP3 ADD MLOAD DUP2 PUSH1 0x1 ADD PUSH1 0x4 PUSH2 0x100 EXP DUP2 SLOAD DUP2 PUSH1 0xFF MUL NOT AND SWAP1 DUP4 PUSH1 0x6 DUP2 GT ISZERO PUSH2 0x647 JUMPI PUSH32 0x4E487B7100000000000000000000000000000000000000000000000000000000 PUSH1 0x0 MSTORE PUSH1 0x21 PUSH1 0x4 MSTORE PUSH1 0x24 PUSH1 0x0 REVERT JUMPDEST MUL OR SWAP1 SSTORE POP PUSH1 0xC0 DUP3 ADD MLOAD DUP2 PUSH1 0x2 ADD SWAP1 DUP1 MLOAD SWAP1 PUSH1 0x20 ADD SWAP1 PUSH2 0x668 SWAP3 SWAP2 SWAP1 PUSH2 0x18C7 JUMP JUMPDEST POP PUSH1 0xE0 DUP3 ADD MLOAD DUP2 PUSH1 0x3 ADD SWAP1 DUP1 MLOAD SWAP1 PUSH1 0x20 ADD SWAP1 PUSH2 0x685 SWAP3 SWAP2 SWAP1 PUSH2 0x18C7 JUMP JUMPDEST POP PUSH2 0x100 DUP3 ADD MLOAD DUP2 PUSH1 0x4 ADD SWAP1 DUP1 MLOAD SWAP1 PUSH1 0x20 ADD SWAP1 PUSH2 0x6A3 SWAP3 SWAP2 SWAP1 PUSH2 0x199A JUMP JUMPDEST POP POP POP SWAP1 POP POP PUSH1 0x4 PUSH20 0x0 PUSH4 0xA0BB48AB DUP10 DUP5 PUSH1 0x40 MLOAD DUP4 PUSH4 0xFFFFFFFF AND PUSH1 0xE0 SHL DUP2 MSTORE PUSH1 0x4 ADD PUSH2 0x6E4 SWAP3 SWAP2 SWAP1 PUSH2 0x2FBF JUMP JUMPDEST PUSH1 0x0 PUSH1 0x40 MLOAD DUP1 DUP4 SUB DUP2 DUP7 DUP1 EXTCODESIZE ISZERO DUP1 ISZERO PUSH2 0x6FC JUMPI PUSH1 0x0 DUP1 REVERT JUMPDEST POP GAS DELEGATECALL ISZERO DUP1 ISZERO PUSH2 0x710 JUMPI RETURNDATASIZE PUSH1 0x0 DUP1 RETURNDATACOPY RETURNDATASIZE PUSH1 0x0 REVERT JUMPDEST POP POP POP POP PUSH1 0x40 MLOAD RETURNDATASIZE PUSH1 0x0 DUP3 RETURNDATACOPY RETURNDATASIZE PUSH1 0x1F NOT PUSH1 0x1F DUP3 ADD AND DUP3 ADD DUP1 PUSH1 0x40 MSTORE POP DUP2 ADD SWAP1 PUSH2 0x739 SWAP2 SWAP1 PUSH2 0x2404 JUMP JUMPDEST SWAP1 DUP1 PUSH1 0x1 DUP2 SLOAD ADD DUP1 DUP3 SSTORE DUP1 SWAP2 POP POP PUSH1 0x1 SWAP1 SUB SWAP1 PUSH1 0x0 MSTORE PUSH1 0x20 PUSH1 0x0 KECCAK256 SWAP1 PUSH1 0x2 MUL ADD PUSH1 0x0 SWAP1 SWAP2 SWAP1 SWAP2 SWAP1 SWAP2 POP PUSH1 0x0 DUP3 ADD MLOAD DUP2 PUSH1 0x0 ADD SSTORE PUSH1 0x20 DUP3 ADD MLOAD DUP2 PUSH1 0x1 ADD SWAP1 DUP1 MLOAD SWAP1 PUSH1 0x20 ADD SWAP1 PUSH2 0x788 SWAP3 SWAP2 SWAP1 PUSH2 0x18C7 JUMP JUMPDEST POP POP POP POP POP POP POP POP POP POP JUMP JUMPDEST DUP1 PUSH1 0x0 PUSH1 0x1 ADD DUP5 DUP5 PUSH1 0x40 MLOAD PUSH2 0x7AA SWAP3 SWAP2 SWAP1 PUSH2 0x2D73 JUMP JUMPDEST SWAP1 DUP2 MSTORE PUSH1 0x20 ADD PUSH1 0x40 MLOAD DUP1 SWAP2 SUB SWAP1 KECCAK256 DUP2 SWAP1 SSTORE POP POP POP POP JUMP JUMPDEST PUSH1 0x60 PUSH1 0x6 DUP1 SLOAD DUP1 PUSH1 0x20 MUL PUSH1 0x20 ADD PUSH1 0x40 MLOAD SWAP1 DUP2 ADD PUSH1 0x40 MSTORE DUP1 SWAP3 SWAP2 SWAP1 DUP2 DUP2 MSTORE PUSH1 0x20 ADD PUSH1 0x0 SWAP1 JUMPDEST DUP3 DUP3 LT ISZERO PUSH2 0x891 JUMPI DUP4 DUP3 SWAP1 PUSH1 0x0 MSTORE PUSH1 0x20 PUSH1 0x0 KECCAK256 ADD DUP1 SLOAD PUSH2 0x804 SWAP1 PUSH2 0x330B JUMP JUMPDEST DUP1 PUSH1 0x1F ADD PUSH1 0x20 DUP1 SWAP2 DIV MUL PUSH1 0x20 ADD PUSH1 0x40 MLOAD SWAP1 DUP2 ADD PUSH1 0x40 MSTORE DUP1 SWAP3 SWAP2 SWAP1 DUP2 DUP2 MSTORE PUSH1 0x20 ADD DUP3 DUP1 SLOAD PUSH2 0x830 SWAP1 PUSH2 0x330B JUMP JUMPDEST DUP1 ISZERO PUSH2 0x87D JUMPI DUP1 PUSH1 0x1F LT PUSH2 0x852 JUMPI PUSH2 0x100 DUP1 DUP4 SLOAD DIV MUL DUP4 MSTORE SWAP2 PUSH1 0x20 ADD SWAP2 PUSH2 0x87D JUMP JUMPDEST DUP3 ADD SWAP2 SWAP1 PUSH1 0x0 MSTORE PUSH1 0x20 PUSH1 0x0 KECCAK256 SWAP1 JUMPDEST DUP2 SLOAD DUP2 MSTORE SWAP1 PUSH1 0x1 ADD SWAP1 PUSH1 0x20 ADD DUP1 DUP4 GT PUSH2 0x860 JUMPI DUP3 SWAP1 SUB PUSH1 0x1F AND DUP3 ADD SWAP2 JUMPDEST POP POP POP POP POP DUP2 MSTORE PUSH1 0x20 ADD SWAP1 PUSH1 0x1 ADD SWAP1 PUSH2 0x7E5 JUMP JUMPDEST POP POP POP POP SWAP1 POP SWAP1 JUMP JUMPDEST PUSH1 0x6 DUP2 DUP2 SLOAD DUP2 LT PUSH2 0x8AA JUMPI PUSH1 0x0 DUP1 REVERT JUMPDEST SWAP1 PUSH1 0x0 MSTORE PUSH1 0x20 PUSH1 0x0 KECCAK256 ADD PUSH1 0x0 SWAP2 POP SWAP1 POP DUP1 SLOAD PUSH2 0x8C5 SWAP1 PUSH2 0x330B JUMP JUMPDEST DUP1 PUSH1 0x1F ADD PUSH1 0x20 DUP1 SWAP2 DIV MUL PUSH1 0x20 ADD PUSH1 0x40 MLOAD SWAP1 DUP2 ADD PUSH1 0x40 MSTORE DUP1 SWAP3 SWAP2 SWAP1 DUP2 DUP2 MSTORE PUSH1 0x20 ADD DUP3 DUP1 SLOAD PUSH2 0x8F1 SWAP1 PUSH2 0x330B JUMP JUMPDEST DUP1 ISZERO PUSH2 0x93E JUMPI DUP1 PUSH1 0x1F LT PUSH2 0x913 JUMPI PUSH2 0x100 DUP1 DUP4 SLOAD DIV MUL DUP4 MSTORE SWAP2 PUSH1 0x20 ADD SWAP2 PUSH2 0x93E JUMP JUMPDEST DUP3 ADD SWAP2 SWAP1 PUSH1 0x0 MSTORE PUSH1 0x20 PUSH1 0x0 KECCAK256 SWAP1 JUMPDEST DUP2 SLOAD DUP2 MSTORE SWAP1 PUSH1 0x1 ADD SWAP1 PUSH1 0x20 ADD DUP1 DUP4 GT PUSH2 0x921 JUMPI DUP3 SWAP1 SUB PUSH1 0x1F AND DUP3 ADD SWAP2 JUMPDEST POP POP POP POP POP DUP2 JUMP JUMPDEST PUSH1 0x60 PUSH1 0x4 DUP1 SLOAD DUP1 PUSH1 0x20 MUL PUSH1 0x20 ADD PUSH1 0x40 MLOAD SWAP1 DUP2 ADD PUSH1 0x40 MSTORE DUP1 SWAP3 SWAP2 SWAP1 DUP2 DUP2 MSTORE PUSH1 0x20 ADD PUSH1 0x0 SWAP1 JUMPDEST DUP3 DUP3 LT ISZERO PUSH2 0xA38 JUMPI DUP4 DUP3 SWAP1 PUSH1 0x0 MSTORE PUSH1 0x20 PUSH1 0x0 KECCAK256 SWAP1 PUSH1 0x2 MUL ADD PUSH1 0x40 MLOAD DUP1 PUSH1 0x40 ADD PUSH1 0x40 MSTORE SWAP1 DUP2 PUSH1 0x0 DUP3 ADD SLOAD DUP2 MSTORE PUSH1 0x20 ADD PUSH1 0x1 DUP3 ADD DUP1 SLOAD PUSH2 0x9A7 SWAP1 PUSH2 0x330B JUMP JUMPDEST DUP1 PUSH1 0x1F ADD PUSH1 0x20 DUP1 SWAP2 DIV MUL PUSH1 0x20 ADD PUSH1 0x40 MLOAD SWAP1 DUP2 ADD PUSH1 0x40 MSTORE DUP1 SWAP3 SWAP2 SWAP1 DUP2 DUP2 MSTORE PUSH1 0x20 ADD DUP3 DUP1 SLOAD PUSH2 0x9D3 SWAP1 PUSH2 0x330B JUMP JUMPDEST DUP1 ISZERO PUSH2 0xA20 JUMPI DUP1 PUSH1 0x1F LT PUSH2 0x9F5 JUMPI PUSH2 0x100 DUP1 DUP4 SLOAD DIV MUL DUP4 MSTORE SWAP2 PUSH1 0x20 ADD SWAP2 PUSH2 0xA20 JUMP JUMPDEST DUP3 ADD SWAP2 SWAP1 PUSH1 0x0 MSTORE PUSH1 0x20 PUSH1 0x0 KECCAK256 SWAP1 JUMPDEST DUP2 SLOAD DUP2 MSTORE SWAP1 PUSH1 0x1 ADD SWAP1 PUSH1 0x20 ADD DUP1 DUP4 GT PUSH2 0xA03 JUMPI DUP3 SWAP1 SUB PUSH1 0x1F AND DUP3 ADD SWAP2 JUMPDEST POP POP POP POP POP DUP2 MSTORE POP POP DUP2 MSTORE PUSH1 0x20 ADD SWAP1 PUSH1 0x1 ADD SWAP1 PUSH2 0x96A JUMP JUMPDEST POP POP POP POP SWAP1 POP SWAP1 JUMP JUMPDEST PUSH1 0x60 PUSH1 0x5 DUP1 SLOAD DUP1 PUSH1 0x20 MUL PUSH1 0x20 ADD PUSH1 0x40 MLOAD SWAP1 DUP2 ADD PUSH1 0x40 MSTORE DUP1 SWAP3 SWAP2 SWAP1 DUP2 DUP2 MSTORE PUSH1 0x20 ADD DUP3 DUP1 SLOAD DUP1 ISZERO PUSH2 0xA8F JUMPI PUSH1 0x20 MUL DUP3 ADD SWAP2 SWAP1 PUSH1 0x0 MSTORE PUSH1 0x20 PUSH1 0x0 KECCAK256 SWAP1 JUMPDEST DUP2 SLOAD DUP2 MSTORE PUSH1 0x20 ADD SWAP1 PUSH1 0x1 ADD SWAP1 DUP1 DUP4 GT PUSH2 0xA7B JUMPI JUMPDEST POP POP POP POP POP SWAP1 POP SWAP1 JUMP JUMPDEST PUSH1 0x5 DUP2 DUP2 SLOAD DUP2 LT PUSH2 0xAA9 JUMPI PUSH1 0x0 DUP1 REVERT JUMPDEST SWAP1 PUSH1 0x0 MSTORE PUSH1 0x20 PUSH1 0x0 KECCAK256 ADD PUSH1 0x0 SWAP2 POP SWAP1 POP SLOAD DUP2 JUMP JUMPDEST PUSH1 0x0 PUSH1 0x60 PUSH1 0x0 DUP1 PUSH1 0x60 DUP1 PUSH1 0x0 DUP1 ADD PUSH1 0x0 DUP9 DUP2 MSTORE PUSH1 0x20 ADD SWAP1 DUP2 MSTORE PUSH1 0x20 ADD PUSH1 0x0 KECCAK256 PUSH1 0x1 ADD PUSH1 0x14 SWAP1 SLOAD SWAP1 PUSH2 0x100 EXP SWAP1 DIV PUSH1 0xFF AND PUSH1 0x0 DUP1 ADD PUSH1 0x0 DUP10 DUP2 MSTORE PUSH1 0x20 ADD SWAP1 DUP2 MSTORE PUSH1 0x20 ADD PUSH1 0x0 KECCAK256 PUSH1 0x0 ADD PUSH1 0x0 DUP1 ADD PUSH1 0x0 DUP11 DUP2 MSTORE PUSH1 0x20 ADD SWAP1 DUP2 MSTORE PUSH1 0x20 ADD PUSH1 0x0 KECCAK256 PUSH1 0x1 ADD PUSH1 0x0 SWAP1 SLOAD SWAP1 PUSH2 0x100 EXP SWAP1 DIV PUSH20 0xFFFFFFFFFFFFFFFFFFFFFFFFFFFFFFFFFFFFFFFF AND PUSH1 0x0 DUP1 ADD PUSH1 0x0 DUP12 DUP2 MSTORE PUSH1 0x20 ADD SWAP1 DUP2 MSTORE PUSH1 0x20 ADD PUSH1 0x0 KECCAK256 PUSH1 0x1 ADD PUSH1 0x15 SWAP1 SLOAD SWAP1 PUSH2 0x100 EXP SWAP1 DIV PUSH1 0xFF AND PUSH1 0x0 DUP1 ADD PUSH1 0x0 DUP13 DUP2 MSTORE PUSH1 0x20 ADD SWAP1 DUP2 MSTORE PUSH1 0x20 ADD PUSH1 0x0 KECCAK256 PUSH1 0x2 ADD PUSH1 0x0 DUP1 ADD PUSH1 0x0 DUP14 DUP2 MSTORE PUSH1 0x20 ADD SWAP1 DUP2 MSTORE PUSH1 0x20 ADD PUSH1 0x0 KECCAK256 PUSH1 0x3 ADD DUP5 DUP1 SLOAD PUSH2 0xBA0 SWAP1 PUSH2 0x330B JUMP JUMPDEST DUP1 PUSH1 0x1F ADD PUSH1 0x20 DUP1 SWAP2 DIV MUL PUSH1 0x20 ADD PUSH1 0x40 MLOAD SWAP1 DUP2 ADD PUSH1 0x40 MSTORE DUP1 SWAP3 SWAP2 SWAP1 DUP2 DUP2 MSTORE PUSH1 0x20 ADD DUP3 DUP1 SLOAD PUSH2 0xBCC SWAP1 PUSH2 0x330B JUMP JUMPDEST DUP1 ISZERO PUSH2 0xC19 JUMPI DUP1 PUSH1 0x1F LT PUSH2 0xBEE JUMPI PUSH2 0x100 DUP1 DUP4 SLOAD DIV MUL DUP4 MSTORE SWAP2 PUSH1 0x20 ADD SWAP2 PUSH2 0xC19 JUMP JUMPDEST DUP3 ADD SWAP2 SWAP1 PUSH1 0x0 MSTORE PUSH1 0x20 PUSH1 0x0 KECCAK256 SWAP1 JUMPDEST DUP2 SLOAD DUP2 MSTORE SWAP1 PUSH1 0x1 ADD SWAP1 PUSH1 0x20 ADD DUP1 DUP4 GT PUSH2 0xBFC JUMPI DUP3 SWAP1 SUB PUSH1 0x1F AND DUP3 ADD SWAP2 JUMPDEST POP POP POP POP POP SWAP5 POP DUP2 DUP1 SLOAD DUP1 PUSH1 0x20 MUL PUSH1 0x20 ADD PUSH1 0x40 MLOAD SWAP1 DUP2 ADD PUSH1 0x40 MSTORE DUP1 SWAP3 SWAP2 SWAP1 DUP2 DUP2 MSTORE PUSH1 0x20 ADD DUP3 DUP1 SLOAD DUP1 ISZERO PUSH2 0xC6B JUMPI PUSH1 0x20 MUL DUP3 ADD SWAP2 SWAP1 PUSH1 0x0 MSTORE PUSH1 0x20 PUSH1 0x0 KECCAK256 SWAP1 JUMPDEST DUP2 SLOAD DUP2 MSTORE PUSH1 0x20 ADD SWAP1 PUSH1 0x1 ADD SWAP1 DUP1 DUP4 GT PUSH2 0xC57 JUMPI JUMPDEST POP POP POP POP POP SWAP2 POP DUP1 DUP1 SLOAD DUP1 PUSH1 0x20 MUL PUSH1 0x20 ADD PUSH1 0x40 MLOAD SWAP1 DUP2 ADD PUSH1 0x40 MSTORE DUP1 SWAP3 SWAP2 SWAP1 DUP2 DUP2 MSTORE PUSH1 0x20 ADD DUP3 DUP1 SLOAD DUP1 ISZERO PUSH2 0xCBD JUMPI PUSH1 0x20 MUL DUP3 ADD SWAP2 SWAP1 PUSH1 0x0 MSTORE PUSH1 0x20 PUSH1 0x0 KECCAK256 SWAP1 JUMPDEST DUP2 SLOAD DUP2 MSTORE PUSH1 0x20 ADD SWAP1 PUSH1 0x1 ADD SWAP1 DUP1 DUP4 GT PUSH2 0xCA9 JUMPI JUMPDEST POP POP POP POP POP SWAP1 POP SWAP6 POP SWAP6 POP SWAP6 POP SWAP6 POP SWAP6 POP SWAP6 POP SWAP2 SWAP4 SWAP6 POP SWAP2 SWAP4 SWAP6 JUMP JUMPDEST PUSH1 0x0 DUP1 PUSH1 0x0 ADD PUSH1 0x0 DUP4 DUP2 MSTORE PUSH1 0x20 ADD SWAP1 DUP2 MSTORE PUSH1 0x20 ADD PUSH1 0x0 KECCAK256 PUSH1 0x1 ADD PUSH1 0x14 SWAP1 SLOAD SWAP1 PUSH2 0x100 EXP SWAP1 DIV PUSH1 0xFF AND ISZERO PUSH2 0xD41 JUMPI PUSH1 0x40 MLOAD PUSH32 0x8C379A000000000000000000000000000000000000000000000000000000000 DUP2 MSTORE PUSH1 0x4 ADD PUSH2 0xD38 SWAP1 PUSH2 0x2F24 JUMP JUMPDEST PUSH1 0x40 MLOAD DUP1 SWAP2 SUB SWAP1 REVERT JUMPDEST PUSH1 0x0 DUP1 PUSH1 0x0 ADD PUSH1 0x0 DUP5 DUP2 MSTORE PUSH1 0x20 ADD SWAP1 DUP2 MSTORE PUSH1 0x20 ADD PUSH1 0x0 KECCAK256 PUSH1 0x40 MLOAD DUP1 PUSH1 0xE0 ADD PUSH1 0x40 MSTORE SWAP1 DUP2 PUSH1 0x0 DUP3 ADD DUP1 SLOAD PUSH2 0xD73 SWAP1 PUSH2 0x330B JUMP JUMPDEST DUP1 PUSH1 0x1F ADD PUSH1 0x20 DUP1 SWAP2 DIV MUL PUSH1 0x20 ADD PUSH1 0x40 MLOAD SWAP1 DUP2 ADD PUSH1 0x40 MSTORE DUP1 SWAP3 SWAP2 SWAP1 DUP2 DUP2 MSTORE PUSH1 0x20 ADD DUP3 DUP1 SLOAD PUSH2 0xD9F SWAP1 PUSH2 0x330B JUMP JUMPDEST DUP1 ISZERO PUSH2 0xDEC JUMPI DUP1 PUSH1 0x1F LT PUSH2 0xDC1 JUMPI PUSH2 0x100 DUP1 DUP4 SLOAD DIV MUL DUP4 MSTORE SWAP2 PUSH1 0x20 ADD SWAP2 PUSH2 0xDEC JUMP JUMPDEST DUP3 ADD SWAP2 SWAP1 PUSH1 0x0 MSTORE PUSH1 0x20 PUSH1 0x0 KECCAK256 SWAP1 JUMPDEST DUP2 SLOAD DUP2 MSTORE SWAP1 PUSH1 0x1 ADD SWAP1 PUSH1 0x20 ADD DUP1 DUP4 GT PUSH2 0xDCF JUMPI DUP3 SWAP1 SUB PUSH1 0x1F AND DUP3 ADD SWAP2 JUMPDEST POP POP POP POP POP DUP2 MSTORE PUSH1 0x20 ADD PUSH1 0x1 DUP3 ADD PUSH1 0x0 SWAP1 SLOAD SWAP1 PUSH2 0x100 EXP SWAP1 DIV PUSH20 0xFFFFFFFFFFFFFFFFFFFFFFFFFFFFFFFFFFFFFFFF AND PUSH20 0xFFFFFFFFFFFFFFFFFFFFFFFFFFFFFFFFFFFFFFFF AND PUSH20 0xFFFFFFFFFFFFFFFFFFFFFFFFFFFFFFFFFFFFFFFF AND DUP2 MSTORE PUSH1 0x20 ADD PUSH1 0x1 DUP3 ADD PUSH1 0x14 SWAP1 SLOAD SWAP1 PUSH2 0x100 EXP SWAP1 DIV PUSH1 0xFF AND ISZERO ISZERO ISZERO ISZERO DUP2 MSTORE PUSH1 0x20 ADD PUSH1 0x1 DUP3 ADD PUSH1 0x15 SWAP1 SLOAD SWAP1 PUSH2 0x100 EXP SWAP1 DIV PUSH1 0xFF AND PUSH1 0x3 DUP2 GT ISZERO PUSH2 0xEB1 JUMPI PUSH32 0x4E487B7100000000000000000000000000000000000000000000000000000000 PUSH1 0x0 MSTORE PUSH1 0x21 PUSH1 0x4 MSTORE PUSH1 0x24 PUSH1 0x0 REVERT JUMPDEST PUSH1 0x3 DUP2 GT ISZERO PUSH2 0xEE9 JUMPI PUSH32 0x4E487B7100000000000000000000000000000000000000000000000000000000 PUSH1 0x0 MSTORE PUSH1 0x21 PUSH1 0x4 MSTORE PUSH1 0x24 PUSH1 0x0 REVERT JUMPDEST DUP2 MSTORE PUSH1 0x20 ADD PUSH1 0x2 DUP3 ADD DUP1 SLOAD DUP1 PUSH1 0x20 MUL PUSH1 0x20 ADD PUSH1 0x40 MLOAD SWAP1 DUP2 ADD PUSH1 0x40 MSTORE DUP1 SWAP3 SWAP2 SWAP1 DUP2 DUP2 MSTORE PUSH1 0x20 ADD DUP3 DUP1 SLOAD DUP1 ISZERO PUSH2 0xF3C JUMPI PUSH1 0x20 MUL DUP3 ADD SWAP2 SWAP1 PUSH1 0x0 MSTORE PUSH1 0x20 PUSH1 0x0 KECCAK256 SWAP1 JUMPDEST DUP2 SLOAD DUP2 MSTORE PUSH1 0x20 ADD SWAP1 PUSH1 0x1 ADD SWAP1 DUP1 DUP4 GT PUSH2 0xF28 JUMPI JUMPDEST POP POP POP POP POP DUP2 MSTORE PUSH1 0x20 ADD PUSH1 0x3 DUP3 ADD DUP1 SLOAD DUP1 PUSH1 0x20 MUL PUSH1 0x20 ADD PUSH1 0x40 MLOAD SWAP1 DUP2 ADD PUSH1 0x40 MSTORE DUP1 SWAP3 SWAP2 SWAP1 DUP2 DUP2 MSTORE PUSH1 0x20 ADD DUP3 DUP1 SLOAD DUP1 ISZERO PUSH2 0xF94 JUMPI PUSH1 0x20 MUL DUP3 ADD SWAP2 SWAP1 PUSH1 0x0 MSTORE PUSH1 0x20 PUSH1 0x0 KECCAK256 SWAP1 JUMPDEST DUP2 SLOAD DUP2 MSTORE PUSH1 0x20 ADD SWAP1 PUSH1 0x1 ADD SWAP1 DUP1 DUP4 GT PUSH2 0xF80 JUMPI JUMPDEST POP POP POP POP POP DUP2 MSTORE PUSH1 0x20 ADD PUSH1 0x4 DUP3 ADD PUSH1 0x40 MLOAD DUP1 PUSH2 0x120 ADD PUSH1 0x40 MSTORE SWAP1 DUP2 PUSH1 0x0 DUP3 ADD SLOAD DUP2 MSTORE PUSH1 0x20 ADD PUSH1 0x1 DUP3 ADD PUSH1 0x0 SWAP1 SLOAD SWAP1 PUSH2 0x100 EXP SWAP1 DIV PUSH1 0xFF AND PUSH1 0x3 DUP2 GT ISZERO PUSH2 0x1003 JUMPI PUSH32 0x4E487B7100000000000000000000000000000000000000000000000000000000 PUSH1 0x0 MSTORE PUSH1 0x21 PUSH1 0x4 MSTORE PUSH1 0x24 PUSH1 0x0 REVERT JUMPDEST PUSH1 0x3 DUP2 GT ISZERO PUSH2 0x103B JUMPI PUSH32 0x4E487B7100000000000000000000000000000000000000000000000000000000 PUSH1 0x0 MSTORE PUSH1 0x21 PUSH1 0x4 MSTORE PUSH1 0x24 PUSH1 0x0 REVERT JUMPDEST DUP2 MSTORE PUSH1 0x20 ADD PUSH1 0x1 DUP3 ADD PUSH1 0x1 SWAP1 SLOAD SWAP1 PUSH2 0x100 EXP SWAP1 DIV PUSH1 0xFF AND PUSH1 0x2 DUP2 GT ISZERO PUSH2 0x108A JUMPI PUSH32 0x4E487B7100000000000000000000000000000000000000000000000000000000 PUSH1 0x0 MSTORE PUSH1 0x21 PUSH1 0x4 MSTORE PUSH1 0x24 PUSH1 0x0 REVERT JUMPDEST PUSH1 0x2 DUP2 GT ISZERO PUSH2 0x10C2 JUMPI PUSH32 0x4E487B7100000000000000000000000000000000000000000000000000000000 PUSH1 0x0 MSTORE PUSH1 0x21 PUSH1 0x4 MSTORE PUSH1 0x24 PUSH1 0x0 REVERT JUMPDEST DUP2 MSTORE PUSH1 0x20 ADD PUSH1 0x1 DUP3 ADD PUSH1 0x2 SWAP1 SLOAD SWAP1 PUSH2 0x100 EXP SWAP1 DIV PUSH1 0xFF AND ISZERO ISZERO ISZERO ISZERO DUP2 MSTORE PUSH1 0x20 ADD PUSH1 0x1 DUP3 ADD PUSH1 0x3 SWAP1 SLOAD SWAP1 PUSH2 0x100 EXP SWAP1 DIV PUSH1 0xFF AND ISZERO ISZERO ISZERO ISZERO DUP2 MSTORE PUSH1 0x20 ADD PUSH1 0x1 DUP3 ADD PUSH1 0x4 SWAP1 SLOAD SWAP1 PUSH2 0x100 EXP SWAP1 DIV PUSH1 0xFF AND PUSH1 0x6 DUP2 GT ISZERO PUSH2 0x1147 JUMPI PUSH32 0x4E487B7100000000000000000000000000000000000000000000000000000000 PUSH1 0x0 MSTORE PUSH1 0x21 PUSH1 0x4 MSTORE PUSH1 0x24 PUSH1 0x0 REVERT JUMPDEST PUSH1 0x6 DUP2 GT ISZERO PUSH2 0x117F JUMPI PUSH32 0x4E487B7100000000000000000000000000000000000000000000000000000000 PUSH1 0x0 MSTORE PUSH1 0x21 PUSH1 0x4 MSTORE PUSH1 0x24 PUSH1 0x0 REVERT JUMPDEST DUP2 MSTORE PUSH1 0x20 ADD PUSH1 0x2 DUP3 ADD DUP1 SLOAD PUSH2 0x1193 SWAP1 PUSH2 0x330B JUMP JUMPDEST DUP1 PUSH1 0x1F ADD PUSH1 0x20 DUP1 SWAP2 DIV MUL PUSH1 0x20 ADD PUSH1 0x40 MLOAD SWAP1 DUP2 ADD PUSH1 0x40 MSTORE DUP1 SWAP3 SWAP2 SWAP1 DUP2 DUP2 MSTORE PUSH1 0x20 ADD DUP3 DUP1 SLOAD PUSH2 0x11BF SWAP1 PUSH2 0x330B JUMP JUMPDEST DUP1 ISZERO PUSH2 0x120C JUMPI DUP1 PUSH1 0x1F LT PUSH2 0x11E1 JUMPI PUSH2 0x100 DUP1 DUP4 SLOAD DIV MUL DUP4 MSTORE SWAP2 PUSH1 0x20 ADD SWAP2 PUSH2 0x120C JUMP JUMPDEST DUP3 ADD SWAP2 SWAP1 PUSH1 0x0 MSTORE PUSH1 0x20 PUSH1 0x0 KECCAK256 SWAP1 JUMPDEST DUP2 SLOAD DUP2 MSTORE SWAP1 PUSH1 0x1 ADD SWAP1 PUSH1 0x20 ADD DUP1 DUP4 GT PUSH2 0x11EF JUMPI DUP3 SWAP1 SUB PUSH1 0x1F AND DUP3 ADD SWAP2 JUMPDEST POP POP POP POP POP DUP2 MSTORE PUSH1 0x20 ADD PUSH1 0x3 DUP3 ADD DUP1 SLOAD PUSH2 0x1225 SWAP1 PUSH2 0x330B JUMP JUMPDEST DUP1 PUSH1 0x1F ADD PUSH1 0x20 DUP1 SWAP2 DIV MUL PUSH1 0x20 ADD PUSH1 0x40 MLOAD SWAP1 DUP2 ADD PUSH1 0x40 MSTORE DUP1 SWAP3 SWAP2 SWAP1 DUP2 DUP2 MSTORE PUSH1 0x20 ADD DUP3 DUP1 SLOAD PUSH2 0x1251 SWAP1 PUSH2 0x330B JUMP JUMPDEST DUP1 ISZERO PUSH2 0x129E JUMPI DUP1 PUSH1 0x1F LT PUSH2 0x1273 JUMPI PUSH2 0x100 DUP1 DUP4 SLOAD DIV MUL DUP4 MSTORE SWAP2 PUSH1 0x20 ADD SWAP2 PUSH2 0x129E JUMP JUMPDEST DUP3 ADD SWAP2 SWAP1 PUSH1 0x0 MSTORE PUSH1 0x20 PUSH1 0x0 KECCAK256 SWAP1 JUMPDEST DUP2 SLOAD DUP2 MSTORE SWAP1 PUSH1 0x1 ADD SWAP1 PUSH1 0x20 ADD DUP1 DUP4 GT PUSH2 0x1281 JUMPI DUP3 SWAP1 SUB PUSH1 0x1F AND DUP3 ADD SWAP2 JUMPDEST POP POP POP POP POP DUP2 MSTORE PUSH1 0x20 ADD PUSH1 0x4 DUP3 ADD DUP1 SLOAD DUP1 PUSH1 0x20 MUL PUSH1 0x20 ADD PUSH1 0x40 MLOAD SWAP1 DUP2 ADD PUSH1 0x40 MSTORE DUP1 SWAP3 SWAP2 SWAP1 DUP2 DUP2 MSTORE PUSH1 0x20 ADD DUP3 DUP1 SLOAD DUP1 ISZERO PUSH2 0x12F6 JUMPI PUSH1 0x20 MUL DUP3 ADD SWAP2 SWAP1 PUSH1 0x0 MSTORE PUSH1 0x20 PUSH1 0x0 KECCAK256 SWAP1 JUMPDEST DUP2 SLOAD DUP2 MSTORE PUSH1 0x20 ADD SWAP1 PUSH1 0x1 ADD SWAP1 DUP1 DUP4 GT PUSH2 0x12E2 JUMPI JUMPDEST POP POP POP POP POP DUP2 MSTORE POP POP DUP2 MSTORE POP POP SWAP1 POP PUSH1 0x0 PUSH20 0x0 PUSH4 0xE00E0EEA DUP4 PUSH1 0x0 PUSH1 0x40 MLOAD DUP4 PUSH4 0xFFFFFFFF AND PUSH1 0xE0 SHL DUP2 MSTORE PUSH1 0x4 ADD PUSH2 0x1341 SWAP3 SWAP2 SWAP1 PUSH2 0x2F44 JUMP JUMPDEST PUSH1 0x40 DUP1 MLOAD DUP1 DUP4 SUB DUP2 DUP7 DUP1 EXTCODESIZE ISZERO DUP1 ISZERO PUSH2 0x1358 JUMPI PUSH1 0x0 DUP1 REVERT JUMPDEST POP GAS DELEGATECALL ISZERO DUP1 ISZERO PUSH2 0x136C JUMPI RETURNDATASIZE PUSH1 0x0 DUP1 RETURNDATACOPY RETURNDATASIZE PUSH1 0x0 REVERT JUMPDEST POP POP POP POP PUSH1 0x40 MLOAD RETURNDATASIZE PUSH1 0x1F NOT PUSH1 0x1F DUP3 ADD AND DUP3 ADD DUP1 PUSH1 0x40 MSTORE POP DUP2 ADD SWAP1 PUSH2 0x1390 SWAP2 SWAP1 PUSH2 0x22FB JUMP JUMPDEST DUP1 SWAP3 POP DUP2 SWAP5 POP POP POP DUP2 PUSH1 0xC0 ADD MLOAD PUSH1 0x80 ADD MLOAD ISZERO PUSH2 0x146D JUMPI DUP3 PUSH1 0x0 PUSH1 0x3 ADD PUSH1 0x0 DUP4 DUP2 MSTORE PUSH1 0x20 ADD SWAP1 DUP2 MSTORE PUSH1 0x20 ADD PUSH1 0x0 KECCAK256 PUSH1 0x0 PUSH2 0x100 EXP DUP2 SLOAD DUP2 PUSH1 0xFF MUL NOT AND SWAP1 DUP4 ISZERO ISZERO MUL OR SWAP1 SSTORE POP PUSH1 0x0 JUMPDEST DUP3 PUSH1 0xA0 ADD MLOAD MLOAD DUP2 LT ISZERO PUSH2 0x146B JUMPI DUP4 PUSH1 0x0 DUP1 ADD PUSH1 0x0 DUP6 PUSH1 0xA0 ADD MLOAD DUP5 DUP2 MLOAD DUP2 LT PUSH2 0x1428 JUMPI PUSH32 0x4E487B7100000000000000000000000000000000000000000000000000000000 PUSH1 0x0 MSTORE PUSH1 0x32 PUSH1 0x4 MSTORE PUSH1 0x24 PUSH1 0x0 REVERT JUMPDEST PUSH1 0x20 MUL PUSH1 0x20 ADD ADD MLOAD DUP2 MSTORE PUSH1 0x20 ADD SWAP1 DUP2 MSTORE PUSH1 0x20 ADD PUSH1 0x0 KECCAK256 PUSH1 0x1 ADD PUSH1 0x14 PUSH2 0x100 EXP DUP2 SLOAD DUP2 PUSH1 0xFF MUL NOT AND SWAP1 DUP4 ISZERO ISZERO MUL OR SWAP1 SSTORE POP DUP1 DUP1 PUSH2 0x1463 SWAP1 PUSH2 0x333D JUMP JUMPDEST SWAP2 POP POP PUSH2 0x13D7 JUMP JUMPDEST POP JUMPDEST DUP3 PUSH1 0x0 DUP1 ADD PUSH1 0x0 DUP7 DUP2 MSTORE PUSH1 0x20 ADD SWAP1 DUP2 MSTORE PUSH1 0x20 ADD PUSH1 0x0 KECCAK256 PUSH1 0x1 ADD PUSH1 0x14 PUSH2 0x100 EXP DUP2 SLOAD DUP2 PUSH1 0xFF MUL NOT AND SWAP1 DUP4 ISZERO ISZERO MUL OR SWAP1 SSTORE POP DUP3 ISZERO ISZERO PUSH32 0xACD30B4F9FD5868793E13FFB506F03374A23D9FEBA1249AC2CC7B0FE024FF4BA PUSH1 0x40 MLOAD PUSH1 0x40 MLOAD DUP1 SWAP2 SUB SWAP1 LOG2 DUP3 ISZERO PUSH2 0x153C JUMPI PUSH1 0x6 DUP3 PUSH1 0x0 ADD MLOAD SWAP1 DUP1 PUSH1 0x1 DUP2 SLOAD ADD DUP1 DUP3 SSTORE DUP1 SWAP2 POP POP PUSH1 0x1 SWAP1 SUB SWAP1 PUSH1 0x0 MSTORE PUSH1 0x20 PUSH1 0x0 KECCAK256 ADD PUSH1 0x0 SWAP1 SWAP2 SWAP1 SWAP2 SWAP1 SWAP2 POP SWAP1 DUP1 MLOAD SWAP1 PUSH1 0x20 ADD SWAP1 PUSH2 0x1511 SWAP3 SWAP2 SWAP1 PUSH2 0x18C7 JUMP JUMPDEST POP PUSH1 0x5 DUP5 SWAP1 DUP1 PUSH1 0x1 DUP2 SLOAD ADD DUP1 DUP3 SSTORE DUP1 SWAP2 POP POP PUSH1 0x1 SWAP1 SUB SWAP1 PUSH1 0x0 MSTORE PUSH1 0x20 PUSH1 0x0 KECCAK256 ADD PUSH1 0x0 SWAP1 SWAP2 SWAP1 SWAP2 SWAP1 SWAP2 POP SSTORE JUMPDEST POP POP SWAP2 SWAP1 POP JUMP JUMPDEST PUSH1 0x0 PUSH1 0x2 DUP2 GT ISZERO PUSH2 0x157D JUMPI PUSH32 0x4E487B7100000000000000000000000000000000000000000000000000000000 PUSH1 0x0 MSTORE PUSH1 0x21 PUSH1 0x4 MSTORE PUSH1 0x24 PUSH1 0x0 REVERT JUMPDEST DUP2 PUSH1 0x40 ADD MLOAD PUSH1 0x2 DUP2 GT ISZERO PUSH2 0x15BA JUMPI PUSH32 0x4E487B7100000000000000000000000000000000000000000000000000000000 PUSH1 0x0 MSTORE PUSH1 0x21 PUSH1 0x4 MSTORE PUSH1 0x24 PUSH1 0x0 REVERT JUMPDEST EQ ISZERO PUSH2 0x160E JUMPI PUSH1 0x40 MLOAD DUP1 PUSH1 0x20 ADD PUSH1 0x40 MSTORE DUP1 PUSH1 0x0 DUP2 MSTORE POP PUSH1 0x0 PUSH1 0x2 ADD DUP3 PUSH1 0xC0 ADD MLOAD PUSH1 0x40 MLOAD PUSH2 0x15E7 SWAP2 SWAP1 PUSH2 0x2D8C JUMP JUMPDEST SWAP1 DUP2 MSTORE PUSH1 0x20 ADD PUSH1 0x40 MLOAD DUP1 SWAP2 SUB SWAP1 KECCAK256 SWAP1 DUP1 MLOAD SWAP1 PUSH1 0x20 ADD SWAP1 PUSH2 0x1608 SWAP3 SWAP2 SWAP1 PUSH2 0x18C7 JUMP JUMPDEST POP PUSH2 0x16B7 JUMP JUMPDEST PUSH1 0x1 PUSH1 0x2 DUP2 GT ISZERO PUSH2 0x1648 JUMPI PUSH32 0x4E487B7100000000000000000000000000000000000000000000000000000000 PUSH1 0x0 MSTORE PUSH1 0x21 PUSH1 0x4 MSTORE PUSH1 0x24 PUSH1 0x0 REVERT JUMPDEST DUP2 PUSH1 0x40 ADD MLOAD PUSH1 0x2 DUP2 GT ISZERO PUSH2 0x1685 JUMPI PUSH32 0x4E487B7100000000000000000000000000000000000000000000000000000000 PUSH1 0x0 MSTORE PUSH1 0x21 PUSH1 0x4 MSTORE PUSH1 0x24 PUSH1 0x0 REVERT JUMPDEST EQ ISZERO PUSH2 0x16B6 JUMPI PUSH1 0x0 DUP1 PUSH1 0x1 ADD DUP3 PUSH1 0xC0 ADD MLOAD PUSH1 0x40 MLOAD PUSH2 0x16A3 SWAP2 SWAP1 PUSH2 0x2D8C JUMP JUMPDEST SWAP1 DUP2 MSTORE PUSH1 0x20 ADD PUSH1 0x40 MLOAD DUP1 SWAP2 SUB SWAP1 KECCAK256 DUP2 SWAP1 SSTORE POP JUMPDEST JUMPDEST PUSH2 0x16C5 DUP8 DUP8 DUP8 DUP8 DUP8 DUP8 PUSH2 0x335 JUMP JUMPDEST DUP1 PUSH1 0x0 DUP1 ADD PUSH1 0x0 DUP10 DUP2 MSTORE PUSH1 0x20 ADD SWAP1 DUP2 MSTORE PUSH1 0x20 ADD PUSH1 0x0 KECCAK256 PUSH1 0x4 ADD PUSH1 0x0 DUP3 ADD MLOAD DUP2 PUSH1 0x0 ADD SSTORE PUSH1 0x20 DUP3 ADD MLOAD DUP2 PUSH1 0x1 ADD PUSH1 0x0 PUSH2 0x100 EXP DUP2 SLOAD DUP2 PUSH1 0xFF MUL NOT AND SWAP1 DUP4 PUSH1 0x3 DUP2 GT ISZERO PUSH2 0x1739 JUMPI PUSH32 0x4E487B7100000000000000000000000000000000000000000000000000000000 PUSH1 0x0 MSTORE PUSH1 0x21 PUSH1 0x4 MSTORE PUSH1 0x24 PUSH1 0x0 REVERT JUMPDEST MUL OR SWAP1 SSTORE POP PUSH1 0x40 DUP3 ADD MLOAD DUP2 PUSH1 0x1 ADD PUSH1 0x1 PUSH2 0x100 EXP DUP2 SLOAD DUP2 PUSH1 0xFF MUL NOT AND SWAP1 DUP4 PUSH1 0x2 DUP2 GT ISZERO PUSH2 0x178F JUMPI PUSH32 0x4E487B7100000000000000000000000000000000000000000000000000000000 PUSH1 0x0 MSTORE PUSH1 0x21 PUSH1 0x4 MSTORE PUSH1 0x24 PUSH1 0x0 REVERT JUMPDEST MUL OR SWAP1 SSTORE POP PUSH1 0x60 DUP3 ADD MLOAD DUP2 PUSH1 0x1 ADD PUSH1 0x2 PUSH2 0x100 EXP DUP2 SLOAD DUP2 PUSH1 0xFF MUL NOT AND SWAP1 DUP4 ISZERO ISZERO MUL OR SWAP1 SSTORE POP PUSH1 0x80 DUP3 ADD MLOAD DUP2 PUSH1 0x1 ADD PUSH1 0x3 PUSH2 0x100 EXP DUP2 SLOAD DUP2 PUSH1 0xFF MUL NOT AND SWAP1 DUP4 ISZERO ISZERO MUL OR SWAP1 SSTORE POP PUSH1 0xA0 DUP3 ADD MLOAD DUP2 PUSH1 0x1 ADD PUSH1 0x4 PUSH2 0x100 EXP DUP2 SLOAD DUP2 PUSH1 0xFF MUL NOT AND SWAP1 DUP4 PUSH1 0x6 DUP2 GT ISZERO PUSH2 0x1825 JUMPI PUSH32 0x4E487B7100000000000000000000000000000000000000000000000000000000 PUSH1 0x0 MSTORE PUSH1 0x21 PUSH1 0x4 MSTORE PUSH1 0x24 PUSH1 0x0 REVERT JUMPDEST MUL OR SWAP1 SSTORE POP PUSH1 0xC0 DUP3 ADD MLOAD DUP2 PUSH1 0x2 ADD SWAP1 DUP1 MLOAD SWAP1 PUSH1 0x20 ADD SWAP1 PUSH2 0x1846 SWAP3 SWAP2 SWAP1 PUSH2 0x18C7 JUMP JUMPDEST POP PUSH1 0xE0 DUP3 ADD MLOAD DUP2 PUSH1 0x3 ADD SWAP1 DUP1 MLOAD SWAP1 PUSH1 0x20 ADD SWAP1 PUSH2 0x1863 SWAP3 SWAP2 SWAP1 PUSH2 0x18C7 JUMP JUMPDEST POP PUSH2 0x100 DUP3 ADD MLOAD DUP2 PUSH1 0x4 ADD SWAP1 DUP1 MLOAD SWAP1 PUSH1 0x20 ADD SWAP1 PUSH2 0x1881 SWAP3 SWAP2 SWAP1 PUSH2 0x199A JUMP JUMPDEST POP SWAP1 POP POP POP POP POP POP POP POP POP JUMP JUMPDEST DUP2 DUP2 PUSH1 0x0 PUSH1 0x2 ADD DUP7 DUP7 PUSH1 0x40 MLOAD PUSH2 0x18A5 SWAP3 SWAP2 SWAP1 PUSH2 0x2D73 JUMP JUMPDEST SWAP1 DUP2 MSTORE PUSH1 0x20 ADD PUSH1 0x40 MLOAD DUP1 SWAP2 SUB SWAP1 KECCAK256 SWAP2 SWAP1 PUSH2 0x18C0 SWAP3 SWAP2 SWAP1 PUSH2 0x19E7 JUMP JUMPDEST POP POP POP POP POP JUMP JUMPDEST DUP3 DUP1 SLOAD PUSH2 0x18D3 SWAP1 PUSH2 0x330B JUMP JUMPDEST SWAP1 PUSH1 0x0 MSTORE PUSH1 0x20 PUSH1 0x0 KECCAK256 SWAP1 PUSH1 0x1F ADD PUSH1 0x20 SWAP1 DIV DUP2 ADD SWAP3 DUP3 PUSH2 0x18F5 JUMPI PUSH1 0x0 DUP6 SSTORE PUSH2 0x193C JUMP JUMPDEST DUP3 PUSH1 0x1F LT PUSH2 0x190E JUMPI DUP1 MLOAD PUSH1 0xFF NOT AND DUP4 DUP1 ADD OR DUP6 SSTORE PUSH2 0x193C JUMP JUMPDEST DUP3 DUP1 ADD PUSH1 0x1 ADD DUP6 SSTORE DUP3 ISZERO PUSH2 0x193C JUMPI SWAP2 DUP3 ADD JUMPDEST DUP3 DUP2 GT ISZERO PUSH2 0x193B JUMPI DUP3 MLOAD DUP3 SSTORE SWAP2 PUSH1 0x20 ADD SWAP2 SWAP1 PUSH1 0x1 ADD SWAP1 PUSH2 0x1920 JUMP JUMPDEST JUMPDEST POP SWAP1 POP PUSH2 0x1949 SWAP2 SWAP1 PUSH2 0x1A6D JUMP JUMPDEST POP SWAP1 JUMP JUMPDEST DUP3 DUP1 SLOAD DUP3 DUP3 SSTORE SWAP1 PUSH1 0x0 MSTORE PUSH1 0x20 PUSH1 0x0 KECCAK256 SWAP1 DUP2 ADD SWAP3 DUP3 ISZERO PUSH2 0x1989 JUMPI SWAP2 PUSH1 0x20 MUL DUP3 ADD JUMPDEST DUP3 DUP2 GT ISZERO PUSH2 0x1988 JUMPI DUP3 MLOAD DUP3 SSTORE SWAP2 PUSH1 0x20 ADD SWAP2 SWAP1 PUSH1 0x1 ADD SWAP1 PUSH2 0x196D JUMP JUMPDEST JUMPDEST POP SWAP1 POP PUSH2 0x1996 SWAP2 SWAP1 PUSH2 0x1A6D JUMP JUMPDEST POP SWAP1 JUMP JUMPDEST DUP3 DUP1 SLOAD DUP3 DUP3 SSTORE SWAP1 PUSH1 0x0 MSTORE PUSH1 0x20 PUSH1 0x0 KECCAK256 SWAP1 DUP2 ADD SWAP3 DUP3 ISZERO PUSH2 0x19D6 JUMPI SWAP2 PUSH1 0x20 MUL DUP3 ADD JUMPDEST DUP3 DUP2 GT ISZERO PUSH2 0x19D5 JUMPI DUP3 MLOAD DUP3 SSTORE SWAP2 PUSH1 0x20 ADD SWAP2 SWAP1 PUSH1 0x1 ADD SWAP1 PUSH2 0x19BA JUMP JUMPDEST JUMPDEST POP SWAP1 POP PUSH2 0x19E3 SWAP2 SWAP1 PUSH2 0x1A8A JUMP JUMPDEST POP SWAP1 JUMP JUMPDEST DUP3 DUP1 SLOAD PUSH2 0x19F3 SWAP1 PUSH2 0x330B JUMP JUMPDEST SWAP1 PUSH1 0x0 MSTORE PUSH1 0x20 PUSH1 0x0 KECCAK256 SWAP1 PUSH1 0x1F ADD PUSH1 0x20 SWAP1 DIV DUP2 ADD SWAP3 DUP3 PUSH2 0x1A15 JUMPI PUSH1 0x0 DUP6 SSTORE PUSH2 0x1A5C JUMP JUMPDEST DUP3 PUSH1 0x1F LT PUSH2 0x1A2E JUMPI DUP1 CALLDATALOAD PUSH1 0xFF NOT AND DUP4 DUP1 ADD OR DUP6 SSTORE PUSH2 0x1A5C JUMP JUMPDEST DUP3 DUP1 ADD PUSH1 0x1 ADD DUP6 SSTORE DUP3 ISZERO PUSH2 0x1A5C JUMPI SWAP2 DUP3 ADD JUMPDEST DUP3 DUP2 GT ISZERO PUSH2 0x1A5B JUMPI DUP3 CALLDATALOAD DUP3 SSTORE SWAP2 PUSH1 0x20 ADD SWAP2 SWAP1 PUSH1 0x1 ADD SWAP1 PUSH2 0x1A40 JUMP JUMPDEST JUMPDEST POP SWAP1 POP PUSH2 0x1A69 SWAP2 SWAP1 PUSH2 0x1A6D JUMP JUMPDEST POP SWAP1 JUMP JUMPDEST JUMPDEST DUP1 DUP3 GT ISZERO PUSH2 0x1A86 JUMPI PUSH1 0x0 DUP2 PUSH1 0x0 SWAP1 SSTORE POP PUSH1 0x1 ADD PUSH2 0x1A6E JUMP JUMPDEST POP SWAP1 JUMP JUMPDEST JUMPDEST DUP1 DUP3 GT ISZERO PUSH2 0x1AA3 JUMPI PUSH1 0x0 DUP2 PUSH1 0x0 SWAP1 SSTORE POP PUSH1 0x1 ADD PUSH2 0x1A8B JUMP JUMPDEST POP SWAP1 JUMP JUMPDEST PUSH1 0x0 PUSH2 0x1ABA PUSH2 0x1AB5 DUP5 PUSH2 0x3020 JUMP JUMPDEST PUSH2 0x2FEF JUMP JUMPDEST SWAP1 POP DUP1 DUP4 DUP3 MSTORE PUSH1 0x20 DUP3 ADD SWAP1 POP DUP3 DUP6 PUSH1 0x20 DUP7 MUL DUP3 ADD GT ISZERO PUSH2 0x1AD9 JUMPI PUSH1 0x0 DUP1 REVERT JUMPDEST PUSH1 0x0 JUMPDEST DUP6 DUP2 LT ISZERO PUSH2 0x1B09 JUMPI DUP2 PUSH2 0x1AEF DUP9 DUP3 PUSH2 0x1E4D JUMP JUMPDEST DUP5 MSTORE PUSH1 0x20 DUP5 ADD SWAP4 POP PUSH1 0x20 DUP4 ADD SWAP3 POP POP PUSH1 0x1 DUP2 ADD SWAP1 POP PUSH2 0x1ADC JUMP JUMPDEST POP POP POP SWAP4 SWAP3 POP POP POP JUMP JUMPDEST PUSH1 0x0 PUSH2 0x1B26 PUSH2 0x1B21 DUP5 PUSH2 0x3020 JUMP JUMPDEST PUSH2 0x2FEF JUMP JUMPDEST SWAP1 POP DUP1 DUP4 DUP3 MSTORE PUSH1 0x20 DUP3 ADD SWAP1 POP DUP3 DUP6 PUSH1 0x20 DUP7 MUL DUP3 ADD GT ISZERO PUSH2 0x1B45 JUMPI PUSH1 0x0 DUP1 REVERT JUMPDEST PUSH1 0x0 JUMPDEST DUP6 DUP2 LT ISZERO PUSH2 0x1B75 JUMPI DUP2 PUSH2 0x1B5B DUP9 DUP3 PUSH2 0x1E62 JUMP JUMPDEST DUP5 MSTORE PUSH1 0x20 DUP5 ADD SWAP4 POP PUSH1 0x20 DUP4 ADD SWAP3 POP POP PUSH1 0x1 DUP2 ADD SWAP1 POP PUSH2 0x1B48 JUMP JUMPDEST POP POP POP SWAP4 SWAP3 POP POP POP JUMP JUMPDEST PUSH1 0x0 PUSH2 0x1B92 PUSH2 0x1B8D DUP5 PUSH2 0x304C JUMP JUMPDEST PUSH2 0x2FEF JUMP JUMPDEST SWAP1 POP DUP1 DUP4 DUP3 MSTORE PUSH1 0x20 DUP3 ADD SWAP1 POP DUP3 DUP6 PUSH1 0x20 DUP7 MUL DUP3 ADD GT ISZERO PUSH2 0x1BB1 JUMPI PUSH1 0x0 DUP1 REVERT JUMPDEST PUSH1 0x0 JUMPDEST DUP6 DUP2 LT ISZERO PUSH2 0x1BE1 JUMPI DUP2 PUSH2 0x1BC7 DUP9 DUP3 PUSH2 0x22D1 JUMP JUMPDEST DUP5 MSTORE PUSH1 0x20 DUP5 ADD SWAP4 POP PUSH1 0x20 DUP4 ADD SWAP3 POP POP PUSH1 0x1 DUP2 ADD SWAP1 POP PUSH2 0x1BB4 JUMP JUMPDEST POP POP POP SWAP4 SWAP3 POP POP POP JUMP JUMPDEST PUSH1 0x0 PUSH2 0x1BFE PUSH2 0x1BF9 DUP5 PUSH2 0x304C JUMP JUMPDEST PUSH2 0x2FEF JUMP JUMPDEST SWAP1 POP DUP1 DUP4 DUP3 MSTORE PUSH1 0x20 DUP3 ADD SWAP1 POP DUP3 DUP6 PUSH1 0x20 DUP7 MUL DUP3 ADD GT ISZERO PUSH2 0x1C1D JUMPI PUSH1 0x0 DUP1 REVERT JUMPDEST PUSH1 0x0 JUMPDEST DUP6 DUP2 LT ISZERO PUSH2 0x1C4D JUMPI DUP2 PUSH2 0x1C33 DUP9 DUP3 PUSH2 0x22E6 JUMP JUMPDEST DUP5 MSTORE PUSH1 0x20 DUP5 ADD SWAP4 POP PUSH1 0x20 DUP4 ADD SWAP3 POP POP PUSH1 0x1 DUP2 ADD SWAP1 POP PUSH2 0x1C20 JUMP JUMPDEST POP POP POP SWAP4 SWAP3 POP POP POP JUMP JUMPDEST PUSH1 0x0 PUSH2 0x1C6A PUSH2 0x1C65 DUP5 PUSH2 0x3078 JUMP JUMPDEST PUSH2 0x2FEF JUMP JUMPDEST SWAP1 POP DUP3 DUP2 MSTORE PUSH1 0x20 DUP2 ADD DUP5 DUP5 DUP5 ADD GT ISZERO PUSH2 0x1C82 JUMPI PUSH1 0x0 DUP1 REVERT JUMPDEST PUSH2 0x1C8D DUP5 DUP3 DUP6 PUSH2 0x32C9 JUMP JUMPDEST POP SWAP4 SWAP3 POP POP POP JUMP JUMPDEST PUSH1 0x0 PUSH2 0x1CA8 PUSH2 0x1CA3 DUP5 PUSH2 0x3078 JUMP JUMPDEST PUSH2 0x2FEF JUMP JUMPDEST SWAP1 POP DUP3 DUP2 MSTORE PUSH1 0x20 DUP2 ADD DUP5 DUP5 DUP5 ADD GT ISZERO PUSH2 0x1CC0 JUMPI PUSH1 0x0 DUP1 REVERT JUMPDEST PUSH2 0x1CCB DUP5 DUP3 DUP6 PUSH2 0x32D8 JUMP JUMPDEST POP SWAP4 SWAP3 POP POP POP JUMP JUMPDEST PUSH1 0x0 DUP2 CALLDATALOAD SWAP1 POP PUSH2 0x1CE2 DUP2 PUSH2 0x348F JUMP JUMPDEST SWAP3 SWAP2 POP POP JUMP JUMPDEST PUSH1 0x0 DUP2 MLOAD SWAP1 POP PUSH2 0x1CF7 DUP2 PUSH2 0x348F JUMP JUMPDEST SWAP3 SWAP2 POP POP JUMP JUMPDEST PUSH1 0x0 DUP3 PUSH1 0x1F DUP4 ADD SLT PUSH2 0x1D0E JUMPI PUSH1 0x0 DUP1 REVERT JUMPDEST DUP2 CALLDATALOAD PUSH2 0x1D1E DUP5 DUP3 PUSH1 0x20 DUP7 ADD PUSH2 0x1AA7 JUMP JUMPDEST SWAP2 POP POP SWAP3 SWAP2 POP POP JUMP JUMPDEST PUSH1 0x0 DUP3 PUSH1 0x1F DUP4 ADD SLT PUSH2 0x1D38 JUMPI PUSH1 0x0 DUP1 REVERT JUMPDEST DUP2 MLOAD PUSH2 0x1D48 DUP5 DUP3 PUSH1 0x20 DUP7 ADD PUSH2 0x1B13 JUMP JUMPDEST SWAP2 POP POP SWAP3 SWAP2 POP POP JUMP JUMPDEST PUSH1 0x0 DUP3 PUSH1 0x1F DUP4 ADD SLT PUSH2 0x1D62 JUMPI PUSH1 0x0 DUP1 REVERT JUMPDEST DUP2 CALLDATALOAD PUSH2 0x1D72 DUP5 DUP3 PUSH1 0x20 DUP7 ADD PUSH2 0x1B7F JUMP JUMPDEST SWAP2 POP POP SWAP3 SWAP2 POP POP JUMP JUMPDEST PUSH1 0x0 DUP3 PUSH1 0x1F DUP4 ADD SLT PUSH2 0x1D8C JUMPI PUSH1 0x0 DUP1 REVERT JUMPDEST DUP2 MLOAD PUSH2 0x1D9C DUP5 DUP3 PUSH1 0x20 DUP7 ADD PUSH2 0x1BEB JUMP JUMPDEST SWAP2 POP POP SWAP3 SWAP2 POP POP JUMP JUMPDEST PUSH1 0x0 DUP2 CALLDATALOAD SWAP1 POP PUSH2 0x1DB4 DUP2 PUSH2 0x34A6 JUMP JUMPDEST SWAP3 SWAP2 POP POP JUMP JUMPDEST PUSH1 0x0 DUP2 MLOAD SWAP1 POP PUSH2 0x1DC9 DUP2 PUSH2 0x34A6 JUMP JUMPDEST SWAP3 SWAP2 POP POP JUMP JUMPDEST PUSH1 0x0 DUP2 CALLDATALOAD SWAP1 POP PUSH2 0x1DDE DUP2 PUSH2 0x34BD JUMP JUMPDEST SWAP3 SWAP2 POP POP JUMP JUMPDEST PUSH1 0x0 DUP2 MLOAD SWAP1 POP PUSH2 0x1DF3 DUP2 PUSH2 0x34BD JUMP JUMPDEST SWAP3 SWAP2 POP POP JUMP JUMPDEST PUSH1 0x0 DUP2 CALLDATALOAD SWAP1 POP PUSH2 0x1E08 DUP2 PUSH2 0x34CD JUMP JUMPDEST SWAP3 SWAP2 POP POP JUMP JUMPDEST PUSH1 0x0 DUP2 MLOAD SWAP1 POP PUSH2 0x1E1D DUP2 PUSH2 0x34CD JUMP JUMPDEST SWAP3 SWAP2 POP POP JUMP JUMPDEST PUSH1 0x0 DUP2 CALLDATALOAD SWAP1 POP PUSH2 0x1E32 DUP2 PUSH2 0x34DD JUMP JUMPDEST SWAP3 SWAP2 POP POP JUMP JUMPDEST PUSH1 0x0 DUP2 MLOAD SWAP1 POP PUSH2 0x1E47 DUP2 PUSH2 0x34DD JUMP JUMPDEST SWAP3 SWAP2 POP POP JUMP JUMPDEST PUSH1 0x0 DUP2 CALLDATALOAD SWAP1 POP PUSH2 0x1E5C DUP2 PUSH2 0x34ED JUMP JUMPDEST SWAP3 SWAP2 POP POP JUMP JUMPDEST PUSH1 0x0 DUP2 MLOAD SWAP1 POP PUSH2 0x1E71 DUP2 PUSH2 0x34ED JUMP JUMPDEST SWAP3 SWAP2 POP POP JUMP JUMPDEST PUSH1 0x0 DUP1 DUP4 PUSH1 0x1F DUP5 ADD SLT PUSH2 0x1E89 JUMPI PUSH1 0x0 DUP1 REVERT JUMPDEST DUP3 CALLDATALOAD SWAP1 POP PUSH8 0xFFFFFFFFFFFFFFFF DUP2 GT ISZERO PUSH2 0x1EA2 JUMPI PUSH1 0x0 DUP1 REVERT JUMPDEST PUSH1 0x20 DUP4 ADD SWAP2 POP DUP4 PUSH1 0x1 DUP3 MUL DUP4 ADD GT ISZERO PUSH2 0x1EBA JUMPI PUSH1 0x0 DUP1 REVERT JUMPDEST SWAP3 POP SWAP3 SWAP1 POP JUMP JUMPDEST PUSH1 0x0 DUP3 PUSH1 0x1F DUP4 ADD SLT PUSH2 0x1ED2 JUMPI PUSH1 0x0 DUP1 REVERT JUMPDEST DUP2 CALLDATALOAD PUSH2 0x1EE2 DUP5 DUP3 PUSH1 0x20 DUP7 ADD PUSH2 0x1C57 JUMP JUMPDEST SWAP2 POP POP SWAP3 SWAP2 POP POP JUMP JUMPDEST PUSH1 0x0 DUP3 PUSH1 0x1F DUP4 ADD SLT PUSH2 0x1EFC JUMPI PUSH1 0x0 DUP1 REVERT JUMPDEST DUP2 MLOAD PUSH2 0x1F0C DUP5 DUP3 PUSH1 0x20 DUP7 ADD PUSH2 0x1C95 JUMP JUMPDEST SWAP2 POP POP SWAP3 SWAP2 POP POP JUMP JUMPDEST PUSH1 0x0 PUSH1 0x40 DUP3 DUP5 SUB SLT ISZERO PUSH2 0x1F27 JUMPI PUSH1 0x0 DUP1 REVERT JUMPDEST PUSH2 0x1F31 PUSH1 0x40 PUSH2 0x2FEF JUMP JUMPDEST SWAP1 POP PUSH1 0x0 PUSH2 0x1F41 DUP5 DUP3 DUP6 ADD PUSH2 0x22E6 JUMP JUMPDEST PUSH1 0x0 DUP4 ADD MSTORE POP PUSH1 0x20 DUP3 ADD MLOAD PUSH8 0xFFFFFFFFFFFFFFFF DUP2 GT ISZERO PUSH2 0x1F61 JUMPI PUSH1 0x0 DUP1 REVERT JUMPDEST PUSH2 0x1F6D DUP5 DUP3 DUP6 ADD PUSH2 0x1EEB JUMP JUMPDEST PUSH1 0x20 DUP4 ADD MSTORE POP SWAP3 SWAP2 POP POP JUMP JUMPDEST PUSH1 0x0 PUSH2 0x120 DUP3 DUP5 SUB SLT ISZERO PUSH2 0x1F8C JUMPI PUSH1 0x0 DUP1 REVERT JUMPDEST PUSH2 0x1F97 PUSH2 0x120 PUSH2 0x2FEF JUMP JUMPDEST SWAP1 POP PUSH1 0x0 PUSH2 0x1FA7 DUP5 DUP3 DUP6 ADD PUSH2 0x22D1 JUMP JUMPDEST PUSH1 0x0 DUP4 ADD MSTORE POP PUSH1 0x20 PUSH2 0x1FBB DUP5 DUP3 DUP6 ADD PUSH2 0x1DF9 JUMP JUMPDEST PUSH1 0x20 DUP4 ADD MSTORE POP PUSH1 0x40 PUSH2 0x1FCF DUP5 DUP3 DUP6 ADD PUSH2 0x1DCF JUMP JUMPDEST PUSH1 0x40 DUP4 ADD MSTORE POP PUSH1 0x60 PUSH2 0x1FE3 DUP5 DUP3 DUP6 ADD PUSH2 0x1DA5 JUMP JUMPDEST PUSH1 0x60 DUP4 ADD MSTORE POP PUSH1 0x80 PUSH2 0x1FF7 DUP5 DUP3 DUP6 ADD PUSH2 0x1DA5 JUMP JUMPDEST PUSH1 0x80 DUP4 ADD MSTORE POP PUSH1 0xA0 PUSH2 0x200B DUP5 DUP3 DUP6 ADD PUSH2 0x1E23 JUMP JUMPDEST PUSH1 0xA0 DUP4 ADD MSTORE POP PUSH1 0xC0 DUP3 ADD CALLDATALOAD PUSH8 0xFFFFFFFFFFFFFFFF DUP2 GT ISZERO PUSH2 0x202B JUMPI PUSH1 0x0 DUP1 REVERT JUMPDEST PUSH2 0x2037 DUP5 DUP3 DUP6 ADD PUSH2 0x1EC1 JUMP JUMPDEST PUSH1 0xC0 DUP4 ADD MSTORE POP PUSH1 0xE0 DUP3 ADD CALLDATALOAD PUSH8 0xFFFFFFFFFFFFFFFF DUP2 GT ISZERO PUSH2 0x2057 JUMPI PUSH1 0x0 DUP1 REVERT JUMPDEST PUSH2 0x2063 DUP5 DUP3 DUP6 ADD PUSH2 0x1EC1 JUMP JUMPDEST PUSH1 0xE0 DUP4 ADD MSTORE POP PUSH2 0x100 DUP3 ADD CALLDATALOAD PUSH8 0xFFFFFFFFFFFFFFFF DUP2 GT ISZERO PUSH2 0x2084 JUMPI PUSH1 0x0 DUP1 REVERT JUMPDEST PUSH2 0x2090 DUP5 DUP3 DUP6 ADD PUSH2 0x1CFD JUMP JUMPDEST PUSH2 0x100 DUP4 ADD MSTORE POP SWAP3 SWAP2 POP POP JUMP JUMPDEST PUSH1 0x0 PUSH2 0x120 DUP3 DUP5 SUB SLT ISZERO PUSH2 0x20B0 JUMPI PUSH1 0x0 DUP1 REVERT JUMPDEST PUSH2 0x20BB PUSH2 0x120 PUSH2 0x2FEF JUMP JUMPDEST SWAP1 POP PUSH1 0x0 PUSH2 0x20CB DUP5 DUP3 DUP6 ADD PUSH2 0x22E6 JUMP JUMPDEST PUSH1 0x0 DUP4 ADD MSTORE POP PUSH1 0x20 PUSH2 0x20DF DUP5 DUP3 DUP6 ADD PUSH2 0x1E0E JUMP JUMPDEST PUSH1 0x20 DUP4 ADD MSTORE POP PUSH1 0x40 PUSH2 0x20F3 DUP5 DUP3 DUP6 ADD PUSH2 0x1DE4 JUMP JUMPDEST PUSH1 0x40 DUP4 ADD MSTORE POP PUSH1 0x60 PUSH2 0x2107 DUP5 DUP3 DUP6 ADD PUSH2 0x1DBA JUMP JUMPDEST PUSH1 0x60 DUP4 ADD MSTORE POP PUSH1 0x80 PUSH2 0x211B DUP5 DUP3 DUP6 ADD PUSH2 0x1DBA JUMP JUMPDEST PUSH1 0x80 DUP4 ADD MSTORE POP PUSH1 0xA0 PUSH2 0x212F DUP5 DUP3 DUP6 ADD PUSH2 0x1E38 JUMP JUMPDEST PUSH1 0xA0 DUP4 ADD MSTORE POP PUSH1 0xC0 DUP3 ADD MLOAD PUSH8 0xFFFFFFFFFFFFFFFF DUP2 GT ISZERO PUSH2 0x214F JUMPI PUSH1 0x0 DUP1 REVERT JUMPDEST PUSH2 0x215B DUP5 DUP3 DUP6 ADD PUSH2 0x1EEB JUMP JUMPDEST PUSH1 0xC0 DUP4 ADD MSTORE POP PUSH1 0xE0 DUP3 ADD MLOAD PUSH8 0xFFFFFFFFFFFFFFFF DUP2 GT ISZERO PUSH2 0x217B JUMPI PUSH1 0x0 DUP1 REVERT JUMPDEST PUSH2 0x2187 DUP5 DUP3 DUP6 ADD PUSH2 0x1EEB JUMP JUMPDEST PUSH1 0xE0 DUP4 ADD MSTORE POP PUSH2 0x100 DUP3 ADD MLOAD PUSH8 0xFFFFFFFFFFFFFFFF DUP2 GT ISZERO PUSH2 0x21A8 JUMPI PUSH1 0x0 DUP1 REVERT JUMPDEST PUSH2 0x21B4 DUP5 DUP3 DUP6 ADD PUSH2 0x1D27 JUMP JUMPDEST PUSH2 0x100 DUP4 ADD MSTORE POP SWAP3 SWAP2 POP POP JUMP JUMPDEST PUSH1 0x0 PUSH1 0xE0 DUP3 DUP5 SUB SLT ISZERO PUSH2 0x21D3 JUMPI PUSH1 0x0 DUP1 REVERT JUMPDEST PUSH2 0x21DD PUSH1 0xE0 PUSH2 0x2FEF JUMP JUMPDEST SWAP1 POP PUSH1 0x0 DUP3 ADD MLOAD PUSH8 0xFFFFFFFFFFFFFFFF DUP2 GT ISZERO PUSH2 0x21F9 JUMPI PUSH1 0x0 DUP1 REVERT JUMPDEST PUSH2 0x2205 DUP5 DUP3 DUP6 ADD PUSH2 0x1EEB JUMP JUMPDEST PUSH1 0x0 DUP4 ADD MSTORE POP PUSH1 0x20 PUSH2 0x2219 DUP5 DUP3 DUP6 ADD PUSH2 0x1CE8 JUMP JUMPDEST PUSH1 0x20 DUP4 ADD MSTORE POP PUSH1 0x40 PUSH2 0x222D DUP5 DUP3 DUP6 ADD PUSH2 0x1DBA JUMP JUMPDEST PUSH1 0x40 DUP4 ADD MSTORE POP PUSH1 0x60 PUSH2 0x2241 DUP5 DUP3 DUP6 ADD PUSH2 0x1E0E JUMP JUMPDEST PUSH1 0x60 DUP4 ADD MSTORE POP PUSH1 0x80 DUP3 ADD MLOAD PUSH8 0xFFFFFFFFFFFFFFFF DUP2 GT ISZERO PUSH2 0x2261 JUMPI PUSH1 0x0 DUP1 REVERT JUMPDEST PUSH2 0x226D DUP5 DUP3 DUP6 ADD PUSH2 0x1D7B JUMP JUMPDEST PUSH1 0x80 DUP4 ADD MSTORE POP PUSH1 0xA0 DUP3 ADD MLOAD PUSH8 0xFFFFFFFFFFFFFFFF DUP2 GT ISZERO PUSH2 0x228D JUMPI PUSH1 0x0 DUP1 REVERT JUMPDEST PUSH2 0x2299 DUP5 DUP3 DUP6 ADD PUSH2 0x1D7B JUMP JUMPDEST PUSH1 0xA0 DUP4 ADD MSTORE POP PUSH1 0xC0 DUP3 ADD MLOAD PUSH8 0xFFFFFFFFFFFFFFFF DUP2 GT ISZERO PUSH2 0x22B9 JUMPI PUSH1 0x0 DUP1 REVERT JUMPDEST PUSH2 0x22C5 DUP5 DUP3 DUP6 ADD PUSH2 0x209D JUMP JUMPDEST PUSH1 0xC0 DUP4 ADD MSTORE POP SWAP3 SWAP2 POP POP JUMP JUMPDEST PUSH1 0x0 DUP2 CALLDATALOAD SWAP1 POP PUSH2 0x22E0 DUP2 PUSH2 0x3504 JUMP JUMPDEST SWAP3 SWAP2 POP POP JUMP JUMPDEST PUSH1 0x0 DUP2 MLOAD SWAP1 POP PUSH2 0x22F5 DUP2 PUSH2 0x3504 JUMP JUMPDEST SWAP3 SWAP2 POP POP JUMP JUMPDEST PUSH1 0x0 DUP1 PUSH1 0x40 DUP4 DUP6 SUB SLT ISZERO PUSH2 0x230E JUMPI PUSH1 0x0 DUP1 REVERT JUMPDEST PUSH1 0x0 PUSH2 0x231C DUP6 DUP3 DUP7 ADD PUSH2 0x1DBA JUMP JUMPDEST SWAP3 POP POP PUSH1 0x20 PUSH2 0x232D DUP6 DUP3 DUP7 ADD PUSH2 0x22E6 JUMP JUMPDEST SWAP2 POP POP SWAP3 POP SWAP3 SWAP1 POP JUMP JUMPDEST PUSH1 0x0 DUP1 PUSH1 0x0 PUSH1 0x40 DUP5 DUP7 SUB SLT ISZERO PUSH2 0x234C JUMPI PUSH1 0x0 DUP1 REVERT JUMPDEST PUSH1 0x0 DUP5 ADD CALLDATALOAD PUSH8 0xFFFFFFFFFFFFFFFF DUP2 GT ISZERO PUSH2 0x2366 JUMPI PUSH1 0x0 DUP1 REVERT JUMPDEST PUSH2 0x2372 DUP7 DUP3 DUP8 ADD PUSH2 0x1E77 JUMP JUMPDEST SWAP4 POP SWAP4 POP POP PUSH1 0x20 PUSH2 0x2385 DUP7 DUP3 DUP8 ADD PUSH2 0x1E4D JUMP JUMPDEST SWAP2 POP POP SWAP3 POP SWAP3 POP SWAP3 JUMP JUMPDEST PUSH1 0x0 DUP1 PUSH1 0x0 DUP1 PUSH1 0x40 DUP6 DUP8 SUB SLT ISZERO PUSH2 0x23A5 JUMPI PUSH1 0x0 DUP1 REVERT JUMPDEST PUSH1 0x0 DUP6 ADD CALLDATALOAD PUSH8 0xFFFFFFFFFFFFFFFF DUP2 GT ISZERO PUSH2 0x23BF JUMPI PUSH1 0x0 DUP1 REVERT JUMPDEST PUSH2 0x23CB DUP8 DUP3 DUP9 ADD PUSH2 0x1E77 JUMP JUMPDEST SWAP5 POP SWAP5 POP POP PUSH1 0x20 DUP6 ADD CALLDATALOAD PUSH8 0xFFFFFFFFFFFFFFFF DUP2 GT ISZERO PUSH2 0x23EA JUMPI PUSH1 0x0 DUP1 REVERT JUMPDEST PUSH2 0x23F6 DUP8 DUP3 DUP9 ADD PUSH2 0x1E77 JUMP JUMPDEST SWAP3 POP SWAP3 POP POP SWAP3 SWAP6 SWAP2 SWAP5 POP SWAP3 POP JUMP JUMPDEST PUSH1 0x0 PUSH1 0x20 DUP3 DUP5 SUB SLT ISZERO PUSH2 0x2416 JUMPI PUSH1 0x0 DUP1 REVERT JUMPDEST PUSH1 0x0 DUP3 ADD MLOAD PUSH8 0xFFFFFFFFFFFFFFFF DUP2 GT ISZERO PUSH2 0x2430 JUMPI PUSH1 0x0 DUP1 REVERT JUMPDEST PUSH2 0x243C DUP5 DUP3 DUP6 ADD PUSH2 0x1F15 JUMP JUMPDEST SWAP2 POP POP SWAP3 SWAP2 POP POP JUMP JUMPDEST PUSH1 0x0 PUSH1 0x20 DUP3 DUP5 SUB SLT ISZERO PUSH2 0x2457 JUMPI PUSH1 0x0 DUP1 REVERT JUMPDEST PUSH1 0x0 DUP3 ADD MLOAD PUSH8 0xFFFFFFFFFFFFFFFF DUP2 GT ISZERO PUSH2 0x2471 JUMPI PUSH1 0x0 DUP1 REVERT JUMPDEST PUSH2 0x247D DUP5 DUP3 DUP6 ADD PUSH2 0x21C1 JUMP JUMPDEST SWAP2 POP POP SWAP3 SWAP2 POP POP JUMP JUMPDEST PUSH1 0x0 PUSH1 0x20 DUP3 DUP5 SUB SLT ISZERO PUSH2 0x2498 JUMPI PUSH1 0x0 DUP1 REVERT JUMPDEST PUSH1 0x0 PUSH2 0x24A6 DUP5 DUP3 DUP6 ADD PUSH2 0x22D1 JUMP JUMPDEST SWAP2 POP POP SWAP3 SWAP2 POP POP JUMP JUMPDEST PUSH1 0x0 DUP1 PUSH1 0x0 DUP1 PUSH1 0x0 DUP1 PUSH1 0xC0 DUP8 DUP10 SUB SLT ISZERO PUSH2 0x24C8 JUMPI PUSH1 0x0 DUP1 REVERT JUMPDEST PUSH1 0x0 PUSH2 0x24D6 DUP10 DUP3 DUP11 ADD PUSH2 0x22D1 JUMP JUMPDEST SWAP7 POP POP PUSH1 0x20 DUP8 ADD CALLDATALOAD PUSH8 0xFFFFFFFFFFFFFFFF DUP2 GT ISZERO PUSH2 0x24F3 JUMPI PUSH1 0x0 DUP1 REVERT JUMPDEST PUSH2 0x24FF DUP10 DUP3 DUP11 ADD PUSH2 0x1EC1 JUMP JUMPDEST SWAP6 POP POP PUSH1 0x40 PUSH2 0x2510 DUP10 DUP3 DUP11 ADD PUSH2 0x1CD3 JUMP JUMPDEST SWAP5 POP POP PUSH1 0x60 PUSH2 0x2521 DUP10 DUP3 DUP11 ADD PUSH2 0x1DF9 JUMP JUMPDEST SWAP4 POP POP PUSH1 0x80 DUP8 ADD CALLDATALOAD PUSH8 0xFFFFFFFFFFFFFFFF DUP2 GT ISZERO PUSH2 0x253E JUMPI PUSH1 0x0 DUP1 REVERT JUMPDEST PUSH2 0x254A DUP10 DUP3 DUP11 ADD PUSH2 0x1D51 JUMP JUMPDEST SWAP3 POP POP PUSH1 0xA0 DUP8 ADD CALLDATALOAD PUSH8 0xFFFFFFFFFFFFFFFF DUP2 GT ISZERO PUSH2 0x2567 JUMPI PUSH1 0x0 DUP1 REVERT JUMPDEST PUSH2 0x2573 DUP10 DUP3 DUP11 ADD PUSH2 0x1D51 JUMP JUMPDEST SWAP2 POP POP SWAP3 SWAP6 POP SWAP3 SWAP6 POP SWAP3 SWAP6 JUMP JUMPDEST PUSH1 0x0 DUP1 PUSH1 0x0 DUP1 PUSH1 0x0 DUP1 PUSH1 0x0 PUSH1 0xE0 DUP9 DUP11 SUB SLT ISZERO PUSH2 0x259B JUMPI PUSH1 0x0 DUP1 REVERT JUMPDEST PUSH1 0x0 PUSH2 0x25A9 DUP11 DUP3 DUP12 ADD PUSH2 0x22D1 JUMP JUMPDEST SWAP8 POP POP PUSH1 0x20 DUP9 ADD CALLDATALOAD PUSH8 0xFFFFFFFFFFFFFFFF DUP2 GT ISZERO PUSH2 0x25C6 JUMPI PUSH1 0x0 DUP1 REVERT JUMPDEST PUSH2 0x25D2 DUP11 DUP3 DUP12 ADD PUSH2 0x1EC1 JUMP JUMPDEST SWAP7 POP POP PUSH1 0x40 PUSH2 0x25E3 DUP11 DUP3 DUP12 ADD PUSH2 0x1CD3 JUMP JUMPDEST SWAP6 POP POP PUSH1 0x60 PUSH2 0x25F4 DUP11 DUP3 DUP12 ADD PUSH2 0x1DF9 JUMP JUMPDEST SWAP5 POP POP PUSH1 0x80 DUP9 ADD CALLDATALOAD PUSH8 0xFFFFFFFFFFFFFFFF DUP2 GT ISZERO PUSH2 0x2611 JUMPI PUSH1 0x0 DUP1 REVERT JUMPDEST PUSH2 0x261D DUP11 DUP3 DUP12 ADD PUSH2 0x1D51 JUMP JUMPDEST SWAP4 POP POP PUSH1 0xA0 DUP9 ADD CALLDATALOAD PUSH8 0xFFFFFFFFFFFFFFFF DUP2 GT ISZERO PUSH2 0x263A JUMPI PUSH1 0x0 DUP1 REVERT JUMPDEST PUSH2 0x2646 DUP11 DUP3 DUP12 ADD PUSH2 0x1D51 JUMP JUMPDEST SWAP3 POP POP PUSH1 0xC0 DUP9 ADD CALLDATALOAD PUSH8 0xFFFFFFFFFFFFFFFF DUP2 GT ISZERO PUSH2 0x2663 JUMPI PUSH1 0x0 DUP1 REVERT JUMPDEST PUSH2 0x266F DUP11 DUP3 DUP12 ADD PUSH2 0x1F79 JUMP JUMPDEST SWAP2 POP POP SWAP3 SWAP6 SWAP9 SWAP2 SWAP5 SWAP8 POP SWAP3 SWAP6 POP JUMP JUMPDEST PUSH1 0x0 PUSH2 0x268A DUP4 DUP4 PUSH2 0x29E6 JUMP JUMPDEST PUSH1 0x20 DUP4 ADD SWAP1 POP SWAP3 SWAP2 POP POP JUMP JUMPDEST PUSH1 0x0 PUSH2 0x26A2 DUP4 DUP4 PUSH2 0x2A1A JUMP JUMPDEST SWAP1 POP SWAP3 SWAP2 POP POP JUMP JUMPDEST PUSH1 0x0 PUSH2 0x26B6 DUP4 DUP4 PUSH2 0x2B6F JUMP JUMPDEST SWAP1 POP SWAP3 SWAP2 POP POP JUMP JUMPDEST PUSH1 0x0 PUSH2 0x26CA DUP4 DUP4 PUSH2 0x2D37 JUMP JUMPDEST PUSH1 0x20 DUP4 ADD SWAP1 POP SWAP3 SWAP2 POP POP JUMP JUMPDEST PUSH1 0x0 PUSH2 0x26E2 DUP4 DUP4 PUSH2 0x2D64 JUMP JUMPDEST PUSH1 0x20 DUP4 ADD SWAP1 POP SWAP3 SWAP2 POP POP JUMP JUMPDEST PUSH2 0x26F7 DUP2 PUSH2 0x3208 JUMP JUMPDEST DUP3 MSTORE POP POP JUMP JUMPDEST PUSH2 0x2706 DUP2 PUSH2 0x3208 JUMP JUMPDEST DUP3 MSTORE POP POP JUMP JUMPDEST PUSH2 0x2715 DUP2 PUSH2 0x3208 JUMP JUMPDEST DUP3 MSTORE POP POP JUMP JUMPDEST PUSH1 0x0 PUSH2 0x2726 DUP3 PUSH2 0x30E8 JUMP JUMPDEST PUSH2 0x2730 DUP2 DUP6 PUSH2 0x3153 JUMP JUMPDEST SWAP4 POP PUSH2 0x273B DUP4 PUSH2 0x30A8 JUMP JUMPDEST DUP1 PUSH1 0x0 JUMPDEST DUP4 DUP2 LT ISZERO PUSH2 0x276C JUMPI DUP2 MLOAD PUSH2 0x2753 DUP9 DUP3 PUSH2 0x267E JUMP JUMPDEST SWAP8 POP PUSH2 0x275E DUP4 PUSH2 0x311F JUMP JUMPDEST SWAP3 POP POP PUSH1 0x1 DUP2 ADD SWAP1 POP PUSH2 0x273F JUMP JUMPDEST POP DUP6 SWAP4 POP POP POP POP SWAP3 SWAP2 POP POP JUMP JUMPDEST PUSH1 0x0 PUSH2 0x2784 DUP3 PUSH2 0x30F3 JUMP JUMPDEST PUSH2 0x278E DUP2 DUP6 PUSH2 0x3164 JUMP JUMPDEST SWAP4 POP DUP4 PUSH1 0x20 DUP3 MUL DUP6 ADD PUSH2 0x27A0 DUP6 PUSH2 0x30B8 JUMP JUMPDEST DUP1 PUSH1 0x0 JUMPDEST DUP6 DUP2 LT ISZERO PUSH2 0x27DC JUMPI DUP5 DUP5 SUB DUP10 MSTORE DUP2 MLOAD PUSH2 0x27BD DUP6 DUP3 PUSH2 0x2696 JUMP JUMPDEST SWAP5 POP PUSH2 0x27C8 DUP4 PUSH2 0x312C JUMP JUMPDEST SWAP3 POP PUSH1 0x20 DUP11 ADD SWAP10 POP POP PUSH1 0x1 DUP2 ADD SWAP1 POP PUSH2 0x27A4 JUMP JUMPDEST POP DUP3 SWAP8 POP DUP8 SWAP6 POP POP POP POP POP POP SWAP3 SWAP2 POP POP JUMP JUMPDEST PUSH1 0x0 PUSH2 0x27F9 DUP3 PUSH2 0x30FE JUMP JUMPDEST PUSH2 0x2803 DUP2 DUP6 PUSH2 0x3175 JUMP JUMPDEST SWAP4 POP DUP4 PUSH1 0x20 DUP3 MUL DUP6 ADD PUSH2 0x2815 DUP6 PUSH2 0x30C8 JUMP JUMPDEST DUP1 PUSH1 0x0 JUMPDEST DUP6 DUP2 LT ISZERO PUSH2 0x2851 JUMPI DUP5 DUP5 SUB DUP10 MSTORE DUP2 MLOAD PUSH2 0x2832 DUP6 DUP3 PUSH2 0x26AA JUMP JUMPDEST SWAP5 POP PUSH2 0x283D DUP4 PUSH2 0x3139 JUMP JUMPDEST SWAP3 POP PUSH1 0x20 DUP11 ADD SWAP10 POP POP PUSH1 0x1 DUP2 ADD SWAP1 POP PUSH2 0x2819 JUMP JUMPDEST POP DUP3 SWAP8 POP DUP8 SWAP6 POP POP POP POP POP POP SWAP3 SWAP2 POP POP JUMP JUMPDEST PUSH1 0x0 PUSH2 0x286E DUP3 PUSH2 0x3109 JUMP JUMPDEST PUSH2 0x2878 DUP2 DUP6 PUSH2 0x3186 JUMP JUMPDEST SWAP4 POP PUSH2 0x2883 DUP4 PUSH2 0x30D8 JUMP JUMPDEST DUP1 PUSH1 0x0 JUMPDEST DUP4 DUP2 LT ISZERO PUSH2 0x28B4 JUMPI DUP2 MLOAD PUSH2 0x289B DUP9 DUP3 PUSH2 0x26BE JUMP JUMPDEST SWAP8 POP PUSH2 0x28A6 DUP4 PUSH2 0x3146 JUMP JUMPDEST SWAP3 POP POP PUSH1 0x1 DUP2 ADD SWAP1 POP PUSH2 0x2887 JUMP JUMPDEST POP DUP6 SWAP4 POP POP POP POP SWAP3 SWAP2 POP POP JUMP JUMPDEST PUSH1 0x0 PUSH2 0x28CC DUP3 PUSH2 0x3109 JUMP JUMPDEST PUSH2 0x28D6 DUP2 DUP6 PUSH2 0x3197 JUMP JUMPDEST SWAP4 POP PUSH2 0x28E1 DUP4 PUSH2 0x30D8 JUMP JUMPDEST DUP1 PUSH1 0x0 JUMPDEST DUP4 DUP2 LT ISZERO PUSH2 0x2912 JUMPI DUP2 MLOAD PUSH2 0x28F9 DUP9 DUP3 PUSH2 0x26D6 JUMP JUMPDEST SWAP8 POP PUSH2 0x2904 DUP4 PUSH2 0x3146 JUMP JUMPDEST SWAP3 POP POP PUSH1 0x1 DUP2 ADD SWAP1 POP PUSH2 0x28E5 JUMP JUMPDEST POP DUP6 SWAP4 POP POP POP POP SWAP3 SWAP2 POP POP JUMP JUMPDEST PUSH1 0x0 PUSH2 0x292A DUP3 PUSH2 0x3109 JUMP JUMPDEST PUSH2 0x2934 DUP2 DUP6 PUSH2 0x31A8 JUMP JUMPDEST SWAP4 POP PUSH2 0x293F DUP4 PUSH2 0x30D8 JUMP JUMPDEST DUP1 PUSH1 0x0 JUMPDEST DUP4 DUP2 LT ISZERO PUSH2 0x2970 JUMPI DUP2 MLOAD PUSH2 0x2957 DUP9 DUP3 PUSH2 0x26D6 JUMP JUMPDEST SWAP8 POP PUSH2 0x2962 DUP4 PUSH2 0x3146 JUMP JUMPDEST SWAP3 POP POP PUSH1 0x1 DUP2 ADD SWAP1 POP PUSH2 0x2943 JUMP JUMPDEST POP DUP6 SWAP4 POP POP POP POP SWAP3 SWAP2 POP POP JUMP JUMPDEST PUSH2 0x2986 DUP2 PUSH2 0x321A JUMP JUMPDEST DUP3 MSTORE POP POP JUMP JUMPDEST PUSH2 0x2995 DUP2 PUSH2 0x321A JUMP JUMPDEST DUP3 MSTORE POP POP JUMP JUMPDEST PUSH2 0x29A4 DUP2 PUSH2 0x3293 JUMP JUMPDEST DUP3 MSTORE POP POP JUMP JUMPDEST PUSH2 0x29B3 DUP2 PUSH2 0x32A5 JUMP JUMPDEST DUP3 MSTORE POP POP JUMP JUMPDEST PUSH2 0x29C2 DUP2 PUSH2 0x32A5 JUMP JUMPDEST DUP3 MSTORE POP POP JUMP JUMPDEST PUSH2 0x29D1 DUP2 PUSH2 0x32A5 JUMP JUMPDEST DUP3 MSTORE POP POP JUMP JUMPDEST PUSH2 0x29E0 DUP2 PUSH2 0x32B7 JUMP JUMPDEST DUP3 MSTORE POP POP JUMP JUMPDEST PUSH2 0x29EF DUP2 PUSH2 0x325F JUMP JUMPDEST DUP3 MSTORE POP POP JUMP JUMPDEST PUSH1 0x0 PUSH2 0x2A01 DUP4 DUP6 PUSH2 0x31FD JUMP JUMPDEST SWAP4 POP PUSH2 0x2A0E DUP4 DUP6 DUP5 PUSH2 0x32C9 JUMP JUMPDEST DUP3 DUP5 ADD SWAP1 POP SWAP4 SWAP3 POP POP POP JUMP JUMPDEST PUSH1 0x0 PUSH2 0x2A25 DUP3 PUSH2 0x3114 JUMP JUMPDEST PUSH2 0x2A2F DUP2 DUP6 PUSH2 0x31B9 JUMP JUMPDEST SWAP4 POP PUSH2 0x2A3F DUP2 DUP6 PUSH1 0x20 DUP7 ADD PUSH2 0x32D8 JUMP JUMPDEST PUSH2 0x2A48 DUP2 PUSH2 0x3442 JUMP JUMPDEST DUP5 ADD SWAP2 POP POP SWAP3 SWAP2 POP POP JUMP JUMPDEST PUSH1 0x0 PUSH2 0x2A5E DUP3 PUSH2 0x3114 JUMP JUMPDEST PUSH2 0x2A68 DUP2 DUP6 PUSH2 0x31CA JUMP JUMPDEST SWAP4 POP PUSH2 0x2A78 DUP2 DUP6 PUSH1 0x20 DUP7 ADD PUSH2 0x32D8 JUMP JUMPDEST PUSH2 0x2A81 DUP2 PUSH2 0x3442 JUMP JUMPDEST DUP5 ADD SWAP2 POP POP SWAP3 SWAP2 POP POP JUMP JUMPDEST PUSH1 0x0 PUSH2 0x2A97 DUP3 PUSH2 0x3114 JUMP JUMPDEST PUSH2 0x2AA1 DUP2 DUP6 PUSH2 0x31DB JUMP JUMPDEST SWAP4 POP PUSH2 0x2AB1 DUP2 DUP6 PUSH1 0x20 DUP7 ADD PUSH2 0x32D8 JUMP JUMPDEST PUSH2 0x2ABA DUP2 PUSH2 0x3442 JUMP JUMPDEST DUP5 ADD SWAP2 POP POP SWAP3 SWAP2 POP POP JUMP JUMPDEST PUSH1 0x0 PUSH2 0x2AD0 DUP3 PUSH2 0x3114 JUMP JUMPDEST PUSH2 0x2ADA DUP2 DUP6 PUSH2 0x31EC JUMP JUMPDEST SWAP4 POP PUSH2 0x2AEA DUP2 DUP6 PUSH1 0x20 DUP7 ADD PUSH2 0x32D8 JUMP JUMPDEST PUSH2 0x2AF3 DUP2 PUSH2 0x3442 JUMP JUMPDEST DUP5 ADD SWAP2 POP POP SWAP3 SWAP2 POP POP JUMP JUMPDEST PUSH1 0x0 PUSH2 0x2B09 DUP3 PUSH2 0x3114 JUMP JUMPDEST PUSH2 0x2B13 DUP2 DUP6 PUSH2 0x31FD JUMP JUMPDEST SWAP4 POP PUSH2 0x2B23 DUP2 DUP6 PUSH1 0x20 DUP7 ADD PUSH2 0x32D8 JUMP JUMPDEST DUP1 DUP5 ADD SWAP2 POP POP SWAP3 SWAP2 POP POP JUMP JUMPDEST PUSH1 0x0 PUSH2 0x2B3C PUSH1 0x16 DUP4 PUSH2 0x31CA JUMP JUMPDEST SWAP2 POP PUSH32 0x444F204E4F5420524550454154205441534B5321212100000000000000000000 PUSH1 0x0 DUP4 ADD MSTORE PUSH1 0x20 DUP3 ADD SWAP1 POP SWAP2 SWAP1 POP JUMP JUMPDEST PUSH1 0x0 PUSH1 0x40 DUP4 ADD PUSH1 0x0 DUP4 ADD MLOAD PUSH2 0x2B87 PUSH1 0x0 DUP7 ADD DUP3 PUSH2 0x2D37 JUMP JUMPDEST POP PUSH1 0x20 DUP4 ADD MLOAD DUP5 DUP3 SUB PUSH1 0x20 DUP7 ADD MSTORE PUSH2 0x2B9F DUP3 DUP3 PUSH2 0x2A1A JUMP JUMPDEST SWAP2 POP POP DUP1 SWAP2 POP POP SWAP3 SWAP2 POP POP JUMP JUMPDEST PUSH1 0x0 PUSH2 0x120 DUP4 ADD PUSH1 0x0 DUP4 ADD MLOAD PUSH2 0x2BC5 PUSH1 0x0 DUP7 ADD DUP3 PUSH2 0x2D64 JUMP JUMPDEST POP PUSH1 0x20 DUP4 ADD MLOAD PUSH2 0x2BD8 PUSH1 0x20 DUP7 ADD DUP3 PUSH2 0x29C8 JUMP JUMPDEST POP PUSH1 0x40 DUP4 ADD MLOAD PUSH2 0x2BEB PUSH1 0x40 DUP7 ADD DUP3 PUSH2 0x299B JUMP JUMPDEST POP PUSH1 0x60 DUP4 ADD MLOAD PUSH2 0x2BFE PUSH1 0x60 DUP7 ADD DUP3 PUSH2 0x298C JUMP JUMPDEST POP PUSH1 0x80 DUP4 ADD MLOAD PUSH2 0x2C11 PUSH1 0x80 DUP7 ADD DUP3 PUSH2 0x298C JUMP JUMPDEST POP PUSH1 0xA0 DUP4 ADD MLOAD PUSH2 0x2C24 PUSH1 0xA0 DUP7 ADD DUP3 PUSH2 0x29D7 JUMP JUMPDEST POP PUSH1 0xC0 DUP4 ADD MLOAD DUP5 DUP3 SUB PUSH1 0xC0 DUP7 ADD MSTORE PUSH2 0x2C3C DUP3 DUP3 PUSH2 0x2AC5 JUMP JUMPDEST SWAP2 POP POP PUSH1 0xE0 DUP4 ADD MLOAD DUP5 DUP3 SUB PUSH1 0xE0 DUP7 ADD MSTORE PUSH2 0x2C56 DUP3 DUP3 PUSH2 0x2AC5 JUMP JUMPDEST SWAP2 POP POP PUSH2 0x100 DUP4 ADD MLOAD DUP5 DUP3 SUB PUSH2 0x100 DUP7 ADD MSTORE PUSH2 0x2C72 DUP3 DUP3 PUSH2 0x271B JUMP JUMPDEST SWAP2 POP POP DUP1 SWAP2 POP POP SWAP3 SWAP2 POP POP JUMP JUMPDEST DUP1 DUP3 MSTORE POP POP JUMP JUMPDEST PUSH1 0x0 PUSH1 0xE0 DUP4 ADD PUSH1 0x0 DUP4 ADD MLOAD DUP5 DUP3 SUB PUSH1 0x0 DUP7 ADD MSTORE PUSH2 0x2CA3 DUP3 DUP3 PUSH2 0x2AC5 JUMP JUMPDEST SWAP2 POP POP PUSH1 0x20 DUP4 ADD MLOAD PUSH2 0x2CB8 PUSH1 0x20 DUP7 ADD DUP3 PUSH2 0x270C JUMP JUMPDEST POP PUSH1 0x40 DUP4 ADD MLOAD PUSH2 0x2CCB PUSH1 0x40 DUP7 ADD DUP3 PUSH2 0x298C JUMP JUMPDEST POP PUSH1 0x60 DUP4 ADD MLOAD PUSH2 0x2CDE PUSH1 0x60 DUP7 ADD DUP3 PUSH2 0x29C8 JUMP JUMPDEST POP PUSH1 0x80 DUP4 ADD MLOAD DUP5 DUP3 SUB PUSH1 0x80 DUP7 ADD MSTORE PUSH2 0x2CF6 DUP3 DUP3 PUSH2 0x291F JUMP JUMPDEST SWAP2 POP POP PUSH1 0xA0 DUP4 ADD MLOAD DUP5 DUP3 SUB PUSH1 0xA0 DUP7 ADD MSTORE PUSH2 0x2D10 DUP3 DUP3 PUSH2 0x291F JUMP JUMPDEST SWAP2 POP POP PUSH1 0xC0 DUP4 ADD MLOAD DUP5 DUP3 SUB PUSH1 0xC0 DUP7 ADD MSTORE PUSH2 0x2D2A DUP3 DUP3 PUSH2 0x2BAC JUMP JUMPDEST SWAP2 POP POP DUP1 SWAP2 POP POP SWAP3 SWAP2 POP POP JUMP JUMPDEST PUSH2 0x2D40 DUP2 PUSH2 0x3289 JUMP JUMPDEST DUP3 MSTORE POP POP JUMP JUMPDEST PUSH2 0x2D4F DUP2 PUSH2 0x3289 JUMP JUMPDEST DUP3 MSTORE POP POP JUMP JUMPDEST PUSH2 0x2D5E DUP2 PUSH2 0x3289 JUMP JUMPDEST DUP3 MSTORE POP POP JUMP JUMPDEST PUSH2 0x2D6D DUP2 PUSH2 0x3289 JUMP JUMPDEST DUP3 MSTORE POP POP JUMP JUMPDEST PUSH1 0x0 PUSH2 0x2D80 DUP3 DUP5 DUP7 PUSH2 0x29F5 JUMP JUMPDEST SWAP2 POP DUP2 SWAP1 POP SWAP4 SWAP3 POP POP POP JUMP JUMPDEST PUSH1 0x0 PUSH2 0x2D98 DUP3 DUP5 PUSH2 0x2AFE JUMP JUMPDEST SWAP2 POP DUP2 SWAP1 POP SWAP3 SWAP2 POP POP JUMP JUMPDEST PUSH1 0x0 PUSH1 0x20 DUP3 ADD SWAP1 POP DUP2 DUP2 SUB PUSH1 0x0 DUP4 ADD MSTORE PUSH2 0x2DBD DUP2 DUP5 PUSH2 0x2779 JUMP JUMPDEST SWAP1 POP SWAP3 SWAP2 POP POP JUMP JUMPDEST PUSH1 0x0 PUSH1 0x20 DUP3 ADD SWAP1 POP DUP2 DUP2 SUB PUSH1 0x0 DUP4 ADD MSTORE PUSH2 0x2DDF DUP2 DUP5 PUSH2 0x27EE JUMP JUMPDEST SWAP1 POP SWAP3 SWAP2 POP POP JUMP JUMPDEST PUSH1 0x0 PUSH1 0x20 DUP3 ADD SWAP1 POP DUP2 DUP2 SUB PUSH1 0x0 DUP4 ADD MSTORE PUSH2 0x2E01 DUP2 DUP5 PUSH2 0x2863 JUMP JUMPDEST SWAP1 POP SWAP3 SWAP2 POP POP JUMP JUMPDEST PUSH1 0x0 PUSH1 0x20 DUP3 ADD SWAP1 POP PUSH2 0x2E1E PUSH1 0x0 DUP4 ADD DUP5 PUSH2 0x297D JUMP JUMPDEST SWAP3 SWAP2 POP POP JUMP JUMPDEST PUSH1 0x0 PUSH1 0xC0 DUP3 ADD SWAP1 POP PUSH2 0x2E39 PUSH1 0x0 DUP4 ADD DUP10 PUSH2 0x297D JUMP JUMPDEST DUP2 DUP2 SUB PUSH1 0x20 DUP4 ADD MSTORE PUSH2 0x2E4B DUP2 DUP9 PUSH2 0x2A53 JUMP JUMPDEST SWAP1 POP PUSH2 0x2E5A PUSH1 0x40 DUP4 ADD DUP8 PUSH2 0x26EE JUMP JUMPDEST PUSH2 0x2E67 PUSH1 0x60 DUP4 ADD DUP7 PUSH2 0x29AA JUMP JUMPDEST DUP2 DUP2 SUB PUSH1 0x80 DUP4 ADD MSTORE PUSH2 0x2E79 DUP2 DUP6 PUSH2 0x2863 JUMP JUMPDEST SWAP1 POP DUP2 DUP2 SUB PUSH1 0xA0 DUP4 ADD MSTORE PUSH2 0x2E8D DUP2 DUP5 PUSH2 0x2863 JUMP JUMPDEST SWAP1 POP SWAP8 SWAP7 POP POP POP POP POP POP POP JUMP JUMPDEST PUSH1 0x0 PUSH1 0x20 DUP3 ADD SWAP1 POP DUP2 DUP2 SUB PUSH1 0x0 DUP4 ADD MSTORE PUSH2 0x2EB4 DUP2 DUP5 PUSH2 0x2A53 JUMP JUMPDEST SWAP1 POP SWAP3 SWAP2 POP POP JUMP JUMPDEST PUSH1 0x0 PUSH1 0xA0 DUP3 ADD SWAP1 POP DUP2 DUP2 SUB PUSH1 0x0 DUP4 ADD MSTORE PUSH2 0x2ED6 DUP2 DUP9 PUSH2 0x2A8C JUMP JUMPDEST SWAP1 POP PUSH2 0x2EE5 PUSH1 0x20 DUP4 ADD DUP8 PUSH2 0x26FD JUMP JUMPDEST PUSH2 0x2EF2 PUSH1 0x40 DUP4 ADD DUP7 PUSH2 0x29B9 JUMP JUMPDEST DUP2 DUP2 SUB PUSH1 0x60 DUP4 ADD MSTORE PUSH2 0x2F04 DUP2 DUP6 PUSH2 0x28C1 JUMP JUMPDEST SWAP1 POP DUP2 DUP2 SUB PUSH1 0x80 DUP4 ADD MSTORE PUSH2 0x2F18 DUP2 DUP5 PUSH2 0x28C1 JUMP JUMPDEST SWAP1 POP SWAP7 SWAP6 POP POP POP POP POP POP JUMP JUMPDEST PUSH1 0x0 PUSH1 0x20 DUP3 ADD SWAP1 POP DUP2 DUP2 SUB PUSH1 0x0 DUP4 ADD MSTORE PUSH2 0x2F3D DUP2 PUSH2 0x2B2F JUMP JUMPDEST SWAP1 POP SWAP2 SWAP1 POP JUMP JUMPDEST PUSH1 0x0 PUSH1 0x40 DUP3 ADD SWAP1 POP DUP2 DUP2 SUB PUSH1 0x0 DUP4 ADD MSTORE PUSH2 0x2F5E DUP2 DUP6 PUSH2 0x2C86 JUMP JUMPDEST SWAP1 POP PUSH2 0x2F6D PUSH1 0x20 DUP4 ADD DUP5 PUSH2 0x2C7F JUMP JUMPDEST SWAP4 SWAP3 POP POP POP JUMP JUMPDEST PUSH1 0x0 PUSH1 0x20 DUP3 ADD SWAP1 POP PUSH2 0x2F89 PUSH1 0x0 DUP4 ADD DUP5 PUSH2 0x2D46 JUMP JUMPDEST SWAP3 SWAP2 POP POP JUMP JUMPDEST PUSH1 0x0 PUSH1 0x40 DUP3 ADD SWAP1 POP PUSH2 0x2FA4 PUSH1 0x0 DUP4 ADD DUP6 PUSH2 0x2D46 JUMP JUMPDEST DUP2 DUP2 SUB PUSH1 0x20 DUP4 ADD MSTORE PUSH2 0x2FB6 DUP2 DUP5 PUSH2 0x2A53 JUMP JUMPDEST SWAP1 POP SWAP4 SWAP3 POP POP POP JUMP JUMPDEST PUSH1 0x0 PUSH1 0x40 DUP3 ADD SWAP1 POP PUSH2 0x2FD4 PUSH1 0x0 DUP4 ADD DUP6 PUSH2 0x2D55 JUMP JUMPDEST DUP2 DUP2 SUB PUSH1 0x20 DUP4 ADD MSTORE PUSH2 0x2FE6 DUP2 DUP5 PUSH2 0x2C86 JUMP JUMPDEST SWAP1 POP SWAP4 SWAP3 POP POP POP JUMP JUMPDEST PUSH1 0x0 PUSH1 0x40 MLOAD SWAP1 POP DUP2 DUP2 ADD DUP2 DUP2 LT PUSH8 0xFFFFFFFFFFFFFFFF DUP3 GT OR ISZERO PUSH2 0x3016 JUMPI PUSH2 0x3015 PUSH2 0x3413 JUMP JUMPDEST JUMPDEST DUP1 PUSH1 0x40 MSTORE POP SWAP2 SWAP1 POP JUMP JUMPDEST PUSH1 0x0 PUSH8 0xFFFFFFFFFFFFFFFF DUP3 GT ISZERO PUSH2 0x303B JUMPI PUSH2 0x303A PUSH2 0x3413 JUMP JUMPDEST JUMPDEST PUSH1 0x20 DUP3 MUL SWAP1 POP PUSH1 0x20 DUP2 ADD SWAP1 POP SWAP2 SWAP1 POP JUMP JUMPDEST PUSH1 0x0 PUSH8 0xFFFFFFFFFFFFFFFF DUP3 GT ISZERO PUSH2 0x3067 JUMPI PUSH2 0x3066 PUSH2 0x3413 JUMP JUMPDEST JUMPDEST PUSH1 0x20 DUP3 MUL SWAP1 POP PUSH1 0x20 DUP2 ADD SWAP1 POP SWAP2 SWAP1 POP JUMP JUMPDEST PUSH1 0x0 PUSH8 0xFFFFFFFFFFFFFFFF DUP3 GT ISZERO PUSH2 0x3093 JUMPI PUSH2 0x3092 PUSH2 0x3413 JUMP JUMPDEST JUMPDEST PUSH1 0x1F NOT PUSH1 0x1F DUP4 ADD AND SWAP1 POP PUSH1 0x20 DUP2 ADD SWAP1 POP SWAP2 SWAP1 POP JUMP JUMPDEST PUSH1 0x0 DUP2 SWAP1 POP PUSH1 0x20 DUP3 ADD SWAP1 POP SWAP2 SWAP1 POP JUMP JUMPDEST PUSH1 0x0 DUP2 SWAP1 POP PUSH1 0x20 DUP3 ADD SWAP1 POP SWAP2 SWAP1 POP JUMP JUMPDEST PUSH1 0x0 DUP2 SWAP1 POP PUSH1 0x20 DUP3 ADD SWAP1 POP SWAP2 SWAP1 POP JUMP JUMPDEST PUSH1 0x0 DUP2 SWAP1 POP PUSH1 0x20 DUP3 ADD SWAP1 POP SWAP2 SWAP1 POP JUMP JUMPDEST PUSH1 0x0 DUP2 MLOAD SWAP1 POP SWAP2 SWAP1 POP JUMP JUMPDEST PUSH1 0x0 DUP2 MLOAD SWAP1 POP SWAP2 SWAP1 POP JUMP JUMPDEST PUSH1 0x0 DUP2 MLOAD SWAP1 POP SWAP2 SWAP1 POP JUMP JUMPDEST PUSH1 0x0 DUP2 MLOAD SWAP1 POP SWAP2 SWAP1 POP JUMP JUMPDEST PUSH1 0x0 DUP2 MLOAD SWAP1 POP SWAP2 SWAP1 POP JUMP JUMPDEST PUSH1 0x0 PUSH1 0x20 DUP3 ADD SWAP1 POP SWAP2 SWAP1 POP JUMP JUMPDEST PUSH1 0x0 PUSH1 0x20 DUP3 ADD SWAP1 POP SWAP2 SWAP1 POP JUMP JUMPDEST PUSH1 0x0 PUSH1 0x20 DUP3 ADD SWAP1 POP SWAP2 SWAP1 POP JUMP JUMPDEST PUSH1 0x0 PUSH1 0x20 DUP3 ADD SWAP1 POP SWAP2 SWAP1 POP JUMP JUMPDEST PUSH1 0x0 DUP3 DUP3 MSTORE PUSH1 0x20 DUP3 ADD SWAP1 POP SWAP3 SWAP2 POP POP JUMP JUMPDEST PUSH1 0x0 DUP3 DUP3 MSTORE PUSH1 0x20 DUP3 ADD SWAP1 POP SWAP3 SWAP2 POP POP JUMP JUMPDEST PUSH1 0x0 DUP3 DUP3 MSTORE PUSH1 0x20 DUP3 ADD SWAP1 POP SWAP3 SWAP2 POP POP JUMP JUMPDEST PUSH1 0x0 DUP3 DUP3 MSTORE PUSH1 0x20 DUP3 ADD SWAP1 POP SWAP3 SWAP2 POP POP JUMP JUMPDEST PUSH1 0x0 DUP3 DUP3 MSTORE PUSH1 0x20 DUP3 ADD SWAP1 POP SWAP3 SWAP2 POP POP JUMP JUMPDEST PUSH1 0x0 DUP3 DUP3 MSTORE PUSH1 0x20 DUP3 ADD SWAP1 POP SWAP3 SWAP2 POP POP JUMP JUMPDEST PUSH1 0x0 DUP3 DUP3 MSTORE PUSH1 0x20 DUP3 ADD SWAP1 POP SWAP3 SWAP2 POP POP JUMP JUMPDEST PUSH1 0x0 DUP3 DUP3 MSTORE PUSH1 0x20 DUP3 ADD SWAP1 POP SWAP3 SWAP2 POP POP JUMP JUMPDEST PUSH1 0x0 DUP3 DUP3 MSTORE PUSH1 0x20 DUP3 ADD SWAP1 POP SWAP3 SWAP2 POP POP JUMP JUMPDEST PUSH1 0x0 DUP3 DUP3 MSTORE PUSH1 0x20 DUP3 ADD SWAP1 POP SWAP3 SWAP2 POP POP JUMP JUMPDEST PUSH1 0x0 DUP2 SWAP1 POP SWAP3 SWAP2 POP POP JUMP JUMPDEST PUSH1 0x0 PUSH2 0x3213 DUP3 PUSH2 0x3269 JUMP JUMPDEST SWAP1 POP SWAP2 SWAP1 POP JUMP JUMPDEST PUSH1 0x0 DUP2 ISZERO ISZERO SWAP1 POP SWAP2 SWAP1 POP JUMP JUMPDEST PUSH1 0x0 DUP2 SWAP1 POP PUSH2 0x3234 DUP3 PUSH2 0x3453 JUMP JUMPDEST SWAP2 SWAP1 POP JUMP JUMPDEST PUSH1 0x0 DUP2 SWAP1 POP PUSH2 0x3247 DUP3 PUSH2 0x3467 JUMP JUMPDEST SWAP2 SWAP1 POP JUMP JUMPDEST PUSH1 0x0 DUP2 SWAP1 POP PUSH2 0x325A DUP3 PUSH2 0x347B JUMP JUMPDEST SWAP2 SWAP1 POP JUMP JUMPDEST PUSH1 0x0 DUP2 SWAP1 POP SWAP2 SWAP1 POP JUMP JUMPDEST PUSH1 0x0 PUSH20 0xFFFFFFFFFFFFFFFFFFFFFFFFFFFFFFFFFFFFFFFF DUP3 AND SWAP1 POP SWAP2 SWAP1 POP JUMP JUMPDEST PUSH1 0x0 DUP2 SWAP1 POP SWAP2 SWAP1 POP JUMP JUMPDEST PUSH1 0x0 PUSH2 0x329E DUP3 PUSH2 0x3226 JUMP JUMPDEST SWAP1 POP SWAP2 SWAP1 POP JUMP JUMPDEST PUSH1 0x0 PUSH2 0x32B0 DUP3 PUSH2 0x3239 JUMP JUMPDEST SWAP1 POP SWAP2 SWAP1 POP JUMP JUMPDEST PUSH1 0x0 PUSH2 0x32C2 DUP3 PUSH2 0x324C JUMP JUMPDEST SWAP1 POP SWAP2 SWAP1 POP JUMP JUMPDEST DUP3 DUP2 DUP4 CALLDATACOPY PUSH1 0x0 DUP4 DUP4 ADD MSTORE POP POP POP JUMP JUMPDEST PUSH1 0x0 JUMPDEST DUP4 DUP2 LT ISZERO PUSH2 0x32F6 JUMPI DUP1 DUP3 ADD MLOAD DUP2 DUP5 ADD MSTORE PUSH1 0x20 DUP2 ADD SWAP1 POP PUSH2 0x32DB JUMP JUMPDEST DUP4 DUP2 GT ISZERO PUSH2 0x3305 JUMPI PUSH1 0x0 DUP5 DUP5 ADD MSTORE JUMPDEST POP POP POP POP JUMP JUMPDEST PUSH1 0x0 PUSH1 0x2 DUP3 DIV SWAP1 POP PUSH1 0x1 DUP3 AND DUP1 PUSH2 0x3323 JUMPI PUSH1 0x7F DUP3 AND SWAP2 POP JUMPDEST PUSH1 0x20 DUP3 LT DUP2 EQ ISZERO PUSH2 0x3337 JUMPI PUSH2 0x3336 PUSH2 0x33E4 JUMP JUMPDEST JUMPDEST POP SWAP2 SWAP1 POP JUMP JUMPDEST PUSH1 0x0 PUSH2 0x3348 DUP3 PUSH2 0x3289 JUMP JUMPDEST SWAP2 POP PUSH32 0xFFFFFFFFFFFFFFFFFFFFFFFFFFFFFFFFFFFFFFFFFFFFFFFFFFFFFFFFFFFFFFFF DUP3 EQ ISZERO PUSH2 0x337B JUMPI PUSH2 0x337A PUSH2 0x3386 JUMP JUMPDEST JUMPDEST PUSH1 0x1 DUP3 ADD SWAP1 POP SWAP2 SWAP1 POP JUMP JUMPDEST PUSH32 0x4E487B7100000000000000000000000000000000000000000000000000000000 PUSH1 0x0 MSTORE PUSH1 0x11 PUSH1 0x4 MSTORE PUSH1 0x24 PUSH1 0x0 REVERT JUMPDEST PUSH32 0x4E487B7100000000000000000000000000000000000000000000000000000000 PUSH1 0x0 MSTORE PUSH1 0x21 PUSH1 0x4 MSTORE PUSH1 0x24 PUSH1 0x0 REVERT JUMPDEST PUSH32 0x4E487B7100000000000000000000000000000000000000000000000000000000 PUSH1 0x0 MSTORE PUSH1 0x22 PUSH1 0x4 MSTORE PUSH1 0x24 PUSH1 0x0 REVERT JUMPDEST PUSH32 0x4E487B7100000000000000000000000000000000000000000000000000000000 PUSH1 0x0 MSTORE PUSH1 0x41 PUSH1 0x4 MSTORE PUSH1 0x24 PUSH1 0x0 REVERT JUMPDEST PUSH1 0x0 PUSH1 0x1F NOT PUSH1 0x1F DUP4 ADD AND SWAP1 POP SWAP2 SWAP1 POP JUMP JUMPDEST PUSH1 0x3 DUP2 LT PUSH2 0x3464 JUMPI PUSH2 0x3463 PUSH2 0x33B5 JUMP JUMPDEST JUMPDEST POP JUMP JUMPDEST PUSH1 0x4 DUP2 LT PUSH2 0x3478 JUMPI PUSH2 0x3477 PUSH2 0x33B5 JUMP JUMPDEST JUMPDEST POP JUMP JUMPDEST PUSH1 0x7 DUP2 LT PUSH2 0x348C JUMPI PUSH2 0x348B PUSH2 0x33B5 JUMP JUMPDEST JUMPDEST POP JUMP JUMPDEST PUSH2 0x3498 DUP2 PUSH2 0x3208 JUMP JUMPDEST DUP2 EQ PUSH2 0x34A3 JUMPI PUSH1 0x0 DUP1 REVERT JUMPDEST POP JUMP JUMPDEST PUSH2 0x34AF DUP2 PUSH2 0x321A JUMP JUMPDEST DUP2 EQ PUSH2 0x34BA JUMPI PUSH1 0x0 DUP1 REVERT JUMPDEST POP JUMP JUMPDEST PUSH1 0x3 DUP2 LT PUSH2 0x34CA JUMPI PUSH1 0x0 DUP1 REVERT JUMPDEST POP JUMP JUMPDEST PUSH1 0x4 DUP2 LT PUSH2 0x34DA JUMPI PUSH1 0x0 DUP1 REVERT JUMPDEST POP JUMP JUMPDEST PUSH1 0x7 DUP2 LT PUSH2 0x34EA JUMPI PUSH1 0x0 DUP1 REVERT JUMPDEST POP JUMP JUMPDEST PUSH2 0x34F6 DUP2 PUSH2 0x325F JUMP JUMPDEST DUP2 EQ PUSH2 0x3501 JUMPI PUSH1 0x0 DUP1 REVERT JUMPDEST POP JUMP JUMPDEST PUSH2 0x350D DUP2 PUSH2 0x3289 JUMP JUMPDEST DUP2 EQ PUSH2 0x3518 JUMPI PUSH1 0x0 DUP1 REVERT JUMPDEST POP JUMP INVALID LOG2 PUSH5 0x6970667358 0x22 SLT KECCAK256 PUSH13 0x6B2A53A8C09F9F43E40CC158BB 0x28 DUP4 0xEB OR 0xB3 STOP 0xCB PUSH7 0x679EF97DD22908 PUSH2 0xA5B1 PUSH5 0x736F6C6343 STOP ADDMOD STOP STOP CALLER "},"gasEstimates":{"creation":{"codeDepositCost":"2729800","executionCost":"2969","totalCost":"2732769"},"external":{"completing(uint256)":"infinite","createTask(uint256,string,address,uint8,uint256[],uint256[])":"infinite","createTaskWithDecision(uint256,string,address,uint8,uint256[],uint256[],(uint256,uint8,uint8,bool,bool,uint8,string,string,int256[]))":"infinite","debugStringeventLog(uint256)":"infinite","getDebugStringeventLog()":"infinite","getLog()":"infinite","getStoredTasks()":"infinite","getTaskById(uint256)":"infinite","taskList(uint256)":"infinite","theRealEventLog(uint256)":"infinite","updateIntProcessVariable(string,int256)":"infinite","updateStringProcessVariable(string,string)":"infinite"}},"methodIdentifiers":{"completing(uint256)":"993c0410","createTask(uint256,string,address,uint8,uint256[],uint256[])":"307ed4be","createTaskWithDecision(uint256,string,address,uint8,uint256[],uint256[],(uint256,uint8,uint8,bool,bool,uint8,string,string,int256[]))":"c7b1ee06","debugStringeventLog(uint256)":"61ea18df","getDebugStringeventLog()":"4d60f651","getLog()":"909e4ab6","getStoredTasks()":"896a3435","getTaskById(uint256)":"976217cd","taskList(uint256)":"2a1c52a5","theRealEventLog(uint256)":"95794157","updateIntProcessVariable(string,int256)":"38b7b6f0","updateStringProcessVariable(string,string)":"fe9620c9"}},"storageLayout":{"storage":[{"astId":8,"contract":"BasicEnzian.sol:BasicEnzian","label":"processState","offset":0,"slot":"0","type":"t_struct(State)439_storage"},{"astId":12,"contract":"BasicEnzian.sol:BasicEnzian","label":"taskList","offset":0,"slot":"4","type":"t_array(t_struct(DbTask)467_storage)dyn_storage"},{"astId":19,"contract":"BasicEnzian.sol:BasicEnzian","label":"theRealEventLog","offset":0,"slot":"5","type":"t_array(t_uint256)dyn_storage"},{"astId":31,"contract":"BasicEnzian.sol:BasicEnzian","label":"debugStringeventLog","offset":0,"slot":"6","type":"t_array(t_string_storage)dyn_storage"}],"types":{"t_address":{"encoding":"inplace","label":"address","numberOfBytes":"20"},"t_array(t_int256)dyn_storage":{"base":"t_int256","encoding":"dynamic_array","label":"int256[]","numberOfBytes":"32"},"t_array(t_string_storage)dyn_storage":{"base":"t_string_storage","encoding":"dynamic_array","label":"string[]","numberOfBytes":"32"},"t_array(t_struct(DbTask)467_storage)dyn_storage":{"base":"t_struct(DbTask)467_storage","encoding":"dynamic_array","label":"struct TaskEntities.DbTask[]","numberOfBytes":"32"},"t_array(t_uint256)dyn_storage":{"base":"t_uint256","encoding":"dynamic_array","label":"uint256[]","numberOfBytes":"32"},"t_bool":{"encoding":"inplace","label":"bool","numberOfBytes":"1"},"t_enum(DecisionType)394":{"encoding":"inplace","label":"enum DecisionEntities.DecisionType","numberOfBytes":"1"},"t_enum(GatewayType)382":{"encoding":"inplace","label":"enum DecisionEntities.GatewayType","numberOfBytes":"1"},"t_enum(Operator)390":{"encoding":"inplace","label":"enum DecisionEntities.Operator","numberOfBytes":"1"},"t_int256":{"encoding":"inplace","label":"int256","numberOfBytes":"32"},"t_mapping(t_string_memory_ptr,t_int256)":{"encoding":"mapping","key":"t_string_memory_ptr","label":"mapping(string => int256)","numberOfBytes":"32","value":"t_int256"},"t_mapping(t_string_memory_ptr,t_string_storage)":{"encoding":"mapping","key":"t_string_memory_ptr","label":"mapping(string => string)","numberOfBytes":"32","value":"t_string_storage"},"t_mapping(t_uint256,t_bool)":{"encoding":"mapping","key":"t_uint256","label":"mapping(uint256 => bool)","numberOfBytes":"32","value":"t_bool"},"t_mapping(t_uint256,t_struct(Task)462_storage)":{"encoding":"mapping","key":"t_uint256","label":"mapping(uint256 => struct TaskEntities.Task)","numberOfBytes":"32","value":"t_struct(Task)462_storage"},"t_string_memory_ptr":{"encoding":"bytes","label":"string","numberOfBytes":"32"},"t_string_storage":{"encoding":"bytes","label":"string","numberOfBytes":"32"},"t_struct(DbTask)467_storage":{"encoding":"inplace","label":"struct TaskEntities.DbTask","members":[{"astId":464,"contract":"BasicEnzian.sol:BasicEnzian","label":"id","offset":0,"slot":"0","type":"t_uint256"},{"astId":466,"contract":"BasicEnzian.sol:BasicEnzian","label":"activity","offset":0,"slot":"1","type":"t_string_storage"}],"numberOfBytes":"64"},"t_struct(Decision)417_storage":{"encoding":"inplace","label":"struct DecisionEntities.Decision","members":[{"astId":396,"contract":"BasicEnzian.sol:BasicEnzian","label":"endBoss","offset":0,"slot":"0","type":"t_uint256"},{"astId":399,"contract":"BasicEnzian.sol:BasicEnzian","label":"gatewaytype","offset":0,"slot":"1","type":"t_enum(GatewayType)382"},{"astId":402,"contract":"BasicEnzian.sol:BasicEnzian","label":"type_","offset":1,"slot":"1","type":"t_enum(DecisionType)394"},{"astId":404,"contract":"BasicEnzian.sol:BasicEnzian","label":"completed","offset":2,"slot":"1","type":"t_bool"},{"astId":406,"contract":"BasicEnzian.sol:BasicEnzian","label":"exists","offset":3,"slot":"1","type":"t_bool"},{"astId":409,"contract":"BasicEnzian.sol:BasicEnzian","label":"operator","offset":4,"slot":"1","type":"t_enum(Operator)390"},{"astId":411,"contract":"BasicEnzian.sol:BasicEnzian","label":"processVariable","offset":0,"slot":"2","type":"t_string_storage"},{"astId":413,"contract":"BasicEnzian.sol:BasicEnzian","label":"s_value","offset":0,"slot":"3","type":"t_string_storage"},{"astId":416,"contract":"BasicEnzian.sol:BasicEnzian","label":"i_value","offset":0,"slot":"4","type":"t_array(t_int256)dyn_storage"}],"numberOfBytes":"160"},"t_struct(State)439_storage":{"encoding":"inplace","label":"struct ProcessEntities.State","members":[{"astId":426,"contract":"BasicEnzian.sol:BasicEnzian","label":"tasks","offset":0,"slot":"0","type":"t_mapping(t_uint256,t_struct(Task)462_storage)"},{"astId":430,"contract":"BasicEnzian.sol:BasicEnzian","label":"integer_processVariables","offset":0,"slot":"1","type":"t_mapping(t_string_memory_ptr,t_int256)"},{"astId":434,"contract":"BasicEnzian.sol:BasicEnzian","label":"string_processVariables","offset":0,"slot":"2","type":"t_mapping(t_string_memory_ptr,t_string_storage)"},{"astId":438,"contract":"BasicEnzian.sol:BasicEnzian","label":"enabled","offset":0,"slot":"3","type":"t_mapping(t_uint256,t_bool)"}],"numberOfBytes":"128"},"t_struct(Task)462_storage":{"encoding":"inplace","label":"struct TaskEntities.Task","members":[{"astId":445,"contract":"BasicEnzian.sol:BasicEnzian","label":"activity","offset":0,"slot":"0","type":"t_string_storage"},{"astId":447,"contract":"BasicEnzian.sol:BasicEnzian","label":"taskresource","offset":0,"slot":"1","type":"t_address"},{"astId":449,"contract":"BasicEnzian.sol:BasicEnzian","label":"completed","offset":20,"slot":"1","type":"t_bool"},{"astId":452,"contract":"BasicEnzian.sol:BasicEnzian","label":"preceedingMergingGateway","offset":21,"slot":"1","type":"t_enum(GatewayType)382"},{"astId":455,"contract":"BasicEnzian.sol:BasicEnzian","label":"requirements","offset":0,"slot":"2","type":"t_array(t_uint256)dyn_storage"},{"astId":458,"contract":"BasicEnzian.sol:BasicEnzian","label":"competitors","offset":0,"slot":"3","type":"t_array(t_uint256)dyn_storage"},{"astId":461,"contract":"BasicEnzian.sol:BasicEnzian","label":"decision","offset":0,"slot":"4","type":"t_struct(Decision)417_storage"}],"numberOfBytes":"288"},"t_uint256":{"encoding":"inplace","label":"uint256","numberOfBytes":"32"}}},"userdoc":{"kind":"user","methods":{},"version":1}}