{"abi":[{"inputs":[{"internalType":"int256","name":"i1","type":"int256"},{"internalType":"int256[]","name":"i2","type":"int256[]"},{"internalType":"enum DecisionEntities.Operator","name":"_op","type":"DecisionEntities.Operator"}],"name":"evaluate","outputs":[{"internalType":"bool","name":"isEqual","type":"bool"}],"stateMutability":"pure","type":"function"},{"inputs":[{"internalType":"string","name":"s1","type":"string"},{"internalType":"string","name":"s2","type":"string"},{"internalType":"enum DecisionEntities.Operator","name":"_op","type":"DecisionEntities.Operator"}],"name":"evaluate","outputs":[{"internalType":"bool","name":"isEqual","type":"bool"}],"stateMutability":"pure","type":"function"},{"inputs":[],"name":"returnZwo","outputs":[{"internalType":"uint256","name":"zwo","type":"uint256"}],"stateMutability":"pure","type":"function"}],"devdoc":{"kind":"dev","methods":{},"version":1},"evm":{"assembly":"    /* \"DecisionLibrary.sol\":71:1374  library DecisionLibrary {... */\n  dataSize(sub_0)\n  dataOffset(sub_0)\n  0x0b\n  dup3\n  dup3\n  dup3\n  codecopy\n  dup1\n  mload\n  0x00\n  byte\n  0x73\n  eq\n  tag_1\n  jumpi\n  mstore(0x00, 0x4e487b7100000000000000000000000000000000000000000000000000000000)\n  mstore(0x04, 0x00)\n  revert(0x00, 0x24)\ntag_1:\n  mstore(0x00, address)\n  0x73\n  dup2\n  mstore8\n  dup3\n  dup2\n  return\nstop\n\nsub_0: assembly {\n        /* \"DecisionLibrary.sol\":71:1374  library DecisionLibrary {... */\n      eq(address, deployTimeAddress())\n      mstore(0x40, 0x80)\n      jumpi(tag_1, lt(calldatasize, 0x04))\n      shr(0xe0, calldataload(0x00))\n      dup1\n      0x320cb552\n      eq\n      tag_2\n      jumpi\n      dup1\n      0xc237647f\n      eq\n      tag_3\n      jumpi\n      dup1\n      0xd9d0a612\n      eq\n      tag_4\n      jumpi\n    tag_1:\n      0x00\n      dup1\n      revert\n        /* \"DecisionLibrary.sol\":422:1286  function evaluate(int i1, int[] memory i2, DecisionEntities.Operator _op) public pure returns (bool isEqual) {... */\n    tag_2:\n      tag_5\n      0x04\n      dup1\n      calldatasize\n      sub\n      dup2\n      add\n      swap1\n      tag_6\n      swap2\n      swap1\n      tag_7\n      jump\t// in\n    tag_6:\n      tag_8\n      jump\t// in\n    tag_5:\n      mload(0x40)\n      tag_9\n      swap2\n      swap1\n      tag_10\n      jump\t// in\n    tag_9:\n      mload(0x40)\n      dup1\n      swap2\n      sub\n      swap1\n      return\n        /* \"DecisionLibrary.sol\":1296:1372  function returnZwo() public pure returns(uint zwo) {... */\n    tag_3:\n      tag_11\n      tag_12\n      jump\t// in\n    tag_11:\n      mload(0x40)\n      tag_13\n      swap2\n      swap1\n      tag_14\n      jump\t// in\n    tag_13:\n      mload(0x40)\n      dup1\n      swap2\n      sub\n      swap1\n      return\n        /* \"DecisionLibrary.sol\":106:375  function evaluate(string memory s1, string memory s2, DecisionEntities.Operator _op) public pure returns (bool isEqual) {... */\n    tag_4:\n      tag_15\n      0x04\n      dup1\n      calldatasize\n      sub\n      dup2\n      add\n      swap1\n      tag_16\n      swap2\n      swap1\n      tag_17\n      jump\t// in\n    tag_16:\n      tag_18\n      jump\t// in\n    tag_15:\n      mload(0x40)\n      tag_19\n      swap2\n      swap1\n      tag_10\n      jump\t// in\n    tag_19:\n      mload(0x40)\n      dup1\n      swap2\n      sub\n      swap1\n      return\n        /* \"DecisionLibrary.sol\":422:1286  function evaluate(int i1, int[] memory i2, DecisionEntities.Operator _op) public pure returns (bool isEqual) {... */\n    tag_8:\n        /* \"DecisionLibrary.sol\":517:529  bool isEqual */\n      0x00\n        /* \"DecisionLibrary.sol\":577:607  DecisionEntities.Operator.LESS */\n      dup1\n        /* \"DecisionLibrary.sol\":570:607  _op == DecisionEntities.Operator.LESS */\n      0x06\n      dup2\n      gt\n      iszero\n      tag_21\n      jumpi\n      mstore(0x00, 0x4e487b7100000000000000000000000000000000000000000000000000000000)\n      mstore(0x04, 0x21)\n      revert(0x00, 0x24)\n    tag_21:\n        /* \"DecisionLibrary.sol\":570:573  _op */\n      dup3\n        /* \"DecisionLibrary.sol\":570:607  _op == DecisionEntities.Operator.LESS */\n      0x06\n      dup2\n      gt\n      iszero\n      tag_22\n      jumpi\n      mstore(0x00, 0x4e487b7100000000000000000000000000000000000000000000000000000000)\n      mstore(0x04, 0x21)\n      revert(0x00, 0x24)\n    tag_22:\n      eq\n        /* \"DecisionLibrary.sol\":567:626  if(_op == DecisionEntities.Operator.LESS) return i1 < i2[0] */\n      iszero\n      tag_23\n      jumpi\n        /* \"DecisionLibrary.sol\":621:623  i2 */\n      dup3\n        /* \"DecisionLibrary.sol\":624:625  0 */\n      0x00\n        /* \"DecisionLibrary.sol\":621:626  i2[0] */\n      dup2\n      mload\n      dup2\n      lt\n      tag_24\n      jumpi\n      mstore(0x00, 0x4e487b7100000000000000000000000000000000000000000000000000000000)\n      mstore(0x04, 0x32)\n      revert(0x00, 0x24)\n    tag_24:\n      0x20\n      mul\n      0x20\n      add\n      add\n      mload\n        /* \"DecisionLibrary.sol\":616:618  i1 */\n      dup5\n        /* \"DecisionLibrary.sol\":616:626  i1 < i2[0] */\n      slt\n        /* \"DecisionLibrary.sol\":609:626  return i1 < i2[0] */\n      swap1\n      pop\n      jump(tag_20)\n        /* \"DecisionLibrary.sol\":567:626  if(_op == DecisionEntities.Operator.LESS) return i1 < i2[0] */\n    tag_23:\n        /* \"DecisionLibrary.sol\":663:696  DecisionEntities.Operator.GREATER */\n      0x01\n        /* \"DecisionLibrary.sol\":656:696  _op == DecisionEntities.Operator.GREATER */\n      0x06\n      dup2\n      gt\n      iszero\n      tag_25\n      jumpi\n      mstore(0x00, 0x4e487b7100000000000000000000000000000000000000000000000000000000)\n      mstore(0x04, 0x21)\n      revert(0x00, 0x24)\n    tag_25:\n        /* \"DecisionLibrary.sol\":656:659  _op */\n      dup3\n        /* \"DecisionLibrary.sol\":656:696  _op == DecisionEntities.Operator.GREATER */\n      0x06\n      dup2\n      gt\n      iszero\n      tag_26\n      jumpi\n      mstore(0x00, 0x4e487b7100000000000000000000000000000000000000000000000000000000)\n      mstore(0x04, 0x21)\n      revert(0x00, 0x24)\n    tag_26:\n      eq\n        /* \"DecisionLibrary.sol\":653:716  if(_op == DecisionEntities.Operator.GREATER)  return i1 > i2[0] */\n      iszero\n      tag_27\n      jumpi\n        /* \"DecisionLibrary.sol\":711:713  i2 */\n      dup3\n        /* \"DecisionLibrary.sol\":714:715  0 */\n      0x00\n        /* \"DecisionLibrary.sol\":711:716  i2[0] */\n      dup2\n      mload\n      dup2\n      lt\n      tag_28\n      jumpi\n      mstore(0x00, 0x4e487b7100000000000000000000000000000000000000000000000000000000)\n      mstore(0x04, 0x32)\n      revert(0x00, 0x24)\n    tag_28:\n      0x20\n      mul\n      0x20\n      add\n      add\n      mload\n        /* \"DecisionLibrary.sol\":706:708  i1 */\n      dup5\n        /* \"DecisionLibrary.sol\":706:716  i1 > i2[0] */\n      sgt\n        /* \"DecisionLibrary.sol\":699:716  return i1 > i2[0] */\n      swap1\n      pop\n      jump(tag_20)\n        /* \"DecisionLibrary.sol\":653:716  if(_op == DecisionEntities.Operator.GREATER)  return i1 > i2[0] */\n    tag_27:\n        /* \"DecisionLibrary.sol\":753:784  DecisionEntities.Operator.EQUAL */\n      0x02\n        /* \"DecisionLibrary.sol\":746:784  _op == DecisionEntities.Operator.EQUAL */\n      0x06\n      dup2\n      gt\n      iszero\n      tag_29\n      jumpi\n      mstore(0x00, 0x4e487b7100000000000000000000000000000000000000000000000000000000)\n      mstore(0x04, 0x21)\n      revert(0x00, 0x24)\n    tag_29:\n        /* \"DecisionLibrary.sol\":746:749  _op */\n      dup3\n        /* \"DecisionLibrary.sol\":746:784  _op == DecisionEntities.Operator.EQUAL */\n      0x06\n      dup2\n      gt\n      iszero\n      tag_30\n      jumpi\n      mstore(0x00, 0x4e487b7100000000000000000000000000000000000000000000000000000000)\n      mstore(0x04, 0x21)\n      revert(0x00, 0x24)\n    tag_30:\n      eq\n        /* \"DecisionLibrary.sol\":743:804  if(_op == DecisionEntities.Operator.EQUAL) return i1 == i2[0] */\n      iszero\n      tag_31\n      jumpi\n        /* \"DecisionLibrary.sol\":799:801  i2 */\n      dup3\n        /* \"DecisionLibrary.sol\":802:803  0 */\n      0x00\n        /* \"DecisionLibrary.sol\":799:804  i2[0] */\n      dup2\n      mload\n      dup2\n      lt\n      tag_32\n      jumpi\n      mstore(0x00, 0x4e487b7100000000000000000000000000000000000000000000000000000000)\n      mstore(0x04, 0x32)\n      revert(0x00, 0x24)\n    tag_32:\n      0x20\n      mul\n      0x20\n      add\n      add\n      mload\n        /* \"DecisionLibrary.sol\":793:795  i1 */\n      dup5\n        /* \"DecisionLibrary.sol\":793:804  i1 == i2[0] */\n      eq\n        /* \"DecisionLibrary.sol\":786:804  return i1 == i2[0] */\n      swap1\n      pop\n      jump(tag_20)\n        /* \"DecisionLibrary.sol\":743:804  if(_op == DecisionEntities.Operator.EQUAL) return i1 == i2[0] */\n    tag_31:\n        /* \"DecisionLibrary.sol\":842:871  DecisionEntities.Operator.LEQ */\n      0x04\n        /* \"DecisionLibrary.sol\":835:871  _op == DecisionEntities.Operator.LEQ */\n      0x06\n      dup2\n      gt\n      iszero\n      tag_33\n      jumpi\n      mstore(0x00, 0x4e487b7100000000000000000000000000000000000000000000000000000000)\n      mstore(0x04, 0x21)\n      revert(0x00, 0x24)\n    tag_33:\n        /* \"DecisionLibrary.sol\":835:838  _op */\n      dup3\n        /* \"DecisionLibrary.sol\":835:871  _op == DecisionEntities.Operator.LEQ */\n      0x06\n      dup2\n      gt\n      iszero\n      tag_34\n      jumpi\n      mstore(0x00, 0x4e487b7100000000000000000000000000000000000000000000000000000000)\n      mstore(0x04, 0x21)\n      revert(0x00, 0x24)\n    tag_34:\n      eq\n        /* \"DecisionLibrary.sol\":832:891  if(_op == DecisionEntities.Operator.LEQ) return i1 <= i2[0] */\n      iszero\n      tag_35\n      jumpi\n        /* \"DecisionLibrary.sol\":886:888  i2 */\n      dup3\n        /* \"DecisionLibrary.sol\":889:890  0 */\n      0x00\n        /* \"DecisionLibrary.sol\":886:891  i2[0] */\n      dup2\n      mload\n      dup2\n      lt\n      tag_36\n      jumpi\n      mstore(0x00, 0x4e487b7100000000000000000000000000000000000000000000000000000000)\n      mstore(0x04, 0x32)\n      revert(0x00, 0x24)\n    tag_36:\n      0x20\n      mul\n      0x20\n      add\n      add\n      mload\n        /* \"DecisionLibrary.sol\":880:882  i1 */\n      dup5\n        /* \"DecisionLibrary.sol\":880:891  i1 <= i2[0] */\n      sgt\n      iszero\n        /* \"DecisionLibrary.sol\":873:891  return i1 <= i2[0] */\n      swap1\n      pop\n      jump(tag_20)\n        /* \"DecisionLibrary.sol\":832:891  if(_op == DecisionEntities.Operator.LEQ) return i1 <= i2[0] */\n    tag_35:\n        /* \"DecisionLibrary.sol\":929:958  DecisionEntities.Operator.GEQ */\n      0x05\n        /* \"DecisionLibrary.sol\":922:958  _op == DecisionEntities.Operator.GEQ */\n      0x06\n      dup2\n      gt\n      iszero\n      tag_37\n      jumpi\n      mstore(0x00, 0x4e487b7100000000000000000000000000000000000000000000000000000000)\n      mstore(0x04, 0x21)\n      revert(0x00, 0x24)\n    tag_37:\n        /* \"DecisionLibrary.sol\":922:925  _op */\n      dup3\n        /* \"DecisionLibrary.sol\":922:958  _op == DecisionEntities.Operator.GEQ */\n      0x06\n      dup2\n      gt\n      iszero\n      tag_38\n      jumpi\n      mstore(0x00, 0x4e487b7100000000000000000000000000000000000000000000000000000000)\n      mstore(0x04, 0x21)\n      revert(0x00, 0x24)\n    tag_38:\n      eq\n        /* \"DecisionLibrary.sol\":919:978  if(_op == DecisionEntities.Operator.GEQ) return i1 >= i2[0] */\n      iszero\n      tag_39\n      jumpi\n        /* \"DecisionLibrary.sol\":973:975  i2 */\n      dup3\n        /* \"DecisionLibrary.sol\":976:977  0 */\n      0x00\n        /* \"DecisionLibrary.sol\":973:978  i2[0] */\n      dup2\n      mload\n      dup2\n      lt\n      tag_40\n      jumpi\n      mstore(0x00, 0x4e487b7100000000000000000000000000000000000000000000000000000000)\n      mstore(0x04, 0x32)\n      revert(0x00, 0x24)\n    tag_40:\n      0x20\n      mul\n      0x20\n      add\n      add\n      mload\n        /* \"DecisionLibrary.sol\":967:969  i1 */\n      dup5\n        /* \"DecisionLibrary.sol\":967:978  i1 >= i2[0] */\n      slt\n      iszero\n        /* \"DecisionLibrary.sol\":960:978  return i1 >= i2[0] */\n      swap1\n      pop\n      jump(tag_20)\n        /* \"DecisionLibrary.sol\":919:978  if(_op == DecisionEntities.Operator.GEQ) return i1 >= i2[0] */\n    tag_39:\n        /* \"DecisionLibrary.sol\":1020:1053  DecisionEntities.Operator.ELEMENT */\n      0x06\n        /* \"DecisionLibrary.sol\":1013:1053  _op == DecisionEntities.Operator.ELEMENT */\n      dup1\n      dup2\n      gt\n      iszero\n      tag_41\n      jumpi\n      mstore(0x00, 0x4e487b7100000000000000000000000000000000000000000000000000000000)\n      mstore(0x04, 0x21)\n      revert(0x00, 0x24)\n    tag_41:\n        /* \"DecisionLibrary.sol\":1013:1016  _op */\n      dup3\n        /* \"DecisionLibrary.sol\":1013:1053  _op == DecisionEntities.Operator.ELEMENT */\n      0x06\n      dup2\n      gt\n      iszero\n      tag_42\n      jumpi\n      mstore(0x00, 0x4e487b7100000000000000000000000000000000000000000000000000000000)\n      mstore(0x04, 0x21)\n      revert(0x00, 0x24)\n    tag_42:\n      eq\n        /* \"DecisionLibrary.sol\":1010:1258  if(_op == DecisionEntities.Operator.ELEMENT){... */\n      iszero\n      tag_43\n      jumpi\n        /* \"DecisionLibrary.sol\":1073:1087  uint elementid */\n      0x00\n        /* \"DecisionLibrary.sol\":1068:1237  for (uint elementid = 0; elementid < i2.length ; elementid++){... */\n    tag_44:\n        /* \"DecisionLibrary.sol\":1105:1107  i2 */\n      dup4\n        /* \"DecisionLibrary.sol\":1105:1114  i2.length */\n      mload\n        /* \"DecisionLibrary.sol\":1093:1102  elementid */\n      dup2\n        /* \"DecisionLibrary.sol\":1093:1114  elementid < i2.length */\n      lt\n        /* \"DecisionLibrary.sol\":1068:1237  for (uint elementid = 0; elementid < i2.length ; elementid++){... */\n      iszero\n      tag_45\n      jumpi\n        /* \"DecisionLibrary.sol\":1157:1159  i2 */\n      dup4\n        /* \"DecisionLibrary.sol\":1160:1169  elementid */\n      dup2\n        /* \"DecisionLibrary.sol\":1157:1170  i2[elementid] */\n      dup2\n      mload\n      dup2\n      lt\n      tag_47\n      jumpi\n      mstore(0x00, 0x4e487b7100000000000000000000000000000000000000000000000000000000)\n      mstore(0x04, 0x32)\n      revert(0x00, 0x24)\n    tag_47:\n      0x20\n      mul\n      0x20\n      add\n      add\n      mload\n        /* \"DecisionLibrary.sol\":1151:1153  i1 */\n      dup6\n        /* \"DecisionLibrary.sol\":1151:1170  i1 == i2[elementid] */\n      eq\n        /* \"DecisionLibrary.sol\":1147:1223  if (i1 == i2[elementid]){... */\n      iszero\n      tag_48\n      jumpi\n        /* \"DecisionLibrary.sol\":1200:1204  true */\n      0x01\n        /* \"DecisionLibrary.sol\":1193:1204  return true */\n      swap2\n      pop\n      pop\n      jump(tag_20)\n        /* \"DecisionLibrary.sol\":1147:1223  if (i1 == i2[elementid]){... */\n    tag_48:\n        /* \"DecisionLibrary.sol\":1117:1128  elementid++ */\n      dup1\n      dup1\n      tag_49\n      swap1\n      tag_50\n      jump\t// in\n    tag_49:\n      swap2\n      pop\n      pop\n        /* \"DecisionLibrary.sol\":1068:1237  for (uint elementid = 0; elementid < i2.length ; elementid++){... */\n      jump(tag_44)\n    tag_45:\n      pop\n        /* \"DecisionLibrary.sol\":1010:1258  if(_op == DecisionEntities.Operator.ELEMENT){... */\n    tag_43:\n        /* \"DecisionLibrary.sol\":1274:1279  false */\n      0x00\n        /* \"DecisionLibrary.sol\":1267:1279  return false */\n      swap1\n      pop\n        /* \"DecisionLibrary.sol\":422:1286  function evaluate(int i1, int[] memory i2, DecisionEntities.Operator _op) public pure returns (bool isEqual) {... */\n    tag_20:\n      swap4\n      swap3\n      pop\n      pop\n      pop\n      jump\t// out\n        /* \"DecisionLibrary.sol\":1296:1372  function returnZwo() public pure returns(uint zwo) {... */\n    tag_12:\n        /* \"DecisionLibrary.sol\":1337:1345  uint zwo */\n      0x00\n        /* \"DecisionLibrary.sol\":1364:1365  7 */\n      0x07\n        /* \"DecisionLibrary.sol\":1357:1365  return 7 */\n      swap1\n      pop\n        /* \"DecisionLibrary.sol\":1296:1372  function returnZwo() public pure returns(uint zwo) {... */\n      swap1\n      jump\t// out\n        /* \"DecisionLibrary.sol\":106:375  function evaluate(string memory s1, string memory s2, DecisionEntities.Operator _op) public pure returns (bool isEqual) {... */\n    tag_18:\n        /* \"DecisionLibrary.sol\":212:224  bool isEqual */\n      0x00\n        /* \"DecisionLibrary.sol\":236:247  bool equals */\n      dup1\n        /* \"DecisionLibrary.sol\":290:292  s2 */\n      dup4\n        /* \"DecisionLibrary.sol\":274:294  keccak256(bytes(s2)) */\n      dup1\n      mload\n      swap1\n      0x20\n      add\n      keccak256\n        /* \"DecisionLibrary.sol\":266:268  s1 */\n      dup6\n        /* \"DecisionLibrary.sol\":250:270  keccak256(bytes(s1)) */\n      dup1\n      mload\n      swap1\n      0x20\n      add\n      keccak256\n        /* \"DecisionLibrary.sol\":250:294  keccak256(bytes(s1)) == keccak256(bytes(s2)) */\n      eq\n        /* \"DecisionLibrary.sol\":236:294  bool equals = keccak256(bytes(s1)) == keccak256(bytes(s2)) */\n      swap1\n      pop\n        /* \"DecisionLibrary.sol\":318:349  DecisionEntities.Operator.EQUAL */\n      0x02\n        /* \"DecisionLibrary.sol\":311:349  _op == DecisionEntities.Operator.EQUAL */\n      0x06\n      dup2\n      gt\n      iszero\n      tag_53\n      jumpi\n      mstore(0x00, 0x4e487b7100000000000000000000000000000000000000000000000000000000)\n      mstore(0x04, 0x21)\n      revert(0x00, 0x24)\n    tag_53:\n        /* \"DecisionLibrary.sol\":311:314  _op */\n      dup4\n        /* \"DecisionLibrary.sol\":311:349  _op == DecisionEntities.Operator.EQUAL */\n      0x06\n      dup2\n      gt\n      iszero\n      tag_54\n      jumpi\n      mstore(0x00, 0x4e487b7100000000000000000000000000000000000000000000000000000000)\n      mstore(0x04, 0x21)\n      revert(0x00, 0x24)\n    tag_54:\n      eq\n        /* \"DecisionLibrary.sol\":311:367  _op == DecisionEntities.Operator.EQUAL? equals : !equals */\n      tag_55\n      jumpi\n        /* \"DecisionLibrary.sol\":361:367  equals */\n      dup1\n        /* \"DecisionLibrary.sol\":360:367  !equals */\n      iszero\n        /* \"DecisionLibrary.sol\":311:367  _op == DecisionEntities.Operator.EQUAL? equals : !equals */\n      jump(tag_56)\n    tag_55:\n        /* \"DecisionLibrary.sol\":351:357  equals */\n      dup1\n        /* \"DecisionLibrary.sol\":311:367  _op == DecisionEntities.Operator.EQUAL? equals : !equals */\n    tag_56:\n        /* \"DecisionLibrary.sol\":304:367  return _op == DecisionEntities.Operator.EQUAL? equals : !equals */\n      swap2\n      pop\n      pop\n        /* \"DecisionLibrary.sol\":106:375  function evaluate(string memory s1, string memory s2, DecisionEntities.Operator _op) public pure returns (bool isEqual) {... */\n      swap4\n      swap3\n      pop\n      pop\n      pop\n      jump\t// out\n        /* \"#utility.yul\":23:642   */\n    tag_58:\n      0x00\n        /* \"#utility.yul\":143:222   */\n      tag_60\n        /* \"#utility.yul\":158:221   */\n      tag_61\n        /* \"#utility.yul\":214:220   */\n      dup5\n        /* \"#utility.yul\":158:221   */\n      tag_62\n      jump\t// in\n    tag_61:\n        /* \"#utility.yul\":143:222   */\n      tag_63\n      jump\t// in\n    tag_60:\n        /* \"#utility.yul\":134:222   */\n      swap1\n      pop\n        /* \"#utility.yul\":242:247   */\n      dup1\n        /* \"#utility.yul\":270:276   */\n      dup4\n        /* \"#utility.yul\":263:268   */\n      dup3\n        /* \"#utility.yul\":256:277   */\n      mstore\n        /* \"#utility.yul\":296:300   */\n      0x20\n        /* \"#utility.yul\":289:294   */\n      dup3\n        /* \"#utility.yul\":285:301   */\n      add\n        /* \"#utility.yul\":278:301   */\n      swap1\n      pop\n        /* \"#utility.yul\":321:327   */\n      dup3\n        /* \"#utility.yul\":371:374   */\n      dup6\n        /* \"#utility.yul\":363:367   */\n      0x20\n        /* \"#utility.yul\":355:361   */\n      dup7\n        /* \"#utility.yul\":351:368   */\n      mul\n        /* \"#utility.yul\":346:349   */\n      dup3\n        /* \"#utility.yul\":342:369   */\n      add\n        /* \"#utility.yul\":339:375   */\n      gt\n        /* \"#utility.yul\":336:338   */\n      iszero\n      tag_64\n      jumpi\n        /* \"#utility.yul\":388:389   */\n      0x00\n        /* \"#utility.yul\":385:386   */\n      dup1\n        /* \"#utility.yul\":378:390   */\n      revert\n        /* \"#utility.yul\":336:338   */\n    tag_64:\n        /* \"#utility.yul\":416:417   */\n      0x00\n        /* \"#utility.yul\":401:636   */\n    tag_65:\n        /* \"#utility.yul\":426:432   */\n      dup6\n        /* \"#utility.yul\":423:424   */\n      dup2\n        /* \"#utility.yul\":420:433   */\n      lt\n        /* \"#utility.yul\":401:636   */\n      iszero\n      tag_67\n      jumpi\n        /* \"#utility.yul\":493:496   */\n      dup2\n        /* \"#utility.yul\":521:557   */\n      tag_68\n        /* \"#utility.yul\":553:556   */\n      dup9\n        /* \"#utility.yul\":541:551   */\n      dup3\n        /* \"#utility.yul\":521:557   */\n      tag_69\n      jump\t// in\n    tag_68:\n        /* \"#utility.yul\":516:519   */\n      dup5\n        /* \"#utility.yul\":509:558   */\n      mstore\n        /* \"#utility.yul\":587:591   */\n      0x20\n        /* \"#utility.yul\":582:585   */\n      dup5\n        /* \"#utility.yul\":578:592   */\n      add\n        /* \"#utility.yul\":571:592   */\n      swap4\n      pop\n        /* \"#utility.yul\":621:625   */\n      0x20\n        /* \"#utility.yul\":616:619   */\n      dup4\n        /* \"#utility.yul\":612:626   */\n      add\n        /* \"#utility.yul\":605:626   */\n      swap3\n      pop\n        /* \"#utility.yul\":461:636   */\n      pop\n        /* \"#utility.yul\":448:449   */\n      0x01\n        /* \"#utility.yul\":445:446   */\n      dup2\n        /* \"#utility.yul\":441:450   */\n      add\n        /* \"#utility.yul\":436:450   */\n      swap1\n      pop\n        /* \"#utility.yul\":401:636   */\n      jump(tag_65)\n    tag_67:\n        /* \"#utility.yul\":405:419   */\n      pop\n        /* \"#utility.yul\":124:642   */\n      pop\n      pop\n      swap4\n      swap3\n      pop\n      pop\n      pop\n      jump\t// out\n        /* \"#utility.yul\":648:992   */\n    tag_70:\n      0x00\n        /* \"#utility.yul\":751:816   */\n      tag_72\n        /* \"#utility.yul\":766:815   */\n      tag_73\n        /* \"#utility.yul\":808:814   */\n      dup5\n        /* \"#utility.yul\":766:815   */\n      tag_74\n      jump\t// in\n    tag_73:\n        /* \"#utility.yul\":751:816   */\n      tag_63\n      jump\t// in\n    tag_72:\n        /* \"#utility.yul\":742:816   */\n      swap1\n      pop\n        /* \"#utility.yul\":839:845   */\n      dup3\n        /* \"#utility.yul\":832:837   */\n      dup2\n        /* \"#utility.yul\":825:846   */\n      mstore\n        /* \"#utility.yul\":877:881   */\n      0x20\n        /* \"#utility.yul\":870:875   */\n      dup2\n        /* \"#utility.yul\":866:882   */\n      add\n        /* \"#utility.yul\":915:918   */\n      dup5\n        /* \"#utility.yul\":906:912   */\n      dup5\n        /* \"#utility.yul\":901:904   */\n      dup5\n        /* \"#utility.yul\":897:913   */\n      add\n        /* \"#utility.yul\":894:919   */\n      gt\n        /* \"#utility.yul\":891:893   */\n      iszero\n      tag_75\n      jumpi\n        /* \"#utility.yul\":932:933   */\n      0x00\n        /* \"#utility.yul\":929:930   */\n      dup1\n        /* \"#utility.yul\":922:934   */\n      revert\n        /* \"#utility.yul\":891:893   */\n    tag_75:\n        /* \"#utility.yul\":945:986   */\n      tag_76\n        /* \"#utility.yul\":979:985   */\n      dup5\n        /* \"#utility.yul\":974:977   */\n      dup3\n        /* \"#utility.yul\":969:972   */\n      dup6\n        /* \"#utility.yul\":945:986   */\n      tag_77\n      jump\t// in\n    tag_76:\n        /* \"#utility.yul\":732:992   */\n      pop\n      swap4\n      swap3\n      pop\n      pop\n      pop\n      jump\t// out\n        /* \"#utility.yul\":1014:1315   */\n    tag_78:\n      0x00\n        /* \"#utility.yul\":1133:1136   */\n      dup3\n        /* \"#utility.yul\":1126:1130   */\n      0x1f\n        /* \"#utility.yul\":1118:1124   */\n      dup4\n        /* \"#utility.yul\":1114:1131   */\n      add\n        /* \"#utility.yul\":1110:1137   */\n      slt\n        /* \"#utility.yul\":1100:1102   */\n      tag_80\n      jumpi\n        /* \"#utility.yul\":1151:1152   */\n      0x00\n        /* \"#utility.yul\":1148:1149   */\n      dup1\n        /* \"#utility.yul\":1141:1153   */\n      revert\n        /* \"#utility.yul\":1100:1102   */\n    tag_80:\n        /* \"#utility.yul\":1191:1197   */\n      dup2\n        /* \"#utility.yul\":1178:1198   */\n      calldataload\n        /* \"#utility.yul\":1216:1309   */\n      tag_81\n        /* \"#utility.yul\":1305:1308   */\n      dup5\n        /* \"#utility.yul\":1297:1303   */\n      dup3\n        /* \"#utility.yul\":1290:1294   */\n      0x20\n        /* \"#utility.yul\":1282:1288   */\n      dup7\n        /* \"#utility.yul\":1278:1295   */\n      add\n        /* \"#utility.yul\":1216:1309   */\n      tag_58\n      jump\t// in\n    tag_81:\n        /* \"#utility.yul\":1207:1309   */\n      swap2\n      pop\n        /* \"#utility.yul\":1090:1315   */\n      pop\n      swap3\n      swap2\n      pop\n      pop\n      jump\t// out\n        /* \"#utility.yul\":1321:1484   */\n    tag_82:\n      0x00\n        /* \"#utility.yul\":1417:1423   */\n      dup2\n        /* \"#utility.yul\":1404:1424   */\n      calldataload\n        /* \"#utility.yul\":1395:1424   */\n      swap1\n      pop\n        /* \"#utility.yul\":1433:1478   */\n      tag_84\n        /* \"#utility.yul\":1472:1477   */\n      dup2\n        /* \"#utility.yul\":1433:1478   */\n      tag_85\n      jump\t// in\n    tag_84:\n        /* \"#utility.yul\":1385:1484   */\n      swap3\n      swap2\n      pop\n      pop\n      jump\t// out\n        /* \"#utility.yul\":1490:1627   */\n    tag_69:\n      0x00\n        /* \"#utility.yul\":1573:1579   */\n      dup2\n        /* \"#utility.yul\":1560:1580   */\n      calldataload\n        /* \"#utility.yul\":1551:1580   */\n      swap1\n      pop\n        /* \"#utility.yul\":1589:1621   */\n      tag_87\n        /* \"#utility.yul\":1615:1620   */\n      dup2\n        /* \"#utility.yul\":1589:1621   */\n      tag_88\n      jump\t// in\n    tag_87:\n        /* \"#utility.yul\":1541:1627   */\n      swap3\n      swap2\n      pop\n      pop\n      jump\t// out\n        /* \"#utility.yul\":1647:1920   */\n    tag_89:\n      0x00\n        /* \"#utility.yul\":1752:1755   */\n      dup3\n        /* \"#utility.yul\":1745:1749   */\n      0x1f\n        /* \"#utility.yul\":1737:1743   */\n      dup4\n        /* \"#utility.yul\":1733:1750   */\n      add\n        /* \"#utility.yul\":1729:1756   */\n      slt\n        /* \"#utility.yul\":1719:1721   */\n      tag_91\n      jumpi\n        /* \"#utility.yul\":1770:1771   */\n      0x00\n        /* \"#utility.yul\":1767:1768   */\n      dup1\n        /* \"#utility.yul\":1760:1772   */\n      revert\n        /* \"#utility.yul\":1719:1721   */\n    tag_91:\n        /* \"#utility.yul\":1810:1816   */\n      dup2\n        /* \"#utility.yul\":1797:1817   */\n      calldataload\n        /* \"#utility.yul\":1835:1914   */\n      tag_92\n        /* \"#utility.yul\":1910:1913   */\n      dup5\n        /* \"#utility.yul\":1902:1908   */\n      dup3\n        /* \"#utility.yul\":1895:1899   */\n      0x20\n        /* \"#utility.yul\":1887:1893   */\n      dup7\n        /* \"#utility.yul\":1883:1900   */\n      add\n        /* \"#utility.yul\":1835:1914   */\n      tag_70\n      jump\t// in\n    tag_92:\n        /* \"#utility.yul\":1826:1914   */\n      swap2\n      pop\n        /* \"#utility.yul\":1709:1920   */\n      pop\n      swap3\n      swap2\n      pop\n      pop\n      jump\t// out\n        /* \"#utility.yul\":1926:2641   */\n    tag_7:\n      0x00\n      dup1\n      0x00\n        /* \"#utility.yul\":2103:2105   */\n      0x60\n        /* \"#utility.yul\":2091:2100   */\n      dup5\n        /* \"#utility.yul\":2082:2089   */\n      dup7\n        /* \"#utility.yul\":2078:2101   */\n      sub\n        /* \"#utility.yul\":2074:2106   */\n      slt\n        /* \"#utility.yul\":2071:2073   */\n      iszero\n      tag_94\n      jumpi\n        /* \"#utility.yul\":2119:2120   */\n      0x00\n        /* \"#utility.yul\":2116:2117   */\n      dup1\n        /* \"#utility.yul\":2109:2121   */\n      revert\n        /* \"#utility.yul\":2071:2073   */\n    tag_94:\n        /* \"#utility.yul\":2162:2163   */\n      0x00\n        /* \"#utility.yul\":2187:2239   */\n      tag_95\n        /* \"#utility.yul\":2231:2238   */\n      dup7\n        /* \"#utility.yul\":2222:2228   */\n      dup3\n        /* \"#utility.yul\":2211:2220   */\n      dup8\n        /* \"#utility.yul\":2207:2229   */\n      add\n        /* \"#utility.yul\":2187:2239   */\n      tag_69\n      jump\t// in\n    tag_95:\n        /* \"#utility.yul\":2177:2239   */\n      swap4\n      pop\n        /* \"#utility.yul\":2133:2249   */\n      pop\n        /* \"#utility.yul\":2316:2318   */\n      0x20\n        /* \"#utility.yul\":2305:2314   */\n      dup5\n        /* \"#utility.yul\":2301:2319   */\n      add\n        /* \"#utility.yul\":2288:2320   */\n      calldataload\n        /* \"#utility.yul\":2347:2365   */\n      0xffffffffffffffff\n        /* \"#utility.yul\":2339:2345   */\n      dup2\n        /* \"#utility.yul\":2336:2366   */\n      gt\n        /* \"#utility.yul\":2333:2335   */\n      iszero\n      tag_96\n      jumpi\n        /* \"#utility.yul\":2379:2380   */\n      0x00\n        /* \"#utility.yul\":2376:2377   */\n      dup1\n        /* \"#utility.yul\":2369:2381   */\n      revert\n        /* \"#utility.yul\":2333:2335   */\n    tag_96:\n        /* \"#utility.yul\":2407:2484   */\n      tag_97\n        /* \"#utility.yul\":2476:2483   */\n      dup7\n        /* \"#utility.yul\":2467:2473   */\n      dup3\n        /* \"#utility.yul\":2456:2465   */\n      dup8\n        /* \"#utility.yul\":2452:2474   */\n      add\n        /* \"#utility.yul\":2407:2484   */\n      tag_78\n      jump\t// in\n    tag_97:\n        /* \"#utility.yul\":2397:2484   */\n      swap3\n      pop\n        /* \"#utility.yul\":2259:2494   */\n      pop\n        /* \"#utility.yul\":2533:2535   */\n      0x40\n        /* \"#utility.yul\":2559:2624   */\n      tag_98\n        /* \"#utility.yul\":2616:2623   */\n      dup7\n        /* \"#utility.yul\":2607:2613   */\n      dup3\n        /* \"#utility.yul\":2596:2605   */\n      dup8\n        /* \"#utility.yul\":2592:2614   */\n      add\n        /* \"#utility.yul\":2559:2624   */\n      tag_82\n      jump\t// in\n    tag_98:\n        /* \"#utility.yul\":2549:2624   */\n      swap2\n      pop\n        /* \"#utility.yul\":2504:2634   */\n      pop\n        /* \"#utility.yul\":2061:2641   */\n      swap3\n      pop\n      swap3\n      pop\n      swap3\n      jump\t// out\n        /* \"#utility.yul\":2647:3449   */\n    tag_17:\n      0x00\n      dup1\n      0x00\n        /* \"#utility.yul\":2821:2823   */\n      0x60\n        /* \"#utility.yul\":2809:2818   */\n      dup5\n        /* \"#utility.yul\":2800:2807   */\n      dup7\n        /* \"#utility.yul\":2796:2819   */\n      sub\n        /* \"#utility.yul\":2792:2824   */\n      slt\n        /* \"#utility.yul\":2789:2791   */\n      iszero\n      tag_100\n      jumpi\n        /* \"#utility.yul\":2837:2838   */\n      0x00\n        /* \"#utility.yul\":2834:2835   */\n      dup1\n        /* \"#utility.yul\":2827:2839   */\n      revert\n        /* \"#utility.yul\":2789:2791   */\n    tag_100:\n        /* \"#utility.yul\":2908:2909   */\n      0x00\n        /* \"#utility.yul\":2897:2906   */\n      dup5\n        /* \"#utility.yul\":2893:2910   */\n      add\n        /* \"#utility.yul\":2880:2911   */\n      calldataload\n        /* \"#utility.yul\":2938:2956   */\n      0xffffffffffffffff\n        /* \"#utility.yul\":2930:2936   */\n      dup2\n        /* \"#utility.yul\":2927:2957   */\n      gt\n        /* \"#utility.yul\":2924:2926   */\n      iszero\n      tag_101\n      jumpi\n        /* \"#utility.yul\":2970:2971   */\n      0x00\n        /* \"#utility.yul\":2967:2968   */\n      dup1\n        /* \"#utility.yul\":2960:2972   */\n      revert\n        /* \"#utility.yul\":2924:2926   */\n    tag_101:\n        /* \"#utility.yul\":2998:3061   */\n      tag_102\n        /* \"#utility.yul\":3053:3060   */\n      dup7\n        /* \"#utility.yul\":3044:3050   */\n      dup3\n        /* \"#utility.yul\":3033:3042   */\n      dup8\n        /* \"#utility.yul\":3029:3051   */\n      add\n        /* \"#utility.yul\":2998:3061   */\n      tag_89\n      jump\t// in\n    tag_102:\n        /* \"#utility.yul\":2988:3061   */\n      swap4\n      pop\n        /* \"#utility.yul\":2851:3071   */\n      pop\n        /* \"#utility.yul\":3138:3140   */\n      0x20\n        /* \"#utility.yul\":3127:3136   */\n      dup5\n        /* \"#utility.yul\":3123:3141   */\n      add\n        /* \"#utility.yul\":3110:3142   */\n      calldataload\n        /* \"#utility.yul\":3169:3187   */\n      0xffffffffffffffff\n        /* \"#utility.yul\":3161:3167   */\n      dup2\n        /* \"#utility.yul\":3158:3188   */\n      gt\n        /* \"#utility.yul\":3155:3157   */\n      iszero\n      tag_103\n      jumpi\n        /* \"#utility.yul\":3201:3202   */\n      0x00\n        /* \"#utility.yul\":3198:3199   */\n      dup1\n        /* \"#utility.yul\":3191:3203   */\n      revert\n        /* \"#utility.yul\":3155:3157   */\n    tag_103:\n        /* \"#utility.yul\":3229:3292   */\n      tag_104\n        /* \"#utility.yul\":3284:3291   */\n      dup7\n        /* \"#utility.yul\":3275:3281   */\n      dup3\n        /* \"#utility.yul\":3264:3273   */\n      dup8\n        /* \"#utility.yul\":3260:3282   */\n      add\n        /* \"#utility.yul\":3229:3292   */\n      tag_89\n      jump\t// in\n    tag_104:\n        /* \"#utility.yul\":3219:3292   */\n      swap3\n      pop\n        /* \"#utility.yul\":3081:3302   */\n      pop\n        /* \"#utility.yul\":3341:3343   */\n      0x40\n        /* \"#utility.yul\":3367:3432   */\n      tag_105\n        /* \"#utility.yul\":3424:3431   */\n      dup7\n        /* \"#utility.yul\":3415:3421   */\n      dup3\n        /* \"#utility.yul\":3404:3413   */\n      dup8\n        /* \"#utility.yul\":3400:3422   */\n      add\n        /* \"#utility.yul\":3367:3432   */\n      tag_82\n      jump\t// in\n    tag_105:\n        /* \"#utility.yul\":3357:3432   */\n      swap2\n      pop\n        /* \"#utility.yul\":3312:3442   */\n      pop\n        /* \"#utility.yul\":2779:3449   */\n      swap3\n      pop\n      swap3\n      pop\n      swap3\n      jump\t// out\n        /* \"#utility.yul\":3455:3572   */\n    tag_106:\n        /* \"#utility.yul\":3544:3565   */\n      tag_108\n        /* \"#utility.yul\":3559:3564   */\n      dup2\n        /* \"#utility.yul\":3544:3565   */\n      tag_109\n      jump\t// in\n    tag_108:\n        /* \"#utility.yul\":3539:3542   */\n      dup3\n        /* \"#utility.yul\":3532:3566   */\n      mstore\n        /* \"#utility.yul\":3522:3572   */\n      pop\n      pop\n      jump\t// out\n        /* \"#utility.yul\":3578:3704   */\n    tag_110:\n        /* \"#utility.yul\":3673:3697   */\n      tag_112\n        /* \"#utility.yul\":3691:3696   */\n      dup2\n        /* \"#utility.yul\":3673:3697   */\n      tag_113\n      jump\t// in\n    tag_112:\n        /* \"#utility.yul\":3668:3671   */\n      dup3\n        /* \"#utility.yul\":3661:3698   */\n      mstore\n        /* \"#utility.yul\":3651:3704   */\n      pop\n      pop\n      jump\t// out\n        /* \"#utility.yul\":3710:3936   */\n    tag_10:\n      0x00\n        /* \"#utility.yul\":3843:3845   */\n      0x20\n        /* \"#utility.yul\":3832:3841   */\n      dup3\n        /* \"#utility.yul\":3828:3846   */\n      add\n        /* \"#utility.yul\":3820:3846   */\n      swap1\n      pop\n        /* \"#utility.yul\":3856:3929   */\n      tag_115\n        /* \"#utility.yul\":3926:3927   */\n      0x00\n        /* \"#utility.yul\":3915:3924   */\n      dup4\n        /* \"#utility.yul\":3911:3928   */\n      add\n        /* \"#utility.yul\":3902:3908   */\n      dup5\n        /* \"#utility.yul\":3856:3929   */\n      tag_106\n      jump\t// in\n    tag_115:\n        /* \"#utility.yul\":3810:3936   */\n      swap3\n      swap2\n      pop\n      pop\n      jump\t// out\n        /* \"#utility.yul\":3942:4180   */\n    tag_14:\n      0x00\n        /* \"#utility.yul\":4081:4083   */\n      0x20\n        /* \"#utility.yul\":4070:4079   */\n      dup3\n        /* \"#utility.yul\":4066:4084   */\n      add\n        /* \"#utility.yul\":4058:4084   */\n      swap1\n      pop\n        /* \"#utility.yul\":4094:4173   */\n      tag_117\n        /* \"#utility.yul\":4170:4171   */\n      0x00\n        /* \"#utility.yul\":4159:4168   */\n      dup4\n        /* \"#utility.yul\":4155:4172   */\n      add\n        /* \"#utility.yul\":4146:4152   */\n      dup5\n        /* \"#utility.yul\":4094:4173   */\n      tag_110\n      jump\t// in\n    tag_117:\n        /* \"#utility.yul\":4048:4180   */\n      swap3\n      swap2\n      pop\n      pop\n      jump\t// out\n        /* \"#utility.yul\":4186:4469   */\n    tag_63:\n      0x00\n        /* \"#utility.yul\":4252:4254   */\n      0x40\n        /* \"#utility.yul\":4246:4255   */\n      mload\n        /* \"#utility.yul\":4236:4255   */\n      swap1\n      pop\n        /* \"#utility.yul\":4294:4298   */\n      dup2\n        /* \"#utility.yul\":4286:4292   */\n      dup2\n        /* \"#utility.yul\":4282:4299   */\n      add\n        /* \"#utility.yul\":4401:4407   */\n      dup2\n        /* \"#utility.yul\":4389:4399   */\n      dup2\n        /* \"#utility.yul\":4386:4408   */\n      lt\n        /* \"#utility.yul\":4365:4383   */\n      0xffffffffffffffff\n        /* \"#utility.yul\":4353:4363   */\n      dup3\n        /* \"#utility.yul\":4350:4384   */\n      gt\n        /* \"#utility.yul\":4347:4409   */\n      or\n        /* \"#utility.yul\":4344:4346   */\n      iszero\n      tag_119\n      jumpi\n        /* \"#utility.yul\":4412:4430   */\n      tag_120\n      tag_121\n      jump\t// in\n    tag_120:\n        /* \"#utility.yul\":4344:4346   */\n    tag_119:\n        /* \"#utility.yul\":4452:4462   */\n      dup1\n        /* \"#utility.yul\":4448:4450   */\n      0x40\n        /* \"#utility.yul\":4441:4463   */\n      mstore\n        /* \"#utility.yul\":4226:4469   */\n      pop\n      swap2\n      swap1\n      pop\n      jump\t// out\n        /* \"#utility.yul\":4475:4785   */\n    tag_62:\n      0x00\n        /* \"#utility.yul\":4641:4659   */\n      0xffffffffffffffff\n        /* \"#utility.yul\":4633:4639   */\n      dup3\n        /* \"#utility.yul\":4630:4660   */\n      gt\n        /* \"#utility.yul\":4627:4629   */\n      iszero\n      tag_123\n      jumpi\n        /* \"#utility.yul\":4663:4681   */\n      tag_124\n      tag_121\n      jump\t// in\n    tag_124:\n        /* \"#utility.yul\":4627:4629   */\n    tag_123:\n        /* \"#utility.yul\":4713:4717   */\n      0x20\n        /* \"#utility.yul\":4705:4711   */\n      dup3\n        /* \"#utility.yul\":4701:4718   */\n      mul\n        /* \"#utility.yul\":4693:4718   */\n      swap1\n      pop\n        /* \"#utility.yul\":4773:4777   */\n      0x20\n        /* \"#utility.yul\":4767:4771   */\n      dup2\n        /* \"#utility.yul\":4763:4778   */\n      add\n        /* \"#utility.yul\":4755:4778   */\n      swap1\n      pop\n        /* \"#utility.yul\":4556:4785   */\n      swap2\n      swap1\n      pop\n      jump\t// out\n        /* \"#utility.yul\":4791:5123   */\n    tag_74:\n      0x00\n        /* \"#utility.yul\":4943:4961   */\n      0xffffffffffffffff\n        /* \"#utility.yul\":4935:4941   */\n      dup3\n        /* \"#utility.yul\":4932:4962   */\n      gt\n        /* \"#utility.yul\":4929:4931   */\n      iszero\n      tag_126\n      jumpi\n        /* \"#utility.yul\":4965:4983   */\n      tag_127\n      tag_121\n      jump\t// in\n    tag_127:\n        /* \"#utility.yul\":4929:4931   */\n    tag_126:\n        /* \"#utility.yul\":5050:5054   */\n      0x1f\n        /* \"#utility.yul\":5046:5055   */\n      not\n        /* \"#utility.yul\":5039:5043   */\n      0x1f\n        /* \"#utility.yul\":5031:5037   */\n      dup4\n        /* \"#utility.yul\":5027:5044   */\n      add\n        /* \"#utility.yul\":5023:5056   */\n      and\n        /* \"#utility.yul\":5015:5056   */\n      swap1\n      pop\n        /* \"#utility.yul\":5111:5115   */\n      0x20\n        /* \"#utility.yul\":5105:5109   */\n      dup2\n        /* \"#utility.yul\":5101:5116   */\n      add\n        /* \"#utility.yul\":5093:5116   */\n      swap1\n      pop\n        /* \"#utility.yul\":4858:5123   */\n      swap2\n      swap1\n      pop\n      jump\t// out\n        /* \"#utility.yul\":5129:5219   */\n    tag_109:\n      0x00\n        /* \"#utility.yul\":5206:5211   */\n      dup2\n        /* \"#utility.yul\":5199:5212   */\n      iszero\n        /* \"#utility.yul\":5192:5213   */\n      iszero\n        /* \"#utility.yul\":5181:5213   */\n      swap1\n      pop\n        /* \"#utility.yul\":5171:5219   */\n      swap2\n      swap1\n      pop\n      jump\t// out\n        /* \"#utility.yul\":5225:5301   */\n    tag_129:\n      0x00\n        /* \"#utility.yul\":5290:5295   */\n      dup2\n        /* \"#utility.yul\":5279:5295   */\n      swap1\n      pop\n        /* \"#utility.yul\":5269:5301   */\n      swap2\n      swap1\n      pop\n      jump\t// out\n        /* \"#utility.yul\":5307:5384   */\n    tag_113:\n      0x00\n        /* \"#utility.yul\":5373:5378   */\n      dup2\n        /* \"#utility.yul\":5362:5378   */\n      swap1\n      pop\n        /* \"#utility.yul\":5352:5384   */\n      swap2\n      swap1\n      pop\n      jump\t// out\n        /* \"#utility.yul\":5390:5544   */\n    tag_77:\n        /* \"#utility.yul\":5474:5480   */\n      dup3\n        /* \"#utility.yul\":5469:5472   */\n      dup2\n        /* \"#utility.yul\":5464:5467   */\n      dup4\n        /* \"#utility.yul\":5451:5481   */\n      calldatacopy\n        /* \"#utility.yul\":5536:5537   */\n      0x00\n        /* \"#utility.yul\":5527:5533   */\n      dup4\n        /* \"#utility.yul\":5522:5525   */\n      dup4\n        /* \"#utility.yul\":5518:5534   */\n      add\n        /* \"#utility.yul\":5511:5538   */\n      mstore\n        /* \"#utility.yul\":5441:5544   */\n      pop\n      pop\n      pop\n      jump\t// out\n        /* \"#utility.yul\":5550:5783   */\n    tag_50:\n      0x00\n        /* \"#utility.yul\":5612:5636   */\n      tag_134\n        /* \"#utility.yul\":5630:5635   */\n      dup3\n        /* \"#utility.yul\":5612:5636   */\n      tag_113\n      jump\t// in\n    tag_134:\n        /* \"#utility.yul\":5603:5636   */\n      swap2\n      pop\n        /* \"#utility.yul\":5658:5724   */\n      0xffffffffffffffffffffffffffffffffffffffffffffffffffffffffffffffff\n        /* \"#utility.yul\":5651:5656   */\n      dup3\n        /* \"#utility.yul\":5648:5725   */\n      eq\n        /* \"#utility.yul\":5645:5647   */\n      iszero\n      tag_135\n      jumpi\n        /* \"#utility.yul\":5728:5746   */\n      tag_136\n      tag_137\n      jump\t// in\n    tag_136:\n        /* \"#utility.yul\":5645:5647   */\n    tag_135:\n        /* \"#utility.yul\":5775:5776   */\n      0x01\n        /* \"#utility.yul\":5768:5773   */\n      dup3\n        /* \"#utility.yul\":5764:5777   */\n      add\n        /* \"#utility.yul\":5757:5777   */\n      swap1\n      pop\n        /* \"#utility.yul\":5593:5783   */\n      swap2\n      swap1\n      pop\n      jump\t// out\n        /* \"#utility.yul\":5789:5969   */\n    tag_137:\n        /* \"#utility.yul\":5837:5914   */\n      0x4e487b7100000000000000000000000000000000000000000000000000000000\n        /* \"#utility.yul\":5834:5835   */\n      0x00\n        /* \"#utility.yul\":5827:5915   */\n      mstore\n        /* \"#utility.yul\":5934:5938   */\n      0x11\n        /* \"#utility.yul\":5931:5932   */\n      0x04\n        /* \"#utility.yul\":5924:5939   */\n      mstore\n        /* \"#utility.yul\":5958:5962   */\n      0x24\n        /* \"#utility.yul\":5955:5956   */\n      0x00\n        /* \"#utility.yul\":5948:5963   */\n      revert\n        /* \"#utility.yul\":5975:6155   */\n    tag_121:\n        /* \"#utility.yul\":6023:6100   */\n      0x4e487b7100000000000000000000000000000000000000000000000000000000\n        /* \"#utility.yul\":6020:6021   */\n      0x00\n        /* \"#utility.yul\":6013:6101   */\n      mstore\n        /* \"#utility.yul\":6120:6124   */\n      0x41\n        /* \"#utility.yul\":6117:6118   */\n      0x04\n        /* \"#utility.yul\":6110:6125   */\n      mstore\n        /* \"#utility.yul\":6144:6148   */\n      0x24\n        /* \"#utility.yul\":6141:6142   */\n      0x00\n        /* \"#utility.yul\":6134:6149   */\n      revert\n        /* \"#utility.yul\":6161:6272   */\n    tag_85:\n        /* \"#utility.yul\":6246:6247   */\n      0x07\n        /* \"#utility.yul\":6239:6244   */\n      dup2\n        /* \"#utility.yul\":6236:6248   */\n      lt\n        /* \"#utility.yul\":6226:6228   */\n      tag_141\n      jumpi\n        /* \"#utility.yul\":6262:6263   */\n      0x00\n        /* \"#utility.yul\":6259:6260   */\n      dup1\n        /* \"#utility.yul\":6252:6264   */\n      revert\n        /* \"#utility.yul\":6226:6228   */\n    tag_141:\n        /* \"#utility.yul\":6216:6272   */\n      pop\n      jump\t// out\n        /* \"#utility.yul\":6278:6398   */\n    tag_88:\n        /* \"#utility.yul\":6350:6373   */\n      tag_143\n        /* \"#utility.yul\":6367:6372   */\n      dup2\n        /* \"#utility.yul\":6350:6373   */\n      tag_129\n      jump\t// in\n    tag_143:\n        /* \"#utility.yul\":6343:6348   */\n      dup2\n        /* \"#utility.yul\":6340:6374   */\n      eq\n        /* \"#utility.yul\":6330:6332   */\n      tag_144\n      jumpi\n        /* \"#utility.yul\":6388:6389   */\n      0x00\n        /* \"#utility.yul\":6385:6386   */\n      dup1\n        /* \"#utility.yul\":6378:6390   */\n      revert\n        /* \"#utility.yul\":6330:6332   */\n    tag_144:\n        /* \"#utility.yul\":6320:6398   */\n      pop\n      jump\t// out\n\n    auxdata: 0xa2646970667358221220d0345fc4771b82730ef7d9461d04263d7c8e67a14db847c526c82f0da0a5407b64736f6c63430008000033\n}\n","bytecode":{"linkReferences":{},"object":"610a68610053600b82828239805160001a607314610046577f4e487b7100000000000000000000000000000000000000000000000000000000600052600060045260246000fd5b30600052607381538281f3fe730000000000000000000000000000000000000000301460806040526004361061004b5760003560e01c8063320cb55214610050578063c237647f14610080578063d9d0a6121461009e575b600080fd5b61006a6004803603810190610065919061076e565b6100ce565b6040516100779190610872565b60405180910390f35b61008861059c565b604051610095919061088d565b60405180910390f35b6100b860048036038101906100b391906107d5565b6105a5565b6040516100c59190610872565b60405180910390f35b6000806006811115610109577f4e487b7100000000000000000000000000000000000000000000000000000000600052602160045260246000fd5b826006811115610142577f4e487b7100000000000000000000000000000000000000000000000000000000600052602160045260246000fd5b14156101935782600081518110610182577f4e487b7100000000000000000000000000000000000000000000000000000000600052603260045260246000fd5b602002602001015184129050610595565b600160068111156101cd577f4e487b7100000000000000000000000000000000000000000000000000000000600052602160045260246000fd5b826006811115610206577f4e487b7100000000000000000000000000000000000000000000000000000000600052602160045260246000fd5b14156102575782600081518110610246577f4e487b7100000000000000000000000000000000000000000000000000000000600052603260045260246000fd5b602002602001015184139050610595565b60026006811115610291577f4e487b7100000000000000000000000000000000000000000000000000000000600052602160045260246000fd5b8260068111156102ca577f4e487b7100000000000000000000000000000000000000000000000000000000600052602160045260246000fd5b141561031b578260008151811061030a577f4e487b7100000000000000000000000000000000000000000000000000000000600052603260045260246000fd5b602002602001015184149050610595565b60046006811115610355577f4e487b7100000000000000000000000000000000000000000000000000000000600052602160045260246000fd5b82600681111561038e577f4e487b7100000000000000000000000000000000000000000000000000000000600052602160045260246000fd5b14156103e057826000815181106103ce577f4e487b7100000000000000000000000000000000000000000000000000000000600052603260045260246000fd5b60200260200101518413159050610595565b6005600681111561041a577f4e487b7100000000000000000000000000000000000000000000000000000000600052602160045260246000fd5b826006811115610453577f4e487b7100000000000000000000000000000000000000000000000000000000600052602160045260246000fd5b14156104a55782600081518110610493577f4e487b7100000000000000000000000000000000000000000000000000000000600052603260045260246000fd5b60200260200101518412159050610595565b6006808111156104de577f4e487b7100000000000000000000000000000000000000000000000000000000600052602160045260246000fd5b826006811115610517577f4e487b7100000000000000000000000000000000000000000000000000000000600052602160045260246000fd5b14156105905760005b835181101561058e57838181518110610562577f4e487b7100000000000000000000000000000000000000000000000000000000600052603260045260246000fd5b602002602001015185141561057b576001915050610595565b808061058690610964565b915050610520565b505b600090505b9392505050565b60006007905090565b60008083805190602001208580519060200120149050600260068111156105f5577f4e487b7100000000000000000000000000000000000000000000000000000000600052602160045260246000fd5b83600681111561062e577f4e487b7100000000000000000000000000000000000000000000000000000000600052602160045260246000fd5b1461063a57801561063c565b805b9150509392505050565b6000610659610654846108d9565b6108a8565b9050808382526020820190508285602086028201111561067857600080fd5b60005b858110156106a8578161068e888261072f565b84526020840193506020830192505060018101905061067b565b5050509392505050565b60006106c56106c084610905565b6108a8565b9050828152602081018484840111156106dd57600080fd5b6106e8848285610955565b509392505050565b600082601f83011261070157600080fd5b8135610711848260208601610646565b91505092915050565b60008135905061072981610a0b565b92915050565b60008135905061073e81610a1b565b92915050565b600082601f83011261075557600080fd5b81356107658482602086016106b2565b91505092915050565b60008060006060848603121561078357600080fd5b60006107918682870161072f565b935050602084013567ffffffffffffffff8111156107ae57600080fd5b6107ba868287016106f0565b92505060406107cb8682870161071a565b9150509250925092565b6000806000606084860312156107ea57600080fd5b600084013567ffffffffffffffff81111561080457600080fd5b61081086828701610744565b935050602084013567ffffffffffffffff81111561082d57600080fd5b61083986828701610744565b925050604061084a8682870161071a565b9150509250925092565b61085d81610935565b82525050565b61086c8161094b565b82525050565b60006020820190506108876000830184610854565b92915050565b60006020820190506108a26000830184610863565b92915050565b6000604051905081810181811067ffffffffffffffff821117156108cf576108ce6109dc565b5b8060405250919050565b600067ffffffffffffffff8211156108f4576108f36109dc565b5b602082029050602081019050919050565b600067ffffffffffffffff8211156109205761091f6109dc565b5b601f19601f8301169050602081019050919050565b60008115159050919050565b6000819050919050565b6000819050919050565b82818337600083830152505050565b600061096f8261094b565b91507fffffffffffffffffffffffffffffffffffffffffffffffffffffffffffffffff8214156109a2576109a16109ad565b5b600182019050919050565b7f4e487b7100000000000000000000000000000000000000000000000000000000600052601160045260246000fd5b7f4e487b7100000000000000000000000000000000000000000000000000000000600052604160045260246000fd5b60078110610a1857600080fd5b50565b610a2481610941565b8114610a2f57600080fd5b5056fea2646970667358221220d0345fc4771b82730ef7d9461d04263d7c8e67a14db847c526c82f0da0a5407b64736f6c63430008000033","opcodes":"PUSH2 0xA68 PUSH2 0x53 PUSH1 0xB DUP3 DUP3 DUP3 CODECOPY DUP1 MLOAD PUSH1 0x0 BYTE PUSH1 0x73 EQ PUSH2 0x46 JUMPI PUSH32 0x4E487B7100000000000000000000000000000000000000000000000000000000 PUSH1 0x0 MSTORE PUSH1 0x0 PUSH1 0x4 MSTORE PUSH1 0x24 PUSH1 0x0 REVERT JUMPDEST ADDRESS PUSH1 0x0 MSTORE PUSH1 0x73 DUP2 MSTORE8 DUP3 DUP2 RETURN INVALID PUSH20 0x0 ADDRESS EQ PUSH1 0x80 PUSH1 0x40 MSTORE PUSH1 0x4 CALLDATASIZE LT PUSH2 0x4B JUMPI PUSH1 0x0 CALLDATALOAD PUSH1 0xE0 SHR DUP1 PUSH4 0x320CB552 EQ PUSH2 0x50 JUMPI DUP1 PUSH4 0xC237647F EQ PUSH2 0x80 JUMPI DUP1 PUSH4 0xD9D0A612 EQ PUSH2 0x9E JUMPI JUMPDEST PUSH1 0x0 DUP1 REVERT JUMPDEST PUSH2 0x6A PUSH1 0x4 DUP1 CALLDATASIZE SUB DUP2 ADD SWAP1 PUSH2 0x65 SWAP2 SWAP1 PUSH2 0x76E JUMP JUMPDEST PUSH2 0xCE JUMP JUMPDEST PUSH1 0x40 MLOAD PUSH2 0x77 SWAP2 SWAP1 PUSH2 0x872 JUMP JUMPDEST PUSH1 0x40 MLOAD DUP1 SWAP2 SUB SWAP1 RETURN JUMPDEST PUSH2 0x88 PUSH2 0x59C JUMP JUMPDEST PUSH1 0x40 MLOAD PUSH2 0x95 SWAP2 SWAP1 PUSH2 0x88D JUMP JUMPDEST PUSH1 0x40 MLOAD DUP1 SWAP2 SUB SWAP1 RETURN JUMPDEST PUSH2 0xB8 PUSH1 0x4 DUP1 CALLDATASIZE SUB DUP2 ADD SWAP1 PUSH2 0xB3 SWAP2 SWAP1 PUSH2 0x7D5 JUMP JUMPDEST PUSH2 0x5A5 JUMP JUMPDEST PUSH1 0x40 MLOAD PUSH2 0xC5 SWAP2 SWAP1 PUSH2 0x872 JUMP JUMPDEST PUSH1 0x40 MLOAD DUP1 SWAP2 SUB SWAP1 RETURN JUMPDEST PUSH1 0x0 DUP1 PUSH1 0x6 DUP2 GT ISZERO PUSH2 0x109 JUMPI PUSH32 0x4E487B7100000000000000000000000000000000000000000000000000000000 PUSH1 0x0 MSTORE PUSH1 0x21 PUSH1 0x4 MSTORE PUSH1 0x24 PUSH1 0x0 REVERT JUMPDEST DUP3 PUSH1 0x6 DUP2 GT ISZERO PUSH2 0x142 JUMPI PUSH32 0x4E487B7100000000000000000000000000000000000000000000000000000000 PUSH1 0x0 MSTORE PUSH1 0x21 PUSH1 0x4 MSTORE PUSH1 0x24 PUSH1 0x0 REVERT JUMPDEST EQ ISZERO PUSH2 0x193 JUMPI DUP3 PUSH1 0x0 DUP2 MLOAD DUP2 LT PUSH2 0x182 JUMPI PUSH32 0x4E487B7100000000000000000000000000000000000000000000000000000000 PUSH1 0x0 MSTORE PUSH1 0x32 PUSH1 0x4 MSTORE PUSH1 0x24 PUSH1 0x0 REVERT JUMPDEST PUSH1 0x20 MUL PUSH1 0x20 ADD ADD MLOAD DUP5 SLT SWAP1 POP PUSH2 0x595 JUMP JUMPDEST PUSH1 0x1 PUSH1 0x6 DUP2 GT ISZERO PUSH2 0x1CD JUMPI PUSH32 0x4E487B7100000000000000000000000000000000000000000000000000000000 PUSH1 0x0 MSTORE PUSH1 0x21 PUSH1 0x4 MSTORE PUSH1 0x24 PUSH1 0x0 REVERT JUMPDEST DUP3 PUSH1 0x6 DUP2 GT ISZERO PUSH2 0x206 JUMPI PUSH32 0x4E487B7100000000000000000000000000000000000000000000000000000000 PUSH1 0x0 MSTORE PUSH1 0x21 PUSH1 0x4 MSTORE PUSH1 0x24 PUSH1 0x0 REVERT JUMPDEST EQ ISZERO PUSH2 0x257 JUMPI DUP3 PUSH1 0x0 DUP2 MLOAD DUP2 LT PUSH2 0x246 JUMPI PUSH32 0x4E487B7100000000000000000000000000000000000000000000000000000000 PUSH1 0x0 MSTORE PUSH1 0x32 PUSH1 0x4 MSTORE PUSH1 0x24 PUSH1 0x0 REVERT JUMPDEST PUSH1 0x20 MUL PUSH1 0x20 ADD ADD MLOAD DUP5 SGT SWAP1 POP PUSH2 0x595 JUMP JUMPDEST PUSH1 0x2 PUSH1 0x6 DUP2 GT ISZERO PUSH2 0x291 JUMPI PUSH32 0x4E487B7100000000000000000000000000000000000000000000000000000000 PUSH1 0x0 MSTORE PUSH1 0x21 PUSH1 0x4 MSTORE PUSH1 0x24 PUSH1 0x0 REVERT JUMPDEST DUP3 PUSH1 0x6 DUP2 GT ISZERO PUSH2 0x2CA JUMPI PUSH32 0x4E487B7100000000000000000000000000000000000000000000000000000000 PUSH1 0x0 MSTORE PUSH1 0x21 PUSH1 0x4 MSTORE PUSH1 0x24 PUSH1 0x0 REVERT JUMPDEST EQ ISZERO PUSH2 0x31B JUMPI DUP3 PUSH1 0x0 DUP2 MLOAD DUP2 LT PUSH2 0x30A JUMPI PUSH32 0x4E487B7100000000000000000000000000000000000000000000000000000000 PUSH1 0x0 MSTORE PUSH1 0x32 PUSH1 0x4 MSTORE PUSH1 0x24 PUSH1 0x0 REVERT JUMPDEST PUSH1 0x20 MUL PUSH1 0x20 ADD ADD MLOAD DUP5 EQ SWAP1 POP PUSH2 0x595 JUMP JUMPDEST PUSH1 0x4 PUSH1 0x6 DUP2 GT ISZERO PUSH2 0x355 JUMPI PUSH32 0x4E487B7100000000000000000000000000000000000000000000000000000000 PUSH1 0x0 MSTORE PUSH1 0x21 PUSH1 0x4 MSTORE PUSH1 0x24 PUSH1 0x0 REVERT JUMPDEST DUP3 PUSH1 0x6 DUP2 GT ISZERO PUSH2 0x38E JUMPI PUSH32 0x4E487B7100000000000000000000000000000000000000000000000000000000 PUSH1 0x0 MSTORE PUSH1 0x21 PUSH1 0x4 MSTORE PUSH1 0x24 PUSH1 0x0 REVERT JUMPDEST EQ ISZERO PUSH2 0x3E0 JUMPI DUP3 PUSH1 0x0 DUP2 MLOAD DUP2 LT PUSH2 0x3CE JUMPI PUSH32 0x4E487B7100000000000000000000000000000000000000000000000000000000 PUSH1 0x0 MSTORE PUSH1 0x32 PUSH1 0x4 MSTORE PUSH1 0x24 PUSH1 0x0 REVERT JUMPDEST PUSH1 0x20 MUL PUSH1 0x20 ADD ADD MLOAD DUP5 SGT ISZERO SWAP1 POP PUSH2 0x595 JUMP JUMPDEST PUSH1 0x5 PUSH1 0x6 DUP2 GT ISZERO PUSH2 0x41A JUMPI PUSH32 0x4E487B7100000000000000000000000000000000000000000000000000000000 PUSH1 0x0 MSTORE PUSH1 0x21 PUSH1 0x4 MSTORE PUSH1 0x24 PUSH1 0x0 REVERT JUMPDEST DUP3 PUSH1 0x6 DUP2 GT ISZERO PUSH2 0x453 JUMPI PUSH32 0x4E487B7100000000000000000000000000000000000000000000000000000000 PUSH1 0x0 MSTORE PUSH1 0x21 PUSH1 0x4 MSTORE PUSH1 0x24 PUSH1 0x0 REVERT JUMPDEST EQ ISZERO PUSH2 0x4A5 JUMPI DUP3 PUSH1 0x0 DUP2 MLOAD DUP2 LT PUSH2 0x493 JUMPI PUSH32 0x4E487B7100000000000000000000000000000000000000000000000000000000 PUSH1 0x0 MSTORE PUSH1 0x32 PUSH1 0x4 MSTORE PUSH1 0x24 PUSH1 0x0 REVERT JUMPDEST PUSH1 0x20 MUL PUSH1 0x20 ADD ADD MLOAD DUP5 SLT ISZERO SWAP1 POP PUSH2 0x595 JUMP JUMPDEST PUSH1 0x6 DUP1 DUP2 GT ISZERO PUSH2 0x4DE JUMPI PUSH32 0x4E487B7100000000000000000000000000000000000000000000000000000000 PUSH1 0x0 MSTORE PUSH1 0x21 PUSH1 0x4 MSTORE PUSH1 0x24 PUSH1 0x0 REVERT JUMPDEST DUP3 PUSH1 0x6 DUP2 GT ISZERO PUSH2 0x517 JUMPI PUSH32 0x4E487B7100000000000000000000000000000000000000000000000000000000 PUSH1 0x0 MSTORE PUSH1 0x21 PUSH1 0x4 MSTORE PUSH1 0x24 PUSH1 0x0 REVERT JUMPDEST EQ ISZERO PUSH2 0x590 JUMPI PUSH1 0x0 JUMPDEST DUP4 MLOAD DUP2 LT ISZERO PUSH2 0x58E JUMPI DUP4 DUP2 DUP2 MLOAD DUP2 LT PUSH2 0x562 JUMPI PUSH32 0x4E487B7100000000000000000000000000000000000000000000000000000000 PUSH1 0x0 MSTORE PUSH1 0x32 PUSH1 0x4 MSTORE PUSH1 0x24 PUSH1 0x0 REVERT JUMPDEST PUSH1 0x20 MUL PUSH1 0x20 ADD ADD MLOAD DUP6 EQ ISZERO PUSH2 0x57B JUMPI PUSH1 0x1 SWAP2 POP POP PUSH2 0x595 JUMP JUMPDEST DUP1 DUP1 PUSH2 0x586 SWAP1 PUSH2 0x964 JUMP JUMPDEST SWAP2 POP POP PUSH2 0x520 JUMP JUMPDEST POP JUMPDEST PUSH1 0x0 SWAP1 POP JUMPDEST SWAP4 SWAP3 POP POP POP JUMP JUMPDEST PUSH1 0x0 PUSH1 0x7 SWAP1 POP SWAP1 JUMP JUMPDEST PUSH1 0x0 DUP1 DUP4 DUP1 MLOAD SWAP1 PUSH1 0x20 ADD KECCAK256 DUP6 DUP1 MLOAD SWAP1 PUSH1 0x20 ADD KECCAK256 EQ SWAP1 POP PUSH1 0x2 PUSH1 0x6 DUP2 GT ISZERO PUSH2 0x5F5 JUMPI PUSH32 0x4E487B7100000000000000000000000000000000000000000000000000000000 PUSH1 0x0 MSTORE PUSH1 0x21 PUSH1 0x4 MSTORE PUSH1 0x24 PUSH1 0x0 REVERT JUMPDEST DUP4 PUSH1 0x6 DUP2 GT ISZERO PUSH2 0x62E JUMPI PUSH32 0x4E487B7100000000000000000000000000000000000000000000000000000000 PUSH1 0x0 MSTORE PUSH1 0x21 PUSH1 0x4 MSTORE PUSH1 0x24 PUSH1 0x0 REVERT JUMPDEST EQ PUSH2 0x63A JUMPI DUP1 ISZERO PUSH2 0x63C JUMP JUMPDEST DUP1 JUMPDEST SWAP2 POP POP SWAP4 SWAP3 POP POP POP JUMP JUMPDEST PUSH1 0x0 PUSH2 0x659 PUSH2 0x654 DUP5 PUSH2 0x8D9 JUMP JUMPDEST PUSH2 0x8A8 JUMP JUMPDEST SWAP1 POP DUP1 DUP4 DUP3 MSTORE PUSH1 0x20 DUP3 ADD SWAP1 POP DUP3 DUP6 PUSH1 0x20 DUP7 MUL DUP3 ADD GT ISZERO PUSH2 0x678 JUMPI PUSH1 0x0 DUP1 REVERT JUMPDEST PUSH1 0x0 JUMPDEST DUP6 DUP2 LT ISZERO PUSH2 0x6A8 JUMPI DUP2 PUSH2 0x68E DUP9 DUP3 PUSH2 0x72F JUMP JUMPDEST DUP5 MSTORE PUSH1 0x20 DUP5 ADD SWAP4 POP PUSH1 0x20 DUP4 ADD SWAP3 POP POP PUSH1 0x1 DUP2 ADD SWAP1 POP PUSH2 0x67B JUMP JUMPDEST POP POP POP SWAP4 SWAP3 POP POP POP JUMP JUMPDEST PUSH1 0x0 PUSH2 0x6C5 PUSH2 0x6C0 DUP5 PUSH2 0x905 JUMP JUMPDEST PUSH2 0x8A8 JUMP JUMPDEST SWAP1 POP DUP3 DUP2 MSTORE PUSH1 0x20 DUP2 ADD DUP5 DUP5 DUP5 ADD GT ISZERO PUSH2 0x6DD JUMPI PUSH1 0x0 DUP1 REVERT JUMPDEST PUSH2 0x6E8 DUP5 DUP3 DUP6 PUSH2 0x955 JUMP JUMPDEST POP SWAP4 SWAP3 POP POP POP JUMP JUMPDEST PUSH1 0x0 DUP3 PUSH1 0x1F DUP4 ADD SLT PUSH2 0x701 JUMPI PUSH1 0x0 DUP1 REVERT JUMPDEST DUP2 CALLDATALOAD PUSH2 0x711 DUP5 DUP3 PUSH1 0x20 DUP7 ADD PUSH2 0x646 JUMP JUMPDEST SWAP2 POP POP SWAP3 SWAP2 POP POP JUMP JUMPDEST PUSH1 0x0 DUP2 CALLDATALOAD SWAP1 POP PUSH2 0x729 DUP2 PUSH2 0xA0B JUMP JUMPDEST SWAP3 SWAP2 POP POP JUMP JUMPDEST PUSH1 0x0 DUP2 CALLDATALOAD SWAP1 POP PUSH2 0x73E DUP2 PUSH2 0xA1B JUMP JUMPDEST SWAP3 SWAP2 POP POP JUMP JUMPDEST PUSH1 0x0 DUP3 PUSH1 0x1F DUP4 ADD SLT PUSH2 0x755 JUMPI PUSH1 0x0 DUP1 REVERT JUMPDEST DUP2 CALLDATALOAD PUSH2 0x765 DUP5 DUP3 PUSH1 0x20 DUP7 ADD PUSH2 0x6B2 JUMP JUMPDEST SWAP2 POP POP SWAP3 SWAP2 POP POP JUMP JUMPDEST PUSH1 0x0 DUP1 PUSH1 0x0 PUSH1 0x60 DUP5 DUP7 SUB SLT ISZERO PUSH2 0x783 JUMPI PUSH1 0x0 DUP1 REVERT JUMPDEST PUSH1 0x0 PUSH2 0x791 DUP7 DUP3 DUP8 ADD PUSH2 0x72F JUMP JUMPDEST SWAP4 POP POP PUSH1 0x20 DUP5 ADD CALLDATALOAD PUSH8 0xFFFFFFFFFFFFFFFF DUP2 GT ISZERO PUSH2 0x7AE JUMPI PUSH1 0x0 DUP1 REVERT JUMPDEST PUSH2 0x7BA DUP7 DUP3 DUP8 ADD PUSH2 0x6F0 JUMP JUMPDEST SWAP3 POP POP PUSH1 0x40 PUSH2 0x7CB DUP7 DUP3 DUP8 ADD PUSH2 0x71A JUMP JUMPDEST SWAP2 POP POP SWAP3 POP SWAP3 POP SWAP3 JUMP JUMPDEST PUSH1 0x0 DUP1 PUSH1 0x0 PUSH1 0x60 DUP5 DUP7 SUB SLT ISZERO PUSH2 0x7EA JUMPI PUSH1 0x0 DUP1 REVERT JUMPDEST PUSH1 0x0 DUP5 ADD CALLDATALOAD PUSH8 0xFFFFFFFFFFFFFFFF DUP2 GT ISZERO PUSH2 0x804 JUMPI PUSH1 0x0 DUP1 REVERT JUMPDEST PUSH2 0x810 DUP7 DUP3 DUP8 ADD PUSH2 0x744 JUMP JUMPDEST SWAP4 POP POP PUSH1 0x20 DUP5 ADD CALLDATALOAD PUSH8 0xFFFFFFFFFFFFFFFF DUP2 GT ISZERO PUSH2 0x82D JUMPI PUSH1 0x0 DUP1 REVERT JUMPDEST PUSH2 0x839 DUP7 DUP3 DUP8 ADD PUSH2 0x744 JUMP JUMPDEST SWAP3 POP POP PUSH1 0x40 PUSH2 0x84A DUP7 DUP3 DUP8 ADD PUSH2 0x71A JUMP JUMPDEST SWAP2 POP POP SWAP3 POP SWAP3 POP SWAP3 JUMP JUMPDEST PUSH2 0x85D DUP2 PUSH2 0x935 JUMP JUMPDEST DUP3 MSTORE POP POP JUMP JUMPDEST PUSH2 0x86C DUP2 PUSH2 0x94B JUMP JUMPDEST DUP3 MSTORE POP POP JUMP JUMPDEST PUSH1 0x0 PUSH1 0x20 DUP3 ADD SWAP1 POP PUSH2 0x887 PUSH1 0x0 DUP4 ADD DUP5 PUSH2 0x854 JUMP JUMPDEST SWAP3 SWAP2 POP POP JUMP JUMPDEST PUSH1 0x0 PUSH1 0x20 DUP3 ADD SWAP1 POP PUSH2 0x8A2 PUSH1 0x0 DUP4 ADD DUP5 PUSH2 0x863 JUMP JUMPDEST SWAP3 SWAP2 POP POP JUMP JUMPDEST PUSH1 0x0 PUSH1 0x40 MLOAD SWAP1 POP DUP2 DUP2 ADD DUP2 DUP2 LT PUSH8 0xFFFFFFFFFFFFFFFF DUP3 GT OR ISZERO PUSH2 0x8CF JUMPI PUSH2 0x8CE PUSH2 0x9DC JUMP JUMPDEST JUMPDEST DUP1 PUSH1 0x40 MSTORE POP SWAP2 SWAP1 POP JUMP JUMPDEST PUSH1 0x0 PUSH8 0xFFFFFFFFFFFFFFFF DUP3 GT ISZERO PUSH2 0x8F4 JUMPI PUSH2 0x8F3 PUSH2 0x9DC JUMP JUMPDEST JUMPDEST PUSH1 0x20 DUP3 MUL SWAP1 POP PUSH1 0x20 DUP2 ADD SWAP1 POP SWAP2 SWAP1 POP JUMP JUMPDEST PUSH1 0x0 PUSH8 0xFFFFFFFFFFFFFFFF DUP3 GT ISZERO PUSH2 0x920 JUMPI PUSH2 0x91F PUSH2 0x9DC JUMP JUMPDEST JUMPDEST PUSH1 0x1F NOT PUSH1 0x1F DUP4 ADD AND SWAP1 POP PUSH1 0x20 DUP2 ADD SWAP1 POP SWAP2 SWAP1 POP JUMP JUMPDEST PUSH1 0x0 DUP2 ISZERO ISZERO SWAP1 POP SWAP2 SWAP1 POP JUMP JUMPDEST PUSH1 0x0 DUP2 SWAP1 POP SWAP2 SWAP1 POP JUMP JUMPDEST PUSH1 0x0 DUP2 SWAP1 POP SWAP2 SWAP1 POP JUMP JUMPDEST DUP3 DUP2 DUP4 CALLDATACOPY PUSH1 0x0 DUP4 DUP4 ADD MSTORE POP POP POP JUMP JUMPDEST PUSH1 0x0 PUSH2 0x96F DUP3 PUSH2 0x94B JUMP JUMPDEST SWAP2 POP PUSH32 0xFFFFFFFFFFFFFFFFFFFFFFFFFFFFFFFFFFFFFFFFFFFFFFFFFFFFFFFFFFFFFFFF DUP3 EQ ISZERO PUSH2 0x9A2 JUMPI PUSH2 0x9A1 PUSH2 0x9AD JUMP JUMPDEST JUMPDEST PUSH1 0x1 DUP3 ADD SWAP1 POP SWAP2 SWAP1 POP JUMP JUMPDEST PUSH32 0x4E487B7100000000000000000000000000000000000000000000000000000000 PUSH1 0x0 MSTORE PUSH1 0x11 PUSH1 0x4 MSTORE PUSH1 0x24 PUSH1 0x0 REVERT JUMPDEST PUSH32 0x4E487B7100000000000000000000000000000000000000000000000000000000 PUSH1 0x0 MSTORE PUSH1 0x41 PUSH1 0x4 MSTORE PUSH1 0x24 PUSH1 0x0 REVERT JUMPDEST PUSH1 0x7 DUP2 LT PUSH2 0xA18 JUMPI PUSH1 0x0 DUP1 REVERT JUMPDEST POP JUMP JUMPDEST PUSH2 0xA24 DUP2 PUSH2 0x941 JUMP JUMPDEST DUP2 EQ PUSH2 0xA2F JUMPI PUSH1 0x0 DUP1 REVERT JUMPDEST POP JUMP INVALID LOG2 PUSH5 0x6970667358 0x22 SLT KECCAK256 0xD0 CALLVALUE 0x5F 0xC4 PUSH24 0x1B82730EF7D9461D04263D7C8E67A14DB847C526C82F0DA0 0xA5 BLOCKHASH PUSH28 0x64736F6C634300080000330000000000000000000000000000000000 "},"gasEstimates":{"creation":{"codeDepositCost":"532800","executionCost":"593","totalCost":"533393"},"external":{"evaluate(int256,int256[],DecisionEntities.Operator)":"infinite","evaluate(string,string,DecisionEntities.Operator)":"infinite","returnZwo()":"321"}},"methodIdentifiers":{"evaluate(int256,int256[],DecisionEntities.Operator)":"320cb552","evaluate(string,string,DecisionEntities.Operator)":"d9d0a612","returnZwo()":"c237647f"}},"storageLayout":{"storage":[],"types":null},"userdoc":{"kind":"user","methods":{},"version":1}}