{"abi":[{"inputs":[{"internalType":"uint256","name":"_id","type":"uint256"},{"components":[{"internalType":"string","name":"activity","type":"string"},{"internalType":"address","name":"taskresource","type":"address"},{"internalType":"bool","name":"completed","type":"bool"},{"internalType":"enum DecisionEntities.GatewayType","name":"preceedingMergingGateway","type":"DecisionEntities.GatewayType"},{"internalType":"uint256[]","name":"requirements","type":"uint256[]"},{"internalType":"uint256[]","name":"competitors","type":"uint256[]"},{"components":[{"internalType":"uint256","name":"endBoss","type":"uint256"},{"internalType":"enum DecisionEntities.GatewayType","name":"gatewaytype","type":"DecisionEntities.GatewayType"},{"internalType":"enum DecisionEntities.DecisionType","name":"type_","type":"DecisionEntities.DecisionType"},{"internalType":"bool","name":"completed","type":"bool"},{"internalType":"bool","name":"exists","type":"bool"},{"internalType":"enum DecisionEntities.Operator","name":"operator","type":"DecisionEntities.Operator"},{"internalType":"string","name":"processVariable","type":"string"},{"internalType":"string","name":"s_value","type":"string"},{"internalType":"int256[]","name":"i_value","type":"int256[]"}],"internalType":"struct DecisionEntities.Decision","name":"decision","type":"tuple"}],"internalType":"struct TaskEntities.Task","name":"_task","type":"tuple"}],"name":"createDbTask","outputs":[{"components":[{"internalType":"uint256","name":"id","type":"uint256"},{"internalType":"string","name":"activity","type":"string"}],"internalType":"struct TaskEntities.DbTask","name":"_storedTask","type":"tuple"}],"stateMutability":"pure","type":"function"},{"inputs":[{"internalType":"string","name":"_activity","type":"string"},{"internalType":"address","name":"_taskresource","type":"address"},{"internalType":"enum DecisionEntities.GatewayType","name":"_pmg","type":"DecisionEntities.GatewayType"},{"internalType":"uint256[]","name":"_requirements","type":"uint256[]"},{"internalType":"uint256[]","name":"_competitors","type":"uint256[]"}],"name":"createTask","outputs":[{"components":[{"internalType":"string","name":"activity","type":"string"},{"internalType":"address","name":"taskresource","type":"address"},{"internalType":"bool","name":"completed","type":"bool"},{"internalType":"enum DecisionEntities.GatewayType","name":"preceedingMergingGateway","type":"DecisionEntities.GatewayType"},{"internalType":"uint256[]","name":"requirements","type":"uint256[]"},{"internalType":"uint256[]","name":"competitors","type":"uint256[]"},{"components":[{"internalType":"uint256","name":"endBoss","type":"uint256"},{"internalType":"enum DecisionEntities.GatewayType","name":"gatewaytype","type":"DecisionEntities.GatewayType"},{"internalType":"enum DecisionEntities.DecisionType","name":"type_","type":"DecisionEntities.DecisionType"},{"internalType":"bool","name":"completed","type":"bool"},{"internalType":"bool","name":"exists","type":"bool"},{"internalType":"enum DecisionEntities.Operator","name":"operator","type":"DecisionEntities.Operator"},{"internalType":"string","name":"processVariable","type":"string"},{"internalType":"string","name":"s_value","type":"string"},{"internalType":"int256[]","name":"i_value","type":"int256[]"}],"internalType":"struct DecisionEntities.Decision","name":"decision","type":"tuple"}],"internalType":"struct TaskEntities.Task","name":"newTask","type":"tuple"}],"stateMutability":"pure","type":"function"}],"devdoc":{"kind":"dev","methods":{},"version":1},"evm":{"assembly":"    /* \"TaskLibrary.sol\":191:4200  library TaskLibrary {... */\n  dataSize(sub_0)\n  dataOffset(sub_0)\n  0x0b\n  dup3\n  dup3\n  dup3\n  codecopy\n  dup1\n  mload\n  0x00\n  byte\n  0x73\n  eq\n  tag_1\n  jumpi\n  mstore(0x00, 0x4e487b7100000000000000000000000000000000000000000000000000000000)\n  mstore(0x04, 0x00)\n  revert(0x00, 0x24)\ntag_1:\n  mstore(0x00, address)\n  0x73\n  dup2\n  mstore8\n  dup3\n  dup2\n  return\nstop\n\nsub_0: assembly {\n        /* \"TaskLibrary.sol\":191:4200  library TaskLibrary {... */\n      eq(address, deployTimeAddress())\n      mstore(0x40, 0x80)\n      jumpi(tag_1, lt(calldatasize, 0x04))\n      shr(0xe0, calldataload(0x00))\n      dup1\n      0x72e6436b\n      eq\n      tag_2\n      jumpi\n      dup1\n      0xa0bb48ab\n      eq\n      tag_3\n      jumpi\n      dup1\n      0xb707c694\n      eq\n      tag_4\n      jumpi\n      dup1\n      0xe00e0eea\n      eq\n      tag_5\n      jumpi\n    tag_1:\n      0x00\n      dup1\n      revert\n        /* \"TaskLibrary.sol\":222:790  function createTask(string memory _activity,... */\n    tag_2:\n      tag_6\n      0x04\n      dup1\n      calldatasize\n      sub\n      dup2\n      add\n      swap1\n      tag_7\n      swap2\n      swap1\n      tag_8\n      jump\t// in\n    tag_7:\n      tag_9\n      jump\t// in\n    tag_6:\n      mload(0x40)\n      tag_10\n      swap2\n      swap1\n      tag_11\n      jump\t// in\n    tag_10:\n      mload(0x40)\n      dup1\n      swap2\n      sub\n      swap1\n      return\n        /* \"TaskLibrary.sol\":800:1081  function createDbTask(uint _id, TaskEntities.Task memory _task) public pure returns (TaskEntities.DbTask memory _storedTask) {... */\n    tag_3:\n      tag_12\n      0x04\n      dup1\n      calldatasize\n      sub\n      dup2\n      add\n      swap1\n      tag_13\n      swap2\n      swap1\n      tag_14\n      jump\t// in\n    tag_13:\n      tag_15\n      jump\t// in\n    tag_12:\n      mload(0x40)\n      tag_16\n      swap2\n      swap1\n      tag_17\n      jump\t// in\n    tag_16:\n      mload(0x40)\n      dup1\n      swap2\n      sub\n      swap1\n      return\n        /* \"TaskLibrary.sol\":3450:4194  function evaluateDecision(DecisionEntities.Decision memory _decision, ProcessEntities.State storage _state) public view returns (bool success){... */\n    tag_4:\n      tag_18\n      0x04\n      dup1\n      calldatasize\n      sub\n      dup2\n      add\n      swap1\n      tag_19\n      swap2\n      swap1\n      tag_20\n      jump\t// in\n    tag_19:\n      tag_21\n      jump\t// in\n    tag_18:\n      mload(0x40)\n      tag_22\n      swap2\n      swap1\n      tag_23\n      jump\t// in\n    tag_22:\n      mload(0x40)\n      dup1\n      swap2\n      sub\n      swap1\n      return\n        /* \"TaskLibrary.sol\":1091:3440  function completeTask(TaskEntities.Task memory _task, ProcessEntities.State storage _state) public view returns (bool success, uint endBoss) {... */\n    tag_5:\n      tag_24\n      0x04\n      dup1\n      calldatasize\n      sub\n      dup2\n      add\n      swap1\n      tag_25\n      swap2\n      swap1\n      tag_26\n      jump\t// in\n    tag_25:\n      tag_27\n      jump\t// in\n    tag_24:\n      mload(0x40)\n      tag_28\n      swap3\n      swap2\n      swap1\n      tag_29\n      jump\t// in\n    tag_28:\n      mload(0x40)\n      dup1\n      swap2\n      sub\n      swap1\n      return\n        /* \"TaskLibrary.sol\":222:790  function createTask(string memory _activity,... */\n    tag_9:\n        /* \"TaskLibrary.sol\":435:467  TaskEntities.Task memory newTask */\n      tag_30\n      tag_31\n      jump\t// in\n    tag_30:\n        /* \"TaskLibrary.sol\":502:511  _activity */\n      dup6\n        /* \"TaskLibrary.sol\":483:490  newTask */\n      dup2\n        /* \"TaskLibrary.sol\":483:499  newTask.activity */\n      0x00\n      add\n        /* \"TaskLibrary.sol\":483:511  newTask.activity = _activity */\n      dup2\n      swap1\n      mstore\n      pop\n        /* \"TaskLibrary.sol\":560:564  _pmg */\n      dup4\n        /* \"TaskLibrary.sol\":525:532  newTask */\n      dup2\n        /* \"TaskLibrary.sol\":525:557  newTask.preceedingMergingGateway */\n      0x60\n      add\n        /* \"TaskLibrary.sol\":525:564  newTask.preceedingMergingGateway = _pmg */\n      swap1\n      0x03\n      dup2\n      gt\n      iszero\n      tag_33\n      jumpi\n      mstore(0x00, 0x4e487b7100000000000000000000000000000000000000000000000000000000)\n      mstore(0x04, 0x21)\n      revert(0x00, 0x24)\n    tag_33:\n      swap1\n      dup2\n      0x03\n      dup2\n      gt\n      iszero\n      tag_34\n      jumpi\n      mstore(0x00, 0x4e487b7100000000000000000000000000000000000000000000000000000000)\n      mstore(0x04, 0x21)\n      revert(0x00, 0x24)\n    tag_34:\n      dup2\n      mstore\n      pop\n      pop\n        /* \"TaskLibrary.sol\":601:614  _taskresource */\n      dup5\n        /* \"TaskLibrary.sol\":578:585  newTask */\n      dup2\n        /* \"TaskLibrary.sol\":578:598  newTask.taskresource */\n      0x20\n      add\n        /* \"TaskLibrary.sol\":578:614  newTask.taskresource = _taskresource */\n      swap1\n      0xffffffffffffffffffffffffffffffffffffffff\n      and\n      swap1\n      dup2\n      0xffffffffffffffffffffffffffffffffffffffff\n      and\n      dup2\n      mstore\n      pop\n      pop\n        /* \"TaskLibrary.sol\":651:664  _requirements */\n      dup3\n        /* \"TaskLibrary.sol\":628:635  newTask */\n      dup2\n        /* \"TaskLibrary.sol\":628:648  newTask.requirements */\n      0x80\n      add\n        /* \"TaskLibrary.sol\":628:664  newTask.requirements = _requirements */\n      dup2\n      swap1\n      mstore\n      pop\n        /* \"TaskLibrary.sol\":698:703  false */\n      0x00\n        /* \"TaskLibrary.sol\":678:685  newTask */\n      dup2\n        /* \"TaskLibrary.sol\":678:695  newTask.completed */\n      0x40\n      add\n        /* \"TaskLibrary.sol\":678:703  newTask.completed = false */\n      swap1\n      iszero\n      iszero\n      swap1\n      dup2\n      iszero\n      iszero\n      dup2\n      mstore\n      pop\n      pop\n        /* \"TaskLibrary.sol\":739:751  _competitors */\n      dup2\n        /* \"TaskLibrary.sol\":717:724  newTask */\n      dup2\n        /* \"TaskLibrary.sol\":717:736  newTask.competitors */\n      0xa0\n      add\n        /* \"TaskLibrary.sol\":717:751  newTask.competitors = _competitors */\n      dup2\n      swap1\n      mstore\n      pop\n        /* \"TaskLibrary.sol\":222:790  function createTask(string memory _activity,... */\n      swap6\n      swap5\n      pop\n      pop\n      pop\n      pop\n      pop\n      jump\t// out\n        /* \"TaskLibrary.sol\":800:1081  function createDbTask(uint _id, TaskEntities.Task memory _task) public pure returns (TaskEntities.DbTask memory _storedTask) {... */\n    tag_15:\n        /* \"TaskLibrary.sol\":885:923  TaskEntities.DbTask memory _storedTask */\n      tag_35\n      tag_36\n      jump\t// in\n    tag_35:\n        /* \"TaskLibrary.sol\":935:972  TaskEntities.DbTask memory storedTask */\n      tag_38\n      tag_36\n      jump\t// in\n    tag_38:\n        /* \"TaskLibrary.sol\":998:1001  _id */\n      dup4\n        /* \"TaskLibrary.sol\":982:992  storedTask */\n      dup2\n        /* \"TaskLibrary.sol\":982:995  storedTask.id */\n      0x00\n      add\n        /* \"TaskLibrary.sol\":982:1001  storedTask.id = _id */\n      dup2\n      dup2\n      mstore\n      pop\n      pop\n        /* \"TaskLibrary.sol\":1033:1038  _task */\n      dup3\n        /* \"TaskLibrary.sol\":1033:1047  _task.activity */\n      0x00\n      add\n      mload\n        /* \"TaskLibrary.sol\":1011:1021  storedTask */\n      dup2\n        /* \"TaskLibrary.sol\":1011:1030  storedTask.activity */\n      0x20\n      add\n        /* \"TaskLibrary.sol\":1011:1047  storedTask.activity = _task.activity */\n      dup2\n      swap1\n      mstore\n      pop\n        /* \"TaskLibrary.sol\":1064:1074  storedTask */\n      dup1\n        /* \"TaskLibrary.sol\":1057:1074  return storedTask */\n      swap2\n      pop\n      pop\n        /* \"TaskLibrary.sol\":800:1081  function createDbTask(uint _id, TaskEntities.Task memory _task) public pure returns (TaskEntities.DbTask memory _storedTask) {... */\n      swap3\n      swap2\n      pop\n      pop\n      jump\t// out\n        /* \"TaskLibrary.sol\":3450:4194  function evaluateDecision(DecisionEntities.Decision memory _decision, ProcessEntities.State storage _state) public view returns (bool success){... */\n    tag_21:\n        /* \"TaskLibrary.sol\":3579:3591  bool success */\n      0x00\n        /* \"TaskLibrary.sol\":3624:3664  DecisionEntities.DecisionType.STRINGDESC */\n      dup1\n        /* \"TaskLibrary.sol\":3605:3664  _decision.type_ == DecisionEntities.DecisionType.STRINGDESC */\n      0x02\n      dup2\n      gt\n      iszero\n      tag_40\n      jumpi\n      mstore(0x00, 0x4e487b7100000000000000000000000000000000000000000000000000000000)\n      mstore(0x04, 0x21)\n      revert(0x00, 0x24)\n    tag_40:\n        /* \"TaskLibrary.sol\":3605:3614  _decision */\n      dup4\n        /* \"TaskLibrary.sol\":3605:3620  _decision.type_ */\n      0x40\n      add\n      mload\n        /* \"TaskLibrary.sol\":3605:3664  _decision.type_ == DecisionEntities.DecisionType.STRINGDESC */\n      0x02\n      dup2\n      gt\n      iszero\n      tag_41\n      jumpi\n      mstore(0x00, 0x4e487b7100000000000000000000000000000000000000000000000000000000)\n      mstore(0x04, 0x21)\n      revert(0x00, 0x24)\n    tag_41:\n      eq\n        /* \"TaskLibrary.sol\":3602:4188  if(_decision.type_ == DecisionEntities.DecisionType.STRINGDESC){... */\n      iszero\n      tag_42\n      jumpi\n        /* \"TaskLibrary.sol\":3679:3715  string memory valueOfProcessVariable */\n      0x00\n        /* \"TaskLibrary.sol\":3718:3724  _state */\n      dup3\n        /* \"TaskLibrary.sol\":3718:3748  _state.string_processVariables */\n      0x02\n      add\n        /* \"TaskLibrary.sol\":3749:3758  _decision */\n      dup5\n        /* \"TaskLibrary.sol\":3749:3774  _decision.processVariable */\n      0xc0\n      add\n      mload\n        /* \"TaskLibrary.sol\":3718:3775  _state.string_processVariables[_decision.processVariable] */\n      mload(0x40)\n      tag_43\n      swap2\n      swap1\n      tag_44\n      jump\t// in\n    tag_43:\n      swap1\n      dup2\n      mstore\n      0x20\n      add\n      mload(0x40)\n      dup1\n      swap2\n      sub\n      swap1\n      keccak256\n        /* \"TaskLibrary.sol\":3679:3775  string memory valueOfProcessVariable = _state.string_processVariables[_decision.processVariable] */\n      dup1\n      sload\n      tag_45\n      swap1\n      tag_46\n      jump\t// in\n    tag_45:\n      dup1\n      0x1f\n      add\n      0x20\n      dup1\n      swap2\n      div\n      mul\n      0x20\n      add\n      mload(0x40)\n      swap1\n      dup2\n      add\n      0x40\n      mstore\n      dup1\n      swap3\n      swap2\n      swap1\n      dup2\n      dup2\n      mstore\n      0x20\n      add\n      dup3\n      dup1\n      sload\n      tag_47\n      swap1\n      tag_46\n      jump\t// in\n    tag_47:\n      dup1\n      iszero\n      tag_48\n      jumpi\n      dup1\n      0x1f\n      lt\n      tag_49\n      jumpi\n      0x0100\n      dup1\n      dup4\n      sload\n      div\n      mul\n      dup4\n      mstore\n      swap2\n      0x20\n      add\n      swap2\n      jump(tag_48)\n    tag_49:\n      dup3\n      add\n      swap2\n      swap1\n      0x00\n      mstore\n      keccak256(0x00, 0x20)\n      swap1\n    tag_50:\n      dup2\n      sload\n      dup2\n      mstore\n      swap1\n      0x01\n      add\n      swap1\n      0x20\n      add\n      dup1\n      dup4\n      gt\n      tag_50\n      jumpi\n      dup3\n      swap1\n      sub\n      0x1f\n      and\n      dup3\n      add\n      swap2\n    tag_48:\n      pop\n      pop\n      pop\n      pop\n      pop\n      swap1\n      pop\n        /* \"TaskLibrary.sol\":3796:3811  DecisionLibrary */\n      linkerSymbol(\"80c56c7074f1c42024adf49f5dc2b40495aa8bbb68c1dca7ae61973c3346d226\")\n        /* \"TaskLibrary.sol\":3796:3820  DecisionLibrary.evaluate */\n      0xd9d0a612\n        /* \"TaskLibrary.sol\":3821:3843  valueOfProcessVariable */\n      dup3\n        /* \"TaskLibrary.sol\":3845:3854  _decision */\n      dup7\n        /* \"TaskLibrary.sol\":3845:3862  _decision.s_value */\n      0xe0\n      add\n      mload\n        /* \"TaskLibrary.sol\":3864:3873  _decision */\n      dup8\n        /* \"TaskLibrary.sol\":3864:3882  _decision.operator */\n      0xa0\n      add\n      mload\n        /* \"TaskLibrary.sol\":3796:3883  DecisionLibrary.evaluate(valueOfProcessVariable, _decision.s_value, _decision.operator) */\n      mload(0x40)\n      dup5\n      0xffffffff\n      and\n      0xe0\n      shl\n      dup2\n      mstore\n      0x04\n      add\n      tag_51\n      swap4\n      swap3\n      swap2\n      swap1\n      tag_52\n      jump\t// in\n    tag_51:\n      0x20\n      mload(0x40)\n      dup1\n      dup4\n      sub\n      dup2\n      dup7\n      dup1\n      extcodesize\n      iszero\n      dup1\n      iszero\n      tag_53\n      jumpi\n      0x00\n      dup1\n      revert\n    tag_53:\n      pop\n      gas\n      delegatecall\n      iszero\n      dup1\n      iszero\n      tag_55\n      jumpi\n      returndatasize\n      0x00\n      dup1\n      returndatacopy\n      revert(0x00, returndatasize)\n    tag_55:\n      pop\n      pop\n      pop\n      pop\n      mload(0x40)\n      returndatasize\n      not(0x1f)\n      0x1f\n      dup3\n      add\n      and\n      dup3\n      add\n      dup1\n      0x40\n      mstore\n      pop\n      dup2\n      add\n      swap1\n      tag_56\n      swap2\n      swap1\n      tag_57\n      jump\t// in\n    tag_56:\n        /* \"TaskLibrary.sol\":3789:3883  return DecisionLibrary.evaluate(valueOfProcessVariable, _decision.s_value, _decision.operator) */\n      swap2\n      pop\n      pop\n      jump(tag_39)\n        /* \"TaskLibrary.sol\":3602:4188  if(_decision.type_ == DecisionEntities.DecisionType.STRINGDESC){... */\n    tag_42:\n        /* \"TaskLibrary.sol\":3930:3967  DecisionEntities.DecisionType.INTDESC */\n      0x01\n        /* \"TaskLibrary.sol\":3911:3967  _decision.type_ == DecisionEntities.DecisionType.INTDESC */\n      0x02\n      dup2\n      gt\n      iszero\n      tag_59\n      jumpi\n      mstore(0x00, 0x4e487b7100000000000000000000000000000000000000000000000000000000)\n      mstore(0x04, 0x21)\n      revert(0x00, 0x24)\n    tag_59:\n        /* \"TaskLibrary.sol\":3911:3920  _decision */\n      dup4\n        /* \"TaskLibrary.sol\":3911:3926  _decision.type_ */\n      0x40\n      add\n      mload\n        /* \"TaskLibrary.sol\":3911:3967  _decision.type_ == DecisionEntities.DecisionType.INTDESC */\n      0x02\n      dup2\n      gt\n      iszero\n      tag_60\n      jumpi\n      mstore(0x00, 0x4e487b7100000000000000000000000000000000000000000000000000000000)\n      mstore(0x04, 0x21)\n      revert(0x00, 0x24)\n    tag_60:\n      eq\n        /* \"TaskLibrary.sol\":3908:4188  if(_decision.type_ == DecisionEntities.DecisionType.INTDESC){... */\n      iszero\n      tag_61\n      jumpi\n        /* \"TaskLibrary.sol\":3982:4008  int valueOfProcessVariable */\n      0x00\n        /* \"TaskLibrary.sol\":4011:4017  _state */\n      dup3\n        /* \"TaskLibrary.sol\":4011:4042  _state.integer_processVariables */\n      0x01\n      add\n        /* \"TaskLibrary.sol\":4043:4052  _decision */\n      dup5\n        /* \"TaskLibrary.sol\":4043:4068  _decision.processVariable */\n      0xc0\n      add\n      mload\n        /* \"TaskLibrary.sol\":4011:4069  _state.integer_processVariables[_decision.processVariable] */\n      mload(0x40)\n      tag_62\n      swap2\n      swap1\n      tag_44\n      jump\t// in\n    tag_62:\n      swap1\n      dup2\n      mstore\n      0x20\n      add\n      mload(0x40)\n      dup1\n      swap2\n      sub\n      swap1\n      keccak256\n      sload\n        /* \"TaskLibrary.sol\":3982:4069  int valueOfProcessVariable = _state.integer_processVariables[_decision.processVariable] */\n      swap1\n      pop\n        /* \"TaskLibrary.sol\":4090:4105  DecisionLibrary */\n      linkerSymbol(\"80c56c7074f1c42024adf49f5dc2b40495aa8bbb68c1dca7ae61973c3346d226\")\n        /* \"TaskLibrary.sol\":4090:4114  DecisionLibrary.evaluate */\n      0x320cb552\n        /* \"TaskLibrary.sol\":4115:4137  valueOfProcessVariable */\n      dup3\n        /* \"TaskLibrary.sol\":4139:4148  _decision */\n      dup7\n        /* \"TaskLibrary.sol\":4139:4156  _decision.i_value */\n      0x0100\n      add\n      mload\n        /* \"TaskLibrary.sol\":4158:4167  _decision */\n      dup8\n        /* \"TaskLibrary.sol\":4158:4176  _decision.operator */\n      0xa0\n      add\n      mload\n        /* \"TaskLibrary.sol\":4090:4177  DecisionLibrary.evaluate(valueOfProcessVariable, _decision.i_value, _decision.operator) */\n      mload(0x40)\n      dup5\n      0xffffffff\n      and\n      0xe0\n      shl\n      dup2\n      mstore\n      0x04\n      add\n      tag_63\n      swap4\n      swap3\n      swap2\n      swap1\n      tag_64\n      jump\t// in\n    tag_63:\n      0x20\n      mload(0x40)\n      dup1\n      dup4\n      sub\n      dup2\n      dup7\n      dup1\n      extcodesize\n      iszero\n      dup1\n      iszero\n      tag_65\n      jumpi\n      0x00\n      dup1\n      revert\n    tag_65:\n      pop\n      gas\n      delegatecall\n      iszero\n      dup1\n      iszero\n      tag_67\n      jumpi\n      returndatasize\n      0x00\n      dup1\n      returndatacopy\n      revert(0x00, returndatasize)\n    tag_67:\n      pop\n      pop\n      pop\n      pop\n      mload(0x40)\n      returndatasize\n      not(0x1f)\n      0x1f\n      dup3\n      add\n      and\n      dup3\n      add\n      dup1\n      0x40\n      mstore\n      pop\n      dup2\n      add\n      swap1\n      tag_68\n      swap2\n      swap1\n      tag_57\n      jump\t// in\n    tag_68:\n        /* \"TaskLibrary.sol\":4083:4177  return DecisionLibrary.evaluate(valueOfProcessVariable, _decision.i_value, _decision.operator) */\n      swap2\n      pop\n      pop\n      jump(tag_39)\n        /* \"TaskLibrary.sol\":3908:4188  if(_decision.type_ == DecisionEntities.DecisionType.INTDESC){... */\n    tag_61:\n        /* \"TaskLibrary.sol\":3450:4194  function evaluateDecision(DecisionEntities.Decision memory _decision, ProcessEntities.State storage _state) public view returns (bool success){... */\n    tag_39:\n      swap3\n      swap2\n      pop\n      pop\n      jump\t// out\n        /* \"TaskLibrary.sol\":1091:3440  function completeTask(TaskEntities.Task memory _task, ProcessEntities.State storage _state) public view returns (bool success, uint endBoss) {... */\n    tag_27:\n        /* \"TaskLibrary.sol\":1204:1216  bool success */\n      0x00\n        /* \"TaskLibrary.sol\":1218:1230  uint endBoss */\n      dup1\n        /* \"TaskLibrary.sol\":1252:1253  0 */\n      0x00\n        /* \"TaskLibrary.sol\":1242:1253  endBoss = 0 */\n      swap1\n      pop\n        /* \"TaskLibrary.sol\":1310:1326  address resource */\n      0x00\n        /* \"TaskLibrary.sol\":1329:1334  _task */\n      dup5\n        /* \"TaskLibrary.sol\":1329:1347  _task.taskresource */\n      0x20\n      add\n      mload\n        /* \"TaskLibrary.sol\":1310:1347  address resource = _task.taskresource */\n      swap1\n      pop\n        /* \"TaskLibrary.sol\":1385:1386  0 */\n      0x00\n        /* \"TaskLibrary.sol\":1365:1387  resource == address(0) */\n      0xffffffffffffffffffffffffffffffffffffffff\n      and\n        /* \"TaskLibrary.sol\":1365:1373  resource */\n      dup2\n        /* \"TaskLibrary.sol\":1365:1387  resource == address(0) */\n      0xffffffffffffffffffffffffffffffffffffffff\n      and\n      eq\n        /* \"TaskLibrary.sol\":1365:1413  resource == address(0) || resource == msg.sender */\n      dup1\n      tag_70\n      jumpi\n      pop\n        /* \"TaskLibrary.sol\":1403:1413  msg.sender */\n      caller\n        /* \"TaskLibrary.sol\":1391:1413  resource == msg.sender */\n      0xffffffffffffffffffffffffffffffffffffffff\n      and\n        /* \"TaskLibrary.sol\":1391:1399  resource */\n      dup2\n        /* \"TaskLibrary.sol\":1391:1413  resource == msg.sender */\n      0xffffffffffffffffffffffffffffffffffffffff\n      and\n      eq\n        /* \"TaskLibrary.sol\":1365:1413  resource == address(0) || resource == msg.sender */\n    tag_70:\n        /* \"TaskLibrary.sol\":1415:1420  _task */\n      dup6\n        /* \"TaskLibrary.sol\":1415:1429  _task.activity */\n      0x00\n      add\n      mload\n        /* \"TaskLibrary.sol\":1357:1430  require(resource == address(0) || resource == msg.sender, _task.activity) */\n      swap1\n      tag_71\n      jumpi\n      mload(0x40)\n      0x08c379a000000000000000000000000000000000000000000000000000000000\n      dup2\n      mstore\n      0x04\n      add\n      tag_72\n      swap2\n      swap1\n      tag_73\n      jump\t// in\n    tag_72:\n      mload(0x40)\n      dup1\n      swap2\n      sub\n      swap1\n      revert\n    tag_71:\n      pop\n        /* \"TaskLibrary.sol\":1528:1533  _task */\n      dup5\n        /* \"TaskLibrary.sol\":1528:1542  _task.decision */\n      0xc0\n      add\n      mload\n        /* \"TaskLibrary.sol\":1528:1549  _task.decision.exists */\n      0x80\n      add\n      mload\n        /* \"TaskLibrary.sol\":1525:1741  if(_task.decision.exists) {... */\n      iszero\n      tag_74\n      jumpi\n        /* \"TaskLibrary.sol\":1575:1580  _task */\n      dup5\n        /* \"TaskLibrary.sol\":1575:1589  _task.decision */\n      0xc0\n      add\n      mload\n        /* \"TaskLibrary.sol\":1575:1597  _task.decision.endBoss */\n      0x00\n      add\n      mload\n        /* \"TaskLibrary.sol\":1565:1597  endBoss = _task.decision.endBoss */\n      swap2\n      pop\n        /* \"TaskLibrary.sol\":1611:1622  bool result */\n      0x00\n        /* \"TaskLibrary.sol\":1625:1665  evaluateDecision(_task.decision, _state) */\n      tag_75\n        /* \"TaskLibrary.sol\":1642:1647  _task */\n      dup7\n        /* \"TaskLibrary.sol\":1642:1656  _task.decision */\n      0xc0\n      add\n      mload\n        /* \"TaskLibrary.sol\":1658:1664  _state */\n      dup7\n        /* \"TaskLibrary.sol\":1625:1641  evaluateDecision */\n      tag_21\n        /* \"TaskLibrary.sol\":1625:1665  evaluateDecision(_task.decision, _state) */\n      jump\t// in\n    tag_75:\n        /* \"TaskLibrary.sol\":1611:1665  bool result = evaluateDecision(_task.decision, _state) */\n      swap1\n      pop\n        /* \"TaskLibrary.sol\":1687:1693  result */\n      dup1\n        /* \"TaskLibrary.sol\":1679:1730  require(result, 'Process Variable is not correct.') */\n      tag_76\n      jumpi\n      mload(0x40)\n      0x08c379a000000000000000000000000000000000000000000000000000000000\n      dup2\n      mstore\n      0x04\n      add\n      tag_77\n      swap1\n      tag_78\n      jump\t// in\n    tag_77:\n      mload(0x40)\n      dup1\n      swap2\n      sub\n      swap1\n      revert\n    tag_76:\n        /* \"TaskLibrary.sol\":1525:1741  if(_task.decision.exists) {... */\n      pop\n    tag_74:\n        /* \"TaskLibrary.sol\":1800:1830  uint[] memory requiredTasksIds */\n      0x00\n        /* \"TaskLibrary.sol\":1833:1838  _task */\n      dup6\n        /* \"TaskLibrary.sol\":1833:1851  _task.requirements */\n      0x80\n      add\n      mload\n        /* \"TaskLibrary.sol\":1800:1851  uint[] memory requiredTasksIds = _task.requirements */\n      swap1\n      pop\n        /* \"TaskLibrary.sol\":1892:1893  0 */\n      0x00\n        /* \"TaskLibrary.sol\":1865:1881  requiredTasksIds */\n      dup2\n        /* \"TaskLibrary.sol\":1865:1888  requiredTasksIds.length */\n      mload\n        /* \"TaskLibrary.sol\":1865:1893  requiredTasksIds.length == 0 */\n      eq\n        /* \"TaskLibrary.sol\":1861:1942  if (requiredTasksIds.length == 0) {... */\n      iszero\n      tag_79\n      jumpi\n        /* \"TaskLibrary.sol\":1917:1921  true */\n      0x01\n        /* \"TaskLibrary.sol\":1909:1931  return (true, endBoss) */\n      swap4\n      pop\n      pop\n      pop\n      jump(tag_69)\n        /* \"TaskLibrary.sol\":1861:1942  if (requiredTasksIds.length == 0) {... */\n    tag_79:\n        /* \"TaskLibrary.sol\":1952:1988  DecisionEntities.GatewayType gateway */\n      0x00\n        /* \"TaskLibrary.sol\":1991:1996  _task */\n      dup7\n        /* \"TaskLibrary.sol\":1991:2021  _task.preceedingMergingGateway */\n      0x60\n      add\n      mload\n        /* \"TaskLibrary.sol\":1952:2021  DecisionEntities.GatewayType gateway = _task.preceedingMergingGateway */\n      swap1\n      pop\n        /* \"TaskLibrary.sol\":2059:2092  DecisionEntities.GatewayType.NONE */\n      0x00\n        /* \"TaskLibrary.sol\":2048:2092  gateway == DecisionEntities.GatewayType.NONE */\n      0x03\n      dup2\n      gt\n      iszero\n      tag_80\n      jumpi\n      mstore(0x00, 0x4e487b7100000000000000000000000000000000000000000000000000000000)\n      mstore(0x04, 0x21)\n      revert(0x00, 0x24)\n    tag_80:\n        /* \"TaskLibrary.sol\":2048:2055  gateway */\n      dup2\n        /* \"TaskLibrary.sol\":2048:2092  gateway == DecisionEntities.GatewayType.NONE */\n      0x03\n      dup2\n      gt\n      iszero\n      tag_81\n      jumpi\n      mstore(0x00, 0x4e487b7100000000000000000000000000000000000000000000000000000000)\n      mstore(0x04, 0x21)\n      revert(0x00, 0x24)\n    tag_81:\n      eq\n        /* \"TaskLibrary.sol\":2044:2180  if (gateway == DecisionEntities.GatewayType.NONE) {... */\n      iszero\n      tag_82\n      jumpi\n        /* \"TaskLibrary.sol\":2116:2122  _state */\n      dup6\n        /* \"TaskLibrary.sol\":2116:2128  _state.tasks */\n      0x00\n      add\n        /* \"TaskLibrary.sol\":2116:2149  _state.tasks[requiredTasksIds[0]] */\n      0x00\n        /* \"TaskLibrary.sol\":2129:2145  requiredTasksIds */\n      dup4\n        /* \"TaskLibrary.sol\":2146:2147  0 */\n      0x00\n        /* \"TaskLibrary.sol\":2129:2148  requiredTasksIds[0] */\n      dup2\n      mload\n      dup2\n      lt\n      tag_83\n      jumpi\n      mstore(0x00, 0x4e487b7100000000000000000000000000000000000000000000000000000000)\n      mstore(0x04, 0x32)\n      revert(0x00, 0x24)\n    tag_83:\n      0x20\n      mul\n      0x20\n      add\n      add\n      mload\n        /* \"TaskLibrary.sol\":2116:2149  _state.tasks[requiredTasksIds[0]] */\n      dup2\n      mstore\n      0x20\n      add\n      swap1\n      dup2\n      mstore\n      0x20\n      add\n      0x00\n      keccak256\n        /* \"TaskLibrary.sol\":2116:2159  _state.tasks[requiredTasksIds[0]].completed */\n      0x01\n      add\n      0x14\n      swap1\n      sload\n      swap1\n      0x0100\n      exp\n      swap1\n      div\n      0xff\n      and\n        /* \"TaskLibrary.sol\":2108:2169  return (_state.tasks[requiredTasksIds[0]].completed, endBoss) */\n      swap5\n      pop\n      pop\n      pop\n      pop\n      jump(tag_69)\n        /* \"TaskLibrary.sol\":2044:2180  if (gateway == DecisionEntities.GatewayType.NONE) {... */\n    tag_82:\n        /* \"TaskLibrary.sol\":2189:2215  uint fulfilledRequirements */\n      0x00\n        /* \"TaskLibrary.sol\":2282:2288  uint i */\n      dup1\n        /* \"TaskLibrary.sol\":2277:2457  for (uint i = 0; i < requiredTasksIds.length; i++) {... */\n    tag_84:\n        /* \"TaskLibrary.sol\":2298:2314  requiredTasksIds */\n      dup4\n        /* \"TaskLibrary.sol\":2298:2321  requiredTasksIds.length */\n      mload\n        /* \"TaskLibrary.sol\":2294:2295  i */\n      dup2\n        /* \"TaskLibrary.sol\":2294:2321  i < requiredTasksIds.length */\n      lt\n        /* \"TaskLibrary.sol\":2277:2457  for (uint i = 0; i < requiredTasksIds.length; i++) {... */\n      iszero\n      tag_85\n      jumpi\n        /* \"TaskLibrary.sol\":2346:2352  _state */\n      dup8\n        /* \"TaskLibrary.sol\":2346:2358  _state.tasks */\n      0x00\n      add\n        /* \"TaskLibrary.sol\":2346:2379  _state.tasks[requiredTasksIds[0]] */\n      0x00\n        /* \"TaskLibrary.sol\":2359:2375  requiredTasksIds */\n      dup6\n        /* \"TaskLibrary.sol\":2376:2377  0 */\n      0x00\n        /* \"TaskLibrary.sol\":2359:2378  requiredTasksIds[0] */\n      dup2\n      mload\n      dup2\n      lt\n      tag_87\n      jumpi\n      mstore(0x00, 0x4e487b7100000000000000000000000000000000000000000000000000000000)\n      mstore(0x04, 0x32)\n      revert(0x00, 0x24)\n    tag_87:\n      0x20\n      mul\n      0x20\n      add\n      add\n      mload\n        /* \"TaskLibrary.sol\":2346:2379  _state.tasks[requiredTasksIds[0]] */\n      dup2\n      mstore\n      0x20\n      add\n      swap1\n      dup2\n      mstore\n      0x20\n      add\n      0x00\n      keccak256\n        /* \"TaskLibrary.sol\":2346:2389  _state.tasks[requiredTasksIds[0]].completed */\n      0x01\n      add\n      0x14\n      swap1\n      sload\n      swap1\n      0x0100\n      exp\n      swap1\n      div\n      0xff\n      and\n        /* \"TaskLibrary.sol\":2342:2447  if (_state.tasks[requiredTasksIds[0]].completed) {... */\n      iszero\n      tag_88\n      jumpi\n        /* \"TaskLibrary.sol\":2409:2432  fulfilledRequirements++ */\n      dup2\n      dup1\n      tag_89\n      swap1\n      tag_90\n      jump\t// in\n    tag_89:\n      swap3\n      pop\n      pop\n        /* \"TaskLibrary.sol\":2342:2447  if (_state.tasks[requiredTasksIds[0]].completed) {... */\n    tag_88:\n        /* \"TaskLibrary.sol\":2323:2326  i++ */\n      dup1\n      dup1\n      tag_91\n      swap1\n      tag_90\n      jump\t// in\n    tag_91:\n      swap2\n      pop\n      pop\n        /* \"TaskLibrary.sol\":2277:2457  for (uint i = 0; i < requiredTasksIds.length; i++) {... */\n      jump(tag_84)\n    tag_85:\n      pop\n        /* \"TaskLibrary.sol\":2481:2513  DecisionEntities.GatewayType.AND */\n      0x01\n        /* \"TaskLibrary.sol\":2470:2513  gateway == DecisionEntities.GatewayType.AND */\n      0x03\n      dup2\n      gt\n      iszero\n      tag_92\n      jumpi\n      mstore(0x00, 0x4e487b7100000000000000000000000000000000000000000000000000000000)\n      mstore(0x04, 0x21)\n      revert(0x00, 0x24)\n    tag_92:\n        /* \"TaskLibrary.sol\":2470:2477  gateway */\n      dup3\n        /* \"TaskLibrary.sol\":2470:2513  gateway == DecisionEntities.GatewayType.AND */\n      0x03\n      dup2\n      gt\n      iszero\n      tag_93\n      jumpi\n      mstore(0x00, 0x4e487b7100000000000000000000000000000000000000000000000000000000)\n      mstore(0x04, 0x21)\n      revert(0x00, 0x24)\n    tag_93:\n      eq\n        /* \"TaskLibrary.sol\":2467:2669  if(gateway == DecisionEntities.GatewayType.AND) {... */\n      iszero\n      tag_94\n      jumpi\n        /* \"TaskLibrary.sol\":2604:2620  requiredTasksIds */\n      dup3\n        /* \"TaskLibrary.sol\":2604:2627  requiredTasksIds.length */\n      mload\n        /* \"TaskLibrary.sol\":2579:2600  fulfilledRequirements */\n      dup2\n        /* \"TaskLibrary.sol\":2579:2627  fulfilledRequirements == requiredTasksIds.length */\n      eq\n        /* \"TaskLibrary.sol\":2571:2637  return (fulfilledRequirements == requiredTasksIds.length, endBoss) */\n      swap6\n      pop\n      pop\n      pop\n      pop\n      pop\n      jump(tag_69)\n        /* \"TaskLibrary.sol\":2467:2669  if(gateway == DecisionEntities.GatewayType.AND) {... */\n    tag_94:\n        /* \"TaskLibrary.sol\":2714:2745  DecisionEntities.GatewayType.OR */\n      0x02\n        /* \"TaskLibrary.sol\":2703:2745  gateway == DecisionEntities.GatewayType.OR */\n      0x03\n      dup2\n      gt\n      iszero\n      tag_95\n      jumpi\n      mstore(0x00, 0x4e487b7100000000000000000000000000000000000000000000000000000000)\n      mstore(0x04, 0x21)\n      revert(0x00, 0x24)\n    tag_95:\n        /* \"TaskLibrary.sol\":2703:2710  gateway */\n      dup3\n        /* \"TaskLibrary.sol\":2703:2745  gateway == DecisionEntities.GatewayType.OR */\n      0x03\n      dup2\n      gt\n      iszero\n      tag_96\n      jumpi\n      mstore(0x00, 0x4e487b7100000000000000000000000000000000000000000000000000000000)\n      mstore(0x04, 0x21)\n      revert(0x00, 0x24)\n    tag_96:\n      eq\n        /* \"TaskLibrary.sol\":2699:2815  if (gateway == DecisionEntities.GatewayType.OR) {... */\n      iszero\n      tag_97\n      jumpi\n        /* \"TaskLibrary.sol\":2793:2794  0 */\n      0x00\n        /* \"TaskLibrary.sol\":2769:2790  fulfilledRequirements */\n      dup2\n        /* \"TaskLibrary.sol\":2769:2794  fulfilledRequirements > 0 */\n      gt\n        /* \"TaskLibrary.sol\":2761:2804  return (fulfilledRequirements > 0, endBoss) */\n      swap6\n      pop\n      pop\n      pop\n      pop\n      pop\n      jump(tag_69)\n        /* \"TaskLibrary.sol\":2699:2815  if (gateway == DecisionEntities.GatewayType.OR) {... */\n    tag_97:\n        /* \"TaskLibrary.sol\":2847:2879  DecisionEntities.GatewayType.XOR */\n      0x03\n        /* \"TaskLibrary.sol\":2836:2879  gateway == DecisionEntities.GatewayType.XOR */\n      dup1\n      dup2\n      gt\n      iszero\n      tag_98\n      jumpi\n      mstore(0x00, 0x4e487b7100000000000000000000000000000000000000000000000000000000)\n      mstore(0x04, 0x21)\n      revert(0x00, 0x24)\n    tag_98:\n        /* \"TaskLibrary.sol\":2836:2843  gateway */\n      dup3\n        /* \"TaskLibrary.sol\":2836:2879  gateway == DecisionEntities.GatewayType.XOR */\n      0x03\n      dup2\n      gt\n      iszero\n      tag_99\n      jumpi\n      mstore(0x00, 0x4e487b7100000000000000000000000000000000000000000000000000000000)\n      mstore(0x04, 0x21)\n      revert(0x00, 0x24)\n    tag_99:\n      eq\n        /* \"TaskLibrary.sol\":2833:3390  if(gateway == DecisionEntities.GatewayType.XOR) {... */\n      iszero\n      tag_100\n      jumpi\n        /* \"TaskLibrary.sol\":2900:2906  uint i */\n      0x00\n        /* \"TaskLibrary.sol\":2895:3380  for (uint i = 0; i < requiredTasksIds.length; i++) {... */\n    tag_101:\n        /* \"TaskLibrary.sol\":2916:2932  requiredTasksIds */\n      dup4\n        /* \"TaskLibrary.sol\":2916:2939  requiredTasksIds.length */\n      mload\n        /* \"TaskLibrary.sol\":2912:2913  i */\n      dup2\n        /* \"TaskLibrary.sol\":2912:2939  i < requiredTasksIds.length */\n      lt\n        /* \"TaskLibrary.sol\":2895:3380  for (uint i = 0; i < requiredTasksIds.length; i++) {... */\n      iszero\n      tag_102\n      jumpi\n        /* \"TaskLibrary.sol\":3235:3241  _state */\n      dup8\n        /* \"TaskLibrary.sol\":3235:3249  _state.enabled */\n      0x03\n      add\n        /* \"TaskLibrary.sol\":3235:3270  _state.enabled[requiredTasksIds[i]] */\n      0x00\n        /* \"TaskLibrary.sol\":3250:3266  requiredTasksIds */\n      dup6\n        /* \"TaskLibrary.sol\":3267:3268  i */\n      dup4\n        /* \"TaskLibrary.sol\":3250:3269  requiredTasksIds[i] */\n      dup2\n      mload\n      dup2\n      lt\n      tag_104\n      jumpi\n      mstore(0x00, 0x4e487b7100000000000000000000000000000000000000000000000000000000)\n      mstore(0x04, 0x32)\n      revert(0x00, 0x24)\n    tag_104:\n      0x20\n      mul\n      0x20\n      add\n      add\n      mload\n        /* \"TaskLibrary.sol\":3235:3270  _state.enabled[requiredTasksIds[i]] */\n      dup2\n      mstore\n      0x20\n      add\n      swap1\n      dup2\n      mstore\n      0x20\n      add\n      0x00\n      keccak256\n      0x00\n      swap1\n      sload\n      swap1\n      0x0100\n      exp\n      swap1\n      div\n      0xff\n      and\n        /* \"TaskLibrary.sol\":3231:3366  if (_state.enabled[requiredTasksIds[i]]) {... */\n      iszero\n      tag_105\n      jumpi\n        /* \"TaskLibrary.sol\":3304:3310  _state */\n      dup8\n        /* \"TaskLibrary.sol\":3304:3316  _state.tasks */\n      0x00\n      add\n        /* \"TaskLibrary.sol\":3304:3337  _state.tasks[requiredTasksIds[0]] */\n      0x00\n        /* \"TaskLibrary.sol\":3317:3333  requiredTasksIds */\n      dup6\n        /* \"TaskLibrary.sol\":3334:3335  0 */\n      0x00\n        /* \"TaskLibrary.sol\":3317:3336  requiredTasksIds[0] */\n      dup2\n      mload\n      dup2\n      lt\n      tag_106\n      jumpi\n      mstore(0x00, 0x4e487b7100000000000000000000000000000000000000000000000000000000)\n      mstore(0x04, 0x32)\n      revert(0x00, 0x24)\n    tag_106:\n      0x20\n      mul\n      0x20\n      add\n      add\n      mload\n        /* \"TaskLibrary.sol\":3304:3337  _state.tasks[requiredTasksIds[0]] */\n      dup2\n      mstore\n      0x20\n      add\n      swap1\n      dup2\n      mstore\n      0x20\n      add\n      0x00\n      keccak256\n        /* \"TaskLibrary.sol\":3304:3347  _state.tasks[requiredTasksIds[0]].completed */\n      0x01\n      add\n      0x14\n      swap1\n      sload\n      swap1\n      0x0100\n      exp\n      swap1\n      div\n      0xff\n      and\n        /* \"TaskLibrary.sol\":3294:3347  success = _state.tasks[requiredTasksIds[0]].completed */\n      swap7\n      pop\n        /* \"TaskLibrary.sol\":3231:3366  if (_state.enabled[requiredTasksIds[i]]) {... */\n    tag_105:\n        /* \"TaskLibrary.sol\":2941:2944  i++ */\n      dup1\n      dup1\n      tag_107\n      swap1\n      tag_90\n      jump\t// in\n    tag_107:\n      swap2\n      pop\n      pop\n        /* \"TaskLibrary.sol\":2895:3380  for (uint i = 0; i < requiredTasksIds.length; i++) {... */\n      jump(tag_101)\n    tag_102:\n      pop\n        /* \"TaskLibrary.sol\":2833:3390  if(gateway == DecisionEntities.GatewayType.XOR) {... */\n    tag_100:\n        /* \"TaskLibrary.sol\":3408:3433  return (success, endBoss) */\n      pop\n      pop\n      pop\n      pop\n        /* \"TaskLibrary.sol\":1091:3440  function completeTask(TaskEntities.Task memory _task, ProcessEntities.State storage _state) public view returns (bool success, uint endBoss) {... */\n    tag_69:\n      swap3\n      pop\n      swap3\n      swap1\n      pop\n      jump\t// out\n    tag_31:\n      mload(0x40)\n      dup1\n      0xe0\n      add\n      0x40\n      mstore\n      dup1\n      0x60\n      dup2\n      mstore\n      0x20\n      add\n      and(0xffffffffffffffffffffffffffffffffffffffff, 0x00)\n      dup2\n      mstore\n      0x20\n      add\n      iszero(iszero(0x00))\n      dup2\n      mstore\n      0x20\n      add\n      0x00\n      0x03\n      dup2\n      gt\n      iszero\n      tag_108\n      jumpi\n      mstore(0x00, 0x4e487b7100000000000000000000000000000000000000000000000000000000)\n      mstore(0x04, 0x21)\n      revert(0x00, 0x24)\n    tag_108:\n      dup2\n      mstore\n      0x20\n      add\n      0x60\n      dup2\n      mstore\n      0x20\n      add\n      0x60\n      dup2\n      mstore\n      0x20\n      add\n      tag_109\n      tag_110\n      jump\t// in\n    tag_109:\n      dup2\n      mstore\n      pop\n      swap1\n      jump\t// out\n    tag_36:\n      mload(0x40)\n      dup1\n      0x40\n      add\n      0x40\n      mstore\n      dup1\n      0x00\n      dup2\n      mstore\n      0x20\n      add\n      0x60\n      dup2\n      mstore\n      pop\n      swap1\n      jump\t// out\n    tag_110:\n      mload(0x40)\n      dup1\n      0x0120\n      add\n      0x40\n      mstore\n      dup1\n      0x00\n      dup2\n      mstore\n      0x20\n      add\n      0x00\n      0x03\n      dup2\n      gt\n      iszero\n      tag_111\n      jumpi\n      mstore(0x00, 0x4e487b7100000000000000000000000000000000000000000000000000000000)\n      mstore(0x04, 0x21)\n      revert(0x00, 0x24)\n    tag_111:\n      dup2\n      mstore\n      0x20\n      add\n      0x00\n      0x02\n      dup2\n      gt\n      iszero\n      tag_112\n      jumpi\n      mstore(0x00, 0x4e487b7100000000000000000000000000000000000000000000000000000000)\n      mstore(0x04, 0x21)\n      revert(0x00, 0x24)\n    tag_112:\n      dup2\n      mstore\n      0x20\n      add\n      iszero(iszero(0x00))\n      dup2\n      mstore\n      0x20\n      add\n      iszero(iszero(0x00))\n      dup2\n      mstore\n      0x20\n      add\n      0x00\n      0x06\n      dup2\n      gt\n      iszero\n      tag_113\n      jumpi\n      mstore(0x00, 0x4e487b7100000000000000000000000000000000000000000000000000000000)\n      mstore(0x04, 0x21)\n      revert(0x00, 0x24)\n    tag_113:\n      dup2\n      mstore\n      0x20\n      add\n      0x60\n      dup2\n      mstore\n      0x20\n      add\n      0x60\n      dup2\n      mstore\n      0x20\n      add\n      0x60\n      dup2\n      mstore\n      pop\n      swap1\n      jump\t// out\n        /* \"#utility.yul\":23:642   */\n    tag_115:\n      0x00\n        /* \"#utility.yul\":143:222   */\n      tag_117\n        /* \"#utility.yul\":158:221   */\n      tag_118\n        /* \"#utility.yul\":214:220   */\n      dup5\n        /* \"#utility.yul\":158:221   */\n      tag_119\n      jump\t// in\n    tag_118:\n        /* \"#utility.yul\":143:222   */\n      tag_120\n      jump\t// in\n    tag_117:\n        /* \"#utility.yul\":134:222   */\n      swap1\n      pop\n        /* \"#utility.yul\":242:247   */\n      dup1\n        /* \"#utility.yul\":270:276   */\n      dup4\n        /* \"#utility.yul\":263:268   */\n      dup3\n        /* \"#utility.yul\":256:277   */\n      mstore\n        /* \"#utility.yul\":296:300   */\n      0x20\n        /* \"#utility.yul\":289:294   */\n      dup3\n        /* \"#utility.yul\":285:301   */\n      add\n        /* \"#utility.yul\":278:301   */\n      swap1\n      pop\n        /* \"#utility.yul\":321:327   */\n      dup3\n        /* \"#utility.yul\":371:374   */\n      dup6\n        /* \"#utility.yul\":363:367   */\n      0x20\n        /* \"#utility.yul\":355:361   */\n      dup7\n        /* \"#utility.yul\":351:368   */\n      mul\n        /* \"#utility.yul\":346:349   */\n      dup3\n        /* \"#utility.yul\":342:369   */\n      add\n        /* \"#utility.yul\":339:375   */\n      gt\n        /* \"#utility.yul\":336:338   */\n      iszero\n      tag_121\n      jumpi\n        /* \"#utility.yul\":388:389   */\n      0x00\n        /* \"#utility.yul\":385:386   */\n      dup1\n        /* \"#utility.yul\":378:390   */\n      revert\n        /* \"#utility.yul\":336:338   */\n    tag_121:\n        /* \"#utility.yul\":416:417   */\n      0x00\n        /* \"#utility.yul\":401:636   */\n    tag_122:\n        /* \"#utility.yul\":426:432   */\n      dup6\n        /* \"#utility.yul\":423:424   */\n      dup2\n        /* \"#utility.yul\":420:433   */\n      lt\n        /* \"#utility.yul\":401:636   */\n      iszero\n      tag_124\n      jumpi\n        /* \"#utility.yul\":493:496   */\n      dup2\n        /* \"#utility.yul\":521:557   */\n      tag_125\n        /* \"#utility.yul\":553:556   */\n      dup9\n        /* \"#utility.yul\":541:551   */\n      dup3\n        /* \"#utility.yul\":521:557   */\n      tag_126\n      jump\t// in\n    tag_125:\n        /* \"#utility.yul\":516:519   */\n      dup5\n        /* \"#utility.yul\":509:558   */\n      mstore\n        /* \"#utility.yul\":587:591   */\n      0x20\n        /* \"#utility.yul\":582:585   */\n      dup5\n        /* \"#utility.yul\":578:592   */\n      add\n        /* \"#utility.yul\":571:592   */\n      swap4\n      pop\n        /* \"#utility.yul\":621:625   */\n      0x20\n        /* \"#utility.yul\":616:619   */\n      dup4\n        /* \"#utility.yul\":612:626   */\n      add\n        /* \"#utility.yul\":605:626   */\n      swap3\n      pop\n        /* \"#utility.yul\":461:636   */\n      pop\n        /* \"#utility.yul\":448:449   */\n      0x01\n        /* \"#utility.yul\":445:446   */\n      dup2\n        /* \"#utility.yul\":441:450   */\n      add\n        /* \"#utility.yul\":436:450   */\n      swap1\n      pop\n        /* \"#utility.yul\":401:636   */\n      jump(tag_122)\n    tag_124:\n        /* \"#utility.yul\":405:419   */\n      pop\n        /* \"#utility.yul\":124:642   */\n      pop\n      pop\n      swap4\n      swap3\n      pop\n      pop\n      pop\n      jump\t// out\n        /* \"#utility.yul\":665:1287   */\n    tag_127:\n      0x00\n        /* \"#utility.yul\":786:866   */\n      tag_129\n        /* \"#utility.yul\":801:865   */\n      tag_130\n        /* \"#utility.yul\":858:864   */\n      dup5\n        /* \"#utility.yul\":801:865   */\n      tag_131\n      jump\t// in\n    tag_130:\n        /* \"#utility.yul\":786:866   */\n      tag_120\n      jump\t// in\n    tag_129:\n        /* \"#utility.yul\":777:866   */\n      swap1\n      pop\n        /* \"#utility.yul\":886:891   */\n      dup1\n        /* \"#utility.yul\":914:920   */\n      dup4\n        /* \"#utility.yul\":907:912   */\n      dup3\n        /* \"#utility.yul\":900:921   */\n      mstore\n        /* \"#utility.yul\":940:944   */\n      0x20\n        /* \"#utility.yul\":933:938   */\n      dup3\n        /* \"#utility.yul\":929:945   */\n      add\n        /* \"#utility.yul\":922:945   */\n      swap1\n      pop\n        /* \"#utility.yul\":965:971   */\n      dup3\n        /* \"#utility.yul\":1015:1018   */\n      dup6\n        /* \"#utility.yul\":1007:1011   */\n      0x20\n        /* \"#utility.yul\":999:1005   */\n      dup7\n        /* \"#utility.yul\":995:1012   */\n      mul\n        /* \"#utility.yul\":990:993   */\n      dup3\n        /* \"#utility.yul\":986:1013   */\n      add\n        /* \"#utility.yul\":983:1019   */\n      gt\n        /* \"#utility.yul\":980:982   */\n      iszero\n      tag_132\n      jumpi\n        /* \"#utility.yul\":1032:1033   */\n      0x00\n        /* \"#utility.yul\":1029:1030   */\n      dup1\n        /* \"#utility.yul\":1022:1034   */\n      revert\n        /* \"#utility.yul\":980:982   */\n    tag_132:\n        /* \"#utility.yul\":1060:1061   */\n      0x00\n        /* \"#utility.yul\":1045:1281   */\n    tag_133:\n        /* \"#utility.yul\":1070:1076   */\n      dup6\n        /* \"#utility.yul\":1067:1068   */\n      dup2\n        /* \"#utility.yul\":1064:1077   */\n      lt\n        /* \"#utility.yul\":1045:1281   */\n      iszero\n      tag_135\n      jumpi\n        /* \"#utility.yul\":1137:1140   */\n      dup2\n        /* \"#utility.yul\":1165:1202   */\n      tag_136\n        /* \"#utility.yul\":1198:1201   */\n      dup9\n        /* \"#utility.yul\":1186:1196   */\n      dup3\n        /* \"#utility.yul\":1165:1202   */\n      tag_137\n      jump\t// in\n    tag_136:\n        /* \"#utility.yul\":1160:1163   */\n      dup5\n        /* \"#utility.yul\":1153:1203   */\n      mstore\n        /* \"#utility.yul\":1232:1236   */\n      0x20\n        /* \"#utility.yul\":1227:1230   */\n      dup5\n        /* \"#utility.yul\":1223:1237   */\n      add\n        /* \"#utility.yul\":1216:1237   */\n      swap4\n      pop\n        /* \"#utility.yul\":1266:1270   */\n      0x20\n        /* \"#utility.yul\":1261:1264   */\n      dup4\n        /* \"#utility.yul\":1257:1271   */\n      add\n        /* \"#utility.yul\":1250:1271   */\n      swap3\n      pop\n        /* \"#utility.yul\":1105:1281   */\n      pop\n        /* \"#utility.yul\":1092:1093   */\n      0x01\n        /* \"#utility.yul\":1089:1090   */\n      dup2\n        /* \"#utility.yul\":1085:1094   */\n      add\n        /* \"#utility.yul\":1080:1094   */\n      swap1\n      pop\n        /* \"#utility.yul\":1045:1281   */\n      jump(tag_133)\n    tag_135:\n        /* \"#utility.yul\":1049:1063   */\n      pop\n        /* \"#utility.yul\":767:1287   */\n      pop\n      pop\n      swap4\n      swap3\n      pop\n      pop\n      pop\n      jump\t// out\n        /* \"#utility.yul\":1293:1637   */\n    tag_138:\n      0x00\n        /* \"#utility.yul\":1396:1461   */\n      tag_140\n        /* \"#utility.yul\":1411:1460   */\n      tag_141\n        /* \"#utility.yul\":1453:1459   */\n      dup5\n        /* \"#utility.yul\":1411:1460   */\n      tag_142\n      jump\t// in\n    tag_141:\n        /* \"#utility.yul\":1396:1461   */\n      tag_120\n      jump\t// in\n    tag_140:\n        /* \"#utility.yul\":1387:1461   */\n      swap1\n      pop\n        /* \"#utility.yul\":1484:1490   */\n      dup3\n        /* \"#utility.yul\":1477:1482   */\n      dup2\n        /* \"#utility.yul\":1470:1491   */\n      mstore\n        /* \"#utility.yul\":1522:1526   */\n      0x20\n        /* \"#utility.yul\":1515:1520   */\n      dup2\n        /* \"#utility.yul\":1511:1527   */\n      add\n        /* \"#utility.yul\":1560:1563   */\n      dup5\n        /* \"#utility.yul\":1551:1557   */\n      dup5\n        /* \"#utility.yul\":1546:1549   */\n      dup5\n        /* \"#utility.yul\":1542:1558   */\n      add\n        /* \"#utility.yul\":1539:1564   */\n      gt\n        /* \"#utility.yul\":1536:1538   */\n      iszero\n      tag_143\n      jumpi\n        /* \"#utility.yul\":1577:1578   */\n      0x00\n        /* \"#utility.yul\":1574:1575   */\n      dup1\n        /* \"#utility.yul\":1567:1579   */\n      revert\n        /* \"#utility.yul\":1536:1538   */\n    tag_143:\n        /* \"#utility.yul\":1590:1631   */\n      tag_144\n        /* \"#utility.yul\":1624:1630   */\n      dup5\n        /* \"#utility.yul\":1619:1622   */\n      dup3\n        /* \"#utility.yul\":1614:1617   */\n      dup6\n        /* \"#utility.yul\":1590:1631   */\n      tag_145\n      jump\t// in\n    tag_144:\n        /* \"#utility.yul\":1377:1637   */\n      pop\n      swap4\n      swap3\n      pop\n      pop\n      pop\n      jump\t// out\n        /* \"#utility.yul\":1643:1782   */\n    tag_146:\n      0x00\n        /* \"#utility.yul\":1727:1733   */\n      dup2\n        /* \"#utility.yul\":1714:1734   */\n      calldataload\n        /* \"#utility.yul\":1705:1734   */\n      swap1\n      pop\n        /* \"#utility.yul\":1743:1776   */\n      tag_148\n        /* \"#utility.yul\":1770:1775   */\n      dup2\n        /* \"#utility.yul\":1743:1776   */\n      tag_149\n      jump\t// in\n    tag_148:\n        /* \"#utility.yul\":1695:1782   */\n      swap3\n      swap2\n      pop\n      pop\n      jump\t// out\n        /* \"#utility.yul\":1804:2105   */\n    tag_150:\n      0x00\n        /* \"#utility.yul\":1923:1926   */\n      dup3\n        /* \"#utility.yul\":1916:1920   */\n      0x1f\n        /* \"#utility.yul\":1908:1914   */\n      dup4\n        /* \"#utility.yul\":1904:1921   */\n      add\n        /* \"#utility.yul\":1900:1927   */\n      slt\n        /* \"#utility.yul\":1890:1892   */\n      tag_152\n      jumpi\n        /* \"#utility.yul\":1941:1942   */\n      0x00\n        /* \"#utility.yul\":1938:1939   */\n      dup1\n        /* \"#utility.yul\":1931:1943   */\n      revert\n        /* \"#utility.yul\":1890:1892   */\n    tag_152:\n        /* \"#utility.yul\":1981:1987   */\n      dup2\n        /* \"#utility.yul\":1968:1988   */\n      calldataload\n        /* \"#utility.yul\":2006:2099   */\n      tag_153\n        /* \"#utility.yul\":2095:2098   */\n      dup5\n        /* \"#utility.yul\":2087:2093   */\n      dup3\n        /* \"#utility.yul\":2080:2084   */\n      0x20\n        /* \"#utility.yul\":2072:2078   */\n      dup7\n        /* \"#utility.yul\":2068:2085   */\n      add\n        /* \"#utility.yul\":2006:2099   */\n      tag_115\n      jump\t// in\n    tag_153:\n        /* \"#utility.yul\":1997:2099   */\n      swap2\n      pop\n        /* \"#utility.yul\":1880:2105   */\n      pop\n      swap3\n      swap2\n      pop\n      pop\n      jump\t// out\n        /* \"#utility.yul\":2128:2431   */\n    tag_154:\n      0x00\n        /* \"#utility.yul\":2248:2251   */\n      dup3\n        /* \"#utility.yul\":2241:2245   */\n      0x1f\n        /* \"#utility.yul\":2233:2239   */\n      dup4\n        /* \"#utility.yul\":2229:2246   */\n      add\n        /* \"#utility.yul\":2225:2252   */\n      slt\n        /* \"#utility.yul\":2215:2217   */\n      tag_156\n      jumpi\n        /* \"#utility.yul\":2266:2267   */\n      0x00\n        /* \"#utility.yul\":2263:2264   */\n      dup1\n        /* \"#utility.yul\":2256:2268   */\n      revert\n        /* \"#utility.yul\":2215:2217   */\n    tag_156:\n        /* \"#utility.yul\":2306:2312   */\n      dup2\n        /* \"#utility.yul\":2293:2313   */\n      calldataload\n        /* \"#utility.yul\":2331:2425   */\n      tag_157\n        /* \"#utility.yul\":2421:2424   */\n      dup5\n        /* \"#utility.yul\":2413:2419   */\n      dup3\n        /* \"#utility.yul\":2406:2410   */\n      0x20\n        /* \"#utility.yul\":2398:2404   */\n      dup7\n        /* \"#utility.yul\":2394:2411   */\n      add\n        /* \"#utility.yul\":2331:2425   */\n      tag_127\n      jump\t// in\n    tag_157:\n        /* \"#utility.yul\":2322:2425   */\n      swap2\n      pop\n        /* \"#utility.yul\":2205:2431   */\n      pop\n      swap3\n      swap2\n      pop\n      pop\n      jump\t// out\n        /* \"#utility.yul\":2437:2570   */\n    tag_158:\n      0x00\n        /* \"#utility.yul\":2518:2524   */\n      dup2\n        /* \"#utility.yul\":2505:2525   */\n      calldataload\n        /* \"#utility.yul\":2496:2525   */\n      swap1\n      pop\n        /* \"#utility.yul\":2534:2564   */\n      tag_160\n        /* \"#utility.yul\":2558:2563   */\n      dup2\n        /* \"#utility.yul\":2534:2564   */\n      tag_161\n      jump\t// in\n    tag_160:\n        /* \"#utility.yul\":2486:2570   */\n      swap3\n      swap2\n      pop\n      pop\n      jump\t// out\n        /* \"#utility.yul\":2576:2713   */\n    tag_162:\n      0x00\n        /* \"#utility.yul\":2661:2667   */\n      dup2\n        /* \"#utility.yul\":2655:2668   */\n      mload\n        /* \"#utility.yul\":2646:2668   */\n      swap1\n      pop\n        /* \"#utility.yul\":2677:2707   */\n      tag_164\n        /* \"#utility.yul\":2701:2706   */\n      dup2\n        /* \"#utility.yul\":2677:2707   */\n      tag_161\n      jump\t// in\n    tag_164:\n        /* \"#utility.yul\":2636:2713   */\n      swap3\n      swap2\n      pop\n      pop\n      jump\t// out\n        /* \"#utility.yul\":2719:2890   */\n    tag_165:\n      0x00\n        /* \"#utility.yul\":2819:2825   */\n      dup2\n        /* \"#utility.yul\":2806:2826   */\n      calldataload\n        /* \"#utility.yul\":2797:2826   */\n      swap1\n      pop\n        /* \"#utility.yul\":2835:2884   */\n      tag_167\n        /* \"#utility.yul\":2878:2883   */\n      dup2\n        /* \"#utility.yul\":2835:2884   */\n      tag_168\n      jump\t// in\n    tag_167:\n        /* \"#utility.yul\":2787:2890   */\n      swap3\n      swap2\n      pop\n      pop\n      jump\t// out\n        /* \"#utility.yul\":2896:3065   */\n    tag_169:\n      0x00\n        /* \"#utility.yul\":2995:3001   */\n      dup2\n        /* \"#utility.yul\":2982:3002   */\n      calldataload\n        /* \"#utility.yul\":2973:3002   */\n      swap1\n      pop\n        /* \"#utility.yul\":3011:3059   */\n      tag_171\n        /* \"#utility.yul\":3053:3058   */\n      dup2\n        /* \"#utility.yul\":3011:3059   */\n      tag_172\n      jump\t// in\n    tag_171:\n        /* \"#utility.yul\":2963:3065   */\n      swap3\n      swap2\n      pop\n      pop\n      jump\t// out\n        /* \"#utility.yul\":3071:3234   */\n    tag_173:\n      0x00\n        /* \"#utility.yul\":3167:3173   */\n      dup2\n        /* \"#utility.yul\":3154:3174   */\n      calldataload\n        /* \"#utility.yul\":3145:3174   */\n      swap1\n      pop\n        /* \"#utility.yul\":3183:3228   */\n      tag_175\n        /* \"#utility.yul\":3222:3227   */\n      dup2\n        /* \"#utility.yul\":3183:3228   */\n      tag_176\n      jump\t// in\n    tag_175:\n        /* \"#utility.yul\":3135:3234   */\n      swap3\n      swap2\n      pop\n      pop\n      jump\t// out\n        /* \"#utility.yul\":3240:3377   */\n    tag_126:\n      0x00\n        /* \"#utility.yul\":3323:3329   */\n      dup2\n        /* \"#utility.yul\":3310:3330   */\n      calldataload\n        /* \"#utility.yul\":3301:3330   */\n      swap1\n      pop\n        /* \"#utility.yul\":3339:3371   */\n      tag_178\n        /* \"#utility.yul\":3365:3370   */\n      dup2\n        /* \"#utility.yul\":3339:3371   */\n      tag_179\n      jump\t// in\n    tag_178:\n        /* \"#utility.yul\":3291:3377   */\n      swap3\n      swap2\n      pop\n      pop\n      jump\t// out\n        /* \"#utility.yul\":3397:3670   */\n    tag_180:\n      0x00\n        /* \"#utility.yul\":3502:3505   */\n      dup3\n        /* \"#utility.yul\":3495:3499   */\n      0x1f\n        /* \"#utility.yul\":3487:3493   */\n      dup4\n        /* \"#utility.yul\":3483:3500   */\n      add\n        /* \"#utility.yul\":3479:3506   */\n      slt\n        /* \"#utility.yul\":3469:3471   */\n      tag_182\n      jumpi\n        /* \"#utility.yul\":3520:3521   */\n      0x00\n        /* \"#utility.yul\":3517:3518   */\n      dup1\n        /* \"#utility.yul\":3510:3522   */\n      revert\n        /* \"#utility.yul\":3469:3471   */\n    tag_182:\n        /* \"#utility.yul\":3560:3566   */\n      dup2\n        /* \"#utility.yul\":3547:3567   */\n      calldataload\n        /* \"#utility.yul\":3585:3664   */\n      tag_183\n        /* \"#utility.yul\":3660:3663   */\n      dup5\n        /* \"#utility.yul\":3652:3658   */\n      dup3\n        /* \"#utility.yul\":3645:3649   */\n      0x20\n        /* \"#utility.yul\":3637:3643   */\n      dup7\n        /* \"#utility.yul\":3633:3650   */\n      add\n        /* \"#utility.yul\":3585:3664   */\n      tag_138\n      jump\t// in\n    tag_183:\n        /* \"#utility.yul\":3576:3664   */\n      swap2\n      pop\n        /* \"#utility.yul\":3459:3670   */\n      pop\n      swap3\n      swap2\n      pop\n      pop\n      jump\t// out\n        /* \"#utility.yul\":3716:5759   */\n    tag_184:\n      0x00\n        /* \"#utility.yul\":3834:3840   */\n      0x0120\n        /* \"#utility.yul\":3822:3831   */\n      dup3\n        /* \"#utility.yul\":3817:3820   */\n      dup5\n        /* \"#utility.yul\":3813:3832   */\n      sub\n        /* \"#utility.yul\":3809:3841   */\n      slt\n        /* \"#utility.yul\":3806:3808   */\n      iszero\n      tag_186\n      jumpi\n        /* \"#utility.yul\":3854:3855   */\n      0x00\n        /* \"#utility.yul\":3851:3852   */\n      dup1\n        /* \"#utility.yul\":3844:3856   */\n      revert\n        /* \"#utility.yul\":3806:3808   */\n    tag_186:\n        /* \"#utility.yul\":3876:3898   */\n      tag_187\n        /* \"#utility.yul\":3891:3897   */\n      0x0120\n        /* \"#utility.yul\":3876:3898   */\n      tag_120\n      jump\t// in\n    tag_187:\n        /* \"#utility.yul\":3867:3898   */\n      swap1\n      pop\n        /* \"#utility.yul\":3960:3961   */\n      0x00\n        /* \"#utility.yul\":4000:4049   */\n      tag_188\n        /* \"#utility.yul\":4045:4048   */\n      dup5\n        /* \"#utility.yul\":4036:4042   */\n      dup3\n        /* \"#utility.yul\":4025:4034   */\n      dup6\n        /* \"#utility.yul\":4021:4043   */\n      add\n        /* \"#utility.yul\":4000:4049   */\n      tag_137\n      jump\t// in\n    tag_188:\n        /* \"#utility.yul\":3993:3997   */\n      0x00\n        /* \"#utility.yul\":3986:3991   */\n      dup4\n        /* \"#utility.yul\":3982:3998   */\n      add\n        /* \"#utility.yul\":3975:4050   */\n      mstore\n        /* \"#utility.yul\":3908:4061   */\n      pop\n        /* \"#utility.yul\":4127:4129   */\n      0x20\n        /* \"#utility.yul\":4168:4232   */\n      tag_189\n        /* \"#utility.yul\":4228:4231   */\n      dup5\n        /* \"#utility.yul\":4219:4225   */\n      dup3\n        /* \"#utility.yul\":4208:4217   */\n      dup6\n        /* \"#utility.yul\":4204:4226   */\n      add\n        /* \"#utility.yul\":4168:4232   */\n      tag_169\n      jump\t// in\n    tag_189:\n        /* \"#utility.yul\":4161:4165   */\n      0x20\n        /* \"#utility.yul\":4154:4159   */\n      dup4\n        /* \"#utility.yul\":4150:4166   */\n      add\n        /* \"#utility.yul\":4143:4233   */\n      mstore\n        /* \"#utility.yul\":4071:4244   */\n      pop\n        /* \"#utility.yul\":4304:4306   */\n      0x40\n        /* \"#utility.yul\":4345:4410   */\n      tag_190\n        /* \"#utility.yul\":4406:4409   */\n      dup5\n        /* \"#utility.yul\":4397:4403   */\n      dup3\n        /* \"#utility.yul\":4386:4395   */\n      dup6\n        /* \"#utility.yul\":4382:4404   */\n      add\n        /* \"#utility.yul\":4345:4410   */\n      tag_165\n      jump\t// in\n    tag_190:\n        /* \"#utility.yul\":4338:4342   */\n      0x40\n        /* \"#utility.yul\":4331:4336   */\n      dup4\n        /* \"#utility.yul\":4327:4343   */\n      add\n        /* \"#utility.yul\":4320:4411   */\n      mstore\n        /* \"#utility.yul\":4254:4422   */\n      pop\n        /* \"#utility.yul\":4486:4488   */\n      0x60\n        /* \"#utility.yul\":4527:4573   */\n      tag_191\n        /* \"#utility.yul\":4569:4572   */\n      dup5\n        /* \"#utility.yul\":4560:4566   */\n      dup3\n        /* \"#utility.yul\":4549:4558   */\n      dup6\n        /* \"#utility.yul\":4545:4567   */\n      add\n        /* \"#utility.yul\":4527:4573   */\n      tag_158\n      jump\t// in\n    tag_191:\n        /* \"#utility.yul\":4520:4524   */\n      0x60\n        /* \"#utility.yul\":4513:4518   */\n      dup4\n        /* \"#utility.yul\":4509:4525   */\n      add\n        /* \"#utility.yul\":4502:4574   */\n      mstore\n        /* \"#utility.yul\":4432:4585   */\n      pop\n        /* \"#utility.yul\":4646:4649   */\n      0x80\n        /* \"#utility.yul\":4688:4734   */\n      tag_192\n        /* \"#utility.yul\":4730:4733   */\n      dup5\n        /* \"#utility.yul\":4721:4727   */\n      dup3\n        /* \"#utility.yul\":4710:4719   */\n      dup6\n        /* \"#utility.yul\":4706:4728   */\n      add\n        /* \"#utility.yul\":4688:4734   */\n      tag_158\n      jump\t// in\n    tag_192:\n        /* \"#utility.yul\":4681:4685   */\n      0x80\n        /* \"#utility.yul\":4674:4679   */\n      dup4\n        /* \"#utility.yul\":4670:4686   */\n      add\n        /* \"#utility.yul\":4663:4735   */\n      mstore\n        /* \"#utility.yul\":4595:4746   */\n      pop\n        /* \"#utility.yul\":4809:4812   */\n      0xa0\n        /* \"#utility.yul\":4851:4912   */\n      tag_193\n        /* \"#utility.yul\":4908:4911   */\n      dup5\n        /* \"#utility.yul\":4899:4905   */\n      dup3\n        /* \"#utility.yul\":4888:4897   */\n      dup6\n        /* \"#utility.yul\":4884:4906   */\n      add\n        /* \"#utility.yul\":4851:4912   */\n      tag_173\n      jump\t// in\n    tag_193:\n        /* \"#utility.yul\":4844:4848   */\n      0xa0\n        /* \"#utility.yul\":4837:4842   */\n      dup4\n        /* \"#utility.yul\":4833:4849   */\n      add\n        /* \"#utility.yul\":4826:4913   */\n      mstore\n        /* \"#utility.yul\":4756:4924   */\n      pop\n        /* \"#utility.yul\":5022:5025   */\n      0xc0\n        /* \"#utility.yul\":5011:5020   */\n      dup3\n        /* \"#utility.yul\":5007:5026   */\n      add\n        /* \"#utility.yul\":4994:5027   */\n      calldataload\n        /* \"#utility.yul\":5054:5072   */\n      0xffffffffffffffff\n        /* \"#utility.yul\":5046:5052   */\n      dup2\n        /* \"#utility.yul\":5043:5073   */\n      gt\n        /* \"#utility.yul\":5040:5042   */\n      iszero\n      tag_194\n      jumpi\n        /* \"#utility.yul\":5086:5087   */\n      0x00\n        /* \"#utility.yul\":5083:5084   */\n      dup1\n        /* \"#utility.yul\":5076:5088   */\n      revert\n        /* \"#utility.yul\":5040:5042   */\n    tag_194:\n        /* \"#utility.yul\":5129:5188   */\n      tag_195\n        /* \"#utility.yul\":5184:5187   */\n      dup5\n        /* \"#utility.yul\":5175:5181   */\n      dup3\n        /* \"#utility.yul\":5164:5173   */\n      dup6\n        /* \"#utility.yul\":5160:5182   */\n      add\n        /* \"#utility.yul\":5129:5188   */\n      tag_180\n      jump\t// in\n    tag_195:\n        /* \"#utility.yul\":5122:5126   */\n      0xc0\n        /* \"#utility.yul\":5115:5120   */\n      dup4\n        /* \"#utility.yul\":5111:5127   */\n      add\n        /* \"#utility.yul\":5104:5189   */\n      mstore\n        /* \"#utility.yul\":4934:5200   */\n      pop\n        /* \"#utility.yul\":5290:5293   */\n      0xe0\n        /* \"#utility.yul\":5279:5288   */\n      dup3\n        /* \"#utility.yul\":5275:5294   */\n      add\n        /* \"#utility.yul\":5262:5295   */\n      calldataload\n        /* \"#utility.yul\":5322:5340   */\n      0xffffffffffffffff\n        /* \"#utility.yul\":5314:5320   */\n      dup2\n        /* \"#utility.yul\":5311:5341   */\n      gt\n        /* \"#utility.yul\":5308:5310   */\n      iszero\n      tag_196\n      jumpi\n        /* \"#utility.yul\":5354:5355   */\n      0x00\n        /* \"#utility.yul\":5351:5352   */\n      dup1\n        /* \"#utility.yul\":5344:5356   */\n      revert\n        /* \"#utility.yul\":5308:5310   */\n    tag_196:\n        /* \"#utility.yul\":5397:5456   */\n      tag_197\n        /* \"#utility.yul\":5452:5455   */\n      dup5\n        /* \"#utility.yul\":5443:5449   */\n      dup3\n        /* \"#utility.yul\":5432:5441   */\n      dup6\n        /* \"#utility.yul\":5428:5450   */\n      add\n        /* \"#utility.yul\":5397:5456   */\n      tag_180\n      jump\t// in\n    tag_197:\n        /* \"#utility.yul\":5390:5394   */\n      0xe0\n        /* \"#utility.yul\":5383:5388   */\n      dup4\n        /* \"#utility.yul\":5379:5395   */\n      add\n        /* \"#utility.yul\":5372:5457   */\n      mstore\n        /* \"#utility.yul\":5210:5468   */\n      pop\n        /* \"#utility.yul\":5558:5561   */\n      0x0100\n        /* \"#utility.yul\":5547:5556   */\n      dup3\n        /* \"#utility.yul\":5543:5562   */\n      add\n        /* \"#utility.yul\":5530:5563   */\n      calldataload\n        /* \"#utility.yul\":5590:5608   */\n      0xffffffffffffffff\n        /* \"#utility.yul\":5582:5588   */\n      dup2\n        /* \"#utility.yul\":5579:5609   */\n      gt\n        /* \"#utility.yul\":5576:5578   */\n      iszero\n      tag_198\n      jumpi\n        /* \"#utility.yul\":5622:5623   */\n      0x00\n        /* \"#utility.yul\":5619:5620   */\n      dup1\n        /* \"#utility.yul\":5612:5624   */\n      revert\n        /* \"#utility.yul\":5576:5578   */\n    tag_198:\n        /* \"#utility.yul\":5667:5740   */\n      tag_199\n        /* \"#utility.yul\":5736:5739   */\n      dup5\n        /* \"#utility.yul\":5727:5733   */\n      dup3\n        /* \"#utility.yul\":5716:5725   */\n      dup6\n        /* \"#utility.yul\":5712:5734   */\n      add\n        /* \"#utility.yul\":5667:5740   */\n      tag_150\n      jump\t// in\n    tag_199:\n        /* \"#utility.yul\":5658:5664   */\n      0x0100\n        /* \"#utility.yul\":5651:5656   */\n      dup4\n        /* \"#utility.yul\":5647:5665   */\n      add\n        /* \"#utility.yul\":5640:5741   */\n      mstore\n        /* \"#utility.yul\":5478:5752   */\n      pop\n        /* \"#utility.yul\":3796:5759   */\n      swap3\n      swap2\n      pop\n      pop\n      jump\t// out\n        /* \"#utility.yul\":5765:5950   */\n    tag_200:\n      0x00\n        /* \"#utility.yul\":5872:5878   */\n      dup2\n        /* \"#utility.yul\":5859:5879   */\n      calldataload\n        /* \"#utility.yul\":5850:5879   */\n      swap1\n      pop\n        /* \"#utility.yul\":5888:5944   */\n      tag_202\n        /* \"#utility.yul\":5938:5943   */\n      dup2\n        /* \"#utility.yul\":5888:5944   */\n      tag_203\n      jump\t// in\n    tag_202:\n        /* \"#utility.yul\":5840:5950   */\n      swap3\n      swap2\n      pop\n      pop\n      jump\t// out\n        /* \"#utility.yul\":5988:7823   */\n    tag_204:\n      0x00\n        /* \"#utility.yul\":6102:6106   */\n      0xe0\n        /* \"#utility.yul\":6090:6099   */\n      dup3\n        /* \"#utility.yul\":6085:6088   */\n      dup5\n        /* \"#utility.yul\":6081:6100   */\n      sub\n        /* \"#utility.yul\":6077:6107   */\n      slt\n        /* \"#utility.yul\":6074:6076   */\n      iszero\n      tag_206\n      jumpi\n        /* \"#utility.yul\":6120:6121   */\n      0x00\n        /* \"#utility.yul\":6117:6118   */\n      dup1\n        /* \"#utility.yul\":6110:6122   */\n      revert\n        /* \"#utility.yul\":6074:6076   */\n    tag_206:\n        /* \"#utility.yul\":6142:6162   */\n      tag_207\n        /* \"#utility.yul\":6157:6161   */\n      0xe0\n        /* \"#utility.yul\":6142:6162   */\n      tag_120\n      jump\t// in\n    tag_207:\n        /* \"#utility.yul\":6133:6162   */\n      swap1\n      pop\n        /* \"#utility.yul\":6253:6254   */\n      0x00\n        /* \"#utility.yul\":6242:6251   */\n      dup3\n        /* \"#utility.yul\":6238:6255   */\n      add\n        /* \"#utility.yul\":6225:6256   */\n      calldataload\n        /* \"#utility.yul\":6283:6301   */\n      0xffffffffffffffff\n        /* \"#utility.yul\":6275:6281   */\n      dup2\n        /* \"#utility.yul\":6272:6302   */\n      gt\n        /* \"#utility.yul\":6269:6271   */\n      iszero\n      tag_208\n      jumpi\n        /* \"#utility.yul\":6315:6316   */\n      0x00\n        /* \"#utility.yul\":6312:6313   */\n      dup1\n        /* \"#utility.yul\":6305:6317   */\n      revert\n        /* \"#utility.yul\":6269:6271   */\n    tag_208:\n        /* \"#utility.yul\":6358:6417   */\n      tag_209\n        /* \"#utility.yul\":6413:6416   */\n      dup5\n        /* \"#utility.yul\":6404:6410   */\n      dup3\n        /* \"#utility.yul\":6393:6402   */\n      dup6\n        /* \"#utility.yul\":6389:6411   */\n      add\n        /* \"#utility.yul\":6358:6417   */\n      tag_180\n      jump\t// in\n    tag_209:\n        /* \"#utility.yul\":6351:6355   */\n      0x00\n        /* \"#utility.yul\":6344:6349   */\n      dup4\n        /* \"#utility.yul\":6340:6356   */\n      add\n        /* \"#utility.yul\":6333:6418   */\n      mstore\n        /* \"#utility.yul\":6172:6429   */\n      pop\n        /* \"#utility.yul\":6496:6498   */\n      0x20\n        /* \"#utility.yul\":6537:6586   */\n      tag_210\n        /* \"#utility.yul\":6582:6585   */\n      dup5\n        /* \"#utility.yul\":6573:6579   */\n      dup3\n        /* \"#utility.yul\":6562:6571   */\n      dup6\n        /* \"#utility.yul\":6558:6580   */\n      add\n        /* \"#utility.yul\":6537:6586   */\n      tag_146\n      jump\t// in\n    tag_210:\n        /* \"#utility.yul\":6530:6534   */\n      0x20\n        /* \"#utility.yul\":6523:6528   */\n      dup4\n        /* \"#utility.yul\":6519:6535   */\n      add\n        /* \"#utility.yul\":6512:6587   */\n      mstore\n        /* \"#utility.yul\":6439:6598   */\n      pop\n        /* \"#utility.yul\":6662:6664   */\n      0x40\n        /* \"#utility.yul\":6703:6749   */\n      tag_211\n        /* \"#utility.yul\":6745:6748   */\n      dup5\n        /* \"#utility.yul\":6736:6742   */\n      dup3\n        /* \"#utility.yul\":6725:6734   */\n      dup6\n        /* \"#utility.yul\":6721:6743   */\n      add\n        /* \"#utility.yul\":6703:6749   */\n      tag_158\n      jump\t// in\n    tag_211:\n        /* \"#utility.yul\":6696:6700   */\n      0x40\n        /* \"#utility.yul\":6689:6694   */\n      dup4\n        /* \"#utility.yul\":6685:6701   */\n      add\n        /* \"#utility.yul\":6678:6750   */\n      mstore\n        /* \"#utility.yul\":6608:6761   */\n      pop\n        /* \"#utility.yul\":6840:6842   */\n      0x60\n        /* \"#utility.yul\":6881:6945   */\n      tag_212\n        /* \"#utility.yul\":6941:6944   */\n      dup5\n        /* \"#utility.yul\":6932:6938   */\n      dup3\n        /* \"#utility.yul\":6921:6930   */\n      dup6\n        /* \"#utility.yul\":6917:6939   */\n      add\n        /* \"#utility.yul\":6881:6945   */\n      tag_169\n      jump\t// in\n    tag_212:\n        /* \"#utility.yul\":6874:6878   */\n      0x60\n        /* \"#utility.yul\":6867:6872   */\n      dup4\n        /* \"#utility.yul\":6863:6879   */\n      add\n        /* \"#utility.yul\":6856:6946   */\n      mstore\n        /* \"#utility.yul\":6771:6957   */\n      pop\n        /* \"#utility.yul\":7052:7055   */\n      0x80\n        /* \"#utility.yul\":7041:7050   */\n      dup3\n        /* \"#utility.yul\":7037:7056   */\n      add\n        /* \"#utility.yul\":7024:7057   */\n      calldataload\n        /* \"#utility.yul\":7084:7102   */\n      0xffffffffffffffff\n        /* \"#utility.yul\":7076:7082   */\n      dup2\n        /* \"#utility.yul\":7073:7103   */\n      gt\n        /* \"#utility.yul\":7070:7072   */\n      iszero\n      tag_213\n      jumpi\n        /* \"#utility.yul\":7116:7117   */\n      0x00\n        /* \"#utility.yul\":7113:7114   */\n      dup1\n        /* \"#utility.yul\":7106:7118   */\n      revert\n        /* \"#utility.yul\":7070:7072   */\n    tag_213:\n        /* \"#utility.yul\":7159:7233   */\n      tag_214\n        /* \"#utility.yul\":7229:7232   */\n      dup5\n        /* \"#utility.yul\":7220:7226   */\n      dup3\n        /* \"#utility.yul\":7209:7218   */\n      dup6\n        /* \"#utility.yul\":7205:7227   */\n      add\n        /* \"#utility.yul\":7159:7233   */\n      tag_154\n      jump\t// in\n    tag_214:\n        /* \"#utility.yul\":7152:7156   */\n      0x80\n        /* \"#utility.yul\":7145:7150   */\n      dup4\n        /* \"#utility.yul\":7141:7157   */\n      add\n        /* \"#utility.yul\":7134:7234   */\n      mstore\n        /* \"#utility.yul\":6967:7245   */\n      pop\n        /* \"#utility.yul\":7339:7342   */\n      0xa0\n        /* \"#utility.yul\":7328:7337   */\n      dup3\n        /* \"#utility.yul\":7324:7343   */\n      add\n        /* \"#utility.yul\":7311:7344   */\n      calldataload\n        /* \"#utility.yul\":7371:7389   */\n      0xffffffffffffffff\n        /* \"#utility.yul\":7363:7369   */\n      dup2\n        /* \"#utility.yul\":7360:7390   */\n      gt\n        /* \"#utility.yul\":7357:7359   */\n      iszero\n      tag_215\n      jumpi\n        /* \"#utility.yul\":7403:7404   */\n      0x00\n        /* \"#utility.yul\":7400:7401   */\n      dup1\n        /* \"#utility.yul\":7393:7405   */\n      revert\n        /* \"#utility.yul\":7357:7359   */\n    tag_215:\n        /* \"#utility.yul\":7446:7520   */\n      tag_216\n        /* \"#utility.yul\":7516:7519   */\n      dup5\n        /* \"#utility.yul\":7507:7513   */\n      dup3\n        /* \"#utility.yul\":7496:7505   */\n      dup6\n        /* \"#utility.yul\":7492:7514   */\n      add\n        /* \"#utility.yul\":7446:7520   */\n      tag_154\n      jump\t// in\n    tag_216:\n        /* \"#utility.yul\":7439:7443   */\n      0xa0\n        /* \"#utility.yul\":7432:7437   */\n      dup4\n        /* \"#utility.yul\":7428:7444   */\n      add\n        /* \"#utility.yul\":7421:7521   */\n      mstore\n        /* \"#utility.yul\":7255:7532   */\n      pop\n        /* \"#utility.yul\":7623:7626   */\n      0xc0\n        /* \"#utility.yul\":7612:7621   */\n      dup3\n        /* \"#utility.yul\":7608:7627   */\n      add\n        /* \"#utility.yul\":7595:7628   */\n      calldataload\n        /* \"#utility.yul\":7655:7673   */\n      0xffffffffffffffff\n        /* \"#utility.yul\":7647:7653   */\n      dup2\n        /* \"#utility.yul\":7644:7674   */\n      gt\n        /* \"#utility.yul\":7641:7643   */\n      iszero\n      tag_217\n      jumpi\n        /* \"#utility.yul\":7687:7688   */\n      0x00\n        /* \"#utility.yul\":7684:7685   */\n      dup1\n        /* \"#utility.yul\":7677:7689   */\n      revert\n        /* \"#utility.yul\":7641:7643   */\n    tag_217:\n        /* \"#utility.yul\":7730:7804   */\n      tag_218\n        /* \"#utility.yul\":7800:7803   */\n      dup5\n        /* \"#utility.yul\":7791:7797   */\n      dup3\n        /* \"#utility.yul\":7780:7789   */\n      dup6\n        /* \"#utility.yul\":7776:7798   */\n      add\n        /* \"#utility.yul\":7730:7804   */\n      tag_184\n      jump\t// in\n    tag_218:\n        /* \"#utility.yul\":7723:7727   */\n      0xc0\n        /* \"#utility.yul\":7716:7721   */\n      dup4\n        /* \"#utility.yul\":7712:7728   */\n      add\n        /* \"#utility.yul\":7705:7805   */\n      mstore\n        /* \"#utility.yul\":7542:7816   */\n      pop\n        /* \"#utility.yul\":6064:7823   */\n      swap3\n      swap2\n      pop\n      pop\n      jump\t// out\n        /* \"#utility.yul\":7829:7968   */\n    tag_137:\n      0x00\n        /* \"#utility.yul\":7913:7919   */\n      dup2\n        /* \"#utility.yul\":7900:7920   */\n      calldataload\n        /* \"#utility.yul\":7891:7920   */\n      swap1\n      pop\n        /* \"#utility.yul\":7929:7962   */\n      tag_220\n        /* \"#utility.yul\":7956:7961   */\n      dup2\n        /* \"#utility.yul\":7929:7962   */\n      tag_221\n      jump\t// in\n    tag_220:\n        /* \"#utility.yul\":7881:7968   */\n      swap3\n      swap2\n      pop\n      pop\n      jump\t// out\n        /* \"#utility.yul\":7974:8252   */\n    tag_57:\n      0x00\n        /* \"#utility.yul\":8090:8092   */\n      0x20\n        /* \"#utility.yul\":8078:8087   */\n      dup3\n        /* \"#utility.yul\":8069:8076   */\n      dup5\n        /* \"#utility.yul\":8065:8088   */\n      sub\n        /* \"#utility.yul\":8061:8093   */\n      slt\n        /* \"#utility.yul\":8058:8060   */\n      iszero\n      tag_223\n      jumpi\n        /* \"#utility.yul\":8106:8107   */\n      0x00\n        /* \"#utility.yul\":8103:8104   */\n      dup1\n        /* \"#utility.yul\":8096:8108   */\n      revert\n        /* \"#utility.yul\":8058:8060   */\n    tag_223:\n        /* \"#utility.yul\":8149:8150   */\n      0x00\n        /* \"#utility.yul\":8174:8235   */\n      tag_224\n        /* \"#utility.yul\":8227:8234   */\n      dup5\n        /* \"#utility.yul\":8218:8224   */\n      dup3\n        /* \"#utility.yul\":8207:8216   */\n      dup6\n        /* \"#utility.yul\":8203:8225   */\n      add\n        /* \"#utility.yul\":8174:8235   */\n      tag_162\n      jump\t// in\n    tag_224:\n        /* \"#utility.yul\":8164:8235   */\n      swap2\n      pop\n        /* \"#utility.yul\":8120:8245   */\n      pop\n        /* \"#utility.yul\":8048:8252   */\n      swap3\n      swap2\n      pop\n      pop\n      jump\t// out\n        /* \"#utility.yul\":8258:9531   */\n    tag_8:\n      0x00\n      dup1\n      0x00\n      dup1\n      0x00\n        /* \"#utility.yul\":8509:8512   */\n      0xa0\n        /* \"#utility.yul\":8497:8506   */\n      dup7\n        /* \"#utility.yul\":8488:8495   */\n      dup9\n        /* \"#utility.yul\":8484:8507   */\n      sub\n        /* \"#utility.yul\":8480:8513   */\n      slt\n        /* \"#utility.yul\":8477:8479   */\n      iszero\n      tag_226\n      jumpi\n        /* \"#utility.yul\":8526:8527   */\n      0x00\n        /* \"#utility.yul\":8523:8524   */\n      dup1\n        /* \"#utility.yul\":8516:8528   */\n      revert\n        /* \"#utility.yul\":8477:8479   */\n    tag_226:\n        /* \"#utility.yul\":8597:8598   */\n      0x00\n        /* \"#utility.yul\":8586:8595   */\n      dup7\n        /* \"#utility.yul\":8582:8599   */\n      add\n        /* \"#utility.yul\":8569:8600   */\n      calldataload\n        /* \"#utility.yul\":8627:8645   */\n      0xffffffffffffffff\n        /* \"#utility.yul\":8619:8625   */\n      dup2\n        /* \"#utility.yul\":8616:8646   */\n      gt\n        /* \"#utility.yul\":8613:8615   */\n      iszero\n      tag_227\n      jumpi\n        /* \"#utility.yul\":8659:8660   */\n      0x00\n        /* \"#utility.yul\":8656:8657   */\n      dup1\n        /* \"#utility.yul\":8649:8661   */\n      revert\n        /* \"#utility.yul\":8613:8615   */\n    tag_227:\n        /* \"#utility.yul\":8687:8750   */\n      tag_228\n        /* \"#utility.yul\":8742:8749   */\n      dup9\n        /* \"#utility.yul\":8733:8739   */\n      dup3\n        /* \"#utility.yul\":8722:8731   */\n      dup10\n        /* \"#utility.yul\":8718:8740   */\n      add\n        /* \"#utility.yul\":8687:8750   */\n      tag_180\n      jump\t// in\n    tag_228:\n        /* \"#utility.yul\":8677:8750   */\n      swap6\n      pop\n        /* \"#utility.yul\":8540:8760   */\n      pop\n        /* \"#utility.yul\":8799:8801   */\n      0x20\n        /* \"#utility.yul\":8825:8878   */\n      tag_229\n        /* \"#utility.yul\":8870:8877   */\n      dup9\n        /* \"#utility.yul\":8861:8867   */\n      dup3\n        /* \"#utility.yul\":8850:8859   */\n      dup10\n        /* \"#utility.yul\":8846:8868   */\n      add\n        /* \"#utility.yul\":8825:8878   */\n      tag_146\n      jump\t// in\n    tag_229:\n        /* \"#utility.yul\":8815:8878   */\n      swap5\n      pop\n        /* \"#utility.yul\":8770:8888   */\n      pop\n        /* \"#utility.yul\":8927:8929   */\n      0x40\n        /* \"#utility.yul\":8953:9021   */\n      tag_230\n        /* \"#utility.yul\":9013:9020   */\n      dup9\n        /* \"#utility.yul\":9004:9010   */\n      dup3\n        /* \"#utility.yul\":8993:9002   */\n      dup10\n        /* \"#utility.yul\":8989:9011   */\n      add\n        /* \"#utility.yul\":8953:9021   */\n      tag_169\n      jump\t// in\n    tag_230:\n        /* \"#utility.yul\":8943:9021   */\n      swap4\n      pop\n        /* \"#utility.yul\":8898:9031   */\n      pop\n        /* \"#utility.yul\":9098:9100   */\n      0x60\n        /* \"#utility.yul\":9087:9096   */\n      dup7\n        /* \"#utility.yul\":9083:9101   */\n      add\n        /* \"#utility.yul\":9070:9102   */\n      calldataload\n        /* \"#utility.yul\":9129:9147   */\n      0xffffffffffffffff\n        /* \"#utility.yul\":9121:9127   */\n      dup2\n        /* \"#utility.yul\":9118:9148   */\n      gt\n        /* \"#utility.yul\":9115:9117   */\n      iszero\n      tag_231\n      jumpi\n        /* \"#utility.yul\":9161:9162   */\n      0x00\n        /* \"#utility.yul\":9158:9159   */\n      dup1\n        /* \"#utility.yul\":9151:9163   */\n      revert\n        /* \"#utility.yul\":9115:9117   */\n    tag_231:\n        /* \"#utility.yul\":9189:9267   */\n      tag_232\n        /* \"#utility.yul\":9259:9266   */\n      dup9\n        /* \"#utility.yul\":9250:9256   */\n      dup3\n        /* \"#utility.yul\":9239:9248   */\n      dup10\n        /* \"#utility.yul\":9235:9257   */\n      add\n        /* \"#utility.yul\":9189:9267   */\n      tag_154\n      jump\t// in\n    tag_232:\n        /* \"#utility.yul\":9179:9267   */\n      swap3\n      pop\n        /* \"#utility.yul\":9041:9277   */\n      pop\n        /* \"#utility.yul\":9344:9347   */\n      0x80\n        /* \"#utility.yul\":9333:9342   */\n      dup7\n        /* \"#utility.yul\":9329:9348   */\n      add\n        /* \"#utility.yul\":9316:9349   */\n      calldataload\n        /* \"#utility.yul\":9376:9394   */\n      0xffffffffffffffff\n        /* \"#utility.yul\":9368:9374   */\n      dup2\n        /* \"#utility.yul\":9365:9395   */\n      gt\n        /* \"#utility.yul\":9362:9364   */\n      iszero\n      tag_233\n      jumpi\n        /* \"#utility.yul\":9408:9409   */\n      0x00\n        /* \"#utility.yul\":9405:9406   */\n      dup1\n        /* \"#utility.yul\":9398:9410   */\n      revert\n        /* \"#utility.yul\":9362:9364   */\n    tag_233:\n        /* \"#utility.yul\":9436:9514   */\n      tag_234\n        /* \"#utility.yul\":9506:9513   */\n      dup9\n        /* \"#utility.yul\":9497:9503   */\n      dup3\n        /* \"#utility.yul\":9486:9495   */\n      dup10\n        /* \"#utility.yul\":9482:9504   */\n      add\n        /* \"#utility.yul\":9436:9514   */\n      tag_154\n      jump\t// in\n    tag_234:\n        /* \"#utility.yul\":9426:9514   */\n      swap2\n      pop\n        /* \"#utility.yul\":9287:9524   */\n      pop\n        /* \"#utility.yul\":8467:9531   */\n      swap3\n      swap6\n      pop\n      swap3\n      swap6\n      swap1\n      swap4\n      pop\n      jump\t// out\n        /* \"#utility.yul\":9537:10133   */\n    tag_20:\n      0x00\n      dup1\n        /* \"#utility.yul\":9710:9712   */\n      0x40\n        /* \"#utility.yul\":9698:9707   */\n      dup4\n        /* \"#utility.yul\":9689:9696   */\n      dup6\n        /* \"#utility.yul\":9685:9708   */\n      sub\n        /* \"#utility.yul\":9681:9713   */\n      slt\n        /* \"#utility.yul\":9678:9680   */\n      iszero\n      tag_236\n      jumpi\n        /* \"#utility.yul\":9726:9727   */\n      0x00\n        /* \"#utility.yul\":9723:9724   */\n      dup1\n        /* \"#utility.yul\":9716:9728   */\n      revert\n        /* \"#utility.yul\":9678:9680   */\n    tag_236:\n        /* \"#utility.yul\":9797:9798   */\n      0x00\n        /* \"#utility.yul\":9786:9795   */\n      dup4\n        /* \"#utility.yul\":9782:9799   */\n      add\n        /* \"#utility.yul\":9769:9800   */\n      calldataload\n        /* \"#utility.yul\":9827:9845   */\n      0xffffffffffffffff\n        /* \"#utility.yul\":9819:9825   */\n      dup2\n        /* \"#utility.yul\":9816:9846   */\n      gt\n        /* \"#utility.yul\":9813:9815   */\n      iszero\n      tag_237\n      jumpi\n        /* \"#utility.yul\":9859:9860   */\n      0x00\n        /* \"#utility.yul\":9856:9857   */\n      dup1\n        /* \"#utility.yul\":9849:9861   */\n      revert\n        /* \"#utility.yul\":9813:9815   */\n    tag_237:\n        /* \"#utility.yul\":9887:9965   */\n      tag_238\n        /* \"#utility.yul\":9957:9964   */\n      dup6\n        /* \"#utility.yul\":9948:9954   */\n      dup3\n        /* \"#utility.yul\":9937:9946   */\n      dup7\n        /* \"#utility.yul\":9933:9955   */\n      add\n        /* \"#utility.yul\":9887:9965   */\n      tag_184\n      jump\t// in\n    tag_238:\n        /* \"#utility.yul\":9877:9965   */\n      swap3\n      pop\n        /* \"#utility.yul\":9740:9975   */\n      pop\n        /* \"#utility.yul\":10014:10016   */\n      0x20\n        /* \"#utility.yul\":10040:10116   */\n      tag_239\n        /* \"#utility.yul\":10108:10115   */\n      dup6\n        /* \"#utility.yul\":10099:10105   */\n      dup3\n        /* \"#utility.yul\":10088:10097   */\n      dup7\n        /* \"#utility.yul\":10084:10106   */\n      add\n        /* \"#utility.yul\":10040:10116   */\n      tag_200\n      jump\t// in\n    tag_239:\n        /* \"#utility.yul\":10030:10116   */\n      swap2\n      pop\n        /* \"#utility.yul\":9985:10126   */\n      pop\n        /* \"#utility.yul\":9668:10133   */\n      swap3\n      pop\n      swap3\n      swap1\n      pop\n      jump\t// out\n        /* \"#utility.yul\":10139:10727   */\n    tag_26:\n      0x00\n      dup1\n        /* \"#utility.yul\":10308:10310   */\n      0x40\n        /* \"#utility.yul\":10296:10305   */\n      dup4\n        /* \"#utility.yul\":10287:10294   */\n      dup6\n        /* \"#utility.yul\":10283:10306   */\n      sub\n        /* \"#utility.yul\":10279:10311   */\n      slt\n        /* \"#utility.yul\":10276:10278   */\n      iszero\n      tag_241\n      jumpi\n        /* \"#utility.yul\":10324:10325   */\n      0x00\n        /* \"#utility.yul\":10321:10322   */\n      dup1\n        /* \"#utility.yul\":10314:10326   */\n      revert\n        /* \"#utility.yul\":10276:10278   */\n    tag_241:\n        /* \"#utility.yul\":10395:10396   */\n      0x00\n        /* \"#utility.yul\":10384:10393   */\n      dup4\n        /* \"#utility.yul\":10380:10397   */\n      add\n        /* \"#utility.yul\":10367:10398   */\n      calldataload\n        /* \"#utility.yul\":10425:10443   */\n      0xffffffffffffffff\n        /* \"#utility.yul\":10417:10423   */\n      dup2\n        /* \"#utility.yul\":10414:10444   */\n      gt\n        /* \"#utility.yul\":10411:10413   */\n      iszero\n      tag_242\n      jumpi\n        /* \"#utility.yul\":10457:10458   */\n      0x00\n        /* \"#utility.yul\":10454:10455   */\n      dup1\n        /* \"#utility.yul\":10447:10459   */\n      revert\n        /* \"#utility.yul\":10411:10413   */\n    tag_242:\n        /* \"#utility.yul\":10485:10559   */\n      tag_243\n        /* \"#utility.yul\":10551:10558   */\n      dup6\n        /* \"#utility.yul\":10542:10548   */\n      dup3\n        /* \"#utility.yul\":10531:10540   */\n      dup7\n        /* \"#utility.yul\":10527:10549   */\n      add\n        /* \"#utility.yul\":10485:10559   */\n      tag_204\n      jump\t// in\n    tag_243:\n        /* \"#utility.yul\":10475:10559   */\n      swap3\n      pop\n        /* \"#utility.yul\":10338:10569   */\n      pop\n        /* \"#utility.yul\":10608:10610   */\n      0x20\n        /* \"#utility.yul\":10634:10710   */\n      tag_244\n        /* \"#utility.yul\":10702:10709   */\n      dup6\n        /* \"#utility.yul\":10693:10699   */\n      dup3\n        /* \"#utility.yul\":10682:10691   */\n      dup7\n        /* \"#utility.yul\":10678:10700   */\n      add\n        /* \"#utility.yul\":10634:10710   */\n      tag_200\n      jump\t// in\n    tag_244:\n        /* \"#utility.yul\":10624:10710   */\n      swap2\n      pop\n        /* \"#utility.yul\":10579:10720   */\n      pop\n        /* \"#utility.yul\":10266:10727   */\n      swap3\n      pop\n      swap3\n      swap1\n      pop\n      jump\t// out\n        /* \"#utility.yul\":10733:11275   */\n    tag_14:\n      0x00\n      dup1\n        /* \"#utility.yul\":10879:10881   */\n      0x40\n        /* \"#utility.yul\":10867:10876   */\n      dup4\n        /* \"#utility.yul\":10858:10865   */\n      dup6\n        /* \"#utility.yul\":10854:10877   */\n      sub\n        /* \"#utility.yul\":10850:10882   */\n      slt\n        /* \"#utility.yul\":10847:10849   */\n      iszero\n      tag_246\n      jumpi\n        /* \"#utility.yul\":10895:10896   */\n      0x00\n        /* \"#utility.yul\":10892:10893   */\n      dup1\n        /* \"#utility.yul\":10885:10897   */\n      revert\n        /* \"#utility.yul\":10847:10849   */\n    tag_246:\n        /* \"#utility.yul\":10938:10939   */\n      0x00\n        /* \"#utility.yul\":10963:11016   */\n      tag_247\n        /* \"#utility.yul\":11008:11015   */\n      dup6\n        /* \"#utility.yul\":10999:11005   */\n      dup3\n        /* \"#utility.yul\":10988:10997   */\n      dup7\n        /* \"#utility.yul\":10984:11006   */\n      add\n        /* \"#utility.yul\":10963:11016   */\n      tag_137\n      jump\t// in\n    tag_247:\n        /* \"#utility.yul\":10953:11016   */\n      swap3\n      pop\n        /* \"#utility.yul\":10909:11026   */\n      pop\n        /* \"#utility.yul\":11093:11095   */\n      0x20\n        /* \"#utility.yul\":11082:11091   */\n      dup4\n        /* \"#utility.yul\":11078:11096   */\n      add\n        /* \"#utility.yul\":11065:11097   */\n      calldataload\n        /* \"#utility.yul\":11124:11142   */\n      0xffffffffffffffff\n        /* \"#utility.yul\":11116:11122   */\n      dup2\n        /* \"#utility.yul\":11113:11143   */\n      gt\n        /* \"#utility.yul\":11110:11112   */\n      iszero\n      tag_248\n      jumpi\n        /* \"#utility.yul\":11156:11157   */\n      0x00\n        /* \"#utility.yul\":11153:11154   */\n      dup1\n        /* \"#utility.yul\":11146:11158   */\n      revert\n        /* \"#utility.yul\":11110:11112   */\n    tag_248:\n        /* \"#utility.yul\":11184:11258   */\n      tag_249\n        /* \"#utility.yul\":11250:11257   */\n      dup6\n        /* \"#utility.yul\":11241:11247   */\n      dup3\n        /* \"#utility.yul\":11230:11239   */\n      dup7\n        /* \"#utility.yul\":11226:11248   */\n      add\n        /* \"#utility.yul\":11184:11258   */\n      tag_204\n      jump\t// in\n    tag_249:\n        /* \"#utility.yul\":11174:11258   */\n      swap2\n      pop\n        /* \"#utility.yul\":11036:11268   */\n      pop\n        /* \"#utility.yul\":10837:11275   */\n      swap3\n      pop\n      swap3\n      swap1\n      pop\n      jump\t// out\n        /* \"#utility.yul\":11281:11472   */\n    tag_250:\n      0x00\n        /* \"#utility.yul\":11377:11429   */\n      tag_252\n        /* \"#utility.yul\":11425:11428   */\n      dup4\n        /* \"#utility.yul\":11417:11423   */\n      dup4\n        /* \"#utility.yul\":11377:11429   */\n      tag_253\n      jump\t// in\n    tag_252:\n        /* \"#utility.yul\":11461:11465   */\n      0x20\n        /* \"#utility.yul\":11456:11459   */\n      dup4\n        /* \"#utility.yul\":11452:11466   */\n      add\n        /* \"#utility.yul\":11438:11466   */\n      swap1\n      pop\n        /* \"#utility.yul\":11367:11472   */\n      swap3\n      swap2\n      pop\n      pop\n      jump\t// out\n        /* \"#utility.yul\":11478:11673   */\n    tag_254:\n      0x00\n        /* \"#utility.yul\":11576:11630   */\n      tag_256\n        /* \"#utility.yul\":11626:11629   */\n      dup4\n        /* \"#utility.yul\":11618:11624   */\n      dup4\n        /* \"#utility.yul\":11576:11630   */\n      tag_257\n      jump\t// in\n    tag_256:\n        /* \"#utility.yul\":11662:11666   */\n      0x20\n        /* \"#utility.yul\":11657:11660   */\n      dup4\n        /* \"#utility.yul\":11653:11667   */\n      add\n        /* \"#utility.yul\":11639:11667   */\n      swap1\n      pop\n        /* \"#utility.yul\":11566:11673   */\n      swap3\n      swap2\n      pop\n      pop\n      jump\t// out\n        /* \"#utility.yul\":11679:11795   */\n    tag_258:\n        /* \"#utility.yul\":11764:11788   */\n      tag_260\n        /* \"#utility.yul\":11782:11787   */\n      dup2\n        /* \"#utility.yul\":11764:11788   */\n      tag_261\n      jump\t// in\n    tag_260:\n        /* \"#utility.yul\":11759:11762   */\n      dup3\n        /* \"#utility.yul\":11752:11789   */\n      mstore\n        /* \"#utility.yul\":11742:11795   */\n      pop\n      pop\n      jump\t// out\n        /* \"#utility.yul\":11829:12577   */\n    tag_262:\n      0x00\n        /* \"#utility.yul\":11983:12036   */\n      tag_264\n        /* \"#utility.yul\":12030:12035   */\n      dup3\n        /* \"#utility.yul\":11983:12036   */\n      tag_265\n      jump\t// in\n    tag_264:\n        /* \"#utility.yul\":12052:12145   */\n      tag_266\n        /* \"#utility.yul\":12138:12144   */\n      dup2\n        /* \"#utility.yul\":12133:12136   */\n      dup6\n        /* \"#utility.yul\":12052:12145   */\n      tag_267\n      jump\t// in\n    tag_266:\n        /* \"#utility.yul\":12045:12145   */\n      swap4\n      pop\n        /* \"#utility.yul\":12169:12224   */\n      tag_268\n        /* \"#utility.yul\":12218:12223   */\n      dup4\n        /* \"#utility.yul\":12169:12224   */\n      tag_269\n      jump\t// in\n    tag_268:\n        /* \"#utility.yul\":12247:12254   */\n      dup1\n        /* \"#utility.yul\":12278:12279   */\n      0x00\n        /* \"#utility.yul\":12263:12552   */\n    tag_270:\n        /* \"#utility.yul\":12288:12294   */\n      dup4\n        /* \"#utility.yul\":12285:12286   */\n      dup2\n        /* \"#utility.yul\":12282:12295   */\n      lt\n        /* \"#utility.yul\":12263:12552   */\n      iszero\n      tag_272\n      jumpi\n        /* \"#utility.yul\":12364:12370   */\n      dup2\n        /* \"#utility.yul\":12358:12371   */\n      mload\n        /* \"#utility.yul\":12391:12460   */\n      tag_273\n        /* \"#utility.yul\":12456:12459   */\n      dup9\n        /* \"#utility.yul\":12441:12454   */\n      dup3\n        /* \"#utility.yul\":12391:12460   */\n      tag_250\n      jump\t// in\n    tag_273:\n        /* \"#utility.yul\":12384:12460   */\n      swap8\n      pop\n        /* \"#utility.yul\":12483:12542   */\n      tag_274\n        /* \"#utility.yul\":12535:12541   */\n      dup4\n        /* \"#utility.yul\":12483:12542   */\n      tag_275\n      jump\t// in\n    tag_274:\n        /* \"#utility.yul\":12473:12542   */\n      swap3\n      pop\n        /* \"#utility.yul\":12323:12552   */\n      pop\n        /* \"#utility.yul\":12310:12311   */\n      0x01\n        /* \"#utility.yul\":12307:12308   */\n      dup2\n        /* \"#utility.yul\":12303:12312   */\n      add\n        /* \"#utility.yul\":12298:12312   */\n      swap1\n      pop\n        /* \"#utility.yul\":12263:12552   */\n      jump(tag_270)\n    tag_272:\n        /* \"#utility.yul\":12267:12281   */\n      pop\n        /* \"#utility.yul\":12568:12571   */\n      dup6\n        /* \"#utility.yul\":12561:12571   */\n      swap4\n      pop\n        /* \"#utility.yul\":11959:12577   */\n      pop\n      pop\n      pop\n      swap3\n      swap2\n      pop\n      pop\n      jump\t// out\n        /* \"#utility.yul\":12611:13339   */\n    tag_276:\n      0x00\n        /* \"#utility.yul\":12755:12808   */\n      tag_278\n        /* \"#utility.yul\":12802:12807   */\n      dup3\n        /* \"#utility.yul\":12755:12808   */\n      tag_265\n      jump\t// in\n    tag_278:\n        /* \"#utility.yul\":12824:12907   */\n      tag_279\n        /* \"#utility.yul\":12900:12906   */\n      dup2\n        /* \"#utility.yul\":12895:12898   */\n      dup6\n        /* \"#utility.yul\":12824:12907   */\n      tag_280\n      jump\t// in\n    tag_279:\n        /* \"#utility.yul\":12817:12907   */\n      swap4\n      pop\n        /* \"#utility.yul\":12931:12986   */\n      tag_281\n        /* \"#utility.yul\":12980:12985   */\n      dup4\n        /* \"#utility.yul\":12931:12986   */\n      tag_269\n      jump\t// in\n    tag_281:\n        /* \"#utility.yul\":13009:13016   */\n      dup1\n        /* \"#utility.yul\":13040:13041   */\n      0x00\n        /* \"#utility.yul\":13025:13314   */\n    tag_282:\n        /* \"#utility.yul\":13050:13056   */\n      dup4\n        /* \"#utility.yul\":13047:13048   */\n      dup2\n        /* \"#utility.yul\":13044:13057   */\n      lt\n        /* \"#utility.yul\":13025:13314   */\n      iszero\n      tag_284\n      jumpi\n        /* \"#utility.yul\":13126:13132   */\n      dup2\n        /* \"#utility.yul\":13120:13133   */\n      mload\n        /* \"#utility.yul\":13153:13222   */\n      tag_285\n        /* \"#utility.yul\":13218:13221   */\n      dup9\n        /* \"#utility.yul\":13203:13216   */\n      dup3\n        /* \"#utility.yul\":13153:13222   */\n      tag_250\n      jump\t// in\n    tag_285:\n        /* \"#utility.yul\":13146:13222   */\n      swap8\n      pop\n        /* \"#utility.yul\":13245:13304   */\n      tag_286\n        /* \"#utility.yul\":13297:13303   */\n      dup4\n        /* \"#utility.yul\":13245:13304   */\n      tag_275\n      jump\t// in\n    tag_286:\n        /* \"#utility.yul\":13235:13304   */\n      swap3\n      pop\n        /* \"#utility.yul\":13085:13314   */\n      pop\n        /* \"#utility.yul\":13072:13073   */\n      0x01\n        /* \"#utility.yul\":13069:13070   */\n      dup2\n        /* \"#utility.yul\":13065:13074   */\n      add\n        /* \"#utility.yul\":13060:13074   */\n      swap1\n      pop\n        /* \"#utility.yul\":13025:13314   */\n      jump(tag_282)\n    tag_284:\n        /* \"#utility.yul\":13029:13043   */\n      pop\n        /* \"#utility.yul\":13330:13333   */\n      dup6\n        /* \"#utility.yul\":13323:13333   */\n      swap4\n      pop\n        /* \"#utility.yul\":12731:13339   */\n      pop\n      pop\n      pop\n      swap3\n      swap2\n      pop\n      pop\n      jump\t// out\n        /* \"#utility.yul\":13375:14111   */\n    tag_287:\n      0x00\n        /* \"#utility.yul\":13521:13575   */\n      tag_289\n        /* \"#utility.yul\":13569:13574   */\n      dup3\n        /* \"#utility.yul\":13521:13575   */\n      tag_290\n      jump\t// in\n    tag_289:\n        /* \"#utility.yul\":13591:13675   */\n      tag_291\n        /* \"#utility.yul\":13668:13674   */\n      dup2\n        /* \"#utility.yul\":13663:13666   */\n      dup6\n        /* \"#utility.yul\":13591:13675   */\n      tag_292\n      jump\t// in\n    tag_291:\n        /* \"#utility.yul\":13584:13675   */\n      swap4\n      pop\n        /* \"#utility.yul\":13699:13755   */\n      tag_293\n        /* \"#utility.yul\":13749:13754   */\n      dup4\n        /* \"#utility.yul\":13699:13755   */\n      tag_294\n      jump\t// in\n    tag_293:\n        /* \"#utility.yul\":13778:13785   */\n      dup1\n        /* \"#utility.yul\":13809:13810   */\n      0x00\n        /* \"#utility.yul\":13794:14086   */\n    tag_295:\n        /* \"#utility.yul\":13819:13825   */\n      dup4\n        /* \"#utility.yul\":13816:13817   */\n      dup2\n        /* \"#utility.yul\":13813:13826   */\n      lt\n        /* \"#utility.yul\":13794:14086   */\n      iszero\n      tag_297\n      jumpi\n        /* \"#utility.yul\":13895:13901   */\n      dup2\n        /* \"#utility.yul\":13889:13902   */\n      mload\n        /* \"#utility.yul\":13922:13993   */\n      tag_298\n        /* \"#utility.yul\":13989:13992   */\n      dup9\n        /* \"#utility.yul\":13974:13987   */\n      dup3\n        /* \"#utility.yul\":13922:13993   */\n      tag_254\n      jump\t// in\n    tag_298:\n        /* \"#utility.yul\":13915:13993   */\n      swap8\n      pop\n        /* \"#utility.yul\":14016:14076   */\n      tag_299\n        /* \"#utility.yul\":14069:14075   */\n      dup4\n        /* \"#utility.yul\":14016:14076   */\n      tag_300\n      jump\t// in\n    tag_299:\n        /* \"#utility.yul\":14006:14076   */\n      swap3\n      pop\n        /* \"#utility.yul\":13854:14086   */\n      pop\n        /* \"#utility.yul\":13841:13842   */\n      0x01\n        /* \"#utility.yul\":13838:13839   */\n      dup2\n        /* \"#utility.yul\":13834:13843   */\n      add\n        /* \"#utility.yul\":13829:13843   */\n      swap1\n      pop\n        /* \"#utility.yul\":13794:14086   */\n      jump(tag_295)\n    tag_297:\n        /* \"#utility.yul\":13798:13812   */\n      pop\n        /* \"#utility.yul\":14102:14105   */\n      dup6\n        /* \"#utility.yul\":14095:14105   */\n      swap4\n      pop\n        /* \"#utility.yul\":13497:14111   */\n      pop\n      pop\n      pop\n      swap3\n      swap2\n      pop\n      pop\n      jump\t// out\n        /* \"#utility.yul\":14117:14234   */\n    tag_301:\n        /* \"#utility.yul\":14206:14227   */\n      tag_303\n        /* \"#utility.yul\":14221:14226   */\n      dup2\n        /* \"#utility.yul\":14206:14227   */\n      tag_304\n      jump\t// in\n    tag_303:\n        /* \"#utility.yul\":14201:14204   */\n      dup3\n        /* \"#utility.yul\":14194:14228   */\n      mstore\n        /* \"#utility.yul\":14184:14234   */\n      pop\n      pop\n      jump\t// out\n        /* \"#utility.yul\":14240:14347   */\n    tag_305:\n        /* \"#utility.yul\":14319:14340   */\n      tag_307\n        /* \"#utility.yul\":14334:14339   */\n      dup2\n        /* \"#utility.yul\":14319:14340   */\n      tag_304\n      jump\t// in\n    tag_307:\n        /* \"#utility.yul\":14314:14317   */\n      dup3\n        /* \"#utility.yul\":14307:14341   */\n      mstore\n        /* \"#utility.yul\":14297:14347   */\n      pop\n      pop\n      jump\t// out\n        /* \"#utility.yul\":14353:14510   */\n    tag_308:\n        /* \"#utility.yul\":14452:14503   */\n      tag_310\n        /* \"#utility.yul\":14497:14502   */\n      dup2\n        /* \"#utility.yul\":14452:14503   */\n      tag_311\n      jump\t// in\n    tag_310:\n        /* \"#utility.yul\":14447:14450   */\n      dup3\n        /* \"#utility.yul\":14440:14504   */\n      mstore\n        /* \"#utility.yul\":14430:14510   */\n      pop\n      pop\n      jump\t// out\n        /* \"#utility.yul\":14516:14671   */\n    tag_312:\n        /* \"#utility.yul\":14614:14664   */\n      tag_314\n        /* \"#utility.yul\":14658:14663   */\n      dup2\n        /* \"#utility.yul\":14614:14664   */\n      tag_315\n      jump\t// in\n    tag_314:\n        /* \"#utility.yul\":14609:14612   */\n      dup3\n        /* \"#utility.yul\":14602:14665   */\n      mstore\n        /* \"#utility.yul\":14592:14671   */\n      pop\n      pop\n      jump\t// out\n        /* \"#utility.yul\":14677:14836   */\n    tag_316:\n        /* \"#utility.yul\":14782:14829   */\n      tag_318\n        /* \"#utility.yul\":14823:14828   */\n      dup2\n        /* \"#utility.yul\":14782:14829   */\n      tag_319\n      jump\t// in\n    tag_318:\n        /* \"#utility.yul\":14777:14780   */\n      dup3\n        /* \"#utility.yul\":14770:14830   */\n      mstore\n        /* \"#utility.yul\":14760:14836   */\n      pop\n      pop\n      jump\t// out\n        /* \"#utility.yul\":14842:14991   */\n    tag_320:\n        /* \"#utility.yul\":14937:14984   */\n      tag_322\n        /* \"#utility.yul\":14978:14983   */\n      dup2\n        /* \"#utility.yul\":14937:14984   */\n      tag_319\n      jump\t// in\n    tag_322:\n        /* \"#utility.yul\":14932:14935   */\n      dup3\n        /* \"#utility.yul\":14925:14985   */\n      mstore\n        /* \"#utility.yul\":14915:14991   */\n      pop\n      pop\n      jump\t// out\n        /* \"#utility.yul\":14997:15120   */\n    tag_323:\n        /* \"#utility.yul\":15090:15113   */\n      tag_325\n        /* \"#utility.yul\":15107:15112   */\n      dup2\n        /* \"#utility.yul\":15090:15113   */\n      tag_326\n      jump\t// in\n    tag_325:\n        /* \"#utility.yul\":15085:15088   */\n      dup3\n        /* \"#utility.yul\":15078:15114   */\n      mstore\n        /* \"#utility.yul\":15068:15120   */\n      pop\n      pop\n      jump\t// out\n        /* \"#utility.yul\":15126:15239   */\n    tag_253:\n        /* \"#utility.yul\":15209:15232   */\n      tag_328\n        /* \"#utility.yul\":15226:15231   */\n      dup2\n        /* \"#utility.yul\":15209:15232   */\n      tag_326\n      jump\t// in\n    tag_328:\n        /* \"#utility.yul\":15204:15207   */\n      dup3\n        /* \"#utility.yul\":15197:15233   */\n      mstore\n        /* \"#utility.yul\":15187:15239   */\n      pop\n      pop\n      jump\t// out\n        /* \"#utility.yul\":15245:15609   */\n    tag_329:\n      0x00\n        /* \"#utility.yul\":15361:15400   */\n      tag_331\n        /* \"#utility.yul\":15394:15399   */\n      dup3\n        /* \"#utility.yul\":15361:15400   */\n      tag_332\n      jump\t// in\n    tag_331:\n        /* \"#utility.yul\":15416:15487   */\n      tag_333\n        /* \"#utility.yul\":15480:15486   */\n      dup2\n        /* \"#utility.yul\":15475:15478   */\n      dup6\n        /* \"#utility.yul\":15416:15487   */\n      tag_334\n      jump\t// in\n    tag_333:\n        /* \"#utility.yul\":15409:15487   */\n      swap4\n      pop\n        /* \"#utility.yul\":15496:15548   */\n      tag_335\n        /* \"#utility.yul\":15541:15547   */\n      dup2\n        /* \"#utility.yul\":15536:15539   */\n      dup6\n        /* \"#utility.yul\":15529:15533   */\n      0x20\n        /* \"#utility.yul\":15522:15527   */\n      dup7\n        /* \"#utility.yul\":15518:15534   */\n      add\n        /* \"#utility.yul\":15496:15548   */\n      tag_336\n      jump\t// in\n    tag_335:\n        /* \"#utility.yul\":15573:15602   */\n      tag_337\n        /* \"#utility.yul\":15595:15601   */\n      dup2\n        /* \"#utility.yul\":15573:15602   */\n      tag_338\n      jump\t// in\n    tag_337:\n        /* \"#utility.yul\":15568:15571   */\n      dup5\n        /* \"#utility.yul\":15564:15603   */\n      add\n        /* \"#utility.yul\":15557:15603   */\n      swap2\n      pop\n        /* \"#utility.yul\":15337:15609   */\n      pop\n      swap3\n      swap2\n      pop\n      pop\n      jump\t// out\n        /* \"#utility.yul\":15615:15995   */\n    tag_339:\n      0x00\n        /* \"#utility.yul\":15739:15778   */\n      tag_341\n        /* \"#utility.yul\":15772:15777   */\n      dup3\n        /* \"#utility.yul\":15739:15778   */\n      tag_332\n      jump\t// in\n    tag_341:\n        /* \"#utility.yul\":15794:15873   */\n      tag_342\n        /* \"#utility.yul\":15866:15872   */\n      dup2\n        /* \"#utility.yul\":15861:15864   */\n      dup6\n        /* \"#utility.yul\":15794:15873   */\n      tag_343\n      jump\t// in\n    tag_342:\n        /* \"#utility.yul\":15787:15873   */\n      swap4\n      pop\n        /* \"#utility.yul\":15882:15934   */\n      tag_344\n        /* \"#utility.yul\":15927:15933   */\n      dup2\n        /* \"#utility.yul\":15922:15925   */\n      dup6\n        /* \"#utility.yul\":15915:15919   */\n      0x20\n        /* \"#utility.yul\":15908:15913   */\n      dup7\n        /* \"#utility.yul\":15904:15920   */\n      add\n        /* \"#utility.yul\":15882:15934   */\n      tag_336\n      jump\t// in\n    tag_344:\n        /* \"#utility.yul\":15959:15988   */\n      tag_345\n        /* \"#utility.yul\":15981:15987   */\n      dup2\n        /* \"#utility.yul\":15959:15988   */\n      tag_338\n      jump\t// in\n    tag_345:\n        /* \"#utility.yul\":15954:15957   */\n      dup5\n        /* \"#utility.yul\":15950:15989   */\n      add\n        /* \"#utility.yul\":15943:15989   */\n      swap2\n      pop\n        /* \"#utility.yul\":15715:15995   */\n      pop\n      swap3\n      swap2\n      pop\n      pop\n      jump\t// out\n        /* \"#utility.yul\":16001:16361   */\n    tag_346:\n      0x00\n        /* \"#utility.yul\":16115:16154   */\n      tag_348\n        /* \"#utility.yul\":16148:16153   */\n      dup3\n        /* \"#utility.yul\":16115:16154   */\n      tag_332\n      jump\t// in\n    tag_348:\n        /* \"#utility.yul\":16170:16239   */\n      tag_349\n        /* \"#utility.yul\":16232:16238   */\n      dup2\n        /* \"#utility.yul\":16227:16230   */\n      dup6\n        /* \"#utility.yul\":16170:16239   */\n      tag_350\n      jump\t// in\n    tag_349:\n        /* \"#utility.yul\":16163:16239   */\n      swap4\n      pop\n        /* \"#utility.yul\":16248:16300   */\n      tag_351\n        /* \"#utility.yul\":16293:16299   */\n      dup2\n        /* \"#utility.yul\":16288:16291   */\n      dup6\n        /* \"#utility.yul\":16281:16285   */\n      0x20\n        /* \"#utility.yul\":16274:16279   */\n      dup7\n        /* \"#utility.yul\":16270:16286   */\n      add\n        /* \"#utility.yul\":16248:16300   */\n      tag_336\n      jump\t// in\n    tag_351:\n        /* \"#utility.yul\":16325:16354   */\n      tag_352\n        /* \"#utility.yul\":16347:16353   */\n      dup2\n        /* \"#utility.yul\":16325:16354   */\n      tag_338\n      jump\t// in\n    tag_352:\n        /* \"#utility.yul\":16320:16323   */\n      dup5\n        /* \"#utility.yul\":16316:16355   */\n      add\n        /* \"#utility.yul\":16309:16355   */\n      swap2\n      pop\n        /* \"#utility.yul\":16091:16361   */\n      pop\n      swap3\n      swap2\n      pop\n      pop\n      jump\t// out\n        /* \"#utility.yul\":16367:16744   */\n    tag_353:\n      0x00\n        /* \"#utility.yul\":16501:16540   */\n      tag_355\n        /* \"#utility.yul\":16534:16539   */\n      dup3\n        /* \"#utility.yul\":16501:16540   */\n      tag_332\n      jump\t// in\n    tag_355:\n        /* \"#utility.yul\":16556:16645   */\n      tag_356\n        /* \"#utility.yul\":16638:16644   */\n      dup2\n        /* \"#utility.yul\":16633:16636   */\n      dup6\n        /* \"#utility.yul\":16556:16645   */\n      tag_357\n      jump\t// in\n    tag_356:\n        /* \"#utility.yul\":16549:16645   */\n      swap4\n      pop\n        /* \"#utility.yul\":16654:16706   */\n      tag_358\n        /* \"#utility.yul\":16699:16705   */\n      dup2\n        /* \"#utility.yul\":16694:16697   */\n      dup6\n        /* \"#utility.yul\":16687:16691   */\n      0x20\n        /* \"#utility.yul\":16680:16685   */\n      dup7\n        /* \"#utility.yul\":16676:16692   */\n      add\n        /* \"#utility.yul\":16654:16706   */\n      tag_336\n      jump\t// in\n    tag_358:\n        /* \"#utility.yul\":16731:16737   */\n      dup1\n        /* \"#utility.yul\":16726:16729   */\n      dup5\n        /* \"#utility.yul\":16722:16738   */\n      add\n        /* \"#utility.yul\":16715:16738   */\n      swap2\n      pop\n        /* \"#utility.yul\":16477:16744   */\n      pop\n      swap3\n      swap2\n      pop\n      pop\n      jump\t// out\n        /* \"#utility.yul\":16750:17080   */\n    tag_359:\n      0x00\n        /* \"#utility.yul\":16913:16980   */\n      tag_361\n        /* \"#utility.yul\":16977:16979   */\n      0x20\n        /* \"#utility.yul\":16972:16975   */\n      dup4\n        /* \"#utility.yul\":16913:16980   */\n      tag_334\n      jump\t// in\n    tag_361:\n        /* \"#utility.yul\":16906:16980   */\n      swap2\n      pop\n        /* \"#utility.yul\":17010:17044   */\n      0x50726f63657373205661726961626c65206973206e6f7420636f72726563742e\n        /* \"#utility.yul\":17006:17007   */\n      0x00\n        /* \"#utility.yul\":17001:17004   */\n      dup4\n        /* \"#utility.yul\":16997:17008   */\n      add\n        /* \"#utility.yul\":16990:17045   */\n      mstore\n        /* \"#utility.yul\":17071:17073   */\n      0x20\n        /* \"#utility.yul\":17066:17069   */\n      dup3\n        /* \"#utility.yul\":17062:17074   */\n      add\n        /* \"#utility.yul\":17055:17074   */\n      swap1\n      pop\n        /* \"#utility.yul\":16896:17080   */\n      swap2\n      swap1\n      pop\n      jump\t// out\n        /* \"#utility.yul\":17150:17778   */\n    tag_362:\n      0x00\n        /* \"#utility.yul\":17309:17313   */\n      0x40\n        /* \"#utility.yul\":17304:17307   */\n      dup4\n        /* \"#utility.yul\":17300:17314   */\n      add\n        /* \"#utility.yul\":17394:17398   */\n      0x00\n        /* \"#utility.yul\":17387:17392   */\n      dup4\n        /* \"#utility.yul\":17383:17399   */\n      add\n        /* \"#utility.yul\":17377:17400   */\n      mload\n        /* \"#utility.yul\":17413:17484   */\n      tag_364\n        /* \"#utility.yul\":17478:17482   */\n      0x00\n        /* \"#utility.yul\":17473:17476   */\n      dup7\n        /* \"#utility.yul\":17469:17483   */\n      add\n        /* \"#utility.yul\":17455:17467   */\n      dup3\n        /* \"#utility.yul\":17413:17484   */\n      tag_257\n      jump\t// in\n    tag_364:\n        /* \"#utility.yul\":17324:17494   */\n      pop\n        /* \"#utility.yul\":17580:17584   */\n      0x20\n        /* \"#utility.yul\":17573:17578   */\n      dup4\n        /* \"#utility.yul\":17569:17585   */\n      add\n        /* \"#utility.yul\":17563:17586   */\n      mload\n        /* \"#utility.yul\":17633:17636   */\n      dup5\n        /* \"#utility.yul\":17627:17631   */\n      dup3\n        /* \"#utility.yul\":17623:17637   */\n      sub\n        /* \"#utility.yul\":17616:17620   */\n      0x20\n        /* \"#utility.yul\":17611:17614   */\n      dup7\n        /* \"#utility.yul\":17607:17621   */\n      add\n        /* \"#utility.yul\":17600:17638   */\n      mstore\n        /* \"#utility.yul\":17659:17740   */\n      tag_365\n        /* \"#utility.yul\":17735:17739   */\n      dup3\n        /* \"#utility.yul\":17721:17733   */\n      dup3\n        /* \"#utility.yul\":17659:17740   */\n      tag_346\n      jump\t// in\n    tag_365:\n        /* \"#utility.yul\":17651:17740   */\n      swap2\n      pop\n        /* \"#utility.yul\":17504:17751   */\n      pop\n        /* \"#utility.yul\":17768:17772   */\n      dup1\n        /* \"#utility.yul\":17761:17772   */\n      swap2\n      pop\n        /* \"#utility.yul\":17278:17778   */\n      pop\n      swap3\n      swap2\n      pop\n      pop\n      jump\t// out\n        /* \"#utility.yul\":17860:19994   */\n    tag_366:\n      0x00\n        /* \"#utility.yul\":18013:18019   */\n      0x0120\n        /* \"#utility.yul\":18008:18011   */\n      dup4\n        /* \"#utility.yul\":18004:18020   */\n      add\n        /* \"#utility.yul\":18105:18109   */\n      0x00\n        /* \"#utility.yul\":18098:18103   */\n      dup4\n        /* \"#utility.yul\":18094:18110   */\n      add\n        /* \"#utility.yul\":18088:18111   */\n      mload\n        /* \"#utility.yul\":18124:18195   */\n      tag_368\n        /* \"#utility.yul\":18189:18193   */\n      0x00\n        /* \"#utility.yul\":18184:18187   */\n      dup7\n        /* \"#utility.yul\":18180:18194   */\n      add\n        /* \"#utility.yul\":18166:18178   */\n      dup3\n        /* \"#utility.yul\":18124:18195   */\n      tag_257\n      jump\t// in\n    tag_368:\n        /* \"#utility.yul\":18030:18205   */\n      pop\n        /* \"#utility.yul\":18294:18298   */\n      0x20\n        /* \"#utility.yul\":18287:18292   */\n      dup4\n        /* \"#utility.yul\":18283:18299   */\n      add\n        /* \"#utility.yul\":18277:18300   */\n      mload\n        /* \"#utility.yul\":18313:18397   */\n      tag_369\n        /* \"#utility.yul\":18391:18395   */\n      0x20\n        /* \"#utility.yul\":18386:18389   */\n      dup7\n        /* \"#utility.yul\":18382:18396   */\n      add\n        /* \"#utility.yul\":18368:18380   */\n      dup3\n        /* \"#utility.yul\":18313:18397   */\n      tag_312\n      jump\t// in\n    tag_369:\n        /* \"#utility.yul\":18215:18407   */\n      pop\n        /* \"#utility.yul\":18490:18494   */\n      0x40\n        /* \"#utility.yul\":18483:18488   */\n      dup4\n        /* \"#utility.yul\":18479:18495   */\n      add\n        /* \"#utility.yul\":18473:18496   */\n      mload\n        /* \"#utility.yul\":18509:18594   */\n      tag_370\n        /* \"#utility.yul\":18588:18592   */\n      0x40\n        /* \"#utility.yul\":18583:18586   */\n      dup7\n        /* \"#utility.yul\":18579:18593   */\n      add\n        /* \"#utility.yul\":18565:18577   */\n      dup3\n        /* \"#utility.yul\":18509:18594   */\n      tag_308\n      jump\t// in\n    tag_370:\n        /* \"#utility.yul\":18417:18604   */\n      pop\n        /* \"#utility.yul\":18691:18695   */\n      0x60\n        /* \"#utility.yul\":18684:18689   */\n      dup4\n        /* \"#utility.yul\":18680:18696   */\n      add\n        /* \"#utility.yul\":18674:18697   */\n      mload\n        /* \"#utility.yul\":18710:18775   */\n      tag_371\n        /* \"#utility.yul\":18769:18773   */\n      0x60\n        /* \"#utility.yul\":18764:18767   */\n      dup7\n        /* \"#utility.yul\":18760:18774   */\n      add\n        /* \"#utility.yul\":18746:18758   */\n      dup3\n        /* \"#utility.yul\":18710:18775   */\n      tag_305\n      jump\t// in\n    tag_371:\n        /* \"#utility.yul\":18614:18785   */\n      pop\n        /* \"#utility.yul\":18869:18873   */\n      0x80\n        /* \"#utility.yul\":18862:18867   */\n      dup4\n        /* \"#utility.yul\":18858:18874   */\n      add\n        /* \"#utility.yul\":18852:18875   */\n      mload\n        /* \"#utility.yul\":18888:18953   */\n      tag_372\n        /* \"#utility.yul\":18947:18951   */\n      0x80\n        /* \"#utility.yul\":18942:18945   */\n      dup7\n        /* \"#utility.yul\":18938:18952   */\n      add\n        /* \"#utility.yul\":18924:18936   */\n      dup3\n        /* \"#utility.yul\":18888:18953   */\n      tag_305\n      jump\t// in\n    tag_372:\n        /* \"#utility.yul\":18795:18963   */\n      pop\n        /* \"#utility.yul\":19049:19053   */\n      0xa0\n        /* \"#utility.yul\":19042:19047   */\n      dup4\n        /* \"#utility.yul\":19038:19054   */\n      add\n        /* \"#utility.yul\":19032:19055   */\n      mload\n        /* \"#utility.yul\":19068:19149   */\n      tag_373\n        /* \"#utility.yul\":19143:19147   */\n      0xa0\n        /* \"#utility.yul\":19138:19141   */\n      dup7\n        /* \"#utility.yul\":19134:19148   */\n      add\n        /* \"#utility.yul\":19120:19132   */\n      dup3\n        /* \"#utility.yul\":19068:19149   */\n      tag_320\n      jump\t// in\n    tag_373:\n        /* \"#utility.yul\":18973:19159   */\n      pop\n        /* \"#utility.yul\":19252:19256   */\n      0xc0\n        /* \"#utility.yul\":19245:19250   */\n      dup4\n        /* \"#utility.yul\":19241:19257   */\n      add\n        /* \"#utility.yul\":19235:19258   */\n      mload\n        /* \"#utility.yul\":19305:19308   */\n      dup5\n        /* \"#utility.yul\":19299:19303   */\n      dup3\n        /* \"#utility.yul\":19295:19309   */\n      sub\n        /* \"#utility.yul\":19288:19292   */\n      0xc0\n        /* \"#utility.yul\":19283:19286   */\n      dup7\n        /* \"#utility.yul\":19279:19293   */\n      add\n        /* \"#utility.yul\":19272:19310   */\n      mstore\n        /* \"#utility.yul\":19331:19412   */\n      tag_374\n        /* \"#utility.yul\":19407:19411   */\n      dup3\n        /* \"#utility.yul\":19393:19405   */\n      dup3\n        /* \"#utility.yul\":19331:19412   */\n      tag_346\n      jump\t// in\n    tag_374:\n        /* \"#utility.yul\":19323:19412   */\n      swap2\n      pop\n        /* \"#utility.yul\":19169:19423   */\n      pop\n        /* \"#utility.yul\":19508:19512   */\n      0xe0\n        /* \"#utility.yul\":19501:19506   */\n      dup4\n        /* \"#utility.yul\":19497:19513   */\n      add\n        /* \"#utility.yul\":19491:19514   */\n      mload\n        /* \"#utility.yul\":19561:19564   */\n      dup5\n        /* \"#utility.yul\":19555:19559   */\n      dup3\n        /* \"#utility.yul\":19551:19565   */\n      sub\n        /* \"#utility.yul\":19544:19548   */\n      0xe0\n        /* \"#utility.yul\":19539:19542   */\n      dup7\n        /* \"#utility.yul\":19535:19549   */\n      add\n        /* \"#utility.yul\":19528:19566   */\n      mstore\n        /* \"#utility.yul\":19587:19668   */\n      tag_375\n        /* \"#utility.yul\":19663:19667   */\n      dup3\n        /* \"#utility.yul\":19649:19661   */\n      dup3\n        /* \"#utility.yul\":19587:19668   */\n      tag_346\n      jump\t// in\n    tag_375:\n        /* \"#utility.yul\":19579:19668   */\n      swap2\n      pop\n        /* \"#utility.yul\":19433:19679   */\n      pop\n        /* \"#utility.yul\":19764:19770   */\n      0x0100\n        /* \"#utility.yul\":19757:19762   */\n      dup4\n        /* \"#utility.yul\":19753:19771   */\n      add\n        /* \"#utility.yul\":19747:19772   */\n      mload\n        /* \"#utility.yul\":19821:19824   */\n      dup5\n        /* \"#utility.yul\":19815:19819   */\n      dup3\n        /* \"#utility.yul\":19811:19825   */\n      sub\n        /* \"#utility.yul\":19802:19808   */\n      0x0100\n        /* \"#utility.yul\":19797:19800   */\n      dup7\n        /* \"#utility.yul\":19793:19809   */\n      add\n        /* \"#utility.yul\":19786:19826   */\n      mstore\n        /* \"#utility.yul\":19847:19956   */\n      tag_376\n        /* \"#utility.yul\":19951:19955   */\n      dup3\n        /* \"#utility.yul\":19937:19949   */\n      dup3\n        /* \"#utility.yul\":19847:19956   */\n      tag_276\n      jump\t// in\n    tag_376:\n        /* \"#utility.yul\":19839:19956   */\n      swap2\n      pop\n        /* \"#utility.yul\":19689:19967   */\n      pop\n        /* \"#utility.yul\":19984:19988   */\n      dup1\n        /* \"#utility.yul\":19977:19988   */\n      swap2\n      pop\n        /* \"#utility.yul\":17982:19994   */\n      pop\n      swap3\n      swap2\n      pop\n      pop\n      jump\t// out\n        /* \"#utility.yul\":20060:21958   */\n    tag_377:\n      0x00\n        /* \"#utility.yul\":20215:20219   */\n      0xe0\n        /* \"#utility.yul\":20210:20213   */\n      dup4\n        /* \"#utility.yul\":20206:20220   */\n      add\n        /* \"#utility.yul\":20306:20310   */\n      0x00\n        /* \"#utility.yul\":20299:20304   */\n      dup4\n        /* \"#utility.yul\":20295:20311   */\n      add\n        /* \"#utility.yul\":20289:20312   */\n      mload\n        /* \"#utility.yul\":20359:20362   */\n      dup5\n        /* \"#utility.yul\":20353:20357   */\n      dup3\n        /* \"#utility.yul\":20349:20363   */\n      sub\n        /* \"#utility.yul\":20342:20346   */\n      0x00\n        /* \"#utility.yul\":20337:20340   */\n      dup7\n        /* \"#utility.yul\":20333:20347   */\n      add\n        /* \"#utility.yul\":20326:20364   */\n      mstore\n        /* \"#utility.yul\":20385:20466   */\n      tag_379\n        /* \"#utility.yul\":20461:20465   */\n      dup3\n        /* \"#utility.yul\":20447:20459   */\n      dup3\n        /* \"#utility.yul\":20385:20466   */\n      tag_346\n      jump\t// in\n    tag_379:\n        /* \"#utility.yul\":20377:20466   */\n      swap2\n      pop\n        /* \"#utility.yul\":20230:20477   */\n      pop\n        /* \"#utility.yul\":20567:20571   */\n      0x20\n        /* \"#utility.yul\":20560:20565   */\n      dup4\n        /* \"#utility.yul\":20556:20572   */\n      add\n        /* \"#utility.yul\":20550:20573   */\n      mload\n        /* \"#utility.yul\":20586:20657   */\n      tag_380\n        /* \"#utility.yul\":20651:20655   */\n      0x20\n        /* \"#utility.yul\":20646:20649   */\n      dup7\n        /* \"#utility.yul\":20642:20656   */\n      add\n        /* \"#utility.yul\":20628:20640   */\n      dup3\n        /* \"#utility.yul\":20586:20657   */\n      tag_258\n      jump\t// in\n    tag_380:\n        /* \"#utility.yul\":20487:20667   */\n      pop\n        /* \"#utility.yul\":20754:20758   */\n      0x40\n        /* \"#utility.yul\":20747:20752   */\n      dup4\n        /* \"#utility.yul\":20743:20759   */\n      add\n        /* \"#utility.yul\":20737:20760   */\n      mload\n        /* \"#utility.yul\":20773:20838   */\n      tag_381\n        /* \"#utility.yul\":20832:20836   */\n      0x40\n        /* \"#utility.yul\":20827:20830   */\n      dup7\n        /* \"#utility.yul\":20823:20837   */\n      add\n        /* \"#utility.yul\":20809:20821   */\n      dup3\n        /* \"#utility.yul\":20773:20838   */\n      tag_305\n      jump\t// in\n    tag_381:\n        /* \"#utility.yul\":20677:20848   */\n      pop\n        /* \"#utility.yul\":20950:20954   */\n      0x60\n        /* \"#utility.yul\":20943:20948   */\n      dup4\n        /* \"#utility.yul\":20939:20955   */\n      add\n        /* \"#utility.yul\":20933:20956   */\n      mload\n        /* \"#utility.yul\":20969:21053   */\n      tag_382\n        /* \"#utility.yul\":21047:21051   */\n      0x60\n        /* \"#utility.yul\":21042:21045   */\n      dup7\n        /* \"#utility.yul\":21038:21052   */\n      add\n        /* \"#utility.yul\":21024:21036   */\n      dup3\n        /* \"#utility.yul\":20969:21053   */\n      tag_312\n      jump\t// in\n    tag_382:\n        /* \"#utility.yul\":20858:21063   */\n      pop\n        /* \"#utility.yul\":21153:21157   */\n      0x80\n        /* \"#utility.yul\":21146:21151   */\n      dup4\n        /* \"#utility.yul\":21142:21158   */\n      add\n        /* \"#utility.yul\":21136:21159   */\n      mload\n        /* \"#utility.yul\":21206:21209   */\n      dup5\n        /* \"#utility.yul\":21200:21204   */\n      dup3\n        /* \"#utility.yul\":21196:21210   */\n      sub\n        /* \"#utility.yul\":21189:21193   */\n      0x80\n        /* \"#utility.yul\":21184:21187   */\n      dup7\n        /* \"#utility.yul\":21180:21194   */\n      add\n        /* \"#utility.yul\":21173:21211   */\n      mstore\n        /* \"#utility.yul\":21232:21343   */\n      tag_383\n        /* \"#utility.yul\":21338:21342   */\n      dup3\n        /* \"#utility.yul\":21324:21336   */\n      dup3\n        /* \"#utility.yul\":21232:21343   */\n      tag_287\n      jump\t// in\n    tag_383:\n        /* \"#utility.yul\":21224:21343   */\n      swap2\n      pop\n        /* \"#utility.yul\":21073:21354   */\n      pop\n        /* \"#utility.yul\":21443:21447   */\n      0xa0\n        /* \"#utility.yul\":21436:21441   */\n      dup4\n        /* \"#utility.yul\":21432:21448   */\n      add\n        /* \"#utility.yul\":21426:21449   */\n      mload\n        /* \"#utility.yul\":21496:21499   */\n      dup5\n        /* \"#utility.yul\":21490:21494   */\n      dup3\n        /* \"#utility.yul\":21486:21500   */\n      sub\n        /* \"#utility.yul\":21479:21483   */\n      0xa0\n        /* \"#utility.yul\":21474:21477   */\n      dup7\n        /* \"#utility.yul\":21470:21484   */\n      add\n        /* \"#utility.yul\":21463:21501   */\n      mstore\n        /* \"#utility.yul\":21522:21633   */\n      tag_384\n        /* \"#utility.yul\":21628:21632   */\n      dup3\n        /* \"#utility.yul\":21614:21626   */\n      dup3\n        /* \"#utility.yul\":21522:21633   */\n      tag_287\n      jump\t// in\n    tag_384:\n        /* \"#utility.yul\":21514:21633   */\n      swap2\n      pop\n        /* \"#utility.yul\":21364:21644   */\n      pop\n        /* \"#utility.yul\":21730:21734   */\n      0xc0\n        /* \"#utility.yul\":21723:21728   */\n      dup4\n        /* \"#utility.yul\":21719:21735   */\n      add\n        /* \"#utility.yul\":21713:21736   */\n      mload\n        /* \"#utility.yul\":21783:21786   */\n      dup5\n        /* \"#utility.yul\":21777:21781   */\n      dup3\n        /* \"#utility.yul\":21773:21787   */\n      sub\n        /* \"#utility.yul\":21766:21770   */\n      0xc0\n        /* \"#utility.yul\":21761:21764   */\n      dup7\n        /* \"#utility.yul\":21757:21771   */\n      add\n        /* \"#utility.yul\":21750:21788   */\n      mstore\n        /* \"#utility.yul\":21809:21920   */\n      tag_385\n        /* \"#utility.yul\":21915:21919   */\n      dup3\n        /* \"#utility.yul\":21901:21913   */\n      dup3\n        /* \"#utility.yul\":21809:21920   */\n      tag_366\n      jump\t// in\n    tag_385:\n        /* \"#utility.yul\":21801:21920   */\n      swap2\n      pop\n        /* \"#utility.yul\":21654:21931   */\n      pop\n        /* \"#utility.yul\":21948:21952   */\n      dup1\n        /* \"#utility.yul\":21941:21952   */\n      swap2\n      pop\n        /* \"#utility.yul\":20184:21958   */\n      pop\n      swap3\n      swap2\n      pop\n      pop\n      jump\t// out\n        /* \"#utility.yul\":21964:22090   */\n    tag_386:\n        /* \"#utility.yul\":22059:22083   */\n      tag_388\n        /* \"#utility.yul\":22077:22082   */\n      dup2\n        /* \"#utility.yul\":22059:22083   */\n      tag_389\n      jump\t// in\n    tag_388:\n        /* \"#utility.yul\":22054:22057   */\n      dup3\n        /* \"#utility.yul\":22047:22084   */\n      mstore\n        /* \"#utility.yul\":22037:22090   */\n      pop\n      pop\n      jump\t// out\n        /* \"#utility.yul\":22096:22212   */\n    tag_257:\n        /* \"#utility.yul\":22181:22205   */\n      tag_391\n        /* \"#utility.yul\":22199:22204   */\n      dup2\n        /* \"#utility.yul\":22181:22205   */\n      tag_389\n      jump\t// in\n    tag_391:\n        /* \"#utility.yul\":22176:22179   */\n      dup3\n        /* \"#utility.yul\":22169:22206   */\n      mstore\n        /* \"#utility.yul\":22159:22212   */\n      pop\n      pop\n      jump\t// out\n        /* \"#utility.yul\":22218:22493   */\n    tag_44:\n      0x00\n        /* \"#utility.yul\":22372:22467   */\n      tag_393\n        /* \"#utility.yul\":22463:22466   */\n      dup3\n        /* \"#utility.yul\":22454:22460   */\n      dup5\n        /* \"#utility.yul\":22372:22467   */\n      tag_353\n      jump\t// in\n    tag_393:\n        /* \"#utility.yul\":22365:22467   */\n      swap2\n      pop\n        /* \"#utility.yul\":22484:22487   */\n      dup2\n        /* \"#utility.yul\":22477:22487   */\n      swap1\n      pop\n        /* \"#utility.yul\":22354:22493   */\n      swap3\n      swap2\n      pop\n      pop\n      jump\t// out\n        /* \"#utility.yul\":22499:22725   */\n    tag_23:\n      0x00\n        /* \"#utility.yul\":22632:22634   */\n      0x20\n        /* \"#utility.yul\":22621:22630   */\n      dup3\n        /* \"#utility.yul\":22617:22635   */\n      add\n        /* \"#utility.yul\":22609:22635   */\n      swap1\n      pop\n        /* \"#utility.yul\":22645:22718   */\n      tag_395\n        /* \"#utility.yul\":22715:22716   */\n      0x00\n        /* \"#utility.yul\":22704:22713   */\n      dup4\n        /* \"#utility.yul\":22700:22717   */\n      add\n        /* \"#utility.yul\":22691:22697   */\n      dup5\n        /* \"#utility.yul\":22645:22718   */\n      tag_301\n      jump\t// in\n    tag_395:\n        /* \"#utility.yul\":22599:22725   */\n      swap3\n      swap2\n      pop\n      pop\n      jump\t// out\n        /* \"#utility.yul\":22731:23075   */\n    tag_29:\n      0x00\n        /* \"#utility.yul\":22892:22894   */\n      0x40\n        /* \"#utility.yul\":22881:22890   */\n      dup3\n        /* \"#utility.yul\":22877:22895   */\n      add\n        /* \"#utility.yul\":22869:22895   */\n      swap1\n      pop\n        /* \"#utility.yul\":22905:22978   */\n      tag_397\n        /* \"#utility.yul\":22975:22976   */\n      0x00\n        /* \"#utility.yul\":22964:22973   */\n      dup4\n        /* \"#utility.yul\":22960:22977   */\n      add\n        /* \"#utility.yul\":22951:22957   */\n      dup6\n        /* \"#utility.yul\":22905:22978   */\n      tag_301\n      jump\t// in\n    tag_397:\n        /* \"#utility.yul\":22988:23068   */\n      tag_398\n        /* \"#utility.yul\":23064:23066   */\n      0x20\n        /* \"#utility.yul\":23053:23062   */\n      dup4\n        /* \"#utility.yul\":23049:23067   */\n      add\n        /* \"#utility.yul\":23040:23046   */\n      dup5\n        /* \"#utility.yul\":22988:23068   */\n      tag_386\n      jump\t// in\n    tag_398:\n        /* \"#utility.yul\":22859:23075   */\n      swap4\n      swap3\n      pop\n      pop\n      pop\n      jump\t// out\n        /* \"#utility.yul\":23081:23718   */\n    tag_64:\n      0x00\n        /* \"#utility.yul\":23332:23334   */\n      0x60\n        /* \"#utility.yul\":23321:23330   */\n      dup3\n        /* \"#utility.yul\":23317:23335   */\n      add\n        /* \"#utility.yul\":23309:23335   */\n      swap1\n      pop\n        /* \"#utility.yul\":23345:23422   */\n      tag_400\n        /* \"#utility.yul\":23419:23420   */\n      0x00\n        /* \"#utility.yul\":23408:23417   */\n      dup4\n        /* \"#utility.yul\":23404:23421   */\n      add\n        /* \"#utility.yul\":23395:23401   */\n      dup7\n        /* \"#utility.yul\":23345:23422   */\n      tag_323\n      jump\t// in\n    tag_400:\n        /* \"#utility.yul\":23469:23478   */\n      dup2\n        /* \"#utility.yul\":23463:23467   */\n      dup2\n        /* \"#utility.yul\":23459:23479   */\n      sub\n        /* \"#utility.yul\":23454:23456   */\n      0x20\n        /* \"#utility.yul\":23443:23452   */\n      dup4\n        /* \"#utility.yul\":23439:23457   */\n      add\n        /* \"#utility.yul\":23432:23480   */\n      mstore\n        /* \"#utility.yul\":23497:23611   */\n      tag_401\n        /* \"#utility.yul\":23606:23610   */\n      dup2\n        /* \"#utility.yul\":23597:23603   */\n      dup6\n        /* \"#utility.yul\":23497:23611   */\n      tag_262\n      jump\t// in\n    tag_401:\n        /* \"#utility.yul\":23489:23611   */\n      swap1\n      pop\n        /* \"#utility.yul\":23621:23711   */\n      tag_402\n        /* \"#utility.yul\":23707:23709   */\n      0x40\n        /* \"#utility.yul\":23696:23705   */\n      dup4\n        /* \"#utility.yul\":23692:23710   */\n      add\n        /* \"#utility.yul\":23683:23689   */\n      dup5\n        /* \"#utility.yul\":23621:23711   */\n      tag_316\n      jump\t// in\n    tag_402:\n        /* \"#utility.yul\":23299:23718   */\n      swap5\n      swap4\n      pop\n      pop\n      pop\n      pop\n      jump\t// out\n        /* \"#utility.yul\":23724:24037   */\n    tag_73:\n      0x00\n        /* \"#utility.yul\":23875:23877   */\n      0x20\n        /* \"#utility.yul\":23864:23873   */\n      dup3\n        /* \"#utility.yul\":23860:23878   */\n      add\n        /* \"#utility.yul\":23852:23878   */\n      swap1\n      pop\n        /* \"#utility.yul\":23924:23933   */\n      dup2\n        /* \"#utility.yul\":23918:23922   */\n      dup2\n        /* \"#utility.yul\":23914:23934   */\n      sub\n        /* \"#utility.yul\":23910:23911   */\n      0x00\n        /* \"#utility.yul\":23899:23908   */\n      dup4\n        /* \"#utility.yul\":23895:23912   */\n      add\n        /* \"#utility.yul\":23888:23935   */\n      mstore\n        /* \"#utility.yul\":23952:24030   */\n      tag_404\n        /* \"#utility.yul\":24025:24029   */\n      dup2\n        /* \"#utility.yul\":24016:24022   */\n      dup5\n        /* \"#utility.yul\":23952:24030   */\n      tag_329\n      jump\t// in\n    tag_404:\n        /* \"#utility.yul\":23944:24030   */\n      swap1\n      pop\n        /* \"#utility.yul\":23842:24037   */\n      swap3\n      swap2\n      pop\n      pop\n      jump\t// out\n        /* \"#utility.yul\":24043:24719   */\n    tag_52:\n      0x00\n        /* \"#utility.yul\":24288:24290   */\n      0x60\n        /* \"#utility.yul\":24277:24286   */\n      dup3\n        /* \"#utility.yul\":24273:24291   */\n      add\n        /* \"#utility.yul\":24265:24291   */\n      swap1\n      pop\n        /* \"#utility.yul\":24337:24346   */\n      dup2\n        /* \"#utility.yul\":24331:24335   */\n      dup2\n        /* \"#utility.yul\":24327:24347   */\n      sub\n        /* \"#utility.yul\":24323:24324   */\n      0x00\n        /* \"#utility.yul\":24312:24321   */\n      dup4\n        /* \"#utility.yul\":24308:24325   */\n      add\n        /* \"#utility.yul\":24301:24348   */\n      mstore\n        /* \"#utility.yul\":24365:24451   */\n      tag_406\n        /* \"#utility.yul\":24446:24450   */\n      dup2\n        /* \"#utility.yul\":24437:24443   */\n      dup7\n        /* \"#utility.yul\":24365:24451   */\n      tag_339\n      jump\t// in\n    tag_406:\n        /* \"#utility.yul\":24357:24451   */\n      swap1\n      pop\n        /* \"#utility.yul\":24498:24507   */\n      dup2\n        /* \"#utility.yul\":24492:24496   */\n      dup2\n        /* \"#utility.yul\":24488:24508   */\n      sub\n        /* \"#utility.yul\":24483:24485   */\n      0x20\n        /* \"#utility.yul\":24472:24481   */\n      dup4\n        /* \"#utility.yul\":24468:24486   */\n      add\n        /* \"#utility.yul\":24461:24509   */\n      mstore\n        /* \"#utility.yul\":24526:24612   */\n      tag_407\n        /* \"#utility.yul\":24607:24611   */\n      dup2\n        /* \"#utility.yul\":24598:24604   */\n      dup6\n        /* \"#utility.yul\":24526:24612   */\n      tag_339\n      jump\t// in\n    tag_407:\n        /* \"#utility.yul\":24518:24612   */\n      swap1\n      pop\n        /* \"#utility.yul\":24622:24712   */\n      tag_408\n        /* \"#utility.yul\":24708:24710   */\n      0x40\n        /* \"#utility.yul\":24697:24706   */\n      dup4\n        /* \"#utility.yul\":24693:24711   */\n      add\n        /* \"#utility.yul\":24684:24690   */\n      dup5\n        /* \"#utility.yul\":24622:24712   */\n      tag_316\n      jump\t// in\n    tag_408:\n        /* \"#utility.yul\":24255:24719   */\n      swap5\n      swap4\n      pop\n      pop\n      pop\n      pop\n      jump\t// out\n        /* \"#utility.yul\":24725:25144   */\n    tag_78:\n      0x00\n        /* \"#utility.yul\":24929:24931   */\n      0x20\n        /* \"#utility.yul\":24918:24927   */\n      dup3\n        /* \"#utility.yul\":24914:24932   */\n      add\n        /* \"#utility.yul\":24906:24932   */\n      swap1\n      pop\n        /* \"#utility.yul\":24978:24987   */\n      dup2\n        /* \"#utility.yul\":24972:24976   */\n      dup2\n        /* \"#utility.yul\":24968:24988   */\n      sub\n        /* \"#utility.yul\":24964:24965   */\n      0x00\n        /* \"#utility.yul\":24953:24962   */\n      dup4\n        /* \"#utility.yul\":24949:24966   */\n      add\n        /* \"#utility.yul\":24942:24989   */\n      mstore\n        /* \"#utility.yul\":25006:25137   */\n      tag_410\n        /* \"#utility.yul\":25132:25136   */\n      dup2\n        /* \"#utility.yul\":25006:25137   */\n      tag_359\n      jump\t// in\n    tag_410:\n        /* \"#utility.yul\":24998:25137   */\n      swap1\n      pop\n        /* \"#utility.yul\":24896:25144   */\n      swap2\n      swap1\n      pop\n      jump\t// out\n        /* \"#utility.yul\":25150:25531   */\n    tag_17:\n      0x00\n        /* \"#utility.yul\":25335:25337   */\n      0x20\n        /* \"#utility.yul\":25324:25333   */\n      dup3\n        /* \"#utility.yul\":25320:25338   */\n      add\n        /* \"#utility.yul\":25312:25338   */\n      swap1\n      pop\n        /* \"#utility.yul\":25384:25393   */\n      dup2\n        /* \"#utility.yul\":25378:25382   */\n      dup2\n        /* \"#utility.yul\":25374:25394   */\n      sub\n        /* \"#utility.yul\":25370:25371   */\n      0x00\n        /* \"#utility.yul\":25359:25368   */\n      dup4\n        /* \"#utility.yul\":25355:25372   */\n      add\n        /* \"#utility.yul\":25348:25395   */\n      mstore\n        /* \"#utility.yul\":25412:25524   */\n      tag_412\n        /* \"#utility.yul\":25519:25523   */\n      dup2\n        /* \"#utility.yul\":25510:25516   */\n      dup5\n        /* \"#utility.yul\":25412:25524   */\n      tag_362\n      jump\t// in\n    tag_412:\n        /* \"#utility.yul\":25404:25524   */\n      swap1\n      pop\n        /* \"#utility.yul\":25302:25531   */\n      swap3\n      swap2\n      pop\n      pop\n      jump\t// out\n        /* \"#utility.yul\":25537:25910   */\n    tag_11:\n      0x00\n        /* \"#utility.yul\":25718:25720   */\n      0x20\n        /* \"#utility.yul\":25707:25716   */\n      dup3\n        /* \"#utility.yul\":25703:25721   */\n      add\n        /* \"#utility.yul\":25695:25721   */\n      swap1\n      pop\n        /* \"#utility.yul\":25767:25776   */\n      dup2\n        /* \"#utility.yul\":25761:25765   */\n      dup2\n        /* \"#utility.yul\":25757:25777   */\n      sub\n        /* \"#utility.yul\":25753:25754   */\n      0x00\n        /* \"#utility.yul\":25742:25751   */\n      dup4\n        /* \"#utility.yul\":25738:25755   */\n      add\n        /* \"#utility.yul\":25731:25778   */\n      mstore\n        /* \"#utility.yul\":25795:25903   */\n      tag_414\n        /* \"#utility.yul\":25898:25902   */\n      dup2\n        /* \"#utility.yul\":25889:25895   */\n      dup5\n        /* \"#utility.yul\":25795:25903   */\n      tag_377\n      jump\t// in\n    tag_414:\n        /* \"#utility.yul\":25787:25903   */\n      swap1\n      pop\n        /* \"#utility.yul\":25685:25910   */\n      swap3\n      swap2\n      pop\n      pop\n      jump\t// out\n        /* \"#utility.yul\":25916:26199   */\n    tag_120:\n      0x00\n        /* \"#utility.yul\":25982:25984   */\n      0x40\n        /* \"#utility.yul\":25976:25985   */\n      mload\n        /* \"#utility.yul\":25966:25985   */\n      swap1\n      pop\n        /* \"#utility.yul\":26024:26028   */\n      dup2\n        /* \"#utility.yul\":26016:26022   */\n      dup2\n        /* \"#utility.yul\":26012:26029   */\n      add\n        /* \"#utility.yul\":26131:26137   */\n      dup2\n        /* \"#utility.yul\":26119:26129   */\n      dup2\n        /* \"#utility.yul\":26116:26138   */\n      lt\n        /* \"#utility.yul\":26095:26113   */\n      0xffffffffffffffff\n        /* \"#utility.yul\":26083:26093   */\n      dup3\n        /* \"#utility.yul\":26080:26114   */\n      gt\n        /* \"#utility.yul\":26077:26139   */\n      or\n        /* \"#utility.yul\":26074:26076   */\n      iszero\n      tag_416\n      jumpi\n        /* \"#utility.yul\":26142:26160   */\n      tag_417\n      tag_418\n      jump\t// in\n    tag_417:\n        /* \"#utility.yul\":26074:26076   */\n    tag_416:\n        /* \"#utility.yul\":26182:26192   */\n      dup1\n        /* \"#utility.yul\":26178:26180   */\n      0x40\n        /* \"#utility.yul\":26171:26193   */\n      mstore\n        /* \"#utility.yul\":25956:26199   */\n      pop\n      swap2\n      swap1\n      pop\n      jump\t// out\n        /* \"#utility.yul\":26205:26515   */\n    tag_119:\n      0x00\n        /* \"#utility.yul\":26371:26389   */\n      0xffffffffffffffff\n        /* \"#utility.yul\":26363:26369   */\n      dup3\n        /* \"#utility.yul\":26360:26390   */\n      gt\n        /* \"#utility.yul\":26357:26359   */\n      iszero\n      tag_420\n      jumpi\n        /* \"#utility.yul\":26393:26411   */\n      tag_421\n      tag_418\n      jump\t// in\n    tag_421:\n        /* \"#utility.yul\":26357:26359   */\n    tag_420:\n        /* \"#utility.yul\":26443:26447   */\n      0x20\n        /* \"#utility.yul\":26435:26441   */\n      dup3\n        /* \"#utility.yul\":26431:26448   */\n      mul\n        /* \"#utility.yul\":26423:26448   */\n      swap1\n      pop\n        /* \"#utility.yul\":26503:26507   */\n      0x20\n        /* \"#utility.yul\":26497:26501   */\n      dup2\n        /* \"#utility.yul\":26493:26508   */\n      add\n        /* \"#utility.yul\":26485:26508   */\n      swap1\n      pop\n        /* \"#utility.yul\":26286:26515   */\n      swap2\n      swap1\n      pop\n      jump\t// out\n        /* \"#utility.yul\":26521:26832   */\n    tag_131:\n      0x00\n        /* \"#utility.yul\":26688:26706   */\n      0xffffffffffffffff\n        /* \"#utility.yul\":26680:26686   */\n      dup3\n        /* \"#utility.yul\":26677:26707   */\n      gt\n        /* \"#utility.yul\":26674:26676   */\n      iszero\n      tag_423\n      jumpi\n        /* \"#utility.yul\":26710:26728   */\n      tag_424\n      tag_418\n      jump\t// in\n    tag_424:\n        /* \"#utility.yul\":26674:26676   */\n    tag_423:\n        /* \"#utility.yul\":26760:26764   */\n      0x20\n        /* \"#utility.yul\":26752:26758   */\n      dup3\n        /* \"#utility.yul\":26748:26765   */\n      mul\n        /* \"#utility.yul\":26740:26765   */\n      swap1\n      pop\n        /* \"#utility.yul\":26820:26824   */\n      0x20\n        /* \"#utility.yul\":26814:26818   */\n      dup2\n        /* \"#utility.yul\":26810:26825   */\n      add\n        /* \"#utility.yul\":26802:26825   */\n      swap1\n      pop\n        /* \"#utility.yul\":26603:26832   */\n      swap2\n      swap1\n      pop\n      jump\t// out\n        /* \"#utility.yul\":26838:27170   */\n    tag_142:\n      0x00\n        /* \"#utility.yul\":26990:27008   */\n      0xffffffffffffffff\n        /* \"#utility.yul\":26982:26988   */\n      dup3\n        /* \"#utility.yul\":26979:27009   */\n      gt\n        /* \"#utility.yul\":26976:26978   */\n      iszero\n      tag_426\n      jumpi\n        /* \"#utility.yul\":27012:27030   */\n      tag_427\n      tag_418\n      jump\t// in\n    tag_427:\n        /* \"#utility.yul\":26976:26978   */\n    tag_426:\n        /* \"#utility.yul\":27097:27101   */\n      0x1f\n        /* \"#utility.yul\":27093:27102   */\n      not\n        /* \"#utility.yul\":27086:27090   */\n      0x1f\n        /* \"#utility.yul\":27078:27084   */\n      dup4\n        /* \"#utility.yul\":27074:27091   */\n      add\n        /* \"#utility.yul\":27070:27103   */\n      and\n        /* \"#utility.yul\":27062:27103   */\n      swap1\n      pop\n        /* \"#utility.yul\":27158:27162   */\n      0x20\n        /* \"#utility.yul\":27152:27156   */\n      dup2\n        /* \"#utility.yul\":27148:27163   */\n      add\n        /* \"#utility.yul\":27140:27163   */\n      swap1\n      pop\n        /* \"#utility.yul\":26905:27170   */\n      swap2\n      swap1\n      pop\n      jump\t// out\n        /* \"#utility.yul\":27176:27307   */\n    tag_269:\n      0x00\n        /* \"#utility.yul\":27265:27268   */\n      dup2\n        /* \"#utility.yul\":27257:27268   */\n      swap1\n      pop\n        /* \"#utility.yul\":27295:27299   */\n      0x20\n        /* \"#utility.yul\":27290:27293   */\n      dup3\n        /* \"#utility.yul\":27286:27300   */\n      add\n        /* \"#utility.yul\":27278:27300   */\n      swap1\n      pop\n        /* \"#utility.yul\":27247:27307   */\n      swap2\n      swap1\n      pop\n      jump\t// out\n        /* \"#utility.yul\":27313:27445   */\n    tag_294:\n      0x00\n        /* \"#utility.yul\":27403:27406   */\n      dup2\n        /* \"#utility.yul\":27395:27406   */\n      swap1\n      pop\n        /* \"#utility.yul\":27433:27437   */\n      0x20\n        /* \"#utility.yul\":27428:27431   */\n      dup3\n        /* \"#utility.yul\":27424:27438   */\n      add\n        /* \"#utility.yul\":27416:27438   */\n      swap1\n      pop\n        /* \"#utility.yul\":27385:27445   */\n      swap2\n      swap1\n      pop\n      jump\t// out\n        /* \"#utility.yul\":27451:27564   */\n    tag_265:\n      0x00\n        /* \"#utility.yul\":27551:27556   */\n      dup2\n        /* \"#utility.yul\":27545:27557   */\n      mload\n        /* \"#utility.yul\":27535:27557   */\n      swap1\n      pop\n        /* \"#utility.yul\":27524:27564   */\n      swap2\n      swap1\n      pop\n      jump\t// out\n        /* \"#utility.yul\":27570:27684   */\n    tag_290:\n      0x00\n        /* \"#utility.yul\":27671:27676   */\n      dup2\n        /* \"#utility.yul\":27665:27677   */\n      mload\n        /* \"#utility.yul\":27655:27677   */\n      swap1\n      pop\n        /* \"#utility.yul\":27644:27684   */\n      swap2\n      swap1\n      pop\n      jump\t// out\n        /* \"#utility.yul\":27690:27789   */\n    tag_332:\n      0x00\n        /* \"#utility.yul\":27776:27781   */\n      dup2\n        /* \"#utility.yul\":27770:27782   */\n      mload\n        /* \"#utility.yul\":27760:27782   */\n      swap1\n      pop\n        /* \"#utility.yul\":27749:27789   */\n      swap2\n      swap1\n      pop\n      jump\t// out\n        /* \"#utility.yul\":27795:27907   */\n    tag_275:\n      0x00\n        /* \"#utility.yul\":27896:27900   */\n      0x20\n        /* \"#utility.yul\":27891:27894   */\n      dup3\n        /* \"#utility.yul\":27887:27901   */\n      add\n        /* \"#utility.yul\":27879:27901   */\n      swap1\n      pop\n        /* \"#utility.yul\":27869:27907   */\n      swap2\n      swap1\n      pop\n      jump\t// out\n        /* \"#utility.yul\":27913:28026   */\n    tag_300:\n      0x00\n        /* \"#utility.yul\":28015:28019   */\n      0x20\n        /* \"#utility.yul\":28010:28013   */\n      dup3\n        /* \"#utility.yul\":28006:28020   */\n      add\n        /* \"#utility.yul\":27998:28020   */\n      swap1\n      pop\n        /* \"#utility.yul\":27988:28026   */\n      swap2\n      swap1\n      pop\n      jump\t// out\n        /* \"#utility.yul\":28032:28223   */\n    tag_267:\n      0x00\n        /* \"#utility.yul\":28172:28178   */\n      dup3\n        /* \"#utility.yul\":28167:28170   */\n      dup3\n        /* \"#utility.yul\":28160:28179   */\n      mstore\n        /* \"#utility.yul\":28212:28216   */\n      0x20\n        /* \"#utility.yul\":28207:28210   */\n      dup3\n        /* \"#utility.yul\":28203:28217   */\n      add\n        /* \"#utility.yul\":28188:28217   */\n      swap1\n      pop\n        /* \"#utility.yul\":28150:28223   */\n      swap3\n      swap2\n      pop\n      pop\n      jump\t// out\n        /* \"#utility.yul\":28229:28410   */\n    tag_280:\n      0x00\n        /* \"#utility.yul\":28359:28365   */\n      dup3\n        /* \"#utility.yul\":28354:28357   */\n      dup3\n        /* \"#utility.yul\":28347:28366   */\n      mstore\n        /* \"#utility.yul\":28399:28403   */\n      0x20\n        /* \"#utility.yul\":28394:28397   */\n      dup3\n        /* \"#utility.yul\":28390:28404   */\n      add\n        /* \"#utility.yul\":28375:28404   */\n      swap1\n      pop\n        /* \"#utility.yul\":28337:28410   */\n      swap3\n      swap2\n      pop\n      pop\n      jump\t// out\n        /* \"#utility.yul\":28416:28598   */\n    tag_292:\n      0x00\n        /* \"#utility.yul\":28547:28553   */\n      dup3\n        /* \"#utility.yul\":28542:28545   */\n      dup3\n        /* \"#utility.yul\":28535:28554   */\n      mstore\n        /* \"#utility.yul\":28587:28591   */\n      0x20\n        /* \"#utility.yul\":28582:28585   */\n      dup3\n        /* \"#utility.yul\":28578:28592   */\n      add\n        /* \"#utility.yul\":28563:28592   */\n      swap1\n      pop\n        /* \"#utility.yul\":28525:28598   */\n      swap3\n      swap2\n      pop\n      pop\n      jump\t// out\n        /* \"#utility.yul\":28604:28773   */\n    tag_334:\n      0x00\n        /* \"#utility.yul\":28722:28728   */\n      dup3\n        /* \"#utility.yul\":28717:28720   */\n      dup3\n        /* \"#utility.yul\":28710:28729   */\n      mstore\n        /* \"#utility.yul\":28762:28766   */\n      0x20\n        /* \"#utility.yul\":28757:28760   */\n      dup3\n        /* \"#utility.yul\":28753:28767   */\n      add\n        /* \"#utility.yul\":28738:28767   */\n      swap1\n      pop\n        /* \"#utility.yul\":28700:28773   */\n      swap3\n      swap2\n      pop\n      pop\n      jump\t// out\n        /* \"#utility.yul\":28779:28956   */\n    tag_343:\n      0x00\n        /* \"#utility.yul\":28905:28911   */\n      dup3\n        /* \"#utility.yul\":28900:28903   */\n      dup3\n        /* \"#utility.yul\":28893:28912   */\n      mstore\n        /* \"#utility.yul\":28945:28949   */\n      0x20\n        /* \"#utility.yul\":28940:28943   */\n      dup3\n        /* \"#utility.yul\":28936:28950   */\n      add\n        /* \"#utility.yul\":28921:28950   */\n      swap1\n      pop\n        /* \"#utility.yul\":28883:28956   */\n      swap3\n      swap2\n      pop\n      pop\n      jump\t// out\n        /* \"#utility.yul\":28962:29129   */\n    tag_350:\n      0x00\n        /* \"#utility.yul\":29078:29084   */\n      dup3\n        /* \"#utility.yul\":29073:29076   */\n      dup3\n        /* \"#utility.yul\":29066:29085   */\n      mstore\n        /* \"#utility.yul\":29118:29122   */\n      0x20\n        /* \"#utility.yul\":29113:29116   */\n      dup3\n        /* \"#utility.yul\":29109:29123   */\n      add\n        /* \"#utility.yul\":29094:29123   */\n      swap1\n      pop\n        /* \"#utility.yul\":29056:29129   */\n      swap3\n      swap2\n      pop\n      pop\n      jump\t// out\n        /* \"#utility.yul\":29135:29283   */\n    tag_357:\n      0x00\n        /* \"#utility.yul\":29274:29277   */\n      dup2\n        /* \"#utility.yul\":29259:29277   */\n      swap1\n      pop\n        /* \"#utility.yul\":29249:29283   */\n      swap3\n      swap2\n      pop\n      pop\n      jump\t// out\n        /* \"#utility.yul\":29289:29385   */\n    tag_261:\n      0x00\n        /* \"#utility.yul\":29355:29379   */\n      tag_443\n        /* \"#utility.yul\":29373:29378   */\n      dup3\n        /* \"#utility.yul\":29355:29379   */\n      tag_444\n      jump\t// in\n    tag_443:\n        /* \"#utility.yul\":29344:29379   */\n      swap1\n      pop\n        /* \"#utility.yul\":29334:29385   */\n      swap2\n      swap1\n      pop\n      jump\t// out\n        /* \"#utility.yul\":29391:29481   */\n    tag_304:\n      0x00\n        /* \"#utility.yul\":29468:29473   */\n      dup2\n        /* \"#utility.yul\":29461:29474   */\n      iszero\n        /* \"#utility.yul\":29454:29475   */\n      iszero\n        /* \"#utility.yul\":29443:29475   */\n      swap1\n      pop\n        /* \"#utility.yul\":29433:29481   */\n      swap2\n      swap1\n      pop\n      jump\t// out\n        /* \"#utility.yul\":29487:29630   */\n    tag_446:\n      0x00\n        /* \"#utility.yul\":29569:29574   */\n      dup2\n        /* \"#utility.yul\":29558:29574   */\n      swap1\n      pop\n        /* \"#utility.yul\":29575:29624   */\n      tag_448\n        /* \"#utility.yul\":29618:29623   */\n      dup3\n        /* \"#utility.yul\":29575:29624   */\n      tag_449\n      jump\t// in\n    tag_448:\n        /* \"#utility.yul\":29548:29630   */\n      swap2\n      swap1\n      pop\n      jump\t// out\n        /* \"#utility.yul\":29636:29777   */\n    tag_450:\n      0x00\n        /* \"#utility.yul\":29717:29722   */\n      dup2\n        /* \"#utility.yul\":29706:29722   */\n      swap1\n      pop\n        /* \"#utility.yul\":29723:29771   */\n      tag_452\n        /* \"#utility.yul\":29765:29770   */\n      dup3\n        /* \"#utility.yul\":29723:29771   */\n      tag_453\n      jump\t// in\n    tag_452:\n        /* \"#utility.yul\":29696:29777   */\n      swap2\n      swap1\n      pop\n      jump\t// out\n        /* \"#utility.yul\":29783:29918   */\n    tag_454:\n      0x00\n        /* \"#utility.yul\":29861:29866   */\n      dup2\n        /* \"#utility.yul\":29850:29866   */\n      swap1\n      pop\n        /* \"#utility.yul\":29867:29912   */\n      tag_456\n        /* \"#utility.yul\":29906:29911   */\n      dup3\n        /* \"#utility.yul\":29867:29912   */\n      tag_457\n      jump\t// in\n    tag_456:\n        /* \"#utility.yul\":29840:29918   */\n      swap2\n      swap1\n      pop\n      jump\t// out\n        /* \"#utility.yul\":29924:30000   */\n    tag_326:\n      0x00\n        /* \"#utility.yul\":29989:29994   */\n      dup2\n        /* \"#utility.yul\":29978:29994   */\n      swap1\n      pop\n        /* \"#utility.yul\":29968:30000   */\n      swap2\n      swap1\n      pop\n      jump\t// out\n        /* \"#utility.yul\":30006:30106   */\n    tag_459:\n      0x00\n        /* \"#utility.yul\":30095:30100   */\n      dup2\n        /* \"#utility.yul\":30084:30100   */\n      swap1\n      pop\n        /* \"#utility.yul\":30074:30106   */\n      swap2\n      swap1\n      pop\n      jump\t// out\n        /* \"#utility.yul\":30112:30238   */\n    tag_444:\n      0x00\n        /* \"#utility.yul\":30189:30231   */\n      0xffffffffffffffffffffffffffffffffffffffff\n        /* \"#utility.yul\":30182:30187   */\n      dup3\n        /* \"#utility.yul\":30178:30232   */\n      and\n        /* \"#utility.yul\":30167:30232   */\n      swap1\n      pop\n        /* \"#utility.yul\":30157:30238   */\n      swap2\n      swap1\n      pop\n      jump\t// out\n        /* \"#utility.yul\":30244:30321   */\n    tag_389:\n      0x00\n        /* \"#utility.yul\":30310:30315   */\n      dup2\n        /* \"#utility.yul\":30299:30315   */\n      swap1\n      pop\n        /* \"#utility.yul\":30289:30321   */\n      swap2\n      swap1\n      pop\n      jump\t// out\n        /* \"#utility.yul\":30327:30470   */\n    tag_311:\n      0x00\n        /* \"#utility.yul\":30424:30464   */\n      tag_464\n        /* \"#utility.yul\":30458:30463   */\n      dup3\n        /* \"#utility.yul\":30424:30464   */\n      tag_446\n      jump\t// in\n    tag_464:\n        /* \"#utility.yul\":30411:30464   */\n      swap1\n      pop\n        /* \"#utility.yul\":30401:30470   */\n      swap2\n      swap1\n      pop\n      jump\t// out\n        /* \"#utility.yul\":30476:30617   */\n    tag_315:\n      0x00\n        /* \"#utility.yul\":30572:30611   */\n      tag_466\n        /* \"#utility.yul\":30605:30610   */\n      dup3\n        /* \"#utility.yul\":30572:30611   */\n      tag_450\n      jump\t// in\n    tag_466:\n        /* \"#utility.yul\":30559:30611   */\n      swap1\n      pop\n        /* \"#utility.yul\":30549:30617   */\n      swap2\n      swap1\n      pop\n      jump\t// out\n        /* \"#utility.yul\":30623:30758   */\n    tag_319:\n      0x00\n        /* \"#utility.yul\":30716:30752   */\n      tag_468\n        /* \"#utility.yul\":30746:30751   */\n      dup3\n        /* \"#utility.yul\":30716:30752   */\n      tag_454\n      jump\t// in\n    tag_468:\n        /* \"#utility.yul\":30703:30752   */\n      swap1\n      pop\n        /* \"#utility.yul\":30693:30758   */\n      swap2\n      swap1\n      pop\n      jump\t// out\n        /* \"#utility.yul\":30764:30918   */\n    tag_145:\n        /* \"#utility.yul\":30848:30854   */\n      dup3\n        /* \"#utility.yul\":30843:30846   */\n      dup2\n        /* \"#utility.yul\":30838:30841   */\n      dup4\n        /* \"#utility.yul\":30825:30855   */\n      calldatacopy\n        /* \"#utility.yul\":30910:30911   */\n      0x00\n        /* \"#utility.yul\":30901:30907   */\n      dup4\n        /* \"#utility.yul\":30896:30899   */\n      dup4\n        /* \"#utility.yul\":30892:30908   */\n      add\n        /* \"#utility.yul\":30885:30912   */\n      mstore\n        /* \"#utility.yul\":30815:30918   */\n      pop\n      pop\n      pop\n      jump\t// out\n        /* \"#utility.yul\":30924:31231   */\n    tag_336:\n        /* \"#utility.yul\":30992:30993   */\n      0x00\n        /* \"#utility.yul\":31002:31115   */\n    tag_471:\n        /* \"#utility.yul\":31016:31022   */\n      dup4\n        /* \"#utility.yul\":31013:31014   */\n      dup2\n        /* \"#utility.yul\":31010:31023   */\n      lt\n        /* \"#utility.yul\":31002:31115   */\n      iszero\n      tag_473\n      jumpi\n        /* \"#utility.yul\":31101:31102   */\n      dup1\n        /* \"#utility.yul\":31096:31099   */\n      dup3\n        /* \"#utility.yul\":31092:31103   */\n      add\n        /* \"#utility.yul\":31086:31104   */\n      mload\n        /* \"#utility.yul\":31082:31083   */\n      dup2\n        /* \"#utility.yul\":31077:31080   */\n      dup5\n        /* \"#utility.yul\":31073:31084   */\n      add\n        /* \"#utility.yul\":31066:31105   */\n      mstore\n        /* \"#utility.yul\":31038:31040   */\n      0x20\n        /* \"#utility.yul\":31035:31036   */\n      dup2\n        /* \"#utility.yul\":31031:31041   */\n      add\n        /* \"#utility.yul\":31026:31041   */\n      swap1\n      pop\n        /* \"#utility.yul\":31002:31115   */\n      jump(tag_471)\n    tag_473:\n        /* \"#utility.yul\":31133:31139   */\n      dup4\n        /* \"#utility.yul\":31130:31131   */\n      dup2\n        /* \"#utility.yul\":31127:31140   */\n      gt\n        /* \"#utility.yul\":31124:31126   */\n      iszero\n      tag_474\n      jumpi\n        /* \"#utility.yul\":31213:31214   */\n      0x00\n        /* \"#utility.yul\":31204:31210   */\n      dup5\n        /* \"#utility.yul\":31199:31202   */\n      dup5\n        /* \"#utility.yul\":31195:31211   */\n      add\n        /* \"#utility.yul\":31188:31215   */\n      mstore\n        /* \"#utility.yul\":31124:31126   */\n    tag_474:\n        /* \"#utility.yul\":30973:31231   */\n      pop\n      pop\n      pop\n      pop\n      jump\t// out\n        /* \"#utility.yul\":31237:31557   */\n    tag_46:\n      0x00\n        /* \"#utility.yul\":31318:31319   */\n      0x02\n        /* \"#utility.yul\":31312:31316   */\n      dup3\n        /* \"#utility.yul\":31308:31320   */\n      div\n        /* \"#utility.yul\":31298:31320   */\n      swap1\n      pop\n        /* \"#utility.yul\":31365:31366   */\n      0x01\n        /* \"#utility.yul\":31359:31363   */\n      dup3\n        /* \"#utility.yul\":31355:31367   */\n      and\n        /* \"#utility.yul\":31386:31404   */\n      dup1\n        /* \"#utility.yul\":31376:31378   */\n      tag_476\n      jumpi\n        /* \"#utility.yul\":31442:31446   */\n      0x7f\n        /* \"#utility.yul\":31434:31440   */\n      dup3\n        /* \"#utility.yul\":31430:31447   */\n      and\n        /* \"#utility.yul\":31420:31447   */\n      swap2\n      pop\n        /* \"#utility.yul\":31376:31378   */\n    tag_476:\n        /* \"#utility.yul\":31504:31506   */\n      0x20\n        /* \"#utility.yul\":31496:31502   */\n      dup3\n        /* \"#utility.yul\":31493:31507   */\n      lt\n        /* \"#utility.yul\":31473:31491   */\n      dup2\n        /* \"#utility.yul\":31470:31508   */\n      eq\n        /* \"#utility.yul\":31467:31469   */\n      iszero\n      tag_477\n      jumpi\n        /* \"#utility.yul\":31523:31541   */\n      tag_478\n      tag_479\n      jump\t// in\n    tag_478:\n        /* \"#utility.yul\":31467:31469   */\n    tag_477:\n        /* \"#utility.yul\":31288:31557   */\n      pop\n      swap2\n      swap1\n      pop\n      jump\t// out\n        /* \"#utility.yul\":31563:31796   */\n    tag_90:\n      0x00\n        /* \"#utility.yul\":31625:31649   */\n      tag_481\n        /* \"#utility.yul\":31643:31648   */\n      dup3\n        /* \"#utility.yul\":31625:31649   */\n      tag_389\n      jump\t// in\n    tag_481:\n        /* \"#utility.yul\":31616:31649   */\n      swap2\n      pop\n        /* \"#utility.yul\":31671:31737   */\n      0xffffffffffffffffffffffffffffffffffffffffffffffffffffffffffffffff\n        /* \"#utility.yul\":31664:31669   */\n      dup3\n        /* \"#utility.yul\":31661:31738   */\n      eq\n        /* \"#utility.yul\":31658:31660   */\n      iszero\n      tag_482\n      jumpi\n        /* \"#utility.yul\":31741:31759   */\n      tag_483\n      tag_484\n      jump\t// in\n    tag_483:\n        /* \"#utility.yul\":31658:31660   */\n    tag_482:\n        /* \"#utility.yul\":31788:31789   */\n      0x01\n        /* \"#utility.yul\":31781:31786   */\n      dup3\n        /* \"#utility.yul\":31777:31790   */\n      add\n        /* \"#utility.yul\":31770:31790   */\n      swap1\n      pop\n        /* \"#utility.yul\":31606:31796   */\n      swap2\n      swap1\n      pop\n      jump\t// out\n        /* \"#utility.yul\":31802:31982   */\n    tag_484:\n        /* \"#utility.yul\":31850:31927   */\n      0x4e487b7100000000000000000000000000000000000000000000000000000000\n        /* \"#utility.yul\":31847:31848   */\n      0x00\n        /* \"#utility.yul\":31840:31928   */\n      mstore\n        /* \"#utility.yul\":31947:31951   */\n      0x11\n        /* \"#utility.yul\":31944:31945   */\n      0x04\n        /* \"#utility.yul\":31937:31952   */\n      mstore\n        /* \"#utility.yul\":31971:31975   */\n      0x24\n        /* \"#utility.yul\":31968:31969   */\n      0x00\n        /* \"#utility.yul\":31961:31976   */\n      revert\n        /* \"#utility.yul\":31988:32168   */\n    tag_486:\n        /* \"#utility.yul\":32036:32113   */\n      0x4e487b7100000000000000000000000000000000000000000000000000000000\n        /* \"#utility.yul\":32033:32034   */\n      0x00\n        /* \"#utility.yul\":32026:32114   */\n      mstore\n        /* \"#utility.yul\":32133:32137   */\n      0x21\n        /* \"#utility.yul\":32130:32131   */\n      0x04\n        /* \"#utility.yul\":32123:32138   */\n      mstore\n        /* \"#utility.yul\":32157:32161   */\n      0x24\n        /* \"#utility.yul\":32154:32155   */\n      0x00\n        /* \"#utility.yul\":32147:32162   */\n      revert\n        /* \"#utility.yul\":32174:32354   */\n    tag_479:\n        /* \"#utility.yul\":32222:32299   */\n      0x4e487b7100000000000000000000000000000000000000000000000000000000\n        /* \"#utility.yul\":32219:32220   */\n      0x00\n        /* \"#utility.yul\":32212:32300   */\n      mstore\n        /* \"#utility.yul\":32319:32323   */\n      0x22\n        /* \"#utility.yul\":32316:32317   */\n      0x04\n        /* \"#utility.yul\":32309:32324   */\n      mstore\n        /* \"#utility.yul\":32343:32347   */\n      0x24\n        /* \"#utility.yul\":32340:32341   */\n      0x00\n        /* \"#utility.yul\":32333:32348   */\n      revert\n        /* \"#utility.yul\":32360:32540   */\n    tag_418:\n        /* \"#utility.yul\":32408:32485   */\n      0x4e487b7100000000000000000000000000000000000000000000000000000000\n        /* \"#utility.yul\":32405:32406   */\n      0x00\n        /* \"#utility.yul\":32398:32486   */\n      mstore\n        /* \"#utility.yul\":32505:32509   */\n      0x41\n        /* \"#utility.yul\":32502:32503   */\n      0x04\n        /* \"#utility.yul\":32495:32510   */\n      mstore\n        /* \"#utility.yul\":32529:32533   */\n      0x24\n        /* \"#utility.yul\":32526:32527   */\n      0x00\n        /* \"#utility.yul\":32519:32534   */\n      revert\n        /* \"#utility.yul\":32546:32648   */\n    tag_338:\n      0x00\n        /* \"#utility.yul\":32638:32640   */\n      0x1f\n        /* \"#utility.yul\":32634:32641   */\n      not\n        /* \"#utility.yul\":32629:32631   */\n      0x1f\n        /* \"#utility.yul\":32622:32627   */\n      dup4\n        /* \"#utility.yul\":32618:32632   */\n      add\n        /* \"#utility.yul\":32614:32642   */\n      and\n        /* \"#utility.yul\":32604:32642   */\n      swap1\n      pop\n        /* \"#utility.yul\":32594:32648   */\n      swap2\n      swap1\n      pop\n      jump\t// out\n        /* \"#utility.yul\":32654:32775   */\n    tag_449:\n        /* \"#utility.yul\":32743:32744   */\n      0x03\n        /* \"#utility.yul\":32736:32741   */\n      dup2\n        /* \"#utility.yul\":32733:32745   */\n      lt\n        /* \"#utility.yul\":32723:32725   */\n      tag_492\n      jumpi\n        /* \"#utility.yul\":32749:32767   */\n      tag_493\n      tag_486\n      jump\t// in\n    tag_493:\n        /* \"#utility.yul\":32723:32725   */\n    tag_492:\n        /* \"#utility.yul\":32713:32775   */\n      pop\n      jump\t// out\n        /* \"#utility.yul\":32781:32901   */\n    tag_453:\n        /* \"#utility.yul\":32869:32870   */\n      0x04\n        /* \"#utility.yul\":32862:32867   */\n      dup2\n        /* \"#utility.yul\":32859:32871   */\n      lt\n        /* \"#utility.yul\":32849:32851   */\n      tag_495\n      jumpi\n        /* \"#utility.yul\":32875:32893   */\n      tag_496\n      tag_486\n      jump\t// in\n    tag_496:\n        /* \"#utility.yul\":32849:32851   */\n    tag_495:\n        /* \"#utility.yul\":32839:32901   */\n      pop\n      jump\t// out\n        /* \"#utility.yul\":32907:33024   */\n    tag_457:\n        /* \"#utility.yul\":32992:32993   */\n      0x07\n        /* \"#utility.yul\":32985:32990   */\n      dup2\n        /* \"#utility.yul\":32982:32994   */\n      lt\n        /* \"#utility.yul\":32972:32974   */\n      tag_498\n      jumpi\n        /* \"#utility.yul\":32998:33016   */\n      tag_499\n      tag_486\n      jump\t// in\n    tag_499:\n        /* \"#utility.yul\":32972:32974   */\n    tag_498:\n        /* \"#utility.yul\":32962:33024   */\n      pop\n      jump\t// out\n        /* \"#utility.yul\":33030:33152   */\n    tag_149:\n        /* \"#utility.yul\":33103:33127   */\n      tag_501\n        /* \"#utility.yul\":33121:33126   */\n      dup2\n        /* \"#utility.yul\":33103:33127   */\n      tag_261\n      jump\t// in\n    tag_501:\n        /* \"#utility.yul\":33096:33101   */\n      dup2\n        /* \"#utility.yul\":33093:33128   */\n      eq\n        /* \"#utility.yul\":33083:33085   */\n      tag_502\n      jumpi\n        /* \"#utility.yul\":33142:33143   */\n      0x00\n        /* \"#utility.yul\":33139:33140   */\n      dup1\n        /* \"#utility.yul\":33132:33144   */\n      revert\n        /* \"#utility.yul\":33083:33085   */\n    tag_502:\n        /* \"#utility.yul\":33073:33152   */\n      pop\n      jump\t// out\n        /* \"#utility.yul\":33158:33274   */\n    tag_161:\n        /* \"#utility.yul\":33228:33249   */\n      tag_504\n        /* \"#utility.yul\":33243:33248   */\n      dup2\n        /* \"#utility.yul\":33228:33249   */\n      tag_304\n      jump\t// in\n    tag_504:\n        /* \"#utility.yul\":33221:33226   */\n      dup2\n        /* \"#utility.yul\":33218:33250   */\n      eq\n        /* \"#utility.yul\":33208:33210   */\n      tag_505\n      jumpi\n        /* \"#utility.yul\":33264:33265   */\n      0x00\n        /* \"#utility.yul\":33261:33262   */\n      dup1\n        /* \"#utility.yul\":33254:33266   */\n      revert\n        /* \"#utility.yul\":33208:33210   */\n    tag_505:\n        /* \"#utility.yul\":33198:33274   */\n      pop\n      jump\t// out\n        /* \"#utility.yul\":33280:33395   */\n    tag_168:\n        /* \"#utility.yul\":33369:33370   */\n      0x03\n        /* \"#utility.yul\":33362:33367   */\n      dup2\n        /* \"#utility.yul\":33359:33371   */\n      lt\n        /* \"#utility.yul\":33349:33351   */\n      tag_507\n      jumpi\n        /* \"#utility.yul\":33385:33386   */\n      0x00\n        /* \"#utility.yul\":33382:33383   */\n      dup1\n        /* \"#utility.yul\":33375:33387   */\n      revert\n        /* \"#utility.yul\":33349:33351   */\n    tag_507:\n        /* \"#utility.yul\":33339:33395   */\n      pop\n      jump\t// out\n        /* \"#utility.yul\":33401:33515   */\n    tag_172:\n        /* \"#utility.yul\":33489:33490   */\n      0x04\n        /* \"#utility.yul\":33482:33487   */\n      dup2\n        /* \"#utility.yul\":33479:33491   */\n      lt\n        /* \"#utility.yul\":33469:33471   */\n      tag_509\n      jumpi\n        /* \"#utility.yul\":33505:33506   */\n      0x00\n        /* \"#utility.yul\":33502:33503   */\n      dup1\n        /* \"#utility.yul\":33495:33507   */\n      revert\n        /* \"#utility.yul\":33469:33471   */\n    tag_509:\n        /* \"#utility.yul\":33459:33515   */\n      pop\n      jump\t// out\n        /* \"#utility.yul\":33521:33632   */\n    tag_176:\n        /* \"#utility.yul\":33606:33607   */\n      0x07\n        /* \"#utility.yul\":33599:33604   */\n      dup2\n        /* \"#utility.yul\":33596:33608   */\n      lt\n        /* \"#utility.yul\":33586:33588   */\n      tag_511\n      jumpi\n        /* \"#utility.yul\":33622:33623   */\n      0x00\n        /* \"#utility.yul\":33619:33620   */\n      dup1\n        /* \"#utility.yul\":33612:33624   */\n      revert\n        /* \"#utility.yul\":33586:33588   */\n    tag_511:\n        /* \"#utility.yul\":33576:33632   */\n      pop\n      jump\t// out\n        /* \"#utility.yul\":33638:33758   */\n    tag_179:\n        /* \"#utility.yul\":33710:33733   */\n      tag_513\n        /* \"#utility.yul\":33727:33732   */\n      dup2\n        /* \"#utility.yul\":33710:33733   */\n      tag_326\n      jump\t// in\n    tag_513:\n        /* \"#utility.yul\":33703:33708   */\n      dup2\n        /* \"#utility.yul\":33700:33734   */\n      eq\n        /* \"#utility.yul\":33690:33692   */\n      tag_514\n      jumpi\n        /* \"#utility.yul\":33748:33749   */\n      0x00\n        /* \"#utility.yul\":33745:33746   */\n      dup1\n        /* \"#utility.yul\":33738:33750   */\n      revert\n        /* \"#utility.yul\":33690:33692   */\n    tag_514:\n        /* \"#utility.yul\":33680:33758   */\n      pop\n      jump\t// out\n        /* \"#utility.yul\":33764:33932   */\n    tag_203:\n        /* \"#utility.yul\":33860:33907   */\n      tag_516\n        /* \"#utility.yul\":33901:33906   */\n      dup2\n        /* \"#utility.yul\":33860:33907   */\n      tag_459\n      jump\t// in\n    tag_516:\n        /* \"#utility.yul\":33853:33858   */\n      dup2\n        /* \"#utility.yul\":33850:33908   */\n      eq\n        /* \"#utility.yul\":33840:33842   */\n      tag_517\n      jumpi\n        /* \"#utility.yul\":33922:33923   */\n      0x00\n        /* \"#utility.yul\":33919:33920   */\n      dup1\n        /* \"#utility.yul\":33912:33924   */\n      revert\n        /* \"#utility.yul\":33840:33842   */\n    tag_517:\n        /* \"#utility.yul\":33830:33932   */\n      pop\n      jump\t// out\n        /* \"#utility.yul\":33938:34060   */\n    tag_221:\n        /* \"#utility.yul\":34011:34035   */\n      tag_519\n        /* \"#utility.yul\":34029:34034   */\n      dup2\n        /* \"#utility.yul\":34011:34035   */\n      tag_389\n      jump\t// in\n    tag_519:\n        /* \"#utility.yul\":34004:34009   */\n      dup2\n        /* \"#utility.yul\":34001:34036   */\n      eq\n        /* \"#utility.yul\":33991:33993   */\n      tag_520\n      jumpi\n        /* \"#utility.yul\":34050:34051   */\n      0x00\n        /* \"#utility.yul\":34047:34048   */\n      dup1\n        /* \"#utility.yul\":34040:34052   */\n      revert\n        /* \"#utility.yul\":33991:33993   */\n    tag_520:\n        /* \"#utility.yul\":33981:34060   */\n      pop\n      jump\t// out\n\n    auxdata: 0xa2646970667358221220a7d68dc01ceaa665ab641c1eeffbab9d34c67f6a0397894c2cb7b07d5f3c25cb64736f6c63430008000033\n}\n","bytecode":{"linkReferences":{},"object":"611ddc610053600b82828239805160001a607314610046577f4e487b7100000000000000000000000000000000000000000000000000000000600052600060045260246000fd5b30600052607381538281f3fe73000000000000000000000000000000000000000030146080604052600436106100565760003560e01c806372e6436b1461005b578063a0bb48ab1461008b578063b707c694146100bb578063e00e0eea146100eb575b600080fd5b61007560048036038101906100709190611102565b61011c565b60405161008291906118cb565b60405180910390f35b6100a560048036038101906100a09190611269565b61020d565b6040516100b291906118a9565b60405180910390f35b6100d560048036038101906100d091906111c1565b61023e565b6040516100e291906117a0565b60405180910390f35b61010560048036038101906101009190611215565b610551565b6040516101139291906117bb565b60405180910390f35b610124610aaf565b858160000181905250838160600190600381111561016b577f4e487b7100000000000000000000000000000000000000000000000000000000600052602160045260246000fd5b908160038111156101a5577f4e487b7100000000000000000000000000000000000000000000000000000000600052602160045260246000fd5b8152505084816020019073ffffffffffffffffffffffffffffffffffffffff16908173ffffffffffffffffffffffffffffffffffffffff16815250508281608001819052506000816040019015159081151581525050818160a0018190525095945050505050565b610215610b42565b61021d610b42565b83816000018181525050826000015181602001819052508091505092915050565b6000806002811115610279577f4e487b7100000000000000000000000000000000000000000000000000000000600052602160045260246000fd5b836040015160028111156102b6577f4e487b7100000000000000000000000000000000000000000000000000000000600052602160045260246000fd5b1415610408576000826002018460c001516040516102d49190611789565b908152602001604051809103902080546102ed90611b7f565b80601f016020809104026020016040519081016040528092919081815260200182805461031990611b7f565b80156103665780601f1061033b57610100808354040283529160200191610366565b820191906000526020600020905b81548152906001019060200180831161034957829003601f168201915b50505050509050734082dcb15f595b67e825f0a97a35d8788005bb5963d9d0a612828660e001518760a001516040518463ffffffff1660e01b81526004016103b093929190611844565b60206040518083038186803b1580156103c857600080fd5b505af41580156103dc573d6000803e3d6000fd5b505050506040513d601f19601f8201168201806040525081019061040091906110d9565b91505061054b565b60016002811115610442577f4e487b7100000000000000000000000000000000000000000000000000000000600052602160045260246000fd5b8360400151600281111561047f577f4e487b7100000000000000000000000000000000000000000000000000000000600052602160045260246000fd5b141561054a576000826001018460c0015160405161049d9190611789565b9081526020016040518091039020549050734082dcb15f595b67e825f0a97a35d8788005bb5963320cb552828661010001518760a001516040518463ffffffff1660e01b81526004016104f2939291906117e4565b60206040518083038186803b15801561050a57600080fd5b505af415801561051e573d6000803e3d6000fd5b505050506040513d601f19601f8201168201806040525081019061054291906110d9565b91505061054b565b5b92915050565b60008060009050600084602001519050600073ffffffffffffffffffffffffffffffffffffffff168173ffffffffffffffffffffffffffffffffffffffff1614806105c757503373ffffffffffffffffffffffffffffffffffffffff168173ffffffffffffffffffffffffffffffffffffffff16145b85600001519061060d576040517f08c379a00000000000000000000000000000000000000000000000000000000081526004016106049190611822565b60405180910390fd5b508460c00151608001511561067b578460c0015160000151915060006106378660c001518661023e565b905080610679576040517f08c379a000000000000000000000000000000000000000000000000000000000815260040161067090611889565b60405180910390fd5b505b60008560800151905060008151141561069957600193505050610aa8565b600086606001519050600060038111156106dc577f4e487b7100000000000000000000000000000000000000000000000000000000600052602160045260246000fd5b816003811115610715577f4e487b7100000000000000000000000000000000000000000000000000000000600052602160045260246000fd5b141561078c578560000160008360008151811061075b577f4e487b7100000000000000000000000000000000000000000000000000000000600052603260045260246000fd5b6020026020010151815260200190815260200160002060010160149054906101000a900460ff169450505050610aa8565b6000805b835181101561082757876000016000856000815181106107d9577f4e487b7100000000000000000000000000000000000000000000000000000000600052603260045260246000fd5b6020026020010151815260200190815260200160002060010160149054906101000a900460ff161561081457818061081090611bb1565b9250505b808061081f90611bb1565b915050610790565b5060016003811115610862577f4e487b7100000000000000000000000000000000000000000000000000000000600052602160045260246000fd5b82600381111561089b577f4e487b7100000000000000000000000000000000000000000000000000000000600052602160045260246000fd5b14156108b05782518114955050505050610aa8565b600260038111156108ea577f4e487b7100000000000000000000000000000000000000000000000000000000600052602160045260246000fd5b826003811115610923577f4e487b7100000000000000000000000000000000000000000000000000000000600052602160045260246000fd5b14156109385760008111955050505050610aa8565b600380811115610971577f4e487b7100000000000000000000000000000000000000000000000000000000600052602160045260246000fd5b8260038111156109aa577f4e487b7100000000000000000000000000000000000000000000000000000000600052602160045260246000fd5b1415610aa35760005b8351811015610aa1578760030160008583815181106109fb577f4e487b7100000000000000000000000000000000000000000000000000000000600052603260045260246000fd5b6020026020010151815260200190815260200160002060009054906101000a900460ff1615610a8e5787600001600085600081518110610a64577f4e487b7100000000000000000000000000000000000000000000000000000000600052603260045260246000fd5b6020026020010151815260200190815260200160002060010160149054906101000a900460ff1696505b8080610a9990611bb1565b9150506109b3565b505b505050505b9250929050565b6040518060e0016040528060608152602001600073ffffffffffffffffffffffffffffffffffffffff16815260200160001515815260200160006003811115610b21577f4e487b7100000000000000000000000000000000000000000000000000000000600052602160045260246000fd5b81526020016060815260200160608152602001610b3c610b5c565b81525090565b604051806040016040528060008152602001606081525090565b6040518061012001604052806000815260200160006003811115610ba9577f4e487b7100000000000000000000000000000000000000000000000000000000600052602160045260246000fd5b815260200160006002811115610be8577f4e487b7100000000000000000000000000000000000000000000000000000000600052602160045260246000fd5b815260200160001515815260200160001515815260200160006006811115610c39577f4e487b7100000000000000000000000000000000000000000000000000000000600052602160045260246000fd5b81526020016060815260200160608152602001606081525090565b6000610c67610c628461191e565b6118ed565b90508083825260208201905082856020860282011115610c8657600080fd5b60005b85811015610cb65781610c9c8882610e3c565b845260208401935060208301925050600181019050610c89565b5050509392505050565b6000610cd3610cce8461194a565b6118ed565b90508083825260208201905082856020860282011115610cf257600080fd5b60005b85811015610d225781610d0888826110c4565b845260208401935060208301925050600181019050610cf5565b5050509392505050565b6000610d3f610d3a84611976565b6118ed565b905082815260208101848484011115610d5757600080fd5b610d62848285611b3d565b509392505050565b600081359050610d7981611d03565b92915050565b600082601f830112610d9057600080fd5b8135610da0848260208601610c54565b91505092915050565b600082601f830112610dba57600080fd5b8135610dca848260208601610cc0565b91505092915050565b600081359050610de281611d1a565b92915050565b600081519050610df781611d1a565b92915050565b600081359050610e0c81611d31565b92915050565b600081359050610e2181611d41565b92915050565b600081359050610e3681611d51565b92915050565b600081359050610e4b81611d61565b92915050565b600082601f830112610e6257600080fd5b8135610e72848260208601610d2c565b91505092915050565b60006101208284031215610e8e57600080fd5b610e996101206118ed565b90506000610ea9848285016110c4565b6000830152506020610ebd84828501610e12565b6020830152506040610ed184828501610dfd565b6040830152506060610ee584828501610dd3565b6060830152506080610ef984828501610dd3565b60808301525060a0610f0d84828501610e27565b60a08301525060c082013567ffffffffffffffff811115610f2d57600080fd5b610f3984828501610e51565b60c08301525060e082013567ffffffffffffffff811115610f5957600080fd5b610f6584828501610e51565b60e08301525061010082013567ffffffffffffffff811115610f8657600080fd5b610f9284828501610d7f565b6101008301525092915050565b600081359050610fae81611d78565b92915050565b600060e08284031215610fc657600080fd5b610fd060e06118ed565b9050600082013567ffffffffffffffff811115610fec57600080fd5b610ff884828501610e51565b600083015250602061100c84828501610d6a565b602083015250604061102084828501610dd3565b604083015250606061103484828501610e12565b606083015250608082013567ffffffffffffffff81111561105457600080fd5b61106084828501610da9565b60808301525060a082013567ffffffffffffffff81111561108057600080fd5b61108c84828501610da9565b60a08301525060c082013567ffffffffffffffff8111156110ac57600080fd5b6110b884828501610e7b565b60c08301525092915050565b6000813590506110d381611d8f565b92915050565b6000602082840312156110eb57600080fd5b60006110f984828501610de8565b91505092915050565b600080600080600060a0868803121561111a57600080fd5b600086013567ffffffffffffffff81111561113457600080fd5b61114088828901610e51565b955050602061115188828901610d6a565b945050604061116288828901610e12565b935050606086013567ffffffffffffffff81111561117f57600080fd5b61118b88828901610da9565b925050608086013567ffffffffffffffff8111156111a857600080fd5b6111b488828901610da9565b9150509295509295909350565b600080604083850312156111d457600080fd5b600083013567ffffffffffffffff8111156111ee57600080fd5b6111fa85828601610e7b565b925050602061120b85828601610f9f565b9150509250929050565b6000806040838503121561122857600080fd5b600083013567ffffffffffffffff81111561124257600080fd5b61124e85828601610fb4565b925050602061125f85828601610f9f565b9150509250929050565b6000806040838503121561127c57600080fd5b600061128a858286016110c4565b925050602083013567ffffffffffffffff8111156112a757600080fd5b6112b385828601610fb4565b9150509250929050565b60006112c9838361147f565b60208301905092915050565b60006112e1838361177a565b60208301905092915050565b6112f681611a72565b82525050565b6000611307826119c6565b6113118185611a01565b935061131c836119a6565b8060005b8381101561134d57815161133488826112bd565b975061133f836119e7565b925050600181019050611320565b5085935050505092915050565b6000611365826119c6565b61136f8185611a12565b935061137a836119a6565b8060005b838110156113ab57815161139288826112bd565b975061139d836119e7565b92505060018101905061137e565b5085935050505092915050565b60006113c3826119d1565b6113cd8185611a23565b93506113d8836119b6565b8060005b838110156114095781516113f088826112d5565b97506113fb836119f4565b9250506001810190506113dc565b5085935050505092915050565b61141f81611a84565b82525050565b61142e81611a84565b82525050565b61143d81611b07565b82525050565b61144c81611b19565b82525050565b61145b81611b2b565b82525050565b61146a81611b2b565b82525050565b61147981611ac9565b82525050565b61148881611ac9565b82525050565b6000611499826119dc565b6114a38185611a34565b93506114b3818560208601611b4c565b6114bc81611cb6565b840191505092915050565b60006114d2826119dc565b6114dc8185611a45565b93506114ec818560208601611b4c565b6114f581611cb6565b840191505092915050565b600061150b826119dc565b6115158185611a56565b9350611525818560208601611b4c565b61152e81611cb6565b840191505092915050565b6000611544826119dc565b61154e8185611a67565b935061155e818560208601611b4c565b80840191505092915050565b6000611577602083611a34565b91507f50726f63657373205661726961626c65206973206e6f7420636f72726563742e6000830152602082019050919050565b60006040830160008301516115c2600086018261177a565b50602083015184820360208601526115da8282611500565b9150508091505092915050565b600061012083016000830151611600600086018261177a565b5060208301516116136020860182611443565b5060408301516116266040860182611434565b5060608301516116396060860182611425565b50608083015161164c6080860182611425565b5060a083015161165f60a0860182611461565b5060c083015184820360c08601526116778282611500565b91505060e083015184820360e08601526116918282611500565b9150506101008301518482036101008601526116ad828261135a565b9150508091505092915050565b600060e08301600083015184820360008601526116d78282611500565b91505060208301516116ec60208601826112ed565b5060408301516116ff6040860182611425565b5060608301516117126060860182611443565b506080830151848203608086015261172a82826113b8565b91505060a083015184820360a086015261174482826113b8565b91505060c083015184820360c086015261175e82826115e7565b9150508091505092915050565b61177481611afd565b82525050565b61178381611afd565b82525050565b60006117958284611539565b915081905092915050565b60006020820190506117b56000830184611416565b92915050565b60006040820190506117d06000830185611416565b6117dd602083018461176b565b9392505050565b60006060820190506117f96000830186611470565b818103602083015261180b81856112fc565b905061181a6040830184611452565b949350505050565b6000602082019050818103600083015261183c818461148e565b905092915050565b6000606082019050818103600083015261185e81866114c7565b9050818103602083015261187281856114c7565b90506118816040830184611452565b949350505050565b600060208201905081810360008301526118a28161156a565b9050919050565b600060208201905081810360008301526118c381846115aa565b905092915050565b600060208201905081810360008301526118e581846116ba565b905092915050565b6000604051905081810181811067ffffffffffffffff8211171561191457611913611c87565b5b8060405250919050565b600067ffffffffffffffff82111561193957611938611c87565b5b602082029050602081019050919050565b600067ffffffffffffffff82111561196557611964611c87565b5b602082029050602081019050919050565b600067ffffffffffffffff82111561199157611990611c87565b5b601f19601f8301169050602081019050919050565b6000819050602082019050919050565b6000819050602082019050919050565b600081519050919050565b600081519050919050565b600081519050919050565b6000602082019050919050565b6000602082019050919050565b600082825260208201905092915050565b600082825260208201905092915050565b600082825260208201905092915050565b600082825260208201905092915050565b600082825260208201905092915050565b600082825260208201905092915050565b600081905092915050565b6000611a7d82611add565b9050919050565b60008115159050919050565b6000819050611a9e82611cc7565b919050565b6000819050611ab182611cdb565b919050565b6000819050611ac482611cef565b919050565b6000819050919050565b6000819050919050565b600073ffffffffffffffffffffffffffffffffffffffff82169050919050565b6000819050919050565b6000611b1282611a90565b9050919050565b6000611b2482611aa3565b9050919050565b6000611b3682611ab6565b9050919050565b82818337600083830152505050565b60005b83811015611b6a578082015181840152602081019050611b4f565b83811115611b79576000848401525b50505050565b60006002820490506001821680611b9757607f821691505b60208210811415611bab57611baa611c58565b5b50919050565b6000611bbc82611afd565b91507fffffffffffffffffffffffffffffffffffffffffffffffffffffffffffffffff821415611bef57611bee611bfa565b5b600182019050919050565b7f4e487b7100000000000000000000000000000000000000000000000000000000600052601160045260246000fd5b7f4e487b7100000000000000000000000000000000000000000000000000000000600052602160045260246000fd5b7f4e487b7100000000000000000000000000000000000000000000000000000000600052602260045260246000fd5b7f4e487b7100000000000000000000000000000000000000000000000000000000600052604160045260246000fd5b6000601f19601f8301169050919050565b60038110611cd857611cd7611c29565b5b50565b60048110611cec57611ceb611c29565b5b50565b60078110611d0057611cff611c29565b5b50565b611d0c81611a72565b8114611d1757600080fd5b50565b611d2381611a84565b8114611d2e57600080fd5b50565b60038110611d3e57600080fd5b50565b60048110611d4e57600080fd5b50565b60078110611d5e57600080fd5b50565b611d6a81611ac9565b8114611d7557600080fd5b50565b611d8181611ad3565b8114611d8c57600080fd5b50565b611d9881611afd565b8114611da357600080fd5b5056fea2646970667358221220a7d68dc01ceaa665ab641c1eeffbab9d34c67f6a0397894c2cb7b07d5f3c25cb64736f6c63430008000033","opcodes":"PUSH2 0x1DDC PUSH2 0x53 PUSH1 0xB DUP3 DUP3 DUP3 CODECOPY DUP1 MLOAD PUSH1 0x0 BYTE PUSH1 0x73 EQ PUSH2 0x46 JUMPI PUSH32 0x4E487B7100000000000000000000000000000000000000000000000000000000 PUSH1 0x0 MSTORE PUSH1 0x0 PUSH1 0x4 MSTORE PUSH1 0x24 PUSH1 0x0 REVERT JUMPDEST ADDRESS PUSH1 0x0 MSTORE PUSH1 0x73 DUP2 MSTORE8 DUP3 DUP2 RETURN INVALID PUSH20 0x0 ADDRESS EQ PUSH1 0x80 PUSH1 0x40 MSTORE PUSH1 0x4 CALLDATASIZE LT PUSH2 0x56 JUMPI PUSH1 0x0 CALLDATALOAD PUSH1 0xE0 SHR DUP1 PUSH4 0x72E6436B EQ PUSH2 0x5B JUMPI DUP1 PUSH4 0xA0BB48AB EQ PUSH2 0x8B JUMPI DUP1 PUSH4 0xB707C694 EQ PUSH2 0xBB JUMPI DUP1 PUSH4 0xE00E0EEA EQ PUSH2 0xEB JUMPI JUMPDEST PUSH1 0x0 DUP1 REVERT JUMPDEST PUSH2 0x75 PUSH1 0x4 DUP1 CALLDATASIZE SUB DUP2 ADD SWAP1 PUSH2 0x70 SWAP2 SWAP1 PUSH2 0x1102 JUMP JUMPDEST PUSH2 0x11C JUMP JUMPDEST PUSH1 0x40 MLOAD PUSH2 0x82 SWAP2 SWAP1 PUSH2 0x18CB JUMP JUMPDEST PUSH1 0x40 MLOAD DUP1 SWAP2 SUB SWAP1 RETURN JUMPDEST PUSH2 0xA5 PUSH1 0x4 DUP1 CALLDATASIZE SUB DUP2 ADD SWAP1 PUSH2 0xA0 SWAP2 SWAP1 PUSH2 0x1269 JUMP JUMPDEST PUSH2 0x20D JUMP JUMPDEST PUSH1 0x40 MLOAD PUSH2 0xB2 SWAP2 SWAP1 PUSH2 0x18A9 JUMP JUMPDEST PUSH1 0x40 MLOAD DUP1 SWAP2 SUB SWAP1 RETURN JUMPDEST PUSH2 0xD5 PUSH1 0x4 DUP1 CALLDATASIZE SUB DUP2 ADD SWAP1 PUSH2 0xD0 SWAP2 SWAP1 PUSH2 0x11C1 JUMP JUMPDEST PUSH2 0x23E JUMP JUMPDEST PUSH1 0x40 MLOAD PUSH2 0xE2 SWAP2 SWAP1 PUSH2 0x17A0 JUMP JUMPDEST PUSH1 0x40 MLOAD DUP1 SWAP2 SUB SWAP1 RETURN JUMPDEST PUSH2 0x105 PUSH1 0x4 DUP1 CALLDATASIZE SUB DUP2 ADD SWAP1 PUSH2 0x100 SWAP2 SWAP1 PUSH2 0x1215 JUMP JUMPDEST PUSH2 0x551 JUMP JUMPDEST PUSH1 0x40 MLOAD PUSH2 0x113 SWAP3 SWAP2 SWAP1 PUSH2 0x17BB JUMP JUMPDEST PUSH1 0x40 MLOAD DUP1 SWAP2 SUB SWAP1 RETURN JUMPDEST PUSH2 0x124 PUSH2 0xAAF JUMP JUMPDEST DUP6 DUP2 PUSH1 0x0 ADD DUP2 SWAP1 MSTORE POP DUP4 DUP2 PUSH1 0x60 ADD SWAP1 PUSH1 0x3 DUP2 GT ISZERO PUSH2 0x16B JUMPI PUSH32 0x4E487B7100000000000000000000000000000000000000000000000000000000 PUSH1 0x0 MSTORE PUSH1 0x21 PUSH1 0x4 MSTORE PUSH1 0x24 PUSH1 0x0 REVERT JUMPDEST SWAP1 DUP2 PUSH1 0x3 DUP2 GT ISZERO PUSH2 0x1A5 JUMPI PUSH32 0x4E487B7100000000000000000000000000000000000000000000000000000000 PUSH1 0x0 MSTORE PUSH1 0x21 PUSH1 0x4 MSTORE PUSH1 0x24 PUSH1 0x0 REVERT JUMPDEST DUP2 MSTORE POP POP DUP5 DUP2 PUSH1 0x20 ADD SWAP1 PUSH20 0xFFFFFFFFFFFFFFFFFFFFFFFFFFFFFFFFFFFFFFFF AND SWAP1 DUP2 PUSH20 0xFFFFFFFFFFFFFFFFFFFFFFFFFFFFFFFFFFFFFFFF AND DUP2 MSTORE POP POP DUP3 DUP2 PUSH1 0x80 ADD DUP2 SWAP1 MSTORE POP PUSH1 0x0 DUP2 PUSH1 0x40 ADD SWAP1 ISZERO ISZERO SWAP1 DUP2 ISZERO ISZERO DUP2 MSTORE POP POP DUP2 DUP2 PUSH1 0xA0 ADD DUP2 SWAP1 MSTORE POP SWAP6 SWAP5 POP POP POP POP POP JUMP JUMPDEST PUSH2 0x215 PUSH2 0xB42 JUMP JUMPDEST PUSH2 0x21D PUSH2 0xB42 JUMP JUMPDEST DUP4 DUP2 PUSH1 0x0 ADD DUP2 DUP2 MSTORE POP POP DUP3 PUSH1 0x0 ADD MLOAD DUP2 PUSH1 0x20 ADD DUP2 SWAP1 MSTORE POP DUP1 SWAP2 POP POP SWAP3 SWAP2 POP POP JUMP JUMPDEST PUSH1 0x0 DUP1 PUSH1 0x2 DUP2 GT ISZERO PUSH2 0x279 JUMPI PUSH32 0x4E487B7100000000000000000000000000000000000000000000000000000000 PUSH1 0x0 MSTORE PUSH1 0x21 PUSH1 0x4 MSTORE PUSH1 0x24 PUSH1 0x0 REVERT JUMPDEST DUP4 PUSH1 0x40 ADD MLOAD PUSH1 0x2 DUP2 GT ISZERO PUSH2 0x2B6 JUMPI PUSH32 0x4E487B7100000000000000000000000000000000000000000000000000000000 PUSH1 0x0 MSTORE PUSH1 0x21 PUSH1 0x4 MSTORE PUSH1 0x24 PUSH1 0x0 REVERT JUMPDEST EQ ISZERO PUSH2 0x408 JUMPI PUSH1 0x0 DUP3 PUSH1 0x2 ADD DUP5 PUSH1 0xC0 ADD MLOAD PUSH1 0x40 MLOAD PUSH2 0x2D4 SWAP2 SWAP1 PUSH2 0x1789 JUMP JUMPDEST SWAP1 DUP2 MSTORE PUSH1 0x20 ADD PUSH1 0x40 MLOAD DUP1 SWAP2 SUB SWAP1 KECCAK256 DUP1 SLOAD PUSH2 0x2ED SWAP1 PUSH2 0x1B7F JUMP JUMPDEST DUP1 PUSH1 0x1F ADD PUSH1 0x20 DUP1 SWAP2 DIV MUL PUSH1 0x20 ADD PUSH1 0x40 MLOAD SWAP1 DUP2 ADD PUSH1 0x40 MSTORE DUP1 SWAP3 SWAP2 SWAP1 DUP2 DUP2 MSTORE PUSH1 0x20 ADD DUP3 DUP1 SLOAD PUSH2 0x319 SWAP1 PUSH2 0x1B7F JUMP JUMPDEST DUP1 ISZERO PUSH2 0x366 JUMPI DUP1 PUSH1 0x1F LT PUSH2 0x33B JUMPI PUSH2 0x100 DUP1 DUP4 SLOAD DIV MUL DUP4 MSTORE SWAP2 PUSH1 0x20 ADD SWAP2 PUSH2 0x366 JUMP JUMPDEST DUP3 ADD SWAP2 SWAP1 PUSH1 0x0 MSTORE PUSH1 0x20 PUSH1 0x0 KECCAK256 SWAP1 JUMPDEST DUP2 SLOAD DUP2 MSTORE SWAP1 PUSH1 0x1 ADD SWAP1 PUSH1 0x20 ADD DUP1 DUP4 GT PUSH2 0x349 JUMPI DUP3 SWAP1 SUB PUSH1 0x1F AND DUP3 ADD SWAP2 JUMPDEST POP POP POP POP POP SWAP1 POP PUSH20 0x4082DCB15F595B67E825F0A97A35D8788005BB59 PUSH4 0xD9D0A612 DUP3 DUP7 PUSH1 0xE0 ADD MLOAD DUP8 PUSH1 0xA0 ADD MLOAD PUSH1 0x40 MLOAD DUP5 PUSH4 0xFFFFFFFF AND PUSH1 0xE0 SHL DUP2 MSTORE PUSH1 0x4 ADD PUSH2 0x3B0 SWAP4 SWAP3 SWAP2 SWAP1 PUSH2 0x1844 JUMP JUMPDEST PUSH1 0x20 PUSH1 0x40 MLOAD DUP1 DUP4 SUB DUP2 DUP7 DUP1 EXTCODESIZE ISZERO DUP1 ISZERO PUSH2 0x3C8 JUMPI PUSH1 0x0 DUP1 REVERT JUMPDEST POP GAS DELEGATECALL ISZERO DUP1 ISZERO PUSH2 0x3DC JUMPI RETURNDATASIZE PUSH1 0x0 DUP1 RETURNDATACOPY RETURNDATASIZE PUSH1 0x0 REVERT JUMPDEST POP POP POP POP PUSH1 0x40 MLOAD RETURNDATASIZE PUSH1 0x1F NOT PUSH1 0x1F DUP3 ADD AND DUP3 ADD DUP1 PUSH1 0x40 MSTORE POP DUP2 ADD SWAP1 PUSH2 0x400 SWAP2 SWAP1 PUSH2 0x10D9 JUMP JUMPDEST SWAP2 POP POP PUSH2 0x54B JUMP JUMPDEST PUSH1 0x1 PUSH1 0x2 DUP2 GT ISZERO PUSH2 0x442 JUMPI PUSH32 0x4E487B7100000000000000000000000000000000000000000000000000000000 PUSH1 0x0 MSTORE PUSH1 0x21 PUSH1 0x4 MSTORE PUSH1 0x24 PUSH1 0x0 REVERT JUMPDEST DUP4 PUSH1 0x40 ADD MLOAD PUSH1 0x2 DUP2 GT ISZERO PUSH2 0x47F JUMPI PUSH32 0x4E487B7100000000000000000000000000000000000000000000000000000000 PUSH1 0x0 MSTORE PUSH1 0x21 PUSH1 0x4 MSTORE PUSH1 0x24 PUSH1 0x0 REVERT JUMPDEST EQ ISZERO PUSH2 0x54A JUMPI PUSH1 0x0 DUP3 PUSH1 0x1 ADD DUP5 PUSH1 0xC0 ADD MLOAD PUSH1 0x40 MLOAD PUSH2 0x49D SWAP2 SWAP1 PUSH2 0x1789 JUMP JUMPDEST SWAP1 DUP2 MSTORE PUSH1 0x20 ADD PUSH1 0x40 MLOAD DUP1 SWAP2 SUB SWAP1 KECCAK256 SLOAD SWAP1 POP PUSH20 0x4082DCB15F595B67E825F0A97A35D8788005BB59 PUSH4 0x320CB552 DUP3 DUP7 PUSH2 0x100 ADD MLOAD DUP8 PUSH1 0xA0 ADD MLOAD PUSH1 0x40 MLOAD DUP5 PUSH4 0xFFFFFFFF AND PUSH1 0xE0 SHL DUP2 MSTORE PUSH1 0x4 ADD PUSH2 0x4F2 SWAP4 SWAP3 SWAP2 SWAP1 PUSH2 0x17E4 JUMP JUMPDEST PUSH1 0x20 PUSH1 0x40 MLOAD DUP1 DUP4 SUB DUP2 DUP7 DUP1 EXTCODESIZE ISZERO DUP1 ISZERO PUSH2 0x50A JUMPI PUSH1 0x0 DUP1 REVERT JUMPDEST POP GAS DELEGATECALL ISZERO DUP1 ISZERO PUSH2 0x51E JUMPI RETURNDATASIZE PUSH1 0x0 DUP1 RETURNDATACOPY RETURNDATASIZE PUSH1 0x0 REVERT JUMPDEST POP POP POP POP PUSH1 0x40 MLOAD RETURNDATASIZE PUSH1 0x1F NOT PUSH1 0x1F DUP3 ADD AND DUP3 ADD DUP1 PUSH1 0x40 MSTORE POP DUP2 ADD SWAP1 PUSH2 0x542 SWAP2 SWAP1 PUSH2 0x10D9 JUMP JUMPDEST SWAP2 POP POP PUSH2 0x54B JUMP JUMPDEST JUMPDEST SWAP3 SWAP2 POP POP JUMP JUMPDEST PUSH1 0x0 DUP1 PUSH1 0x0 SWAP1 POP PUSH1 0x0 DUP5 PUSH1 0x20 ADD MLOAD SWAP1 POP PUSH1 0x0 PUSH20 0xFFFFFFFFFFFFFFFFFFFFFFFFFFFFFFFFFFFFFFFF AND DUP2 PUSH20 0xFFFFFFFFFFFFFFFFFFFFFFFFFFFFFFFFFFFFFFFF AND EQ DUP1 PUSH2 0x5C7 JUMPI POP CALLER PUSH20 0xFFFFFFFFFFFFFFFFFFFFFFFFFFFFFFFFFFFFFFFF AND DUP2 PUSH20 0xFFFFFFFFFFFFFFFFFFFFFFFFFFFFFFFFFFFFFFFF AND EQ JUMPDEST DUP6 PUSH1 0x0 ADD MLOAD SWAP1 PUSH2 0x60D JUMPI PUSH1 0x40 MLOAD PUSH32 0x8C379A000000000000000000000000000000000000000000000000000000000 DUP2 MSTORE PUSH1 0x4 ADD PUSH2 0x604 SWAP2 SWAP1 PUSH2 0x1822 JUMP JUMPDEST PUSH1 0x40 MLOAD DUP1 SWAP2 SUB SWAP1 REVERT JUMPDEST POP DUP5 PUSH1 0xC0 ADD MLOAD PUSH1 0x80 ADD MLOAD ISZERO PUSH2 0x67B JUMPI DUP5 PUSH1 0xC0 ADD MLOAD PUSH1 0x0 ADD MLOAD SWAP2 POP PUSH1 0x0 PUSH2 0x637 DUP7 PUSH1 0xC0 ADD MLOAD DUP7 PUSH2 0x23E JUMP JUMPDEST SWAP1 POP DUP1 PUSH2 0x679 JUMPI PUSH1 0x40 MLOAD PUSH32 0x8C379A000000000000000000000000000000000000000000000000000000000 DUP2 MSTORE PUSH1 0x4 ADD PUSH2 0x670 SWAP1 PUSH2 0x1889 JUMP JUMPDEST PUSH1 0x40 MLOAD DUP1 SWAP2 SUB SWAP1 REVERT JUMPDEST POP JUMPDEST PUSH1 0x0 DUP6 PUSH1 0x80 ADD MLOAD SWAP1 POP PUSH1 0x0 DUP2 MLOAD EQ ISZERO PUSH2 0x699 JUMPI PUSH1 0x1 SWAP4 POP POP POP PUSH2 0xAA8 JUMP JUMPDEST PUSH1 0x0 DUP7 PUSH1 0x60 ADD MLOAD SWAP1 POP PUSH1 0x0 PUSH1 0x3 DUP2 GT ISZERO PUSH2 0x6DC JUMPI PUSH32 0x4E487B7100000000000000000000000000000000000000000000000000000000 PUSH1 0x0 MSTORE PUSH1 0x21 PUSH1 0x4 MSTORE PUSH1 0x24 PUSH1 0x0 REVERT JUMPDEST DUP2 PUSH1 0x3 DUP2 GT ISZERO PUSH2 0x715 JUMPI PUSH32 0x4E487B7100000000000000000000000000000000000000000000000000000000 PUSH1 0x0 MSTORE PUSH1 0x21 PUSH1 0x4 MSTORE PUSH1 0x24 PUSH1 0x0 REVERT JUMPDEST EQ ISZERO PUSH2 0x78C JUMPI DUP6 PUSH1 0x0 ADD PUSH1 0x0 DUP4 PUSH1 0x0 DUP2 MLOAD DUP2 LT PUSH2 0x75B JUMPI PUSH32 0x4E487B7100000000000000000000000000000000000000000000000000000000 PUSH1 0x0 MSTORE PUSH1 0x32 PUSH1 0x4 MSTORE PUSH1 0x24 PUSH1 0x0 REVERT JUMPDEST PUSH1 0x20 MUL PUSH1 0x20 ADD ADD MLOAD DUP2 MSTORE PUSH1 0x20 ADD SWAP1 DUP2 MSTORE PUSH1 0x20 ADD PUSH1 0x0 KECCAK256 PUSH1 0x1 ADD PUSH1 0x14 SWAP1 SLOAD SWAP1 PUSH2 0x100 EXP SWAP1 DIV PUSH1 0xFF AND SWAP5 POP POP POP POP PUSH2 0xAA8 JUMP JUMPDEST PUSH1 0x0 DUP1 JUMPDEST DUP4 MLOAD DUP2 LT ISZERO PUSH2 0x827 JUMPI DUP8 PUSH1 0x0 ADD PUSH1 0x0 DUP6 PUSH1 0x0 DUP2 MLOAD DUP2 LT PUSH2 0x7D9 JUMPI PUSH32 0x4E487B7100000000000000000000000000000000000000000000000000000000 PUSH1 0x0 MSTORE PUSH1 0x32 PUSH1 0x4 MSTORE PUSH1 0x24 PUSH1 0x0 REVERT JUMPDEST PUSH1 0x20 MUL PUSH1 0x20 ADD ADD MLOAD DUP2 MSTORE PUSH1 0x20 ADD SWAP1 DUP2 MSTORE PUSH1 0x20 ADD PUSH1 0x0 KECCAK256 PUSH1 0x1 ADD PUSH1 0x14 SWAP1 SLOAD SWAP1 PUSH2 0x100 EXP SWAP1 DIV PUSH1 0xFF AND ISZERO PUSH2 0x814 JUMPI DUP2 DUP1 PUSH2 0x810 SWAP1 PUSH2 0x1BB1 JUMP JUMPDEST SWAP3 POP POP JUMPDEST DUP1 DUP1 PUSH2 0x81F SWAP1 PUSH2 0x1BB1 JUMP JUMPDEST SWAP2 POP POP PUSH2 0x790 JUMP JUMPDEST POP PUSH1 0x1 PUSH1 0x3 DUP2 GT ISZERO PUSH2 0x862 JUMPI PUSH32 0x4E487B7100000000000000000000000000000000000000000000000000000000 PUSH1 0x0 MSTORE PUSH1 0x21 PUSH1 0x4 MSTORE PUSH1 0x24 PUSH1 0x0 REVERT JUMPDEST DUP3 PUSH1 0x3 DUP2 GT ISZERO PUSH2 0x89B JUMPI PUSH32 0x4E487B7100000000000000000000000000000000000000000000000000000000 PUSH1 0x0 MSTORE PUSH1 0x21 PUSH1 0x4 MSTORE PUSH1 0x24 PUSH1 0x0 REVERT JUMPDEST EQ ISZERO PUSH2 0x8B0 JUMPI DUP3 MLOAD DUP2 EQ SWAP6 POP POP POP POP POP PUSH2 0xAA8 JUMP JUMPDEST PUSH1 0x2 PUSH1 0x3 DUP2 GT ISZERO PUSH2 0x8EA JUMPI PUSH32 0x4E487B7100000000000000000000000000000000000000000000000000000000 PUSH1 0x0 MSTORE PUSH1 0x21 PUSH1 0x4 MSTORE PUSH1 0x24 PUSH1 0x0 REVERT JUMPDEST DUP3 PUSH1 0x3 DUP2 GT ISZERO PUSH2 0x923 JUMPI PUSH32 0x4E487B7100000000000000000000000000000000000000000000000000000000 PUSH1 0x0 MSTORE PUSH1 0x21 PUSH1 0x4 MSTORE PUSH1 0x24 PUSH1 0x0 REVERT JUMPDEST EQ ISZERO PUSH2 0x938 JUMPI PUSH1 0x0 DUP2 GT SWAP6 POP POP POP POP POP PUSH2 0xAA8 JUMP JUMPDEST PUSH1 0x3 DUP1 DUP2 GT ISZERO PUSH2 0x971 JUMPI PUSH32 0x4E487B7100000000000000000000000000000000000000000000000000000000 PUSH1 0x0 MSTORE PUSH1 0x21 PUSH1 0x4 MSTORE PUSH1 0x24 PUSH1 0x0 REVERT JUMPDEST DUP3 PUSH1 0x3 DUP2 GT ISZERO PUSH2 0x9AA JUMPI PUSH32 0x4E487B7100000000000000000000000000000000000000000000000000000000 PUSH1 0x0 MSTORE PUSH1 0x21 PUSH1 0x4 MSTORE PUSH1 0x24 PUSH1 0x0 REVERT JUMPDEST EQ ISZERO PUSH2 0xAA3 JUMPI PUSH1 0x0 JUMPDEST DUP4 MLOAD DUP2 LT ISZERO PUSH2 0xAA1 JUMPI DUP8 PUSH1 0x3 ADD PUSH1 0x0 DUP6 DUP4 DUP2 MLOAD DUP2 LT PUSH2 0x9FB JUMPI PUSH32 0x4E487B7100000000000000000000000000000000000000000000000000000000 PUSH1 0x0 MSTORE PUSH1 0x32 PUSH1 0x4 MSTORE PUSH1 0x24 PUSH1 0x0 REVERT JUMPDEST PUSH1 0x20 MUL PUSH1 0x20 ADD ADD MLOAD DUP2 MSTORE PUSH1 0x20 ADD SWAP1 DUP2 MSTORE PUSH1 0x20 ADD PUSH1 0x0 KECCAK256 PUSH1 0x0 SWAP1 SLOAD SWAP1 PUSH2 0x100 EXP SWAP1 DIV PUSH1 0xFF AND ISZERO PUSH2 0xA8E JUMPI DUP8 PUSH1 0x0 ADD PUSH1 0x0 DUP6 PUSH1 0x0 DUP2 MLOAD DUP2 LT PUSH2 0xA64 JUMPI PUSH32 0x4E487B7100000000000000000000000000000000000000000000000000000000 PUSH1 0x0 MSTORE PUSH1 0x32 PUSH1 0x4 MSTORE PUSH1 0x24 PUSH1 0x0 REVERT JUMPDEST PUSH1 0x20 MUL PUSH1 0x20 ADD ADD MLOAD DUP2 MSTORE PUSH1 0x20 ADD SWAP1 DUP2 MSTORE PUSH1 0x20 ADD PUSH1 0x0 KECCAK256 PUSH1 0x1 ADD PUSH1 0x14 SWAP1 SLOAD SWAP1 PUSH2 0x100 EXP SWAP1 DIV PUSH1 0xFF AND SWAP7 POP JUMPDEST DUP1 DUP1 PUSH2 0xA99 SWAP1 PUSH2 0x1BB1 JUMP JUMPDEST SWAP2 POP POP PUSH2 0x9B3 JUMP JUMPDEST POP JUMPDEST POP POP POP POP JUMPDEST SWAP3 POP SWAP3 SWAP1 POP JUMP JUMPDEST PUSH1 0x40 MLOAD DUP1 PUSH1 0xE0 ADD PUSH1 0x40 MSTORE DUP1 PUSH1 0x60 DUP2 MSTORE PUSH1 0x20 ADD PUSH1 0x0 PUSH20 0xFFFFFFFFFFFFFFFFFFFFFFFFFFFFFFFFFFFFFFFF AND DUP2 MSTORE PUSH1 0x20 ADD PUSH1 0x0 ISZERO ISZERO DUP2 MSTORE PUSH1 0x20 ADD PUSH1 0x0 PUSH1 0x3 DUP2 GT ISZERO PUSH2 0xB21 JUMPI PUSH32 0x4E487B7100000000000000000000000000000000000000000000000000000000 PUSH1 0x0 MSTORE PUSH1 0x21 PUSH1 0x4 MSTORE PUSH1 0x24 PUSH1 0x0 REVERT JUMPDEST DUP2 MSTORE PUSH1 0x20 ADD PUSH1 0x60 DUP2 MSTORE PUSH1 0x20 ADD PUSH1 0x60 DUP2 MSTORE PUSH1 0x20 ADD PUSH2 0xB3C PUSH2 0xB5C JUMP JUMPDEST DUP2 MSTORE POP SWAP1 JUMP JUMPDEST PUSH1 0x40 MLOAD DUP1 PUSH1 0x40 ADD PUSH1 0x40 MSTORE DUP1 PUSH1 0x0 DUP2 MSTORE PUSH1 0x20 ADD PUSH1 0x60 DUP2 MSTORE POP SWAP1 JUMP JUMPDEST PUSH1 0x40 MLOAD DUP1 PUSH2 0x120 ADD PUSH1 0x40 MSTORE DUP1 PUSH1 0x0 DUP2 MSTORE PUSH1 0x20 ADD PUSH1 0x0 PUSH1 0x3 DUP2 GT ISZERO PUSH2 0xBA9 JUMPI PUSH32 0x4E487B7100000000000000000000000000000000000000000000000000000000 PUSH1 0x0 MSTORE PUSH1 0x21 PUSH1 0x4 MSTORE PUSH1 0x24 PUSH1 0x0 REVERT JUMPDEST DUP2 MSTORE PUSH1 0x20 ADD PUSH1 0x0 PUSH1 0x2 DUP2 GT ISZERO PUSH2 0xBE8 JUMPI PUSH32 0x4E487B7100000000000000000000000000000000000000000000000000000000 PUSH1 0x0 MSTORE PUSH1 0x21 PUSH1 0x4 MSTORE PUSH1 0x24 PUSH1 0x0 REVERT JUMPDEST DUP2 MSTORE PUSH1 0x20 ADD PUSH1 0x0 ISZERO ISZERO DUP2 MSTORE PUSH1 0x20 ADD PUSH1 0x0 ISZERO ISZERO DUP2 MSTORE PUSH1 0x20 ADD PUSH1 0x0 PUSH1 0x6 DUP2 GT ISZERO PUSH2 0xC39 JUMPI PUSH32 0x4E487B7100000000000000000000000000000000000000000000000000000000 PUSH1 0x0 MSTORE PUSH1 0x21 PUSH1 0x4 MSTORE PUSH1 0x24 PUSH1 0x0 REVERT JUMPDEST DUP2 MSTORE PUSH1 0x20 ADD PUSH1 0x60 DUP2 MSTORE PUSH1 0x20 ADD PUSH1 0x60 DUP2 MSTORE PUSH1 0x20 ADD PUSH1 0x60 DUP2 MSTORE POP SWAP1 JUMP JUMPDEST PUSH1 0x0 PUSH2 0xC67 PUSH2 0xC62 DUP5 PUSH2 0x191E JUMP JUMPDEST PUSH2 0x18ED JUMP JUMPDEST SWAP1 POP DUP1 DUP4 DUP3 MSTORE PUSH1 0x20 DUP3 ADD SWAP1 POP DUP3 DUP6 PUSH1 0x20 DUP7 MUL DUP3 ADD GT ISZERO PUSH2 0xC86 JUMPI PUSH1 0x0 DUP1 REVERT JUMPDEST PUSH1 0x0 JUMPDEST DUP6 DUP2 LT ISZERO PUSH2 0xCB6 JUMPI DUP2 PUSH2 0xC9C DUP9 DUP3 PUSH2 0xE3C JUMP JUMPDEST DUP5 MSTORE PUSH1 0x20 DUP5 ADD SWAP4 POP PUSH1 0x20 DUP4 ADD SWAP3 POP POP PUSH1 0x1 DUP2 ADD SWAP1 POP PUSH2 0xC89 JUMP JUMPDEST POP POP POP SWAP4 SWAP3 POP POP POP JUMP JUMPDEST PUSH1 0x0 PUSH2 0xCD3 PUSH2 0xCCE DUP5 PUSH2 0x194A JUMP JUMPDEST PUSH2 0x18ED JUMP JUMPDEST SWAP1 POP DUP1 DUP4 DUP3 MSTORE PUSH1 0x20 DUP3 ADD SWAP1 POP DUP3 DUP6 PUSH1 0x20 DUP7 MUL DUP3 ADD GT ISZERO PUSH2 0xCF2 JUMPI PUSH1 0x0 DUP1 REVERT JUMPDEST PUSH1 0x0 JUMPDEST DUP6 DUP2 LT ISZERO PUSH2 0xD22 JUMPI DUP2 PUSH2 0xD08 DUP9 DUP3 PUSH2 0x10C4 JUMP JUMPDEST DUP5 MSTORE PUSH1 0x20 DUP5 ADD SWAP4 POP PUSH1 0x20 DUP4 ADD SWAP3 POP POP PUSH1 0x1 DUP2 ADD SWAP1 POP PUSH2 0xCF5 JUMP JUMPDEST POP POP POP SWAP4 SWAP3 POP POP POP JUMP JUMPDEST PUSH1 0x0 PUSH2 0xD3F PUSH2 0xD3A DUP5 PUSH2 0x1976 JUMP JUMPDEST PUSH2 0x18ED JUMP JUMPDEST SWAP1 POP DUP3 DUP2 MSTORE PUSH1 0x20 DUP2 ADD DUP5 DUP5 DUP5 ADD GT ISZERO PUSH2 0xD57 JUMPI PUSH1 0x0 DUP1 REVERT JUMPDEST PUSH2 0xD62 DUP5 DUP3 DUP6 PUSH2 0x1B3D JUMP JUMPDEST POP SWAP4 SWAP3 POP POP POP JUMP JUMPDEST PUSH1 0x0 DUP2 CALLDATALOAD SWAP1 POP PUSH2 0xD79 DUP2 PUSH2 0x1D03 JUMP JUMPDEST SWAP3 SWAP2 POP POP JUMP JUMPDEST PUSH1 0x0 DUP3 PUSH1 0x1F DUP4 ADD SLT PUSH2 0xD90 JUMPI PUSH1 0x0 DUP1 REVERT JUMPDEST DUP2 CALLDATALOAD PUSH2 0xDA0 DUP5 DUP3 PUSH1 0x20 DUP7 ADD PUSH2 0xC54 JUMP JUMPDEST SWAP2 POP POP SWAP3 SWAP2 POP POP JUMP JUMPDEST PUSH1 0x0 DUP3 PUSH1 0x1F DUP4 ADD SLT PUSH2 0xDBA JUMPI PUSH1 0x0 DUP1 REVERT JUMPDEST DUP2 CALLDATALOAD PUSH2 0xDCA DUP5 DUP3 PUSH1 0x20 DUP7 ADD PUSH2 0xCC0 JUMP JUMPDEST SWAP2 POP POP SWAP3 SWAP2 POP POP JUMP JUMPDEST PUSH1 0x0 DUP2 CALLDATALOAD SWAP1 POP PUSH2 0xDE2 DUP2 PUSH2 0x1D1A JUMP JUMPDEST SWAP3 SWAP2 POP POP JUMP JUMPDEST PUSH1 0x0 DUP2 MLOAD SWAP1 POP PUSH2 0xDF7 DUP2 PUSH2 0x1D1A JUMP JUMPDEST SWAP3 SWAP2 POP POP JUMP JUMPDEST PUSH1 0x0 DUP2 CALLDATALOAD SWAP1 POP PUSH2 0xE0C DUP2 PUSH2 0x1D31 JUMP JUMPDEST SWAP3 SWAP2 POP POP JUMP JUMPDEST PUSH1 0x0 DUP2 CALLDATALOAD SWAP1 POP PUSH2 0xE21 DUP2 PUSH2 0x1D41 JUMP JUMPDEST SWAP3 SWAP2 POP POP JUMP JUMPDEST PUSH1 0x0 DUP2 CALLDATALOAD SWAP1 POP PUSH2 0xE36 DUP2 PUSH2 0x1D51 JUMP JUMPDEST SWAP3 SWAP2 POP POP JUMP JUMPDEST PUSH1 0x0 DUP2 CALLDATALOAD SWAP1 POP PUSH2 0xE4B DUP2 PUSH2 0x1D61 JUMP JUMPDEST SWAP3 SWAP2 POP POP JUMP JUMPDEST PUSH1 0x0 DUP3 PUSH1 0x1F DUP4 ADD SLT PUSH2 0xE62 JUMPI PUSH1 0x0 DUP1 REVERT JUMPDEST DUP2 CALLDATALOAD PUSH2 0xE72 DUP5 DUP3 PUSH1 0x20 DUP7 ADD PUSH2 0xD2C JUMP JUMPDEST SWAP2 POP POP SWAP3 SWAP2 POP POP JUMP JUMPDEST PUSH1 0x0 PUSH2 0x120 DUP3 DUP5 SUB SLT ISZERO PUSH2 0xE8E JUMPI PUSH1 0x0 DUP1 REVERT JUMPDEST PUSH2 0xE99 PUSH2 0x120 PUSH2 0x18ED JUMP JUMPDEST SWAP1 POP PUSH1 0x0 PUSH2 0xEA9 DUP5 DUP3 DUP6 ADD PUSH2 0x10C4 JUMP JUMPDEST PUSH1 0x0 DUP4 ADD MSTORE POP PUSH1 0x20 PUSH2 0xEBD DUP5 DUP3 DUP6 ADD PUSH2 0xE12 JUMP JUMPDEST PUSH1 0x20 DUP4 ADD MSTORE POP PUSH1 0x40 PUSH2 0xED1 DUP5 DUP3 DUP6 ADD PUSH2 0xDFD JUMP JUMPDEST PUSH1 0x40 DUP4 ADD MSTORE POP PUSH1 0x60 PUSH2 0xEE5 DUP5 DUP3 DUP6 ADD PUSH2 0xDD3 JUMP JUMPDEST PUSH1 0x60 DUP4 ADD MSTORE POP PUSH1 0x80 PUSH2 0xEF9 DUP5 DUP3 DUP6 ADD PUSH2 0xDD3 JUMP JUMPDEST PUSH1 0x80 DUP4 ADD MSTORE POP PUSH1 0xA0 PUSH2 0xF0D DUP5 DUP3 DUP6 ADD PUSH2 0xE27 JUMP JUMPDEST PUSH1 0xA0 DUP4 ADD MSTORE POP PUSH1 0xC0 DUP3 ADD CALLDATALOAD PUSH8 0xFFFFFFFFFFFFFFFF DUP2 GT ISZERO PUSH2 0xF2D JUMPI PUSH1 0x0 DUP1 REVERT JUMPDEST PUSH2 0xF39 DUP5 DUP3 DUP6 ADD PUSH2 0xE51 JUMP JUMPDEST PUSH1 0xC0 DUP4 ADD MSTORE POP PUSH1 0xE0 DUP3 ADD CALLDATALOAD PUSH8 0xFFFFFFFFFFFFFFFF DUP2 GT ISZERO PUSH2 0xF59 JUMPI PUSH1 0x0 DUP1 REVERT JUMPDEST PUSH2 0xF65 DUP5 DUP3 DUP6 ADD PUSH2 0xE51 JUMP JUMPDEST PUSH1 0xE0 DUP4 ADD MSTORE POP PUSH2 0x100 DUP3 ADD CALLDATALOAD PUSH8 0xFFFFFFFFFFFFFFFF DUP2 GT ISZERO PUSH2 0xF86 JUMPI PUSH1 0x0 DUP1 REVERT JUMPDEST PUSH2 0xF92 DUP5 DUP3 DUP6 ADD PUSH2 0xD7F JUMP JUMPDEST PUSH2 0x100 DUP4 ADD MSTORE POP SWAP3 SWAP2 POP POP JUMP JUMPDEST PUSH1 0x0 DUP2 CALLDATALOAD SWAP1 POP PUSH2 0xFAE DUP2 PUSH2 0x1D78 JUMP JUMPDEST SWAP3 SWAP2 POP POP JUMP JUMPDEST PUSH1 0x0 PUSH1 0xE0 DUP3 DUP5 SUB SLT ISZERO PUSH2 0xFC6 JUMPI PUSH1 0x0 DUP1 REVERT JUMPDEST PUSH2 0xFD0 PUSH1 0xE0 PUSH2 0x18ED JUMP JUMPDEST SWAP1 POP PUSH1 0x0 DUP3 ADD CALLDATALOAD PUSH8 0xFFFFFFFFFFFFFFFF DUP2 GT ISZERO PUSH2 0xFEC JUMPI PUSH1 0x0 DUP1 REVERT JUMPDEST PUSH2 0xFF8 DUP5 DUP3 DUP6 ADD PUSH2 0xE51 JUMP JUMPDEST PUSH1 0x0 DUP4 ADD MSTORE POP PUSH1 0x20 PUSH2 0x100C DUP5 DUP3 DUP6 ADD PUSH2 0xD6A JUMP JUMPDEST PUSH1 0x20 DUP4 ADD MSTORE POP PUSH1 0x40 PUSH2 0x1020 DUP5 DUP3 DUP6 ADD PUSH2 0xDD3 JUMP JUMPDEST PUSH1 0x40 DUP4 ADD MSTORE POP PUSH1 0x60 PUSH2 0x1034 DUP5 DUP3 DUP6 ADD PUSH2 0xE12 JUMP JUMPDEST PUSH1 0x60 DUP4 ADD MSTORE POP PUSH1 0x80 DUP3 ADD CALLDATALOAD PUSH8 0xFFFFFFFFFFFFFFFF DUP2 GT ISZERO PUSH2 0x1054 JUMPI PUSH1 0x0 DUP1 REVERT JUMPDEST PUSH2 0x1060 DUP5 DUP3 DUP6 ADD PUSH2 0xDA9 JUMP JUMPDEST PUSH1 0x80 DUP4 ADD MSTORE POP PUSH1 0xA0 DUP3 ADD CALLDATALOAD PUSH8 0xFFFFFFFFFFFFFFFF DUP2 GT ISZERO PUSH2 0x1080 JUMPI PUSH1 0x0 DUP1 REVERT JUMPDEST PUSH2 0x108C DUP5 DUP3 DUP6 ADD PUSH2 0xDA9 JUMP JUMPDEST PUSH1 0xA0 DUP4 ADD MSTORE POP PUSH1 0xC0 DUP3 ADD CALLDATALOAD PUSH8 0xFFFFFFFFFFFFFFFF DUP2 GT ISZERO PUSH2 0x10AC JUMPI PUSH1 0x0 DUP1 REVERT JUMPDEST PUSH2 0x10B8 DUP5 DUP3 DUP6 ADD PUSH2 0xE7B JUMP JUMPDEST PUSH1 0xC0 DUP4 ADD MSTORE POP SWAP3 SWAP2 POP POP JUMP JUMPDEST PUSH1 0x0 DUP2 CALLDATALOAD SWAP1 POP PUSH2 0x10D3 DUP2 PUSH2 0x1D8F JUMP JUMPDEST SWAP3 SWAP2 POP POP JUMP JUMPDEST PUSH1 0x0 PUSH1 0x20 DUP3 DUP5 SUB SLT ISZERO PUSH2 0x10EB JUMPI PUSH1 0x0 DUP1 REVERT JUMPDEST PUSH1 0x0 PUSH2 0x10F9 DUP5 DUP3 DUP6 ADD PUSH2 0xDE8 JUMP JUMPDEST SWAP2 POP POP SWAP3 SWAP2 POP POP JUMP JUMPDEST PUSH1 0x0 DUP1 PUSH1 0x0 DUP1 PUSH1 0x0 PUSH1 0xA0 DUP7 DUP9 SUB SLT ISZERO PUSH2 0x111A JUMPI PUSH1 0x0 DUP1 REVERT JUMPDEST PUSH1 0x0 DUP7 ADD CALLDATALOAD PUSH8 0xFFFFFFFFFFFFFFFF DUP2 GT ISZERO PUSH2 0x1134 JUMPI PUSH1 0x0 DUP1 REVERT JUMPDEST PUSH2 0x1140 DUP9 DUP3 DUP10 ADD PUSH2 0xE51 JUMP JUMPDEST SWAP6 POP POP PUSH1 0x20 PUSH2 0x1151 DUP9 DUP3 DUP10 ADD PUSH2 0xD6A JUMP JUMPDEST SWAP5 POP POP PUSH1 0x40 PUSH2 0x1162 DUP9 DUP3 DUP10 ADD PUSH2 0xE12 JUMP JUMPDEST SWAP4 POP POP PUSH1 0x60 DUP7 ADD CALLDATALOAD PUSH8 0xFFFFFFFFFFFFFFFF DUP2 GT ISZERO PUSH2 0x117F JUMPI PUSH1 0x0 DUP1 REVERT JUMPDEST PUSH2 0x118B DUP9 DUP3 DUP10 ADD PUSH2 0xDA9 JUMP JUMPDEST SWAP3 POP POP PUSH1 0x80 DUP7 ADD CALLDATALOAD PUSH8 0xFFFFFFFFFFFFFFFF DUP2 GT ISZERO PUSH2 0x11A8 JUMPI PUSH1 0x0 DUP1 REVERT JUMPDEST PUSH2 0x11B4 DUP9 DUP3 DUP10 ADD PUSH2 0xDA9 JUMP JUMPDEST SWAP2 POP POP SWAP3 SWAP6 POP SWAP3 SWAP6 SWAP1 SWAP4 POP JUMP JUMPDEST PUSH1 0x0 DUP1 PUSH1 0x40 DUP4 DUP6 SUB SLT ISZERO PUSH2 0x11D4 JUMPI PUSH1 0x0 DUP1 REVERT JUMPDEST PUSH1 0x0 DUP4 ADD CALLDATALOAD PUSH8 0xFFFFFFFFFFFFFFFF DUP2 GT ISZERO PUSH2 0x11EE JUMPI PUSH1 0x0 DUP1 REVERT JUMPDEST PUSH2 0x11FA DUP6 DUP3 DUP7 ADD PUSH2 0xE7B JUMP JUMPDEST SWAP3 POP POP PUSH1 0x20 PUSH2 0x120B DUP6 DUP3 DUP7 ADD PUSH2 0xF9F JUMP JUMPDEST SWAP2 POP POP SWAP3 POP SWAP3 SWAP1 POP JUMP JUMPDEST PUSH1 0x0 DUP1 PUSH1 0x40 DUP4 DUP6 SUB SLT ISZERO PUSH2 0x1228 JUMPI PUSH1 0x0 DUP1 REVERT JUMPDEST PUSH1 0x0 DUP4 ADD CALLDATALOAD PUSH8 0xFFFFFFFFFFFFFFFF DUP2 GT ISZERO PUSH2 0x1242 JUMPI PUSH1 0x0 DUP1 REVERT JUMPDEST PUSH2 0x124E DUP6 DUP3 DUP7 ADD PUSH2 0xFB4 JUMP JUMPDEST SWAP3 POP POP PUSH1 0x20 PUSH2 0x125F DUP6 DUP3 DUP7 ADD PUSH2 0xF9F JUMP JUMPDEST SWAP2 POP POP SWAP3 POP SWAP3 SWAP1 POP JUMP JUMPDEST PUSH1 0x0 DUP1 PUSH1 0x40 DUP4 DUP6 SUB SLT ISZERO PUSH2 0x127C JUMPI PUSH1 0x0 DUP1 REVERT JUMPDEST PUSH1 0x0 PUSH2 0x128A DUP6 DUP3 DUP7 ADD PUSH2 0x10C4 JUMP JUMPDEST SWAP3 POP POP PUSH1 0x20 DUP4 ADD CALLDATALOAD PUSH8 0xFFFFFFFFFFFFFFFF DUP2 GT ISZERO PUSH2 0x12A7 JUMPI PUSH1 0x0 DUP1 REVERT JUMPDEST PUSH2 0x12B3 DUP6 DUP3 DUP7 ADD PUSH2 0xFB4 JUMP JUMPDEST SWAP2 POP POP SWAP3 POP SWAP3 SWAP1 POP JUMP JUMPDEST PUSH1 0x0 PUSH2 0x12C9 DUP4 DUP4 PUSH2 0x147F JUMP JUMPDEST PUSH1 0x20 DUP4 ADD SWAP1 POP SWAP3 SWAP2 POP POP JUMP JUMPDEST PUSH1 0x0 PUSH2 0x12E1 DUP4 DUP4 PUSH2 0x177A JUMP JUMPDEST PUSH1 0x20 DUP4 ADD SWAP1 POP SWAP3 SWAP2 POP POP JUMP JUMPDEST PUSH2 0x12F6 DUP2 PUSH2 0x1A72 JUMP JUMPDEST DUP3 MSTORE POP POP JUMP JUMPDEST PUSH1 0x0 PUSH2 0x1307 DUP3 PUSH2 0x19C6 JUMP JUMPDEST PUSH2 0x1311 DUP2 DUP6 PUSH2 0x1A01 JUMP JUMPDEST SWAP4 POP PUSH2 0x131C DUP4 PUSH2 0x19A6 JUMP JUMPDEST DUP1 PUSH1 0x0 JUMPDEST DUP4 DUP2 LT ISZERO PUSH2 0x134D JUMPI DUP2 MLOAD PUSH2 0x1334 DUP9 DUP3 PUSH2 0x12BD JUMP JUMPDEST SWAP8 POP PUSH2 0x133F DUP4 PUSH2 0x19E7 JUMP JUMPDEST SWAP3 POP POP PUSH1 0x1 DUP2 ADD SWAP1 POP PUSH2 0x1320 JUMP JUMPDEST POP DUP6 SWAP4 POP POP POP POP SWAP3 SWAP2 POP POP JUMP JUMPDEST PUSH1 0x0 PUSH2 0x1365 DUP3 PUSH2 0x19C6 JUMP JUMPDEST PUSH2 0x136F DUP2 DUP6 PUSH2 0x1A12 JUMP JUMPDEST SWAP4 POP PUSH2 0x137A DUP4 PUSH2 0x19A6 JUMP JUMPDEST DUP1 PUSH1 0x0 JUMPDEST DUP4 DUP2 LT ISZERO PUSH2 0x13AB JUMPI DUP2 MLOAD PUSH2 0x1392 DUP9 DUP3 PUSH2 0x12BD JUMP JUMPDEST SWAP8 POP PUSH2 0x139D DUP4 PUSH2 0x19E7 JUMP JUMPDEST SWAP3 POP POP PUSH1 0x1 DUP2 ADD SWAP1 POP PUSH2 0x137E JUMP JUMPDEST POP DUP6 SWAP4 POP POP POP POP SWAP3 SWAP2 POP POP JUMP JUMPDEST PUSH1 0x0 PUSH2 0x13C3 DUP3 PUSH2 0x19D1 JUMP JUMPDEST PUSH2 0x13CD DUP2 DUP6 PUSH2 0x1A23 JUMP JUMPDEST SWAP4 POP PUSH2 0x13D8 DUP4 PUSH2 0x19B6 JUMP JUMPDEST DUP1 PUSH1 0x0 JUMPDEST DUP4 DUP2 LT ISZERO PUSH2 0x1409 JUMPI DUP2 MLOAD PUSH2 0x13F0 DUP9 DUP3 PUSH2 0x12D5 JUMP JUMPDEST SWAP8 POP PUSH2 0x13FB DUP4 PUSH2 0x19F4 JUMP JUMPDEST SWAP3 POP POP PUSH1 0x1 DUP2 ADD SWAP1 POP PUSH2 0x13DC JUMP JUMPDEST POP DUP6 SWAP4 POP POP POP POP SWAP3 SWAP2 POP POP JUMP JUMPDEST PUSH2 0x141F DUP2 PUSH2 0x1A84 JUMP JUMPDEST DUP3 MSTORE POP POP JUMP JUMPDEST PUSH2 0x142E DUP2 PUSH2 0x1A84 JUMP JUMPDEST DUP3 MSTORE POP POP JUMP JUMPDEST PUSH2 0x143D DUP2 PUSH2 0x1B07 JUMP JUMPDEST DUP3 MSTORE POP POP JUMP JUMPDEST PUSH2 0x144C DUP2 PUSH2 0x1B19 JUMP JUMPDEST DUP3 MSTORE POP POP JUMP JUMPDEST PUSH2 0x145B DUP2 PUSH2 0x1B2B JUMP JUMPDEST DUP3 MSTORE POP POP JUMP JUMPDEST PUSH2 0x146A DUP2 PUSH2 0x1B2B JUMP JUMPDEST DUP3 MSTORE POP POP JUMP JUMPDEST PUSH2 0x1479 DUP2 PUSH2 0x1AC9 JUMP JUMPDEST DUP3 MSTORE POP POP JUMP JUMPDEST PUSH2 0x1488 DUP2 PUSH2 0x1AC9 JUMP JUMPDEST DUP3 MSTORE POP POP JUMP JUMPDEST PUSH1 0x0 PUSH2 0x1499 DUP3 PUSH2 0x19DC JUMP JUMPDEST PUSH2 0x14A3 DUP2 DUP6 PUSH2 0x1A34 JUMP JUMPDEST SWAP4 POP PUSH2 0x14B3 DUP2 DUP6 PUSH1 0x20 DUP7 ADD PUSH2 0x1B4C JUMP JUMPDEST PUSH2 0x14BC DUP2 PUSH2 0x1CB6 JUMP JUMPDEST DUP5 ADD SWAP2 POP POP SWAP3 SWAP2 POP POP JUMP JUMPDEST PUSH1 0x0 PUSH2 0x14D2 DUP3 PUSH2 0x19DC JUMP JUMPDEST PUSH2 0x14DC DUP2 DUP6 PUSH2 0x1A45 JUMP JUMPDEST SWAP4 POP PUSH2 0x14EC DUP2 DUP6 PUSH1 0x20 DUP7 ADD PUSH2 0x1B4C JUMP JUMPDEST PUSH2 0x14F5 DUP2 PUSH2 0x1CB6 JUMP JUMPDEST DUP5 ADD SWAP2 POP POP SWAP3 SWAP2 POP POP JUMP JUMPDEST PUSH1 0x0 PUSH2 0x150B DUP3 PUSH2 0x19DC JUMP JUMPDEST PUSH2 0x1515 DUP2 DUP6 PUSH2 0x1A56 JUMP JUMPDEST SWAP4 POP PUSH2 0x1525 DUP2 DUP6 PUSH1 0x20 DUP7 ADD PUSH2 0x1B4C JUMP JUMPDEST PUSH2 0x152E DUP2 PUSH2 0x1CB6 JUMP JUMPDEST DUP5 ADD SWAP2 POP POP SWAP3 SWAP2 POP POP JUMP JUMPDEST PUSH1 0x0 PUSH2 0x1544 DUP3 PUSH2 0x19DC JUMP JUMPDEST PUSH2 0x154E DUP2 DUP6 PUSH2 0x1A67 JUMP JUMPDEST SWAP4 POP PUSH2 0x155E DUP2 DUP6 PUSH1 0x20 DUP7 ADD PUSH2 0x1B4C JUMP JUMPDEST DUP1 DUP5 ADD SWAP2 POP POP SWAP3 SWAP2 POP POP JUMP JUMPDEST PUSH1 0x0 PUSH2 0x1577 PUSH1 0x20 DUP4 PUSH2 0x1A34 JUMP JUMPDEST SWAP2 POP PUSH32 0x50726F63657373205661726961626C65206973206E6F7420636F72726563742E PUSH1 0x0 DUP4 ADD MSTORE PUSH1 0x20 DUP3 ADD SWAP1 POP SWAP2 SWAP1 POP JUMP JUMPDEST PUSH1 0x0 PUSH1 0x40 DUP4 ADD PUSH1 0x0 DUP4 ADD MLOAD PUSH2 0x15C2 PUSH1 0x0 DUP7 ADD DUP3 PUSH2 0x177A JUMP JUMPDEST POP PUSH1 0x20 DUP4 ADD MLOAD DUP5 DUP3 SUB PUSH1 0x20 DUP7 ADD MSTORE PUSH2 0x15DA DUP3 DUP3 PUSH2 0x1500 JUMP JUMPDEST SWAP2 POP POP DUP1 SWAP2 POP POP SWAP3 SWAP2 POP POP JUMP JUMPDEST PUSH1 0x0 PUSH2 0x120 DUP4 ADD PUSH1 0x0 DUP4 ADD MLOAD PUSH2 0x1600 PUSH1 0x0 DUP7 ADD DUP3 PUSH2 0x177A JUMP JUMPDEST POP PUSH1 0x20 DUP4 ADD MLOAD PUSH2 0x1613 PUSH1 0x20 DUP7 ADD DUP3 PUSH2 0x1443 JUMP JUMPDEST POP PUSH1 0x40 DUP4 ADD MLOAD PUSH2 0x1626 PUSH1 0x40 DUP7 ADD DUP3 PUSH2 0x1434 JUMP JUMPDEST POP PUSH1 0x60 DUP4 ADD MLOAD PUSH2 0x1639 PUSH1 0x60 DUP7 ADD DUP3 PUSH2 0x1425 JUMP JUMPDEST POP PUSH1 0x80 DUP4 ADD MLOAD PUSH2 0x164C PUSH1 0x80 DUP7 ADD DUP3 PUSH2 0x1425 JUMP JUMPDEST POP PUSH1 0xA0 DUP4 ADD MLOAD PUSH2 0x165F PUSH1 0xA0 DUP7 ADD DUP3 PUSH2 0x1461 JUMP JUMPDEST POP PUSH1 0xC0 DUP4 ADD MLOAD DUP5 DUP3 SUB PUSH1 0xC0 DUP7 ADD MSTORE PUSH2 0x1677 DUP3 DUP3 PUSH2 0x1500 JUMP JUMPDEST SWAP2 POP POP PUSH1 0xE0 DUP4 ADD MLOAD DUP5 DUP3 SUB PUSH1 0xE0 DUP7 ADD MSTORE PUSH2 0x1691 DUP3 DUP3 PUSH2 0x1500 JUMP JUMPDEST SWAP2 POP POP PUSH2 0x100 DUP4 ADD MLOAD DUP5 DUP3 SUB PUSH2 0x100 DUP7 ADD MSTORE PUSH2 0x16AD DUP3 DUP3 PUSH2 0x135A JUMP JUMPDEST SWAP2 POP POP DUP1 SWAP2 POP POP SWAP3 SWAP2 POP POP JUMP JUMPDEST PUSH1 0x0 PUSH1 0xE0 DUP4 ADD PUSH1 0x0 DUP4 ADD MLOAD DUP5 DUP3 SUB PUSH1 0x0 DUP7 ADD MSTORE PUSH2 0x16D7 DUP3 DUP3 PUSH2 0x1500 JUMP JUMPDEST SWAP2 POP POP PUSH1 0x20 DUP4 ADD MLOAD PUSH2 0x16EC PUSH1 0x20 DUP7 ADD DUP3 PUSH2 0x12ED JUMP JUMPDEST POP PUSH1 0x40 DUP4 ADD MLOAD PUSH2 0x16FF PUSH1 0x40 DUP7 ADD DUP3 PUSH2 0x1425 JUMP JUMPDEST POP PUSH1 0x60 DUP4 ADD MLOAD PUSH2 0x1712 PUSH1 0x60 DUP7 ADD DUP3 PUSH2 0x1443 JUMP JUMPDEST POP PUSH1 0x80 DUP4 ADD MLOAD DUP5 DUP3 SUB PUSH1 0x80 DUP7 ADD MSTORE PUSH2 0x172A DUP3 DUP3 PUSH2 0x13B8 JUMP JUMPDEST SWAP2 POP POP PUSH1 0xA0 DUP4 ADD MLOAD DUP5 DUP3 SUB PUSH1 0xA0 DUP7 ADD MSTORE PUSH2 0x1744 DUP3 DUP3 PUSH2 0x13B8 JUMP JUMPDEST SWAP2 POP POP PUSH1 0xC0 DUP4 ADD MLOAD DUP5 DUP3 SUB PUSH1 0xC0 DUP7 ADD MSTORE PUSH2 0x175E DUP3 DUP3 PUSH2 0x15E7 JUMP JUMPDEST SWAP2 POP POP DUP1 SWAP2 POP POP SWAP3 SWAP2 POP POP JUMP JUMPDEST PUSH2 0x1774 DUP2 PUSH2 0x1AFD JUMP JUMPDEST DUP3 MSTORE POP POP JUMP JUMPDEST PUSH2 0x1783 DUP2 PUSH2 0x1AFD JUMP JUMPDEST DUP3 MSTORE POP POP JUMP JUMPDEST PUSH1 0x0 PUSH2 0x1795 DUP3 DUP5 PUSH2 0x1539 JUMP JUMPDEST SWAP2 POP DUP2 SWAP1 POP SWAP3 SWAP2 POP POP JUMP JUMPDEST PUSH1 0x0 PUSH1 0x20 DUP3 ADD SWAP1 POP PUSH2 0x17B5 PUSH1 0x0 DUP4 ADD DUP5 PUSH2 0x1416 JUMP JUMPDEST SWAP3 SWAP2 POP POP JUMP JUMPDEST PUSH1 0x0 PUSH1 0x40 DUP3 ADD SWAP1 POP PUSH2 0x17D0 PUSH1 0x0 DUP4 ADD DUP6 PUSH2 0x1416 JUMP JUMPDEST PUSH2 0x17DD PUSH1 0x20 DUP4 ADD DUP5 PUSH2 0x176B JUMP JUMPDEST SWAP4 SWAP3 POP POP POP JUMP JUMPDEST PUSH1 0x0 PUSH1 0x60 DUP3 ADD SWAP1 POP PUSH2 0x17F9 PUSH1 0x0 DUP4 ADD DUP7 PUSH2 0x1470 JUMP JUMPDEST DUP2 DUP2 SUB PUSH1 0x20 DUP4 ADD MSTORE PUSH2 0x180B DUP2 DUP6 PUSH2 0x12FC JUMP JUMPDEST SWAP1 POP PUSH2 0x181A PUSH1 0x40 DUP4 ADD DUP5 PUSH2 0x1452 JUMP JUMPDEST SWAP5 SWAP4 POP POP POP POP JUMP JUMPDEST PUSH1 0x0 PUSH1 0x20 DUP3 ADD SWAP1 POP DUP2 DUP2 SUB PUSH1 0x0 DUP4 ADD MSTORE PUSH2 0x183C DUP2 DUP5 PUSH2 0x148E JUMP JUMPDEST SWAP1 POP SWAP3 SWAP2 POP POP JUMP JUMPDEST PUSH1 0x0 PUSH1 0x60 DUP3 ADD SWAP1 POP DUP2 DUP2 SUB PUSH1 0x0 DUP4 ADD MSTORE PUSH2 0x185E DUP2 DUP7 PUSH2 0x14C7 JUMP JUMPDEST SWAP1 POP DUP2 DUP2 SUB PUSH1 0x20 DUP4 ADD MSTORE PUSH2 0x1872 DUP2 DUP6 PUSH2 0x14C7 JUMP JUMPDEST SWAP1 POP PUSH2 0x1881 PUSH1 0x40 DUP4 ADD DUP5 PUSH2 0x1452 JUMP JUMPDEST SWAP5 SWAP4 POP POP POP POP JUMP JUMPDEST PUSH1 0x0 PUSH1 0x20 DUP3 ADD SWAP1 POP DUP2 DUP2 SUB PUSH1 0x0 DUP4 ADD MSTORE PUSH2 0x18A2 DUP2 PUSH2 0x156A JUMP JUMPDEST SWAP1 POP SWAP2 SWAP1 POP JUMP JUMPDEST PUSH1 0x0 PUSH1 0x20 DUP3 ADD SWAP1 POP DUP2 DUP2 SUB PUSH1 0x0 DUP4 ADD MSTORE PUSH2 0x18C3 DUP2 DUP5 PUSH2 0x15AA JUMP JUMPDEST SWAP1 POP SWAP3 SWAP2 POP POP JUMP JUMPDEST PUSH1 0x0 PUSH1 0x20 DUP3 ADD SWAP1 POP DUP2 DUP2 SUB PUSH1 0x0 DUP4 ADD MSTORE PUSH2 0x18E5 DUP2 DUP5 PUSH2 0x16BA JUMP JUMPDEST SWAP1 POP SWAP3 SWAP2 POP POP JUMP JUMPDEST PUSH1 0x0 PUSH1 0x40 MLOAD SWAP1 POP DUP2 DUP2 ADD DUP2 DUP2 LT PUSH8 0xFFFFFFFFFFFFFFFF DUP3 GT OR ISZERO PUSH2 0x1914 JUMPI PUSH2 0x1913 PUSH2 0x1C87 JUMP JUMPDEST JUMPDEST DUP1 PUSH1 0x40 MSTORE POP SWAP2 SWAP1 POP JUMP JUMPDEST PUSH1 0x0 PUSH8 0xFFFFFFFFFFFFFFFF DUP3 GT ISZERO PUSH2 0x1939 JUMPI PUSH2 0x1938 PUSH2 0x1C87 JUMP JUMPDEST JUMPDEST PUSH1 0x20 DUP3 MUL SWAP1 POP PUSH1 0x20 DUP2 ADD SWAP1 POP SWAP2 SWAP1 POP JUMP JUMPDEST PUSH1 0x0 PUSH8 0xFFFFFFFFFFFFFFFF DUP3 GT ISZERO PUSH2 0x1965 JUMPI PUSH2 0x1964 PUSH2 0x1C87 JUMP JUMPDEST JUMPDEST PUSH1 0x20 DUP3 MUL SWAP1 POP PUSH1 0x20 DUP2 ADD SWAP1 POP SWAP2 SWAP1 POP JUMP JUMPDEST PUSH1 0x0 PUSH8 0xFFFFFFFFFFFFFFFF DUP3 GT ISZERO PUSH2 0x1991 JUMPI PUSH2 0x1990 PUSH2 0x1C87 JUMP JUMPDEST JUMPDEST PUSH1 0x1F NOT PUSH1 0x1F DUP4 ADD AND SWAP1 POP PUSH1 0x20 DUP2 ADD SWAP1 POP SWAP2 SWAP1 POP JUMP JUMPDEST PUSH1 0x0 DUP2 SWAP1 POP PUSH1 0x20 DUP3 ADD SWAP1 POP SWAP2 SWAP1 POP JUMP JUMPDEST PUSH1 0x0 DUP2 SWAP1 POP PUSH1 0x20 DUP3 ADD SWAP1 POP SWAP2 SWAP1 POP JUMP JUMPDEST PUSH1 0x0 DUP2 MLOAD SWAP1 POP SWAP2 SWAP1 POP JUMP JUMPDEST PUSH1 0x0 DUP2 MLOAD SWAP1 POP SWAP2 SWAP1 POP JUMP JUMPDEST PUSH1 0x0 DUP2 MLOAD SWAP1 POP SWAP2 SWAP1 POP JUMP JUMPDEST PUSH1 0x0 PUSH1 0x20 DUP3 ADD SWAP1 POP SWAP2 SWAP1 POP JUMP JUMPDEST PUSH1 0x0 PUSH1 0x20 DUP3 ADD SWAP1 POP SWAP2 SWAP1 POP JUMP JUMPDEST PUSH1 0x0 DUP3 DUP3 MSTORE PUSH1 0x20 DUP3 ADD SWAP1 POP SWAP3 SWAP2 POP POP JUMP JUMPDEST PUSH1 0x0 DUP3 DUP3 MSTORE PUSH1 0x20 DUP3 ADD SWAP1 POP SWAP3 SWAP2 POP POP JUMP JUMPDEST PUSH1 0x0 DUP3 DUP3 MSTORE PUSH1 0x20 DUP3 ADD SWAP1 POP SWAP3 SWAP2 POP POP JUMP JUMPDEST PUSH1 0x0 DUP3 DUP3 MSTORE PUSH1 0x20 DUP3 ADD SWAP1 POP SWAP3 SWAP2 POP POP JUMP JUMPDEST PUSH1 0x0 DUP3 DUP3 MSTORE PUSH1 0x20 DUP3 ADD SWAP1 POP SWAP3 SWAP2 POP POP JUMP JUMPDEST PUSH1 0x0 DUP3 DUP3 MSTORE PUSH1 0x20 DUP3 ADD SWAP1 POP SWAP3 SWAP2 POP POP JUMP JUMPDEST PUSH1 0x0 DUP2 SWAP1 POP SWAP3 SWAP2 POP POP JUMP JUMPDEST PUSH1 0x0 PUSH2 0x1A7D DUP3 PUSH2 0x1ADD JUMP JUMPDEST SWAP1 POP SWAP2 SWAP1 POP JUMP JUMPDEST PUSH1 0x0 DUP2 ISZERO ISZERO SWAP1 POP SWAP2 SWAP1 POP JUMP JUMPDEST PUSH1 0x0 DUP2 SWAP1 POP PUSH2 0x1A9E DUP3 PUSH2 0x1CC7 JUMP JUMPDEST SWAP2 SWAP1 POP JUMP JUMPDEST PUSH1 0x0 DUP2 SWAP1 POP PUSH2 0x1AB1 DUP3 PUSH2 0x1CDB JUMP JUMPDEST SWAP2 SWAP1 POP JUMP JUMPDEST PUSH1 0x0 DUP2 SWAP1 POP PUSH2 0x1AC4 DUP3 PUSH2 0x1CEF JUMP JUMPDEST SWAP2 SWAP1 POP JUMP JUMPDEST PUSH1 0x0 DUP2 SWAP1 POP SWAP2 SWAP1 POP JUMP JUMPDEST PUSH1 0x0 DUP2 SWAP1 POP SWAP2 SWAP1 POP JUMP JUMPDEST PUSH1 0x0 PUSH20 0xFFFFFFFFFFFFFFFFFFFFFFFFFFFFFFFFFFFFFFFF DUP3 AND SWAP1 POP SWAP2 SWAP1 POP JUMP JUMPDEST PUSH1 0x0 DUP2 SWAP1 POP SWAP2 SWAP1 POP JUMP JUMPDEST PUSH1 0x0 PUSH2 0x1B12 DUP3 PUSH2 0x1A90 JUMP JUMPDEST SWAP1 POP SWAP2 SWAP1 POP JUMP JUMPDEST PUSH1 0x0 PUSH2 0x1B24 DUP3 PUSH2 0x1AA3 JUMP JUMPDEST SWAP1 POP SWAP2 SWAP1 POP JUMP JUMPDEST PUSH1 0x0 PUSH2 0x1B36 DUP3 PUSH2 0x1AB6 JUMP JUMPDEST SWAP1 POP SWAP2 SWAP1 POP JUMP JUMPDEST DUP3 DUP2 DUP4 CALLDATACOPY PUSH1 0x0 DUP4 DUP4 ADD MSTORE POP POP POP JUMP JUMPDEST PUSH1 0x0 JUMPDEST DUP4 DUP2 LT ISZERO PUSH2 0x1B6A JUMPI DUP1 DUP3 ADD MLOAD DUP2 DUP5 ADD MSTORE PUSH1 0x20 DUP2 ADD SWAP1 POP PUSH2 0x1B4F JUMP JUMPDEST DUP4 DUP2 GT ISZERO PUSH2 0x1B79 JUMPI PUSH1 0x0 DUP5 DUP5 ADD MSTORE JUMPDEST POP POP POP POP JUMP JUMPDEST PUSH1 0x0 PUSH1 0x2 DUP3 DIV SWAP1 POP PUSH1 0x1 DUP3 AND DUP1 PUSH2 0x1B97 JUMPI PUSH1 0x7F DUP3 AND SWAP2 POP JUMPDEST PUSH1 0x20 DUP3 LT DUP2 EQ ISZERO PUSH2 0x1BAB JUMPI PUSH2 0x1BAA PUSH2 0x1C58 JUMP JUMPDEST JUMPDEST POP SWAP2 SWAP1 POP JUMP JUMPDEST PUSH1 0x0 PUSH2 0x1BBC DUP3 PUSH2 0x1AFD JUMP JUMPDEST SWAP2 POP PUSH32 0xFFFFFFFFFFFFFFFFFFFFFFFFFFFFFFFFFFFFFFFFFFFFFFFFFFFFFFFFFFFFFFFF DUP3 EQ ISZERO PUSH2 0x1BEF JUMPI PUSH2 0x1BEE PUSH2 0x1BFA JUMP JUMPDEST JUMPDEST PUSH1 0x1 DUP3 ADD SWAP1 POP SWAP2 SWAP1 POP JUMP JUMPDEST PUSH32 0x4E487B7100000000000000000000000000000000000000000000000000000000 PUSH1 0x0 MSTORE PUSH1 0x11 PUSH1 0x4 MSTORE PUSH1 0x24 PUSH1 0x0 REVERT JUMPDEST PUSH32 0x4E487B7100000000000000000000000000000000000000000000000000000000 PUSH1 0x0 MSTORE PUSH1 0x21 PUSH1 0x4 MSTORE PUSH1 0x24 PUSH1 0x0 REVERT JUMPDEST PUSH32 0x4E487B7100000000000000000000000000000000000000000000000000000000 PUSH1 0x0 MSTORE PUSH1 0x22 PUSH1 0x4 MSTORE PUSH1 0x24 PUSH1 0x0 REVERT JUMPDEST PUSH32 0x4E487B7100000000000000000000000000000000000000000000000000000000 PUSH1 0x0 MSTORE PUSH1 0x41 PUSH1 0x4 MSTORE PUSH1 0x24 PUSH1 0x0 REVERT JUMPDEST PUSH1 0x0 PUSH1 0x1F NOT PUSH1 0x1F DUP4 ADD AND SWAP1 POP SWAP2 SWAP1 POP JUMP JUMPDEST PUSH1 0x3 DUP2 LT PUSH2 0x1CD8 JUMPI PUSH2 0x1CD7 PUSH2 0x1C29 JUMP JUMPDEST JUMPDEST POP JUMP JUMPDEST PUSH1 0x4 DUP2 LT PUSH2 0x1CEC JUMPI PUSH2 0x1CEB PUSH2 0x1C29 JUMP JUMPDEST JUMPDEST POP JUMP JUMPDEST PUSH1 0x7 DUP2 LT PUSH2 0x1D00 JUMPI PUSH2 0x1CFF PUSH2 0x1C29 JUMP JUMPDEST JUMPDEST POP JUMP JUMPDEST PUSH2 0x1D0C DUP2 PUSH2 0x1A72 JUMP JUMPDEST DUP2 EQ PUSH2 0x1D17 JUMPI PUSH1 0x0 DUP1 REVERT JUMPDEST POP JUMP JUMPDEST PUSH2 0x1D23 DUP2 PUSH2 0x1A84 JUMP JUMPDEST DUP2 EQ PUSH2 0x1D2E JUMPI PUSH1 0x0 DUP1 REVERT JUMPDEST POP JUMP JUMPDEST PUSH1 0x3 DUP2 LT PUSH2 0x1D3E JUMPI PUSH1 0x0 DUP1 REVERT JUMPDEST POP JUMP JUMPDEST PUSH1 0x4 DUP2 LT PUSH2 0x1D4E JUMPI PUSH1 0x0 DUP1 REVERT JUMPDEST POP JUMP JUMPDEST PUSH1 0x7 DUP2 LT PUSH2 0x1D5E JUMPI PUSH1 0x0 DUP1 REVERT JUMPDEST POP JUMP JUMPDEST PUSH2 0x1D6A DUP2 PUSH2 0x1AC9 JUMP JUMPDEST DUP2 EQ PUSH2 0x1D75 JUMPI PUSH1 0x0 DUP1 REVERT JUMPDEST POP JUMP JUMPDEST PUSH2 0x1D81 DUP2 PUSH2 0x1AD3 JUMP JUMPDEST DUP2 EQ PUSH2 0x1D8C JUMPI PUSH1 0x0 DUP1 REVERT JUMPDEST POP JUMP JUMPDEST PUSH2 0x1D98 DUP2 PUSH2 0x1AFD JUMP JUMPDEST DUP2 EQ PUSH2 0x1DA3 JUMPI PUSH1 0x0 DUP1 REVERT JUMPDEST POP JUMP INVALID LOG2 PUSH5 0x6970667358 0x22 SLT KECCAK256 0xA7 0xD6 DUP14 0xC0 SHR 0xEA 0xA6 PUSH6 0xAB641C1EEFFB 0xAB SWAP14 CALLVALUE 0xC6 PUSH32 0x6A0397894C2CB7B07D5F3C25CB64736F6C634300080000330000000000000000 "},"gasEstimates":{"creation":{"codeDepositCost":"1528800","executionCost":"1625","totalCost":"1530425"},"external":{"completeTask(TaskEntities.Task,ProcessEntities.State storage)":"infinite","createDbTask(uint256,TaskEntities.Task)":"infinite","createTask(string,address,DecisionEntities.GatewayType,uint256[],uint256[])":"infinite","evaluateDecision(DecisionEntities.Decision,ProcessEntities.State storage)":"infinite"}},"methodIdentifiers":{"completeTask(TaskEntities.Task,ProcessEntities.State storage)":"e00e0eea","createDbTask(uint256,TaskEntities.Task)":"a0bb48ab","createTask(string,address,DecisionEntities.GatewayType,uint256[],uint256[])":"72e6436b","evaluateDecision(DecisionEntities.Decision,ProcessEntities.State storage)":"b707c694"}},"storageLayout":{"storage":[],"types":null},"userdoc":{"kind":"user","methods":{},"version":1}}